{
	"contracts/VaultManager.sol": {
		"StablecoinVaultManager": {
			"abi": [
				{
					"anonymous": false,
					"inputs": [
						{
							"indexed": true,
							"internalType": "address",
							"name": "user",
							"type": "address"
						},
						{
							"indexed": true,
							"internalType": "address",
							"name": "token",
							"type": "address"
						},
						{
							"indexed": false,
							"internalType": "uint256",
							"name": "amount",
							"type": "uint256"
						},
						{
							"indexed": false,
							"internalType": "uint256",
							"name": "timestamp",
							"type": "uint256"
						}
					],
					"name": "DepositMade",
					"type": "event"
				},
				{
					"anonymous": false,
					"inputs": [
						{
							"indexed": true,
							"internalType": "address",
							"name": "user",
							"type": "address"
						},
						{
							"indexed": true,
							"internalType": "address",
							"name": "token",
							"type": "address"
						},
						{
							"indexed": false,
							"internalType": "uint256",
							"name": "amount",
							"type": "uint256"
						},
						{
							"indexed": false,
							"internalType": "uint256",
							"name": "issuedTokens",
							"type": "uint256"
						}
					],
					"name": "Withdrawal",
					"type": "event"
				},
				{
					"inputs": [],
					"name": "DAI",
					"outputs": [
						{
							"internalType": "address",
							"name": "",
							"type": "address"
						}
					],
					"stateMutability": "view",
					"type": "function"
				},
				{
					"inputs": [],
					"name": "SUSD",
					"outputs": [
						{
							"internalType": "address",
							"name": "",
							"type": "address"
						}
					],
					"stateMutability": "view",
					"type": "function"
				},
				{
					"inputs": [],
					"name": "USDC",
					"outputs": [
						{
							"internalType": "address",
							"name": "",
							"type": "address"
						}
					],
					"stateMutability": "view",
					"type": "function"
				},
				{
					"inputs": [],
					"name": "USDT",
					"outputs": [
						{
							"internalType": "address",
							"name": "",
							"type": "address"
						}
					],
					"stateMutability": "view",
					"type": "function"
				},
				{
					"inputs": [],
					"name": "YCRV_VAULT",
					"outputs": [
						{
							"internalType": "address",
							"name": "",
							"type": "address"
						}
					],
					"stateMutability": "view",
					"type": "function"
				},
				{
					"inputs": [
						{
							"internalType": "address",
							"name": "user",
							"type": "address"
						}
					],
					"name": "calculateTotalTokens",
					"outputs": [
						{
							"internalType": "uint256",
							"name": "",
							"type": "uint256"
						}
					],
					"stateMutability": "view",
					"type": "function"
				},
				{
					"inputs": [
						{
							"internalType": "address",
							"name": "token",
							"type": "address"
						},
						{
							"internalType": "uint256",
							"name": "amount",
							"type": "uint256"
						}
					],
					"name": "depositToVault",
					"outputs": [],
					"stateMutability": "nonpayable",
					"type": "function"
				},
				{
					"inputs": [
						{
							"internalType": "address",
							"name": "",
							"type": "address"
						}
					],
					"name": "releasedTokens",
					"outputs": [
						{
							"internalType": "uint256",
							"name": "",
							"type": "uint256"
						}
					],
					"stateMutability": "view",
					"type": "function"
				},
				{
					"inputs": [
						{
							"internalType": "address",
							"name": "",
							"type": "address"
						},
						{
							"internalType": "address",
							"name": "",
							"type": "address"
						}
					],
					"name": "userDeposits",
					"outputs": [
						{
							"internalType": "uint256",
							"name": "amount",
							"type": "uint256"
						},
						{
							"internalType": "uint256",
							"name": "timestamp",
							"type": "uint256"
						}
					],
					"stateMutability": "view",
					"type": "function"
				},
				{
					"inputs": [
						{
							"internalType": "address",
							"name": "token",
							"type": "address"
						},
						{
							"internalType": "uint256",
							"name": "amount",
							"type": "uint256"
						}
					],
					"name": "withdrawFromVault",
					"outputs": [],
					"stateMutability": "nonpayable",
					"type": "function"
				}
			],
			"devdoc": {
				"kind": "dev",
				"methods": {},
				"version": 1
			},
			"evm": {
				"assembly": "    /* \"contracts/VaultManager.sol\":490:3659  contract StablecoinVaultManager {... */\n  mstore(0x40, 0x80)\n  callvalue\n  dup1\n  iszero\n  tag_1\n  jumpi\n  revert(0x00, 0x00)\ntag_1:\n  pop\n  dataSize(sub_0)\n  dup1\n  dataOffset(sub_0)\n  0x00\n  codecopy\n  0x00\n  return\nstop\n\nsub_0: assembly {\n        /* \"contracts/VaultManager.sol\":490:3659  contract StablecoinVaultManager {... */\n      mstore(0x40, 0x80)\n      callvalue\n      dup1\n      iszero\n      tag_1\n      jumpi\n      revert(0x00, 0x00)\n    tag_1:\n      pop\n      jumpi(tag_2, lt(calldatasize, 0x04))\n      shr(0xe0, calldataload(0x00))\n      dup1\n      0x84053423\n      gt\n      tag_13\n      jumpi\n      dup1\n      0x84053423\n      eq\n      tag_8\n      jumpi\n      dup1\n      0x89a30271\n      eq\n      tag_9\n      jumpi\n      dup1\n      0xa3d11158\n      eq\n      tag_10\n      jumpi\n      dup1\n      0xc54e44eb\n      eq\n      tag_11\n      jumpi\n      dup1\n      0xe0bab4c4\n      eq\n      tag_12\n      jumpi\n      jump(tag_2)\n    tag_13:\n      dup1\n      0x15d8eeba\n      eq\n      tag_3\n      jumpi\n      dup1\n      0x21116f4e\n      eq\n      tag_4\n      jumpi\n      dup1\n      0x436d8039\n      eq\n      tag_5\n      jumpi\n      dup1\n      0x70ff852b\n      eq\n      tag_6\n      jumpi\n      dup1\n      0x791f96a7\n      eq\n      tag_7\n      jumpi\n    tag_2:\n      revert(0x00, 0x00)\n        /* \"contracts/VaultManager.sol\":768:841  address public constant SUSD = 0x57Ab1ec28D129707052df4dF418D58a2D46d5f51 */\n    tag_3:\n      tag_14\n      tag_15\n      jump\t// in\n    tag_14:\n      mload(0x40)\n      tag_16\n      swap2\n      swap1\n      tag_17\n      jump\t// in\n    tag_16:\n      mload(0x40)\n      dup1\n      swap2\n      sub\n      swap1\n      return\n        /* \"contracts/VaultManager.sol\":2586:3387  function withdrawFromVault(address token, uint256 amount) external {... */\n    tag_4:\n      tag_18\n      0x04\n      dup1\n      calldatasize\n      sub\n      dup2\n      add\n      swap1\n      tag_19\n      swap2\n      swap1\n      tag_20\n      jump\t// in\n    tag_19:\n      tag_21\n      jump\t// in\n    tag_18:\n      stop\n        /* \"contracts/VaultManager.sol\":1026:1097  mapping(address => mapping(address => DepositInfo)) public userDeposits */\n    tag_5:\n      tag_22\n      0x04\n      dup1\n      calldatasize\n      sub\n      dup2\n      add\n      swap1\n      tag_23\n      swap2\n      swap1\n      tag_24\n      jump\t// in\n    tag_23:\n      tag_25\n      jump\t// in\n    tag_22:\n      mload(0x40)\n      tag_26\n      swap3\n      swap2\n      swap1\n      tag_27\n      jump\t// in\n    tag_26:\n      mload(0x40)\n      dup1\n      swap2\n      sub\n      swap1\n      return\n        /* \"contracts/VaultManager.sol\":1104:1153  mapping(address => uint256) public releasedTokens */\n    tag_6:\n      tag_28\n      0x04\n      dup1\n      calldatasize\n      sub\n      dup2\n      add\n      swap1\n      tag_29\n      swap2\n      swap1\n      tag_30\n      jump\t// in\n    tag_29:\n      tag_31\n      jump\t// in\n    tag_28:\n      mload(0x40)\n      tag_32\n      swap2\n      swap1\n      tag_33\n      jump\t// in\n    tag_32:\n      mload(0x40)\n      dup1\n      swap2\n      sub\n      swap1\n      return\n        /* \"contracts/VaultManager.sol\":850:929  address public constant YCRV_VAULT = 0x5533ed0a3b83F70c3c4a1f69Ef5546D3D4713E44 */\n    tag_7:\n      tag_34\n      tag_35\n      jump\t// in\n    tag_34:\n      mload(0x40)\n      tag_36\n      swap2\n      swap1\n      tag_17\n      jump\t// in\n    tag_36:\n      mload(0x40)\n      dup1\n      swap2\n      sub\n      swap1\n      return\n        /* \"contracts/VaultManager.sol\":3534:3656  function calculateTotalTokens(address user) external view returns (uint256) {... */\n    tag_8:\n      tag_37\n      0x04\n      dup1\n      calldatasize\n      sub\n      dup2\n      add\n      swap1\n      tag_38\n      swap2\n      swap1\n      tag_30\n      jump\t// in\n    tag_38:\n      tag_39\n      jump\t// in\n    tag_37:\n      mload(0x40)\n      tag_40\n      swap2\n      swap1\n      tag_33\n      jump\t// in\n    tag_40:\n      mload(0x40)\n      dup1\n      swap2\n      sub\n      swap1\n      return\n        /* \"contracts/VaultManager.sol\":609:682  address public constant USDC = 0xA0b86991c6218b36c1d19D4a2e9Eb0cE3606eB48 */\n    tag_9:\n      tag_41\n      tag_42\n      jump\t// in\n    tag_41:\n      mload(0x40)\n      tag_43\n      swap2\n      swap1\n      tag_17\n      jump\t// in\n    tag_43:\n      mload(0x40)\n      dup1\n      swap2\n      sub\n      swap1\n      return\n        /* \"contracts/VaultManager.sol\":1529:2578  function depositToVault(address token, uint256 amount) external {... */\n    tag_10:\n      tag_44\n      0x04\n      dup1\n      calldatasize\n      sub\n      dup2\n      add\n      swap1\n      tag_45\n      swap2\n      swap1\n      tag_20\n      jump\t// in\n    tag_45:\n      tag_46\n      jump\t// in\n    tag_44:\n      stop\n        /* \"contracts/VaultManager.sol\":529:602  address public constant USDT = 0xdAC17F958D2ee523a2206206994597C13D831ec7 */\n    tag_11:\n      tag_47\n      tag_48\n      jump\t// in\n    tag_47:\n      mload(0x40)\n      tag_49\n      swap2\n      swap1\n      tag_17\n      jump\t// in\n    tag_49:\n      mload(0x40)\n      dup1\n      swap2\n      sub\n      swap1\n      return\n        /* \"contracts/VaultManager.sol\":689:761  address public constant DAI = 0x6B175474E89094C44Da98b954EedeAC495271d0F */\n    tag_12:\n      tag_50\n      tag_51\n      jump\t// in\n    tag_50:\n      mload(0x40)\n      tag_52\n      swap2\n      swap1\n      tag_17\n      jump\t// in\n    tag_52:\n      mload(0x40)\n      dup1\n      swap2\n      sub\n      swap1\n      return\n        /* \"contracts/VaultManager.sol\":768:841  address public constant SUSD = 0x57Ab1ec28D129707052df4dF418D58a2D46d5f51 */\n    tag_15:\n        /* \"contracts/VaultManager.sol\":799:841  0x57Ab1ec28D129707052df4dF418D58a2D46d5f51 */\n      0x57ab1ec28d129707052df4df418d58a2d46d5f51\n        /* \"contracts/VaultManager.sol\":768:841  address public constant SUSD = 0x57Ab1ec28D129707052df4dF418D58a2D46d5f51 */\n      dup2\n      jump\t// out\n        /* \"contracts/VaultManager.sol\":2586:3387  function withdrawFromVault(address token, uint256 amount) external {... */\n    tag_21:\n        /* \"contracts/VaultManager.sol\":2664:2692  DepositInfo storage userInfo */\n      0x00\n        /* \"contracts/VaultManager.sol\":2695:2707  userDeposits */\n      0x00\n        /* \"contracts/VaultManager.sol\":2695:2719  userDeposits[msg.sender] */\n      0x00\n        /* \"contracts/VaultManager.sol\":2708:2718  msg.sender */\n      caller\n        /* \"contracts/VaultManager.sol\":2695:2719  userDeposits[msg.sender] */\n      0xffffffffffffffffffffffffffffffffffffffff\n      and\n      0xffffffffffffffffffffffffffffffffffffffff\n      and\n      dup2\n      mstore\n      0x20\n      add\n      swap1\n      dup2\n      mstore\n      0x20\n      add\n      0x00\n      keccak256\n        /* \"contracts/VaultManager.sol\":2695:2726  userDeposits[msg.sender][token] */\n      0x00\n        /* \"contracts/VaultManager.sol\":2720:2725  token */\n      dup5\n        /* \"contracts/VaultManager.sol\":2695:2726  userDeposits[msg.sender][token] */\n      0xffffffffffffffffffffffffffffffffffffffff\n      and\n      0xffffffffffffffffffffffffffffffffffffffff\n      and\n      dup2\n      mstore\n      0x20\n      add\n      swap1\n      dup2\n      mstore\n      0x20\n      add\n      0x00\n      keccak256\n        /* \"contracts/VaultManager.sol\":2664:2726  DepositInfo storage userInfo = userDeposits[msg.sender][token] */\n      swap1\n      pop\n        /* \"contracts/VaultManager.sol\":2764:2770  amount */\n      dup2\n        /* \"contracts/VaultManager.sol\":2745:2753  userInfo */\n      dup2\n        /* \"contracts/VaultManager.sol\":2745:2760  userInfo.amount */\n      0x00\n      add\n      sload\n        /* \"contracts/VaultManager.sol\":2745:2770  userInfo.amount >= amount */\n      lt\n      iszero\n        /* \"contracts/VaultManager.sol\":2737:2795  require(userInfo.amount >= amount, \"Insufficient balance\") */\n      tag_54\n      jumpi\n      mload(0x40)\n      0x08c379a000000000000000000000000000000000000000000000000000000000\n      dup2\n      mstore\n      0x04\n      add\n      tag_55\n      swap1\n      tag_56\n      jump\t// in\n    tag_55:\n      mload(0x40)\n      dup1\n      swap2\n      sub\n      swap1\n      revert\n    tag_54:\n        /* \"contracts/VaultManager.sol\":1416:1421  86400 */\n      0x015180\n        /* \"contracts/VaultManager.sol\":2854:2855  7 */\n      0x07\n        /* \"contracts/VaultManager.sol\":2854:2872  7 * DAY_IN_SECONDS */\n      tag_57\n      swap2\n      swap1\n      tag_58\n      jump\t// in\n    tag_57:\n        /* \"contracts/VaultManager.sol\":2833:2841  userInfo */\n      dup2\n        /* \"contracts/VaultManager.sol\":2833:2851  userInfo.timestamp */\n      0x01\n      add\n      sload\n        /* \"contracts/VaultManager.sol\":2833:2872  userInfo.timestamp + 7 * DAY_IN_SECONDS */\n      tag_59\n      swap2\n      swap1\n      tag_60\n      jump\t// in\n    tag_59:\n        /* \"contracts/VaultManager.sol\":2814:2829  block.timestamp */\n      timestamp\n        /* \"contracts/VaultManager.sol\":2814:2872  block.timestamp >= userInfo.timestamp + 7 * DAY_IN_SECONDS */\n      lt\n      iszero\n        /* \"contracts/VaultManager.sol\":2806:2905  require(block.timestamp >= userInfo.timestamp + 7 * DAY_IN_SECONDS, \"Withdrawal locked for 7 days\") */\n      tag_61\n      jumpi\n      mload(0x40)\n      0x08c379a000000000000000000000000000000000000000000000000000000000\n      dup2\n      mstore\n      0x04\n      add\n      tag_62\n      swap1\n      tag_63\n      jump\t// in\n    tag_62:\n      mload(0x40)\n      dup1\n      swap2\n      sub\n      swap1\n      revert\n    tag_61:\n        /* \"contracts/VaultManager.sol\":2918:2934  uint256 daysHeld */\n      0x00\n        /* \"contracts/VaultManager.sol\":1416:1421  86400 */\n      0x015180\n        /* \"contracts/VaultManager.sol\":2956:2964  userInfo */\n      dup3\n        /* \"contracts/VaultManager.sol\":2956:2974  userInfo.timestamp */\n      0x01\n      add\n      sload\n        /* \"contracts/VaultManager.sol\":2938:2953  block.timestamp */\n      timestamp\n        /* \"contracts/VaultManager.sol\":2938:2974  block.timestamp - userInfo.timestamp */\n      tag_64\n      swap2\n      swap1\n      tag_65\n      jump\t// in\n    tag_64:\n        /* \"contracts/VaultManager.sol\":2937:2992  (block.timestamp - userInfo.timestamp) / DAY_IN_SECONDS */\n      tag_66\n      swap2\n      swap1\n      tag_67\n      jump\t// in\n    tag_66:\n        /* \"contracts/VaultManager.sol\":2918:2992  uint256 daysHeld = (block.timestamp - userInfo.timestamp) / DAY_IN_SECONDS */\n      swap1\n      pop\n        /* \"contracts/VaultManager.sol\":3003:3022  uint256 extraTokens */\n      0x00\n        /* \"contracts/VaultManager.sol\":3061:3065  1e18 */\n      0x0de0b6b3a7640000\n        /* \"contracts/VaultManager.sol\":3051:3057  amount */\n      dup5\n        /* \"contracts/VaultManager.sol\":1467:1474  2739726 */\n      0x29ce0e\n        /* \"contracts/VaultManager.sol\":3026:3034  daysHeld */\n      dup5\n        /* \"contracts/VaultManager.sol\":3026:3048  daysHeld * ANNUAL_RATE */\n      tag_68\n      swap2\n      swap1\n      tag_58\n      jump\t// in\n    tag_68:\n        /* \"contracts/VaultManager.sol\":3026:3057  daysHeld * ANNUAL_RATE * amount */\n      tag_69\n      swap2\n      swap1\n      tag_58\n      jump\t// in\n    tag_69:\n        /* \"contracts/VaultManager.sol\":3025:3065  (daysHeld * ANNUAL_RATE * amount) / 1e18 */\n      tag_70\n      swap2\n      swap1\n      tag_67\n      jump\t// in\n    tag_70:\n        /* \"contracts/VaultManager.sol\":3003:3065  uint256 extraTokens = (daysHeld * ANNUAL_RATE * amount) / 1e18 */\n      swap1\n      pop\n        /* \"contracts/VaultManager.sol\":3097:3103  amount */\n      dup4\n        /* \"contracts/VaultManager.sol\":3078:3086  userInfo */\n      dup4\n        /* \"contracts/VaultManager.sol\":3078:3093  userInfo.amount */\n      0x00\n      add\n      0x00\n        /* \"contracts/VaultManager.sol\":3078:3103  userInfo.amount -= amount */\n      dup3\n      dup3\n      sload\n      tag_71\n      swap2\n      swap1\n      tag_65\n      jump\t// in\n    tag_71:\n      swap3\n      pop\n      pop\n      dup2\n      swap1\n      sstore\n      pop\n        /* \"contracts/VaultManager.sol\":3137:3138  0 */\n      0x00\n        /* \"contracts/VaultManager.sol\":3118:3126  userInfo */\n      dup4\n        /* \"contracts/VaultManager.sol\":3118:3133  userInfo.amount */\n      0x00\n      add\n      sload\n        /* \"contracts/VaultManager.sol\":3118:3138  userInfo.amount == 0 */\n      sub\n        /* \"contracts/VaultManager.sol\":3114:3258  if (userInfo.amount == 0) {... */\n      tag_72\n      jumpi\n        /* \"contracts/VaultManager.sol\":3176:3177  0 */\n      0x00\n        /* \"contracts/VaultManager.sol\":3155:3163  userInfo */\n      dup4\n        /* \"contracts/VaultManager.sol\":3155:3173  userInfo.timestamp */\n      0x01\n      add\n        /* \"contracts/VaultManager.sol\":3155:3177  userInfo.timestamp = 0 */\n      dup2\n      swap1\n      sstore\n      pop\n        /* \"contracts/VaultManager.sol\":3114:3258  if (userInfo.amount == 0) {... */\n      jump(tag_73)\n    tag_72:\n        /* \"contracts/VaultManager.sol\":3231:3246  block.timestamp */\n      timestamp\n        /* \"contracts/VaultManager.sol\":3210:3218  userInfo */\n      dup4\n        /* \"contracts/VaultManager.sol\":3210:3228  userInfo.timestamp */\n      0x01\n      add\n        /* \"contracts/VaultManager.sol\":3210:3246  userInfo.timestamp = block.timestamp */\n      dup2\n      swap1\n      sstore\n      pop\n        /* \"contracts/VaultManager.sol\":3114:3258  if (userInfo.amount == 0) {... */\n    tag_73:\n        /* \"contracts/VaultManager.sol\":3300:3311  extraTokens */\n      dup1\n        /* \"contracts/VaultManager.sol\":3270:3284  releasedTokens */\n      0x01\n        /* \"contracts/VaultManager.sol\":3270:3296  releasedTokens[msg.sender] */\n      0x00\n        /* \"contracts/VaultManager.sol\":3285:3295  msg.sender */\n      caller\n        /* \"contracts/VaultManager.sol\":3270:3296  releasedTokens[msg.sender] */\n      0xffffffffffffffffffffffffffffffffffffffff\n      and\n      0xffffffffffffffffffffffffffffffffffffffff\n      and\n      dup2\n      mstore\n      0x20\n      add\n      swap1\n      dup2\n      mstore\n      0x20\n      add\n      0x00\n      keccak256\n      0x00\n        /* \"contracts/VaultManager.sol\":3270:3311  releasedTokens[msg.sender] += extraTokens */\n      dup3\n      dup3\n      sload\n      tag_74\n      swap2\n      swap1\n      tag_60\n      jump\t// in\n    tag_74:\n      swap3\n      pop\n      pop\n      dup2\n      swap1\n      sstore\n      pop\n        /* \"contracts/VaultManager.sol\":3352:3357  token */\n      dup5\n        /* \"contracts/VaultManager.sol\":3329:3379  Withdrawal(msg.sender, token, amount, extraTokens) */\n      0xffffffffffffffffffffffffffffffffffffffff\n      and\n        /* \"contracts/VaultManager.sol\":3340:3350  msg.sender */\n      caller\n        /* \"contracts/VaultManager.sol\":3329:3379  Withdrawal(msg.sender, token, amount, extraTokens) */\n      0xffffffffffffffffffffffffffffffffffffffff\n      and\n      0xc2b4a290c20fb28939d29f102514fbffd2b73c059ffba8b78250c94161d5fcc6\n        /* \"contracts/VaultManager.sol\":3359:3365  amount */\n      dup7\n        /* \"contracts/VaultManager.sol\":3367:3378  extraTokens */\n      dup5\n        /* \"contracts/VaultManager.sol\":3329:3379  Withdrawal(msg.sender, token, amount, extraTokens) */\n      mload(0x40)\n      tag_75\n      swap3\n      swap2\n      swap1\n      tag_27\n      jump\t// in\n    tag_75:\n      mload(0x40)\n      dup1\n      swap2\n      sub\n      swap1\n      log3\n        /* \"contracts/VaultManager.sol\":2653:3387  {... */\n      pop\n      pop\n      pop\n        /* \"contracts/VaultManager.sol\":2586:3387  function withdrawFromVault(address token, uint256 amount) external {... */\n      pop\n      pop\n      jump\t// out\n        /* \"contracts/VaultManager.sol\":1026:1097  mapping(address => mapping(address => DepositInfo)) public userDeposits */\n    tag_25:\n      mstore(0x20, 0x00)\n      dup2\n      0x00\n      mstore\n      mstore(0x20, keccak256(0x00, 0x40))\n      dup1\n      0x00\n      mstore\n      keccak256(0x00, 0x40)\n      0x00\n      swap2\n      pop\n      swap2\n      pop\n      pop\n      dup1\n      0x00\n      add\n      sload\n      swap1\n      dup1\n      0x01\n      add\n      sload\n      swap1\n      pop\n      dup3\n      jump\t// out\n        /* \"contracts/VaultManager.sol\":1104:1153  mapping(address => uint256) public releasedTokens */\n    tag_31:\n      mstore(0x20, 0x01)\n      dup1\n      0x00\n      mstore\n      keccak256(0x00, 0x40)\n      0x00\n      swap2\n      pop\n      swap1\n      pop\n      sload\n      dup2\n      jump\t// out\n        /* \"contracts/VaultManager.sol\":850:929  address public constant YCRV_VAULT = 0x5533ed0a3b83F70c3c4a1f69Ef5546D3D4713E44 */\n    tag_35:\n        /* \"contracts/VaultManager.sol\":887:929  0x5533ed0a3b83F70c3c4a1f69Ef5546D3D4713E44 */\n      0x5533ed0a3b83f70c3c4a1f69ef5546d3d4713e44\n        /* \"contracts/VaultManager.sol\":850:929  address public constant YCRV_VAULT = 0x5533ed0a3b83F70c3c4a1f69Ef5546D3D4713E44 */\n      dup2\n      jump\t// out\n        /* \"contracts/VaultManager.sol\":3534:3656  function calculateTotalTokens(address user) external view returns (uint256) {... */\n    tag_39:\n        /* \"contracts/VaultManager.sol\":3601:3608  uint256 */\n      0x00\n        /* \"contracts/VaultManager.sol\":3628:3642  releasedTokens */\n      0x01\n        /* \"contracts/VaultManager.sol\":3628:3648  releasedTokens[user] */\n      0x00\n        /* \"contracts/VaultManager.sol\":3643:3647  user */\n      dup4\n        /* \"contracts/VaultManager.sol\":3628:3648  releasedTokens[user] */\n      0xffffffffffffffffffffffffffffffffffffffff\n      and\n      0xffffffffffffffffffffffffffffffffffffffff\n      and\n      dup2\n      mstore\n      0x20\n      add\n      swap1\n      dup2\n      mstore\n      0x20\n      add\n      0x00\n      keccak256\n      sload\n        /* \"contracts/VaultManager.sol\":3621:3648  return releasedTokens[user] */\n      swap1\n      pop\n        /* \"contracts/VaultManager.sol\":3534:3656  function calculateTotalTokens(address user) external view returns (uint256) {... */\n      swap2\n      swap1\n      pop\n      jump\t// out\n        /* \"contracts/VaultManager.sol\":609:682  address public constant USDC = 0xA0b86991c6218b36c1d19D4a2e9Eb0cE3606eB48 */\n    tag_42:\n        /* \"contracts/VaultManager.sol\":640:682  0xA0b86991c6218b36c1d19D4a2e9Eb0cE3606eB48 */\n      0xa0b86991c6218b36c1d19d4a2e9eb0ce3606eb48\n        /* \"contracts/VaultManager.sol\":609:682  address public constant USDC = 0xA0b86991c6218b36c1d19D4a2e9Eb0cE3606eB48 */\n      dup2\n      jump\t// out\n        /* \"contracts/VaultManager.sol\":1529:2578  function depositToVault(address token, uint256 amount) external {... */\n    tag_46:\n        /* \"contracts/VaultManager.sol\":1621:1622  0 */\n      0x00\n        /* \"contracts/VaultManager.sol\":1612:1618  amount */\n      dup2\n        /* \"contracts/VaultManager.sol\":1612:1622  amount > 0 */\n      gt\n        /* \"contracts/VaultManager.sol\":1604:1656  require(amount > 0, \"Amount must be greater than 0\") */\n      tag_78\n      jumpi\n      mload(0x40)\n      0x08c379a000000000000000000000000000000000000000000000000000000000\n      dup2\n      mstore\n      0x04\n      add\n      tag_79\n      swap1\n      tag_80\n      jump\t// in\n    tag_79:\n      mload(0x40)\n      dup1\n      swap2\n      sub\n      swap1\n      revert\n    tag_78:\n        /* \"contracts/VaultManager.sol\":560:602  0xdAC17F958D2ee523a2206206994597C13D831ec7 */\n      0xdac17f958d2ee523a2206206994597c13d831ec7\n        /* \"contracts/VaultManager.sol\":1675:1688  token == USDT */\n      0xffffffffffffffffffffffffffffffffffffffff\n      and\n        /* \"contracts/VaultManager.sol\":1675:1680  token */\n      dup3\n        /* \"contracts/VaultManager.sol\":1675:1688  token == USDT */\n      0xffffffffffffffffffffffffffffffffffffffff\n      and\n      eq\n        /* \"contracts/VaultManager.sol\":1675:1705  token == USDT || token == USDC */\n      dup1\n      tag_81\n      jumpi\n      pop\n        /* \"contracts/VaultManager.sol\":640:682  0xA0b86991c6218b36c1d19D4a2e9Eb0cE3606eB48 */\n      0xa0b86991c6218b36c1d19d4a2e9eb0ce3606eb48\n        /* \"contracts/VaultManager.sol\":1692:1705  token == USDC */\n      0xffffffffffffffffffffffffffffffffffffffff\n      and\n        /* \"contracts/VaultManager.sol\":1692:1697  token */\n      dup3\n        /* \"contracts/VaultManager.sol\":1692:1705  token == USDC */\n      0xffffffffffffffffffffffffffffffffffffffff\n      and\n      eq\n        /* \"contracts/VaultManager.sol\":1675:1705  token == USDT || token == USDC */\n    tag_81:\n        /* \"contracts/VaultManager.sol\":1675:1721  token == USDT || token == USDC || token == DAI */\n      dup1\n      tag_82\n      jumpi\n      pop\n        /* \"contracts/VaultManager.sol\":719:761  0x6B175474E89094C44Da98b954EedeAC495271d0F */\n      0x6b175474e89094c44da98b954eedeac495271d0f\n        /* \"contracts/VaultManager.sol\":1709:1721  token == DAI */\n      0xffffffffffffffffffffffffffffffffffffffff\n      and\n        /* \"contracts/VaultManager.sol\":1709:1714  token */\n      dup3\n        /* \"contracts/VaultManager.sol\":1709:1721  token == DAI */\n      0xffffffffffffffffffffffffffffffffffffffff\n      and\n      eq\n        /* \"contracts/VaultManager.sol\":1675:1721  token == USDT || token == USDC || token == DAI */\n    tag_82:\n        /* \"contracts/VaultManager.sol\":1675:1738  token == USDT || token == USDC || token == DAI || token == SUSD */\n      dup1\n      tag_83\n      jumpi\n      pop\n        /* \"contracts/VaultManager.sol\":799:841  0x57Ab1ec28D129707052df4dF418D58a2D46d5f51 */\n      0x57ab1ec28d129707052df4df418d58a2d46d5f51\n        /* \"contracts/VaultManager.sol\":1725:1738  token == SUSD */\n      0xffffffffffffffffffffffffffffffffffffffff\n      and\n        /* \"contracts/VaultManager.sol\":1725:1730  token */\n      dup3\n        /* \"contracts/VaultManager.sol\":1725:1738  token == SUSD */\n      0xffffffffffffffffffffffffffffffffffffffff\n      and\n      eq\n        /* \"contracts/VaultManager.sol\":1675:1738  token == USDT || token == USDC || token == DAI || token == SUSD */\n    tag_83:\n        /* \"contracts/VaultManager.sol\":1667:1760  require(token == USDT || token == USDC || token == DAI || token == SUSD, \"Unsupported token\") */\n      tag_84\n      jumpi\n      mload(0x40)\n      0x08c379a000000000000000000000000000000000000000000000000000000000\n      dup2\n      mstore\n      0x04\n      add\n      tag_85\n      swap1\n      tag_86\n      jump\t// in\n    tag_85:\n      mload(0x40)\n      dup1\n      swap2\n      sub\n      swap1\n      revert\n    tag_84:\n        /* \"contracts/VaultManager.sol\":1837:1865  DepositInfo storage userInfo */\n      0x00\n        /* \"contracts/VaultManager.sol\":1868:1880  userDeposits */\n      0x00\n        /* \"contracts/VaultManager.sol\":1868:1892  userDeposits[msg.sender] */\n      0x00\n        /* \"contracts/VaultManager.sol\":1881:1891  msg.sender */\n      caller\n        /* \"contracts/VaultManager.sol\":1868:1892  userDeposits[msg.sender] */\n      0xffffffffffffffffffffffffffffffffffffffff\n      and\n      0xffffffffffffffffffffffffffffffffffffffff\n      and\n      dup2\n      mstore\n      0x20\n      add\n      swap1\n      dup2\n      mstore\n      0x20\n      add\n      0x00\n      keccak256\n        /* \"contracts/VaultManager.sol\":1868:1899  userDeposits[msg.sender][token] */\n      0x00\n        /* \"contracts/VaultManager.sol\":1893:1898  token */\n      dup5\n        /* \"contracts/VaultManager.sol\":1868:1899  userDeposits[msg.sender][token] */\n      0xffffffffffffffffffffffffffffffffffffffff\n      and\n      0xffffffffffffffffffffffffffffffffffffffff\n      and\n      dup2\n      mstore\n      0x20\n      add\n      swap1\n      dup2\n      mstore\n      0x20\n      add\n      0x00\n      keccak256\n        /* \"contracts/VaultManager.sol\":1837:1899  DepositInfo storage userInfo = userDeposits[msg.sender][token] */\n      swap1\n      pop\n        /* \"contracts/VaultManager.sol\":1932:1933  0 */\n      0x00\n        /* \"contracts/VaultManager.sol\":1914:1922  userInfo */\n      dup2\n        /* \"contracts/VaultManager.sol\":1914:1929  userInfo.amount */\n      0x00\n      add\n      sload\n        /* \"contracts/VaultManager.sol\":1914:1933  userInfo.amount > 0 */\n      gt\n        /* \"contracts/VaultManager.sol\":1910:2240  if (userInfo.amount > 0) {... */\n      iszero\n      tag_87\n      jumpi\n        /* \"contracts/VaultManager.sol\":1950:1966  uint256 daysHeld */\n      0x00\n        /* \"contracts/VaultManager.sol\":1416:1421  86400 */\n      0x015180\n        /* \"contracts/VaultManager.sol\":1988:1996  userInfo */\n      dup3\n        /* \"contracts/VaultManager.sol\":1988:2006  userInfo.timestamp */\n      0x01\n      add\n      sload\n        /* \"contracts/VaultManager.sol\":1970:1985  block.timestamp */\n      timestamp\n        /* \"contracts/VaultManager.sol\":1970:2006  block.timestamp - userInfo.timestamp */\n      tag_88\n      swap2\n      swap1\n      tag_65\n      jump\t// in\n    tag_88:\n        /* \"contracts/VaultManager.sol\":1969:2024  (block.timestamp - userInfo.timestamp) / DAY_IN_SECONDS */\n      tag_89\n      swap2\n      swap1\n      tag_67\n      jump\t// in\n    tag_89:\n        /* \"contracts/VaultManager.sol\":1950:2024  uint256 daysHeld = (block.timestamp - userInfo.timestamp) / DAY_IN_SECONDS */\n      swap1\n      pop\n        /* \"contracts/VaultManager.sol\":2054:2055  7 */\n      0x07\n        /* \"contracts/VaultManager.sol\":2043:2051  daysHeld */\n      dup2\n        /* \"contracts/VaultManager.sol\":2043:2055  daysHeld > 7 */\n      gt\n        /* \"contracts/VaultManager.sol\":2039:2229  if (daysHeld > 7) {... */\n      iszero\n      tag_90\n      jumpi\n        /* \"contracts/VaultManager.sol\":2076:2095  uint256 extraTokens */\n      0x00\n        /* \"contracts/VaultManager.sol\":2149:2153  1e18 */\n      0x0de0b6b3a7640000\n        /* \"contracts/VaultManager.sol\":2130:2138  userInfo */\n      dup4\n        /* \"contracts/VaultManager.sol\":2130:2145  userInfo.amount */\n      0x00\n      add\n      sload\n        /* \"contracts/VaultManager.sol\":1467:1474  2739726 */\n      0x29ce0e\n        /* \"contracts/VaultManager.sol\":2111:2112  7 */\n      0x07\n        /* \"contracts/VaultManager.sol\":2100:2108  daysHeld */\n      dup6\n        /* \"contracts/VaultManager.sol\":2100:2112  daysHeld - 7 */\n      tag_91\n      swap2\n      swap1\n      tag_65\n      jump\t// in\n    tag_91:\n        /* \"contracts/VaultManager.sol\":2099:2127  (daysHeld - 7) * ANNUAL_RATE */\n      tag_92\n      swap2\n      swap1\n      tag_58\n      jump\t// in\n    tag_92:\n        /* \"contracts/VaultManager.sol\":2099:2145  (daysHeld - 7) * ANNUAL_RATE * userInfo.amount */\n      tag_93\n      swap2\n      swap1\n      tag_58\n      jump\t// in\n    tag_93:\n        /* \"contracts/VaultManager.sol\":2098:2153  ((daysHeld - 7) * ANNUAL_RATE * userInfo.amount) / 1e18 */\n      tag_94\n      swap2\n      swap1\n      tag_67\n      jump\t// in\n    tag_94:\n        /* \"contracts/VaultManager.sol\":2076:2153  uint256 extraTokens = ((daysHeld - 7) * ANNUAL_RATE * userInfo.amount) / 1e18 */\n      swap1\n      pop\n        /* \"contracts/VaultManager.sol\":2202:2213  extraTokens */\n      dup1\n        /* \"contracts/VaultManager.sol\":2172:2186  releasedTokens */\n      0x01\n        /* \"contracts/VaultManager.sol\":2172:2198  releasedTokens[msg.sender] */\n      0x00\n        /* \"contracts/VaultManager.sol\":2187:2197  msg.sender */\n      caller\n        /* \"contracts/VaultManager.sol\":2172:2198  releasedTokens[msg.sender] */\n      0xffffffffffffffffffffffffffffffffffffffff\n      and\n      0xffffffffffffffffffffffffffffffffffffffff\n      and\n      dup2\n      mstore\n      0x20\n      add\n      swap1\n      dup2\n      mstore\n      0x20\n      add\n      0x00\n      keccak256\n      0x00\n        /* \"contracts/VaultManager.sol\":2172:2213  releasedTokens[msg.sender] += extraTokens */\n      dup3\n      dup3\n      sload\n      tag_95\n      swap2\n      swap1\n      tag_60\n      jump\t// in\n    tag_95:\n      swap3\n      pop\n      pop\n      dup2\n      swap1\n      sstore\n      pop\n        /* \"contracts/VaultManager.sol\":2057:2229  {... */\n      pop\n        /* \"contracts/VaultManager.sol\":2039:2229  if (daysHeld > 7) {... */\n    tag_90:\n        /* \"contracts/VaultManager.sol\":1935:2240  {... */\n      pop\n        /* \"contracts/VaultManager.sol\":1910:2240  if (userInfo.amount > 0) {... */\n    tag_87:\n        /* \"contracts/VaultManager.sol\":2259:2264  token */\n      dup3\n        /* \"contracts/VaultManager.sol\":2252:2278  IERC20(token).transferFrom */\n      0xffffffffffffffffffffffffffffffffffffffff\n      and\n      0x23b872dd\n        /* \"contracts/VaultManager.sol\":2279:2289  msg.sender */\n      caller\n        /* \"contracts/VaultManager.sol\":2299:2303  this */\n      address\n        /* \"contracts/VaultManager.sol\":2306:2312  amount */\n      dup6\n        /* \"contracts/VaultManager.sol\":2252:2313  IERC20(token).transferFrom(msg.sender, address(this), amount) */\n      mload(0x40)\n      dup5\n      0xffffffff\n      and\n      0xe0\n      shl\n      dup2\n      mstore\n      0x04\n      add\n      tag_96\n      swap4\n      swap3\n      swap2\n      swap1\n      tag_97\n      jump\t// in\n    tag_96:\n      0x20\n      mload(0x40)\n      dup1\n      dup4\n      sub\n      dup2\n      0x00\n      dup8\n      gas\n      call\n      iszero\n      dup1\n      iszero\n      tag_99\n      jumpi\n      returndatacopy(0x00, 0x00, returndatasize)\n      revert(0x00, returndatasize)\n    tag_99:\n      pop\n      pop\n      pop\n      pop\n      mload(0x40)\n      returndatasize\n      not(0x1f)\n      0x1f\n      dup3\n      add\n      and\n      dup3\n      add\n      dup1\n      0x40\n      mstore\n      pop\n      dup2\n      add\n      swap1\n      tag_100\n      swap2\n      swap1\n      tag_101\n      jump\t// in\n    tag_100:\n      pop\n        /* \"contracts/VaultManager.sol\":2331:2336  token */\n      dup3\n        /* \"contracts/VaultManager.sol\":2324:2345  IERC20(token).approve */\n      0xffffffffffffffffffffffffffffffffffffffff\n      and\n      0x095ea7b3\n        /* \"contracts/VaultManager.sol\":887:929  0x5533ed0a3b83F70c3c4a1f69Ef5546D3D4713E44 */\n      0x5533ed0a3b83f70c3c4a1f69ef5546d3d4713e44\n        /* \"contracts/VaultManager.sol\":2358:2364  amount */\n      dup5\n        /* \"contracts/VaultManager.sol\":2324:2365  IERC20(token).approve(YCRV_VAULT, amount) */\n      mload(0x40)\n      dup4\n      0xffffffff\n      and\n      0xe0\n      shl\n      dup2\n      mstore\n      0x04\n      add\n      tag_102\n      swap3\n      swap2\n      swap1\n      tag_103\n      jump\t// in\n    tag_102:\n      0x20\n      mload(0x40)\n      dup1\n      dup4\n      sub\n      dup2\n      0x00\n      dup8\n      gas\n      call\n      iszero\n      dup1\n      iszero\n      tag_105\n      jumpi\n      returndatacopy(0x00, 0x00, returndatasize)\n      revert(0x00, returndatasize)\n    tag_105:\n      pop\n      pop\n      pop\n      pop\n      mload(0x40)\n      returndatasize\n      not(0x1f)\n      0x1f\n      dup3\n      add\n      and\n      dup3\n      add\n      dup1\n      0x40\n      mstore\n      pop\n      dup2\n      add\n      swap1\n      tag_106\n      swap2\n      swap1\n      tag_101\n      jump\t// in\n    tag_106:\n      pop\n        /* \"contracts/VaultManager.sol\":887:929  0x5533ed0a3b83F70c3c4a1f69Ef5546D3D4713E44 */\n      0x5533ed0a3b83f70c3c4a1f69ef5546d3d4713e44\n        /* \"contracts/VaultManager.sol\":2378:2404  IVault(YCRV_VAULT).deposit */\n      0xffffffffffffffffffffffffffffffffffffffff\n      and\n      0xb6b55f25\n        /* \"contracts/VaultManager.sol\":2405:2411  amount */\n      dup4\n        /* \"contracts/VaultManager.sol\":2378:2412  IVault(YCRV_VAULT).deposit(amount) */\n      mload(0x40)\n      dup3\n      0xffffffff\n      and\n      0xe0\n      shl\n      dup2\n      mstore\n      0x04\n      add\n      tag_107\n      swap2\n      swap1\n      tag_33\n      jump\t// in\n    tag_107:\n      0x00\n      mload(0x40)\n      dup1\n      dup4\n      sub\n      dup2\n      0x00\n      dup8\n      dup1\n      extcodesize\n      iszero\n      dup1\n      iszero\n      tag_108\n      jumpi\n      revert(0x00, 0x00)\n    tag_108:\n      pop\n      gas\n      call\n      iszero\n      dup1\n      iszero\n      tag_110\n      jumpi\n      returndatacopy(0x00, 0x00, returndatasize)\n      revert(0x00, returndatasize)\n    tag_110:\n      pop\n      pop\n      pop\n      pop\n        /* \"contracts/VaultManager.sol\":2444:2450  amount */\n      dup2\n        /* \"contracts/VaultManager.sol\":2425:2433  userInfo */\n      dup2\n        /* \"contracts/VaultManager.sol\":2425:2440  userInfo.amount */\n      0x00\n      add\n      0x00\n        /* \"contracts/VaultManager.sol\":2425:2450  userInfo.amount += amount */\n      dup3\n      dup3\n      sload\n      tag_111\n      swap2\n      swap1\n      tag_60\n      jump\t// in\n    tag_111:\n      swap3\n      pop\n      pop\n      dup2\n      swap1\n      sstore\n      pop\n        /* \"contracts/VaultManager.sol\":2482:2497  block.timestamp */\n      timestamp\n        /* \"contracts/VaultManager.sol\":2461:2469  userInfo */\n      dup2\n        /* \"contracts/VaultManager.sol\":2461:2479  userInfo.timestamp */\n      0x01\n      add\n        /* \"contracts/VaultManager.sol\":2461:2497  userInfo.timestamp = block.timestamp */\n      dup2\n      swap1\n      sstore\n      pop\n        /* \"contracts/VaultManager.sol\":2539:2544  token */\n      dup3\n        /* \"contracts/VaultManager.sol\":2515:2570  DepositMade(msg.sender, token, amount, block.timestamp) */\n      0xffffffffffffffffffffffffffffffffffffffff\n      and\n        /* \"contracts/VaultManager.sol\":2527:2537  msg.sender */\n      caller\n        /* \"contracts/VaultManager.sol\":2515:2570  DepositMade(msg.sender, token, amount, block.timestamp) */\n      0xffffffffffffffffffffffffffffffffffffffff\n      and\n      0x57bad7e3c9efecf6e1f60bbd846b999e9da4a409224287a8df09779f2330135e\n        /* \"contracts/VaultManager.sol\":2546:2552  amount */\n      dup5\n        /* \"contracts/VaultManager.sol\":2554:2569  block.timestamp */\n      timestamp\n        /* \"contracts/VaultManager.sol\":2515:2570  DepositMade(msg.sender, token, amount, block.timestamp) */\n      mload(0x40)\n      tag_112\n      swap3\n      swap2\n      swap1\n      tag_27\n      jump\t// in\n    tag_112:\n      mload(0x40)\n      dup1\n      swap2\n      sub\n      swap1\n      log3\n        /* \"contracts/VaultManager.sol\":1593:2578  {... */\n      pop\n        /* \"contracts/VaultManager.sol\":1529:2578  function depositToVault(address token, uint256 amount) external {... */\n      pop\n      pop\n      jump\t// out\n        /* \"contracts/VaultManager.sol\":529:602  address public constant USDT = 0xdAC17F958D2ee523a2206206994597C13D831ec7 */\n    tag_48:\n        /* \"contracts/VaultManager.sol\":560:602  0xdAC17F958D2ee523a2206206994597C13D831ec7 */\n      0xdac17f958d2ee523a2206206994597c13d831ec7\n        /* \"contracts/VaultManager.sol\":529:602  address public constant USDT = 0xdAC17F958D2ee523a2206206994597C13D831ec7 */\n      dup2\n      jump\t// out\n        /* \"contracts/VaultManager.sol\":689:761  address public constant DAI = 0x6B175474E89094C44Da98b954EedeAC495271d0F */\n    tag_51:\n        /* \"contracts/VaultManager.sol\":719:761  0x6B175474E89094C44Da98b954EedeAC495271d0F */\n      0x6b175474e89094c44da98b954eedeac495271d0f\n        /* \"contracts/VaultManager.sol\":689:761  address public constant DAI = 0x6B175474E89094C44Da98b954EedeAC495271d0F */\n      dup2\n      jump\t// out\n        /* \"#utility.yul\":7:133   */\n    tag_113:\n        /* \"#utility.yul\":44:51   */\n      0x00\n        /* \"#utility.yul\":84:126   */\n      0xffffffffffffffffffffffffffffffffffffffff\n        /* \"#utility.yul\":77:82   */\n      dup3\n        /* \"#utility.yul\":73:127   */\n      and\n        /* \"#utility.yul\":62:127   */\n      swap1\n      pop\n        /* \"#utility.yul\":7:133   */\n      swap2\n      swap1\n      pop\n      jump\t// out\n        /* \"#utility.yul\":139:235   */\n    tag_114:\n        /* \"#utility.yul\":176:183   */\n      0x00\n        /* \"#utility.yul\":205:229   */\n      tag_142\n        /* \"#utility.yul\":223:228   */\n      dup3\n        /* \"#utility.yul\":205:229   */\n      tag_113\n      jump\t// in\n    tag_142:\n        /* \"#utility.yul\":194:229   */\n      swap1\n      pop\n        /* \"#utility.yul\":139:235   */\n      swap2\n      swap1\n      pop\n      jump\t// out\n        /* \"#utility.yul\":241:359   */\n    tag_115:\n        /* \"#utility.yul\":328:352   */\n      tag_144\n        /* \"#utility.yul\":346:351   */\n      dup2\n        /* \"#utility.yul\":328:352   */\n      tag_114\n      jump\t// in\n    tag_144:\n        /* \"#utility.yul\":323:326   */\n      dup3\n        /* \"#utility.yul\":316:353   */\n      mstore\n        /* \"#utility.yul\":241:359   */\n      pop\n      pop\n      jump\t// out\n        /* \"#utility.yul\":365:587   */\n    tag_17:\n        /* \"#utility.yul\":458:462   */\n      0x00\n        /* \"#utility.yul\":496:498   */\n      0x20\n        /* \"#utility.yul\":485:494   */\n      dup3\n        /* \"#utility.yul\":481:499   */\n      add\n        /* \"#utility.yul\":473:499   */\n      swap1\n      pop\n        /* \"#utility.yul\":509:580   */\n      tag_146\n        /* \"#utility.yul\":577:578   */\n      0x00\n        /* \"#utility.yul\":566:575   */\n      dup4\n        /* \"#utility.yul\":562:579   */\n      add\n        /* \"#utility.yul\":553:559   */\n      dup5\n        /* \"#utility.yul\":509:580   */\n      tag_115\n      jump\t// in\n    tag_146:\n        /* \"#utility.yul\":365:587   */\n      swap3\n      swap2\n      pop\n      pop\n      jump\t// out\n        /* \"#utility.yul\":674:791   */\n    tag_117:\n        /* \"#utility.yul\":783:784   */\n      0x00\n        /* \"#utility.yul\":780:781   */\n      0x00\n        /* \"#utility.yul\":773:785   */\n      revert\n        /* \"#utility.yul\":920:1042   */\n    tag_119:\n        /* \"#utility.yul\":993:1017   */\n      tag_151\n        /* \"#utility.yul\":1011:1016   */\n      dup2\n        /* \"#utility.yul\":993:1017   */\n      tag_114\n      jump\t// in\n    tag_151:\n        /* \"#utility.yul\":986:991   */\n      dup2\n        /* \"#utility.yul\":983:1018   */\n      eq\n        /* \"#utility.yul\":973:1036   */\n      tag_152\n      jumpi\n        /* \"#utility.yul\":1032:1033   */\n      0x00\n        /* \"#utility.yul\":1029:1030   */\n      0x00\n        /* \"#utility.yul\":1022:1034   */\n      revert\n        /* \"#utility.yul\":973:1036   */\n    tag_152:\n        /* \"#utility.yul\":920:1042   */\n      pop\n      jump\t// out\n        /* \"#utility.yul\":1048:1187   */\n    tag_120:\n        /* \"#utility.yul\":1094:1099   */\n      0x00\n        /* \"#utility.yul\":1132:1138   */\n      dup2\n        /* \"#utility.yul\":1119:1139   */\n      calldataload\n        /* \"#utility.yul\":1110:1139   */\n      swap1\n      pop\n        /* \"#utility.yul\":1148:1181   */\n      tag_154\n        /* \"#utility.yul\":1175:1180   */\n      dup2\n        /* \"#utility.yul\":1148:1181   */\n      tag_119\n      jump\t// in\n    tag_154:\n        /* \"#utility.yul\":1048:1187   */\n      swap3\n      swap2\n      pop\n      pop\n      jump\t// out\n        /* \"#utility.yul\":1193:1270   */\n    tag_121:\n        /* \"#utility.yul\":1230:1237   */\n      0x00\n        /* \"#utility.yul\":1259:1264   */\n      dup2\n        /* \"#utility.yul\":1248:1264   */\n      swap1\n      pop\n        /* \"#utility.yul\":1193:1270   */\n      swap2\n      swap1\n      pop\n      jump\t// out\n        /* \"#utility.yul\":1276:1398   */\n    tag_122:\n        /* \"#utility.yul\":1349:1373   */\n      tag_157\n        /* \"#utility.yul\":1367:1372   */\n      dup2\n        /* \"#utility.yul\":1349:1373   */\n      tag_121\n      jump\t// in\n    tag_157:\n        /* \"#utility.yul\":1342:1347   */\n      dup2\n        /* \"#utility.yul\":1339:1374   */\n      eq\n        /* \"#utility.yul\":1329:1392   */\n      tag_158\n      jumpi\n        /* \"#utility.yul\":1388:1389   */\n      0x00\n        /* \"#utility.yul\":1385:1386   */\n      0x00\n        /* \"#utility.yul\":1378:1390   */\n      revert\n        /* \"#utility.yul\":1329:1392   */\n    tag_158:\n        /* \"#utility.yul\":1276:1398   */\n      pop\n      jump\t// out\n        /* \"#utility.yul\":1404:1543   */\n    tag_123:\n        /* \"#utility.yul\":1450:1455   */\n      0x00\n        /* \"#utility.yul\":1488:1494   */\n      dup2\n        /* \"#utility.yul\":1475:1495   */\n      calldataload\n        /* \"#utility.yul\":1466:1495   */\n      swap1\n      pop\n        /* \"#utility.yul\":1504:1537   */\n      tag_160\n        /* \"#utility.yul\":1531:1536   */\n      dup2\n        /* \"#utility.yul\":1504:1537   */\n      tag_122\n      jump\t// in\n    tag_160:\n        /* \"#utility.yul\":1404:1543   */\n      swap3\n      swap2\n      pop\n      pop\n      jump\t// out\n        /* \"#utility.yul\":1549:2023   */\n    tag_20:\n        /* \"#utility.yul\":1617:1623   */\n      0x00\n        /* \"#utility.yul\":1625:1631   */\n      0x00\n        /* \"#utility.yul\":1674:1676   */\n      0x40\n        /* \"#utility.yul\":1662:1671   */\n      dup4\n        /* \"#utility.yul\":1653:1660   */\n      dup6\n        /* \"#utility.yul\":1649:1672   */\n      sub\n        /* \"#utility.yul\":1645:1677   */\n      slt\n        /* \"#utility.yul\":1642:1761   */\n      iszero\n      tag_162\n      jumpi\n        /* \"#utility.yul\":1680:1759   */\n      tag_163\n      tag_117\n      jump\t// in\n    tag_163:\n        /* \"#utility.yul\":1642:1761   */\n    tag_162:\n        /* \"#utility.yul\":1800:1801   */\n      0x00\n        /* \"#utility.yul\":1825:1878   */\n      tag_164\n        /* \"#utility.yul\":1870:1877   */\n      dup6\n        /* \"#utility.yul\":1861:1867   */\n      dup3\n        /* \"#utility.yul\":1850:1859   */\n      dup7\n        /* \"#utility.yul\":1846:1868   */\n      add\n        /* \"#utility.yul\":1825:1878   */\n      tag_120\n      jump\t// in\n    tag_164:\n        /* \"#utility.yul\":1815:1878   */\n      swap3\n      pop\n        /* \"#utility.yul\":1771:1888   */\n      pop\n        /* \"#utility.yul\":1927:1929   */\n      0x20\n        /* \"#utility.yul\":1953:2006   */\n      tag_165\n        /* \"#utility.yul\":1998:2005   */\n      dup6\n        /* \"#utility.yul\":1989:1995   */\n      dup3\n        /* \"#utility.yul\":1978:1987   */\n      dup7\n        /* \"#utility.yul\":1974:1996   */\n      add\n        /* \"#utility.yul\":1953:2006   */\n      tag_123\n      jump\t// in\n    tag_165:\n        /* \"#utility.yul\":1943:2006   */\n      swap2\n      pop\n        /* \"#utility.yul\":1898:2016   */\n      pop\n        /* \"#utility.yul\":1549:2023   */\n      swap3\n      pop\n      swap3\n      swap1\n      pop\n      jump\t// out\n        /* \"#utility.yul\":2029:2503   */\n    tag_24:\n        /* \"#utility.yul\":2097:2103   */\n      0x00\n        /* \"#utility.yul\":2105:2111   */\n      0x00\n        /* \"#utility.yul\":2154:2156   */\n      0x40\n        /* \"#utility.yul\":2142:2151   */\n      dup4\n        /* \"#utility.yul\":2133:2140   */\n      dup6\n        /* \"#utility.yul\":2129:2152   */\n      sub\n        /* \"#utility.yul\":2125:2157   */\n      slt\n        /* \"#utility.yul\":2122:2241   */\n      iszero\n      tag_167\n      jumpi\n        /* \"#utility.yul\":2160:2239   */\n      tag_168\n      tag_117\n      jump\t// in\n    tag_168:\n        /* \"#utility.yul\":2122:2241   */\n    tag_167:\n        /* \"#utility.yul\":2280:2281   */\n      0x00\n        /* \"#utility.yul\":2305:2358   */\n      tag_169\n        /* \"#utility.yul\":2350:2357   */\n      dup6\n        /* \"#utility.yul\":2341:2347   */\n      dup3\n        /* \"#utility.yul\":2330:2339   */\n      dup7\n        /* \"#utility.yul\":2326:2348   */\n      add\n        /* \"#utility.yul\":2305:2358   */\n      tag_120\n      jump\t// in\n    tag_169:\n        /* \"#utility.yul\":2295:2358   */\n      swap3\n      pop\n        /* \"#utility.yul\":2251:2368   */\n      pop\n        /* \"#utility.yul\":2407:2409   */\n      0x20\n        /* \"#utility.yul\":2433:2486   */\n      tag_170\n        /* \"#utility.yul\":2478:2485   */\n      dup6\n        /* \"#utility.yul\":2469:2475   */\n      dup3\n        /* \"#utility.yul\":2458:2467   */\n      dup7\n        /* \"#utility.yul\":2454:2476   */\n      add\n        /* \"#utility.yul\":2433:2486   */\n      tag_120\n      jump\t// in\n    tag_170:\n        /* \"#utility.yul\":2423:2486   */\n      swap2\n      pop\n        /* \"#utility.yul\":2378:2496   */\n      pop\n        /* \"#utility.yul\":2029:2503   */\n      swap3\n      pop\n      swap3\n      swap1\n      pop\n      jump\t// out\n        /* \"#utility.yul\":2509:2627   */\n    tag_124:\n        /* \"#utility.yul\":2596:2620   */\n      tag_172\n        /* \"#utility.yul\":2614:2619   */\n      dup2\n        /* \"#utility.yul\":2596:2620   */\n      tag_121\n      jump\t// in\n    tag_172:\n        /* \"#utility.yul\":2591:2594   */\n      dup3\n        /* \"#utility.yul\":2584:2621   */\n      mstore\n        /* \"#utility.yul\":2509:2627   */\n      pop\n      pop\n      jump\t// out\n        /* \"#utility.yul\":2633:2965   */\n    tag_27:\n        /* \"#utility.yul\":2754:2758   */\n      0x00\n        /* \"#utility.yul\":2792:2794   */\n      0x40\n        /* \"#utility.yul\":2781:2790   */\n      dup3\n        /* \"#utility.yul\":2777:2795   */\n      add\n        /* \"#utility.yul\":2769:2795   */\n      swap1\n      pop\n        /* \"#utility.yul\":2805:2876   */\n      tag_174\n        /* \"#utility.yul\":2873:2874   */\n      0x00\n        /* \"#utility.yul\":2862:2871   */\n      dup4\n        /* \"#utility.yul\":2858:2875   */\n      add\n        /* \"#utility.yul\":2849:2855   */\n      dup6\n        /* \"#utility.yul\":2805:2876   */\n      tag_124\n      jump\t// in\n    tag_174:\n        /* \"#utility.yul\":2886:2958   */\n      tag_175\n        /* \"#utility.yul\":2954:2956   */\n      0x20\n        /* \"#utility.yul\":2943:2952   */\n      dup4\n        /* \"#utility.yul\":2939:2957   */\n      add\n        /* \"#utility.yul\":2930:2936   */\n      dup5\n        /* \"#utility.yul\":2886:2958   */\n      tag_124\n      jump\t// in\n    tag_175:\n        /* \"#utility.yul\":2633:2965   */\n      swap4\n      swap3\n      pop\n      pop\n      pop\n      jump\t// out\n        /* \"#utility.yul\":2971:3300   */\n    tag_30:\n        /* \"#utility.yul\":3030:3036   */\n      0x00\n        /* \"#utility.yul\":3079:3081   */\n      0x20\n        /* \"#utility.yul\":3067:3076   */\n      dup3\n        /* \"#utility.yul\":3058:3065   */\n      dup5\n        /* \"#utility.yul\":3054:3077   */\n      sub\n        /* \"#utility.yul\":3050:3082   */\n      slt\n        /* \"#utility.yul\":3047:3166   */\n      iszero\n      tag_177\n      jumpi\n        /* \"#utility.yul\":3085:3164   */\n      tag_178\n      tag_117\n      jump\t// in\n    tag_178:\n        /* \"#utility.yul\":3047:3166   */\n    tag_177:\n        /* \"#utility.yul\":3205:3206   */\n      0x00\n        /* \"#utility.yul\":3230:3283   */\n      tag_179\n        /* \"#utility.yul\":3275:3282   */\n      dup5\n        /* \"#utility.yul\":3266:3272   */\n      dup3\n        /* \"#utility.yul\":3255:3264   */\n      dup6\n        /* \"#utility.yul\":3251:3273   */\n      add\n        /* \"#utility.yul\":3230:3283   */\n      tag_120\n      jump\t// in\n    tag_179:\n        /* \"#utility.yul\":3220:3283   */\n      swap2\n      pop\n        /* \"#utility.yul\":3176:3293   */\n      pop\n        /* \"#utility.yul\":2971:3300   */\n      swap3\n      swap2\n      pop\n      pop\n      jump\t// out\n        /* \"#utility.yul\":3306:3528   */\n    tag_33:\n        /* \"#utility.yul\":3399:3403   */\n      0x00\n        /* \"#utility.yul\":3437:3439   */\n      0x20\n        /* \"#utility.yul\":3426:3435   */\n      dup3\n        /* \"#utility.yul\":3422:3440   */\n      add\n        /* \"#utility.yul\":3414:3440   */\n      swap1\n      pop\n        /* \"#utility.yul\":3450:3521   */\n      tag_181\n        /* \"#utility.yul\":3518:3519   */\n      0x00\n        /* \"#utility.yul\":3507:3516   */\n      dup4\n        /* \"#utility.yul\":3503:3520   */\n      add\n        /* \"#utility.yul\":3494:3500   */\n      dup5\n        /* \"#utility.yul\":3450:3521   */\n      tag_124\n      jump\t// in\n    tag_181:\n        /* \"#utility.yul\":3306:3528   */\n      swap3\n      swap2\n      pop\n      pop\n      jump\t// out\n        /* \"#utility.yul\":3534:3703   */\n    tag_125:\n        /* \"#utility.yul\":3618:3629   */\n      0x00\n        /* \"#utility.yul\":3652:3658   */\n      dup3\n        /* \"#utility.yul\":3647:3650   */\n      dup3\n        /* \"#utility.yul\":3640:3659   */\n      mstore\n        /* \"#utility.yul\":3692:3696   */\n      0x20\n        /* \"#utility.yul\":3687:3690   */\n      dup3\n        /* \"#utility.yul\":3683:3697   */\n      add\n        /* \"#utility.yul\":3668:3697   */\n      swap1\n      pop\n        /* \"#utility.yul\":3534:3703   */\n      swap3\n      swap2\n      pop\n      pop\n      jump\t// out\n        /* \"#utility.yul\":3709:3879   */\n    tag_126:\n        /* \"#utility.yul\":3849:3871   */\n      0x496e73756666696369656e742062616c616e6365000000000000000000000000\n        /* \"#utility.yul\":3845:3846   */\n      0x00\n        /* \"#utility.yul\":3837:3843   */\n      dup3\n        /* \"#utility.yul\":3833:3847   */\n      add\n        /* \"#utility.yul\":3826:3872   */\n      mstore\n        /* \"#utility.yul\":3709:3879   */\n      pop\n      jump\t// out\n        /* \"#utility.yul\":3885:4251   */\n    tag_127:\n        /* \"#utility.yul\":4027:4030   */\n      0x00\n        /* \"#utility.yul\":4048:4115   */\n      tag_185\n        /* \"#utility.yul\":4112:4114   */\n      0x14\n        /* \"#utility.yul\":4107:4110   */\n      dup4\n        /* \"#utility.yul\":4048:4115   */\n      tag_125\n      jump\t// in\n    tag_185:\n        /* \"#utility.yul\":4041:4115   */\n      swap2\n      pop\n        /* \"#utility.yul\":4124:4217   */\n      tag_186\n        /* \"#utility.yul\":4213:4216   */\n      dup3\n        /* \"#utility.yul\":4124:4217   */\n      tag_126\n      jump\t// in\n    tag_186:\n        /* \"#utility.yul\":4242:4244   */\n      0x20\n        /* \"#utility.yul\":4237:4240   */\n      dup3\n        /* \"#utility.yul\":4233:4245   */\n      add\n        /* \"#utility.yul\":4226:4245   */\n      swap1\n      pop\n        /* \"#utility.yul\":3885:4251   */\n      swap2\n      swap1\n      pop\n      jump\t// out\n        /* \"#utility.yul\":4257:4676   */\n    tag_56:\n        /* \"#utility.yul\":4423:4427   */\n      0x00\n        /* \"#utility.yul\":4461:4463   */\n      0x20\n        /* \"#utility.yul\":4450:4459   */\n      dup3\n        /* \"#utility.yul\":4446:4464   */\n      add\n        /* \"#utility.yul\":4438:4464   */\n      swap1\n      pop\n        /* \"#utility.yul\":4510:4519   */\n      dup2\n        /* \"#utility.yul\":4504:4508   */\n      dup2\n        /* \"#utility.yul\":4500:4520   */\n      sub\n        /* \"#utility.yul\":4496:4497   */\n      0x00\n        /* \"#utility.yul\":4485:4494   */\n      dup4\n        /* \"#utility.yul\":4481:4498   */\n      add\n        /* \"#utility.yul\":4474:4521   */\n      mstore\n        /* \"#utility.yul\":4538:4669   */\n      tag_188\n        /* \"#utility.yul\":4664:4668   */\n      dup2\n        /* \"#utility.yul\":4538:4669   */\n      tag_127\n      jump\t// in\n    tag_188:\n        /* \"#utility.yul\":4530:4669   */\n      swap1\n      pop\n        /* \"#utility.yul\":4257:4676   */\n      swap2\n      swap1\n      pop\n      jump\t// out\n        /* \"#utility.yul\":4682:4862   */\n    tag_128:\n        /* \"#utility.yul\":4730:4807   */\n      0x4e487b7100000000000000000000000000000000000000000000000000000000\n        /* \"#utility.yul\":4727:4728   */\n      0x00\n        /* \"#utility.yul\":4720:4808   */\n      mstore\n        /* \"#utility.yul\":4827:4831   */\n      0x11\n        /* \"#utility.yul\":4824:4825   */\n      0x04\n        /* \"#utility.yul\":4817:4832   */\n      mstore\n        /* \"#utility.yul\":4851:4855   */\n      0x24\n        /* \"#utility.yul\":4848:4849   */\n      0x00\n        /* \"#utility.yul\":4841:4856   */\n      revert\n        /* \"#utility.yul\":4868:5278   */\n    tag_58:\n        /* \"#utility.yul\":4908:4915   */\n      0x00\n        /* \"#utility.yul\":4931:4951   */\n      tag_191\n        /* \"#utility.yul\":4949:4950   */\n      dup3\n        /* \"#utility.yul\":4931:4951   */\n      tag_121\n      jump\t// in\n    tag_191:\n        /* \"#utility.yul\":4926:4951   */\n      swap2\n      pop\n        /* \"#utility.yul\":4965:4985   */\n      tag_192\n        /* \"#utility.yul\":4983:4984   */\n      dup4\n        /* \"#utility.yul\":4965:4985   */\n      tag_121\n      jump\t// in\n    tag_192:\n        /* \"#utility.yul\":4960:4985   */\n      swap3\n      pop\n        /* \"#utility.yul\":5020:5021   */\n      dup3\n        /* \"#utility.yul\":5017:5018   */\n      dup3\n        /* \"#utility.yul\":5013:5022   */\n      mul\n        /* \"#utility.yul\":5042:5072   */\n      tag_193\n        /* \"#utility.yul\":5060:5071   */\n      dup2\n        /* \"#utility.yul\":5042:5072   */\n      tag_121\n      jump\t// in\n    tag_193:\n        /* \"#utility.yul\":5031:5072   */\n      swap2\n      pop\n        /* \"#utility.yul\":5221:5222   */\n      dup3\n        /* \"#utility.yul\":5212:5219   */\n      dup3\n        /* \"#utility.yul\":5208:5223   */\n      div\n        /* \"#utility.yul\":5205:5206   */\n      dup5\n        /* \"#utility.yul\":5202:5224   */\n      eq\n        /* \"#utility.yul\":5182:5183   */\n      dup4\n        /* \"#utility.yul\":5175:5184   */\n      iszero\n        /* \"#utility.yul\":5155:5238   */\n      or\n        /* \"#utility.yul\":5132:5271   */\n      tag_194\n      jumpi\n        /* \"#utility.yul\":5251:5269   */\n      tag_195\n      tag_128\n      jump\t// in\n    tag_195:\n        /* \"#utility.yul\":5132:5271   */\n    tag_194:\n        /* \"#utility.yul\":4916:5278   */\n      pop\n        /* \"#utility.yul\":4868:5278   */\n      swap3\n      swap2\n      pop\n      pop\n      jump\t// out\n        /* \"#utility.yul\":5284:5475   */\n    tag_60:\n        /* \"#utility.yul\":5324:5327   */\n      0x00\n        /* \"#utility.yul\":5343:5363   */\n      tag_197\n        /* \"#utility.yul\":5361:5362   */\n      dup3\n        /* \"#utility.yul\":5343:5363   */\n      tag_121\n      jump\t// in\n    tag_197:\n        /* \"#utility.yul\":5338:5363   */\n      swap2\n      pop\n        /* \"#utility.yul\":5377:5397   */\n      tag_198\n        /* \"#utility.yul\":5395:5396   */\n      dup4\n        /* \"#utility.yul\":5377:5397   */\n      tag_121\n      jump\t// in\n    tag_198:\n        /* \"#utility.yul\":5372:5397   */\n      swap3\n      pop\n        /* \"#utility.yul\":5420:5421   */\n      dup3\n        /* \"#utility.yul\":5417:5418   */\n      dup3\n        /* \"#utility.yul\":5413:5422   */\n      add\n        /* \"#utility.yul\":5406:5422   */\n      swap1\n      pop\n        /* \"#utility.yul\":5441:5444   */\n      dup1\n        /* \"#utility.yul\":5438:5439   */\n      dup3\n        /* \"#utility.yul\":5435:5445   */\n      gt\n        /* \"#utility.yul\":5432:5468   */\n      iszero\n      tag_199\n      jumpi\n        /* \"#utility.yul\":5448:5466   */\n      tag_200\n      tag_128\n      jump\t// in\n    tag_200:\n        /* \"#utility.yul\":5432:5468   */\n    tag_199:\n        /* \"#utility.yul\":5284:5475   */\n      swap3\n      swap2\n      pop\n      pop\n      jump\t// out\n        /* \"#utility.yul\":5481:5659   */\n    tag_129:\n        /* \"#utility.yul\":5621:5651   */\n      0x5769746864726177616c206c6f636b656420666f722037206461797300000000\n        /* \"#utility.yul\":5617:5618   */\n      0x00\n        /* \"#utility.yul\":5609:5615   */\n      dup3\n        /* \"#utility.yul\":5605:5619   */\n      add\n        /* \"#utility.yul\":5598:5652   */\n      mstore\n        /* \"#utility.yul\":5481:5659   */\n      pop\n      jump\t// out\n        /* \"#utility.yul\":5665:6031   */\n    tag_130:\n        /* \"#utility.yul\":5807:5810   */\n      0x00\n        /* \"#utility.yul\":5828:5895   */\n      tag_203\n        /* \"#utility.yul\":5892:5894   */\n      0x1c\n        /* \"#utility.yul\":5887:5890   */\n      dup4\n        /* \"#utility.yul\":5828:5895   */\n      tag_125\n      jump\t// in\n    tag_203:\n        /* \"#utility.yul\":5821:5895   */\n      swap2\n      pop\n        /* \"#utility.yul\":5904:5997   */\n      tag_204\n        /* \"#utility.yul\":5993:5996   */\n      dup3\n        /* \"#utility.yul\":5904:5997   */\n      tag_129\n      jump\t// in\n    tag_204:\n        /* \"#utility.yul\":6022:6024   */\n      0x20\n        /* \"#utility.yul\":6017:6020   */\n      dup3\n        /* \"#utility.yul\":6013:6025   */\n      add\n        /* \"#utility.yul\":6006:6025   */\n      swap1\n      pop\n        /* \"#utility.yul\":5665:6031   */\n      swap2\n      swap1\n      pop\n      jump\t// out\n        /* \"#utility.yul\":6037:6456   */\n    tag_63:\n        /* \"#utility.yul\":6203:6207   */\n      0x00\n        /* \"#utility.yul\":6241:6243   */\n      0x20\n        /* \"#utility.yul\":6230:6239   */\n      dup3\n        /* \"#utility.yul\":6226:6244   */\n      add\n        /* \"#utility.yul\":6218:6244   */\n      swap1\n      pop\n        /* \"#utility.yul\":6290:6299   */\n      dup2\n        /* \"#utility.yul\":6284:6288   */\n      dup2\n        /* \"#utility.yul\":6280:6300   */\n      sub\n        /* \"#utility.yul\":6276:6277   */\n      0x00\n        /* \"#utility.yul\":6265:6274   */\n      dup4\n        /* \"#utility.yul\":6261:6278   */\n      add\n        /* \"#utility.yul\":6254:6301   */\n      mstore\n        /* \"#utility.yul\":6318:6449   */\n      tag_206\n        /* \"#utility.yul\":6444:6448   */\n      dup2\n        /* \"#utility.yul\":6318:6449   */\n      tag_130\n      jump\t// in\n    tag_206:\n        /* \"#utility.yul\":6310:6449   */\n      swap1\n      pop\n        /* \"#utility.yul\":6037:6456   */\n      swap2\n      swap1\n      pop\n      jump\t// out\n        /* \"#utility.yul\":6462:6656   */\n    tag_65:\n        /* \"#utility.yul\":6502:6506   */\n      0x00\n        /* \"#utility.yul\":6522:6542   */\n      tag_208\n        /* \"#utility.yul\":6540:6541   */\n      dup3\n        /* \"#utility.yul\":6522:6542   */\n      tag_121\n      jump\t// in\n    tag_208:\n        /* \"#utility.yul\":6517:6542   */\n      swap2\n      pop\n        /* \"#utility.yul\":6556:6576   */\n      tag_209\n        /* \"#utility.yul\":6574:6575   */\n      dup4\n        /* \"#utility.yul\":6556:6576   */\n      tag_121\n      jump\t// in\n    tag_209:\n        /* \"#utility.yul\":6551:6576   */\n      swap3\n      pop\n        /* \"#utility.yul\":6600:6601   */\n      dup3\n        /* \"#utility.yul\":6597:6598   */\n      dup3\n        /* \"#utility.yul\":6593:6602   */\n      sub\n        /* \"#utility.yul\":6585:6602   */\n      swap1\n      pop\n        /* \"#utility.yul\":6624:6625   */\n      dup2\n        /* \"#utility.yul\":6618:6622   */\n      dup2\n        /* \"#utility.yul\":6615:6626   */\n      gt\n        /* \"#utility.yul\":6612:6649   */\n      iszero\n      tag_210\n      jumpi\n        /* \"#utility.yul\":6629:6647   */\n      tag_211\n      tag_128\n      jump\t// in\n    tag_211:\n        /* \"#utility.yul\":6612:6649   */\n    tag_210:\n        /* \"#utility.yul\":6462:6656   */\n      swap3\n      swap2\n      pop\n      pop\n      jump\t// out\n        /* \"#utility.yul\":6662:6842   */\n    tag_131:\n        /* \"#utility.yul\":6710:6787   */\n      0x4e487b7100000000000000000000000000000000000000000000000000000000\n        /* \"#utility.yul\":6707:6708   */\n      0x00\n        /* \"#utility.yul\":6700:6788   */\n      mstore\n        /* \"#utility.yul\":6807:6811   */\n      0x12\n        /* \"#utility.yul\":6804:6805   */\n      0x04\n        /* \"#utility.yul\":6797:6812   */\n      mstore\n        /* \"#utility.yul\":6831:6835   */\n      0x24\n        /* \"#utility.yul\":6828:6829   */\n      0x00\n        /* \"#utility.yul\":6821:6836   */\n      revert\n        /* \"#utility.yul\":6848:7033   */\n    tag_67:\n        /* \"#utility.yul\":6888:6889   */\n      0x00\n        /* \"#utility.yul\":6905:6925   */\n      tag_214\n        /* \"#utility.yul\":6923:6924   */\n      dup3\n        /* \"#utility.yul\":6905:6925   */\n      tag_121\n      jump\t// in\n    tag_214:\n        /* \"#utility.yul\":6900:6925   */\n      swap2\n      pop\n        /* \"#utility.yul\":6939:6959   */\n      tag_215\n        /* \"#utility.yul\":6957:6958   */\n      dup4\n        /* \"#utility.yul\":6939:6959   */\n      tag_121\n      jump\t// in\n    tag_215:\n        /* \"#utility.yul\":6934:6959   */\n      swap3\n      pop\n        /* \"#utility.yul\":6978:6979   */\n      dup3\n        /* \"#utility.yul\":6968:7003   */\n      tag_216\n      jumpi\n        /* \"#utility.yul\":6983:7001   */\n      tag_217\n      tag_131\n      jump\t// in\n    tag_217:\n        /* \"#utility.yul\":6968:7003   */\n    tag_216:\n        /* \"#utility.yul\":7025:7026   */\n      dup3\n        /* \"#utility.yul\":7022:7023   */\n      dup3\n        /* \"#utility.yul\":7018:7027   */\n      div\n        /* \"#utility.yul\":7013:7027   */\n      swap1\n      pop\n        /* \"#utility.yul\":6848:7033   */\n      swap3\n      swap2\n      pop\n      pop\n      jump\t// out\n        /* \"#utility.yul\":7039:7218   */\n    tag_132:\n        /* \"#utility.yul\":7179:7210   */\n      0x416d6f756e74206d7573742062652067726561746572207468616e2030000000\n        /* \"#utility.yul\":7175:7176   */\n      0x00\n        /* \"#utility.yul\":7167:7173   */\n      dup3\n        /* \"#utility.yul\":7163:7177   */\n      add\n        /* \"#utility.yul\":7156:7211   */\n      mstore\n        /* \"#utility.yul\":7039:7218   */\n      pop\n      jump\t// out\n        /* \"#utility.yul\":7224:7590   */\n    tag_133:\n        /* \"#utility.yul\":7366:7369   */\n      0x00\n        /* \"#utility.yul\":7387:7454   */\n      tag_220\n        /* \"#utility.yul\":7451:7453   */\n      0x1d\n        /* \"#utility.yul\":7446:7449   */\n      dup4\n        /* \"#utility.yul\":7387:7454   */\n      tag_125\n      jump\t// in\n    tag_220:\n        /* \"#utility.yul\":7380:7454   */\n      swap2\n      pop\n        /* \"#utility.yul\":7463:7556   */\n      tag_221\n        /* \"#utility.yul\":7552:7555   */\n      dup3\n        /* \"#utility.yul\":7463:7556   */\n      tag_132\n      jump\t// in\n    tag_221:\n        /* \"#utility.yul\":7581:7583   */\n      0x20\n        /* \"#utility.yul\":7576:7579   */\n      dup3\n        /* \"#utility.yul\":7572:7584   */\n      add\n        /* \"#utility.yul\":7565:7584   */\n      swap1\n      pop\n        /* \"#utility.yul\":7224:7590   */\n      swap2\n      swap1\n      pop\n      jump\t// out\n        /* \"#utility.yul\":7596:8015   */\n    tag_80:\n        /* \"#utility.yul\":7762:7766   */\n      0x00\n        /* \"#utility.yul\":7800:7802   */\n      0x20\n        /* \"#utility.yul\":7789:7798   */\n      dup3\n        /* \"#utility.yul\":7785:7803   */\n      add\n        /* \"#utility.yul\":7777:7803   */\n      swap1\n      pop\n        /* \"#utility.yul\":7849:7858   */\n      dup2\n        /* \"#utility.yul\":7843:7847   */\n      dup2\n        /* \"#utility.yul\":7839:7859   */\n      sub\n        /* \"#utility.yul\":7835:7836   */\n      0x00\n        /* \"#utility.yul\":7824:7833   */\n      dup4\n        /* \"#utility.yul\":7820:7837   */\n      add\n        /* \"#utility.yul\":7813:7860   */\n      mstore\n        /* \"#utility.yul\":7877:8008   */\n      tag_223\n        /* \"#utility.yul\":8003:8007   */\n      dup2\n        /* \"#utility.yul\":7877:8008   */\n      tag_133\n      jump\t// in\n    tag_223:\n        /* \"#utility.yul\":7869:8008   */\n      swap1\n      pop\n        /* \"#utility.yul\":7596:8015   */\n      swap2\n      swap1\n      pop\n      jump\t// out\n        /* \"#utility.yul\":8021:8188   */\n    tag_134:\n        /* \"#utility.yul\":8161:8180   */\n      0x556e737570706f7274656420746f6b656e000000000000000000000000000000\n        /* \"#utility.yul\":8157:8158   */\n      0x00\n        /* \"#utility.yul\":8149:8155   */\n      dup3\n        /* \"#utility.yul\":8145:8159   */\n      add\n        /* \"#utility.yul\":8138:8181   */\n      mstore\n        /* \"#utility.yul\":8021:8188   */\n      pop\n      jump\t// out\n        /* \"#utility.yul\":8194:8560   */\n    tag_135:\n        /* \"#utility.yul\":8336:8339   */\n      0x00\n        /* \"#utility.yul\":8357:8424   */\n      tag_226\n        /* \"#utility.yul\":8421:8423   */\n      0x11\n        /* \"#utility.yul\":8416:8419   */\n      dup4\n        /* \"#utility.yul\":8357:8424   */\n      tag_125\n      jump\t// in\n    tag_226:\n        /* \"#utility.yul\":8350:8424   */\n      swap2\n      pop\n        /* \"#utility.yul\":8433:8526   */\n      tag_227\n        /* \"#utility.yul\":8522:8525   */\n      dup3\n        /* \"#utility.yul\":8433:8526   */\n      tag_134\n      jump\t// in\n    tag_227:\n        /* \"#utility.yul\":8551:8553   */\n      0x20\n        /* \"#utility.yul\":8546:8549   */\n      dup3\n        /* \"#utility.yul\":8542:8554   */\n      add\n        /* \"#utility.yul\":8535:8554   */\n      swap1\n      pop\n        /* \"#utility.yul\":8194:8560   */\n      swap2\n      swap1\n      pop\n      jump\t// out\n        /* \"#utility.yul\":8566:8985   */\n    tag_86:\n        /* \"#utility.yul\":8732:8736   */\n      0x00\n        /* \"#utility.yul\":8770:8772   */\n      0x20\n        /* \"#utility.yul\":8759:8768   */\n      dup3\n        /* \"#utility.yul\":8755:8773   */\n      add\n        /* \"#utility.yul\":8747:8773   */\n      swap1\n      pop\n        /* \"#utility.yul\":8819:8828   */\n      dup2\n        /* \"#utility.yul\":8813:8817   */\n      dup2\n        /* \"#utility.yul\":8809:8829   */\n      sub\n        /* \"#utility.yul\":8805:8806   */\n      0x00\n        /* \"#utility.yul\":8794:8803   */\n      dup4\n        /* \"#utility.yul\":8790:8807   */\n      add\n        /* \"#utility.yul\":8783:8830   */\n      mstore\n        /* \"#utility.yul\":8847:8978   */\n      tag_229\n        /* \"#utility.yul\":8973:8977   */\n      dup2\n        /* \"#utility.yul\":8847:8978   */\n      tag_135\n      jump\t// in\n    tag_229:\n        /* \"#utility.yul\":8839:8978   */\n      swap1\n      pop\n        /* \"#utility.yul\":8566:8985   */\n      swap2\n      swap1\n      pop\n      jump\t// out\n        /* \"#utility.yul\":8991:9433   */\n    tag_97:\n        /* \"#utility.yul\":9140:9144   */\n      0x00\n        /* \"#utility.yul\":9178:9180   */\n      0x60\n        /* \"#utility.yul\":9167:9176   */\n      dup3\n        /* \"#utility.yul\":9163:9181   */\n      add\n        /* \"#utility.yul\":9155:9181   */\n      swap1\n      pop\n        /* \"#utility.yul\":9191:9262   */\n      tag_231\n        /* \"#utility.yul\":9259:9260   */\n      0x00\n        /* \"#utility.yul\":9248:9257   */\n      dup4\n        /* \"#utility.yul\":9244:9261   */\n      add\n        /* \"#utility.yul\":9235:9241   */\n      dup7\n        /* \"#utility.yul\":9191:9262   */\n      tag_115\n      jump\t// in\n    tag_231:\n        /* \"#utility.yul\":9272:9344   */\n      tag_232\n        /* \"#utility.yul\":9340:9342   */\n      0x20\n        /* \"#utility.yul\":9329:9338   */\n      dup4\n        /* \"#utility.yul\":9325:9343   */\n      add\n        /* \"#utility.yul\":9316:9322   */\n      dup6\n        /* \"#utility.yul\":9272:9344   */\n      tag_115\n      jump\t// in\n    tag_232:\n        /* \"#utility.yul\":9354:9426   */\n      tag_233\n        /* \"#utility.yul\":9422:9424   */\n      0x40\n        /* \"#utility.yul\":9411:9420   */\n      dup4\n        /* \"#utility.yul\":9407:9425   */\n      add\n        /* \"#utility.yul\":9398:9404   */\n      dup5\n        /* \"#utility.yul\":9354:9426   */\n      tag_124\n      jump\t// in\n    tag_233:\n        /* \"#utility.yul\":8991:9433   */\n      swap5\n      swap4\n      pop\n      pop\n      pop\n      pop\n      jump\t// out\n        /* \"#utility.yul\":9439:9529   */\n    tag_136:\n        /* \"#utility.yul\":9473:9480   */\n      0x00\n        /* \"#utility.yul\":9516:9521   */\n      dup2\n        /* \"#utility.yul\":9509:9522   */\n      iszero\n        /* \"#utility.yul\":9502:9523   */\n      iszero\n        /* \"#utility.yul\":9491:9523   */\n      swap1\n      pop\n        /* \"#utility.yul\":9439:9529   */\n      swap2\n      swap1\n      pop\n      jump\t// out\n        /* \"#utility.yul\":9535:9651   */\n    tag_137:\n        /* \"#utility.yul\":9605:9626   */\n      tag_236\n        /* \"#utility.yul\":9620:9625   */\n      dup2\n        /* \"#utility.yul\":9605:9626   */\n      tag_136\n      jump\t// in\n    tag_236:\n        /* \"#utility.yul\":9598:9603   */\n      dup2\n        /* \"#utility.yul\":9595:9627   */\n      eq\n        /* \"#utility.yul\":9585:9645   */\n      tag_237\n      jumpi\n        /* \"#utility.yul\":9641:9642   */\n      0x00\n        /* \"#utility.yul\":9638:9639   */\n      0x00\n        /* \"#utility.yul\":9631:9643   */\n      revert\n        /* \"#utility.yul\":9585:9645   */\n    tag_237:\n        /* \"#utility.yul\":9535:9651   */\n      pop\n      jump\t// out\n        /* \"#utility.yul\":9657:9794   */\n    tag_138:\n        /* \"#utility.yul\":9711:9716   */\n      0x00\n        /* \"#utility.yul\":9742:9748   */\n      dup2\n        /* \"#utility.yul\":9736:9749   */\n      mload\n        /* \"#utility.yul\":9727:9749   */\n      swap1\n      pop\n        /* \"#utility.yul\":9758:9788   */\n      tag_239\n        /* \"#utility.yul\":9782:9787   */\n      dup2\n        /* \"#utility.yul\":9758:9788   */\n      tag_137\n      jump\t// in\n    tag_239:\n        /* \"#utility.yul\":9657:9794   */\n      swap3\n      swap2\n      pop\n      pop\n      jump\t// out\n        /* \"#utility.yul\":9800:10145   */\n    tag_101:\n        /* \"#utility.yul\":9867:9873   */\n      0x00\n        /* \"#utility.yul\":9916:9918   */\n      0x20\n        /* \"#utility.yul\":9904:9913   */\n      dup3\n        /* \"#utility.yul\":9895:9902   */\n      dup5\n        /* \"#utility.yul\":9891:9914   */\n      sub\n        /* \"#utility.yul\":9887:9919   */\n      slt\n        /* \"#utility.yul\":9884:10003   */\n      iszero\n      tag_241\n      jumpi\n        /* \"#utility.yul\":9922:10001   */\n      tag_242\n      tag_117\n      jump\t// in\n    tag_242:\n        /* \"#utility.yul\":9884:10003   */\n    tag_241:\n        /* \"#utility.yul\":10042:10043   */\n      0x00\n        /* \"#utility.yul\":10067:10128   */\n      tag_243\n        /* \"#utility.yul\":10120:10127   */\n      dup5\n        /* \"#utility.yul\":10111:10117   */\n      dup3\n        /* \"#utility.yul\":10100:10109   */\n      dup6\n        /* \"#utility.yul\":10096:10118   */\n      add\n        /* \"#utility.yul\":10067:10128   */\n      tag_138\n      jump\t// in\n    tag_243:\n        /* \"#utility.yul\":10057:10128   */\n      swap2\n      pop\n        /* \"#utility.yul\":10013:10138   */\n      pop\n        /* \"#utility.yul\":9800:10145   */\n      swap3\n      swap2\n      pop\n      pop\n      jump\t// out\n        /* \"#utility.yul\":10151:10483   */\n    tag_103:\n        /* \"#utility.yul\":10272:10276   */\n      0x00\n        /* \"#utility.yul\":10310:10312   */\n      0x40\n        /* \"#utility.yul\":10299:10308   */\n      dup3\n        /* \"#utility.yul\":10295:10313   */\n      add\n        /* \"#utility.yul\":10287:10313   */\n      swap1\n      pop\n        /* \"#utility.yul\":10323:10394   */\n      tag_245\n        /* \"#utility.yul\":10391:10392   */\n      0x00\n        /* \"#utility.yul\":10380:10389   */\n      dup4\n        /* \"#utility.yul\":10376:10393   */\n      add\n        /* \"#utility.yul\":10367:10373   */\n      dup6\n        /* \"#utility.yul\":10323:10394   */\n      tag_115\n      jump\t// in\n    tag_245:\n        /* \"#utility.yul\":10404:10476   */\n      tag_246\n        /* \"#utility.yul\":10472:10474   */\n      0x20\n        /* \"#utility.yul\":10461:10470   */\n      dup4\n        /* \"#utility.yul\":10457:10475   */\n      add\n        /* \"#utility.yul\":10448:10454   */\n      dup5\n        /* \"#utility.yul\":10404:10476   */\n      tag_124\n      jump\t// in\n    tag_246:\n        /* \"#utility.yul\":10151:10483   */\n      swap4\n      swap3\n      pop\n      pop\n      pop\n      jump\t// out\n\n    auxdata: 0xa26469706673582212204b1b519b0acbd84a7369586ea850413e80ee3977cb5eb3ec7427748df2a1a67564736f6c634300081c0033\n}\n",
				"bytecode": {
					"linkReferences": {},
					"object": "6080604052348015600e575f5ffd5b50610fe98061001c5f395ff3fe608060405234801561000f575f5ffd5b506004361061009c575f3560e01c80638405342311610064578063840534231461015957806389a3027114610189578063a3d11158146101a7578063c54e44eb146101c3578063e0bab4c4146101e15761009c565b806315d8eeba146100a057806321116f4e146100be578063436d8039146100da57806370ff852b1461010b578063791f96a71461013b575b5f5ffd5b6100a86101ff565b6040516100b59190610aa6565b60405180910390f35b6100d860048036038101906100d39190610b20565b610217565b005b6100f460048036038101906100ef9190610b5e565b610485565b604051610102929190610bab565b60405180910390f35b61012560048036038101906101209190610bd2565b6104af565b6040516101329190610bfd565b60405180910390f35b6101436104c4565b6040516101509190610aa6565b60405180910390f35b610173600480360381019061016e9190610bd2565b6104dc565b6040516101809190610bfd565b60405180910390f35b610191610522565b60405161019e9190610aa6565b60405180910390f35b6101c160048036038101906101bc9190610b20565b61053a565b005b6101cb610a37565b6040516101d89190610aa6565b60405180910390f35b6101e9610a4f565b6040516101f69190610aa6565b60405180910390f35b7357ab1ec28d129707052df4df418d58a2d46d5f5181565b5f5f5f3373ffffffffffffffffffffffffffffffffffffffff1673ffffffffffffffffffffffffffffffffffffffff1681526020019081526020015f205f8473ffffffffffffffffffffffffffffffffffffffff1673ffffffffffffffffffffffffffffffffffffffff1681526020019081526020015f20905081815f015410156102d7576040517f08c379a00000000000000000000000000000000000000000000000000000000081526004016102ce90610c70565b60405180910390fd5b6201518060076102e79190610cbb565b81600101546102f69190610cfc565b421015610338576040517f08c379a000000000000000000000000000000000000000000000000000000000815260040161032f90610d79565b60405180910390fd5b5f6201518082600101544261034d9190610d97565b6103579190610df7565b90505f670de0b6b3a7640000846229ce0e846103739190610cbb565b61037d9190610cbb565b6103879190610df7565b905083835f015f82825461039b9190610d97565b925050819055505f835f0154036103ba575f83600101819055506103c4565b4283600101819055505b8060015f3373ffffffffffffffffffffffffffffffffffffffff1673ffffffffffffffffffffffffffffffffffffffff1681526020019081526020015f205f8282546104109190610cfc565b925050819055508473ffffffffffffffffffffffffffffffffffffffff163373ffffffffffffffffffffffffffffffffffffffff167fc2b4a290c20fb28939d29f102514fbffd2b73c059ffba8b78250c94161d5fcc68684604051610476929190610bab565b60405180910390a35050505050565b5f602052815f5260405f20602052805f5260405f205f9150915050805f0154908060010154905082565b6001602052805f5260405f205f915090505481565b735533ed0a3b83f70c3c4a1f69ef5546d3d4713e4481565b5f60015f8373ffffffffffffffffffffffffffffffffffffffff1673ffffffffffffffffffffffffffffffffffffffff1681526020019081526020015f20549050919050565b73a0b86991c6218b36c1d19d4a2e9eb0ce3606eb4881565b5f811161057c576040517f08c379a000000000000000000000000000000000000000000000000000000000815260040161057390610e71565b60405180910390fd5b73dac17f958d2ee523a2206206994597c13d831ec773ffffffffffffffffffffffffffffffffffffffff168273ffffffffffffffffffffffffffffffffffffffff161480610609575073a0b86991c6218b36c1d19d4a2e9eb0ce3606eb4873ffffffffffffffffffffffffffffffffffffffff168273ffffffffffffffffffffffffffffffffffffffff16145b806106535750736b175474e89094c44da98b954eedeac495271d0f73ffffffffffffffffffffffffffffffffffffffff168273ffffffffffffffffffffffffffffffffffffffff16145b8061069d57507357ab1ec28d129707052df4df418d58a2d46d5f5173ffffffffffffffffffffffffffffffffffffffff168273ffffffffffffffffffffffffffffffffffffffff16145b6106dc576040517f08c379a00000000000000000000000000000000000000000000000000000000081526004016106d390610ed9565b60405180910390fd5b5f5f5f3373ffffffffffffffffffffffffffffffffffffffff1673ffffffffffffffffffffffffffffffffffffffff1681526020019081526020015f205f8473ffffffffffffffffffffffffffffffffffffffff1673ffffffffffffffffffffffffffffffffffffffff1681526020019081526020015f2090505f815f01541115610821575f620151808260010154426107769190610d97565b6107809190610df7565b9050600781111561081f575f670de0b6b3a7640000835f01546229ce0e6007856107aa9190610d97565b6107b49190610cbb565b6107be9190610cbb565b6107c89190610df7565b90508060015f3373ffffffffffffffffffffffffffffffffffffffff1673ffffffffffffffffffffffffffffffffffffffff1681526020019081526020015f205f8282546108169190610cfc565b92505081905550505b505b8273ffffffffffffffffffffffffffffffffffffffff166323b872dd3330856040518463ffffffff1660e01b815260040161085e93929190610ef7565b6020604051808303815f875af115801561087a573d5f5f3e3d5ffd5b505050506040513d601f19601f8201168201806040525081019061089e9190610f61565b508273ffffffffffffffffffffffffffffffffffffffff1663095ea7b3735533ed0a3b83f70c3c4a1f69ef5546d3d4713e44846040518363ffffffff1660e01b81526004016108ee929190610f8c565b6020604051808303815f875af115801561090a573d5f5f3e3d5ffd5b505050506040513d601f19601f8201168201806040525081019061092e9190610f61565b50735533ed0a3b83f70c3c4a1f69ef5546d3d4713e4473ffffffffffffffffffffffffffffffffffffffff1663b6b55f25836040518263ffffffff1660e01b815260040161097c9190610bfd565b5f604051808303815f87803b158015610993575f5ffd5b505af11580156109a5573d5f5f3e3d5ffd5b5050505081815f015f8282546109bb9190610cfc565b925050819055504281600101819055508273ffffffffffffffffffffffffffffffffffffffff163373ffffffffffffffffffffffffffffffffffffffff167f57bad7e3c9efecf6e1f60bbd846b999e9da4a409224287a8df09779f2330135e8442604051610a2a929190610bab565b60405180910390a3505050565b73dac17f958d2ee523a2206206994597c13d831ec781565b736b175474e89094c44da98b954eedeac495271d0f81565b5f73ffffffffffffffffffffffffffffffffffffffff82169050919050565b5f610a9082610a67565b9050919050565b610aa081610a86565b82525050565b5f602082019050610ab95f830184610a97565b92915050565b5f5ffd5b610acc81610a86565b8114610ad6575f5ffd5b50565b5f81359050610ae781610ac3565b92915050565b5f819050919050565b610aff81610aed565b8114610b09575f5ffd5b50565b5f81359050610b1a81610af6565b92915050565b5f5f60408385031215610b3657610b35610abf565b5b5f610b4385828601610ad9565b9250506020610b5485828601610b0c565b9150509250929050565b5f5f60408385031215610b7457610b73610abf565b5b5f610b8185828601610ad9565b9250506020610b9285828601610ad9565b9150509250929050565b610ba581610aed565b82525050565b5f604082019050610bbe5f830185610b9c565b610bcb6020830184610b9c565b9392505050565b5f60208284031215610be757610be6610abf565b5b5f610bf484828501610ad9565b91505092915050565b5f602082019050610c105f830184610b9c565b92915050565b5f82825260208201905092915050565b7f496e73756666696369656e742062616c616e63650000000000000000000000005f82015250565b5f610c5a601483610c16565b9150610c6582610c26565b602082019050919050565b5f6020820190508181035f830152610c8781610c4e565b9050919050565b7f4e487b71000000000000000000000000000000000000000000000000000000005f52601160045260245ffd5b5f610cc582610aed565b9150610cd083610aed565b9250828202610cde81610aed565b91508282048414831517610cf557610cf4610c8e565b5b5092915050565b5f610d0682610aed565b9150610d1183610aed565b9250828201905080821115610d2957610d28610c8e565b5b92915050565b7f5769746864726177616c206c6f636b656420666f7220372064617973000000005f82015250565b5f610d63601c83610c16565b9150610d6e82610d2f565b602082019050919050565b5f6020820190508181035f830152610d9081610d57565b9050919050565b5f610da182610aed565b9150610dac83610aed565b9250828203905081811115610dc457610dc3610c8e565b5b92915050565b7f4e487b71000000000000000000000000000000000000000000000000000000005f52601260045260245ffd5b5f610e0182610aed565b9150610e0c83610aed565b925082610e1c57610e1b610dca565b5b828204905092915050565b7f416d6f756e74206d7573742062652067726561746572207468616e20300000005f82015250565b5f610e5b601d83610c16565b9150610e6682610e27565b602082019050919050565b5f6020820190508181035f830152610e8881610e4f565b9050919050565b7f556e737570706f7274656420746f6b656e0000000000000000000000000000005f82015250565b5f610ec3601183610c16565b9150610ece82610e8f565b602082019050919050565b5f6020820190508181035f830152610ef081610eb7565b9050919050565b5f606082019050610f0a5f830186610a97565b610f176020830185610a97565b610f246040830184610b9c565b949350505050565b5f8115159050919050565b610f4081610f2c565b8114610f4a575f5ffd5b50565b5f81519050610f5b81610f37565b92915050565b5f60208284031215610f7657610f75610abf565b5b5f610f8384828501610f4d565b91505092915050565b5f604082019050610f9f5f830185610a97565b610fac6020830184610b9c565b939250505056fea26469706673582212204b1b519b0acbd84a7369586ea850413e80ee3977cb5eb3ec7427748df2a1a67564736f6c634300081c0033",
					"opcodes": "PUSH1 0x80 PUSH1 0x40 MSTORE CALLVALUE DUP1 ISZERO PUSH1 0xE JUMPI PUSH0 PUSH0 REVERT JUMPDEST POP PUSH2 0xFE9 DUP1 PUSH2 0x1C PUSH0 CODECOPY PUSH0 RETURN INVALID PUSH1 0x80 PUSH1 0x40 MSTORE CALLVALUE DUP1 ISZERO PUSH2 0xF JUMPI PUSH0 PUSH0 REVERT JUMPDEST POP PUSH1 0x4 CALLDATASIZE LT PUSH2 0x9C JUMPI PUSH0 CALLDATALOAD PUSH1 0xE0 SHR DUP1 PUSH4 0x84053423 GT PUSH2 0x64 JUMPI DUP1 PUSH4 0x84053423 EQ PUSH2 0x159 JUMPI DUP1 PUSH4 0x89A30271 EQ PUSH2 0x189 JUMPI DUP1 PUSH4 0xA3D11158 EQ PUSH2 0x1A7 JUMPI DUP1 PUSH4 0xC54E44EB EQ PUSH2 0x1C3 JUMPI DUP1 PUSH4 0xE0BAB4C4 EQ PUSH2 0x1E1 JUMPI PUSH2 0x9C JUMP JUMPDEST DUP1 PUSH4 0x15D8EEBA EQ PUSH2 0xA0 JUMPI DUP1 PUSH4 0x21116F4E EQ PUSH2 0xBE JUMPI DUP1 PUSH4 0x436D8039 EQ PUSH2 0xDA JUMPI DUP1 PUSH4 0x70FF852B EQ PUSH2 0x10B JUMPI DUP1 PUSH4 0x791F96A7 EQ PUSH2 0x13B JUMPI JUMPDEST PUSH0 PUSH0 REVERT JUMPDEST PUSH2 0xA8 PUSH2 0x1FF JUMP JUMPDEST PUSH1 0x40 MLOAD PUSH2 0xB5 SWAP2 SWAP1 PUSH2 0xAA6 JUMP JUMPDEST PUSH1 0x40 MLOAD DUP1 SWAP2 SUB SWAP1 RETURN JUMPDEST PUSH2 0xD8 PUSH1 0x4 DUP1 CALLDATASIZE SUB DUP2 ADD SWAP1 PUSH2 0xD3 SWAP2 SWAP1 PUSH2 0xB20 JUMP JUMPDEST PUSH2 0x217 JUMP JUMPDEST STOP JUMPDEST PUSH2 0xF4 PUSH1 0x4 DUP1 CALLDATASIZE SUB DUP2 ADD SWAP1 PUSH2 0xEF SWAP2 SWAP1 PUSH2 0xB5E JUMP JUMPDEST PUSH2 0x485 JUMP JUMPDEST PUSH1 0x40 MLOAD PUSH2 0x102 SWAP3 SWAP2 SWAP1 PUSH2 0xBAB JUMP JUMPDEST PUSH1 0x40 MLOAD DUP1 SWAP2 SUB SWAP1 RETURN JUMPDEST PUSH2 0x125 PUSH1 0x4 DUP1 CALLDATASIZE SUB DUP2 ADD SWAP1 PUSH2 0x120 SWAP2 SWAP1 PUSH2 0xBD2 JUMP JUMPDEST PUSH2 0x4AF JUMP JUMPDEST PUSH1 0x40 MLOAD PUSH2 0x132 SWAP2 SWAP1 PUSH2 0xBFD JUMP JUMPDEST PUSH1 0x40 MLOAD DUP1 SWAP2 SUB SWAP1 RETURN JUMPDEST PUSH2 0x143 PUSH2 0x4C4 JUMP JUMPDEST PUSH1 0x40 MLOAD PUSH2 0x150 SWAP2 SWAP1 PUSH2 0xAA6 JUMP JUMPDEST PUSH1 0x40 MLOAD DUP1 SWAP2 SUB SWAP1 RETURN JUMPDEST PUSH2 0x173 PUSH1 0x4 DUP1 CALLDATASIZE SUB DUP2 ADD SWAP1 PUSH2 0x16E SWAP2 SWAP1 PUSH2 0xBD2 JUMP JUMPDEST PUSH2 0x4DC JUMP JUMPDEST PUSH1 0x40 MLOAD PUSH2 0x180 SWAP2 SWAP1 PUSH2 0xBFD JUMP JUMPDEST PUSH1 0x40 MLOAD DUP1 SWAP2 SUB SWAP1 RETURN JUMPDEST PUSH2 0x191 PUSH2 0x522 JUMP JUMPDEST PUSH1 0x40 MLOAD PUSH2 0x19E SWAP2 SWAP1 PUSH2 0xAA6 JUMP JUMPDEST PUSH1 0x40 MLOAD DUP1 SWAP2 SUB SWAP1 RETURN JUMPDEST PUSH2 0x1C1 PUSH1 0x4 DUP1 CALLDATASIZE SUB DUP2 ADD SWAP1 PUSH2 0x1BC SWAP2 SWAP1 PUSH2 0xB20 JUMP JUMPDEST PUSH2 0x53A JUMP JUMPDEST STOP JUMPDEST PUSH2 0x1CB PUSH2 0xA37 JUMP JUMPDEST PUSH1 0x40 MLOAD PUSH2 0x1D8 SWAP2 SWAP1 PUSH2 0xAA6 JUMP JUMPDEST PUSH1 0x40 MLOAD DUP1 SWAP2 SUB SWAP1 RETURN JUMPDEST PUSH2 0x1E9 PUSH2 0xA4F JUMP JUMPDEST PUSH1 0x40 MLOAD PUSH2 0x1F6 SWAP2 SWAP1 PUSH2 0xAA6 JUMP JUMPDEST PUSH1 0x40 MLOAD DUP1 SWAP2 SUB SWAP1 RETURN JUMPDEST PUSH20 0x57AB1EC28D129707052DF4DF418D58A2D46D5F51 DUP2 JUMP JUMPDEST PUSH0 PUSH0 PUSH0 CALLER PUSH20 0xFFFFFFFFFFFFFFFFFFFFFFFFFFFFFFFFFFFFFFFF AND PUSH20 0xFFFFFFFFFFFFFFFFFFFFFFFFFFFFFFFFFFFFFFFF AND DUP2 MSTORE PUSH1 0x20 ADD SWAP1 DUP2 MSTORE PUSH1 0x20 ADD PUSH0 KECCAK256 PUSH0 DUP5 PUSH20 0xFFFFFFFFFFFFFFFFFFFFFFFFFFFFFFFFFFFFFFFF AND PUSH20 0xFFFFFFFFFFFFFFFFFFFFFFFFFFFFFFFFFFFFFFFF AND DUP2 MSTORE PUSH1 0x20 ADD SWAP1 DUP2 MSTORE PUSH1 0x20 ADD PUSH0 KECCAK256 SWAP1 POP DUP2 DUP2 PUSH0 ADD SLOAD LT ISZERO PUSH2 0x2D7 JUMPI PUSH1 0x40 MLOAD PUSH32 0x8C379A000000000000000000000000000000000000000000000000000000000 DUP2 MSTORE PUSH1 0x4 ADD PUSH2 0x2CE SWAP1 PUSH2 0xC70 JUMP JUMPDEST PUSH1 0x40 MLOAD DUP1 SWAP2 SUB SWAP1 REVERT JUMPDEST PUSH3 0x15180 PUSH1 0x7 PUSH2 0x2E7 SWAP2 SWAP1 PUSH2 0xCBB JUMP JUMPDEST DUP2 PUSH1 0x1 ADD SLOAD PUSH2 0x2F6 SWAP2 SWAP1 PUSH2 0xCFC JUMP JUMPDEST TIMESTAMP LT ISZERO PUSH2 0x338 JUMPI PUSH1 0x40 MLOAD PUSH32 0x8C379A000000000000000000000000000000000000000000000000000000000 DUP2 MSTORE PUSH1 0x4 ADD PUSH2 0x32F SWAP1 PUSH2 0xD79 JUMP JUMPDEST PUSH1 0x40 MLOAD DUP1 SWAP2 SUB SWAP1 REVERT JUMPDEST PUSH0 PUSH3 0x15180 DUP3 PUSH1 0x1 ADD SLOAD TIMESTAMP PUSH2 0x34D SWAP2 SWAP1 PUSH2 0xD97 JUMP JUMPDEST PUSH2 0x357 SWAP2 SWAP1 PUSH2 0xDF7 JUMP JUMPDEST SWAP1 POP PUSH0 PUSH8 0xDE0B6B3A7640000 DUP5 PUSH3 0x29CE0E DUP5 PUSH2 0x373 SWAP2 SWAP1 PUSH2 0xCBB JUMP JUMPDEST PUSH2 0x37D SWAP2 SWAP1 PUSH2 0xCBB JUMP JUMPDEST PUSH2 0x387 SWAP2 SWAP1 PUSH2 0xDF7 JUMP JUMPDEST SWAP1 POP DUP4 DUP4 PUSH0 ADD PUSH0 DUP3 DUP3 SLOAD PUSH2 0x39B SWAP2 SWAP1 PUSH2 0xD97 JUMP JUMPDEST SWAP3 POP POP DUP2 SWAP1 SSTORE POP PUSH0 DUP4 PUSH0 ADD SLOAD SUB PUSH2 0x3BA JUMPI PUSH0 DUP4 PUSH1 0x1 ADD DUP2 SWAP1 SSTORE POP PUSH2 0x3C4 JUMP JUMPDEST TIMESTAMP DUP4 PUSH1 0x1 ADD DUP2 SWAP1 SSTORE POP JUMPDEST DUP1 PUSH1 0x1 PUSH0 CALLER PUSH20 0xFFFFFFFFFFFFFFFFFFFFFFFFFFFFFFFFFFFFFFFF AND PUSH20 0xFFFFFFFFFFFFFFFFFFFFFFFFFFFFFFFFFFFFFFFF AND DUP2 MSTORE PUSH1 0x20 ADD SWAP1 DUP2 MSTORE PUSH1 0x20 ADD PUSH0 KECCAK256 PUSH0 DUP3 DUP3 SLOAD PUSH2 0x410 SWAP2 SWAP1 PUSH2 0xCFC JUMP JUMPDEST SWAP3 POP POP DUP2 SWAP1 SSTORE POP DUP5 PUSH20 0xFFFFFFFFFFFFFFFFFFFFFFFFFFFFFFFFFFFFFFFF AND CALLER PUSH20 0xFFFFFFFFFFFFFFFFFFFFFFFFFFFFFFFFFFFFFFFF AND PUSH32 0xC2B4A290C20FB28939D29F102514FBFFD2B73C059FFBA8B78250C94161D5FCC6 DUP7 DUP5 PUSH1 0x40 MLOAD PUSH2 0x476 SWAP3 SWAP2 SWAP1 PUSH2 0xBAB JUMP JUMPDEST PUSH1 0x40 MLOAD DUP1 SWAP2 SUB SWAP1 LOG3 POP POP POP POP POP JUMP JUMPDEST PUSH0 PUSH1 0x20 MSTORE DUP2 PUSH0 MSTORE PUSH1 0x40 PUSH0 KECCAK256 PUSH1 0x20 MSTORE DUP1 PUSH0 MSTORE PUSH1 0x40 PUSH0 KECCAK256 PUSH0 SWAP2 POP SWAP2 POP POP DUP1 PUSH0 ADD SLOAD SWAP1 DUP1 PUSH1 0x1 ADD SLOAD SWAP1 POP DUP3 JUMP JUMPDEST PUSH1 0x1 PUSH1 0x20 MSTORE DUP1 PUSH0 MSTORE PUSH1 0x40 PUSH0 KECCAK256 PUSH0 SWAP2 POP SWAP1 POP SLOAD DUP2 JUMP JUMPDEST PUSH20 0x5533ED0A3B83F70C3C4A1F69EF5546D3D4713E44 DUP2 JUMP JUMPDEST PUSH0 PUSH1 0x1 PUSH0 DUP4 PUSH20 0xFFFFFFFFFFFFFFFFFFFFFFFFFFFFFFFFFFFFFFFF AND PUSH20 0xFFFFFFFFFFFFFFFFFFFFFFFFFFFFFFFFFFFFFFFF AND DUP2 MSTORE PUSH1 0x20 ADD SWAP1 DUP2 MSTORE PUSH1 0x20 ADD PUSH0 KECCAK256 SLOAD SWAP1 POP SWAP2 SWAP1 POP JUMP JUMPDEST PUSH20 0xA0B86991C6218B36C1D19D4A2E9EB0CE3606EB48 DUP2 JUMP JUMPDEST PUSH0 DUP2 GT PUSH2 0x57C JUMPI PUSH1 0x40 MLOAD PUSH32 0x8C379A000000000000000000000000000000000000000000000000000000000 DUP2 MSTORE PUSH1 0x4 ADD PUSH2 0x573 SWAP1 PUSH2 0xE71 JUMP JUMPDEST PUSH1 0x40 MLOAD DUP1 SWAP2 SUB SWAP1 REVERT JUMPDEST PUSH20 0xDAC17F958D2EE523A2206206994597C13D831EC7 PUSH20 0xFFFFFFFFFFFFFFFFFFFFFFFFFFFFFFFFFFFFFFFF AND DUP3 PUSH20 0xFFFFFFFFFFFFFFFFFFFFFFFFFFFFFFFFFFFFFFFF AND EQ DUP1 PUSH2 0x609 JUMPI POP PUSH20 0xA0B86991C6218B36C1D19D4A2E9EB0CE3606EB48 PUSH20 0xFFFFFFFFFFFFFFFFFFFFFFFFFFFFFFFFFFFFFFFF AND DUP3 PUSH20 0xFFFFFFFFFFFFFFFFFFFFFFFFFFFFFFFFFFFFFFFF AND EQ JUMPDEST DUP1 PUSH2 0x653 JUMPI POP PUSH20 0x6B175474E89094C44DA98B954EEDEAC495271D0F PUSH20 0xFFFFFFFFFFFFFFFFFFFFFFFFFFFFFFFFFFFFFFFF AND DUP3 PUSH20 0xFFFFFFFFFFFFFFFFFFFFFFFFFFFFFFFFFFFFFFFF AND EQ JUMPDEST DUP1 PUSH2 0x69D JUMPI POP PUSH20 0x57AB1EC28D129707052DF4DF418D58A2D46D5F51 PUSH20 0xFFFFFFFFFFFFFFFFFFFFFFFFFFFFFFFFFFFFFFFF AND DUP3 PUSH20 0xFFFFFFFFFFFFFFFFFFFFFFFFFFFFFFFFFFFFFFFF AND EQ JUMPDEST PUSH2 0x6DC JUMPI PUSH1 0x40 MLOAD PUSH32 0x8C379A000000000000000000000000000000000000000000000000000000000 DUP2 MSTORE PUSH1 0x4 ADD PUSH2 0x6D3 SWAP1 PUSH2 0xED9 JUMP JUMPDEST PUSH1 0x40 MLOAD DUP1 SWAP2 SUB SWAP1 REVERT JUMPDEST PUSH0 PUSH0 PUSH0 CALLER PUSH20 0xFFFFFFFFFFFFFFFFFFFFFFFFFFFFFFFFFFFFFFFF AND PUSH20 0xFFFFFFFFFFFFFFFFFFFFFFFFFFFFFFFFFFFFFFFF AND DUP2 MSTORE PUSH1 0x20 ADD SWAP1 DUP2 MSTORE PUSH1 0x20 ADD PUSH0 KECCAK256 PUSH0 DUP5 PUSH20 0xFFFFFFFFFFFFFFFFFFFFFFFFFFFFFFFFFFFFFFFF AND PUSH20 0xFFFFFFFFFFFFFFFFFFFFFFFFFFFFFFFFFFFFFFFF AND DUP2 MSTORE PUSH1 0x20 ADD SWAP1 DUP2 MSTORE PUSH1 0x20 ADD PUSH0 KECCAK256 SWAP1 POP PUSH0 DUP2 PUSH0 ADD SLOAD GT ISZERO PUSH2 0x821 JUMPI PUSH0 PUSH3 0x15180 DUP3 PUSH1 0x1 ADD SLOAD TIMESTAMP PUSH2 0x776 SWAP2 SWAP1 PUSH2 0xD97 JUMP JUMPDEST PUSH2 0x780 SWAP2 SWAP1 PUSH2 0xDF7 JUMP JUMPDEST SWAP1 POP PUSH1 0x7 DUP2 GT ISZERO PUSH2 0x81F JUMPI PUSH0 PUSH8 0xDE0B6B3A7640000 DUP4 PUSH0 ADD SLOAD PUSH3 0x29CE0E PUSH1 0x7 DUP6 PUSH2 0x7AA SWAP2 SWAP1 PUSH2 0xD97 JUMP JUMPDEST PUSH2 0x7B4 SWAP2 SWAP1 PUSH2 0xCBB JUMP JUMPDEST PUSH2 0x7BE SWAP2 SWAP1 PUSH2 0xCBB JUMP JUMPDEST PUSH2 0x7C8 SWAP2 SWAP1 PUSH2 0xDF7 JUMP JUMPDEST SWAP1 POP DUP1 PUSH1 0x1 PUSH0 CALLER PUSH20 0xFFFFFFFFFFFFFFFFFFFFFFFFFFFFFFFFFFFFFFFF AND PUSH20 0xFFFFFFFFFFFFFFFFFFFFFFFFFFFFFFFFFFFFFFFF AND DUP2 MSTORE PUSH1 0x20 ADD SWAP1 DUP2 MSTORE PUSH1 0x20 ADD PUSH0 KECCAK256 PUSH0 DUP3 DUP3 SLOAD PUSH2 0x816 SWAP2 SWAP1 PUSH2 0xCFC JUMP JUMPDEST SWAP3 POP POP DUP2 SWAP1 SSTORE POP POP JUMPDEST POP JUMPDEST DUP3 PUSH20 0xFFFFFFFFFFFFFFFFFFFFFFFFFFFFFFFFFFFFFFFF AND PUSH4 0x23B872DD CALLER ADDRESS DUP6 PUSH1 0x40 MLOAD DUP5 PUSH4 0xFFFFFFFF AND PUSH1 0xE0 SHL DUP2 MSTORE PUSH1 0x4 ADD PUSH2 0x85E SWAP4 SWAP3 SWAP2 SWAP1 PUSH2 0xEF7 JUMP JUMPDEST PUSH1 0x20 PUSH1 0x40 MLOAD DUP1 DUP4 SUB DUP2 PUSH0 DUP8 GAS CALL ISZERO DUP1 ISZERO PUSH2 0x87A JUMPI RETURNDATASIZE PUSH0 PUSH0 RETURNDATACOPY RETURNDATASIZE PUSH0 REVERT JUMPDEST POP POP POP POP PUSH1 0x40 MLOAD RETURNDATASIZE PUSH1 0x1F NOT PUSH1 0x1F DUP3 ADD AND DUP3 ADD DUP1 PUSH1 0x40 MSTORE POP DUP2 ADD SWAP1 PUSH2 0x89E SWAP2 SWAP1 PUSH2 0xF61 JUMP JUMPDEST POP DUP3 PUSH20 0xFFFFFFFFFFFFFFFFFFFFFFFFFFFFFFFFFFFFFFFF AND PUSH4 0x95EA7B3 PUSH20 0x5533ED0A3B83F70C3C4A1F69EF5546D3D4713E44 DUP5 PUSH1 0x40 MLOAD DUP4 PUSH4 0xFFFFFFFF AND PUSH1 0xE0 SHL DUP2 MSTORE PUSH1 0x4 ADD PUSH2 0x8EE SWAP3 SWAP2 SWAP1 PUSH2 0xF8C JUMP JUMPDEST PUSH1 0x20 PUSH1 0x40 MLOAD DUP1 DUP4 SUB DUP2 PUSH0 DUP8 GAS CALL ISZERO DUP1 ISZERO PUSH2 0x90A JUMPI RETURNDATASIZE PUSH0 PUSH0 RETURNDATACOPY RETURNDATASIZE PUSH0 REVERT JUMPDEST POP POP POP POP PUSH1 0x40 MLOAD RETURNDATASIZE PUSH1 0x1F NOT PUSH1 0x1F DUP3 ADD AND DUP3 ADD DUP1 PUSH1 0x40 MSTORE POP DUP2 ADD SWAP1 PUSH2 0x92E SWAP2 SWAP1 PUSH2 0xF61 JUMP JUMPDEST POP PUSH20 0x5533ED0A3B83F70C3C4A1F69EF5546D3D4713E44 PUSH20 0xFFFFFFFFFFFFFFFFFFFFFFFFFFFFFFFFFFFFFFFF AND PUSH4 0xB6B55F25 DUP4 PUSH1 0x40 MLOAD DUP3 PUSH4 0xFFFFFFFF AND PUSH1 0xE0 SHL DUP2 MSTORE PUSH1 0x4 ADD PUSH2 0x97C SWAP2 SWAP1 PUSH2 0xBFD JUMP JUMPDEST PUSH0 PUSH1 0x40 MLOAD DUP1 DUP4 SUB DUP2 PUSH0 DUP8 DUP1 EXTCODESIZE ISZERO DUP1 ISZERO PUSH2 0x993 JUMPI PUSH0 PUSH0 REVERT JUMPDEST POP GAS CALL ISZERO DUP1 ISZERO PUSH2 0x9A5 JUMPI RETURNDATASIZE PUSH0 PUSH0 RETURNDATACOPY RETURNDATASIZE PUSH0 REVERT JUMPDEST POP POP POP POP DUP2 DUP2 PUSH0 ADD PUSH0 DUP3 DUP3 SLOAD PUSH2 0x9BB SWAP2 SWAP1 PUSH2 0xCFC JUMP JUMPDEST SWAP3 POP POP DUP2 SWAP1 SSTORE POP TIMESTAMP DUP2 PUSH1 0x1 ADD DUP2 SWAP1 SSTORE POP DUP3 PUSH20 0xFFFFFFFFFFFFFFFFFFFFFFFFFFFFFFFFFFFFFFFF AND CALLER PUSH20 0xFFFFFFFFFFFFFFFFFFFFFFFFFFFFFFFFFFFFFFFF AND PUSH32 0x57BAD7E3C9EFECF6E1F60BBD846B999E9DA4A409224287A8DF09779F2330135E DUP5 TIMESTAMP PUSH1 0x40 MLOAD PUSH2 0xA2A SWAP3 SWAP2 SWAP1 PUSH2 0xBAB JUMP JUMPDEST PUSH1 0x40 MLOAD DUP1 SWAP2 SUB SWAP1 LOG3 POP POP POP JUMP JUMPDEST PUSH20 0xDAC17F958D2EE523A2206206994597C13D831EC7 DUP2 JUMP JUMPDEST PUSH20 0x6B175474E89094C44DA98B954EEDEAC495271D0F DUP2 JUMP JUMPDEST PUSH0 PUSH20 0xFFFFFFFFFFFFFFFFFFFFFFFFFFFFFFFFFFFFFFFF DUP3 AND SWAP1 POP SWAP2 SWAP1 POP JUMP JUMPDEST PUSH0 PUSH2 0xA90 DUP3 PUSH2 0xA67 JUMP JUMPDEST SWAP1 POP SWAP2 SWAP1 POP JUMP JUMPDEST PUSH2 0xAA0 DUP2 PUSH2 0xA86 JUMP JUMPDEST DUP3 MSTORE POP POP JUMP JUMPDEST PUSH0 PUSH1 0x20 DUP3 ADD SWAP1 POP PUSH2 0xAB9 PUSH0 DUP4 ADD DUP5 PUSH2 0xA97 JUMP JUMPDEST SWAP3 SWAP2 POP POP JUMP JUMPDEST PUSH0 PUSH0 REVERT JUMPDEST PUSH2 0xACC DUP2 PUSH2 0xA86 JUMP JUMPDEST DUP2 EQ PUSH2 0xAD6 JUMPI PUSH0 PUSH0 REVERT JUMPDEST POP JUMP JUMPDEST PUSH0 DUP2 CALLDATALOAD SWAP1 POP PUSH2 0xAE7 DUP2 PUSH2 0xAC3 JUMP JUMPDEST SWAP3 SWAP2 POP POP JUMP JUMPDEST PUSH0 DUP2 SWAP1 POP SWAP2 SWAP1 POP JUMP JUMPDEST PUSH2 0xAFF DUP2 PUSH2 0xAED JUMP JUMPDEST DUP2 EQ PUSH2 0xB09 JUMPI PUSH0 PUSH0 REVERT JUMPDEST POP JUMP JUMPDEST PUSH0 DUP2 CALLDATALOAD SWAP1 POP PUSH2 0xB1A DUP2 PUSH2 0xAF6 JUMP JUMPDEST SWAP3 SWAP2 POP POP JUMP JUMPDEST PUSH0 PUSH0 PUSH1 0x40 DUP4 DUP6 SUB SLT ISZERO PUSH2 0xB36 JUMPI PUSH2 0xB35 PUSH2 0xABF JUMP JUMPDEST JUMPDEST PUSH0 PUSH2 0xB43 DUP6 DUP3 DUP7 ADD PUSH2 0xAD9 JUMP JUMPDEST SWAP3 POP POP PUSH1 0x20 PUSH2 0xB54 DUP6 DUP3 DUP7 ADD PUSH2 0xB0C JUMP JUMPDEST SWAP2 POP POP SWAP3 POP SWAP3 SWAP1 POP JUMP JUMPDEST PUSH0 PUSH0 PUSH1 0x40 DUP4 DUP6 SUB SLT ISZERO PUSH2 0xB74 JUMPI PUSH2 0xB73 PUSH2 0xABF JUMP JUMPDEST JUMPDEST PUSH0 PUSH2 0xB81 DUP6 DUP3 DUP7 ADD PUSH2 0xAD9 JUMP JUMPDEST SWAP3 POP POP PUSH1 0x20 PUSH2 0xB92 DUP6 DUP3 DUP7 ADD PUSH2 0xAD9 JUMP JUMPDEST SWAP2 POP POP SWAP3 POP SWAP3 SWAP1 POP JUMP JUMPDEST PUSH2 0xBA5 DUP2 PUSH2 0xAED JUMP JUMPDEST DUP3 MSTORE POP POP JUMP JUMPDEST PUSH0 PUSH1 0x40 DUP3 ADD SWAP1 POP PUSH2 0xBBE PUSH0 DUP4 ADD DUP6 PUSH2 0xB9C JUMP JUMPDEST PUSH2 0xBCB PUSH1 0x20 DUP4 ADD DUP5 PUSH2 0xB9C JUMP JUMPDEST SWAP4 SWAP3 POP POP POP JUMP JUMPDEST PUSH0 PUSH1 0x20 DUP3 DUP5 SUB SLT ISZERO PUSH2 0xBE7 JUMPI PUSH2 0xBE6 PUSH2 0xABF JUMP JUMPDEST JUMPDEST PUSH0 PUSH2 0xBF4 DUP5 DUP3 DUP6 ADD PUSH2 0xAD9 JUMP JUMPDEST SWAP2 POP POP SWAP3 SWAP2 POP POP JUMP JUMPDEST PUSH0 PUSH1 0x20 DUP3 ADD SWAP1 POP PUSH2 0xC10 PUSH0 DUP4 ADD DUP5 PUSH2 0xB9C JUMP JUMPDEST SWAP3 SWAP2 POP POP JUMP JUMPDEST PUSH0 DUP3 DUP3 MSTORE PUSH1 0x20 DUP3 ADD SWAP1 POP SWAP3 SWAP2 POP POP JUMP JUMPDEST PUSH32 0x496E73756666696369656E742062616C616E6365000000000000000000000000 PUSH0 DUP3 ADD MSTORE POP JUMP JUMPDEST PUSH0 PUSH2 0xC5A PUSH1 0x14 DUP4 PUSH2 0xC16 JUMP JUMPDEST SWAP2 POP PUSH2 0xC65 DUP3 PUSH2 0xC26 JUMP JUMPDEST PUSH1 0x20 DUP3 ADD SWAP1 POP SWAP2 SWAP1 POP JUMP JUMPDEST PUSH0 PUSH1 0x20 DUP3 ADD SWAP1 POP DUP2 DUP2 SUB PUSH0 DUP4 ADD MSTORE PUSH2 0xC87 DUP2 PUSH2 0xC4E JUMP JUMPDEST SWAP1 POP SWAP2 SWAP1 POP JUMP JUMPDEST PUSH32 0x4E487B7100000000000000000000000000000000000000000000000000000000 PUSH0 MSTORE PUSH1 0x11 PUSH1 0x4 MSTORE PUSH1 0x24 PUSH0 REVERT JUMPDEST PUSH0 PUSH2 0xCC5 DUP3 PUSH2 0xAED JUMP JUMPDEST SWAP2 POP PUSH2 0xCD0 DUP4 PUSH2 0xAED JUMP JUMPDEST SWAP3 POP DUP3 DUP3 MUL PUSH2 0xCDE DUP2 PUSH2 0xAED JUMP JUMPDEST SWAP2 POP DUP3 DUP3 DIV DUP5 EQ DUP4 ISZERO OR PUSH2 0xCF5 JUMPI PUSH2 0xCF4 PUSH2 0xC8E JUMP JUMPDEST JUMPDEST POP SWAP3 SWAP2 POP POP JUMP JUMPDEST PUSH0 PUSH2 0xD06 DUP3 PUSH2 0xAED JUMP JUMPDEST SWAP2 POP PUSH2 0xD11 DUP4 PUSH2 0xAED JUMP JUMPDEST SWAP3 POP DUP3 DUP3 ADD SWAP1 POP DUP1 DUP3 GT ISZERO PUSH2 0xD29 JUMPI PUSH2 0xD28 PUSH2 0xC8E JUMP JUMPDEST JUMPDEST SWAP3 SWAP2 POP POP JUMP JUMPDEST PUSH32 0x5769746864726177616C206C6F636B656420666F722037206461797300000000 PUSH0 DUP3 ADD MSTORE POP JUMP JUMPDEST PUSH0 PUSH2 0xD63 PUSH1 0x1C DUP4 PUSH2 0xC16 JUMP JUMPDEST SWAP2 POP PUSH2 0xD6E DUP3 PUSH2 0xD2F JUMP JUMPDEST PUSH1 0x20 DUP3 ADD SWAP1 POP SWAP2 SWAP1 POP JUMP JUMPDEST PUSH0 PUSH1 0x20 DUP3 ADD SWAP1 POP DUP2 DUP2 SUB PUSH0 DUP4 ADD MSTORE PUSH2 0xD90 DUP2 PUSH2 0xD57 JUMP JUMPDEST SWAP1 POP SWAP2 SWAP1 POP JUMP JUMPDEST PUSH0 PUSH2 0xDA1 DUP3 PUSH2 0xAED JUMP JUMPDEST SWAP2 POP PUSH2 0xDAC DUP4 PUSH2 0xAED JUMP JUMPDEST SWAP3 POP DUP3 DUP3 SUB SWAP1 POP DUP2 DUP2 GT ISZERO PUSH2 0xDC4 JUMPI PUSH2 0xDC3 PUSH2 0xC8E JUMP JUMPDEST JUMPDEST SWAP3 SWAP2 POP POP JUMP JUMPDEST PUSH32 0x4E487B7100000000000000000000000000000000000000000000000000000000 PUSH0 MSTORE PUSH1 0x12 PUSH1 0x4 MSTORE PUSH1 0x24 PUSH0 REVERT JUMPDEST PUSH0 PUSH2 0xE01 DUP3 PUSH2 0xAED JUMP JUMPDEST SWAP2 POP PUSH2 0xE0C DUP4 PUSH2 0xAED JUMP JUMPDEST SWAP3 POP DUP3 PUSH2 0xE1C JUMPI PUSH2 0xE1B PUSH2 0xDCA JUMP JUMPDEST JUMPDEST DUP3 DUP3 DIV SWAP1 POP SWAP3 SWAP2 POP POP JUMP JUMPDEST PUSH32 0x416D6F756E74206D7573742062652067726561746572207468616E2030000000 PUSH0 DUP3 ADD MSTORE POP JUMP JUMPDEST PUSH0 PUSH2 0xE5B PUSH1 0x1D DUP4 PUSH2 0xC16 JUMP JUMPDEST SWAP2 POP PUSH2 0xE66 DUP3 PUSH2 0xE27 JUMP JUMPDEST PUSH1 0x20 DUP3 ADD SWAP1 POP SWAP2 SWAP1 POP JUMP JUMPDEST PUSH0 PUSH1 0x20 DUP3 ADD SWAP1 POP DUP2 DUP2 SUB PUSH0 DUP4 ADD MSTORE PUSH2 0xE88 DUP2 PUSH2 0xE4F JUMP JUMPDEST SWAP1 POP SWAP2 SWAP1 POP JUMP JUMPDEST PUSH32 0x556E737570706F7274656420746F6B656E000000000000000000000000000000 PUSH0 DUP3 ADD MSTORE POP JUMP JUMPDEST PUSH0 PUSH2 0xEC3 PUSH1 0x11 DUP4 PUSH2 0xC16 JUMP JUMPDEST SWAP2 POP PUSH2 0xECE DUP3 PUSH2 0xE8F JUMP JUMPDEST PUSH1 0x20 DUP3 ADD SWAP1 POP SWAP2 SWAP1 POP JUMP JUMPDEST PUSH0 PUSH1 0x20 DUP3 ADD SWAP1 POP DUP2 DUP2 SUB PUSH0 DUP4 ADD MSTORE PUSH2 0xEF0 DUP2 PUSH2 0xEB7 JUMP JUMPDEST SWAP1 POP SWAP2 SWAP1 POP JUMP JUMPDEST PUSH0 PUSH1 0x60 DUP3 ADD SWAP1 POP PUSH2 0xF0A PUSH0 DUP4 ADD DUP7 PUSH2 0xA97 JUMP JUMPDEST PUSH2 0xF17 PUSH1 0x20 DUP4 ADD DUP6 PUSH2 0xA97 JUMP JUMPDEST PUSH2 0xF24 PUSH1 0x40 DUP4 ADD DUP5 PUSH2 0xB9C JUMP JUMPDEST SWAP5 SWAP4 POP POP POP POP JUMP JUMPDEST PUSH0 DUP2 ISZERO ISZERO SWAP1 POP SWAP2 SWAP1 POP JUMP JUMPDEST PUSH2 0xF40 DUP2 PUSH2 0xF2C JUMP JUMPDEST DUP2 EQ PUSH2 0xF4A JUMPI PUSH0 PUSH0 REVERT JUMPDEST POP JUMP JUMPDEST PUSH0 DUP2 MLOAD SWAP1 POP PUSH2 0xF5B DUP2 PUSH2 0xF37 JUMP JUMPDEST SWAP3 SWAP2 POP POP JUMP JUMPDEST PUSH0 PUSH1 0x20 DUP3 DUP5 SUB SLT ISZERO PUSH2 0xF76 JUMPI PUSH2 0xF75 PUSH2 0xABF JUMP JUMPDEST JUMPDEST PUSH0 PUSH2 0xF83 DUP5 DUP3 DUP6 ADD PUSH2 0xF4D JUMP JUMPDEST SWAP2 POP POP SWAP3 SWAP2 POP POP JUMP JUMPDEST PUSH0 PUSH1 0x40 DUP3 ADD SWAP1 POP PUSH2 0xF9F PUSH0 DUP4 ADD DUP6 PUSH2 0xA97 JUMP JUMPDEST PUSH2 0xFAC PUSH1 0x20 DUP4 ADD DUP5 PUSH2 0xB9C JUMP JUMPDEST SWAP4 SWAP3 POP POP POP JUMP INVALID LOG2 PUSH5 0x6970667358 0x22 SLT KECCAK256 0x4B SHL MLOAD SWAP12 EXP 0xCB 0xD8 BLOBBASEFEE PUSH20 0x69586EA850413E80EE3977CB5EB3EC7427748DF2 LOG1 0xA6 PUSH22 0x64736F6C634300081C00330000000000000000000000 "
				},
				"gasEstimates": {
					"creation": {
						"codeDepositCost": "814600",
						"executionCost": "849",
						"totalCost": "815449"
					},
					"external": {
						"DAI()": "461",
						"SUSD()": "374",
						"USDC()": "395",
						"USDT()": "439",
						"YCRV_VAULT()": "462",
						"calculateTotalTokens(address)": "2829",
						"depositToVault(address,uint256)": "infinite",
						"releasedTokens(address)": "2869",
						"userDeposits(address,address)": "infinite",
						"withdrawFromVault(address,uint256)": "infinite"
					},
					"internal": {
						"calculateBonus(uint256)": "infinite"
					}
				},
				"methodIdentifiers": {
					"DAI()": "e0bab4c4",
					"SUSD()": "15d8eeba",
					"USDC()": "89a30271",
					"USDT()": "c54e44eb",
					"YCRV_VAULT()": "791f96a7",
					"calculateTotalTokens(address)": "84053423",
					"depositToVault(address,uint256)": "a3d11158",
					"releasedTokens(address)": "70ff852b",
					"userDeposits(address,address)": "436d8039",
					"withdrawFromVault(address,uint256)": "21116f4e"
				}
			},
			"storageLayout": {
				"storage": [
					{
						"astId": 69,
						"contract": "contracts/VaultManager.sol:StablecoinVaultManager",
						"label": "userDeposits",
						"offset": 0,
						"slot": "0",
						"type": "t_mapping(t_address,t_mapping(t_address,t_struct(DepositInfo)62_storage))"
					},
					{
						"astId": 73,
						"contract": "contracts/VaultManager.sol:StablecoinVaultManager",
						"label": "releasedTokens",
						"offset": 0,
						"slot": "1",
						"type": "t_mapping(t_address,t_uint256)"
					}
				],
				"types": {
					"t_address": {
						"encoding": "inplace",
						"label": "address",
						"numberOfBytes": "20"
					},
					"t_mapping(t_address,t_mapping(t_address,t_struct(DepositInfo)62_storage))": {
						"encoding": "mapping",
						"key": "t_address",
						"label": "mapping(address => mapping(address => struct StablecoinVaultManager.DepositInfo))",
						"numberOfBytes": "32",
						"value": "t_mapping(t_address,t_struct(DepositInfo)62_storage)"
					},
					"t_mapping(t_address,t_struct(DepositInfo)62_storage)": {
						"encoding": "mapping",
						"key": "t_address",
						"label": "mapping(address => struct StablecoinVaultManager.DepositInfo)",
						"numberOfBytes": "32",
						"value": "t_struct(DepositInfo)62_storage"
					},
					"t_mapping(t_address,t_uint256)": {
						"encoding": "mapping",
						"key": "t_address",
						"label": "mapping(address => uint256)",
						"numberOfBytes": "32",
						"value": "t_uint256"
					},
					"t_struct(DepositInfo)62_storage": {
						"encoding": "inplace",
						"label": "struct StablecoinVaultManager.DepositInfo",
						"members": [
							{
								"astId": 59,
								"contract": "contracts/VaultManager.sol:StablecoinVaultManager",
								"label": "amount",
								"offset": 0,
								"slot": "0",
								"type": "t_uint256"
							},
							{
								"astId": 61,
								"contract": "contracts/VaultManager.sol:StablecoinVaultManager",
								"label": "timestamp",
								"offset": 0,
								"slot": "1",
								"type": "t_uint256"
							}
						],
						"numberOfBytes": "64"
					},
					"t_uint256": {
						"encoding": "inplace",
						"label": "uint256",
						"numberOfBytes": "32"
					}
				}
			},
			"userdoc": {
				"kind": "user",
				"methods": {},
				"version": 1
			}
		}
	}
}