{
	"contracts/PrizeManager.sol": {
		"PrizeManager": {
			"abi": [
				{
					"inputs": [
						{
							"internalType": "address",
							"name": "initialOwner",
							"type": "address"
						}
					],
					"stateMutability": "nonpayable",
					"type": "constructor"
				},
				{
					"inputs": [
						{
							"internalType": "address",
							"name": "owner",
							"type": "address"
						}
					],
					"name": "OwnableInvalidOwner",
					"type": "error"
				},
				{
					"inputs": [
						{
							"internalType": "address",
							"name": "account",
							"type": "address"
						}
					],
					"name": "OwnableUnauthorizedAccount",
					"type": "error"
				},
				{
					"anonymous": false,
					"inputs": [
						{
							"indexed": false,
							"internalType": "uint256",
							"name": "ownerDividend",
							"type": "uint256"
						},
						{
							"indexed": false,
							"internalType": "uint256",
							"name": "developerDividend",
							"type": "uint256"
						}
					],
					"name": "DividendsUpdated",
					"type": "event"
				},
				{
					"anonymous": false,
					"inputs": [
						{
							"indexed": true,
							"internalType": "address",
							"name": "previousOwner",
							"type": "address"
						},
						{
							"indexed": true,
							"internalType": "address",
							"name": "newOwner",
							"type": "address"
						}
					],
					"name": "OwnershipTransferred",
					"type": "event"
				},
				{
					"anonymous": false,
					"inputs": [
						{
							"indexed": false,
							"internalType": "uint256",
							"name": "superPrize",
							"type": "uint256"
						},
						{
							"indexed": false,
							"internalType": "uint256",
							"name": "highPrize",
							"type": "uint256"
						},
						{
							"indexed": false,
							"internalType": "uint256",
							"name": "middlePrize",
							"type": "uint256"
						},
						{
							"indexed": false,
							"internalType": "uint256",
							"name": "lowPrize",
							"type": "uint256"
						}
					],
					"name": "PrizePoolsUpdated",
					"type": "event"
				},
				{
					"anonymous": false,
					"inputs": [
						{
							"indexed": false,
							"internalType": "uint256",
							"name": "newPrizeScale",
							"type": "uint256"
						}
					],
					"name": "PrizeScaleUpdated",
					"type": "event"
				},
				{
					"anonymous": false,
					"inputs": [
						{
							"indexed": false,
							"internalType": "uint256",
							"name": "superPrizeWinners",
							"type": "uint256"
						},
						{
							"indexed": false,
							"internalType": "uint256",
							"name": "highPrizeWinners",
							"type": "uint256"
						},
						{
							"indexed": false,
							"internalType": "uint256",
							"name": "middlePrizeWinners",
							"type": "uint256"
						},
						{
							"indexed": false,
							"internalType": "uint256",
							"name": "lowPrizeWinners",
							"type": "uint256"
						}
					],
					"name": "PrizesDistributed",
					"type": "event"
				},
				{
					"inputs": [],
					"name": "developerDividend",
					"outputs": [
						{
							"internalType": "uint256",
							"name": "",
							"type": "uint256"
						}
					],
					"stateMutability": "view",
					"type": "function"
				},
				{
					"inputs": [],
					"name": "distributeDeveloperDividends",
					"outputs": [
						{
							"internalType": "bool",
							"name": "",
							"type": "bool"
						}
					],
					"stateMutability": "view",
					"type": "function"
				},
				{
					"inputs": [],
					"name": "distributeOwnerDividends",
					"outputs": [
						{
							"internalType": "bool",
							"name": "",
							"type": "bool"
						}
					],
					"stateMutability": "view",
					"type": "function"
				},
				{
					"inputs": [],
					"name": "highPrize",
					"outputs": [
						{
							"internalType": "uint256",
							"name": "",
							"type": "uint256"
						}
					],
					"stateMutability": "view",
					"type": "function"
				},
				{
					"inputs": [],
					"name": "lowPrize",
					"outputs": [
						{
							"internalType": "uint256",
							"name": "",
							"type": "uint256"
						}
					],
					"stateMutability": "view",
					"type": "function"
				},
				{
					"inputs": [],
					"name": "middlePrize",
					"outputs": [
						{
							"internalType": "uint256",
							"name": "",
							"type": "uint256"
						}
					],
					"stateMutability": "view",
					"type": "function"
				},
				{
					"inputs": [],
					"name": "owner",
					"outputs": [
						{
							"internalType": "address",
							"name": "",
							"type": "address"
						}
					],
					"stateMutability": "view",
					"type": "function"
				},
				{
					"inputs": [],
					"name": "ownerDividend",
					"outputs": [
						{
							"internalType": "uint256",
							"name": "",
							"type": "uint256"
						}
					],
					"stateMutability": "view",
					"type": "function"
				},
				{
					"inputs": [],
					"name": "prizeScale",
					"outputs": [
						{
							"internalType": "uint256",
							"name": "",
							"type": "uint256"
						}
					],
					"stateMutability": "view",
					"type": "function"
				},
				{
					"inputs": [],
					"name": "renounceOwnership",
					"outputs": [],
					"stateMutability": "nonpayable",
					"type": "function"
				},
				{
					"inputs": [],
					"name": "superPrize",
					"outputs": [
						{
							"internalType": "uint256",
							"name": "",
							"type": "uint256"
						}
					],
					"stateMutability": "view",
					"type": "function"
				},
				{
					"inputs": [
						{
							"internalType": "address",
							"name": "newOwner",
							"type": "address"
						}
					],
					"name": "transferOwnership",
					"outputs": [],
					"stateMutability": "nonpayable",
					"type": "function"
				},
				{
					"inputs": [
						{
							"internalType": "uint256",
							"name": "profits",
							"type": "uint256"
						}
					],
					"name": "updatePrizePools",
					"outputs": [],
					"stateMutability": "nonpayable",
					"type": "function"
				}
			],
			"devdoc": {
				"details": "Manages prize pools, distributions, and random winner selection.",
				"errors": {
					"OwnableInvalidOwner(address)": [
						{
							"details": "The owner is not a valid owner account. (eg. `address(0)`)"
						}
					],
					"OwnableUnauthorizedAccount(address)": [
						{
							"details": "The caller account is not authorized to perform an operation."
						}
					]
				},
				"kind": "dev",
				"methods": {
					"constructor": {
						"params": {
							"initialOwner": "Address of the initial owner."
						}
					},
					"owner()": {
						"details": "Returns the address of the current owner."
					},
					"renounceOwnership()": {
						"details": "Leaves the contract without owner. It will not be possible to call `onlyOwner` functions. Can only be called by the current owner. NOTE: Renouncing ownership will leave the contract without an owner, thereby disabling any functionality that is only available to the owner."
					},
					"transferOwnership(address)": {
						"details": "Transfers ownership of the contract to a new account (`newOwner`). Can only be called by the current owner."
					},
					"updatePrizePools(uint256)": {
						"params": {
							"profits": "Total profits accumulated over the week."
						}
					}
				},
				"title": "PrizeManager",
				"version": 1
			},
			"evm": {
				"assembly": "    /* \"contracts/PrizeManager.sol\":246:2485  contract PrizeManager is Ownable {... */\n  mstore(0x40, 0x80)\n    /* \"contracts/PrizeManager.sol\":592:594  10 */\n  0x0a\n    /* \"contracts/PrizeManager.sol\":564:594  uint256 public prizeScale = 10 */\n  0x07\n  sstore\n    /* \"contracts/PrizeManager.sol\":723:728  false */\n  0x00\n    /* \"contracts/PrizeManager.sol\":684:728  bool public distributeOwnerDividends = false */\n  0x09\n  exp(0x0100, 0x00)\n  dup2\n  sload\n  dup2\n  0xff\n  mul\n  not\n  and\n  swap1\n  dup4\n  iszero\n  iszero\n  mul\n  or\n  swap1\n  sstore\n  pop\n    /* \"contracts/PrizeManager.sol\":778:783  false */\n  0x00\n    /* \"contracts/PrizeManager.sol\":735:783  bool public distributeDeveloperDividends = false */\n  0x09\n  exp(0x0100, 0x01)\n  dup2\n  sload\n  dup2\n  0xff\n  mul\n  not\n  and\n  swap1\n  dup4\n  iszero\n  iszero\n  mul\n  or\n  swap1\n  sstore\n  pop\n    /* \"contracts/PrizeManager.sol\":1339:1397  constructor(address initialOwner) Ownable(initialOwner) {} */\n  callvalue\n  dup1\n  iszero\n  tag_1\n  jumpi\n  revert(0x00, 0x00)\ntag_1:\n  pop\n  mload(0x40)\n  sub(codesize, bytecodeSize)\n  dup1\n  bytecodeSize\n  dup4\n  codecopy\n  dup2\n  dup2\n  add\n  0x40\n  mstore\n  dup2\n  add\n  swap1\n  tag_2\n  swap2\n  swap1\n  tag_3\n  jump\t// in\ntag_2:\n    /* \"contracts/PrizeManager.sol\":1381:1393  initialOwner */\n  dup1\n    /* \"@openzeppelin/contracts/access/Ownable.sol\":1297:1298  0 */\n  0x00\n    /* \"@openzeppelin/contracts/access/Ownable.sol\":1273:1299  initialOwner == address(0) */\n  0xffffffffffffffffffffffffffffffffffffffff\n  and\n    /* \"@openzeppelin/contracts/access/Ownable.sol\":1273:1285  initialOwner */\n  dup2\n    /* \"@openzeppelin/contracts/access/Ownable.sol\":1273:1299  initialOwner == address(0) */\n  0xffffffffffffffffffffffffffffffffffffffff\n  and\n  sub\n    /* \"@openzeppelin/contracts/access/Ownable.sol\":1269:1364  if (initialOwner == address(0)) {... */\n  tag_7\n  jumpi\n    /* \"@openzeppelin/contracts/access/Ownable.sol\":1350:1351  0 */\n  0x00\n    /* \"@openzeppelin/contracts/access/Ownable.sol\":1322:1353  OwnableInvalidOwner(address(0)) */\n  mload(0x40)\n  0x1e4fbdf700000000000000000000000000000000000000000000000000000000\n  dup2\n  mstore\n  0x04\n  add\n  tag_8\n  swap2\n  swap1\n  tag_9\n  jump\t// in\ntag_8:\n  mload(0x40)\n  dup1\n  swap2\n  sub\n  swap1\n  revert\n    /* \"@openzeppelin/contracts/access/Ownable.sol\":1269:1364  if (initialOwner == address(0)) {... */\ntag_7:\n    /* \"@openzeppelin/contracts/access/Ownable.sol\":1373:1405  _transferOwnership(initialOwner) */\n  tag_10\n    /* \"@openzeppelin/contracts/access/Ownable.sol\":1392:1404  initialOwner */\n  dup2\n    /* \"@openzeppelin/contracts/access/Ownable.sol\":1373:1391  _transferOwnership */\n  shl(0x20, tag_11)\n    /* \"@openzeppelin/contracts/access/Ownable.sol\":1373:1405  _transferOwnership(initialOwner) */\n  0x20\n  shr\n  jump\t// in\ntag_10:\n    /* \"@openzeppelin/contracts/access/Ownable.sol\":1225:1412  constructor(address initialOwner) {... */\n  pop\n    /* \"contracts/PrizeManager.sol\":1339:1397  constructor(address initialOwner) Ownable(initialOwner) {} */\n  pop\n    /* \"contracts/PrizeManager.sol\":246:2485  contract PrizeManager is Ownable {... */\n  jump(tag_13)\n    /* \"@openzeppelin/contracts/access/Ownable.sol\":2912:3099  function _transferOwnership(address newOwner) internal virtual {... */\ntag_11:\n    /* \"@openzeppelin/contracts/access/Ownable.sol\":2985:3001  address oldOwner */\n  0x00\n    /* \"@openzeppelin/contracts/access/Ownable.sol\":3004:3010  _owner */\n  0x00\n  0x00\n  swap1\n  sload\n  swap1\n  0x0100\n  exp\n  swap1\n  div\n  0xffffffffffffffffffffffffffffffffffffffff\n  and\n    /* \"@openzeppelin/contracts/access/Ownable.sol\":2985:3010  address oldOwner = _owner */\n  swap1\n  pop\n    /* \"@openzeppelin/contracts/access/Ownable.sol\":3029:3037  newOwner */\n  dup2\n    /* \"@openzeppelin/contracts/access/Ownable.sol\":3020:3026  _owner */\n  0x00\n  0x00\n    /* \"@openzeppelin/contracts/access/Ownable.sol\":3020:3037  _owner = newOwner */\n  0x0100\n  exp\n  dup2\n  sload\n  dup2\n  0xffffffffffffffffffffffffffffffffffffffff\n  mul\n  not\n  and\n  swap1\n  dup4\n  0xffffffffffffffffffffffffffffffffffffffff\n  and\n  mul\n  or\n  swap1\n  sstore\n  pop\n    /* \"@openzeppelin/contracts/access/Ownable.sol\":3083:3091  newOwner */\n  dup2\n    /* \"@openzeppelin/contracts/access/Ownable.sol\":3052:3092  OwnershipTransferred(oldOwner, newOwner) */\n  0xffffffffffffffffffffffffffffffffffffffff\n  and\n    /* \"@openzeppelin/contracts/access/Ownable.sol\":3073:3081  oldOwner */\n  dup2\n    /* \"@openzeppelin/contracts/access/Ownable.sol\":3052:3092  OwnershipTransferred(oldOwner, newOwner) */\n  0xffffffffffffffffffffffffffffffffffffffff\n  and\n  0x8be0079c531659141344cd1fd0a4f28419497f9722a3daafe3b4186f6b6457e0\n  mload(0x40)\n  mload(0x40)\n  dup1\n  swap2\n  sub\n  swap1\n  log3\n    /* \"@openzeppelin/contracts/access/Ownable.sol\":2975:3099  {... */\n  pop\n    /* \"@openzeppelin/contracts/access/Ownable.sol\":2912:3099  function _transferOwnership(address newOwner) internal virtual {... */\n  pop\n  jump\t// out\n    /* \"#utility.yul\":88:205   */\ntag_16:\n    /* \"#utility.yul\":197:198   */\n  0x00\n    /* \"#utility.yul\":194:195   */\n  0x00\n    /* \"#utility.yul\":187:199   */\n  revert\n    /* \"#utility.yul\":334:460   */\ntag_18:\n    /* \"#utility.yul\":371:378   */\n  0x00\n    /* \"#utility.yul\":411:453   */\n  0xffffffffffffffffffffffffffffffffffffffff\n    /* \"#utility.yul\":404:409   */\n  dup3\n    /* \"#utility.yul\":400:454   */\n  and\n    /* \"#utility.yul\":389:454   */\n  swap1\n  pop\n    /* \"#utility.yul\":334:460   */\n  swap2\n  swap1\n  pop\n  jump\t// out\n    /* \"#utility.yul\":466:562   */\ntag_19:\n    /* \"#utility.yul\":503:510   */\n  0x00\n    /* \"#utility.yul\":532:556   */\n  tag_29\n    /* \"#utility.yul\":550:555   */\n  dup3\n    /* \"#utility.yul\":532:556   */\n  tag_18\n  jump\t// in\ntag_29:\n    /* \"#utility.yul\":521:556   */\n  swap1\n  pop\n    /* \"#utility.yul\":466:562   */\n  swap2\n  swap1\n  pop\n  jump\t// out\n    /* \"#utility.yul\":568:690   */\ntag_20:\n    /* \"#utility.yul\":641:665   */\n  tag_31\n    /* \"#utility.yul\":659:664   */\n  dup2\n    /* \"#utility.yul\":641:665   */\n  tag_19\n  jump\t// in\ntag_31:\n    /* \"#utility.yul\":634:639   */\n  dup2\n    /* \"#utility.yul\":631:666   */\n  eq\n    /* \"#utility.yul\":621:684   */\n  tag_32\n  jumpi\n    /* \"#utility.yul\":680:681   */\n  0x00\n    /* \"#utility.yul\":677:678   */\n  0x00\n    /* \"#utility.yul\":670:682   */\n  revert\n    /* \"#utility.yul\":621:684   */\ntag_32:\n    /* \"#utility.yul\":568:690   */\n  pop\n  jump\t// out\n    /* \"#utility.yul\":696:839   */\ntag_21:\n    /* \"#utility.yul\":753:758   */\n  0x00\n    /* \"#utility.yul\":784:790   */\n  dup2\n    /* \"#utility.yul\":778:791   */\n  mload\n    /* \"#utility.yul\":769:791   */\n  swap1\n  pop\n    /* \"#utility.yul\":800:833   */\n  tag_34\n    /* \"#utility.yul\":827:832   */\n  dup2\n    /* \"#utility.yul\":800:833   */\n  tag_20\n  jump\t// in\ntag_34:\n    /* \"#utility.yul\":696:839   */\n  swap3\n  swap2\n  pop\n  pop\n  jump\t// out\n    /* \"#utility.yul\":845:1196   */\ntag_3:\n    /* \"#utility.yul\":915:921   */\n  0x00\n    /* \"#utility.yul\":964:966   */\n  0x20\n    /* \"#utility.yul\":952:961   */\n  dup3\n    /* \"#utility.yul\":943:950   */\n  dup5\n    /* \"#utility.yul\":939:962   */\n  sub\n    /* \"#utility.yul\":935:967   */\n  slt\n    /* \"#utility.yul\":932:1051   */\n  iszero\n  tag_36\n  jumpi\n    /* \"#utility.yul\":970:1049   */\n  tag_37\n  tag_16\n  jump\t// in\ntag_37:\n    /* \"#utility.yul\":932:1051   */\ntag_36:\n    /* \"#utility.yul\":1090:1091   */\n  0x00\n    /* \"#utility.yul\":1115:1179   */\n  tag_38\n    /* \"#utility.yul\":1171:1178   */\n  dup5\n    /* \"#utility.yul\":1162:1168   */\n  dup3\n    /* \"#utility.yul\":1151:1160   */\n  dup6\n    /* \"#utility.yul\":1147:1169   */\n  add\n    /* \"#utility.yul\":1115:1179   */\n  tag_21\n  jump\t// in\ntag_38:\n    /* \"#utility.yul\":1105:1179   */\n  swap2\n  pop\n    /* \"#utility.yul\":1061:1189   */\n  pop\n    /* \"#utility.yul\":845:1196   */\n  swap3\n  swap2\n  pop\n  pop\n  jump\t// out\n    /* \"#utility.yul\":1202:1320   */\ntag_22:\n    /* \"#utility.yul\":1289:1313   */\n  tag_40\n    /* \"#utility.yul\":1307:1312   */\n  dup2\n    /* \"#utility.yul\":1289:1313   */\n  tag_19\n  jump\t// in\ntag_40:\n    /* \"#utility.yul\":1284:1287   */\n  dup3\n    /* \"#utility.yul\":1277:1314   */\n  mstore\n    /* \"#utility.yul\":1202:1320   */\n  pop\n  pop\n  jump\t// out\n    /* \"#utility.yul\":1326:1548   */\ntag_9:\n    /* \"#utility.yul\":1419:1423   */\n  0x00\n    /* \"#utility.yul\":1457:1459   */\n  0x20\n    /* \"#utility.yul\":1446:1455   */\n  dup3\n    /* \"#utility.yul\":1442:1460   */\n  add\n    /* \"#utility.yul\":1434:1460   */\n  swap1\n  pop\n    /* \"#utility.yul\":1470:1541   */\n  tag_42\n    /* \"#utility.yul\":1538:1539   */\n  0x00\n    /* \"#utility.yul\":1527:1536   */\n  dup4\n    /* \"#utility.yul\":1523:1540   */\n  add\n    /* \"#utility.yul\":1514:1520   */\n  dup5\n    /* \"#utility.yul\":1470:1541   */\n  tag_22\n  jump\t// in\ntag_42:\n    /* \"#utility.yul\":1326:1548   */\n  swap3\n  swap2\n  pop\n  pop\n  jump\t// out\n    /* \"contracts/PrizeManager.sol\":246:2485  contract PrizeManager is Ownable {... */\ntag_13:\n  dataSize(sub_0)\n  dup1\n  dataOffset(sub_0)\n  0x00\n  codecopy\n  0x00\n  return\nstop\n\nsub_0: assembly {\n        /* \"contracts/PrizeManager.sol\":246:2485  contract PrizeManager is Ownable {... */\n      mstore(0x40, 0x80)\n      callvalue\n      dup1\n      iszero\n      tag_1\n      jumpi\n      revert(0x00, 0x00)\n    tag_1:\n      pop\n      jumpi(tag_2, lt(calldatasize, 0x04))\n      shr(0xe0, calldataload(0x00))\n      dup1\n      0x8da5cb5b\n      gt\n      tag_16\n      jumpi\n      dup1\n      0xcb3ebec2\n      gt\n      tag_17\n      jumpi\n      dup1\n      0xcb3ebec2\n      eq\n      tag_12\n      jumpi\n      dup1\n      0xed22723a\n      eq\n      tag_13\n      jumpi\n      dup1\n      0xf1a002b1\n      eq\n      tag_14\n      jumpi\n      dup1\n      0xf2fde38b\n      eq\n      tag_15\n      jumpi\n      jump(tag_2)\n    tag_17:\n      dup1\n      0x8da5cb5b\n      eq\n      tag_9\n      jumpi\n      dup1\n      0x9ad97fa0\n      eq\n      tag_10\n      jumpi\n      dup1\n      0xab4d819f\n      eq\n      tag_11\n      jumpi\n      jump(tag_2)\n    tag_16:\n      dup1\n      0x11a1c8bd\n      eq\n      tag_3\n      jumpi\n      dup1\n      0x1934c786\n      eq\n      tag_4\n      jumpi\n      dup1\n      0x1f63000f\n      eq\n      tag_5\n      jumpi\n      dup1\n      0x638ad71d\n      eq\n      tag_6\n      jumpi\n      dup1\n      0x715018a6\n      eq\n      tag_7\n      jumpi\n      dup1\n      0x7b820b83\n      eq\n      tag_8\n      jumpi\n    tag_2:\n      revert(0x00, 0x00)\n        /* \"contracts/PrizeManager.sol\":306:331  uint256 public superPrize */\n    tag_3:\n      tag_18\n      tag_19\n      jump\t// in\n    tag_18:\n      mload(0x40)\n      tag_20\n      swap2\n      swap1\n      tag_21\n      jump\t// in\n    tag_20:\n      mload(0x40)\n      dup1\n      swap2\n      sub\n      swap1\n      return\n        /* \"contracts/PrizeManager.sol\":487:519  uint256 public developerDividend */\n    tag_4:\n      tag_22\n      tag_23\n      jump\t// in\n    tag_22:\n      mload(0x40)\n      tag_24\n      swap2\n      swap1\n      tag_21\n      jump\t// in\n    tag_24:\n      mload(0x40)\n      dup1\n      swap2\n      sub\n      swap1\n      return\n        /* \"contracts/PrizeManager.sol\":735:783  bool public distributeDeveloperDividends = false */\n    tag_5:\n      tag_25\n      tag_26\n      jump\t// in\n    tag_25:\n      mload(0x40)\n      tag_27\n      swap2\n      swap1\n      tag_28\n      jump\t// in\n    tag_27:\n      mload(0x40)\n      dup1\n      swap2\n      sub\n      swap1\n      return\n        /* \"contracts/PrizeManager.sol\":402:425  uint256 public lowPrize */\n    tag_6:\n      tag_29\n      tag_30\n      jump\t// in\n    tag_29:\n      mload(0x40)\n      tag_31\n      swap2\n      swap1\n      tag_21\n      jump\t// in\n    tag_31:\n      mload(0x40)\n      dup1\n      swap2\n      sub\n      swap1\n      return\n        /* \"@openzeppelin/contracts/access/Ownable.sol\":2293:2394  function renounceOwnership() public virtual onlyOwner {... */\n    tag_7:\n      tag_32\n      tag_33\n      jump\t// in\n    tag_32:\n      stop\n        /* \"contracts/PrizeManager.sol\":338:362  uint256 public highPrize */\n    tag_8:\n      tag_34\n      tag_35\n      jump\t// in\n    tag_34:\n      mload(0x40)\n      tag_36\n      swap2\n      swap1\n      tag_21\n      jump\t// in\n    tag_36:\n      mload(0x40)\n      dup1\n      swap2\n      sub\n      swap1\n      return\n        /* \"@openzeppelin/contracts/access/Ownable.sol\":1638:1723  function owner() public view virtual returns (address) {... */\n    tag_9:\n      tag_37\n      tag_38\n      jump\t// in\n    tag_37:\n      mload(0x40)\n      tag_39\n      swap2\n      swap1\n      tag_40\n      jump\t// in\n    tag_39:\n      mload(0x40)\n      dup1\n      swap2\n      sub\n      swap1\n      return\n        /* \"contracts/PrizeManager.sol\":1566:2423  function updatePrizePools(uint256 profits) external onlyOwner {... */\n    tag_10:\n      tag_41\n      0x04\n      dup1\n      calldatasize\n      sub\n      dup2\n      add\n      swap1\n      tag_42\n      swap2\n      swap1\n      tag_43\n      jump\t// in\n    tag_42:\n      tag_44\n      jump\t// in\n    tag_41:\n      stop\n        /* \"contracts/PrizeManager.sol\":369:395  uint256 public middlePrize */\n    tag_11:\n      tag_45\n      tag_46\n      jump\t// in\n    tag_45:\n      mload(0x40)\n      tag_47\n      swap2\n      swap1\n      tag_21\n      jump\t// in\n    tag_47:\n      mload(0x40)\n      dup1\n      swap2\n      sub\n      swap1\n      return\n        /* \"contracts/PrizeManager.sol\":452:480  uint256 public ownerDividend */\n    tag_12:\n      tag_48\n      tag_49\n      jump\t// in\n    tag_48:\n      mload(0x40)\n      tag_50\n      swap2\n      swap1\n      tag_21\n      jump\t// in\n    tag_50:\n      mload(0x40)\n      dup1\n      swap2\n      sub\n      swap1\n      return\n        /* \"contracts/PrizeManager.sol\":564:594  uint256 public prizeScale = 10 */\n    tag_13:\n      tag_51\n      tag_52\n      jump\t// in\n    tag_51:\n      mload(0x40)\n      tag_53\n      swap2\n      swap1\n      tag_21\n      jump\t// in\n    tag_53:\n      mload(0x40)\n      dup1\n      swap2\n      sub\n      swap1\n      return\n        /* \"contracts/PrizeManager.sol\":684:728  bool public distributeOwnerDividends = false */\n    tag_14:\n      tag_54\n      tag_55\n      jump\t// in\n    tag_54:\n      mload(0x40)\n      tag_56\n      swap2\n      swap1\n      tag_28\n      jump\t// in\n    tag_56:\n      mload(0x40)\n      dup1\n      swap2\n      sub\n      swap1\n      return\n        /* \"@openzeppelin/contracts/access/Ownable.sol\":2543:2758  function transferOwnership(address newOwner) public virtual onlyOwner {... */\n    tag_15:\n      tag_57\n      0x04\n      dup1\n      calldatasize\n      sub\n      dup2\n      add\n      swap1\n      tag_58\n      swap2\n      swap1\n      tag_59\n      jump\t// in\n    tag_58:\n      tag_60\n      jump\t// in\n    tag_57:\n      stop\n        /* \"contracts/PrizeManager.sol\":306:331  uint256 public superPrize */\n    tag_19:\n      sload(0x01)\n      dup2\n      jump\t// out\n        /* \"contracts/PrizeManager.sol\":487:519  uint256 public developerDividend */\n    tag_23:\n      sload(0x06)\n      dup2\n      jump\t// out\n        /* \"contracts/PrizeManager.sol\":735:783  bool public distributeDeveloperDividends = false */\n    tag_26:\n      0x09\n      0x01\n      swap1\n      sload\n      swap1\n      0x0100\n      exp\n      swap1\n      div\n      0xff\n      and\n      dup2\n      jump\t// out\n        /* \"contracts/PrizeManager.sol\":402:425  uint256 public lowPrize */\n    tag_30:\n      sload(0x04)\n      dup2\n      jump\t// out\n        /* \"@openzeppelin/contracts/access/Ownable.sol\":2293:2394  function renounceOwnership() public virtual onlyOwner {... */\n    tag_33:\n        /* \"@openzeppelin/contracts/access/Ownable.sol\":1531:1544  _checkOwner() */\n      tag_62\n        /* \"@openzeppelin/contracts/access/Ownable.sol\":1531:1542  _checkOwner */\n      tag_63\n        /* \"@openzeppelin/contracts/access/Ownable.sol\":1531:1544  _checkOwner() */\n      jump\t// in\n    tag_62:\n        /* \"@openzeppelin/contracts/access/Ownable.sol\":2357:2387  _transferOwnership(address(0)) */\n      tag_65\n        /* \"@openzeppelin/contracts/access/Ownable.sol\":2384:2385  0 */\n      0x00\n        /* \"@openzeppelin/contracts/access/Ownable.sol\":2357:2375  _transferOwnership */\n      tag_66\n        /* \"@openzeppelin/contracts/access/Ownable.sol\":2357:2387  _transferOwnership(address(0)) */\n      jump\t// in\n    tag_65:\n        /* \"@openzeppelin/contracts/access/Ownable.sol\":2293:2394  function renounceOwnership() public virtual onlyOwner {... */\n      jump\t// out\n        /* \"contracts/PrizeManager.sol\":338:362  uint256 public highPrize */\n    tag_35:\n      sload(0x02)\n      dup2\n      jump\t// out\n        /* \"@openzeppelin/contracts/access/Ownable.sol\":1638:1723  function owner() public view virtual returns (address) {... */\n    tag_38:\n        /* \"@openzeppelin/contracts/access/Ownable.sol\":1684:1691  address */\n      0x00\n        /* \"@openzeppelin/contracts/access/Ownable.sol\":1710:1716  _owner */\n      0x00\n      0x00\n      swap1\n      sload\n      swap1\n      0x0100\n      exp\n      swap1\n      div\n      0xffffffffffffffffffffffffffffffffffffffff\n      and\n        /* \"@openzeppelin/contracts/access/Ownable.sol\":1703:1716  return _owner */\n      swap1\n      pop\n        /* \"@openzeppelin/contracts/access/Ownable.sol\":1638:1723  function owner() public view virtual returns (address) {... */\n      swap1\n      jump\t// out\n        /* \"contracts/PrizeManager.sol\":1566:2423  function updatePrizePools(uint256 profits) external onlyOwner {... */\n    tag_44:\n        /* \"@openzeppelin/contracts/access/Ownable.sol\":1531:1544  _checkOwner() */\n      tag_69\n        /* \"@openzeppelin/contracts/access/Ownable.sol\":1531:1542  _checkOwner */\n      tag_63\n        /* \"@openzeppelin/contracts/access/Ownable.sol\":1531:1544  _checkOwner() */\n      jump\t// in\n    tag_69:\n        /* \"contracts/PrizeManager.sol\":1657:1658  0 */\n      0x00\n        /* \"contracts/PrizeManager.sol\":1647:1654  profits */\n      dup2\n        /* \"contracts/PrizeManager.sol\":1647:1658  profits > 0 */\n      gt\n        /* \"contracts/PrizeManager.sol\":1639:1687  require(profits > 0, \"No profits to distribute\") */\n      tag_71\n      jumpi\n      mload(0x40)\n      0x08c379a000000000000000000000000000000000000000000000000000000000\n      dup2\n      mstore\n      0x04\n      add\n      tag_72\n      swap1\n      tag_73\n      jump\t// in\n    tag_72:\n      mload(0x40)\n      dup1\n      swap2\n      sub\n      swap1\n      revert\n    tag_71:\n        /* \"contracts/PrizeManager.sol\":1700:1718  uint256 prizeShare */\n      0x00\n        /* \"contracts/PrizeManager.sol\":1738:1741  100 */\n      0x64\n        /* \"contracts/PrizeManager.sol\":1732:1734  50 */\n      0x32\n        /* \"contracts/PrizeManager.sol\":1722:1729  profits */\n      dup4\n        /* \"contracts/PrizeManager.sol\":1722:1734  profits * 50 */\n      tag_74\n      swap2\n      swap1\n      tag_75\n      jump\t// in\n    tag_74:\n        /* \"contracts/PrizeManager.sol\":1721:1741  (profits * 50) / 100 */\n      tag_76\n      swap2\n      swap1\n      tag_77\n      jump\t// in\n    tag_76:\n        /* \"contracts/PrizeManager.sol\":1700:1741  uint256 prizeShare = (profits * 50) / 100 */\n      swap1\n      pop\n        /* \"contracts/PrizeManager.sol\":1775:1796  uint256 dividendShare */\n      0x00\n        /* \"contracts/PrizeManager.sol\":1815:1818  100 */\n      0x64\n        /* \"contracts/PrizeManager.sol\":1810:1811  5 */\n      0x05\n        /* \"contracts/PrizeManager.sol\":1800:1807  profits */\n      dup5\n        /* \"contracts/PrizeManager.sol\":1800:1811  profits * 5 */\n      tag_78\n      swap2\n      swap1\n      tag_75\n      jump\t// in\n    tag_78:\n        /* \"contracts/PrizeManager.sol\":1799:1818  (profits * 5) / 100 */\n      tag_79\n      swap2\n      swap1\n      tag_77\n      jump\t// in\n    tag_79:\n        /* \"contracts/PrizeManager.sol\":1775:1818  uint256 dividendShare = (profits * 5) / 100 */\n      swap1\n      pop\n        /* \"contracts/PrizeManager.sol\":1920:1923  100 */\n      0x64\n        /* \"contracts/PrizeManager.sol\":1914:1916  10 */\n      0x0a\n        /* \"contracts/PrizeManager.sol\":1901:1911  prizeShare */\n      dup4\n        /* \"contracts/PrizeManager.sol\":1901:1916  prizeShare * 10 */\n      tag_80\n      swap2\n      swap1\n      tag_75\n      jump\t// in\n    tag_80:\n        /* \"contracts/PrizeManager.sol\":1900:1923  (prizeShare * 10) / 100 */\n      tag_81\n      swap2\n      swap1\n      tag_77\n      jump\t// in\n    tag_81:\n        /* \"contracts/PrizeManager.sol\":1886:1896  superPrize */\n      0x01\n      0x00\n        /* \"contracts/PrizeManager.sol\":1886:1923  superPrize += (prizeShare * 10) / 100 */\n      dup3\n      dup3\n      sload\n      tag_82\n      swap2\n      swap1\n      tag_83\n      jump\t// in\n    tag_82:\n      swap3\n      pop\n      pop\n      dup2\n      swap1\n      sstore\n      pop\n        /* \"contracts/PrizeManager.sol\":1989:1992  100 */\n      0x64\n        /* \"contracts/PrizeManager.sol\":1983:1985  10 */\n      0x0a\n        /* \"contracts/PrizeManager.sol\":1970:1980  prizeShare */\n      dup4\n        /* \"contracts/PrizeManager.sol\":1970:1985  prizeShare * 10 */\n      tag_84\n      swap2\n      swap1\n      tag_75\n      jump\t// in\n    tag_84:\n        /* \"contracts/PrizeManager.sol\":1969:1992  (prizeShare * 10) / 100 */\n      tag_85\n      swap2\n      swap1\n      tag_77\n      jump\t// in\n    tag_85:\n        /* \"contracts/PrizeManager.sol\":1956:1965  highPrize */\n      0x02\n      0x00\n        /* \"contracts/PrizeManager.sol\":1956:1992  highPrize += (prizeShare * 10) / 100 */\n      dup3\n      dup3\n      sload\n      tag_86\n      swap2\n      swap1\n      tag_83\n      jump\t// in\n    tag_86:\n      swap3\n      pop\n      pop\n      dup2\n      swap1\n      sstore\n      pop\n        /* \"contracts/PrizeManager.sol\":2059:2062  100 */\n      0x64\n        /* \"contracts/PrizeManager.sol\":2053:2055  10 */\n      0x0a\n        /* \"contracts/PrizeManager.sol\":2040:2050  prizeShare */\n      dup4\n        /* \"contracts/PrizeManager.sol\":2040:2055  prizeShare * 10 */\n      tag_87\n      swap2\n      swap1\n      tag_75\n      jump\t// in\n    tag_87:\n        /* \"contracts/PrizeManager.sol\":2039:2062  (prizeShare * 10) / 100 */\n      tag_88\n      swap2\n      swap1\n      tag_77\n      jump\t// in\n    tag_88:\n        /* \"contracts/PrizeManager.sol\":2024:2035  middlePrize */\n      0x03\n      0x00\n        /* \"contracts/PrizeManager.sol\":2024:2062  middlePrize += (prizeShare * 10) / 100 */\n      dup3\n      dup3\n      sload\n      tag_89\n      swap2\n      swap1\n      tag_83\n      jump\t// in\n    tag_89:\n      swap3\n      pop\n      pop\n      dup2\n      swap1\n      sstore\n      pop\n        /* \"contracts/PrizeManager.sol\":2128:2131  100 */\n      0x64\n        /* \"contracts/PrizeManager.sol\":2122:2124  10 */\n      0x0a\n        /* \"contracts/PrizeManager.sol\":2109:2119  prizeShare */\n      dup4\n        /* \"contracts/PrizeManager.sol\":2109:2124  prizeShare * 10 */\n      tag_90\n      swap2\n      swap1\n      tag_75\n      jump\t// in\n    tag_90:\n        /* \"contracts/PrizeManager.sol\":2108:2131  (prizeShare * 10) / 100 */\n      tag_91\n      swap2\n      swap1\n      tag_77\n      jump\t// in\n    tag_91:\n        /* \"contracts/PrizeManager.sol\":2096:2104  lowPrize */\n      0x04\n      0x00\n        /* \"contracts/PrizeManager.sol\":2096:2131  lowPrize += (prizeShare * 10) / 100 */\n      dup3\n      dup3\n      sload\n      tag_92\n      swap2\n      swap1\n      tag_83\n      jump\t// in\n    tag_92:\n      swap3\n      pop\n      pop\n      dup2\n      swap1\n      sstore\n      pop\n        /* \"contracts/PrizeManager.sol\":2210:2223  dividendShare */\n      dup1\n        /* \"contracts/PrizeManager.sol\":2193:2206  ownerDividend */\n      0x05\n      0x00\n        /* \"contracts/PrizeManager.sol\":2193:2223  ownerDividend += dividendShare */\n      dup3\n      dup3\n      sload\n      tag_93\n      swap2\n      swap1\n      tag_83\n      jump\t// in\n    tag_93:\n      swap3\n      pop\n      pop\n      dup2\n      swap1\n      sstore\n      pop\n        /* \"contracts/PrizeManager.sol\":2255:2268  dividendShare */\n      dup1\n        /* \"contracts/PrizeManager.sol\":2234:2251  developerDividend */\n      0x06\n      0x00\n        /* \"contracts/PrizeManager.sol\":2234:2268  developerDividend += dividendShare */\n      dup3\n      dup3\n      sload\n      tag_94\n      swap2\n      swap1\n      tag_83\n      jump\t// in\n    tag_94:\n      swap3\n      pop\n      pop\n      dup2\n      swap1\n      sstore\n      pop\n        /* \"contracts/PrizeManager.sol\":2286:2349  PrizePoolsUpdated(superPrize, highPrize, middlePrize, lowPrize) */\n      0xc1879f0406577975a5876a8db2ec1549e2a3194f0f01e15bde4292d6e4b36824\n        /* \"contracts/PrizeManager.sol\":2304:2314  superPrize */\n      sload(0x01)\n        /* \"contracts/PrizeManager.sol\":2316:2325  highPrize */\n      sload(0x02)\n        /* \"contracts/PrizeManager.sol\":2327:2338  middlePrize */\n      sload(0x03)\n        /* \"contracts/PrizeManager.sol\":2340:2348  lowPrize */\n      sload(0x04)\n        /* \"contracts/PrizeManager.sol\":2286:2349  PrizePoolsUpdated(superPrize, highPrize, middlePrize, lowPrize) */\n      mload(0x40)\n      tag_95\n      swap5\n      swap4\n      swap3\n      swap2\n      swap1\n      tag_96\n      jump\t// in\n    tag_95:\n      mload(0x40)\n      dup1\n      swap2\n      sub\n      swap1\n      log1\n        /* \"contracts/PrizeManager.sol\":2365:2415  DividendsUpdated(ownerDividend, developerDividend) */\n      0xbbb79063c8e8bcd7691a017e4e76c5de1369686b9f0674f946b0129041525b59\n        /* \"contracts/PrizeManager.sol\":2382:2395  ownerDividend */\n      sload(0x05)\n        /* \"contracts/PrizeManager.sol\":2397:2414  developerDividend */\n      sload(0x06)\n        /* \"contracts/PrizeManager.sol\":2365:2415  DividendsUpdated(ownerDividend, developerDividend) */\n      mload(0x40)\n      tag_97\n      swap3\n      swap2\n      swap1\n      tag_98\n      jump\t// in\n    tag_97:\n      mload(0x40)\n      dup1\n      swap2\n      sub\n      swap1\n      log1\n        /* \"contracts/PrizeManager.sol\":1628:2423  {... */\n      pop\n      pop\n        /* \"contracts/PrizeManager.sol\":1566:2423  function updatePrizePools(uint256 profits) external onlyOwner {... */\n      pop\n      jump\t// out\n        /* \"contracts/PrizeManager.sol\":369:395  uint256 public middlePrize */\n    tag_46:\n      sload(0x03)\n      dup2\n      jump\t// out\n        /* \"contracts/PrizeManager.sol\":452:480  uint256 public ownerDividend */\n    tag_49:\n      sload(0x05)\n      dup2\n      jump\t// out\n        /* \"contracts/PrizeManager.sol\":564:594  uint256 public prizeScale = 10 */\n    tag_52:\n      sload(0x07)\n      dup2\n      jump\t// out\n        /* \"contracts/PrizeManager.sol\":684:728  bool public distributeOwnerDividends = false */\n    tag_55:\n      0x09\n      0x00\n      swap1\n      sload\n      swap1\n      0x0100\n      exp\n      swap1\n      div\n      0xff\n      and\n      dup2\n      jump\t// out\n        /* \"@openzeppelin/contracts/access/Ownable.sol\":2543:2758  function transferOwnership(address newOwner) public virtual onlyOwner {... */\n    tag_60:\n        /* \"@openzeppelin/contracts/access/Ownable.sol\":1531:1544  _checkOwner() */\n      tag_100\n        /* \"@openzeppelin/contracts/access/Ownable.sol\":1531:1542  _checkOwner */\n      tag_63\n        /* \"@openzeppelin/contracts/access/Ownable.sol\":1531:1544  _checkOwner() */\n      jump\t// in\n    tag_100:\n        /* \"@openzeppelin/contracts/access/Ownable.sol\":2647:2648  0 */\n      0x00\n        /* \"@openzeppelin/contracts/access/Ownable.sol\":2627:2649  newOwner == address(0) */\n      0xffffffffffffffffffffffffffffffffffffffff\n      and\n        /* \"@openzeppelin/contracts/access/Ownable.sol\":2627:2635  newOwner */\n      dup2\n        /* \"@openzeppelin/contracts/access/Ownable.sol\":2627:2649  newOwner == address(0) */\n      0xffffffffffffffffffffffffffffffffffffffff\n      and\n      sub\n        /* \"@openzeppelin/contracts/access/Ownable.sol\":2623:2714  if (newOwner == address(0)) {... */\n      tag_102\n      jumpi\n        /* \"@openzeppelin/contracts/access/Ownable.sol\":2700:2701  0 */\n      0x00\n        /* \"@openzeppelin/contracts/access/Ownable.sol\":2672:2703  OwnableInvalidOwner(address(0)) */\n      mload(0x40)\n      0x1e4fbdf700000000000000000000000000000000000000000000000000000000\n      dup2\n      mstore\n      0x04\n      add\n      tag_103\n      swap2\n      swap1\n      tag_40\n      jump\t// in\n    tag_103:\n      mload(0x40)\n      dup1\n      swap2\n      sub\n      swap1\n      revert\n        /* \"@openzeppelin/contracts/access/Ownable.sol\":2623:2714  if (newOwner == address(0)) {... */\n    tag_102:\n        /* \"@openzeppelin/contracts/access/Ownable.sol\":2723:2751  _transferOwnership(newOwner) */\n      tag_104\n        /* \"@openzeppelin/contracts/access/Ownable.sol\":2742:2750  newOwner */\n      dup2\n        /* \"@openzeppelin/contracts/access/Ownable.sol\":2723:2741  _transferOwnership */\n      tag_66\n        /* \"@openzeppelin/contracts/access/Ownable.sol\":2723:2751  _transferOwnership(newOwner) */\n      jump\t// in\n    tag_104:\n        /* \"@openzeppelin/contracts/access/Ownable.sol\":2543:2758  function transferOwnership(address newOwner) public virtual onlyOwner {... */\n      pop\n      jump\t// out\n        /* \"@openzeppelin/contracts/access/Ownable.sol\":1796:1958  function _checkOwner() internal view virtual {... */\n    tag_63:\n        /* \"@openzeppelin/contracts/access/Ownable.sol\":1866:1878  _msgSender() */\n      tag_106\n        /* \"@openzeppelin/contracts/access/Ownable.sol\":1866:1876  _msgSender */\n      tag_107\n        /* \"@openzeppelin/contracts/access/Ownable.sol\":1866:1878  _msgSender() */\n      jump\t// in\n    tag_106:\n        /* \"@openzeppelin/contracts/access/Ownable.sol\":1855:1878  owner() != _msgSender() */\n      0xffffffffffffffffffffffffffffffffffffffff\n      and\n        /* \"@openzeppelin/contracts/access/Ownable.sol\":1855:1862  owner() */\n      tag_108\n        /* \"@openzeppelin/contracts/access/Ownable.sol\":1855:1860  owner */\n      tag_38\n        /* \"@openzeppelin/contracts/access/Ownable.sol\":1855:1862  owner() */\n      jump\t// in\n    tag_108:\n        /* \"@openzeppelin/contracts/access/Ownable.sol\":1855:1878  owner() != _msgSender() */\n      0xffffffffffffffffffffffffffffffffffffffff\n      and\n      eq\n        /* \"@openzeppelin/contracts/access/Ownable.sol\":1851:1952  if (owner() != _msgSender()) {... */\n      tag_109\n      jumpi\n        /* \"@openzeppelin/contracts/access/Ownable.sol\":1928:1940  _msgSender() */\n      tag_110\n        /* \"@openzeppelin/contracts/access/Ownable.sol\":1928:1938  _msgSender */\n      tag_107\n        /* \"@openzeppelin/contracts/access/Ownable.sol\":1928:1940  _msgSender() */\n      jump\t// in\n    tag_110:\n        /* \"@openzeppelin/contracts/access/Ownable.sol\":1901:1941  OwnableUnauthorizedAccount(_msgSender()) */\n      mload(0x40)\n      0x118cdaa700000000000000000000000000000000000000000000000000000000\n      dup2\n      mstore\n      0x04\n      add\n      tag_111\n      swap2\n      swap1\n      tag_40\n      jump\t// in\n    tag_111:\n      mload(0x40)\n      dup1\n      swap2\n      sub\n      swap1\n      revert\n        /* \"@openzeppelin/contracts/access/Ownable.sol\":1851:1952  if (owner() != _msgSender()) {... */\n    tag_109:\n        /* \"@openzeppelin/contracts/access/Ownable.sol\":1796:1958  function _checkOwner() internal view virtual {... */\n      jump\t// out\n        /* \"@openzeppelin/contracts/access/Ownable.sol\":2912:3099  function _transferOwnership(address newOwner) internal virtual {... */\n    tag_66:\n        /* \"@openzeppelin/contracts/access/Ownable.sol\":2985:3001  address oldOwner */\n      0x00\n        /* \"@openzeppelin/contracts/access/Ownable.sol\":3004:3010  _owner */\n      0x00\n      0x00\n      swap1\n      sload\n      swap1\n      0x0100\n      exp\n      swap1\n      div\n      0xffffffffffffffffffffffffffffffffffffffff\n      and\n        /* \"@openzeppelin/contracts/access/Ownable.sol\":2985:3010  address oldOwner = _owner */\n      swap1\n      pop\n        /* \"@openzeppelin/contracts/access/Ownable.sol\":3029:3037  newOwner */\n      dup2\n        /* \"@openzeppelin/contracts/access/Ownable.sol\":3020:3026  _owner */\n      0x00\n      0x00\n        /* \"@openzeppelin/contracts/access/Ownable.sol\":3020:3037  _owner = newOwner */\n      0x0100\n      exp\n      dup2\n      sload\n      dup2\n      0xffffffffffffffffffffffffffffffffffffffff\n      mul\n      not\n      and\n      swap1\n      dup4\n      0xffffffffffffffffffffffffffffffffffffffff\n      and\n      mul\n      or\n      swap1\n      sstore\n      pop\n        /* \"@openzeppelin/contracts/access/Ownable.sol\":3083:3091  newOwner */\n      dup2\n        /* \"@openzeppelin/contracts/access/Ownable.sol\":3052:3092  OwnershipTransferred(oldOwner, newOwner) */\n      0xffffffffffffffffffffffffffffffffffffffff\n      and\n        /* \"@openzeppelin/contracts/access/Ownable.sol\":3073:3081  oldOwner */\n      dup2\n        /* \"@openzeppelin/contracts/access/Ownable.sol\":3052:3092  OwnershipTransferred(oldOwner, newOwner) */\n      0xffffffffffffffffffffffffffffffffffffffff\n      and\n      0x8be0079c531659141344cd1fd0a4f28419497f9722a3daafe3b4186f6b6457e0\n      mload(0x40)\n      mload(0x40)\n      dup1\n      swap2\n      sub\n      swap1\n      log3\n        /* \"@openzeppelin/contracts/access/Ownable.sol\":2975:3099  {... */\n      pop\n        /* \"@openzeppelin/contracts/access/Ownable.sol\":2912:3099  function _transferOwnership(address newOwner) internal virtual {... */\n      pop\n      jump\t// out\n        /* \"@openzeppelin/contracts/utils/Context.sol\":656:752  function _msgSender() internal view virtual returns (address) {... */\n    tag_107:\n        /* \"@openzeppelin/contracts/utils/Context.sol\":709:716  address */\n      0x00\n        /* \"@openzeppelin/contracts/utils/Context.sol\":735:745  msg.sender */\n      caller\n        /* \"@openzeppelin/contracts/utils/Context.sol\":728:745  return msg.sender */\n      swap1\n      pop\n        /* \"@openzeppelin/contracts/utils/Context.sol\":656:752  function _msgSender() internal view virtual returns (address) {... */\n      swap1\n      jump\t// out\n        /* \"#utility.yul\":7:84   */\n    tag_114:\n        /* \"#utility.yul\":44:51   */\n      0x00\n        /* \"#utility.yul\":73:78   */\n      dup2\n        /* \"#utility.yul\":62:78   */\n      swap1\n      pop\n        /* \"#utility.yul\":7:84   */\n      swap2\n      swap1\n      pop\n      jump\t// out\n        /* \"#utility.yul\":90:208   */\n    tag_115:\n        /* \"#utility.yul\":177:201   */\n      tag_136\n        /* \"#utility.yul\":195:200   */\n      dup2\n        /* \"#utility.yul\":177:201   */\n      tag_114\n      jump\t// in\n    tag_136:\n        /* \"#utility.yul\":172:175   */\n      dup3\n        /* \"#utility.yul\":165:202   */\n      mstore\n        /* \"#utility.yul\":90:208   */\n      pop\n      pop\n      jump\t// out\n        /* \"#utility.yul\":214:436   */\n    tag_21:\n        /* \"#utility.yul\":307:311   */\n      0x00\n        /* \"#utility.yul\":345:347   */\n      0x20\n        /* \"#utility.yul\":334:343   */\n      dup3\n        /* \"#utility.yul\":330:348   */\n      add\n        /* \"#utility.yul\":322:348   */\n      swap1\n      pop\n        /* \"#utility.yul\":358:429   */\n      tag_138\n        /* \"#utility.yul\":426:427   */\n      0x00\n        /* \"#utility.yul\":415:424   */\n      dup4\n        /* \"#utility.yul\":411:428   */\n      add\n        /* \"#utility.yul\":402:408   */\n      dup5\n        /* \"#utility.yul\":358:429   */\n      tag_115\n      jump\t// in\n    tag_138:\n        /* \"#utility.yul\":214:436   */\n      swap3\n      swap2\n      pop\n      pop\n      jump\t// out\n        /* \"#utility.yul\":442:532   */\n    tag_116:\n        /* \"#utility.yul\":476:483   */\n      0x00\n        /* \"#utility.yul\":519:524   */\n      dup2\n        /* \"#utility.yul\":512:525   */\n      iszero\n        /* \"#utility.yul\":505:526   */\n      iszero\n        /* \"#utility.yul\":494:526   */\n      swap1\n      pop\n        /* \"#utility.yul\":442:532   */\n      swap2\n      swap1\n      pop\n      jump\t// out\n        /* \"#utility.yul\":538:647   */\n    tag_117:\n        /* \"#utility.yul\":619:640   */\n      tag_141\n        /* \"#utility.yul\":634:639   */\n      dup2\n        /* \"#utility.yul\":619:640   */\n      tag_116\n      jump\t// in\n    tag_141:\n        /* \"#utility.yul\":614:617   */\n      dup3\n        /* \"#utility.yul\":607:641   */\n      mstore\n        /* \"#utility.yul\":538:647   */\n      pop\n      pop\n      jump\t// out\n        /* \"#utility.yul\":653:863   */\n    tag_28:\n        /* \"#utility.yul\":740:744   */\n      0x00\n        /* \"#utility.yul\":778:780   */\n      0x20\n        /* \"#utility.yul\":767:776   */\n      dup3\n        /* \"#utility.yul\":763:781   */\n      add\n        /* \"#utility.yul\":755:781   */\n      swap1\n      pop\n        /* \"#utility.yul\":791:856   */\n      tag_143\n        /* \"#utility.yul\":853:854   */\n      0x00\n        /* \"#utility.yul\":842:851   */\n      dup4\n        /* \"#utility.yul\":838:855   */\n      add\n        /* \"#utility.yul\":829:835   */\n      dup5\n        /* \"#utility.yul\":791:856   */\n      tag_117\n      jump\t// in\n    tag_143:\n        /* \"#utility.yul\":653:863   */\n      swap3\n      swap2\n      pop\n      pop\n      jump\t// out\n        /* \"#utility.yul\":869:995   */\n    tag_118:\n        /* \"#utility.yul\":906:913   */\n      0x00\n        /* \"#utility.yul\":946:988   */\n      0xffffffffffffffffffffffffffffffffffffffff\n        /* \"#utility.yul\":939:944   */\n      dup3\n        /* \"#utility.yul\":935:989   */\n      and\n        /* \"#utility.yul\":924:989   */\n      swap1\n      pop\n        /* \"#utility.yul\":869:995   */\n      swap2\n      swap1\n      pop\n      jump\t// out\n        /* \"#utility.yul\":1001:1097   */\n    tag_119:\n        /* \"#utility.yul\":1038:1045   */\n      0x00\n        /* \"#utility.yul\":1067:1091   */\n      tag_146\n        /* \"#utility.yul\":1085:1090   */\n      dup3\n        /* \"#utility.yul\":1067:1091   */\n      tag_118\n      jump\t// in\n    tag_146:\n        /* \"#utility.yul\":1056:1091   */\n      swap1\n      pop\n        /* \"#utility.yul\":1001:1097   */\n      swap2\n      swap1\n      pop\n      jump\t// out\n        /* \"#utility.yul\":1103:1221   */\n    tag_120:\n        /* \"#utility.yul\":1190:1214   */\n      tag_148\n        /* \"#utility.yul\":1208:1213   */\n      dup2\n        /* \"#utility.yul\":1190:1214   */\n      tag_119\n      jump\t// in\n    tag_148:\n        /* \"#utility.yul\":1185:1188   */\n      dup3\n        /* \"#utility.yul\":1178:1215   */\n      mstore\n        /* \"#utility.yul\":1103:1221   */\n      pop\n      pop\n      jump\t// out\n        /* \"#utility.yul\":1227:1449   */\n    tag_40:\n        /* \"#utility.yul\":1320:1324   */\n      0x00\n        /* \"#utility.yul\":1358:1360   */\n      0x20\n        /* \"#utility.yul\":1347:1356   */\n      dup3\n        /* \"#utility.yul\":1343:1361   */\n      add\n        /* \"#utility.yul\":1335:1361   */\n      swap1\n      pop\n        /* \"#utility.yul\":1371:1442   */\n      tag_150\n        /* \"#utility.yul\":1439:1440   */\n      0x00\n        /* \"#utility.yul\":1428:1437   */\n      dup4\n        /* \"#utility.yul\":1424:1441   */\n      add\n        /* \"#utility.yul\":1415:1421   */\n      dup5\n        /* \"#utility.yul\":1371:1442   */\n      tag_120\n      jump\t// in\n    tag_150:\n        /* \"#utility.yul\":1227:1449   */\n      swap3\n      swap2\n      pop\n      pop\n      jump\t// out\n        /* \"#utility.yul\":1536:1653   */\n    tag_122:\n        /* \"#utility.yul\":1645:1646   */\n      0x00\n        /* \"#utility.yul\":1642:1643   */\n      0x00\n        /* \"#utility.yul\":1635:1647   */\n      revert\n        /* \"#utility.yul\":1782:1904   */\n    tag_124:\n        /* \"#utility.yul\":1855:1879   */\n      tag_155\n        /* \"#utility.yul\":1873:1878   */\n      dup2\n        /* \"#utility.yul\":1855:1879   */\n      tag_114\n      jump\t// in\n    tag_155:\n        /* \"#utility.yul\":1848:1853   */\n      dup2\n        /* \"#utility.yul\":1845:1880   */\n      eq\n        /* \"#utility.yul\":1835:1898   */\n      tag_156\n      jumpi\n        /* \"#utility.yul\":1894:1895   */\n      0x00\n        /* \"#utility.yul\":1891:1892   */\n      0x00\n        /* \"#utility.yul\":1884:1896   */\n      revert\n        /* \"#utility.yul\":1835:1898   */\n    tag_156:\n        /* \"#utility.yul\":1782:1904   */\n      pop\n      jump\t// out\n        /* \"#utility.yul\":1910:2049   */\n    tag_125:\n        /* \"#utility.yul\":1956:1961   */\n      0x00\n        /* \"#utility.yul\":1994:2000   */\n      dup2\n        /* \"#utility.yul\":1981:2001   */\n      calldataload\n        /* \"#utility.yul\":1972:2001   */\n      swap1\n      pop\n        /* \"#utility.yul\":2010:2043   */\n      tag_158\n        /* \"#utility.yul\":2037:2042   */\n      dup2\n        /* \"#utility.yul\":2010:2043   */\n      tag_124\n      jump\t// in\n    tag_158:\n        /* \"#utility.yul\":1910:2049   */\n      swap3\n      swap2\n      pop\n      pop\n      jump\t// out\n        /* \"#utility.yul\":2055:2384   */\n    tag_43:\n        /* \"#utility.yul\":2114:2120   */\n      0x00\n        /* \"#utility.yul\":2163:2165   */\n      0x20\n        /* \"#utility.yul\":2151:2160   */\n      dup3\n        /* \"#utility.yul\":2142:2149   */\n      dup5\n        /* \"#utility.yul\":2138:2161   */\n      sub\n        /* \"#utility.yul\":2134:2166   */\n      slt\n        /* \"#utility.yul\":2131:2250   */\n      iszero\n      tag_160\n      jumpi\n        /* \"#utility.yul\":2169:2248   */\n      tag_161\n      tag_122\n      jump\t// in\n    tag_161:\n        /* \"#utility.yul\":2131:2250   */\n    tag_160:\n        /* \"#utility.yul\":2289:2290   */\n      0x00\n        /* \"#utility.yul\":2314:2367   */\n      tag_162\n        /* \"#utility.yul\":2359:2366   */\n      dup5\n        /* \"#utility.yul\":2350:2356   */\n      dup3\n        /* \"#utility.yul\":2339:2348   */\n      dup6\n        /* \"#utility.yul\":2335:2357   */\n      add\n        /* \"#utility.yul\":2314:2367   */\n      tag_125\n      jump\t// in\n    tag_162:\n        /* \"#utility.yul\":2304:2367   */\n      swap2\n      pop\n        /* \"#utility.yul\":2260:2377   */\n      pop\n        /* \"#utility.yul\":2055:2384   */\n      swap3\n      swap2\n      pop\n      pop\n      jump\t// out\n        /* \"#utility.yul\":2390:2512   */\n    tag_126:\n        /* \"#utility.yul\":2463:2487   */\n      tag_164\n        /* \"#utility.yul\":2481:2486   */\n      dup2\n        /* \"#utility.yul\":2463:2487   */\n      tag_119\n      jump\t// in\n    tag_164:\n        /* \"#utility.yul\":2456:2461   */\n      dup2\n        /* \"#utility.yul\":2453:2488   */\n      eq\n        /* \"#utility.yul\":2443:2506   */\n      tag_165\n      jumpi\n        /* \"#utility.yul\":2502:2503   */\n      0x00\n        /* \"#utility.yul\":2499:2500   */\n      0x00\n        /* \"#utility.yul\":2492:2504   */\n      revert\n        /* \"#utility.yul\":2443:2506   */\n    tag_165:\n        /* \"#utility.yul\":2390:2512   */\n      pop\n      jump\t// out\n        /* \"#utility.yul\":2518:2657   */\n    tag_127:\n        /* \"#utility.yul\":2564:2569   */\n      0x00\n        /* \"#utility.yul\":2602:2608   */\n      dup2\n        /* \"#utility.yul\":2589:2609   */\n      calldataload\n        /* \"#utility.yul\":2580:2609   */\n      swap1\n      pop\n        /* \"#utility.yul\":2618:2651   */\n      tag_167\n        /* \"#utility.yul\":2645:2650   */\n      dup2\n        /* \"#utility.yul\":2618:2651   */\n      tag_126\n      jump\t// in\n    tag_167:\n        /* \"#utility.yul\":2518:2657   */\n      swap3\n      swap2\n      pop\n      pop\n      jump\t// out\n        /* \"#utility.yul\":2663:2992   */\n    tag_59:\n        /* \"#utility.yul\":2722:2728   */\n      0x00\n        /* \"#utility.yul\":2771:2773   */\n      0x20\n        /* \"#utility.yul\":2759:2768   */\n      dup3\n        /* \"#utility.yul\":2750:2757   */\n      dup5\n        /* \"#utility.yul\":2746:2769   */\n      sub\n        /* \"#utility.yul\":2742:2774   */\n      slt\n        /* \"#utility.yul\":2739:2858   */\n      iszero\n      tag_169\n      jumpi\n        /* \"#utility.yul\":2777:2856   */\n      tag_170\n      tag_122\n      jump\t// in\n    tag_170:\n        /* \"#utility.yul\":2739:2858   */\n    tag_169:\n        /* \"#utility.yul\":2897:2898   */\n      0x00\n        /* \"#utility.yul\":2922:2975   */\n      tag_171\n        /* \"#utility.yul\":2967:2974   */\n      dup5\n        /* \"#utility.yul\":2958:2964   */\n      dup3\n        /* \"#utility.yul\":2947:2956   */\n      dup6\n        /* \"#utility.yul\":2943:2965   */\n      add\n        /* \"#utility.yul\":2922:2975   */\n      tag_127\n      jump\t// in\n    tag_171:\n        /* \"#utility.yul\":2912:2975   */\n      swap2\n      pop\n        /* \"#utility.yul\":2868:2985   */\n      pop\n        /* \"#utility.yul\":2663:2992   */\n      swap3\n      swap2\n      pop\n      pop\n      jump\t// out\n        /* \"#utility.yul\":2998:3167   */\n    tag_128:\n        /* \"#utility.yul\":3082:3093   */\n      0x00\n        /* \"#utility.yul\":3116:3122   */\n      dup3\n        /* \"#utility.yul\":3111:3114   */\n      dup3\n        /* \"#utility.yul\":3104:3123   */\n      mstore\n        /* \"#utility.yul\":3156:3160   */\n      0x20\n        /* \"#utility.yul\":3151:3154   */\n      dup3\n        /* \"#utility.yul\":3147:3161   */\n      add\n        /* \"#utility.yul\":3132:3161   */\n      swap1\n      pop\n        /* \"#utility.yul\":2998:3167   */\n      swap3\n      swap2\n      pop\n      pop\n      jump\t// out\n        /* \"#utility.yul\":3173:3347   */\n    tag_129:\n        /* \"#utility.yul\":3313:3339   */\n      0x4e6f2070726f6669747320746f20646973747269627574650000000000000000\n        /* \"#utility.yul\":3309:3310   */\n      0x00\n        /* \"#utility.yul\":3301:3307   */\n      dup3\n        /* \"#utility.yul\":3297:3311   */\n      add\n        /* \"#utility.yul\":3290:3340   */\n      mstore\n        /* \"#utility.yul\":3173:3347   */\n      pop\n      jump\t// out\n        /* \"#utility.yul\":3353:3719   */\n    tag_130:\n        /* \"#utility.yul\":3495:3498   */\n      0x00\n        /* \"#utility.yul\":3516:3583   */\n      tag_175\n        /* \"#utility.yul\":3580:3582   */\n      0x18\n        /* \"#utility.yul\":3575:3578   */\n      dup4\n        /* \"#utility.yul\":3516:3583   */\n      tag_128\n      jump\t// in\n    tag_175:\n        /* \"#utility.yul\":3509:3583   */\n      swap2\n      pop\n        /* \"#utility.yul\":3592:3685   */\n      tag_176\n        /* \"#utility.yul\":3681:3684   */\n      dup3\n        /* \"#utility.yul\":3592:3685   */\n      tag_129\n      jump\t// in\n    tag_176:\n        /* \"#utility.yul\":3710:3712   */\n      0x20\n        /* \"#utility.yul\":3705:3708   */\n      dup3\n        /* \"#utility.yul\":3701:3713   */\n      add\n        /* \"#utility.yul\":3694:3713   */\n      swap1\n      pop\n        /* \"#utility.yul\":3353:3719   */\n      swap2\n      swap1\n      pop\n      jump\t// out\n        /* \"#utility.yul\":3725:4144   */\n    tag_73:\n        /* \"#utility.yul\":3891:3895   */\n      0x00\n        /* \"#utility.yul\":3929:3931   */\n      0x20\n        /* \"#utility.yul\":3918:3927   */\n      dup3\n        /* \"#utility.yul\":3914:3932   */\n      add\n        /* \"#utility.yul\":3906:3932   */\n      swap1\n      pop\n        /* \"#utility.yul\":3978:3987   */\n      dup2\n        /* \"#utility.yul\":3972:3976   */\n      dup2\n        /* \"#utility.yul\":3968:3988   */\n      sub\n        /* \"#utility.yul\":3964:3965   */\n      0x00\n        /* \"#utility.yul\":3953:3962   */\n      dup4\n        /* \"#utility.yul\":3949:3966   */\n      add\n        /* \"#utility.yul\":3942:3989   */\n      mstore\n        /* \"#utility.yul\":4006:4137   */\n      tag_178\n        /* \"#utility.yul\":4132:4136   */\n      dup2\n        /* \"#utility.yul\":4006:4137   */\n      tag_130\n      jump\t// in\n    tag_178:\n        /* \"#utility.yul\":3998:4137   */\n      swap1\n      pop\n        /* \"#utility.yul\":3725:4144   */\n      swap2\n      swap1\n      pop\n      jump\t// out\n        /* \"#utility.yul\":4150:4330   */\n    tag_131:\n        /* \"#utility.yul\":4198:4275   */\n      0x4e487b7100000000000000000000000000000000000000000000000000000000\n        /* \"#utility.yul\":4195:4196   */\n      0x00\n        /* \"#utility.yul\":4188:4276   */\n      mstore\n        /* \"#utility.yul\":4295:4299   */\n      0x11\n        /* \"#utility.yul\":4292:4293   */\n      0x04\n        /* \"#utility.yul\":4285:4300   */\n      mstore\n        /* \"#utility.yul\":4319:4323   */\n      0x24\n        /* \"#utility.yul\":4316:4317   */\n      0x00\n        /* \"#utility.yul\":4309:4324   */\n      revert\n        /* \"#utility.yul\":4336:4746   */\n    tag_75:\n        /* \"#utility.yul\":4376:4383   */\n      0x00\n        /* \"#utility.yul\":4399:4419   */\n      tag_181\n        /* \"#utility.yul\":4417:4418   */\n      dup3\n        /* \"#utility.yul\":4399:4419   */\n      tag_114\n      jump\t// in\n    tag_181:\n        /* \"#utility.yul\":4394:4419   */\n      swap2\n      pop\n        /* \"#utility.yul\":4433:4453   */\n      tag_182\n        /* \"#utility.yul\":4451:4452   */\n      dup4\n        /* \"#utility.yul\":4433:4453   */\n      tag_114\n      jump\t// in\n    tag_182:\n        /* \"#utility.yul\":4428:4453   */\n      swap3\n      pop\n        /* \"#utility.yul\":4488:4489   */\n      dup3\n        /* \"#utility.yul\":4485:4486   */\n      dup3\n        /* \"#utility.yul\":4481:4490   */\n      mul\n        /* \"#utility.yul\":4510:4540   */\n      tag_183\n        /* \"#utility.yul\":4528:4539   */\n      dup2\n        /* \"#utility.yul\":4510:4540   */\n      tag_114\n      jump\t// in\n    tag_183:\n        /* \"#utility.yul\":4499:4540   */\n      swap2\n      pop\n        /* \"#utility.yul\":4689:4690   */\n      dup3\n        /* \"#utility.yul\":4680:4687   */\n      dup3\n        /* \"#utility.yul\":4676:4691   */\n      div\n        /* \"#utility.yul\":4673:4674   */\n      dup5\n        /* \"#utility.yul\":4670:4692   */\n      eq\n        /* \"#utility.yul\":4650:4651   */\n      dup4\n        /* \"#utility.yul\":4643:4652   */\n      iszero\n        /* \"#utility.yul\":4623:4706   */\n      or\n        /* \"#utility.yul\":4600:4739   */\n      tag_184\n      jumpi\n        /* \"#utility.yul\":4719:4737   */\n      tag_185\n      tag_131\n      jump\t// in\n    tag_185:\n        /* \"#utility.yul\":4600:4739   */\n    tag_184:\n        /* \"#utility.yul\":4384:4746   */\n      pop\n        /* \"#utility.yul\":4336:4746   */\n      swap3\n      swap2\n      pop\n      pop\n      jump\t// out\n        /* \"#utility.yul\":4752:4932   */\n    tag_132:\n        /* \"#utility.yul\":4800:4877   */\n      0x4e487b7100000000000000000000000000000000000000000000000000000000\n        /* \"#utility.yul\":4797:4798   */\n      0x00\n        /* \"#utility.yul\":4790:4878   */\n      mstore\n        /* \"#utility.yul\":4897:4901   */\n      0x12\n        /* \"#utility.yul\":4894:4895   */\n      0x04\n        /* \"#utility.yul\":4887:4902   */\n      mstore\n        /* \"#utility.yul\":4921:4925   */\n      0x24\n        /* \"#utility.yul\":4918:4919   */\n      0x00\n        /* \"#utility.yul\":4911:4926   */\n      revert\n        /* \"#utility.yul\":4938:5123   */\n    tag_77:\n        /* \"#utility.yul\":4978:4979   */\n      0x00\n        /* \"#utility.yul\":4995:5015   */\n      tag_188\n        /* \"#utility.yul\":5013:5014   */\n      dup3\n        /* \"#utility.yul\":4995:5015   */\n      tag_114\n      jump\t// in\n    tag_188:\n        /* \"#utility.yul\":4990:5015   */\n      swap2\n      pop\n        /* \"#utility.yul\":5029:5049   */\n      tag_189\n        /* \"#utility.yul\":5047:5048   */\n      dup4\n        /* \"#utility.yul\":5029:5049   */\n      tag_114\n      jump\t// in\n    tag_189:\n        /* \"#utility.yul\":5024:5049   */\n      swap3\n      pop\n        /* \"#utility.yul\":5068:5069   */\n      dup3\n        /* \"#utility.yul\":5058:5093   */\n      tag_190\n      jumpi\n        /* \"#utility.yul\":5073:5091   */\n      tag_191\n      tag_132\n      jump\t// in\n    tag_191:\n        /* \"#utility.yul\":5058:5093   */\n    tag_190:\n        /* \"#utility.yul\":5115:5116   */\n      dup3\n        /* \"#utility.yul\":5112:5113   */\n      dup3\n        /* \"#utility.yul\":5108:5117   */\n      div\n        /* \"#utility.yul\":5103:5117   */\n      swap1\n      pop\n        /* \"#utility.yul\":4938:5123   */\n      swap3\n      swap2\n      pop\n      pop\n      jump\t// out\n        /* \"#utility.yul\":5129:5320   */\n    tag_83:\n        /* \"#utility.yul\":5169:5172   */\n      0x00\n        /* \"#utility.yul\":5188:5208   */\n      tag_193\n        /* \"#utility.yul\":5206:5207   */\n      dup3\n        /* \"#utility.yul\":5188:5208   */\n      tag_114\n      jump\t// in\n    tag_193:\n        /* \"#utility.yul\":5183:5208   */\n      swap2\n      pop\n        /* \"#utility.yul\":5222:5242   */\n      tag_194\n        /* \"#utility.yul\":5240:5241   */\n      dup4\n        /* \"#utility.yul\":5222:5242   */\n      tag_114\n      jump\t// in\n    tag_194:\n        /* \"#utility.yul\":5217:5242   */\n      swap3\n      pop\n        /* \"#utility.yul\":5265:5266   */\n      dup3\n        /* \"#utility.yul\":5262:5263   */\n      dup3\n        /* \"#utility.yul\":5258:5267   */\n      add\n        /* \"#utility.yul\":5251:5267   */\n      swap1\n      pop\n        /* \"#utility.yul\":5286:5289   */\n      dup1\n        /* \"#utility.yul\":5283:5284   */\n      dup3\n        /* \"#utility.yul\":5280:5290   */\n      gt\n        /* \"#utility.yul\":5277:5313   */\n      iszero\n      tag_195\n      jumpi\n        /* \"#utility.yul\":5293:5311   */\n      tag_196\n      tag_131\n      jump\t// in\n    tag_196:\n        /* \"#utility.yul\":5277:5313   */\n    tag_195:\n        /* \"#utility.yul\":5129:5320   */\n      swap3\n      swap2\n      pop\n      pop\n      jump\t// out\n        /* \"#utility.yul\":5326:5879   */\n    tag_96:\n        /* \"#utility.yul\":5503:5507   */\n      0x00\n        /* \"#utility.yul\":5541:5544   */\n      0x80\n        /* \"#utility.yul\":5530:5539   */\n      dup3\n        /* \"#utility.yul\":5526:5545   */\n      add\n        /* \"#utility.yul\":5518:5545   */\n      swap1\n      pop\n        /* \"#utility.yul\":5555:5626   */\n      tag_198\n        /* \"#utility.yul\":5623:5624   */\n      0x00\n        /* \"#utility.yul\":5612:5621   */\n      dup4\n        /* \"#utility.yul\":5608:5625   */\n      add\n        /* \"#utility.yul\":5599:5605   */\n      dup8\n        /* \"#utility.yul\":5555:5626   */\n      tag_115\n      jump\t// in\n    tag_198:\n        /* \"#utility.yul\":5636:5708   */\n      tag_199\n        /* \"#utility.yul\":5704:5706   */\n      0x20\n        /* \"#utility.yul\":5693:5702   */\n      dup4\n        /* \"#utility.yul\":5689:5707   */\n      add\n        /* \"#utility.yul\":5680:5686   */\n      dup7\n        /* \"#utility.yul\":5636:5708   */\n      tag_115\n      jump\t// in\n    tag_199:\n        /* \"#utility.yul\":5718:5790   */\n      tag_200\n        /* \"#utility.yul\":5786:5788   */\n      0x40\n        /* \"#utility.yul\":5775:5784   */\n      dup4\n        /* \"#utility.yul\":5771:5789   */\n      add\n        /* \"#utility.yul\":5762:5768   */\n      dup6\n        /* \"#utility.yul\":5718:5790   */\n      tag_115\n      jump\t// in\n    tag_200:\n        /* \"#utility.yul\":5800:5872   */\n      tag_201\n        /* \"#utility.yul\":5868:5870   */\n      0x60\n        /* \"#utility.yul\":5857:5866   */\n      dup4\n        /* \"#utility.yul\":5853:5871   */\n      add\n        /* \"#utility.yul\":5844:5850   */\n      dup5\n        /* \"#utility.yul\":5800:5872   */\n      tag_115\n      jump\t// in\n    tag_201:\n        /* \"#utility.yul\":5326:5879   */\n      swap6\n      swap5\n      pop\n      pop\n      pop\n      pop\n      pop\n      jump\t// out\n        /* \"#utility.yul\":5885:6217   */\n    tag_98:\n        /* \"#utility.yul\":6006:6010   */\n      0x00\n        /* \"#utility.yul\":6044:6046   */\n      0x40\n        /* \"#utility.yul\":6033:6042   */\n      dup3\n        /* \"#utility.yul\":6029:6047   */\n      add\n        /* \"#utility.yul\":6021:6047   */\n      swap1\n      pop\n        /* \"#utility.yul\":6057:6128   */\n      tag_203\n        /* \"#utility.yul\":6125:6126   */\n      0x00\n        /* \"#utility.yul\":6114:6123   */\n      dup4\n        /* \"#utility.yul\":6110:6127   */\n      add\n        /* \"#utility.yul\":6101:6107   */\n      dup6\n        /* \"#utility.yul\":6057:6128   */\n      tag_115\n      jump\t// in\n    tag_203:\n        /* \"#utility.yul\":6138:6210   */\n      tag_204\n        /* \"#utility.yul\":6206:6208   */\n      0x20\n        /* \"#utility.yul\":6195:6204   */\n      dup4\n        /* \"#utility.yul\":6191:6209   */\n      add\n        /* \"#utility.yul\":6182:6188   */\n      dup5\n        /* \"#utility.yul\":6138:6210   */\n      tag_115\n      jump\t// in\n    tag_204:\n        /* \"#utility.yul\":5885:6217   */\n      swap4\n      swap3\n      pop\n      pop\n      pop\n      jump\t// out\n\n    auxdata: 0xa264697066735822122035cdb0859405f0889828e6b0a33fbc1560db4a0dd2f352e132dc797beb62c34164736f6c634300081c0033\n}\n",
				"bytecode": {
					"linkReferences": {},
					"object": "6080604052600a6007555f60095f6101000a81548160ff0219169083151502179055505f600960016101000a81548160ff021916908315150217905550348015610047575f5ffd5b50604051610c83380380610c838339818101604052810190610069919061020f565b805f73ffffffffffffffffffffffffffffffffffffffff168173ffffffffffffffffffffffffffffffffffffffff16036100da575f6040517f1e4fbdf70000000000000000000000000000000000000000000000000000000081526004016100d19190610249565b60405180910390fd5b6100e9816100f060201b60201c565b5050610262565b5f5f5f9054906101000a900473ffffffffffffffffffffffffffffffffffffffff169050815f5f6101000a81548173ffffffffffffffffffffffffffffffffffffffff021916908373ffffffffffffffffffffffffffffffffffffffff1602179055508173ffffffffffffffffffffffffffffffffffffffff168173ffffffffffffffffffffffffffffffffffffffff167f8be0079c531659141344cd1fd0a4f28419497f9722a3daafe3b4186f6b6457e060405160405180910390a35050565b5f5ffd5b5f73ffffffffffffffffffffffffffffffffffffffff82169050919050565b5f6101de826101b5565b9050919050565b6101ee816101d4565b81146101f8575f5ffd5b50565b5f81519050610209816101e5565b92915050565b5f60208284031215610224576102236101b1565b5b5f610231848285016101fb565b91505092915050565b610243816101d4565b82525050565b5f60208201905061025c5f83018461023a565b92915050565b610a148061026f5f395ff3fe608060405234801561000f575f5ffd5b50600436106100cd575f3560e01c80638da5cb5b1161008a578063cb3ebec211610064578063cb3ebec2146101c9578063ed22723a146101e7578063f1a002b114610205578063f2fde38b14610223576100cd565b80638da5cb5b146101715780639ad97fa01461018f578063ab4d819f146101ab576100cd565b806311a1c8bd146100d15780631934c786146100ef5780631f63000f1461010d578063638ad71d1461012b578063715018a6146101495780637b820b8314610153575b5f5ffd5b6100d961023f565b6040516100e691906106ac565b60405180910390f35b6100f7610245565b60405161010491906106ac565b60405180910390f35b61011561024b565b60405161012291906106df565b60405180910390f35b61013361025e565b60405161014091906106ac565b60405180910390f35b610151610264565b005b61015b610277565b60405161016891906106ac565b60405180910390f35b61017961027d565b6040516101869190610737565b60405180910390f35b6101a960048036038101906101a4919061077e565b6102a4565b005b6101b361049d565b6040516101c091906106ac565b60405180910390f35b6101d16104a3565b6040516101de91906106ac565b60405180910390f35b6101ef6104a9565b6040516101fc91906106ac565b60405180910390f35b61020d6104af565b60405161021a91906106df565b60405180910390f35b61023d600480360381019061023891906107d3565b6104c1565b005b60015481565b60065481565b600960019054906101000a900460ff1681565b60045481565b61026c610545565b6102755f6105cc565b565b60025481565b5f5f5f9054906101000a900473ffffffffffffffffffffffffffffffffffffffff16905090565b6102ac610545565b5f81116102ee576040517f08c379a00000000000000000000000000000000000000000000000000000000081526004016102e590610858565b60405180910390fd5b5f60646032836102fe91906108a3565b6103089190610911565b90505f606460058461031a91906108a3565b6103249190610911565b90506064600a8361033591906108a3565b61033f9190610911565b60015f82825461034f9190610941565b925050819055506064600a8361036591906108a3565b61036f9190610911565b60025f82825461037f9190610941565b925050819055506064600a8361039591906108a3565b61039f9190610911565b60035f8282546103af9190610941565b925050819055506064600a836103c591906108a3565b6103cf9190610911565b60045f8282546103df9190610941565b925050819055508060055f8282546103f79190610941565b925050819055508060065f82825461040f9190610941565b925050819055507fc1879f0406577975a5876a8db2ec1549e2a3194f0f01e15bde4292d6e4b368246001546002546003546004546040516104539493929190610974565b60405180910390a17fbbb79063c8e8bcd7691a017e4e76c5de1369686b9f0674f946b0129041525b596005546006546040516104909291906109b7565b60405180910390a1505050565b60035481565b60055481565b60075481565b60095f9054906101000a900460ff1681565b6104c9610545565b5f73ffffffffffffffffffffffffffffffffffffffff168173ffffffffffffffffffffffffffffffffffffffff1603610539575f6040517f1e4fbdf70000000000000000000000000000000000000000000000000000000081526004016105309190610737565b60405180910390fd5b610542816105cc565b50565b61054d61068d565b73ffffffffffffffffffffffffffffffffffffffff1661056b61027d565b73ffffffffffffffffffffffffffffffffffffffff16146105ca5761058e61068d565b6040517f118cdaa70000000000000000000000000000000000000000000000000000000081526004016105c19190610737565b60405180910390fd5b565b5f5f5f9054906101000a900473ffffffffffffffffffffffffffffffffffffffff169050815f5f6101000a81548173ffffffffffffffffffffffffffffffffffffffff021916908373ffffffffffffffffffffffffffffffffffffffff1602179055508173ffffffffffffffffffffffffffffffffffffffff168173ffffffffffffffffffffffffffffffffffffffff167f8be0079c531659141344cd1fd0a4f28419497f9722a3daafe3b4186f6b6457e060405160405180910390a35050565b5f33905090565b5f819050919050565b6106a681610694565b82525050565b5f6020820190506106bf5f83018461069d565b92915050565b5f8115159050919050565b6106d9816106c5565b82525050565b5f6020820190506106f25f8301846106d0565b92915050565b5f73ffffffffffffffffffffffffffffffffffffffff82169050919050565b5f610721826106f8565b9050919050565b61073181610717565b82525050565b5f60208201905061074a5f830184610728565b92915050565b5f5ffd5b61075d81610694565b8114610767575f5ffd5b50565b5f8135905061077881610754565b92915050565b5f6020828403121561079357610792610750565b5b5f6107a08482850161076a565b91505092915050565b6107b281610717565b81146107bc575f5ffd5b50565b5f813590506107cd816107a9565b92915050565b5f602082840312156107e8576107e7610750565b5b5f6107f5848285016107bf565b91505092915050565b5f82825260208201905092915050565b7f4e6f2070726f6669747320746f206469737472696275746500000000000000005f82015250565b5f6108426018836107fe565b915061084d8261080e565b602082019050919050565b5f6020820190508181035f83015261086f81610836565b9050919050565b7f4e487b71000000000000000000000000000000000000000000000000000000005f52601160045260245ffd5b5f6108ad82610694565b91506108b883610694565b92508282026108c681610694565b915082820484148315176108dd576108dc610876565b5b5092915050565b7f4e487b71000000000000000000000000000000000000000000000000000000005f52601260045260245ffd5b5f61091b82610694565b915061092683610694565b925082610936576109356108e4565b5b828204905092915050565b5f61094b82610694565b915061095683610694565b925082820190508082111561096e5761096d610876565b5b92915050565b5f6080820190506109875f83018761069d565b610994602083018661069d565b6109a1604083018561069d565b6109ae606083018461069d565b95945050505050565b5f6040820190506109ca5f83018561069d565b6109d7602083018461069d565b939250505056fea264697066735822122035cdb0859405f0889828e6b0a33fbc1560db4a0dd2f352e132dc797beb62c34164736f6c634300081c0033",
					"opcodes": "PUSH1 0x80 PUSH1 0x40 MSTORE PUSH1 0xA PUSH1 0x7 SSTORE PUSH0 PUSH1 0x9 PUSH0 PUSH2 0x100 EXP DUP2 SLOAD DUP2 PUSH1 0xFF MUL NOT AND SWAP1 DUP4 ISZERO ISZERO MUL OR SWAP1 SSTORE POP PUSH0 PUSH1 0x9 PUSH1 0x1 PUSH2 0x100 EXP DUP2 SLOAD DUP2 PUSH1 0xFF MUL NOT AND SWAP1 DUP4 ISZERO ISZERO MUL OR SWAP1 SSTORE POP CALLVALUE DUP1 ISZERO PUSH2 0x47 JUMPI PUSH0 PUSH0 REVERT JUMPDEST POP PUSH1 0x40 MLOAD PUSH2 0xC83 CODESIZE SUB DUP1 PUSH2 0xC83 DUP4 CODECOPY DUP2 DUP2 ADD PUSH1 0x40 MSTORE DUP2 ADD SWAP1 PUSH2 0x69 SWAP2 SWAP1 PUSH2 0x20F JUMP JUMPDEST DUP1 PUSH0 PUSH20 0xFFFFFFFFFFFFFFFFFFFFFFFFFFFFFFFFFFFFFFFF AND DUP2 PUSH20 0xFFFFFFFFFFFFFFFFFFFFFFFFFFFFFFFFFFFFFFFF AND SUB PUSH2 0xDA JUMPI PUSH0 PUSH1 0x40 MLOAD PUSH32 0x1E4FBDF700000000000000000000000000000000000000000000000000000000 DUP2 MSTORE PUSH1 0x4 ADD PUSH2 0xD1 SWAP2 SWAP1 PUSH2 0x249 JUMP JUMPDEST PUSH1 0x40 MLOAD DUP1 SWAP2 SUB SWAP1 REVERT JUMPDEST PUSH2 0xE9 DUP2 PUSH2 0xF0 PUSH1 0x20 SHL PUSH1 0x20 SHR JUMP JUMPDEST POP POP PUSH2 0x262 JUMP JUMPDEST PUSH0 PUSH0 PUSH0 SWAP1 SLOAD SWAP1 PUSH2 0x100 EXP SWAP1 DIV PUSH20 0xFFFFFFFFFFFFFFFFFFFFFFFFFFFFFFFFFFFFFFFF AND SWAP1 POP DUP2 PUSH0 PUSH0 PUSH2 0x100 EXP DUP2 SLOAD DUP2 PUSH20 0xFFFFFFFFFFFFFFFFFFFFFFFFFFFFFFFFFFFFFFFF MUL NOT AND SWAP1 DUP4 PUSH20 0xFFFFFFFFFFFFFFFFFFFFFFFFFFFFFFFFFFFFFFFF AND MUL OR SWAP1 SSTORE POP DUP2 PUSH20 0xFFFFFFFFFFFFFFFFFFFFFFFFFFFFFFFFFFFFFFFF AND DUP2 PUSH20 0xFFFFFFFFFFFFFFFFFFFFFFFFFFFFFFFFFFFFFFFF AND PUSH32 0x8BE0079C531659141344CD1FD0A4F28419497F9722A3DAAFE3B4186F6B6457E0 PUSH1 0x40 MLOAD PUSH1 0x40 MLOAD DUP1 SWAP2 SUB SWAP1 LOG3 POP POP JUMP JUMPDEST PUSH0 PUSH0 REVERT JUMPDEST PUSH0 PUSH20 0xFFFFFFFFFFFFFFFFFFFFFFFFFFFFFFFFFFFFFFFF DUP3 AND SWAP1 POP SWAP2 SWAP1 POP JUMP JUMPDEST PUSH0 PUSH2 0x1DE DUP3 PUSH2 0x1B5 JUMP JUMPDEST SWAP1 POP SWAP2 SWAP1 POP JUMP JUMPDEST PUSH2 0x1EE DUP2 PUSH2 0x1D4 JUMP JUMPDEST DUP2 EQ PUSH2 0x1F8 JUMPI PUSH0 PUSH0 REVERT JUMPDEST POP JUMP JUMPDEST PUSH0 DUP2 MLOAD SWAP1 POP PUSH2 0x209 DUP2 PUSH2 0x1E5 JUMP JUMPDEST SWAP3 SWAP2 POP POP JUMP JUMPDEST PUSH0 PUSH1 0x20 DUP3 DUP5 SUB SLT ISZERO PUSH2 0x224 JUMPI PUSH2 0x223 PUSH2 0x1B1 JUMP JUMPDEST JUMPDEST PUSH0 PUSH2 0x231 DUP5 DUP3 DUP6 ADD PUSH2 0x1FB JUMP JUMPDEST SWAP2 POP POP SWAP3 SWAP2 POP POP JUMP JUMPDEST PUSH2 0x243 DUP2 PUSH2 0x1D4 JUMP JUMPDEST DUP3 MSTORE POP POP JUMP JUMPDEST PUSH0 PUSH1 0x20 DUP3 ADD SWAP1 POP PUSH2 0x25C PUSH0 DUP4 ADD DUP5 PUSH2 0x23A JUMP JUMPDEST SWAP3 SWAP2 POP POP JUMP JUMPDEST PUSH2 0xA14 DUP1 PUSH2 0x26F PUSH0 CODECOPY PUSH0 RETURN INVALID PUSH1 0x80 PUSH1 0x40 MSTORE CALLVALUE DUP1 ISZERO PUSH2 0xF JUMPI PUSH0 PUSH0 REVERT JUMPDEST POP PUSH1 0x4 CALLDATASIZE LT PUSH2 0xCD JUMPI PUSH0 CALLDATALOAD PUSH1 0xE0 SHR DUP1 PUSH4 0x8DA5CB5B GT PUSH2 0x8A JUMPI DUP1 PUSH4 0xCB3EBEC2 GT PUSH2 0x64 JUMPI DUP1 PUSH4 0xCB3EBEC2 EQ PUSH2 0x1C9 JUMPI DUP1 PUSH4 0xED22723A EQ PUSH2 0x1E7 JUMPI DUP1 PUSH4 0xF1A002B1 EQ PUSH2 0x205 JUMPI DUP1 PUSH4 0xF2FDE38B EQ PUSH2 0x223 JUMPI PUSH2 0xCD JUMP JUMPDEST DUP1 PUSH4 0x8DA5CB5B EQ PUSH2 0x171 JUMPI DUP1 PUSH4 0x9AD97FA0 EQ PUSH2 0x18F JUMPI DUP1 PUSH4 0xAB4D819F EQ PUSH2 0x1AB JUMPI PUSH2 0xCD JUMP JUMPDEST DUP1 PUSH4 0x11A1C8BD EQ PUSH2 0xD1 JUMPI DUP1 PUSH4 0x1934C786 EQ PUSH2 0xEF JUMPI DUP1 PUSH4 0x1F63000F EQ PUSH2 0x10D JUMPI DUP1 PUSH4 0x638AD71D EQ PUSH2 0x12B JUMPI DUP1 PUSH4 0x715018A6 EQ PUSH2 0x149 JUMPI DUP1 PUSH4 0x7B820B83 EQ PUSH2 0x153 JUMPI JUMPDEST PUSH0 PUSH0 REVERT JUMPDEST PUSH2 0xD9 PUSH2 0x23F JUMP JUMPDEST PUSH1 0x40 MLOAD PUSH2 0xE6 SWAP2 SWAP1 PUSH2 0x6AC JUMP JUMPDEST PUSH1 0x40 MLOAD DUP1 SWAP2 SUB SWAP1 RETURN JUMPDEST PUSH2 0xF7 PUSH2 0x245 JUMP JUMPDEST PUSH1 0x40 MLOAD PUSH2 0x104 SWAP2 SWAP1 PUSH2 0x6AC JUMP JUMPDEST PUSH1 0x40 MLOAD DUP1 SWAP2 SUB SWAP1 RETURN JUMPDEST PUSH2 0x115 PUSH2 0x24B JUMP JUMPDEST PUSH1 0x40 MLOAD PUSH2 0x122 SWAP2 SWAP1 PUSH2 0x6DF JUMP JUMPDEST PUSH1 0x40 MLOAD DUP1 SWAP2 SUB SWAP1 RETURN JUMPDEST PUSH2 0x133 PUSH2 0x25E JUMP JUMPDEST PUSH1 0x40 MLOAD PUSH2 0x140 SWAP2 SWAP1 PUSH2 0x6AC JUMP JUMPDEST PUSH1 0x40 MLOAD DUP1 SWAP2 SUB SWAP1 RETURN JUMPDEST PUSH2 0x151 PUSH2 0x264 JUMP JUMPDEST STOP JUMPDEST PUSH2 0x15B PUSH2 0x277 JUMP JUMPDEST PUSH1 0x40 MLOAD PUSH2 0x168 SWAP2 SWAP1 PUSH2 0x6AC JUMP JUMPDEST PUSH1 0x40 MLOAD DUP1 SWAP2 SUB SWAP1 RETURN JUMPDEST PUSH2 0x179 PUSH2 0x27D JUMP JUMPDEST PUSH1 0x40 MLOAD PUSH2 0x186 SWAP2 SWAP1 PUSH2 0x737 JUMP JUMPDEST PUSH1 0x40 MLOAD DUP1 SWAP2 SUB SWAP1 RETURN JUMPDEST PUSH2 0x1A9 PUSH1 0x4 DUP1 CALLDATASIZE SUB DUP2 ADD SWAP1 PUSH2 0x1A4 SWAP2 SWAP1 PUSH2 0x77E JUMP JUMPDEST PUSH2 0x2A4 JUMP JUMPDEST STOP JUMPDEST PUSH2 0x1B3 PUSH2 0x49D JUMP JUMPDEST PUSH1 0x40 MLOAD PUSH2 0x1C0 SWAP2 SWAP1 PUSH2 0x6AC JUMP JUMPDEST PUSH1 0x40 MLOAD DUP1 SWAP2 SUB SWAP1 RETURN JUMPDEST PUSH2 0x1D1 PUSH2 0x4A3 JUMP JUMPDEST PUSH1 0x40 MLOAD PUSH2 0x1DE SWAP2 SWAP1 PUSH2 0x6AC JUMP JUMPDEST PUSH1 0x40 MLOAD DUP1 SWAP2 SUB SWAP1 RETURN JUMPDEST PUSH2 0x1EF PUSH2 0x4A9 JUMP JUMPDEST PUSH1 0x40 MLOAD PUSH2 0x1FC SWAP2 SWAP1 PUSH2 0x6AC JUMP JUMPDEST PUSH1 0x40 MLOAD DUP1 SWAP2 SUB SWAP1 RETURN JUMPDEST PUSH2 0x20D PUSH2 0x4AF JUMP JUMPDEST PUSH1 0x40 MLOAD PUSH2 0x21A SWAP2 SWAP1 PUSH2 0x6DF JUMP JUMPDEST PUSH1 0x40 MLOAD DUP1 SWAP2 SUB SWAP1 RETURN JUMPDEST PUSH2 0x23D PUSH1 0x4 DUP1 CALLDATASIZE SUB DUP2 ADD SWAP1 PUSH2 0x238 SWAP2 SWAP1 PUSH2 0x7D3 JUMP JUMPDEST PUSH2 0x4C1 JUMP JUMPDEST STOP JUMPDEST PUSH1 0x1 SLOAD DUP2 JUMP JUMPDEST PUSH1 0x6 SLOAD DUP2 JUMP JUMPDEST PUSH1 0x9 PUSH1 0x1 SWAP1 SLOAD SWAP1 PUSH2 0x100 EXP SWAP1 DIV PUSH1 0xFF AND DUP2 JUMP JUMPDEST PUSH1 0x4 SLOAD DUP2 JUMP JUMPDEST PUSH2 0x26C PUSH2 0x545 JUMP JUMPDEST PUSH2 0x275 PUSH0 PUSH2 0x5CC JUMP JUMPDEST JUMP JUMPDEST PUSH1 0x2 SLOAD DUP2 JUMP JUMPDEST PUSH0 PUSH0 PUSH0 SWAP1 SLOAD SWAP1 PUSH2 0x100 EXP SWAP1 DIV PUSH20 0xFFFFFFFFFFFFFFFFFFFFFFFFFFFFFFFFFFFFFFFF AND SWAP1 POP SWAP1 JUMP JUMPDEST PUSH2 0x2AC PUSH2 0x545 JUMP JUMPDEST PUSH0 DUP2 GT PUSH2 0x2EE JUMPI PUSH1 0x40 MLOAD PUSH32 0x8C379A000000000000000000000000000000000000000000000000000000000 DUP2 MSTORE PUSH1 0x4 ADD PUSH2 0x2E5 SWAP1 PUSH2 0x858 JUMP JUMPDEST PUSH1 0x40 MLOAD DUP1 SWAP2 SUB SWAP1 REVERT JUMPDEST PUSH0 PUSH1 0x64 PUSH1 0x32 DUP4 PUSH2 0x2FE SWAP2 SWAP1 PUSH2 0x8A3 JUMP JUMPDEST PUSH2 0x308 SWAP2 SWAP1 PUSH2 0x911 JUMP JUMPDEST SWAP1 POP PUSH0 PUSH1 0x64 PUSH1 0x5 DUP5 PUSH2 0x31A SWAP2 SWAP1 PUSH2 0x8A3 JUMP JUMPDEST PUSH2 0x324 SWAP2 SWAP1 PUSH2 0x911 JUMP JUMPDEST SWAP1 POP PUSH1 0x64 PUSH1 0xA DUP4 PUSH2 0x335 SWAP2 SWAP1 PUSH2 0x8A3 JUMP JUMPDEST PUSH2 0x33F SWAP2 SWAP1 PUSH2 0x911 JUMP JUMPDEST PUSH1 0x1 PUSH0 DUP3 DUP3 SLOAD PUSH2 0x34F SWAP2 SWAP1 PUSH2 0x941 JUMP JUMPDEST SWAP3 POP POP DUP2 SWAP1 SSTORE POP PUSH1 0x64 PUSH1 0xA DUP4 PUSH2 0x365 SWAP2 SWAP1 PUSH2 0x8A3 JUMP JUMPDEST PUSH2 0x36F SWAP2 SWAP1 PUSH2 0x911 JUMP JUMPDEST PUSH1 0x2 PUSH0 DUP3 DUP3 SLOAD PUSH2 0x37F SWAP2 SWAP1 PUSH2 0x941 JUMP JUMPDEST SWAP3 POP POP DUP2 SWAP1 SSTORE POP PUSH1 0x64 PUSH1 0xA DUP4 PUSH2 0x395 SWAP2 SWAP1 PUSH2 0x8A3 JUMP JUMPDEST PUSH2 0x39F SWAP2 SWAP1 PUSH2 0x911 JUMP JUMPDEST PUSH1 0x3 PUSH0 DUP3 DUP3 SLOAD PUSH2 0x3AF SWAP2 SWAP1 PUSH2 0x941 JUMP JUMPDEST SWAP3 POP POP DUP2 SWAP1 SSTORE POP PUSH1 0x64 PUSH1 0xA DUP4 PUSH2 0x3C5 SWAP2 SWAP1 PUSH2 0x8A3 JUMP JUMPDEST PUSH2 0x3CF SWAP2 SWAP1 PUSH2 0x911 JUMP JUMPDEST PUSH1 0x4 PUSH0 DUP3 DUP3 SLOAD PUSH2 0x3DF SWAP2 SWAP1 PUSH2 0x941 JUMP JUMPDEST SWAP3 POP POP DUP2 SWAP1 SSTORE POP DUP1 PUSH1 0x5 PUSH0 DUP3 DUP3 SLOAD PUSH2 0x3F7 SWAP2 SWAP1 PUSH2 0x941 JUMP JUMPDEST SWAP3 POP POP DUP2 SWAP1 SSTORE POP DUP1 PUSH1 0x6 PUSH0 DUP3 DUP3 SLOAD PUSH2 0x40F SWAP2 SWAP1 PUSH2 0x941 JUMP JUMPDEST SWAP3 POP POP DUP2 SWAP1 SSTORE POP PUSH32 0xC1879F0406577975A5876A8DB2EC1549E2A3194F0F01E15BDE4292D6E4B36824 PUSH1 0x1 SLOAD PUSH1 0x2 SLOAD PUSH1 0x3 SLOAD PUSH1 0x4 SLOAD PUSH1 0x40 MLOAD PUSH2 0x453 SWAP5 SWAP4 SWAP3 SWAP2 SWAP1 PUSH2 0x974 JUMP JUMPDEST PUSH1 0x40 MLOAD DUP1 SWAP2 SUB SWAP1 LOG1 PUSH32 0xBBB79063C8E8BCD7691A017E4E76C5DE1369686B9F0674F946B0129041525B59 PUSH1 0x5 SLOAD PUSH1 0x6 SLOAD PUSH1 0x40 MLOAD PUSH2 0x490 SWAP3 SWAP2 SWAP1 PUSH2 0x9B7 JUMP JUMPDEST PUSH1 0x40 MLOAD DUP1 SWAP2 SUB SWAP1 LOG1 POP POP POP JUMP JUMPDEST PUSH1 0x3 SLOAD DUP2 JUMP JUMPDEST PUSH1 0x5 SLOAD DUP2 JUMP JUMPDEST PUSH1 0x7 SLOAD DUP2 JUMP JUMPDEST PUSH1 0x9 PUSH0 SWAP1 SLOAD SWAP1 PUSH2 0x100 EXP SWAP1 DIV PUSH1 0xFF AND DUP2 JUMP JUMPDEST PUSH2 0x4C9 PUSH2 0x545 JUMP JUMPDEST PUSH0 PUSH20 0xFFFFFFFFFFFFFFFFFFFFFFFFFFFFFFFFFFFFFFFF AND DUP2 PUSH20 0xFFFFFFFFFFFFFFFFFFFFFFFFFFFFFFFFFFFFFFFF AND SUB PUSH2 0x539 JUMPI PUSH0 PUSH1 0x40 MLOAD PUSH32 0x1E4FBDF700000000000000000000000000000000000000000000000000000000 DUP2 MSTORE PUSH1 0x4 ADD PUSH2 0x530 SWAP2 SWAP1 PUSH2 0x737 JUMP JUMPDEST PUSH1 0x40 MLOAD DUP1 SWAP2 SUB SWAP1 REVERT JUMPDEST PUSH2 0x542 DUP2 PUSH2 0x5CC JUMP JUMPDEST POP JUMP JUMPDEST PUSH2 0x54D PUSH2 0x68D JUMP JUMPDEST PUSH20 0xFFFFFFFFFFFFFFFFFFFFFFFFFFFFFFFFFFFFFFFF AND PUSH2 0x56B PUSH2 0x27D JUMP JUMPDEST PUSH20 0xFFFFFFFFFFFFFFFFFFFFFFFFFFFFFFFFFFFFFFFF AND EQ PUSH2 0x5CA JUMPI PUSH2 0x58E PUSH2 0x68D JUMP JUMPDEST PUSH1 0x40 MLOAD PUSH32 0x118CDAA700000000000000000000000000000000000000000000000000000000 DUP2 MSTORE PUSH1 0x4 ADD PUSH2 0x5C1 SWAP2 SWAP1 PUSH2 0x737 JUMP JUMPDEST PUSH1 0x40 MLOAD DUP1 SWAP2 SUB SWAP1 REVERT JUMPDEST JUMP JUMPDEST PUSH0 PUSH0 PUSH0 SWAP1 SLOAD SWAP1 PUSH2 0x100 EXP SWAP1 DIV PUSH20 0xFFFFFFFFFFFFFFFFFFFFFFFFFFFFFFFFFFFFFFFF AND SWAP1 POP DUP2 PUSH0 PUSH0 PUSH2 0x100 EXP DUP2 SLOAD DUP2 PUSH20 0xFFFFFFFFFFFFFFFFFFFFFFFFFFFFFFFFFFFFFFFF MUL NOT AND SWAP1 DUP4 PUSH20 0xFFFFFFFFFFFFFFFFFFFFFFFFFFFFFFFFFFFFFFFF AND MUL OR SWAP1 SSTORE POP DUP2 PUSH20 0xFFFFFFFFFFFFFFFFFFFFFFFFFFFFFFFFFFFFFFFF AND DUP2 PUSH20 0xFFFFFFFFFFFFFFFFFFFFFFFFFFFFFFFFFFFFFFFF AND PUSH32 0x8BE0079C531659141344CD1FD0A4F28419497F9722A3DAAFE3B4186F6B6457E0 PUSH1 0x40 MLOAD PUSH1 0x40 MLOAD DUP1 SWAP2 SUB SWAP1 LOG3 POP POP JUMP JUMPDEST PUSH0 CALLER SWAP1 POP SWAP1 JUMP JUMPDEST PUSH0 DUP2 SWAP1 POP SWAP2 SWAP1 POP JUMP JUMPDEST PUSH2 0x6A6 DUP2 PUSH2 0x694 JUMP JUMPDEST DUP3 MSTORE POP POP JUMP JUMPDEST PUSH0 PUSH1 0x20 DUP3 ADD SWAP1 POP PUSH2 0x6BF PUSH0 DUP4 ADD DUP5 PUSH2 0x69D JUMP JUMPDEST SWAP3 SWAP2 POP POP JUMP JUMPDEST PUSH0 DUP2 ISZERO ISZERO SWAP1 POP SWAP2 SWAP1 POP JUMP JUMPDEST PUSH2 0x6D9 DUP2 PUSH2 0x6C5 JUMP JUMPDEST DUP3 MSTORE POP POP JUMP JUMPDEST PUSH0 PUSH1 0x20 DUP3 ADD SWAP1 POP PUSH2 0x6F2 PUSH0 DUP4 ADD DUP5 PUSH2 0x6D0 JUMP JUMPDEST SWAP3 SWAP2 POP POP JUMP JUMPDEST PUSH0 PUSH20 0xFFFFFFFFFFFFFFFFFFFFFFFFFFFFFFFFFFFFFFFF DUP3 AND SWAP1 POP SWAP2 SWAP1 POP JUMP JUMPDEST PUSH0 PUSH2 0x721 DUP3 PUSH2 0x6F8 JUMP JUMPDEST SWAP1 POP SWAP2 SWAP1 POP JUMP JUMPDEST PUSH2 0x731 DUP2 PUSH2 0x717 JUMP JUMPDEST DUP3 MSTORE POP POP JUMP JUMPDEST PUSH0 PUSH1 0x20 DUP3 ADD SWAP1 POP PUSH2 0x74A PUSH0 DUP4 ADD DUP5 PUSH2 0x728 JUMP JUMPDEST SWAP3 SWAP2 POP POP JUMP JUMPDEST PUSH0 PUSH0 REVERT JUMPDEST PUSH2 0x75D DUP2 PUSH2 0x694 JUMP JUMPDEST DUP2 EQ PUSH2 0x767 JUMPI PUSH0 PUSH0 REVERT JUMPDEST POP JUMP JUMPDEST PUSH0 DUP2 CALLDATALOAD SWAP1 POP PUSH2 0x778 DUP2 PUSH2 0x754 JUMP JUMPDEST SWAP3 SWAP2 POP POP JUMP JUMPDEST PUSH0 PUSH1 0x20 DUP3 DUP5 SUB SLT ISZERO PUSH2 0x793 JUMPI PUSH2 0x792 PUSH2 0x750 JUMP JUMPDEST JUMPDEST PUSH0 PUSH2 0x7A0 DUP5 DUP3 DUP6 ADD PUSH2 0x76A JUMP JUMPDEST SWAP2 POP POP SWAP3 SWAP2 POP POP JUMP JUMPDEST PUSH2 0x7B2 DUP2 PUSH2 0x717 JUMP JUMPDEST DUP2 EQ PUSH2 0x7BC JUMPI PUSH0 PUSH0 REVERT JUMPDEST POP JUMP JUMPDEST PUSH0 DUP2 CALLDATALOAD SWAP1 POP PUSH2 0x7CD DUP2 PUSH2 0x7A9 JUMP JUMPDEST SWAP3 SWAP2 POP POP JUMP JUMPDEST PUSH0 PUSH1 0x20 DUP3 DUP5 SUB SLT ISZERO PUSH2 0x7E8 JUMPI PUSH2 0x7E7 PUSH2 0x750 JUMP JUMPDEST JUMPDEST PUSH0 PUSH2 0x7F5 DUP5 DUP3 DUP6 ADD PUSH2 0x7BF JUMP JUMPDEST SWAP2 POP POP SWAP3 SWAP2 POP POP JUMP JUMPDEST PUSH0 DUP3 DUP3 MSTORE PUSH1 0x20 DUP3 ADD SWAP1 POP SWAP3 SWAP2 POP POP JUMP JUMPDEST PUSH32 0x4E6F2070726F6669747320746F20646973747269627574650000000000000000 PUSH0 DUP3 ADD MSTORE POP JUMP JUMPDEST PUSH0 PUSH2 0x842 PUSH1 0x18 DUP4 PUSH2 0x7FE JUMP JUMPDEST SWAP2 POP PUSH2 0x84D DUP3 PUSH2 0x80E JUMP JUMPDEST PUSH1 0x20 DUP3 ADD SWAP1 POP SWAP2 SWAP1 POP JUMP JUMPDEST PUSH0 PUSH1 0x20 DUP3 ADD SWAP1 POP DUP2 DUP2 SUB PUSH0 DUP4 ADD MSTORE PUSH2 0x86F DUP2 PUSH2 0x836 JUMP JUMPDEST SWAP1 POP SWAP2 SWAP1 POP JUMP JUMPDEST PUSH32 0x4E487B7100000000000000000000000000000000000000000000000000000000 PUSH0 MSTORE PUSH1 0x11 PUSH1 0x4 MSTORE PUSH1 0x24 PUSH0 REVERT JUMPDEST PUSH0 PUSH2 0x8AD DUP3 PUSH2 0x694 JUMP JUMPDEST SWAP2 POP PUSH2 0x8B8 DUP4 PUSH2 0x694 JUMP JUMPDEST SWAP3 POP DUP3 DUP3 MUL PUSH2 0x8C6 DUP2 PUSH2 0x694 JUMP JUMPDEST SWAP2 POP DUP3 DUP3 DIV DUP5 EQ DUP4 ISZERO OR PUSH2 0x8DD JUMPI PUSH2 0x8DC PUSH2 0x876 JUMP JUMPDEST JUMPDEST POP SWAP3 SWAP2 POP POP JUMP JUMPDEST PUSH32 0x4E487B7100000000000000000000000000000000000000000000000000000000 PUSH0 MSTORE PUSH1 0x12 PUSH1 0x4 MSTORE PUSH1 0x24 PUSH0 REVERT JUMPDEST PUSH0 PUSH2 0x91B DUP3 PUSH2 0x694 JUMP JUMPDEST SWAP2 POP PUSH2 0x926 DUP4 PUSH2 0x694 JUMP JUMPDEST SWAP3 POP DUP3 PUSH2 0x936 JUMPI PUSH2 0x935 PUSH2 0x8E4 JUMP JUMPDEST JUMPDEST DUP3 DUP3 DIV SWAP1 POP SWAP3 SWAP2 POP POP JUMP JUMPDEST PUSH0 PUSH2 0x94B DUP3 PUSH2 0x694 JUMP JUMPDEST SWAP2 POP PUSH2 0x956 DUP4 PUSH2 0x694 JUMP JUMPDEST SWAP3 POP DUP3 DUP3 ADD SWAP1 POP DUP1 DUP3 GT ISZERO PUSH2 0x96E JUMPI PUSH2 0x96D PUSH2 0x876 JUMP JUMPDEST JUMPDEST SWAP3 SWAP2 POP POP JUMP JUMPDEST PUSH0 PUSH1 0x80 DUP3 ADD SWAP1 POP PUSH2 0x987 PUSH0 DUP4 ADD DUP8 PUSH2 0x69D JUMP JUMPDEST PUSH2 0x994 PUSH1 0x20 DUP4 ADD DUP7 PUSH2 0x69D JUMP JUMPDEST PUSH2 0x9A1 PUSH1 0x40 DUP4 ADD DUP6 PUSH2 0x69D JUMP JUMPDEST PUSH2 0x9AE PUSH1 0x60 DUP4 ADD DUP5 PUSH2 0x69D JUMP JUMPDEST SWAP6 SWAP5 POP POP POP POP POP JUMP JUMPDEST PUSH0 PUSH1 0x40 DUP3 ADD SWAP1 POP PUSH2 0x9CA PUSH0 DUP4 ADD DUP6 PUSH2 0x69D JUMP JUMPDEST PUSH2 0x9D7 PUSH1 0x20 DUP4 ADD DUP5 PUSH2 0x69D JUMP JUMPDEST SWAP4 SWAP3 POP POP POP JUMP INVALID LOG2 PUSH5 0x6970667358 0x22 SLT KECCAK256 CALLDATALOAD 0xCD 0xB0 DUP6 SWAP5 SDIV CREATE DUP9 SWAP9 0x28 0xE6 0xB0 LOG3 EXTCODEHASH 0xBC ISZERO PUSH1 0xDB BLOBBASEFEE 0xD 0xD2 RETURN MSTORE 0xE1 ORIGIN 0xDC PUSH26 0x7BEB62C34164736F6C634300081C003300000000000000000000 "
				},
				"gasEstimates": {
					"creation": {
						"codeDepositCost": "516000",
						"executionCost": "infinite",
						"totalCost": "infinite"
					},
					"external": {
						"developerDividend()": "2448",
						"distributeDeveloperDividends()": "2562",
						"distributeOwnerDividends()": "2532",
						"highPrize()": "2536",
						"lowPrize()": "2492",
						"middlePrize()": "2492",
						"owner()": "2537",
						"ownerDividend()": "2447",
						"prizeScale()": "2469",
						"renounceOwnership()": "infinite",
						"superPrize()": "2426",
						"transferOwnership(address)": "infinite",
						"updatePrizePools(uint256)": "infinite"
					}
				},
				"methodIdentifiers": {
					"developerDividend()": "1934c786",
					"distributeDeveloperDividends()": "1f63000f",
					"distributeOwnerDividends()": "f1a002b1",
					"highPrize()": "7b820b83",
					"lowPrize()": "638ad71d",
					"middlePrize()": "ab4d819f",
					"owner()": "8da5cb5b",
					"ownerDividend()": "cb3ebec2",
					"prizeScale()": "ed22723a",
					"renounceOwnership()": "715018a6",
					"superPrize()": "11a1c8bd",
					"transferOwnership(address)": "f2fde38b",
					"updatePrizePools(uint256)": "9ad97fa0"
				}
			},
			"storageLayout": {
				"storage": [
					{
						"astId": 8,
						"contract": "contracts/PrizeManager.sol:PrizeManager",
						"label": "_owner",
						"offset": 0,
						"slot": "0",
						"type": "t_address"
					},
					{
						"astId": 185,
						"contract": "contracts/PrizeManager.sol:PrizeManager",
						"label": "superPrize",
						"offset": 0,
						"slot": "1",
						"type": "t_uint256"
					},
					{
						"astId": 187,
						"contract": "contracts/PrizeManager.sol:PrizeManager",
						"label": "highPrize",
						"offset": 0,
						"slot": "2",
						"type": "t_uint256"
					},
					{
						"astId": 189,
						"contract": "contracts/PrizeManager.sol:PrizeManager",
						"label": "middlePrize",
						"offset": 0,
						"slot": "3",
						"type": "t_uint256"
					},
					{
						"astId": 191,
						"contract": "contracts/PrizeManager.sol:PrizeManager",
						"label": "lowPrize",
						"offset": 0,
						"slot": "4",
						"type": "t_uint256"
					},
					{
						"astId": 193,
						"contract": "contracts/PrizeManager.sol:PrizeManager",
						"label": "ownerDividend",
						"offset": 0,
						"slot": "5",
						"type": "t_uint256"
					},
					{
						"astId": 195,
						"contract": "contracts/PrizeManager.sol:PrizeManager",
						"label": "developerDividend",
						"offset": 0,
						"slot": "6",
						"type": "t_uint256"
					},
					{
						"astId": 198,
						"contract": "contracts/PrizeManager.sol:PrizeManager",
						"label": "prizeScale",
						"offset": 0,
						"slot": "7",
						"type": "t_uint256"
					},
					{
						"astId": 200,
						"contract": "contracts/PrizeManager.sol:PrizeManager",
						"label": "lastPrizeScaleUpdate",
						"offset": 0,
						"slot": "8",
						"type": "t_uint256"
					},
					{
						"astId": 203,
						"contract": "contracts/PrizeManager.sol:PrizeManager",
						"label": "distributeOwnerDividends",
						"offset": 0,
						"slot": "9",
						"type": "t_bool"
					},
					{
						"astId": 206,
						"contract": "contracts/PrizeManager.sol:PrizeManager",
						"label": "distributeDeveloperDividends",
						"offset": 1,
						"slot": "9",
						"type": "t_bool"
					}
				],
				"types": {
					"t_address": {
						"encoding": "inplace",
						"label": "address",
						"numberOfBytes": "20"
					},
					"t_bool": {
						"encoding": "inplace",
						"label": "bool",
						"numberOfBytes": "1"
					},
					"t_uint256": {
						"encoding": "inplace",
						"label": "uint256",
						"numberOfBytes": "32"
					}
				}
			},
			"userdoc": {
				"kind": "user",
				"methods": {
					"constructor": {
						"notice": "Constructor to initialize the contract with an initial owner."
					},
					"updatePrizePools(uint256)": {
						"notice": "Updates the prize pools and dividends based on weekly profits."
					}
				},
				"version": 1
			}
		}
	}
}