{
	"contracts/VaultManager.sol": {
		"StablecoinVaultManager": {
			"abi": [
				{
					"inputs": [
						{
							"internalType": "address",
							"name": "_prizeManager",
							"type": "address"
						},
						{
							"internalType": "address",
							"name": "initialOwner",
							"type": "address"
						}
					],
					"stateMutability": "nonpayable",
					"type": "constructor"
				},
				{
					"inputs": [
						{
							"internalType": "address",
							"name": "owner",
							"type": "address"
						}
					],
					"name": "OwnableInvalidOwner",
					"type": "error"
				},
				{
					"inputs": [
						{
							"internalType": "address",
							"name": "account",
							"type": "address"
						}
					],
					"name": "OwnableUnauthorizedAccount",
					"type": "error"
				},
				{
					"anonymous": false,
					"inputs": [
						{
							"indexed": true,
							"internalType": "address",
							"name": "previousOwner",
							"type": "address"
						},
						{
							"indexed": true,
							"internalType": "address",
							"name": "newOwner",
							"type": "address"
						}
					],
					"name": "OwnershipTransferred",
					"type": "event"
				},
				{
					"inputs": [],
					"name": "calculateWeeklyProfits",
					"outputs": [],
					"stateMutability": "nonpayable",
					"type": "function"
				},
				{
					"inputs": [],
					"name": "owner",
					"outputs": [
						{
							"internalType": "address",
							"name": "",
							"type": "address"
						}
					],
					"stateMutability": "view",
					"type": "function"
				},
				{
					"inputs": [],
					"name": "prizeManager",
					"outputs": [
						{
							"internalType": "address",
							"name": "",
							"type": "address"
						}
					],
					"stateMutability": "view",
					"type": "function"
				},
				{
					"inputs": [],
					"name": "renounceOwnership",
					"outputs": [],
					"stateMutability": "nonpayable",
					"type": "function"
				},
				{
					"inputs": [
						{
							"internalType": "address",
							"name": "newOwner",
							"type": "address"
						}
					],
					"name": "transferOwnership",
					"outputs": [],
					"stateMutability": "nonpayable",
					"type": "function"
				}
			],
			"devdoc": {
				"errors": {
					"OwnableInvalidOwner(address)": [
						{
							"details": "The owner is not a valid owner account. (eg. `address(0)`)"
						}
					],
					"OwnableUnauthorizedAccount(address)": [
						{
							"details": "The caller account is not authorized to perform an operation."
						}
					]
				},
				"kind": "dev",
				"methods": {
					"owner()": {
						"details": "Returns the address of the current owner."
					},
					"renounceOwnership()": {
						"details": "Leaves the contract without owner. It will not be possible to call `onlyOwner` functions. Can only be called by the current owner. NOTE: Renouncing ownership will leave the contract without an owner, thereby disabling any functionality that is only available to the owner."
					},
					"transferOwnership(address)": {
						"details": "Transfers ownership of the contract to a new account (`newOwner`). Can only be called by the current owner."
					}
				},
				"version": 1
			},
			"evm": {
				"assembly": "    /* \"contracts/VaultManager.sol\":776:1443  contract StablecoinVaultManager is Ownable {... */\n  mstore(0x40, 0x80)\n    /* \"contracts/VaultManager.sol\":862:1067  constructor(address _prizeManager, address initialOwner) Ownable(initialOwner) {... */\n  callvalue\n  dup1\n  iszero\n  tag_1\n  jumpi\n  revert(0x00, 0x00)\ntag_1:\n  pop\n  mload(0x40)\n  sub(codesize, bytecodeSize)\n  dup1\n  bytecodeSize\n  dup4\n  codecopy\n  dup2\n  dup2\n  add\n  0x40\n  mstore\n  dup2\n  add\n  swap1\n  tag_2\n  swap2\n  swap1\n  tag_3\n  jump\t// in\ntag_2:\n    /* \"contracts/VaultManager.sol\":927:939  initialOwner */\n  dup1\n    /* \"@openzeppelin/contracts/access/Ownable.sol\":1297:1298  0 */\n  0x00\n    /* \"@openzeppelin/contracts/access/Ownable.sol\":1273:1299  initialOwner == address(0) */\n  0xffffffffffffffffffffffffffffffffffffffff\n  and\n    /* \"@openzeppelin/contracts/access/Ownable.sol\":1273:1285  initialOwner */\n  dup2\n    /* \"@openzeppelin/contracts/access/Ownable.sol\":1273:1299  initialOwner == address(0) */\n  0xffffffffffffffffffffffffffffffffffffffff\n  and\n  sub\n    /* \"@openzeppelin/contracts/access/Ownable.sol\":1269:1364  if (initialOwner == address(0)) {... */\n  tag_7\n  jumpi\n    /* \"@openzeppelin/contracts/access/Ownable.sol\":1350:1351  0 */\n  0x00\n    /* \"@openzeppelin/contracts/access/Ownable.sol\":1322:1353  OwnableInvalidOwner(address(0)) */\n  mload(0x40)\n  0x1e4fbdf700000000000000000000000000000000000000000000000000000000\n  dup2\n  mstore\n  0x04\n  add\n  tag_8\n  swap2\n  swap1\n  tag_9\n  jump\t// in\ntag_8:\n  mload(0x40)\n  dup1\n  swap2\n  sub\n  swap1\n  revert\n    /* \"@openzeppelin/contracts/access/Ownable.sol\":1269:1364  if (initialOwner == address(0)) {... */\ntag_7:\n    /* \"@openzeppelin/contracts/access/Ownable.sol\":1373:1405  _transferOwnership(initialOwner) */\n  tag_10\n    /* \"@openzeppelin/contracts/access/Ownable.sol\":1392:1404  initialOwner */\n  dup2\n    /* \"@openzeppelin/contracts/access/Ownable.sol\":1373:1391  _transferOwnership */\n  shl(0x20, tag_11)\n    /* \"@openzeppelin/contracts/access/Ownable.sol\":1373:1405  _transferOwnership(initialOwner) */\n  0x20\n  shr\n  jump\t// in\ntag_10:\n    /* \"@openzeppelin/contracts/access/Ownable.sol\":1225:1412  constructor(address initialOwner) {... */\n  pop\n    /* \"contracts/VaultManager.sol\":985:986  0 */\n  0x00\n    /* \"contracts/VaultManager.sol\":960:987  _prizeManager != address(0) */\n  0xffffffffffffffffffffffffffffffffffffffff\n  and\n    /* \"contracts/VaultManager.sol\":960:973  _prizeManager */\n  dup3\n    /* \"contracts/VaultManager.sol\":960:987  _prizeManager != address(0) */\n  0xffffffffffffffffffffffffffffffffffffffff\n  and\n  sub\n    /* \"contracts/VaultManager.sol\":952:1020  require(_prizeManager != address(0), \"Invalid PrizeManager address\") */\n  tag_13\n  jumpi\n  mload(0x40)\n  0x08c379a000000000000000000000000000000000000000000000000000000000\n  dup2\n  mstore\n  0x04\n  add\n  tag_14\n  swap1\n  tag_15\n  jump\t// in\ntag_14:\n  mload(0x40)\n  dup1\n  swap2\n  sub\n  swap1\n  revert\ntag_13:\n    /* \"contracts/VaultManager.sol\":1046:1059  _prizeManager */\n  dup2\n    /* \"contracts/VaultManager.sol\":1031:1043  prizeManager */\n  0x01\n  0x00\n    /* \"contracts/VaultManager.sol\":1031:1059  prizeManager = _prizeManager */\n  0x0100\n  exp\n  dup2\n  sload\n  dup2\n  0xffffffffffffffffffffffffffffffffffffffff\n  mul\n  not\n  and\n  swap1\n  dup4\n  0xffffffffffffffffffffffffffffffffffffffff\n  and\n  mul\n  or\n  swap1\n  sstore\n  pop\n    /* \"contracts/VaultManager.sol\":862:1067  constructor(address _prizeManager, address initialOwner) Ownable(initialOwner) {... */\n  pop\n  pop\n    /* \"contracts/VaultManager.sol\":776:1443  contract StablecoinVaultManager is Ownable {... */\n  jump(tag_16)\n    /* \"@openzeppelin/contracts/access/Ownable.sol\":2912:3099  function _transferOwnership(address newOwner) internal virtual {... */\ntag_11:\n    /* \"@openzeppelin/contracts/access/Ownable.sol\":2985:3001  address oldOwner */\n  0x00\n    /* \"@openzeppelin/contracts/access/Ownable.sol\":3004:3010  _owner */\n  0x00\n  0x00\n  swap1\n  sload\n  swap1\n  0x0100\n  exp\n  swap1\n  div\n  0xffffffffffffffffffffffffffffffffffffffff\n  and\n    /* \"@openzeppelin/contracts/access/Ownable.sol\":2985:3010  address oldOwner = _owner */\n  swap1\n  pop\n    /* \"@openzeppelin/contracts/access/Ownable.sol\":3029:3037  newOwner */\n  dup2\n    /* \"@openzeppelin/contracts/access/Ownable.sol\":3020:3026  _owner */\n  0x00\n  0x00\n    /* \"@openzeppelin/contracts/access/Ownable.sol\":3020:3037  _owner = newOwner */\n  0x0100\n  exp\n  dup2\n  sload\n  dup2\n  0xffffffffffffffffffffffffffffffffffffffff\n  mul\n  not\n  and\n  swap1\n  dup4\n  0xffffffffffffffffffffffffffffffffffffffff\n  and\n  mul\n  or\n  swap1\n  sstore\n  pop\n    /* \"@openzeppelin/contracts/access/Ownable.sol\":3083:3091  newOwner */\n  dup2\n    /* \"@openzeppelin/contracts/access/Ownable.sol\":3052:3092  OwnershipTransferred(oldOwner, newOwner) */\n  0xffffffffffffffffffffffffffffffffffffffff\n  and\n    /* \"@openzeppelin/contracts/access/Ownable.sol\":3073:3081  oldOwner */\n  dup2\n    /* \"@openzeppelin/contracts/access/Ownable.sol\":3052:3092  OwnershipTransferred(oldOwner, newOwner) */\n  0xffffffffffffffffffffffffffffffffffffffff\n  and\n  0x8be0079c531659141344cd1fd0a4f28419497f9722a3daafe3b4186f6b6457e0\n  mload(0x40)\n  mload(0x40)\n  dup1\n  swap2\n  sub\n  swap1\n  log3\n    /* \"@openzeppelin/contracts/access/Ownable.sol\":2975:3099  {... */\n  pop\n    /* \"@openzeppelin/contracts/access/Ownable.sol\":2912:3099  function _transferOwnership(address newOwner) internal virtual {... */\n  pop\n  jump\t// out\n    /* \"#utility.yul\":88:205   */\ntag_19:\n    /* \"#utility.yul\":197:198   */\n  0x00\n    /* \"#utility.yul\":194:195   */\n  0x00\n    /* \"#utility.yul\":187:199   */\n  revert\n    /* \"#utility.yul\":334:460   */\ntag_21:\n    /* \"#utility.yul\":371:378   */\n  0x00\n    /* \"#utility.yul\":411:453   */\n  0xffffffffffffffffffffffffffffffffffffffff\n    /* \"#utility.yul\":404:409   */\n  dup3\n    /* \"#utility.yul\":400:454   */\n  and\n    /* \"#utility.yul\":389:454   */\n  swap1\n  pop\n    /* \"#utility.yul\":334:460   */\n  swap2\n  swap1\n  pop\n  jump\t// out\n    /* \"#utility.yul\":466:562   */\ntag_22:\n    /* \"#utility.yul\":503:510   */\n  0x00\n    /* \"#utility.yul\":532:556   */\n  tag_35\n    /* \"#utility.yul\":550:555   */\n  dup3\n    /* \"#utility.yul\":532:556   */\n  tag_21\n  jump\t// in\ntag_35:\n    /* \"#utility.yul\":521:556   */\n  swap1\n  pop\n    /* \"#utility.yul\":466:562   */\n  swap2\n  swap1\n  pop\n  jump\t// out\n    /* \"#utility.yul\":568:690   */\ntag_23:\n    /* \"#utility.yul\":641:665   */\n  tag_37\n    /* \"#utility.yul\":659:664   */\n  dup2\n    /* \"#utility.yul\":641:665   */\n  tag_22\n  jump\t// in\ntag_37:\n    /* \"#utility.yul\":634:639   */\n  dup2\n    /* \"#utility.yul\":631:666   */\n  eq\n    /* \"#utility.yul\":621:684   */\n  tag_38\n  jumpi\n    /* \"#utility.yul\":680:681   */\n  0x00\n    /* \"#utility.yul\":677:678   */\n  0x00\n    /* \"#utility.yul\":670:682   */\n  revert\n    /* \"#utility.yul\":621:684   */\ntag_38:\n    /* \"#utility.yul\":568:690   */\n  pop\n  jump\t// out\n    /* \"#utility.yul\":696:839   */\ntag_24:\n    /* \"#utility.yul\":753:758   */\n  0x00\n    /* \"#utility.yul\":784:790   */\n  dup2\n    /* \"#utility.yul\":778:791   */\n  mload\n    /* \"#utility.yul\":769:791   */\n  swap1\n  pop\n    /* \"#utility.yul\":800:833   */\n  tag_40\n    /* \"#utility.yul\":827:832   */\n  dup2\n    /* \"#utility.yul\":800:833   */\n  tag_23\n  jump\t// in\ntag_40:\n    /* \"#utility.yul\":696:839   */\n  swap3\n  swap2\n  pop\n  pop\n  jump\t// out\n    /* \"#utility.yul\":845:1352   */\ntag_3:\n    /* \"#utility.yul\":924:930   */\n  0x00\n    /* \"#utility.yul\":932:938   */\n  0x00\n    /* \"#utility.yul\":981:983   */\n  0x40\n    /* \"#utility.yul\":969:978   */\n  dup4\n    /* \"#utility.yul\":960:967   */\n  dup6\n    /* \"#utility.yul\":956:979   */\n  sub\n    /* \"#utility.yul\":952:984   */\n  slt\n    /* \"#utility.yul\":949:1068   */\n  iszero\n  tag_42\n  jumpi\n    /* \"#utility.yul\":987:1066   */\n  tag_43\n  tag_19\n  jump\t// in\ntag_43:\n    /* \"#utility.yul\":949:1068   */\ntag_42:\n    /* \"#utility.yul\":1107:1108   */\n  0x00\n    /* \"#utility.yul\":1132:1196   */\n  tag_44\n    /* \"#utility.yul\":1188:1195   */\n  dup6\n    /* \"#utility.yul\":1179:1185   */\n  dup3\n    /* \"#utility.yul\":1168:1177   */\n  dup7\n    /* \"#utility.yul\":1164:1186   */\n  add\n    /* \"#utility.yul\":1132:1196   */\n  tag_24\n  jump\t// in\ntag_44:\n    /* \"#utility.yul\":1122:1196   */\n  swap3\n  pop\n    /* \"#utility.yul\":1078:1206   */\n  pop\n    /* \"#utility.yul\":1245:1247   */\n  0x20\n    /* \"#utility.yul\":1271:1335   */\n  tag_45\n    /* \"#utility.yul\":1327:1334   */\n  dup6\n    /* \"#utility.yul\":1318:1324   */\n  dup3\n    /* \"#utility.yul\":1307:1316   */\n  dup7\n    /* \"#utility.yul\":1303:1325   */\n  add\n    /* \"#utility.yul\":1271:1335   */\n  tag_24\n  jump\t// in\ntag_45:\n    /* \"#utility.yul\":1261:1335   */\n  swap2\n  pop\n    /* \"#utility.yul\":1216:1345   */\n  pop\n    /* \"#utility.yul\":845:1352   */\n  swap3\n  pop\n  swap3\n  swap1\n  pop\n  jump\t// out\n    /* \"#utility.yul\":1358:1476   */\ntag_25:\n    /* \"#utility.yul\":1445:1469   */\n  tag_47\n    /* \"#utility.yul\":1463:1468   */\n  dup2\n    /* \"#utility.yul\":1445:1469   */\n  tag_22\n  jump\t// in\ntag_47:\n    /* \"#utility.yul\":1440:1443   */\n  dup3\n    /* \"#utility.yul\":1433:1470   */\n  mstore\n    /* \"#utility.yul\":1358:1476   */\n  pop\n  pop\n  jump\t// out\n    /* \"#utility.yul\":1482:1704   */\ntag_9:\n    /* \"#utility.yul\":1575:1579   */\n  0x00\n    /* \"#utility.yul\":1613:1615   */\n  0x20\n    /* \"#utility.yul\":1602:1611   */\n  dup3\n    /* \"#utility.yul\":1598:1616   */\n  add\n    /* \"#utility.yul\":1590:1616   */\n  swap1\n  pop\n    /* \"#utility.yul\":1626:1697   */\n  tag_49\n    /* \"#utility.yul\":1694:1695   */\n  0x00\n    /* \"#utility.yul\":1683:1692   */\n  dup4\n    /* \"#utility.yul\":1679:1696   */\n  add\n    /* \"#utility.yul\":1670:1676   */\n  dup5\n    /* \"#utility.yul\":1626:1697   */\n  tag_25\n  jump\t// in\ntag_49:\n    /* \"#utility.yul\":1482:1704   */\n  swap3\n  swap2\n  pop\n  pop\n  jump\t// out\n    /* \"#utility.yul\":1710:1879   */\ntag_26:\n    /* \"#utility.yul\":1794:1805   */\n  0x00\n    /* \"#utility.yul\":1828:1834   */\n  dup3\n    /* \"#utility.yul\":1823:1826   */\n  dup3\n    /* \"#utility.yul\":1816:1835   */\n  mstore\n    /* \"#utility.yul\":1868:1872   */\n  0x20\n    /* \"#utility.yul\":1863:1866   */\n  dup3\n    /* \"#utility.yul\":1859:1873   */\n  add\n    /* \"#utility.yul\":1844:1873   */\n  swap1\n  pop\n    /* \"#utility.yul\":1710:1879   */\n  swap3\n  swap2\n  pop\n  pop\n  jump\t// out\n    /* \"#utility.yul\":1885:2063   */\ntag_27:\n    /* \"#utility.yul\":2025:2055   */\n  0x496e76616c6964205072697a654d616e61676572206164647265737300000000\n    /* \"#utility.yul\":2021:2022   */\n  0x00\n    /* \"#utility.yul\":2013:2019   */\n  dup3\n    /* \"#utility.yul\":2009:2023   */\n  add\n    /* \"#utility.yul\":2002:2056   */\n  mstore\n    /* \"#utility.yul\":1885:2063   */\n  pop\n  jump\t// out\n    /* \"#utility.yul\":2069:2435   */\ntag_28:\n    /* \"#utility.yul\":2211:2214   */\n  0x00\n    /* \"#utility.yul\":2232:2299   */\n  tag_53\n    /* \"#utility.yul\":2296:2298   */\n  0x1c\n    /* \"#utility.yul\":2291:2294   */\n  dup4\n    /* \"#utility.yul\":2232:2299   */\n  tag_26\n  jump\t// in\ntag_53:\n    /* \"#utility.yul\":2225:2299   */\n  swap2\n  pop\n    /* \"#utility.yul\":2308:2401   */\n  tag_54\n    /* \"#utility.yul\":2397:2400   */\n  dup3\n    /* \"#utility.yul\":2308:2401   */\n  tag_27\n  jump\t// in\ntag_54:\n    /* \"#utility.yul\":2426:2428   */\n  0x20\n    /* \"#utility.yul\":2421:2424   */\n  dup3\n    /* \"#utility.yul\":2417:2429   */\n  add\n    /* \"#utility.yul\":2410:2429   */\n  swap1\n  pop\n    /* \"#utility.yul\":2069:2435   */\n  swap2\n  swap1\n  pop\n  jump\t// out\n    /* \"#utility.yul\":2441:2860   */\ntag_15:\n    /* \"#utility.yul\":2607:2611   */\n  0x00\n    /* \"#utility.yul\":2645:2647   */\n  0x20\n    /* \"#utility.yul\":2634:2643   */\n  dup3\n    /* \"#utility.yul\":2630:2648   */\n  add\n    /* \"#utility.yul\":2622:2648   */\n  swap1\n  pop\n    /* \"#utility.yul\":2694:2703   */\n  dup2\n    /* \"#utility.yul\":2688:2692   */\n  dup2\n    /* \"#utility.yul\":2684:2704   */\n  sub\n    /* \"#utility.yul\":2680:2681   */\n  0x00\n    /* \"#utility.yul\":2669:2678   */\n  dup4\n    /* \"#utility.yul\":2665:2682   */\n  add\n    /* \"#utility.yul\":2658:2705   */\n  mstore\n    /* \"#utility.yul\":2722:2853   */\n  tag_56\n    /* \"#utility.yul\":2848:2852   */\n  dup2\n    /* \"#utility.yul\":2722:2853   */\n  tag_28\n  jump\t// in\ntag_56:\n    /* \"#utility.yul\":2714:2853   */\n  swap1\n  pop\n    /* \"#utility.yul\":2441:2860   */\n  swap2\n  swap1\n  pop\n  jump\t// out\n    /* \"contracts/VaultManager.sol\":776:1443  contract StablecoinVaultManager is Ownable {... */\ntag_16:\n  dataSize(sub_0)\n  dup1\n  dataOffset(sub_0)\n  0x00\n  codecopy\n  0x00\n  return\nstop\n\nsub_0: assembly {\n        /* \"contracts/VaultManager.sol\":776:1443  contract StablecoinVaultManager is Ownable {... */\n      mstore(0x40, 0x80)\n      callvalue\n      dup1\n      iszero\n      tag_1\n      jumpi\n      revert(0x00, 0x00)\n    tag_1:\n      pop\n      jumpi(tag_2, lt(calldatasize, 0x04))\n      shr(0xe0, calldataload(0x00))\n      dup1\n      0x3d6f4369\n      eq\n      tag_3\n      jumpi\n      dup1\n      0x715018a6\n      eq\n      tag_4\n      jumpi\n      dup1\n      0x8da5cb5b\n      eq\n      tag_5\n      jumpi\n      dup1\n      0xde61e265\n      eq\n      tag_6\n      jumpi\n      dup1\n      0xf2fde38b\n      eq\n      tag_7\n      jumpi\n    tag_2:\n      revert(0x00, 0x00)\n        /* \"contracts/VaultManager.sol\":826:853  address public prizeManager */\n    tag_3:\n      tag_8\n      tag_9\n      jump\t// in\n    tag_8:\n      mload(0x40)\n      tag_10\n      swap2\n      swap1\n      tag_11\n      jump\t// in\n    tag_10:\n      mload(0x40)\n      dup1\n      swap2\n      sub\n      swap1\n      return\n        /* \"@openzeppelin/contracts/access/Ownable.sol\":2293:2394  function renounceOwnership() public virtual onlyOwner {... */\n    tag_4:\n      tag_12\n      tag_13\n      jump\t// in\n    tag_12:\n      stop\n        /* \"@openzeppelin/contracts/access/Ownable.sol\":1638:1723  function owner() public view virtual returns (address) {... */\n    tag_5:\n      tag_14\n      tag_15\n      jump\t// in\n    tag_14:\n      mload(0x40)\n      tag_16\n      swap2\n      swap1\n      tag_11\n      jump\t// in\n    tag_16:\n      mload(0x40)\n      dup1\n      swap2\n      sub\n      swap1\n      return\n        /* \"contracts/VaultManager.sol\":1075:1440  function calculateWeeklyProfits() external onlyOwner {... */\n    tag_6:\n      tag_17\n      tag_18\n      jump\t// in\n    tag_17:\n      stop\n        /* \"@openzeppelin/contracts/access/Ownable.sol\":2543:2758  function transferOwnership(address newOwner) public virtual onlyOwner {... */\n    tag_7:\n      tag_19\n      0x04\n      dup1\n      calldatasize\n      sub\n      dup2\n      add\n      swap1\n      tag_20\n      swap2\n      swap1\n      tag_21\n      jump\t// in\n    tag_20:\n      tag_22\n      jump\t// in\n    tag_19:\n      stop\n        /* \"contracts/VaultManager.sol\":826:853  address public prizeManager */\n    tag_9:\n      0x01\n      0x00\n      swap1\n      sload\n      swap1\n      0x0100\n      exp\n      swap1\n      div\n      0xffffffffffffffffffffffffffffffffffffffff\n      and\n      dup2\n      jump\t// out\n        /* \"@openzeppelin/contracts/access/Ownable.sol\":2293:2394  function renounceOwnership() public virtual onlyOwner {... */\n    tag_13:\n        /* \"@openzeppelin/contracts/access/Ownable.sol\":1531:1544  _checkOwner() */\n      tag_24\n        /* \"@openzeppelin/contracts/access/Ownable.sol\":1531:1542  _checkOwner */\n      tag_25\n        /* \"@openzeppelin/contracts/access/Ownable.sol\":1531:1544  _checkOwner() */\n      jump\t// in\n    tag_24:\n        /* \"@openzeppelin/contracts/access/Ownable.sol\":2357:2387  _transferOwnership(address(0)) */\n      tag_27\n        /* \"@openzeppelin/contracts/access/Ownable.sol\":2384:2385  0 */\n      0x00\n        /* \"@openzeppelin/contracts/access/Ownable.sol\":2357:2375  _transferOwnership */\n      tag_28\n        /* \"@openzeppelin/contracts/access/Ownable.sol\":2357:2387  _transferOwnership(address(0)) */\n      jump\t// in\n    tag_27:\n        /* \"@openzeppelin/contracts/access/Ownable.sol\":2293:2394  function renounceOwnership() public virtual onlyOwner {... */\n      jump\t// out\n        /* \"@openzeppelin/contracts/access/Ownable.sol\":1638:1723  function owner() public view virtual returns (address) {... */\n    tag_15:\n        /* \"@openzeppelin/contracts/access/Ownable.sol\":1684:1691  address */\n      0x00\n        /* \"@openzeppelin/contracts/access/Ownable.sol\":1710:1716  _owner */\n      0x00\n      0x00\n      swap1\n      sload\n      swap1\n      0x0100\n      exp\n      swap1\n      div\n      0xffffffffffffffffffffffffffffffffffffffff\n      and\n        /* \"@openzeppelin/contracts/access/Ownable.sol\":1703:1716  return _owner */\n      swap1\n      pop\n        /* \"@openzeppelin/contracts/access/Ownable.sol\":1638:1723  function owner() public view virtual returns (address) {... */\n      swap1\n      jump\t// out\n        /* \"contracts/VaultManager.sol\":1075:1440  function calculateWeeklyProfits() external onlyOwner {... */\n    tag_18:\n        /* \"@openzeppelin/contracts/access/Ownable.sol\":1531:1544  _checkOwner() */\n      tag_31\n        /* \"@openzeppelin/contracts/access/Ownable.sol\":1531:1542  _checkOwner */\n      tag_25\n        /* \"@openzeppelin/contracts/access/Ownable.sol\":1531:1544  _checkOwner() */\n      jump\t// in\n    tag_31:\n        /* \"contracts/VaultManager.sol\":1139:1154  uint256 profits */\n      0x00\n        /* \"contracts/VaultManager.sol\":1172:1176  this */\n      address\n        /* \"contracts/VaultManager.sol\":1157:1188  IVault(address(this)).getProfit */\n      0xffffffffffffffffffffffffffffffffffffffff\n      and\n      0xc600e1dc\n        /* \"contracts/VaultManager.sol\":1197:1201  this */\n      address\n        /* \"contracts/VaultManager.sol\":1157:1203  IVault(address(this)).getProfit(address(this)) */\n      mload(0x40)\n      dup3\n      0xffffffff\n      and\n      0xe0\n      shl\n      dup2\n      mstore\n      0x04\n      add\n      tag_33\n      swap2\n      swap1\n      tag_11\n      jump\t// in\n    tag_33:\n      0x20\n      mload(0x40)\n      dup1\n      dup4\n      sub\n      dup2\n      dup7\n      gas\n      staticcall\n      iszero\n      dup1\n      iszero\n      tag_35\n      jumpi\n      returndatacopy(0x00, 0x00, returndatasize)\n      revert(0x00, returndatasize)\n    tag_35:\n      pop\n      pop\n      pop\n      pop\n      mload(0x40)\n      returndatasize\n      not(0x1f)\n      0x1f\n      dup3\n      add\n      and\n      dup3\n      add\n      dup1\n      0x40\n      mstore\n      pop\n      dup2\n      add\n      swap1\n      tag_36\n      swap2\n      swap1\n      tag_37\n      jump\t// in\n    tag_36:\n        /* \"contracts/VaultManager.sol\":1139:1203  uint256 profits = IVault(address(this)).getProfit(address(this)) */\n      swap1\n      pop\n        /* \"contracts/VaultManager.sol\":1214:1235  uint256 totalInvested */\n      0x00\n        /* \"contracts/VaultManager.sol\":1253:1257  this */\n      address\n        /* \"contracts/VaultManager.sol\":1238:1269  IVault(address(this)).balanceOf */\n      0xffffffffffffffffffffffffffffffffffffffff\n      and\n      0x70a08231\n        /* \"contracts/VaultManager.sol\":1278:1282  this */\n      address\n        /* \"contracts/VaultManager.sol\":1238:1284  IVault(address(this)).balanceOf(address(this)) */\n      mload(0x40)\n      dup3\n      0xffffffff\n      and\n      0xe0\n      shl\n      dup2\n      mstore\n      0x04\n      add\n      tag_38\n      swap2\n      swap1\n      tag_11\n      jump\t// in\n    tag_38:\n      0x20\n      mload(0x40)\n      dup1\n      dup4\n      sub\n      dup2\n      dup7\n      gas\n      staticcall\n      iszero\n      dup1\n      iszero\n      tag_40\n      jumpi\n      returndatacopy(0x00, 0x00, returndatasize)\n      revert(0x00, returndatasize)\n    tag_40:\n      pop\n      pop\n      pop\n      pop\n      mload(0x40)\n      returndatasize\n      not(0x1f)\n      0x1f\n      dup3\n      add\n      and\n      dup3\n      add\n      dup1\n      0x40\n      mstore\n      pop\n      dup2\n      add\n      swap1\n      tag_41\n      swap2\n      swap1\n      tag_37\n      jump\t// in\n    tag_41:\n        /* \"contracts/VaultManager.sol\":1214:1284  uint256 totalInvested = IVault(address(this)).balanceOf(address(this)) */\n      swap1\n      pop\n        /* \"contracts/VaultManager.sol\":1295:1313  uint256 reinvested */\n      0x00\n        /* \"contracts/VaultManager.sol\":1333:1336  100 */\n      0x64\n        /* \"contracts/VaultManager.sol\":1327:1329  50 */\n      0x32\n        /* \"contracts/VaultManager.sol\":1317:1324  profits */\n      dup5\n        /* \"contracts/VaultManager.sol\":1317:1329  profits * 50 */\n      tag_42\n      swap2\n      swap1\n      tag_43\n      jump\t// in\n    tag_42:\n        /* \"contracts/VaultManager.sol\":1316:1336  (profits * 50) / 100 */\n      tag_44\n      swap2\n      swap1\n      tag_45\n      jump\t// in\n    tag_44:\n        /* \"contracts/VaultManager.sol\":1295:1336  uint256 reinvested = (profits * 50) / 100 */\n      swap1\n      pop\n        /* \"contracts/VaultManager.sol\":1363:1375  prizeManager */\n      0x01\n      0x00\n      swap1\n      sload\n      swap1\n      0x0100\n      exp\n      swap1\n      div\n      0xffffffffffffffffffffffffffffffffffffffff\n      and\n        /* \"contracts/VaultManager.sol\":1349:1396  IPrizeManager(prizeManager).updateWeeklyProfits */\n      0xffffffffffffffffffffffffffffffffffffffff\n      and\n      0xa975b892\n        /* \"contracts/VaultManager.sol\":1397:1404  profits */\n      dup5\n        /* \"contracts/VaultManager.sol\":1406:1419  totalInvested */\n      dup5\n        /* \"contracts/VaultManager.sol\":1421:1431  reinvested */\n      dup5\n        /* \"contracts/VaultManager.sol\":1349:1432  IPrizeManager(prizeManager).updateWeeklyProfits(profits, totalInvested, reinvested) */\n      mload(0x40)\n      dup5\n      0xffffffff\n      and\n      0xe0\n      shl\n      dup2\n      mstore\n      0x04\n      add\n      tag_46\n      swap4\n      swap3\n      swap2\n      swap1\n      tag_47\n      jump\t// in\n    tag_46:\n      0x00\n      mload(0x40)\n      dup1\n      dup4\n      sub\n      dup2\n      0x00\n      dup8\n      dup1\n      extcodesize\n      iszero\n      dup1\n      iszero\n      tag_48\n      jumpi\n      revert(0x00, 0x00)\n    tag_48:\n      pop\n      gas\n      call\n      iszero\n      dup1\n      iszero\n      tag_50\n      jumpi\n      returndatacopy(0x00, 0x00, returndatasize)\n      revert(0x00, returndatasize)\n    tag_50:\n      pop\n      pop\n      pop\n      pop\n        /* \"contracts/VaultManager.sol\":1128:1440  {... */\n      pop\n      pop\n      pop\n        /* \"contracts/VaultManager.sol\":1075:1440  function calculateWeeklyProfits() external onlyOwner {... */\n      jump\t// out\n        /* \"@openzeppelin/contracts/access/Ownable.sol\":2543:2758  function transferOwnership(address newOwner) public virtual onlyOwner {... */\n    tag_22:\n        /* \"@openzeppelin/contracts/access/Ownable.sol\":1531:1544  _checkOwner() */\n      tag_52\n        /* \"@openzeppelin/contracts/access/Ownable.sol\":1531:1542  _checkOwner */\n      tag_25\n        /* \"@openzeppelin/contracts/access/Ownable.sol\":1531:1544  _checkOwner() */\n      jump\t// in\n    tag_52:\n        /* \"@openzeppelin/contracts/access/Ownable.sol\":2647:2648  0 */\n      0x00\n        /* \"@openzeppelin/contracts/access/Ownable.sol\":2627:2649  newOwner == address(0) */\n      0xffffffffffffffffffffffffffffffffffffffff\n      and\n        /* \"@openzeppelin/contracts/access/Ownable.sol\":2627:2635  newOwner */\n      dup2\n        /* \"@openzeppelin/contracts/access/Ownable.sol\":2627:2649  newOwner == address(0) */\n      0xffffffffffffffffffffffffffffffffffffffff\n      and\n      sub\n        /* \"@openzeppelin/contracts/access/Ownable.sol\":2623:2714  if (newOwner == address(0)) {... */\n      tag_54\n      jumpi\n        /* \"@openzeppelin/contracts/access/Ownable.sol\":2700:2701  0 */\n      0x00\n        /* \"@openzeppelin/contracts/access/Ownable.sol\":2672:2703  OwnableInvalidOwner(address(0)) */\n      mload(0x40)\n      0x1e4fbdf700000000000000000000000000000000000000000000000000000000\n      dup2\n      mstore\n      0x04\n      add\n      tag_55\n      swap2\n      swap1\n      tag_11\n      jump\t// in\n    tag_55:\n      mload(0x40)\n      dup1\n      swap2\n      sub\n      swap1\n      revert\n        /* \"@openzeppelin/contracts/access/Ownable.sol\":2623:2714  if (newOwner == address(0)) {... */\n    tag_54:\n        /* \"@openzeppelin/contracts/access/Ownable.sol\":2723:2751  _transferOwnership(newOwner) */\n      tag_56\n        /* \"@openzeppelin/contracts/access/Ownable.sol\":2742:2750  newOwner */\n      dup2\n        /* \"@openzeppelin/contracts/access/Ownable.sol\":2723:2741  _transferOwnership */\n      tag_28\n        /* \"@openzeppelin/contracts/access/Ownable.sol\":2723:2751  _transferOwnership(newOwner) */\n      jump\t// in\n    tag_56:\n        /* \"@openzeppelin/contracts/access/Ownable.sol\":2543:2758  function transferOwnership(address newOwner) public virtual onlyOwner {... */\n      pop\n      jump\t// out\n        /* \"@openzeppelin/contracts/access/Ownable.sol\":1796:1958  function _checkOwner() internal view virtual {... */\n    tag_25:\n        /* \"@openzeppelin/contracts/access/Ownable.sol\":1866:1878  _msgSender() */\n      tag_58\n        /* \"@openzeppelin/contracts/access/Ownable.sol\":1866:1876  _msgSender */\n      tag_59\n        /* \"@openzeppelin/contracts/access/Ownable.sol\":1866:1878  _msgSender() */\n      jump\t// in\n    tag_58:\n        /* \"@openzeppelin/contracts/access/Ownable.sol\":1855:1878  owner() != _msgSender() */\n      0xffffffffffffffffffffffffffffffffffffffff\n      and\n        /* \"@openzeppelin/contracts/access/Ownable.sol\":1855:1862  owner() */\n      tag_60\n        /* \"@openzeppelin/contracts/access/Ownable.sol\":1855:1860  owner */\n      tag_15\n        /* \"@openzeppelin/contracts/access/Ownable.sol\":1855:1862  owner() */\n      jump\t// in\n    tag_60:\n        /* \"@openzeppelin/contracts/access/Ownable.sol\":1855:1878  owner() != _msgSender() */\n      0xffffffffffffffffffffffffffffffffffffffff\n      and\n      eq\n        /* \"@openzeppelin/contracts/access/Ownable.sol\":1851:1952  if (owner() != _msgSender()) {... */\n      tag_61\n      jumpi\n        /* \"@openzeppelin/contracts/access/Ownable.sol\":1928:1940  _msgSender() */\n      tag_62\n        /* \"@openzeppelin/contracts/access/Ownable.sol\":1928:1938  _msgSender */\n      tag_59\n        /* \"@openzeppelin/contracts/access/Ownable.sol\":1928:1940  _msgSender() */\n      jump\t// in\n    tag_62:\n        /* \"@openzeppelin/contracts/access/Ownable.sol\":1901:1941  OwnableUnauthorizedAccount(_msgSender()) */\n      mload(0x40)\n      0x118cdaa700000000000000000000000000000000000000000000000000000000\n      dup2\n      mstore\n      0x04\n      add\n      tag_63\n      swap2\n      swap1\n      tag_11\n      jump\t// in\n    tag_63:\n      mload(0x40)\n      dup1\n      swap2\n      sub\n      swap1\n      revert\n        /* \"@openzeppelin/contracts/access/Ownable.sol\":1851:1952  if (owner() != _msgSender()) {... */\n    tag_61:\n        /* \"@openzeppelin/contracts/access/Ownable.sol\":1796:1958  function _checkOwner() internal view virtual {... */\n      jump\t// out\n        /* \"@openzeppelin/contracts/access/Ownable.sol\":2912:3099  function _transferOwnership(address newOwner) internal virtual {... */\n    tag_28:\n        /* \"@openzeppelin/contracts/access/Ownable.sol\":2985:3001  address oldOwner */\n      0x00\n        /* \"@openzeppelin/contracts/access/Ownable.sol\":3004:3010  _owner */\n      0x00\n      0x00\n      swap1\n      sload\n      swap1\n      0x0100\n      exp\n      swap1\n      div\n      0xffffffffffffffffffffffffffffffffffffffff\n      and\n        /* \"@openzeppelin/contracts/access/Ownable.sol\":2985:3010  address oldOwner = _owner */\n      swap1\n      pop\n        /* \"@openzeppelin/contracts/access/Ownable.sol\":3029:3037  newOwner */\n      dup2\n        /* \"@openzeppelin/contracts/access/Ownable.sol\":3020:3026  _owner */\n      0x00\n      0x00\n        /* \"@openzeppelin/contracts/access/Ownable.sol\":3020:3037  _owner = newOwner */\n      0x0100\n      exp\n      dup2\n      sload\n      dup2\n      0xffffffffffffffffffffffffffffffffffffffff\n      mul\n      not\n      and\n      swap1\n      dup4\n      0xffffffffffffffffffffffffffffffffffffffff\n      and\n      mul\n      or\n      swap1\n      sstore\n      pop\n        /* \"@openzeppelin/contracts/access/Ownable.sol\":3083:3091  newOwner */\n      dup2\n        /* \"@openzeppelin/contracts/access/Ownable.sol\":3052:3092  OwnershipTransferred(oldOwner, newOwner) */\n      0xffffffffffffffffffffffffffffffffffffffff\n      and\n        /* \"@openzeppelin/contracts/access/Ownable.sol\":3073:3081  oldOwner */\n      dup2\n        /* \"@openzeppelin/contracts/access/Ownable.sol\":3052:3092  OwnershipTransferred(oldOwner, newOwner) */\n      0xffffffffffffffffffffffffffffffffffffffff\n      and\n      0x8be0079c531659141344cd1fd0a4f28419497f9722a3daafe3b4186f6b6457e0\n      mload(0x40)\n      mload(0x40)\n      dup1\n      swap2\n      sub\n      swap1\n      log3\n        /* \"@openzeppelin/contracts/access/Ownable.sol\":2975:3099  {... */\n      pop\n        /* \"@openzeppelin/contracts/access/Ownable.sol\":2912:3099  function _transferOwnership(address newOwner) internal virtual {... */\n      pop\n      jump\t// out\n        /* \"@openzeppelin/contracts/utils/Context.sol\":656:752  function _msgSender() internal view virtual returns (address) {... */\n    tag_59:\n        /* \"@openzeppelin/contracts/utils/Context.sol\":709:716  address */\n      0x00\n        /* \"@openzeppelin/contracts/utils/Context.sol\":735:745  msg.sender */\n      caller\n        /* \"@openzeppelin/contracts/utils/Context.sol\":728:745  return msg.sender */\n      swap1\n      pop\n        /* \"@openzeppelin/contracts/utils/Context.sol\":656:752  function _msgSender() internal view virtual returns (address) {... */\n      swap1\n      jump\t// out\n        /* \"#utility.yul\":7:133   */\n    tag_66:\n        /* \"#utility.yul\":44:51   */\n      0x00\n        /* \"#utility.yul\":84:126   */\n      0xffffffffffffffffffffffffffffffffffffffff\n        /* \"#utility.yul\":77:82   */\n      dup3\n        /* \"#utility.yul\":73:127   */\n      and\n        /* \"#utility.yul\":62:127   */\n      swap1\n      pop\n        /* \"#utility.yul\":7:133   */\n      swap2\n      swap1\n      pop\n      jump\t// out\n        /* \"#utility.yul\":139:235   */\n    tag_67:\n        /* \"#utility.yul\":176:183   */\n      0x00\n        /* \"#utility.yul\":205:229   */\n      tag_83\n        /* \"#utility.yul\":223:228   */\n      dup3\n        /* \"#utility.yul\":205:229   */\n      tag_66\n      jump\t// in\n    tag_83:\n        /* \"#utility.yul\":194:229   */\n      swap1\n      pop\n        /* \"#utility.yul\":139:235   */\n      swap2\n      swap1\n      pop\n      jump\t// out\n        /* \"#utility.yul\":241:359   */\n    tag_68:\n        /* \"#utility.yul\":328:352   */\n      tag_85\n        /* \"#utility.yul\":346:351   */\n      dup2\n        /* \"#utility.yul\":328:352   */\n      tag_67\n      jump\t// in\n    tag_85:\n        /* \"#utility.yul\":323:326   */\n      dup3\n        /* \"#utility.yul\":316:353   */\n      mstore\n        /* \"#utility.yul\":241:359   */\n      pop\n      pop\n      jump\t// out\n        /* \"#utility.yul\":365:587   */\n    tag_11:\n        /* \"#utility.yul\":458:462   */\n      0x00\n        /* \"#utility.yul\":496:498   */\n      0x20\n        /* \"#utility.yul\":485:494   */\n      dup3\n        /* \"#utility.yul\":481:499   */\n      add\n        /* \"#utility.yul\":473:499   */\n      swap1\n      pop\n        /* \"#utility.yul\":509:580   */\n      tag_87\n        /* \"#utility.yul\":577:578   */\n      0x00\n        /* \"#utility.yul\":566:575   */\n      dup4\n        /* \"#utility.yul\":562:579   */\n      add\n        /* \"#utility.yul\":553:559   */\n      dup5\n        /* \"#utility.yul\":509:580   */\n      tag_68\n      jump\t// in\n    tag_87:\n        /* \"#utility.yul\":365:587   */\n      swap3\n      swap2\n      pop\n      pop\n      jump\t// out\n        /* \"#utility.yul\":674:791   */\n    tag_70:\n        /* \"#utility.yul\":783:784   */\n      0x00\n        /* \"#utility.yul\":780:781   */\n      0x00\n        /* \"#utility.yul\":773:785   */\n      revert\n        /* \"#utility.yul\":920:1042   */\n    tag_72:\n        /* \"#utility.yul\":993:1017   */\n      tag_92\n        /* \"#utility.yul\":1011:1016   */\n      dup2\n        /* \"#utility.yul\":993:1017   */\n      tag_67\n      jump\t// in\n    tag_92:\n        /* \"#utility.yul\":986:991   */\n      dup2\n        /* \"#utility.yul\":983:1018   */\n      eq\n        /* \"#utility.yul\":973:1036   */\n      tag_93\n      jumpi\n        /* \"#utility.yul\":1032:1033   */\n      0x00\n        /* \"#utility.yul\":1029:1030   */\n      0x00\n        /* \"#utility.yul\":1022:1034   */\n      revert\n        /* \"#utility.yul\":973:1036   */\n    tag_93:\n        /* \"#utility.yul\":920:1042   */\n      pop\n      jump\t// out\n        /* \"#utility.yul\":1048:1187   */\n    tag_73:\n        /* \"#utility.yul\":1094:1099   */\n      0x00\n        /* \"#utility.yul\":1132:1138   */\n      dup2\n        /* \"#utility.yul\":1119:1139   */\n      calldataload\n        /* \"#utility.yul\":1110:1139   */\n      swap1\n      pop\n        /* \"#utility.yul\":1148:1181   */\n      tag_95\n        /* \"#utility.yul\":1175:1180   */\n      dup2\n        /* \"#utility.yul\":1148:1181   */\n      tag_72\n      jump\t// in\n    tag_95:\n        /* \"#utility.yul\":1048:1187   */\n      swap3\n      swap2\n      pop\n      pop\n      jump\t// out\n        /* \"#utility.yul\":1193:1522   */\n    tag_21:\n        /* \"#utility.yul\":1252:1258   */\n      0x00\n        /* \"#utility.yul\":1301:1303   */\n      0x20\n        /* \"#utility.yul\":1289:1298   */\n      dup3\n        /* \"#utility.yul\":1280:1287   */\n      dup5\n        /* \"#utility.yul\":1276:1299   */\n      sub\n        /* \"#utility.yul\":1272:1304   */\n      slt\n        /* \"#utility.yul\":1269:1388   */\n      iszero\n      tag_97\n      jumpi\n        /* \"#utility.yul\":1307:1386   */\n      tag_98\n      tag_70\n      jump\t// in\n    tag_98:\n        /* \"#utility.yul\":1269:1388   */\n    tag_97:\n        /* \"#utility.yul\":1427:1428   */\n      0x00\n        /* \"#utility.yul\":1452:1505   */\n      tag_99\n        /* \"#utility.yul\":1497:1504   */\n      dup5\n        /* \"#utility.yul\":1488:1494   */\n      dup3\n        /* \"#utility.yul\":1477:1486   */\n      dup6\n        /* \"#utility.yul\":1473:1495   */\n      add\n        /* \"#utility.yul\":1452:1505   */\n      tag_73\n      jump\t// in\n    tag_99:\n        /* \"#utility.yul\":1442:1505   */\n      swap2\n      pop\n        /* \"#utility.yul\":1398:1515   */\n      pop\n        /* \"#utility.yul\":1193:1522   */\n      swap3\n      swap2\n      pop\n      pop\n      jump\t// out\n        /* \"#utility.yul\":1528:1605   */\n    tag_74:\n        /* \"#utility.yul\":1565:1572   */\n      0x00\n        /* \"#utility.yul\":1594:1599   */\n      dup2\n        /* \"#utility.yul\":1583:1599   */\n      swap1\n      pop\n        /* \"#utility.yul\":1528:1605   */\n      swap2\n      swap1\n      pop\n      jump\t// out\n        /* \"#utility.yul\":1611:1733   */\n    tag_75:\n        /* \"#utility.yul\":1684:1708   */\n      tag_102\n        /* \"#utility.yul\":1702:1707   */\n      dup2\n        /* \"#utility.yul\":1684:1708   */\n      tag_74\n      jump\t// in\n    tag_102:\n        /* \"#utility.yul\":1677:1682   */\n      dup2\n        /* \"#utility.yul\":1674:1709   */\n      eq\n        /* \"#utility.yul\":1664:1727   */\n      tag_103\n      jumpi\n        /* \"#utility.yul\":1723:1724   */\n      0x00\n        /* \"#utility.yul\":1720:1721   */\n      0x00\n        /* \"#utility.yul\":1713:1725   */\n      revert\n        /* \"#utility.yul\":1664:1727   */\n    tag_103:\n        /* \"#utility.yul\":1611:1733   */\n      pop\n      jump\t// out\n        /* \"#utility.yul\":1739:1882   */\n    tag_76:\n        /* \"#utility.yul\":1796:1801   */\n      0x00\n        /* \"#utility.yul\":1827:1833   */\n      dup2\n        /* \"#utility.yul\":1821:1834   */\n      mload\n        /* \"#utility.yul\":1812:1834   */\n      swap1\n      pop\n        /* \"#utility.yul\":1843:1876   */\n      tag_105\n        /* \"#utility.yul\":1870:1875   */\n      dup2\n        /* \"#utility.yul\":1843:1876   */\n      tag_75\n      jump\t// in\n    tag_105:\n        /* \"#utility.yul\":1739:1882   */\n      swap3\n      swap2\n      pop\n      pop\n      jump\t// out\n        /* \"#utility.yul\":1888:2239   */\n    tag_37:\n        /* \"#utility.yul\":1958:1964   */\n      0x00\n        /* \"#utility.yul\":2007:2009   */\n      0x20\n        /* \"#utility.yul\":1995:2004   */\n      dup3\n        /* \"#utility.yul\":1986:1993   */\n      dup5\n        /* \"#utility.yul\":1982:2005   */\n      sub\n        /* \"#utility.yul\":1978:2010   */\n      slt\n        /* \"#utility.yul\":1975:2094   */\n      iszero\n      tag_107\n      jumpi\n        /* \"#utility.yul\":2013:2092   */\n      tag_108\n      tag_70\n      jump\t// in\n    tag_108:\n        /* \"#utility.yul\":1975:2094   */\n    tag_107:\n        /* \"#utility.yul\":2133:2134   */\n      0x00\n        /* \"#utility.yul\":2158:2222   */\n      tag_109\n        /* \"#utility.yul\":2214:2221   */\n      dup5\n        /* \"#utility.yul\":2205:2211   */\n      dup3\n        /* \"#utility.yul\":2194:2203   */\n      dup6\n        /* \"#utility.yul\":2190:2212   */\n      add\n        /* \"#utility.yul\":2158:2222   */\n      tag_76\n      jump\t// in\n    tag_109:\n        /* \"#utility.yul\":2148:2222   */\n      swap2\n      pop\n        /* \"#utility.yul\":2104:2232   */\n      pop\n        /* \"#utility.yul\":1888:2239   */\n      swap3\n      swap2\n      pop\n      pop\n      jump\t// out\n        /* \"#utility.yul\":2245:2425   */\n    tag_77:\n        /* \"#utility.yul\":2293:2370   */\n      0x4e487b7100000000000000000000000000000000000000000000000000000000\n        /* \"#utility.yul\":2290:2291   */\n      0x00\n        /* \"#utility.yul\":2283:2371   */\n      mstore\n        /* \"#utility.yul\":2390:2394   */\n      0x11\n        /* \"#utility.yul\":2387:2388   */\n      0x04\n        /* \"#utility.yul\":2380:2395   */\n      mstore\n        /* \"#utility.yul\":2414:2418   */\n      0x24\n        /* \"#utility.yul\":2411:2412   */\n      0x00\n        /* \"#utility.yul\":2404:2419   */\n      revert\n        /* \"#utility.yul\":2431:2841   */\n    tag_43:\n        /* \"#utility.yul\":2471:2478   */\n      0x00\n        /* \"#utility.yul\":2494:2514   */\n      tag_112\n        /* \"#utility.yul\":2512:2513   */\n      dup3\n        /* \"#utility.yul\":2494:2514   */\n      tag_74\n      jump\t// in\n    tag_112:\n        /* \"#utility.yul\":2489:2514   */\n      swap2\n      pop\n        /* \"#utility.yul\":2528:2548   */\n      tag_113\n        /* \"#utility.yul\":2546:2547   */\n      dup4\n        /* \"#utility.yul\":2528:2548   */\n      tag_74\n      jump\t// in\n    tag_113:\n        /* \"#utility.yul\":2523:2548   */\n      swap3\n      pop\n        /* \"#utility.yul\":2583:2584   */\n      dup3\n        /* \"#utility.yul\":2580:2581   */\n      dup3\n        /* \"#utility.yul\":2576:2585   */\n      mul\n        /* \"#utility.yul\":2605:2635   */\n      tag_114\n        /* \"#utility.yul\":2623:2634   */\n      dup2\n        /* \"#utility.yul\":2605:2635   */\n      tag_74\n      jump\t// in\n    tag_114:\n        /* \"#utility.yul\":2594:2635   */\n      swap2\n      pop\n        /* \"#utility.yul\":2784:2785   */\n      dup3\n        /* \"#utility.yul\":2775:2782   */\n      dup3\n        /* \"#utility.yul\":2771:2786   */\n      div\n        /* \"#utility.yul\":2768:2769   */\n      dup5\n        /* \"#utility.yul\":2765:2787   */\n      eq\n        /* \"#utility.yul\":2745:2746   */\n      dup4\n        /* \"#utility.yul\":2738:2747   */\n      iszero\n        /* \"#utility.yul\":2718:2801   */\n      or\n        /* \"#utility.yul\":2695:2834   */\n      tag_115\n      jumpi\n        /* \"#utility.yul\":2814:2832   */\n      tag_116\n      tag_77\n      jump\t// in\n    tag_116:\n        /* \"#utility.yul\":2695:2834   */\n    tag_115:\n        /* \"#utility.yul\":2479:2841   */\n      pop\n        /* \"#utility.yul\":2431:2841   */\n      swap3\n      swap2\n      pop\n      pop\n      jump\t// out\n        /* \"#utility.yul\":2847:3027   */\n    tag_78:\n        /* \"#utility.yul\":2895:2972   */\n      0x4e487b7100000000000000000000000000000000000000000000000000000000\n        /* \"#utility.yul\":2892:2893   */\n      0x00\n        /* \"#utility.yul\":2885:2973   */\n      mstore\n        /* \"#utility.yul\":2992:2996   */\n      0x12\n        /* \"#utility.yul\":2989:2990   */\n      0x04\n        /* \"#utility.yul\":2982:2997   */\n      mstore\n        /* \"#utility.yul\":3016:3020   */\n      0x24\n        /* \"#utility.yul\":3013:3014   */\n      0x00\n        /* \"#utility.yul\":3006:3021   */\n      revert\n        /* \"#utility.yul\":3033:3218   */\n    tag_45:\n        /* \"#utility.yul\":3073:3074   */\n      0x00\n        /* \"#utility.yul\":3090:3110   */\n      tag_119\n        /* \"#utility.yul\":3108:3109   */\n      dup3\n        /* \"#utility.yul\":3090:3110   */\n      tag_74\n      jump\t// in\n    tag_119:\n        /* \"#utility.yul\":3085:3110   */\n      swap2\n      pop\n        /* \"#utility.yul\":3124:3144   */\n      tag_120\n        /* \"#utility.yul\":3142:3143   */\n      dup4\n        /* \"#utility.yul\":3124:3144   */\n      tag_74\n      jump\t// in\n    tag_120:\n        /* \"#utility.yul\":3119:3144   */\n      swap3\n      pop\n        /* \"#utility.yul\":3163:3164   */\n      dup3\n        /* \"#utility.yul\":3153:3188   */\n      tag_121\n      jumpi\n        /* \"#utility.yul\":3168:3186   */\n      tag_122\n      tag_78\n      jump\t// in\n    tag_122:\n        /* \"#utility.yul\":3153:3188   */\n    tag_121:\n        /* \"#utility.yul\":3210:3211   */\n      dup3\n        /* \"#utility.yul\":3207:3208   */\n      dup3\n        /* \"#utility.yul\":3203:3212   */\n      div\n        /* \"#utility.yul\":3198:3212   */\n      swap1\n      pop\n        /* \"#utility.yul\":3033:3218   */\n      swap3\n      swap2\n      pop\n      pop\n      jump\t// out\n        /* \"#utility.yul\":3224:3342   */\n    tag_79:\n        /* \"#utility.yul\":3311:3335   */\n      tag_124\n        /* \"#utility.yul\":3329:3334   */\n      dup2\n        /* \"#utility.yul\":3311:3335   */\n      tag_74\n      jump\t// in\n    tag_124:\n        /* \"#utility.yul\":3306:3309   */\n      dup3\n        /* \"#utility.yul\":3299:3336   */\n      mstore\n        /* \"#utility.yul\":3224:3342   */\n      pop\n      pop\n      jump\t// out\n        /* \"#utility.yul\":3348:3790   */\n    tag_47:\n        /* \"#utility.yul\":3497:3501   */\n      0x00\n        /* \"#utility.yul\":3535:3537   */\n      0x60\n        /* \"#utility.yul\":3524:3533   */\n      dup3\n        /* \"#utility.yul\":3520:3538   */\n      add\n        /* \"#utility.yul\":3512:3538   */\n      swap1\n      pop\n        /* \"#utility.yul\":3548:3619   */\n      tag_126\n        /* \"#utility.yul\":3616:3617   */\n      0x00\n        /* \"#utility.yul\":3605:3614   */\n      dup4\n        /* \"#utility.yul\":3601:3618   */\n      add\n        /* \"#utility.yul\":3592:3598   */\n      dup7\n        /* \"#utility.yul\":3548:3619   */\n      tag_79\n      jump\t// in\n    tag_126:\n        /* \"#utility.yul\":3629:3701   */\n      tag_127\n        /* \"#utility.yul\":3697:3699   */\n      0x20\n        /* \"#utility.yul\":3686:3695   */\n      dup4\n        /* \"#utility.yul\":3682:3700   */\n      add\n        /* \"#utility.yul\":3673:3679   */\n      dup6\n        /* \"#utility.yul\":3629:3701   */\n      tag_79\n      jump\t// in\n    tag_127:\n        /* \"#utility.yul\":3711:3783   */\n      tag_128\n        /* \"#utility.yul\":3779:3781   */\n      0x40\n        /* \"#utility.yul\":3768:3777   */\n      dup4\n        /* \"#utility.yul\":3764:3782   */\n      add\n        /* \"#utility.yul\":3755:3761   */\n      dup5\n        /* \"#utility.yul\":3711:3783   */\n      tag_79\n      jump\t// in\n    tag_128:\n        /* \"#utility.yul\":3348:3790   */\n      swap5\n      swap4\n      pop\n      pop\n      pop\n      pop\n      jump\t// out\n\n    auxdata: 0xa2646970667358221220180da0d00d6133dc13dfaf00d3d055ca84ebc68c393ce45993852cb785212bde64736f6c634300081c0033\n}\n",
				"bytecode": {
					"linkReferences": {},
					"object": "608060405234801561000f575f5ffd5b50604051610a66380380610a6683398181016040528101906100319190610286565b805f73ffffffffffffffffffffffffffffffffffffffff168173ffffffffffffffffffffffffffffffffffffffff16036100a2575f6040517f1e4fbdf700000000000000000000000000000000000000000000000000000000815260040161009991906102d3565b60405180910390fd5b6100b18161016760201b60201c565b505f73ffffffffffffffffffffffffffffffffffffffff168273ffffffffffffffffffffffffffffffffffffffff1603610120576040517f08c379a000000000000000000000000000000000000000000000000000000000815260040161011790610346565b60405180910390fd5b8160015f6101000a81548173ffffffffffffffffffffffffffffffffffffffff021916908373ffffffffffffffffffffffffffffffffffffffff1602179055505050610364565b5f5f5f9054906101000a900473ffffffffffffffffffffffffffffffffffffffff169050815f5f6101000a81548173ffffffffffffffffffffffffffffffffffffffff021916908373ffffffffffffffffffffffffffffffffffffffff1602179055508173ffffffffffffffffffffffffffffffffffffffff168173ffffffffffffffffffffffffffffffffffffffff167f8be0079c531659141344cd1fd0a4f28419497f9722a3daafe3b4186f6b6457e060405160405180910390a35050565b5f5ffd5b5f73ffffffffffffffffffffffffffffffffffffffff82169050919050565b5f6102558261022c565b9050919050565b6102658161024b565b811461026f575f5ffd5b50565b5f815190506102808161025c565b92915050565b5f5f6040838503121561029c5761029b610228565b5b5f6102a985828601610272565b92505060206102ba85828601610272565b9150509250929050565b6102cd8161024b565b82525050565b5f6020820190506102e65f8301846102c4565b92915050565b5f82825260208201905092915050565b7f496e76616c6964205072697a654d616e616765722061646472657373000000005f82015250565b5f610330601c836102ec565b915061033b826102fc565b602082019050919050565b5f6020820190508181035f83015261035d81610324565b9050919050565b6106f5806103715f395ff3fe608060405234801561000f575f5ffd5b5060043610610055575f3560e01c80633d6f436914610059578063715018a6146100775780638da5cb5b14610081578063de61e2651461009f578063f2fde38b146100a9575b5f5ffd5b6100616100c5565b60405161006e91906104e0565b60405180910390f35b61007f6100ea565b005b6100896100fd565b60405161009691906104e0565b60405180910390f35b6100a7610124565b005b6100c360048036038101906100be9190610527565b6102ce565b005b60015f9054906101000a900473ffffffffffffffffffffffffffffffffffffffff1681565b6100f2610352565b6100fb5f6103d9565b565b5f5f5f9054906101000a900473ffffffffffffffffffffffffffffffffffffffff16905090565b61012c610352565b5f3073ffffffffffffffffffffffffffffffffffffffff1663c600e1dc306040518263ffffffff1660e01b815260040161016691906104e0565b602060405180830381865afa158015610181573d5f5f3e3d5ffd5b505050506040513d601f19601f820116820180604052508101906101a59190610585565b90505f3073ffffffffffffffffffffffffffffffffffffffff166370a08231306040518263ffffffff1660e01b81526004016101e191906104e0565b602060405180830381865afa1580156101fc573d5f5f3e3d5ffd5b505050506040513d601f19601f820116820180604052508101906102209190610585565b90505f606460328461023291906105dd565b61023c919061064b565b905060015f9054906101000a900473ffffffffffffffffffffffffffffffffffffffff1673ffffffffffffffffffffffffffffffffffffffff1663a975b8928484846040518463ffffffff1660e01b815260040161029c9392919061068a565b5f604051808303815f87803b1580156102b3575f5ffd5b505af11580156102c5573d5f5f3e3d5ffd5b50505050505050565b6102d6610352565b5f73ffffffffffffffffffffffffffffffffffffffff168173ffffffffffffffffffffffffffffffffffffffff1603610346575f6040517f1e4fbdf700000000000000000000000000000000000000000000000000000000815260040161033d91906104e0565b60405180910390fd5b61034f816103d9565b50565b61035a61049a565b73ffffffffffffffffffffffffffffffffffffffff166103786100fd565b73ffffffffffffffffffffffffffffffffffffffff16146103d75761039b61049a565b6040517f118cdaa70000000000000000000000000000000000000000000000000000000081526004016103ce91906104e0565b60405180910390fd5b565b5f5f5f9054906101000a900473ffffffffffffffffffffffffffffffffffffffff169050815f5f6101000a81548173ffffffffffffffffffffffffffffffffffffffff021916908373ffffffffffffffffffffffffffffffffffffffff1602179055508173ffffffffffffffffffffffffffffffffffffffff168173ffffffffffffffffffffffffffffffffffffffff167f8be0079c531659141344cd1fd0a4f28419497f9722a3daafe3b4186f6b6457e060405160405180910390a35050565b5f33905090565b5f73ffffffffffffffffffffffffffffffffffffffff82169050919050565b5f6104ca826104a1565b9050919050565b6104da816104c0565b82525050565b5f6020820190506104f35f8301846104d1565b92915050565b5f5ffd5b610506816104c0565b8114610510575f5ffd5b50565b5f81359050610521816104fd565b92915050565b5f6020828403121561053c5761053b6104f9565b5b5f61054984828501610513565b91505092915050565b5f819050919050565b61056481610552565b811461056e575f5ffd5b50565b5f8151905061057f8161055b565b92915050565b5f6020828403121561059a576105996104f9565b5b5f6105a784828501610571565b91505092915050565b7f4e487b71000000000000000000000000000000000000000000000000000000005f52601160045260245ffd5b5f6105e782610552565b91506105f283610552565b925082820261060081610552565b91508282048414831517610617576106166105b0565b5b5092915050565b7f4e487b71000000000000000000000000000000000000000000000000000000005f52601260045260245ffd5b5f61065582610552565b915061066083610552565b9250826106705761066f61061e565b5b828204905092915050565b61068481610552565b82525050565b5f60608201905061069d5f83018661067b565b6106aa602083018561067b565b6106b7604083018461067b565b94935050505056fea2646970667358221220180da0d00d6133dc13dfaf00d3d055ca84ebc68c393ce45993852cb785212bde64736f6c634300081c0033",
					"opcodes": "PUSH1 0x80 PUSH1 0x40 MSTORE CALLVALUE DUP1 ISZERO PUSH2 0xF JUMPI PUSH0 PUSH0 REVERT JUMPDEST POP PUSH1 0x40 MLOAD PUSH2 0xA66 CODESIZE SUB DUP1 PUSH2 0xA66 DUP4 CODECOPY DUP2 DUP2 ADD PUSH1 0x40 MSTORE DUP2 ADD SWAP1 PUSH2 0x31 SWAP2 SWAP1 PUSH2 0x286 JUMP JUMPDEST DUP1 PUSH0 PUSH20 0xFFFFFFFFFFFFFFFFFFFFFFFFFFFFFFFFFFFFFFFF AND DUP2 PUSH20 0xFFFFFFFFFFFFFFFFFFFFFFFFFFFFFFFFFFFFFFFF AND SUB PUSH2 0xA2 JUMPI PUSH0 PUSH1 0x40 MLOAD PUSH32 0x1E4FBDF700000000000000000000000000000000000000000000000000000000 DUP2 MSTORE PUSH1 0x4 ADD PUSH2 0x99 SWAP2 SWAP1 PUSH2 0x2D3 JUMP JUMPDEST PUSH1 0x40 MLOAD DUP1 SWAP2 SUB SWAP1 REVERT JUMPDEST PUSH2 0xB1 DUP2 PUSH2 0x167 PUSH1 0x20 SHL PUSH1 0x20 SHR JUMP JUMPDEST POP PUSH0 PUSH20 0xFFFFFFFFFFFFFFFFFFFFFFFFFFFFFFFFFFFFFFFF AND DUP3 PUSH20 0xFFFFFFFFFFFFFFFFFFFFFFFFFFFFFFFFFFFFFFFF AND SUB PUSH2 0x120 JUMPI PUSH1 0x40 MLOAD PUSH32 0x8C379A000000000000000000000000000000000000000000000000000000000 DUP2 MSTORE PUSH1 0x4 ADD PUSH2 0x117 SWAP1 PUSH2 0x346 JUMP JUMPDEST PUSH1 0x40 MLOAD DUP1 SWAP2 SUB SWAP1 REVERT JUMPDEST DUP2 PUSH1 0x1 PUSH0 PUSH2 0x100 EXP DUP2 SLOAD DUP2 PUSH20 0xFFFFFFFFFFFFFFFFFFFFFFFFFFFFFFFFFFFFFFFF MUL NOT AND SWAP1 DUP4 PUSH20 0xFFFFFFFFFFFFFFFFFFFFFFFFFFFFFFFFFFFFFFFF AND MUL OR SWAP1 SSTORE POP POP POP PUSH2 0x364 JUMP JUMPDEST PUSH0 PUSH0 PUSH0 SWAP1 SLOAD SWAP1 PUSH2 0x100 EXP SWAP1 DIV PUSH20 0xFFFFFFFFFFFFFFFFFFFFFFFFFFFFFFFFFFFFFFFF AND SWAP1 POP DUP2 PUSH0 PUSH0 PUSH2 0x100 EXP DUP2 SLOAD DUP2 PUSH20 0xFFFFFFFFFFFFFFFFFFFFFFFFFFFFFFFFFFFFFFFF MUL NOT AND SWAP1 DUP4 PUSH20 0xFFFFFFFFFFFFFFFFFFFFFFFFFFFFFFFFFFFFFFFF AND MUL OR SWAP1 SSTORE POP DUP2 PUSH20 0xFFFFFFFFFFFFFFFFFFFFFFFFFFFFFFFFFFFFFFFF AND DUP2 PUSH20 0xFFFFFFFFFFFFFFFFFFFFFFFFFFFFFFFFFFFFFFFF AND PUSH32 0x8BE0079C531659141344CD1FD0A4F28419497F9722A3DAAFE3B4186F6B6457E0 PUSH1 0x40 MLOAD PUSH1 0x40 MLOAD DUP1 SWAP2 SUB SWAP1 LOG3 POP POP JUMP JUMPDEST PUSH0 PUSH0 REVERT JUMPDEST PUSH0 PUSH20 0xFFFFFFFFFFFFFFFFFFFFFFFFFFFFFFFFFFFFFFFF DUP3 AND SWAP1 POP SWAP2 SWAP1 POP JUMP JUMPDEST PUSH0 PUSH2 0x255 DUP3 PUSH2 0x22C JUMP JUMPDEST SWAP1 POP SWAP2 SWAP1 POP JUMP JUMPDEST PUSH2 0x265 DUP2 PUSH2 0x24B JUMP JUMPDEST DUP2 EQ PUSH2 0x26F JUMPI PUSH0 PUSH0 REVERT JUMPDEST POP JUMP JUMPDEST PUSH0 DUP2 MLOAD SWAP1 POP PUSH2 0x280 DUP2 PUSH2 0x25C JUMP JUMPDEST SWAP3 SWAP2 POP POP JUMP JUMPDEST PUSH0 PUSH0 PUSH1 0x40 DUP4 DUP6 SUB SLT ISZERO PUSH2 0x29C JUMPI PUSH2 0x29B PUSH2 0x228 JUMP JUMPDEST JUMPDEST PUSH0 PUSH2 0x2A9 DUP6 DUP3 DUP7 ADD PUSH2 0x272 JUMP JUMPDEST SWAP3 POP POP PUSH1 0x20 PUSH2 0x2BA DUP6 DUP3 DUP7 ADD PUSH2 0x272 JUMP JUMPDEST SWAP2 POP POP SWAP3 POP SWAP3 SWAP1 POP JUMP JUMPDEST PUSH2 0x2CD DUP2 PUSH2 0x24B JUMP JUMPDEST DUP3 MSTORE POP POP JUMP JUMPDEST PUSH0 PUSH1 0x20 DUP3 ADD SWAP1 POP PUSH2 0x2E6 PUSH0 DUP4 ADD DUP5 PUSH2 0x2C4 JUMP JUMPDEST SWAP3 SWAP2 POP POP JUMP JUMPDEST PUSH0 DUP3 DUP3 MSTORE PUSH1 0x20 DUP3 ADD SWAP1 POP SWAP3 SWAP2 POP POP JUMP JUMPDEST PUSH32 0x496E76616C6964205072697A654D616E61676572206164647265737300000000 PUSH0 DUP3 ADD MSTORE POP JUMP JUMPDEST PUSH0 PUSH2 0x330 PUSH1 0x1C DUP4 PUSH2 0x2EC JUMP JUMPDEST SWAP2 POP PUSH2 0x33B DUP3 PUSH2 0x2FC JUMP JUMPDEST PUSH1 0x20 DUP3 ADD SWAP1 POP SWAP2 SWAP1 POP JUMP JUMPDEST PUSH0 PUSH1 0x20 DUP3 ADD SWAP1 POP DUP2 DUP2 SUB PUSH0 DUP4 ADD MSTORE PUSH2 0x35D DUP2 PUSH2 0x324 JUMP JUMPDEST SWAP1 POP SWAP2 SWAP1 POP JUMP JUMPDEST PUSH2 0x6F5 DUP1 PUSH2 0x371 PUSH0 CODECOPY PUSH0 RETURN INVALID PUSH1 0x80 PUSH1 0x40 MSTORE CALLVALUE DUP1 ISZERO PUSH2 0xF JUMPI PUSH0 PUSH0 REVERT JUMPDEST POP PUSH1 0x4 CALLDATASIZE LT PUSH2 0x55 JUMPI PUSH0 CALLDATALOAD PUSH1 0xE0 SHR DUP1 PUSH4 0x3D6F4369 EQ PUSH2 0x59 JUMPI DUP1 PUSH4 0x715018A6 EQ PUSH2 0x77 JUMPI DUP1 PUSH4 0x8DA5CB5B EQ PUSH2 0x81 JUMPI DUP1 PUSH4 0xDE61E265 EQ PUSH2 0x9F JUMPI DUP1 PUSH4 0xF2FDE38B EQ PUSH2 0xA9 JUMPI JUMPDEST PUSH0 PUSH0 REVERT JUMPDEST PUSH2 0x61 PUSH2 0xC5 JUMP JUMPDEST PUSH1 0x40 MLOAD PUSH2 0x6E SWAP2 SWAP1 PUSH2 0x4E0 JUMP JUMPDEST PUSH1 0x40 MLOAD DUP1 SWAP2 SUB SWAP1 RETURN JUMPDEST PUSH2 0x7F PUSH2 0xEA JUMP JUMPDEST STOP JUMPDEST PUSH2 0x89 PUSH2 0xFD JUMP JUMPDEST PUSH1 0x40 MLOAD PUSH2 0x96 SWAP2 SWAP1 PUSH2 0x4E0 JUMP JUMPDEST PUSH1 0x40 MLOAD DUP1 SWAP2 SUB SWAP1 RETURN JUMPDEST PUSH2 0xA7 PUSH2 0x124 JUMP JUMPDEST STOP JUMPDEST PUSH2 0xC3 PUSH1 0x4 DUP1 CALLDATASIZE SUB DUP2 ADD SWAP1 PUSH2 0xBE SWAP2 SWAP1 PUSH2 0x527 JUMP JUMPDEST PUSH2 0x2CE JUMP JUMPDEST STOP JUMPDEST PUSH1 0x1 PUSH0 SWAP1 SLOAD SWAP1 PUSH2 0x100 EXP SWAP1 DIV PUSH20 0xFFFFFFFFFFFFFFFFFFFFFFFFFFFFFFFFFFFFFFFF AND DUP2 JUMP JUMPDEST PUSH2 0xF2 PUSH2 0x352 JUMP JUMPDEST PUSH2 0xFB PUSH0 PUSH2 0x3D9 JUMP JUMPDEST JUMP JUMPDEST PUSH0 PUSH0 PUSH0 SWAP1 SLOAD SWAP1 PUSH2 0x100 EXP SWAP1 DIV PUSH20 0xFFFFFFFFFFFFFFFFFFFFFFFFFFFFFFFFFFFFFFFF AND SWAP1 POP SWAP1 JUMP JUMPDEST PUSH2 0x12C PUSH2 0x352 JUMP JUMPDEST PUSH0 ADDRESS PUSH20 0xFFFFFFFFFFFFFFFFFFFFFFFFFFFFFFFFFFFFFFFF AND PUSH4 0xC600E1DC ADDRESS PUSH1 0x40 MLOAD DUP3 PUSH4 0xFFFFFFFF AND PUSH1 0xE0 SHL DUP2 MSTORE PUSH1 0x4 ADD PUSH2 0x166 SWAP2 SWAP1 PUSH2 0x4E0 JUMP JUMPDEST PUSH1 0x20 PUSH1 0x40 MLOAD DUP1 DUP4 SUB DUP2 DUP7 GAS STATICCALL ISZERO DUP1 ISZERO PUSH2 0x181 JUMPI RETURNDATASIZE PUSH0 PUSH0 RETURNDATACOPY RETURNDATASIZE PUSH0 REVERT JUMPDEST POP POP POP POP PUSH1 0x40 MLOAD RETURNDATASIZE PUSH1 0x1F NOT PUSH1 0x1F DUP3 ADD AND DUP3 ADD DUP1 PUSH1 0x40 MSTORE POP DUP2 ADD SWAP1 PUSH2 0x1A5 SWAP2 SWAP1 PUSH2 0x585 JUMP JUMPDEST SWAP1 POP PUSH0 ADDRESS PUSH20 0xFFFFFFFFFFFFFFFFFFFFFFFFFFFFFFFFFFFFFFFF AND PUSH4 0x70A08231 ADDRESS PUSH1 0x40 MLOAD DUP3 PUSH4 0xFFFFFFFF AND PUSH1 0xE0 SHL DUP2 MSTORE PUSH1 0x4 ADD PUSH2 0x1E1 SWAP2 SWAP1 PUSH2 0x4E0 JUMP JUMPDEST PUSH1 0x20 PUSH1 0x40 MLOAD DUP1 DUP4 SUB DUP2 DUP7 GAS STATICCALL ISZERO DUP1 ISZERO PUSH2 0x1FC JUMPI RETURNDATASIZE PUSH0 PUSH0 RETURNDATACOPY RETURNDATASIZE PUSH0 REVERT JUMPDEST POP POP POP POP PUSH1 0x40 MLOAD RETURNDATASIZE PUSH1 0x1F NOT PUSH1 0x1F DUP3 ADD AND DUP3 ADD DUP1 PUSH1 0x40 MSTORE POP DUP2 ADD SWAP1 PUSH2 0x220 SWAP2 SWAP1 PUSH2 0x585 JUMP JUMPDEST SWAP1 POP PUSH0 PUSH1 0x64 PUSH1 0x32 DUP5 PUSH2 0x232 SWAP2 SWAP1 PUSH2 0x5DD JUMP JUMPDEST PUSH2 0x23C SWAP2 SWAP1 PUSH2 0x64B JUMP JUMPDEST SWAP1 POP PUSH1 0x1 PUSH0 SWAP1 SLOAD SWAP1 PUSH2 0x100 EXP SWAP1 DIV PUSH20 0xFFFFFFFFFFFFFFFFFFFFFFFFFFFFFFFFFFFFFFFF AND PUSH20 0xFFFFFFFFFFFFFFFFFFFFFFFFFFFFFFFFFFFFFFFF AND PUSH4 0xA975B892 DUP5 DUP5 DUP5 PUSH1 0x40 MLOAD DUP5 PUSH4 0xFFFFFFFF AND PUSH1 0xE0 SHL DUP2 MSTORE PUSH1 0x4 ADD PUSH2 0x29C SWAP4 SWAP3 SWAP2 SWAP1 PUSH2 0x68A JUMP JUMPDEST PUSH0 PUSH1 0x40 MLOAD DUP1 DUP4 SUB DUP2 PUSH0 DUP8 DUP1 EXTCODESIZE ISZERO DUP1 ISZERO PUSH2 0x2B3 JUMPI PUSH0 PUSH0 REVERT JUMPDEST POP GAS CALL ISZERO DUP1 ISZERO PUSH2 0x2C5 JUMPI RETURNDATASIZE PUSH0 PUSH0 RETURNDATACOPY RETURNDATASIZE PUSH0 REVERT JUMPDEST POP POP POP POP POP POP POP JUMP JUMPDEST PUSH2 0x2D6 PUSH2 0x352 JUMP JUMPDEST PUSH0 PUSH20 0xFFFFFFFFFFFFFFFFFFFFFFFFFFFFFFFFFFFFFFFF AND DUP2 PUSH20 0xFFFFFFFFFFFFFFFFFFFFFFFFFFFFFFFFFFFFFFFF AND SUB PUSH2 0x346 JUMPI PUSH0 PUSH1 0x40 MLOAD PUSH32 0x1E4FBDF700000000000000000000000000000000000000000000000000000000 DUP2 MSTORE PUSH1 0x4 ADD PUSH2 0x33D SWAP2 SWAP1 PUSH2 0x4E0 JUMP JUMPDEST PUSH1 0x40 MLOAD DUP1 SWAP2 SUB SWAP1 REVERT JUMPDEST PUSH2 0x34F DUP2 PUSH2 0x3D9 JUMP JUMPDEST POP JUMP JUMPDEST PUSH2 0x35A PUSH2 0x49A JUMP JUMPDEST PUSH20 0xFFFFFFFFFFFFFFFFFFFFFFFFFFFFFFFFFFFFFFFF AND PUSH2 0x378 PUSH2 0xFD JUMP JUMPDEST PUSH20 0xFFFFFFFFFFFFFFFFFFFFFFFFFFFFFFFFFFFFFFFF AND EQ PUSH2 0x3D7 JUMPI PUSH2 0x39B PUSH2 0x49A JUMP JUMPDEST PUSH1 0x40 MLOAD PUSH32 0x118CDAA700000000000000000000000000000000000000000000000000000000 DUP2 MSTORE PUSH1 0x4 ADD PUSH2 0x3CE SWAP2 SWAP1 PUSH2 0x4E0 JUMP JUMPDEST PUSH1 0x40 MLOAD DUP1 SWAP2 SUB SWAP1 REVERT JUMPDEST JUMP JUMPDEST PUSH0 PUSH0 PUSH0 SWAP1 SLOAD SWAP1 PUSH2 0x100 EXP SWAP1 DIV PUSH20 0xFFFFFFFFFFFFFFFFFFFFFFFFFFFFFFFFFFFFFFFF AND SWAP1 POP DUP2 PUSH0 PUSH0 PUSH2 0x100 EXP DUP2 SLOAD DUP2 PUSH20 0xFFFFFFFFFFFFFFFFFFFFFFFFFFFFFFFFFFFFFFFF MUL NOT AND SWAP1 DUP4 PUSH20 0xFFFFFFFFFFFFFFFFFFFFFFFFFFFFFFFFFFFFFFFF AND MUL OR SWAP1 SSTORE POP DUP2 PUSH20 0xFFFFFFFFFFFFFFFFFFFFFFFFFFFFFFFFFFFFFFFF AND DUP2 PUSH20 0xFFFFFFFFFFFFFFFFFFFFFFFFFFFFFFFFFFFFFFFF AND PUSH32 0x8BE0079C531659141344CD1FD0A4F28419497F9722A3DAAFE3B4186F6B6457E0 PUSH1 0x40 MLOAD PUSH1 0x40 MLOAD DUP1 SWAP2 SUB SWAP1 LOG3 POP POP JUMP JUMPDEST PUSH0 CALLER SWAP1 POP SWAP1 JUMP JUMPDEST PUSH0 PUSH20 0xFFFFFFFFFFFFFFFFFFFFFFFFFFFFFFFFFFFFFFFF DUP3 AND SWAP1 POP SWAP2 SWAP1 POP JUMP JUMPDEST PUSH0 PUSH2 0x4CA DUP3 PUSH2 0x4A1 JUMP JUMPDEST SWAP1 POP SWAP2 SWAP1 POP JUMP JUMPDEST PUSH2 0x4DA DUP2 PUSH2 0x4C0 JUMP JUMPDEST DUP3 MSTORE POP POP JUMP JUMPDEST PUSH0 PUSH1 0x20 DUP3 ADD SWAP1 POP PUSH2 0x4F3 PUSH0 DUP4 ADD DUP5 PUSH2 0x4D1 JUMP JUMPDEST SWAP3 SWAP2 POP POP JUMP JUMPDEST PUSH0 PUSH0 REVERT JUMPDEST PUSH2 0x506 DUP2 PUSH2 0x4C0 JUMP JUMPDEST DUP2 EQ PUSH2 0x510 JUMPI PUSH0 PUSH0 REVERT JUMPDEST POP JUMP JUMPDEST PUSH0 DUP2 CALLDATALOAD SWAP1 POP PUSH2 0x521 DUP2 PUSH2 0x4FD JUMP JUMPDEST SWAP3 SWAP2 POP POP JUMP JUMPDEST PUSH0 PUSH1 0x20 DUP3 DUP5 SUB SLT ISZERO PUSH2 0x53C JUMPI PUSH2 0x53B PUSH2 0x4F9 JUMP JUMPDEST JUMPDEST PUSH0 PUSH2 0x549 DUP5 DUP3 DUP6 ADD PUSH2 0x513 JUMP JUMPDEST SWAP2 POP POP SWAP3 SWAP2 POP POP JUMP JUMPDEST PUSH0 DUP2 SWAP1 POP SWAP2 SWAP1 POP JUMP JUMPDEST PUSH2 0x564 DUP2 PUSH2 0x552 JUMP JUMPDEST DUP2 EQ PUSH2 0x56E JUMPI PUSH0 PUSH0 REVERT JUMPDEST POP JUMP JUMPDEST PUSH0 DUP2 MLOAD SWAP1 POP PUSH2 0x57F DUP2 PUSH2 0x55B JUMP JUMPDEST SWAP3 SWAP2 POP POP JUMP JUMPDEST PUSH0 PUSH1 0x20 DUP3 DUP5 SUB SLT ISZERO PUSH2 0x59A JUMPI PUSH2 0x599 PUSH2 0x4F9 JUMP JUMPDEST JUMPDEST PUSH0 PUSH2 0x5A7 DUP5 DUP3 DUP6 ADD PUSH2 0x571 JUMP JUMPDEST SWAP2 POP POP SWAP3 SWAP2 POP POP JUMP JUMPDEST PUSH32 0x4E487B7100000000000000000000000000000000000000000000000000000000 PUSH0 MSTORE PUSH1 0x11 PUSH1 0x4 MSTORE PUSH1 0x24 PUSH0 REVERT JUMPDEST PUSH0 PUSH2 0x5E7 DUP3 PUSH2 0x552 JUMP JUMPDEST SWAP2 POP PUSH2 0x5F2 DUP4 PUSH2 0x552 JUMP JUMPDEST SWAP3 POP DUP3 DUP3 MUL PUSH2 0x600 DUP2 PUSH2 0x552 JUMP JUMPDEST SWAP2 POP DUP3 DUP3 DIV DUP5 EQ DUP4 ISZERO OR PUSH2 0x617 JUMPI PUSH2 0x616 PUSH2 0x5B0 JUMP JUMPDEST JUMPDEST POP SWAP3 SWAP2 POP POP JUMP JUMPDEST PUSH32 0x4E487B7100000000000000000000000000000000000000000000000000000000 PUSH0 MSTORE PUSH1 0x12 PUSH1 0x4 MSTORE PUSH1 0x24 PUSH0 REVERT JUMPDEST PUSH0 PUSH2 0x655 DUP3 PUSH2 0x552 JUMP JUMPDEST SWAP2 POP PUSH2 0x660 DUP4 PUSH2 0x552 JUMP JUMPDEST SWAP3 POP DUP3 PUSH2 0x670 JUMPI PUSH2 0x66F PUSH2 0x61E JUMP JUMPDEST JUMPDEST DUP3 DUP3 DIV SWAP1 POP SWAP3 SWAP2 POP POP JUMP JUMPDEST PUSH2 0x684 DUP2 PUSH2 0x552 JUMP JUMPDEST DUP3 MSTORE POP POP JUMP JUMPDEST PUSH0 PUSH1 0x60 DUP3 ADD SWAP1 POP PUSH2 0x69D PUSH0 DUP4 ADD DUP7 PUSH2 0x67B JUMP JUMPDEST PUSH2 0x6AA PUSH1 0x20 DUP4 ADD DUP6 PUSH2 0x67B JUMP JUMPDEST PUSH2 0x6B7 PUSH1 0x40 DUP4 ADD DUP5 PUSH2 0x67B JUMP JUMPDEST SWAP5 SWAP4 POP POP POP POP JUMP INVALID LOG2 PUSH5 0x6970667358 0x22 SLT KECCAK256 XOR 0xD LOG0 0xD0 0xD PUSH2 0x33DC SGT 0xDF 0xAF STOP 0xD3 0xD0 SSTORE 0xCA DUP5 0xEB 0xC6 DUP13 CODECOPY EXTCODECOPY 0xE4 MSIZE SWAP4 DUP6 0x2C 0xB7 DUP6 0x21 0x2B 0xDE PUSH5 0x736F6C6343 STOP ADDMOD SHR STOP CALLER "
				},
				"gasEstimates": {
					"creation": {
						"codeDepositCost": "356200",
						"executionCost": "infinite",
						"totalCost": "infinite"
					},
					"external": {
						"calculateWeeklyProfits()": "infinite",
						"owner()": "2536",
						"prizeManager()": "2486",
						"renounceOwnership()": "infinite",
						"transferOwnership(address)": "infinite"
					}
				},
				"methodIdentifiers": {
					"calculateWeeklyProfits()": "de61e265",
					"owner()": "8da5cb5b",
					"prizeManager()": "3d6f4369",
					"renounceOwnership()": "715018a6",
					"transferOwnership(address)": "f2fde38b"
				}
			},
			"storageLayout": {
				"storage": [
					{
						"astId": 8,
						"contract": "contracts/VaultManager.sol:StablecoinVaultManager",
						"label": "_owner",
						"offset": 0,
						"slot": "0",
						"type": "t_address"
					},
					{
						"astId": 242,
						"contract": "contracts/VaultManager.sol:StablecoinVaultManager",
						"label": "prizeManager",
						"offset": 0,
						"slot": "1",
						"type": "t_address"
					}
				],
				"types": {
					"t_address": {
						"encoding": "inplace",
						"label": "address",
						"numberOfBytes": "20"
					}
				}
			},
			"userdoc": {
				"kind": "user",
				"methods": {},
				"version": 1
			}
		}
	}
}