{
	"contracts/PrizeManager.sol": {
		"PrizeManager": {
			"abi": [
				{
					"inputs": [
						{
							"internalType": "address",
							"name": "initialOwner",
							"type": "address"
						}
					],
					"stateMutability": "nonpayable",
					"type": "constructor"
				},
				{
					"inputs": [
						{
							"internalType": "address",
							"name": "owner",
							"type": "address"
						}
					],
					"name": "OwnableInvalidOwner",
					"type": "error"
				},
				{
					"inputs": [
						{
							"internalType": "address",
							"name": "account",
							"type": "address"
						}
					],
					"name": "OwnableUnauthorizedAccount",
					"type": "error"
				},
				{
					"anonymous": false,
					"inputs": [
						{
							"indexed": false,
							"internalType": "uint256",
							"name": "ownerDividend",
							"type": "uint256"
						},
						{
							"indexed": false,
							"internalType": "uint256",
							"name": "developerDividend",
							"type": "uint256"
						}
					],
					"name": "DividendsUpdated",
					"type": "event"
				},
				{
					"anonymous": false,
					"inputs": [
						{
							"indexed": true,
							"internalType": "address",
							"name": "previousOwner",
							"type": "address"
						},
						{
							"indexed": true,
							"internalType": "address",
							"name": "newOwner",
							"type": "address"
						}
					],
					"name": "OwnershipTransferred",
					"type": "event"
				},
				{
					"anonymous": false,
					"inputs": [
						{
							"indexed": false,
							"internalType": "uint256",
							"name": "superPrize",
							"type": "uint256"
						},
						{
							"indexed": false,
							"internalType": "uint256",
							"name": "highPrize",
							"type": "uint256"
						},
						{
							"indexed": false,
							"internalType": "uint256",
							"name": "middlePrize",
							"type": "uint256"
						},
						{
							"indexed": false,
							"internalType": "uint256",
							"name": "lowPrize",
							"type": "uint256"
						}
					],
					"name": "PrizePoolsUpdated",
					"type": "event"
				},
				{
					"anonymous": false,
					"inputs": [
						{
							"indexed": false,
							"internalType": "uint256",
							"name": "newPrizeScale",
							"type": "uint256"
						}
					],
					"name": "PrizeScaleUpdated",
					"type": "event"
				},
				{
					"anonymous": false,
					"inputs": [
						{
							"indexed": false,
							"internalType": "uint256",
							"name": "superPrizeWinners",
							"type": "uint256"
						},
						{
							"indexed": false,
							"internalType": "uint256",
							"name": "highPrizeWinners",
							"type": "uint256"
						},
						{
							"indexed": false,
							"internalType": "uint256",
							"name": "middlePrizeWinners",
							"type": "uint256"
						},
						{
							"indexed": false,
							"internalType": "uint256",
							"name": "lowPrizeWinners",
							"type": "uint256"
						}
					],
					"name": "PrizesDistributed",
					"type": "event"
				},
				{
					"inputs": [],
					"name": "checkPrizePoolDistribution",
					"outputs": [
						{
							"internalType": "bool",
							"name": "",
							"type": "bool"
						}
					],
					"stateMutability": "view",
					"type": "function"
				},
				{
					"inputs": [],
					"name": "developerDividend",
					"outputs": [
						{
							"internalType": "uint256",
							"name": "",
							"type": "uint256"
						}
					],
					"stateMutability": "view",
					"type": "function"
				},
				{
					"inputs": [],
					"name": "distributeDeveloperDividends",
					"outputs": [
						{
							"internalType": "bool",
							"name": "",
							"type": "bool"
						}
					],
					"stateMutability": "view",
					"type": "function"
				},
				{
					"inputs": [],
					"name": "distributeOwnerDividends",
					"outputs": [
						{
							"internalType": "bool",
							"name": "",
							"type": "bool"
						}
					],
					"stateMutability": "view",
					"type": "function"
				},
				{
					"inputs": [],
					"name": "generateWinners",
					"outputs": [],
					"stateMutability": "nonpayable",
					"type": "function"
				},
				{
					"inputs": [],
					"name": "highPrize",
					"outputs": [
						{
							"internalType": "uint256",
							"name": "",
							"type": "uint256"
						}
					],
					"stateMutability": "view",
					"type": "function"
				},
				{
					"inputs": [],
					"name": "lowPrize",
					"outputs": [
						{
							"internalType": "uint256",
							"name": "",
							"type": "uint256"
						}
					],
					"stateMutability": "view",
					"type": "function"
				},
				{
					"inputs": [],
					"name": "middlePrize",
					"outputs": [
						{
							"internalType": "uint256",
							"name": "",
							"type": "uint256"
						}
					],
					"stateMutability": "view",
					"type": "function"
				},
				{
					"inputs": [],
					"name": "owner",
					"outputs": [
						{
							"internalType": "address",
							"name": "",
							"type": "address"
						}
					],
					"stateMutability": "view",
					"type": "function"
				},
				{
					"inputs": [],
					"name": "ownerDividend",
					"outputs": [
						{
							"internalType": "uint256",
							"name": "",
							"type": "uint256"
						}
					],
					"stateMutability": "view",
					"type": "function"
				},
				{
					"inputs": [],
					"name": "prizeScale",
					"outputs": [
						{
							"internalType": "uint256",
							"name": "",
							"type": "uint256"
						}
					],
					"stateMutability": "view",
					"type": "function"
				},
				{
					"inputs": [],
					"name": "renounceOwnership",
					"outputs": [],
					"stateMutability": "nonpayable",
					"type": "function"
				},
				{
					"inputs": [],
					"name": "superPrize",
					"outputs": [
						{
							"internalType": "uint256",
							"name": "",
							"type": "uint256"
						}
					],
					"stateMutability": "view",
					"type": "function"
				},
				{
					"inputs": [
						{
							"internalType": "address",
							"name": "newOwner",
							"type": "address"
						}
					],
					"name": "transferOwnership",
					"outputs": [],
					"stateMutability": "nonpayable",
					"type": "function"
				},
				{
					"inputs": [
						{
							"internalType": "uint256",
							"name": "profits",
							"type": "uint256"
						}
					],
					"name": "updatePrizePools",
					"outputs": [],
					"stateMutability": "nonpayable",
					"type": "function"
				},
				{
					"inputs": [
						{
							"internalType": "uint256",
							"name": "newScale",
							"type": "uint256"
						}
					],
					"name": "updatePrizeScale",
					"outputs": [],
					"stateMutability": "nonpayable",
					"type": "function"
				}
			],
			"devdoc": {
				"details": "Manages prize pools, distributions, and random winner selection.",
				"errors": {
					"OwnableInvalidOwner(address)": [
						{
							"details": "The owner is not a valid owner account. (eg. `address(0)`)"
						}
					],
					"OwnableUnauthorizedAccount(address)": [
						{
							"details": "The caller account is not authorized to perform an operation."
						}
					]
				},
				"kind": "dev",
				"methods": {
					"checkPrizePoolDistribution()": {
						"details": "This function prepares for distribution but does not execute it."
					},
					"constructor": {
						"params": {
							"initialOwner": "Address of the initial owner."
						}
					},
					"generateWinners()": {
						"details": "This function will later be connected to a Chainlink oracle for randomness."
					},
					"owner()": {
						"details": "Returns the address of the current owner."
					},
					"renounceOwnership()": {
						"details": "Leaves the contract without owner. It will not be possible to call `onlyOwner` functions. Can only be called by the current owner. NOTE: Renouncing ownership will leave the contract without an owner, thereby disabling any functionality that is only available to the owner."
					},
					"transferOwnership(address)": {
						"details": "Transfers ownership of the contract to a new account (`newOwner`). Can only be called by the current owner."
					},
					"updatePrizePools(uint256)": {
						"params": {
							"profits": "Total profits accumulated over the week."
						}
					},
					"updatePrizeScale(uint256)": {
						"params": {
							"newScale": "The new prize scale value."
						}
					}
				},
				"title": "PrizeManager",
				"version": 1
			},
			"evm": {
				"assembly": "    /* \"contracts/PrizeManager.sol\":246:4024  contract PrizeManager is Ownable {... */\n  mstore(0x40, 0x80)\n    /* \"contracts/PrizeManager.sol\":592:594  10 */\n  0x0a\n    /* \"contracts/PrizeManager.sol\":564:594  uint256 public prizeScale = 10 */\n  0x07\n  sstore\n    /* \"contracts/PrizeManager.sol\":723:728  false */\n  0x00\n    /* \"contracts/PrizeManager.sol\":684:728  bool public distributeOwnerDividends = false */\n  0x09\n  exp(0x0100, 0x00)\n  dup2\n  sload\n  dup2\n  0xff\n  mul\n  not\n  and\n  swap1\n  dup4\n  iszero\n  iszero\n  mul\n  or\n  swap1\n  sstore\n  pop\n    /* \"contracts/PrizeManager.sol\":778:783  false */\n  0x00\n    /* \"contracts/PrizeManager.sol\":735:783  bool public distributeDeveloperDividends = false */\n  0x09\n  exp(0x0100, 0x01)\n  dup2\n  sload\n  dup2\n  0xff\n  mul\n  not\n  and\n  swap1\n  dup4\n  iszero\n  iszero\n  mul\n  or\n  swap1\n  sstore\n  pop\n    /* \"contracts/PrizeManager.sol\":1339:1397  constructor(address initialOwner) Ownable(initialOwner) {} */\n  callvalue\n  dup1\n  iszero\n  tag_1\n  jumpi\n  revert(0x00, 0x00)\ntag_1:\n  pop\n  mload(0x40)\n  sub(codesize, bytecodeSize)\n  dup1\n  bytecodeSize\n  dup4\n  codecopy\n  dup2\n  dup2\n  add\n  0x40\n  mstore\n  dup2\n  add\n  swap1\n  tag_2\n  swap2\n  swap1\n  tag_3\n  jump\t// in\ntag_2:\n    /* \"contracts/PrizeManager.sol\":1381:1393  initialOwner */\n  dup1\n    /* \"@openzeppelin/contracts/access/Ownable.sol\":1297:1298  0 */\n  0x00\n    /* \"@openzeppelin/contracts/access/Ownable.sol\":1273:1299  initialOwner == address(0) */\n  0xffffffffffffffffffffffffffffffffffffffff\n  and\n    /* \"@openzeppelin/contracts/access/Ownable.sol\":1273:1285  initialOwner */\n  dup2\n    /* \"@openzeppelin/contracts/access/Ownable.sol\":1273:1299  initialOwner == address(0) */\n  0xffffffffffffffffffffffffffffffffffffffff\n  and\n  sub\n    /* \"@openzeppelin/contracts/access/Ownable.sol\":1269:1364  if (initialOwner == address(0)) {... */\n  tag_7\n  jumpi\n    /* \"@openzeppelin/contracts/access/Ownable.sol\":1350:1351  0 */\n  0x00\n    /* \"@openzeppelin/contracts/access/Ownable.sol\":1322:1353  OwnableInvalidOwner(address(0)) */\n  mload(0x40)\n  0x1e4fbdf700000000000000000000000000000000000000000000000000000000\n  dup2\n  mstore\n  0x04\n  add\n  tag_8\n  swap2\n  swap1\n  tag_9\n  jump\t// in\ntag_8:\n  mload(0x40)\n  dup1\n  swap2\n  sub\n  swap1\n  revert\n    /* \"@openzeppelin/contracts/access/Ownable.sol\":1269:1364  if (initialOwner == address(0)) {... */\ntag_7:\n    /* \"@openzeppelin/contracts/access/Ownable.sol\":1373:1405  _transferOwnership(initialOwner) */\n  tag_10\n    /* \"@openzeppelin/contracts/access/Ownable.sol\":1392:1404  initialOwner */\n  dup2\n    /* \"@openzeppelin/contracts/access/Ownable.sol\":1373:1391  _transferOwnership */\n  shl(0x20, tag_11)\n    /* \"@openzeppelin/contracts/access/Ownable.sol\":1373:1405  _transferOwnership(initialOwner) */\n  0x20\n  shr\n  jump\t// in\ntag_10:\n    /* \"@openzeppelin/contracts/access/Ownable.sol\":1225:1412  constructor(address initialOwner) {... */\n  pop\n    /* \"contracts/PrizeManager.sol\":1339:1397  constructor(address initialOwner) Ownable(initialOwner) {} */\n  pop\n    /* \"contracts/PrizeManager.sol\":246:4024  contract PrizeManager is Ownable {... */\n  jump(tag_13)\n    /* \"@openzeppelin/contracts/access/Ownable.sol\":2912:3099  function _transferOwnership(address newOwner) internal virtual {... */\ntag_11:\n    /* \"@openzeppelin/contracts/access/Ownable.sol\":2985:3001  address oldOwner */\n  0x00\n    /* \"@openzeppelin/contracts/access/Ownable.sol\":3004:3010  _owner */\n  0x00\n  0x00\n  swap1\n  sload\n  swap1\n  0x0100\n  exp\n  swap1\n  div\n  0xffffffffffffffffffffffffffffffffffffffff\n  and\n    /* \"@openzeppelin/contracts/access/Ownable.sol\":2985:3010  address oldOwner = _owner */\n  swap1\n  pop\n    /* \"@openzeppelin/contracts/access/Ownable.sol\":3029:3037  newOwner */\n  dup2\n    /* \"@openzeppelin/contracts/access/Ownable.sol\":3020:3026  _owner */\n  0x00\n  0x00\n    /* \"@openzeppelin/contracts/access/Ownable.sol\":3020:3037  _owner = newOwner */\n  0x0100\n  exp\n  dup2\n  sload\n  dup2\n  0xffffffffffffffffffffffffffffffffffffffff\n  mul\n  not\n  and\n  swap1\n  dup4\n  0xffffffffffffffffffffffffffffffffffffffff\n  and\n  mul\n  or\n  swap1\n  sstore\n  pop\n    /* \"@openzeppelin/contracts/access/Ownable.sol\":3083:3091  newOwner */\n  dup2\n    /* \"@openzeppelin/contracts/access/Ownable.sol\":3052:3092  OwnershipTransferred(oldOwner, newOwner) */\n  0xffffffffffffffffffffffffffffffffffffffff\n  and\n    /* \"@openzeppelin/contracts/access/Ownable.sol\":3073:3081  oldOwner */\n  dup2\n    /* \"@openzeppelin/contracts/access/Ownable.sol\":3052:3092  OwnershipTransferred(oldOwner, newOwner) */\n  0xffffffffffffffffffffffffffffffffffffffff\n  and\n  0x8be0079c531659141344cd1fd0a4f28419497f9722a3daafe3b4186f6b6457e0\n  mload(0x40)\n  mload(0x40)\n  dup1\n  swap2\n  sub\n  swap1\n  log3\n    /* \"@openzeppelin/contracts/access/Ownable.sol\":2975:3099  {... */\n  pop\n    /* \"@openzeppelin/contracts/access/Ownable.sol\":2912:3099  function _transferOwnership(address newOwner) internal virtual {... */\n  pop\n  jump\t// out\n    /* \"#utility.yul\":88:205   */\ntag_16:\n    /* \"#utility.yul\":197:198   */\n  0x00\n    /* \"#utility.yul\":194:195   */\n  0x00\n    /* \"#utility.yul\":187:199   */\n  revert\n    /* \"#utility.yul\":334:460   */\ntag_18:\n    /* \"#utility.yul\":371:378   */\n  0x00\n    /* \"#utility.yul\":411:453   */\n  0xffffffffffffffffffffffffffffffffffffffff\n    /* \"#utility.yul\":404:409   */\n  dup3\n    /* \"#utility.yul\":400:454   */\n  and\n    /* \"#utility.yul\":389:454   */\n  swap1\n  pop\n    /* \"#utility.yul\":334:460   */\n  swap2\n  swap1\n  pop\n  jump\t// out\n    /* \"#utility.yul\":466:562   */\ntag_19:\n    /* \"#utility.yul\":503:510   */\n  0x00\n    /* \"#utility.yul\":532:556   */\n  tag_29\n    /* \"#utility.yul\":550:555   */\n  dup3\n    /* \"#utility.yul\":532:556   */\n  tag_18\n  jump\t// in\ntag_29:\n    /* \"#utility.yul\":521:556   */\n  swap1\n  pop\n    /* \"#utility.yul\":466:562   */\n  swap2\n  swap1\n  pop\n  jump\t// out\n    /* \"#utility.yul\":568:690   */\ntag_20:\n    /* \"#utility.yul\":641:665   */\n  tag_31\n    /* \"#utility.yul\":659:664   */\n  dup2\n    /* \"#utility.yul\":641:665   */\n  tag_19\n  jump\t// in\ntag_31:\n    /* \"#utility.yul\":634:639   */\n  dup2\n    /* \"#utility.yul\":631:666   */\n  eq\n    /* \"#utility.yul\":621:684   */\n  tag_32\n  jumpi\n    /* \"#utility.yul\":680:681   */\n  0x00\n    /* \"#utility.yul\":677:678   */\n  0x00\n    /* \"#utility.yul\":670:682   */\n  revert\n    /* \"#utility.yul\":621:684   */\ntag_32:\n    /* \"#utility.yul\":568:690   */\n  pop\n  jump\t// out\n    /* \"#utility.yul\":696:839   */\ntag_21:\n    /* \"#utility.yul\":753:758   */\n  0x00\n    /* \"#utility.yul\":784:790   */\n  dup2\n    /* \"#utility.yul\":778:791   */\n  mload\n    /* \"#utility.yul\":769:791   */\n  swap1\n  pop\n    /* \"#utility.yul\":800:833   */\n  tag_34\n    /* \"#utility.yul\":827:832   */\n  dup2\n    /* \"#utility.yul\":800:833   */\n  tag_20\n  jump\t// in\ntag_34:\n    /* \"#utility.yul\":696:839   */\n  swap3\n  swap2\n  pop\n  pop\n  jump\t// out\n    /* \"#utility.yul\":845:1196   */\ntag_3:\n    /* \"#utility.yul\":915:921   */\n  0x00\n    /* \"#utility.yul\":964:966   */\n  0x20\n    /* \"#utility.yul\":952:961   */\n  dup3\n    /* \"#utility.yul\":943:950   */\n  dup5\n    /* \"#utility.yul\":939:962   */\n  sub\n    /* \"#utility.yul\":935:967   */\n  slt\n    /* \"#utility.yul\":932:1051   */\n  iszero\n  tag_36\n  jumpi\n    /* \"#utility.yul\":970:1049   */\n  tag_37\n  tag_16\n  jump\t// in\ntag_37:\n    /* \"#utility.yul\":932:1051   */\ntag_36:\n    /* \"#utility.yul\":1090:1091   */\n  0x00\n    /* \"#utility.yul\":1115:1179   */\n  tag_38\n    /* \"#utility.yul\":1171:1178   */\n  dup5\n    /* \"#utility.yul\":1162:1168   */\n  dup3\n    /* \"#utility.yul\":1151:1160   */\n  dup6\n    /* \"#utility.yul\":1147:1169   */\n  add\n    /* \"#utility.yul\":1115:1179   */\n  tag_21\n  jump\t// in\ntag_38:\n    /* \"#utility.yul\":1105:1179   */\n  swap2\n  pop\n    /* \"#utility.yul\":1061:1189   */\n  pop\n    /* \"#utility.yul\":845:1196   */\n  swap3\n  swap2\n  pop\n  pop\n  jump\t// out\n    /* \"#utility.yul\":1202:1320   */\ntag_22:\n    /* \"#utility.yul\":1289:1313   */\n  tag_40\n    /* \"#utility.yul\":1307:1312   */\n  dup2\n    /* \"#utility.yul\":1289:1313   */\n  tag_19\n  jump\t// in\ntag_40:\n    /* \"#utility.yul\":1284:1287   */\n  dup3\n    /* \"#utility.yul\":1277:1314   */\n  mstore\n    /* \"#utility.yul\":1202:1320   */\n  pop\n  pop\n  jump\t// out\n    /* \"#utility.yul\":1326:1548   */\ntag_9:\n    /* \"#utility.yul\":1419:1423   */\n  0x00\n    /* \"#utility.yul\":1457:1459   */\n  0x20\n    /* \"#utility.yul\":1446:1455   */\n  dup3\n    /* \"#utility.yul\":1442:1460   */\n  add\n    /* \"#utility.yul\":1434:1460   */\n  swap1\n  pop\n    /* \"#utility.yul\":1470:1541   */\n  tag_42\n    /* \"#utility.yul\":1538:1539   */\n  0x00\n    /* \"#utility.yul\":1527:1536   */\n  dup4\n    /* \"#utility.yul\":1523:1540   */\n  add\n    /* \"#utility.yul\":1514:1520   */\n  dup5\n    /* \"#utility.yul\":1470:1541   */\n  tag_22\n  jump\t// in\ntag_42:\n    /* \"#utility.yul\":1326:1548   */\n  swap3\n  swap2\n  pop\n  pop\n  jump\t// out\n    /* \"contracts/PrizeManager.sol\":246:4024  contract PrizeManager is Ownable {... */\ntag_13:\n  dataSize(sub_0)\n  dup1\n  dataOffset(sub_0)\n  0x00\n  codecopy\n  0x00\n  return\nstop\n\nsub_0: assembly {\n        /* \"contracts/PrizeManager.sol\":246:4024  contract PrizeManager is Ownable {... */\n      mstore(0x40, 0x80)\n      callvalue\n      dup1\n      iszero\n      tag_1\n      jumpi\n      revert(0x00, 0x00)\n    tag_1:\n      pop\n      jumpi(tag_2, lt(calldatasize, 0x04))\n      shr(0xe0, calldataload(0x00))\n      dup1\n      0xab4d819f\n      gt\n      tag_19\n      jumpi\n      dup1\n      0xf1a002b1\n      gt\n      tag_20\n      jumpi\n      dup1\n      0xf1a002b1\n      eq\n      tag_15\n      jumpi\n      dup1\n      0xf2e27b65\n      eq\n      tag_16\n      jumpi\n      dup1\n      0xf2fde38b\n      eq\n      tag_17\n      jumpi\n      dup1\n      0xfb5274e5\n      eq\n      tag_18\n      jumpi\n      jump(tag_2)\n    tag_20:\n      dup1\n      0xab4d819f\n      eq\n      tag_11\n      jumpi\n      dup1\n      0xacdcf5f2\n      eq\n      tag_12\n      jumpi\n      dup1\n      0xcb3ebec2\n      eq\n      tag_13\n      jumpi\n      dup1\n      0xed22723a\n      eq\n      tag_14\n      jumpi\n      jump(tag_2)\n    tag_19:\n      dup1\n      0x715018a6\n      gt\n      tag_21\n      jumpi\n      dup1\n      0x715018a6\n      eq\n      tag_7\n      jumpi\n      dup1\n      0x7b820b83\n      eq\n      tag_8\n      jumpi\n      dup1\n      0x8da5cb5b\n      eq\n      tag_9\n      jumpi\n      dup1\n      0x9ad97fa0\n      eq\n      tag_10\n      jumpi\n      jump(tag_2)\n    tag_21:\n      dup1\n      0x11a1c8bd\n      eq\n      tag_3\n      jumpi\n      dup1\n      0x1934c786\n      eq\n      tag_4\n      jumpi\n      dup1\n      0x1f63000f\n      eq\n      tag_5\n      jumpi\n      dup1\n      0x638ad71d\n      eq\n      tag_6\n      jumpi\n    tag_2:\n      revert(0x00, 0x00)\n        /* \"contracts/PrizeManager.sol\":306:331  uint256 public superPrize */\n    tag_3:\n      tag_22\n      tag_23\n      jump\t// in\n    tag_22:\n      mload(0x40)\n      tag_24\n      swap2\n      swap1\n      tag_25\n      jump\t// in\n    tag_24:\n      mload(0x40)\n      dup1\n      swap2\n      sub\n      swap1\n      return\n        /* \"contracts/PrizeManager.sol\":487:519  uint256 public developerDividend */\n    tag_4:\n      tag_26\n      tag_27\n      jump\t// in\n    tag_26:\n      mload(0x40)\n      tag_28\n      swap2\n      swap1\n      tag_25\n      jump\t// in\n    tag_28:\n      mload(0x40)\n      dup1\n      swap2\n      sub\n      swap1\n      return\n        /* \"contracts/PrizeManager.sol\":735:783  bool public distributeDeveloperDividends = false */\n    tag_5:\n      tag_29\n      tag_30\n      jump\t// in\n    tag_29:\n      mload(0x40)\n      tag_31\n      swap2\n      swap1\n      tag_32\n      jump\t// in\n    tag_31:\n      mload(0x40)\n      dup1\n      swap2\n      sub\n      swap1\n      return\n        /* \"contracts/PrizeManager.sol\":402:425  uint256 public lowPrize */\n    tag_6:\n      tag_33\n      tag_34\n      jump\t// in\n    tag_33:\n      mload(0x40)\n      tag_35\n      swap2\n      swap1\n      tag_25\n      jump\t// in\n    tag_35:\n      mload(0x40)\n      dup1\n      swap2\n      sub\n      swap1\n      return\n        /* \"@openzeppelin/contracts/access/Ownable.sol\":2293:2394  function renounceOwnership() public virtual onlyOwner {... */\n    tag_7:\n      tag_36\n      tag_37\n      jump\t// in\n    tag_36:\n      stop\n        /* \"contracts/PrizeManager.sol\":338:362  uint256 public highPrize */\n    tag_8:\n      tag_38\n      tag_39\n      jump\t// in\n    tag_38:\n      mload(0x40)\n      tag_40\n      swap2\n      swap1\n      tag_25\n      jump\t// in\n    tag_40:\n      mload(0x40)\n      dup1\n      swap2\n      sub\n      swap1\n      return\n        /* \"@openzeppelin/contracts/access/Ownable.sol\":1638:1723  function owner() public view virtual returns (address) {... */\n    tag_9:\n      tag_41\n      tag_42\n      jump\t// in\n    tag_41:\n      mload(0x40)\n      tag_43\n      swap2\n      swap1\n      tag_44\n      jump\t// in\n    tag_43:\n      mload(0x40)\n      dup1\n      swap2\n      sub\n      swap1\n      return\n        /* \"contracts/PrizeManager.sol\":1566:2423  function updatePrizePools(uint256 profits) external onlyOwner {... */\n    tag_10:\n      tag_45\n      0x04\n      dup1\n      calldatasize\n      sub\n      dup2\n      add\n      swap1\n      tag_46\n      swap2\n      swap1\n      tag_47\n      jump\t// in\n    tag_46:\n      tag_48\n      jump\t// in\n    tag_45:\n      stop\n        /* \"contracts/PrizeManager.sol\":369:395  uint256 public middlePrize */\n    tag_11:\n      tag_49\n      tag_50\n      jump\t// in\n    tag_49:\n      mload(0x40)\n      tag_51\n      swap2\n      swap1\n      tag_25\n      jump\t// in\n    tag_51:\n      mload(0x40)\n      dup1\n      swap2\n      sub\n      swap1\n      return\n        /* \"contracts/PrizeManager.sol\":3239:3667  function checkPrizePoolDistribution() external view returns (bool) {... */\n    tag_12:\n      tag_52\n      tag_53\n      jump\t// in\n    tag_52:\n      mload(0x40)\n      tag_54\n      swap2\n      swap1\n      tag_32\n      jump\t// in\n    tag_54:\n      mload(0x40)\n      dup1\n      swap2\n      sub\n      swap1\n      return\n        /* \"contracts/PrizeManager.sol\":452:480  uint256 public ownerDividend */\n    tag_13:\n      tag_55\n      tag_56\n      jump\t// in\n    tag_55:\n      mload(0x40)\n      tag_57\n      swap2\n      swap1\n      tag_25\n      jump\t// in\n    tag_57:\n      mload(0x40)\n      dup1\n      swap2\n      sub\n      swap1\n      return\n        /* \"contracts/PrizeManager.sol\":564:594  uint256 public prizeScale = 10 */\n    tag_14:\n      tag_58\n      tag_59\n      jump\t// in\n    tag_58:\n      mload(0x40)\n      tag_60\n      swap2\n      swap1\n      tag_25\n      jump\t// in\n    tag_60:\n      mload(0x40)\n      dup1\n      swap2\n      sub\n      swap1\n      return\n        /* \"contracts/PrizeManager.sol\":684:728  bool public distributeOwnerDividends = false */\n    tag_15:\n      tag_61\n      tag_62\n      jump\t// in\n    tag_61:\n      mload(0x40)\n      tag_63\n      swap2\n      swap1\n      tag_32\n      jump\t// in\n    tag_63:\n      mload(0x40)\n      dup1\n      swap2\n      sub\n      swap1\n      return\n        /* \"contracts/PrizeManager.sol\":2583:3049  function updatePrizeScale(uint256 newScale) external {... */\n    tag_16:\n      tag_64\n      0x04\n      dup1\n      calldatasize\n      sub\n      dup2\n      add\n      swap1\n      tag_65\n      swap2\n      swap1\n      tag_47\n      jump\t// in\n    tag_65:\n      tag_66\n      jump\t// in\n    tag_64:\n      stop\n        /* \"@openzeppelin/contracts/access/Ownable.sol\":2543:2758  function transferOwnership(address newOwner) public virtual onlyOwner {... */\n    tag_17:\n      tag_67\n      0x04\n      dup1\n      calldatasize\n      sub\n      dup2\n      add\n      swap1\n      tag_68\n      swap2\n      swap1\n      tag_69\n      jump\t// in\n    tag_68:\n      tag_70\n      jump\t// in\n    tag_67:\n      stop\n        /* \"contracts/PrizeManager.sol\":3837:4021  function generateWinners() external onlyOwner {... */\n    tag_18:\n      tag_71\n      tag_72\n      jump\t// in\n    tag_71:\n      stop\n        /* \"contracts/PrizeManager.sol\":306:331  uint256 public superPrize */\n    tag_23:\n      sload(0x01)\n      dup2\n      jump\t// out\n        /* \"contracts/PrizeManager.sol\":487:519  uint256 public developerDividend */\n    tag_27:\n      sload(0x06)\n      dup2\n      jump\t// out\n        /* \"contracts/PrizeManager.sol\":735:783  bool public distributeDeveloperDividends = false */\n    tag_30:\n      0x09\n      0x01\n      swap1\n      sload\n      swap1\n      0x0100\n      exp\n      swap1\n      div\n      0xff\n      and\n      dup2\n      jump\t// out\n        /* \"contracts/PrizeManager.sol\":402:425  uint256 public lowPrize */\n    tag_34:\n      sload(0x04)\n      dup2\n      jump\t// out\n        /* \"@openzeppelin/contracts/access/Ownable.sol\":2293:2394  function renounceOwnership() public virtual onlyOwner {... */\n    tag_37:\n        /* \"@openzeppelin/contracts/access/Ownable.sol\":1531:1544  _checkOwner() */\n      tag_74\n        /* \"@openzeppelin/contracts/access/Ownable.sol\":1531:1542  _checkOwner */\n      tag_75\n        /* \"@openzeppelin/contracts/access/Ownable.sol\":1531:1544  _checkOwner() */\n      jump\t// in\n    tag_74:\n        /* \"@openzeppelin/contracts/access/Ownable.sol\":2357:2387  _transferOwnership(address(0)) */\n      tag_77\n        /* \"@openzeppelin/contracts/access/Ownable.sol\":2384:2385  0 */\n      0x00\n        /* \"@openzeppelin/contracts/access/Ownable.sol\":2357:2375  _transferOwnership */\n      tag_78\n        /* \"@openzeppelin/contracts/access/Ownable.sol\":2357:2387  _transferOwnership(address(0)) */\n      jump\t// in\n    tag_77:\n        /* \"@openzeppelin/contracts/access/Ownable.sol\":2293:2394  function renounceOwnership() public virtual onlyOwner {... */\n      jump\t// out\n        /* \"contracts/PrizeManager.sol\":338:362  uint256 public highPrize */\n    tag_39:\n      sload(0x02)\n      dup2\n      jump\t// out\n        /* \"@openzeppelin/contracts/access/Ownable.sol\":1638:1723  function owner() public view virtual returns (address) {... */\n    tag_42:\n        /* \"@openzeppelin/contracts/access/Ownable.sol\":1684:1691  address */\n      0x00\n        /* \"@openzeppelin/contracts/access/Ownable.sol\":1710:1716  _owner */\n      0x00\n      0x00\n      swap1\n      sload\n      swap1\n      0x0100\n      exp\n      swap1\n      div\n      0xffffffffffffffffffffffffffffffffffffffff\n      and\n        /* \"@openzeppelin/contracts/access/Ownable.sol\":1703:1716  return _owner */\n      swap1\n      pop\n        /* \"@openzeppelin/contracts/access/Ownable.sol\":1638:1723  function owner() public view virtual returns (address) {... */\n      swap1\n      jump\t// out\n        /* \"contracts/PrizeManager.sol\":1566:2423  function updatePrizePools(uint256 profits) external onlyOwner {... */\n    tag_48:\n        /* \"@openzeppelin/contracts/access/Ownable.sol\":1531:1544  _checkOwner() */\n      tag_81\n        /* \"@openzeppelin/contracts/access/Ownable.sol\":1531:1542  _checkOwner */\n      tag_75\n        /* \"@openzeppelin/contracts/access/Ownable.sol\":1531:1544  _checkOwner() */\n      jump\t// in\n    tag_81:\n        /* \"contracts/PrizeManager.sol\":1657:1658  0 */\n      0x00\n        /* \"contracts/PrizeManager.sol\":1647:1654  profits */\n      dup2\n        /* \"contracts/PrizeManager.sol\":1647:1658  profits > 0 */\n      gt\n        /* \"contracts/PrizeManager.sol\":1639:1687  require(profits > 0, \"No profits to distribute\") */\n      tag_83\n      jumpi\n      mload(0x40)\n      0x08c379a000000000000000000000000000000000000000000000000000000000\n      dup2\n      mstore\n      0x04\n      add\n      tag_84\n      swap1\n      tag_85\n      jump\t// in\n    tag_84:\n      mload(0x40)\n      dup1\n      swap2\n      sub\n      swap1\n      revert\n    tag_83:\n        /* \"contracts/PrizeManager.sol\":1700:1718  uint256 prizeShare */\n      0x00\n        /* \"contracts/PrizeManager.sol\":1738:1741  100 */\n      0x64\n        /* \"contracts/PrizeManager.sol\":1732:1734  50 */\n      0x32\n        /* \"contracts/PrizeManager.sol\":1722:1729  profits */\n      dup4\n        /* \"contracts/PrizeManager.sol\":1722:1734  profits * 50 */\n      tag_86\n      swap2\n      swap1\n      tag_87\n      jump\t// in\n    tag_86:\n        /* \"contracts/PrizeManager.sol\":1721:1741  (profits * 50) / 100 */\n      tag_88\n      swap2\n      swap1\n      tag_89\n      jump\t// in\n    tag_88:\n        /* \"contracts/PrizeManager.sol\":1700:1741  uint256 prizeShare = (profits * 50) / 100 */\n      swap1\n      pop\n        /* \"contracts/PrizeManager.sol\":1775:1796  uint256 dividendShare */\n      0x00\n        /* \"contracts/PrizeManager.sol\":1815:1818  100 */\n      0x64\n        /* \"contracts/PrizeManager.sol\":1810:1811  5 */\n      0x05\n        /* \"contracts/PrizeManager.sol\":1800:1807  profits */\n      dup5\n        /* \"contracts/PrizeManager.sol\":1800:1811  profits * 5 */\n      tag_90\n      swap2\n      swap1\n      tag_87\n      jump\t// in\n    tag_90:\n        /* \"contracts/PrizeManager.sol\":1799:1818  (profits * 5) / 100 */\n      tag_91\n      swap2\n      swap1\n      tag_89\n      jump\t// in\n    tag_91:\n        /* \"contracts/PrizeManager.sol\":1775:1818  uint256 dividendShare = (profits * 5) / 100 */\n      swap1\n      pop\n        /* \"contracts/PrizeManager.sol\":1920:1923  100 */\n      0x64\n        /* \"contracts/PrizeManager.sol\":1914:1916  10 */\n      0x0a\n        /* \"contracts/PrizeManager.sol\":1901:1911  prizeShare */\n      dup4\n        /* \"contracts/PrizeManager.sol\":1901:1916  prizeShare * 10 */\n      tag_92\n      swap2\n      swap1\n      tag_87\n      jump\t// in\n    tag_92:\n        /* \"contracts/PrizeManager.sol\":1900:1923  (prizeShare * 10) / 100 */\n      tag_93\n      swap2\n      swap1\n      tag_89\n      jump\t// in\n    tag_93:\n        /* \"contracts/PrizeManager.sol\":1886:1896  superPrize */\n      0x01\n      0x00\n        /* \"contracts/PrizeManager.sol\":1886:1923  superPrize += (prizeShare * 10) / 100 */\n      dup3\n      dup3\n      sload\n      tag_94\n      swap2\n      swap1\n      tag_95\n      jump\t// in\n    tag_94:\n      swap3\n      pop\n      pop\n      dup2\n      swap1\n      sstore\n      pop\n        /* \"contracts/PrizeManager.sol\":1989:1992  100 */\n      0x64\n        /* \"contracts/PrizeManager.sol\":1983:1985  10 */\n      0x0a\n        /* \"contracts/PrizeManager.sol\":1970:1980  prizeShare */\n      dup4\n        /* \"contracts/PrizeManager.sol\":1970:1985  prizeShare * 10 */\n      tag_96\n      swap2\n      swap1\n      tag_87\n      jump\t// in\n    tag_96:\n        /* \"contracts/PrizeManager.sol\":1969:1992  (prizeShare * 10) / 100 */\n      tag_97\n      swap2\n      swap1\n      tag_89\n      jump\t// in\n    tag_97:\n        /* \"contracts/PrizeManager.sol\":1956:1965  highPrize */\n      0x02\n      0x00\n        /* \"contracts/PrizeManager.sol\":1956:1992  highPrize += (prizeShare * 10) / 100 */\n      dup3\n      dup3\n      sload\n      tag_98\n      swap2\n      swap1\n      tag_95\n      jump\t// in\n    tag_98:\n      swap3\n      pop\n      pop\n      dup2\n      swap1\n      sstore\n      pop\n        /* \"contracts/PrizeManager.sol\":2059:2062  100 */\n      0x64\n        /* \"contracts/PrizeManager.sol\":2053:2055  10 */\n      0x0a\n        /* \"contracts/PrizeManager.sol\":2040:2050  prizeShare */\n      dup4\n        /* \"contracts/PrizeManager.sol\":2040:2055  prizeShare * 10 */\n      tag_99\n      swap2\n      swap1\n      tag_87\n      jump\t// in\n    tag_99:\n        /* \"contracts/PrizeManager.sol\":2039:2062  (prizeShare * 10) / 100 */\n      tag_100\n      swap2\n      swap1\n      tag_89\n      jump\t// in\n    tag_100:\n        /* \"contracts/PrizeManager.sol\":2024:2035  middlePrize */\n      0x03\n      0x00\n        /* \"contracts/PrizeManager.sol\":2024:2062  middlePrize += (prizeShare * 10) / 100 */\n      dup3\n      dup3\n      sload\n      tag_101\n      swap2\n      swap1\n      tag_95\n      jump\t// in\n    tag_101:\n      swap3\n      pop\n      pop\n      dup2\n      swap1\n      sstore\n      pop\n        /* \"contracts/PrizeManager.sol\":2128:2131  100 */\n      0x64\n        /* \"contracts/PrizeManager.sol\":2122:2124  10 */\n      0x0a\n        /* \"contracts/PrizeManager.sol\":2109:2119  prizeShare */\n      dup4\n        /* \"contracts/PrizeManager.sol\":2109:2124  prizeShare * 10 */\n      tag_102\n      swap2\n      swap1\n      tag_87\n      jump\t// in\n    tag_102:\n        /* \"contracts/PrizeManager.sol\":2108:2131  (prizeShare * 10) / 100 */\n      tag_103\n      swap2\n      swap1\n      tag_89\n      jump\t// in\n    tag_103:\n        /* \"contracts/PrizeManager.sol\":2096:2104  lowPrize */\n      0x04\n      0x00\n        /* \"contracts/PrizeManager.sol\":2096:2131  lowPrize += (prizeShare * 10) / 100 */\n      dup3\n      dup3\n      sload\n      tag_104\n      swap2\n      swap1\n      tag_95\n      jump\t// in\n    tag_104:\n      swap3\n      pop\n      pop\n      dup2\n      swap1\n      sstore\n      pop\n        /* \"contracts/PrizeManager.sol\":2210:2223  dividendShare */\n      dup1\n        /* \"contracts/PrizeManager.sol\":2193:2206  ownerDividend */\n      0x05\n      0x00\n        /* \"contracts/PrizeManager.sol\":2193:2223  ownerDividend += dividendShare */\n      dup3\n      dup3\n      sload\n      tag_105\n      swap2\n      swap1\n      tag_95\n      jump\t// in\n    tag_105:\n      swap3\n      pop\n      pop\n      dup2\n      swap1\n      sstore\n      pop\n        /* \"contracts/PrizeManager.sol\":2255:2268  dividendShare */\n      dup1\n        /* \"contracts/PrizeManager.sol\":2234:2251  developerDividend */\n      0x06\n      0x00\n        /* \"contracts/PrizeManager.sol\":2234:2268  developerDividend += dividendShare */\n      dup3\n      dup3\n      sload\n      tag_106\n      swap2\n      swap1\n      tag_95\n      jump\t// in\n    tag_106:\n      swap3\n      pop\n      pop\n      dup2\n      swap1\n      sstore\n      pop\n        /* \"contracts/PrizeManager.sol\":2286:2349  PrizePoolsUpdated(superPrize, highPrize, middlePrize, lowPrize) */\n      0xc1879f0406577975a5876a8db2ec1549e2a3194f0f01e15bde4292d6e4b36824\n        /* \"contracts/PrizeManager.sol\":2304:2314  superPrize */\n      sload(0x01)\n        /* \"contracts/PrizeManager.sol\":2316:2325  highPrize */\n      sload(0x02)\n        /* \"contracts/PrizeManager.sol\":2327:2338  middlePrize */\n      sload(0x03)\n        /* \"contracts/PrizeManager.sol\":2340:2348  lowPrize */\n      sload(0x04)\n        /* \"contracts/PrizeManager.sol\":2286:2349  PrizePoolsUpdated(superPrize, highPrize, middlePrize, lowPrize) */\n      mload(0x40)\n      tag_107\n      swap5\n      swap4\n      swap3\n      swap2\n      swap1\n      tag_108\n      jump\t// in\n    tag_107:\n      mload(0x40)\n      dup1\n      swap2\n      sub\n      swap1\n      log1\n        /* \"contracts/PrizeManager.sol\":2365:2415  DividendsUpdated(ownerDividend, developerDividend) */\n      0xbbb79063c8e8bcd7691a017e4e76c5de1369686b9f0674f946b0129041525b59\n        /* \"contracts/PrizeManager.sol\":2382:2395  ownerDividend */\n      sload(0x05)\n        /* \"contracts/PrizeManager.sol\":2397:2414  developerDividend */\n      sload(0x06)\n        /* \"contracts/PrizeManager.sol\":2365:2415  DividendsUpdated(ownerDividend, developerDividend) */\n      mload(0x40)\n      tag_109\n      swap3\n      swap2\n      swap1\n      tag_110\n      jump\t// in\n    tag_109:\n      mload(0x40)\n      dup1\n      swap2\n      sub\n      swap1\n      log1\n        /* \"contracts/PrizeManager.sol\":1628:2423  {... */\n      pop\n      pop\n        /* \"contracts/PrizeManager.sol\":1566:2423  function updatePrizePools(uint256 profits) external onlyOwner {... */\n      pop\n      jump\t// out\n        /* \"contracts/PrizeManager.sol\":369:395  uint256 public middlePrize */\n    tag_50:\n      sload(0x03)\n      dup2\n      jump\t// out\n        /* \"contracts/PrizeManager.sol\":3239:3667  function checkPrizePoolDistribution() external view returns (bool) {... */\n    tag_53:\n        /* \"contracts/PrizeManager.sol\":3300:3304  bool */\n      0x00\n        /* \"contracts/PrizeManager.sol\":3317:3336  uint256 totalNeeded */\n      0x00\n        /* \"contracts/PrizeManager.sol\":3509:3510  1 */\n      0x01\n        /* \"contracts/PrizeManager.sol\":3496:3506  prizeScale */\n      sload(0x07)\n        /* \"contracts/PrizeManager.sol\":3496:3510  prizeScale * 1 */\n      tag_112\n      swap2\n      swap1\n      tag_87\n      jump\t// in\n    tag_112:\n        /* \"contracts/PrizeManager.sol\":3460:3462  10 */\n      0x0a\n        /* \"contracts/PrizeManager.sol\":3447:3457  prizeScale */\n      sload(0x07)\n        /* \"contracts/PrizeManager.sol\":3447:3462  prizeScale * 10 */\n      tag_113\n      swap2\n      swap1\n      tag_87\n      jump\t// in\n    tag_113:\n        /* \"contracts/PrizeManager.sol\":3413:3416  100 */\n      0x64\n        /* \"contracts/PrizeManager.sol\":3400:3410  prizeScale */\n      sload(0x07)\n        /* \"contracts/PrizeManager.sol\":3400:3416  prizeScale * 100 */\n      tag_114\n      swap2\n      swap1\n      tag_87\n      jump\t// in\n    tag_114:\n        /* \"contracts/PrizeManager.sol\":3365:3369  1000 */\n      0x03e8\n        /* \"contracts/PrizeManager.sol\":3352:3362  prizeScale */\n      sload(0x07)\n        /* \"contracts/PrizeManager.sol\":3352:3369  prizeScale * 1000 */\n      tag_115\n      swap2\n      swap1\n      tag_87\n      jump\t// in\n    tag_115:\n        /* \"contracts/PrizeManager.sol\":3352:3416  prizeScale * 1000 + // Super prize... */\n      tag_116\n      swap2\n      swap1\n      tag_95\n      jump\t// in\n    tag_116:\n        /* \"contracts/PrizeManager.sol\":3352:3462  prizeScale * 1000 + // Super prize... */\n      tag_117\n      swap2\n      swap1\n      tag_95\n      jump\t// in\n    tag_117:\n        /* \"contracts/PrizeManager.sol\":3352:3510  prizeScale * 1000 + // Super prize... */\n      tag_118\n      swap2\n      swap1\n      tag_95\n      jump\t// in\n    tag_118:\n        /* \"contracts/PrizeManager.sol\":3317:3510  uint256 totalNeeded =... */\n      swap1\n      pop\n        /* \"contracts/PrizeManager.sol\":3562:3573  totalNeeded */\n      dup1\n        /* \"contracts/PrizeManager.sol\":3548:3558  superPrize */\n      sload(0x01)\n        /* \"contracts/PrizeManager.sol\":3548:3573  superPrize >= totalNeeded */\n      lt\n      iszero\n        /* \"contracts/PrizeManager.sol\":3548:3601  superPrize >= totalNeeded || highPrize >= totalNeeded */\n      dup1\n      tag_119\n      jumpi\n      pop\n        /* \"contracts/PrizeManager.sol\":3590:3601  totalNeeded */\n      dup1\n        /* \"contracts/PrizeManager.sol\":3577:3586  highPrize */\n      sload(0x02)\n        /* \"contracts/PrizeManager.sol\":3577:3601  highPrize >= totalNeeded */\n      lt\n      iszero\n        /* \"contracts/PrizeManager.sol\":3548:3601  superPrize >= totalNeeded || highPrize >= totalNeeded */\n    tag_119:\n        /* \"contracts/PrizeManager.sol\":3548:3631  superPrize >= totalNeeded || highPrize >= totalNeeded || middlePrize >= totalNeeded */\n      dup1\n      tag_120\n      jumpi\n      pop\n        /* \"contracts/PrizeManager.sol\":3620:3631  totalNeeded */\n      dup1\n        /* \"contracts/PrizeManager.sol\":3605:3616  middlePrize */\n      sload(0x03)\n        /* \"contracts/PrizeManager.sol\":3605:3631  middlePrize >= totalNeeded */\n      lt\n      iszero\n        /* \"contracts/PrizeManager.sol\":3548:3631  superPrize >= totalNeeded || highPrize >= totalNeeded || middlePrize >= totalNeeded */\n    tag_120:\n        /* \"contracts/PrizeManager.sol\":3548:3658  superPrize >= totalNeeded || highPrize >= totalNeeded || middlePrize >= totalNeeded || lowPrize >= totalNeeded */\n      dup1\n      tag_121\n      jumpi\n      pop\n        /* \"contracts/PrizeManager.sol\":3647:3658  totalNeeded */\n      dup1\n        /* \"contracts/PrizeManager.sol\":3635:3643  lowPrize */\n      sload(0x04)\n        /* \"contracts/PrizeManager.sol\":3635:3658  lowPrize >= totalNeeded */\n      lt\n      iszero\n        /* \"contracts/PrizeManager.sol\":3548:3658  superPrize >= totalNeeded || highPrize >= totalNeeded || middlePrize >= totalNeeded || lowPrize >= totalNeeded */\n    tag_121:\n        /* \"contracts/PrizeManager.sol\":3540:3659  return (superPrize >= totalNeeded || highPrize >= totalNeeded || middlePrize >= totalNeeded || lowPrize >= totalNeeded) */\n      swap2\n      pop\n      pop\n        /* \"contracts/PrizeManager.sol\":3239:3667  function checkPrizePoolDistribution() external view returns (bool) {... */\n      swap1\n      jump\t// out\n        /* \"contracts/PrizeManager.sol\":452:480  uint256 public ownerDividend */\n    tag_56:\n      sload(0x05)\n      dup2\n      jump\t// out\n        /* \"contracts/PrizeManager.sol\":564:594  uint256 public prizeScale = 10 */\n    tag_59:\n      sload(0x07)\n      dup2\n      jump\t// out\n        /* \"contracts/PrizeManager.sol\":684:728  bool public distributeOwnerDividends = false */\n    tag_62:\n      0x09\n      0x00\n      swap1\n      sload\n      swap1\n      0x0100\n      exp\n      swap1\n      div\n      0xff\n      and\n      dup2\n      jump\t// out\n        /* \"contracts/PrizeManager.sol\":2583:3049  function updatePrizeScale(uint256 newScale) external {... */\n    tag_66:\n        /* \"contracts/PrizeManager.sol\":2669:2676  owner() */\n      tag_123\n        /* \"contracts/PrizeManager.sol\":2669:2674  owner */\n      tag_42\n        /* \"contracts/PrizeManager.sol\":2669:2676  owner() */\n      jump\t// in\n    tag_123:\n        /* \"contracts/PrizeManager.sol\":2655:2676  msg.sender == owner() */\n      0xffffffffffffffffffffffffffffffffffffffff\n      and\n        /* \"contracts/PrizeManager.sol\":2655:2665  msg.sender */\n      caller\n        /* \"contracts/PrizeManager.sol\":2655:2676  msg.sender == owner() */\n      0xffffffffffffffffffffffffffffffffffffffff\n      and\n      eq\n        /* \"contracts/PrizeManager.sol\":2655:2703  msg.sender == owner() || msg.sender == tx.origin */\n      dup1\n      tag_124\n      jumpi\n      pop\n        /* \"contracts/PrizeManager.sol\":2694:2703  tx.origin */\n      origin\n        /* \"contracts/PrizeManager.sol\":2680:2703  msg.sender == tx.origin */\n      0xffffffffffffffffffffffffffffffffffffffff\n      and\n        /* \"contracts/PrizeManager.sol\":2680:2690  msg.sender */\n      caller\n        /* \"contracts/PrizeManager.sol\":2680:2703  msg.sender == tx.origin */\n      0xffffffffffffffffffffffffffffffffffffffff\n      and\n      eq\n        /* \"contracts/PrizeManager.sol\":2655:2703  msg.sender == owner() || msg.sender == tx.origin */\n    tag_124:\n        /* \"contracts/PrizeManager.sol\":2647:2722  require(msg.sender == owner() || msg.sender == tx.origin, \"Not authorized\") */\n      tag_125\n      jumpi\n      mload(0x40)\n      0x08c379a000000000000000000000000000000000000000000000000000000000\n      dup2\n      mstore\n      0x04\n      add\n      tag_126\n      swap1\n      tag_127\n      jump\t// in\n    tag_126:\n      mload(0x40)\n      dup1\n      swap2\n      sub\n      swap1\n      revert\n    tag_125:\n        /* \"contracts/PrizeManager.sol\":2783:2790  1 weeks */\n      0x093a80\n        /* \"contracts/PrizeManager.sol\":2760:2780  lastPrizeScaleUpdate */\n      sload(0x08)\n        /* \"contracts/PrizeManager.sol\":2760:2790  lastPrizeScaleUpdate + 1 weeks */\n      tag_128\n      swap2\n      swap1\n      tag_95\n      jump\t// in\n    tag_128:\n        /* \"contracts/PrizeManager.sol\":2741:2756  block.timestamp */\n      timestamp\n        /* \"contracts/PrizeManager.sol\":2741:2790  block.timestamp >= lastPrizeScaleUpdate + 1 weeks */\n      lt\n      iszero\n        /* \"contracts/PrizeManager.sol\":2733:2840  require(block.timestamp >= lastPrizeScaleUpdate + 1 weeks, \"Prize scale can only be updated once per week\") */\n      tag_129\n      jumpi\n      mload(0x40)\n      0x08c379a000000000000000000000000000000000000000000000000000000000\n      dup2\n      mstore\n      0x04\n      add\n      tag_130\n      swap1\n      tag_131\n      jump\t// in\n    tag_130:\n      mload(0x40)\n      dup1\n      swap2\n      sub\n      swap1\n      revert\n    tag_129:\n        /* \"contracts/PrizeManager.sol\":2870:2871  0 */\n      0x00\n        /* \"contracts/PrizeManager.sol\":2859:2867  newScale */\n      dup2\n        /* \"contracts/PrizeManager.sol\":2859:2871  newScale > 0 */\n      gt\n        /* \"contracts/PrizeManager.sol\":2851:2913  require(newScale > 0, \"Prize scale must be greater than zero\") */\n      tag_132\n      jumpi\n      mload(0x40)\n      0x08c379a000000000000000000000000000000000000000000000000000000000\n      dup2\n      mstore\n      0x04\n      add\n      tag_133\n      swap1\n      tag_134\n      jump\t// in\n    tag_133:\n      mload(0x40)\n      dup1\n      swap2\n      sub\n      swap1\n      revert\n    tag_132:\n        /* \"contracts/PrizeManager.sol\":2939:2947  newScale */\n      dup1\n        /* \"contracts/PrizeManager.sol\":2926:2936  prizeScale */\n      0x07\n        /* \"contracts/PrizeManager.sol\":2926:2947  prizeScale = newScale */\n      dup2\n      swap1\n      sstore\n      pop\n        /* \"contracts/PrizeManager.sol\":2981:2996  block.timestamp */\n      timestamp\n        /* \"contracts/PrizeManager.sol\":2958:2978  lastPrizeScaleUpdate */\n      0x08\n        /* \"contracts/PrizeManager.sol\":2958:2996  lastPrizeScaleUpdate = block.timestamp */\n      dup2\n      swap1\n      sstore\n      pop\n        /* \"contracts/PrizeManager.sol\":3014:3041  PrizeScaleUpdated(newScale) */\n      0xbe74989b82c125ec369bdc21c95661e14a1d97c700ebdef03b84c0da6fc93c5a\n        /* \"contracts/PrizeManager.sol\":3032:3040  newScale */\n      dup2\n        /* \"contracts/PrizeManager.sol\":3014:3041  PrizeScaleUpdated(newScale) */\n      mload(0x40)\n      tag_135\n      swap2\n      swap1\n      tag_25\n      jump\t// in\n    tag_135:\n      mload(0x40)\n      dup1\n      swap2\n      sub\n      swap1\n      log1\n        /* \"contracts/PrizeManager.sol\":2583:3049  function updatePrizeScale(uint256 newScale) external {... */\n      pop\n      jump\t// out\n        /* \"@openzeppelin/contracts/access/Ownable.sol\":2543:2758  function transferOwnership(address newOwner) public virtual onlyOwner {... */\n    tag_70:\n        /* \"@openzeppelin/contracts/access/Ownable.sol\":1531:1544  _checkOwner() */\n      tag_137\n        /* \"@openzeppelin/contracts/access/Ownable.sol\":1531:1542  _checkOwner */\n      tag_75\n        /* \"@openzeppelin/contracts/access/Ownable.sol\":1531:1544  _checkOwner() */\n      jump\t// in\n    tag_137:\n        /* \"@openzeppelin/contracts/access/Ownable.sol\":2647:2648  0 */\n      0x00\n        /* \"@openzeppelin/contracts/access/Ownable.sol\":2627:2649  newOwner == address(0) */\n      0xffffffffffffffffffffffffffffffffffffffff\n      and\n        /* \"@openzeppelin/contracts/access/Ownable.sol\":2627:2635  newOwner */\n      dup2\n        /* \"@openzeppelin/contracts/access/Ownable.sol\":2627:2649  newOwner == address(0) */\n      0xffffffffffffffffffffffffffffffffffffffff\n      and\n      sub\n        /* \"@openzeppelin/contracts/access/Ownable.sol\":2623:2714  if (newOwner == address(0)) {... */\n      tag_139\n      jumpi\n        /* \"@openzeppelin/contracts/access/Ownable.sol\":2700:2701  0 */\n      0x00\n        /* \"@openzeppelin/contracts/access/Ownable.sol\":2672:2703  OwnableInvalidOwner(address(0)) */\n      mload(0x40)\n      0x1e4fbdf700000000000000000000000000000000000000000000000000000000\n      dup2\n      mstore\n      0x04\n      add\n      tag_140\n      swap2\n      swap1\n      tag_44\n      jump\t// in\n    tag_140:\n      mload(0x40)\n      dup1\n      swap2\n      sub\n      swap1\n      revert\n        /* \"@openzeppelin/contracts/access/Ownable.sol\":2623:2714  if (newOwner == address(0)) {... */\n    tag_139:\n        /* \"@openzeppelin/contracts/access/Ownable.sol\":2723:2751  _transferOwnership(newOwner) */\n      tag_141\n        /* \"@openzeppelin/contracts/access/Ownable.sol\":2742:2750  newOwner */\n      dup2\n        /* \"@openzeppelin/contracts/access/Ownable.sol\":2723:2741  _transferOwnership */\n      tag_78\n        /* \"@openzeppelin/contracts/access/Ownable.sol\":2723:2751  _transferOwnership(newOwner) */\n      jump\t// in\n    tag_141:\n        /* \"@openzeppelin/contracts/access/Ownable.sol\":2543:2758  function transferOwnership(address newOwner) public virtual onlyOwner {... */\n      pop\n      jump\t// out\n        /* \"contracts/PrizeManager.sol\":3837:4021  function generateWinners() external onlyOwner {... */\n    tag_72:\n        /* \"@openzeppelin/contracts/access/Ownable.sol\":1531:1544  _checkOwner() */\n      tag_143\n        /* \"@openzeppelin/contracts/access/Ownable.sol\":1531:1542  _checkOwner */\n      tag_75\n        /* \"@openzeppelin/contracts/access/Ownable.sol\":1531:1544  _checkOwner() */\n      jump\t// in\n    tag_143:\n        /* \"contracts/PrizeManager.sol\":3969:3998  PrizesDistributed(0, 0, 0, 0) */\n      0xfe24c1a52828fa9764a2d2ebf1c0066647f541fa9636c315facf936ed0b3a779\n        /* \"contracts/PrizeManager.sol\":3987:3988  0 */\n      0x00\n        /* \"contracts/PrizeManager.sol\":3990:3991  0 */\n      0x00\n        /* \"contracts/PrizeManager.sol\":3993:3994  0 */\n      0x00\n        /* \"contracts/PrizeManager.sol\":3996:3997  0 */\n      0x00\n        /* \"contracts/PrizeManager.sol\":3969:3998  PrizesDistributed(0, 0, 0, 0) */\n      mload(0x40)\n      tag_145\n      swap5\n      swap4\n      swap3\n      swap2\n      swap1\n      tag_146\n      jump\t// in\n    tag_145:\n      mload(0x40)\n      dup1\n      swap2\n      sub\n      swap1\n      log1\n        /* \"contracts/PrizeManager.sol\":3837:4021  function generateWinners() external onlyOwner {... */\n      jump\t// out\n        /* \"@openzeppelin/contracts/access/Ownable.sol\":1796:1958  function _checkOwner() internal view virtual {... */\n    tag_75:\n        /* \"@openzeppelin/contracts/access/Ownable.sol\":1866:1878  _msgSender() */\n      tag_148\n        /* \"@openzeppelin/contracts/access/Ownable.sol\":1866:1876  _msgSender */\n      tag_149\n        /* \"@openzeppelin/contracts/access/Ownable.sol\":1866:1878  _msgSender() */\n      jump\t// in\n    tag_148:\n        /* \"@openzeppelin/contracts/access/Ownable.sol\":1855:1878  owner() != _msgSender() */\n      0xffffffffffffffffffffffffffffffffffffffff\n      and\n        /* \"@openzeppelin/contracts/access/Ownable.sol\":1855:1862  owner() */\n      tag_150\n        /* \"@openzeppelin/contracts/access/Ownable.sol\":1855:1860  owner */\n      tag_42\n        /* \"@openzeppelin/contracts/access/Ownable.sol\":1855:1862  owner() */\n      jump\t// in\n    tag_150:\n        /* \"@openzeppelin/contracts/access/Ownable.sol\":1855:1878  owner() != _msgSender() */\n      0xffffffffffffffffffffffffffffffffffffffff\n      and\n      eq\n        /* \"@openzeppelin/contracts/access/Ownable.sol\":1851:1952  if (owner() != _msgSender()) {... */\n      tag_151\n      jumpi\n        /* \"@openzeppelin/contracts/access/Ownable.sol\":1928:1940  _msgSender() */\n      tag_152\n        /* \"@openzeppelin/contracts/access/Ownable.sol\":1928:1938  _msgSender */\n      tag_149\n        /* \"@openzeppelin/contracts/access/Ownable.sol\":1928:1940  _msgSender() */\n      jump\t// in\n    tag_152:\n        /* \"@openzeppelin/contracts/access/Ownable.sol\":1901:1941  OwnableUnauthorizedAccount(_msgSender()) */\n      mload(0x40)\n      0x118cdaa700000000000000000000000000000000000000000000000000000000\n      dup2\n      mstore\n      0x04\n      add\n      tag_153\n      swap2\n      swap1\n      tag_44\n      jump\t// in\n    tag_153:\n      mload(0x40)\n      dup1\n      swap2\n      sub\n      swap1\n      revert\n        /* \"@openzeppelin/contracts/access/Ownable.sol\":1851:1952  if (owner() != _msgSender()) {... */\n    tag_151:\n        /* \"@openzeppelin/contracts/access/Ownable.sol\":1796:1958  function _checkOwner() internal view virtual {... */\n      jump\t// out\n        /* \"@openzeppelin/contracts/access/Ownable.sol\":2912:3099  function _transferOwnership(address newOwner) internal virtual {... */\n    tag_78:\n        /* \"@openzeppelin/contracts/access/Ownable.sol\":2985:3001  address oldOwner */\n      0x00\n        /* \"@openzeppelin/contracts/access/Ownable.sol\":3004:3010  _owner */\n      0x00\n      0x00\n      swap1\n      sload\n      swap1\n      0x0100\n      exp\n      swap1\n      div\n      0xffffffffffffffffffffffffffffffffffffffff\n      and\n        /* \"@openzeppelin/contracts/access/Ownable.sol\":2985:3010  address oldOwner = _owner */\n      swap1\n      pop\n        /* \"@openzeppelin/contracts/access/Ownable.sol\":3029:3037  newOwner */\n      dup2\n        /* \"@openzeppelin/contracts/access/Ownable.sol\":3020:3026  _owner */\n      0x00\n      0x00\n        /* \"@openzeppelin/contracts/access/Ownable.sol\":3020:3037  _owner = newOwner */\n      0x0100\n      exp\n      dup2\n      sload\n      dup2\n      0xffffffffffffffffffffffffffffffffffffffff\n      mul\n      not\n      and\n      swap1\n      dup4\n      0xffffffffffffffffffffffffffffffffffffffff\n      and\n      mul\n      or\n      swap1\n      sstore\n      pop\n        /* \"@openzeppelin/contracts/access/Ownable.sol\":3083:3091  newOwner */\n      dup2\n        /* \"@openzeppelin/contracts/access/Ownable.sol\":3052:3092  OwnershipTransferred(oldOwner, newOwner) */\n      0xffffffffffffffffffffffffffffffffffffffff\n      and\n        /* \"@openzeppelin/contracts/access/Ownable.sol\":3073:3081  oldOwner */\n      dup2\n        /* \"@openzeppelin/contracts/access/Ownable.sol\":3052:3092  OwnershipTransferred(oldOwner, newOwner) */\n      0xffffffffffffffffffffffffffffffffffffffff\n      and\n      0x8be0079c531659141344cd1fd0a4f28419497f9722a3daafe3b4186f6b6457e0\n      mload(0x40)\n      mload(0x40)\n      dup1\n      swap2\n      sub\n      swap1\n      log3\n        /* \"@openzeppelin/contracts/access/Ownable.sol\":2975:3099  {... */\n      pop\n        /* \"@openzeppelin/contracts/access/Ownable.sol\":2912:3099  function _transferOwnership(address newOwner) internal virtual {... */\n      pop\n      jump\t// out\n        /* \"@openzeppelin/contracts/utils/Context.sol\":656:752  function _msgSender() internal view virtual returns (address) {... */\n    tag_149:\n        /* \"@openzeppelin/contracts/utils/Context.sol\":709:716  address */\n      0x00\n        /* \"@openzeppelin/contracts/utils/Context.sol\":735:745  msg.sender */\n      caller\n        /* \"@openzeppelin/contracts/utils/Context.sol\":728:745  return msg.sender */\n      swap1\n      pop\n        /* \"@openzeppelin/contracts/utils/Context.sol\":656:752  function _msgSender() internal view virtual returns (address) {... */\n      swap1\n      jump\t// out\n        /* \"#utility.yul\":7:84   */\n    tag_156:\n        /* \"#utility.yul\":44:51   */\n      0x00\n        /* \"#utility.yul\":73:78   */\n      dup2\n        /* \"#utility.yul\":62:78   */\n      swap1\n      pop\n        /* \"#utility.yul\":7:84   */\n      swap2\n      swap1\n      pop\n      jump\t// out\n        /* \"#utility.yul\":90:208   */\n    tag_157:\n        /* \"#utility.yul\":177:201   */\n      tag_188\n        /* \"#utility.yul\":195:200   */\n      dup2\n        /* \"#utility.yul\":177:201   */\n      tag_156\n      jump\t// in\n    tag_188:\n        /* \"#utility.yul\":172:175   */\n      dup3\n        /* \"#utility.yul\":165:202   */\n      mstore\n        /* \"#utility.yul\":90:208   */\n      pop\n      pop\n      jump\t// out\n        /* \"#utility.yul\":214:436   */\n    tag_25:\n        /* \"#utility.yul\":307:311   */\n      0x00\n        /* \"#utility.yul\":345:347   */\n      0x20\n        /* \"#utility.yul\":334:343   */\n      dup3\n        /* \"#utility.yul\":330:348   */\n      add\n        /* \"#utility.yul\":322:348   */\n      swap1\n      pop\n        /* \"#utility.yul\":358:429   */\n      tag_190\n        /* \"#utility.yul\":426:427   */\n      0x00\n        /* \"#utility.yul\":415:424   */\n      dup4\n        /* \"#utility.yul\":411:428   */\n      add\n        /* \"#utility.yul\":402:408   */\n      dup5\n        /* \"#utility.yul\":358:429   */\n      tag_157\n      jump\t// in\n    tag_190:\n        /* \"#utility.yul\":214:436   */\n      swap3\n      swap2\n      pop\n      pop\n      jump\t// out\n        /* \"#utility.yul\":442:532   */\n    tag_158:\n        /* \"#utility.yul\":476:483   */\n      0x00\n        /* \"#utility.yul\":519:524   */\n      dup2\n        /* \"#utility.yul\":512:525   */\n      iszero\n        /* \"#utility.yul\":505:526   */\n      iszero\n        /* \"#utility.yul\":494:526   */\n      swap1\n      pop\n        /* \"#utility.yul\":442:532   */\n      swap2\n      swap1\n      pop\n      jump\t// out\n        /* \"#utility.yul\":538:647   */\n    tag_159:\n        /* \"#utility.yul\":619:640   */\n      tag_193\n        /* \"#utility.yul\":634:639   */\n      dup2\n        /* \"#utility.yul\":619:640   */\n      tag_158\n      jump\t// in\n    tag_193:\n        /* \"#utility.yul\":614:617   */\n      dup3\n        /* \"#utility.yul\":607:641   */\n      mstore\n        /* \"#utility.yul\":538:647   */\n      pop\n      pop\n      jump\t// out\n        /* \"#utility.yul\":653:863   */\n    tag_32:\n        /* \"#utility.yul\":740:744   */\n      0x00\n        /* \"#utility.yul\":778:780   */\n      0x20\n        /* \"#utility.yul\":767:776   */\n      dup3\n        /* \"#utility.yul\":763:781   */\n      add\n        /* \"#utility.yul\":755:781   */\n      swap1\n      pop\n        /* \"#utility.yul\":791:856   */\n      tag_195\n        /* \"#utility.yul\":853:854   */\n      0x00\n        /* \"#utility.yul\":842:851   */\n      dup4\n        /* \"#utility.yul\":838:855   */\n      add\n        /* \"#utility.yul\":829:835   */\n      dup5\n        /* \"#utility.yul\":791:856   */\n      tag_159\n      jump\t// in\n    tag_195:\n        /* \"#utility.yul\":653:863   */\n      swap3\n      swap2\n      pop\n      pop\n      jump\t// out\n        /* \"#utility.yul\":869:995   */\n    tag_160:\n        /* \"#utility.yul\":906:913   */\n      0x00\n        /* \"#utility.yul\":946:988   */\n      0xffffffffffffffffffffffffffffffffffffffff\n        /* \"#utility.yul\":939:944   */\n      dup3\n        /* \"#utility.yul\":935:989   */\n      and\n        /* \"#utility.yul\":924:989   */\n      swap1\n      pop\n        /* \"#utility.yul\":869:995   */\n      swap2\n      swap1\n      pop\n      jump\t// out\n        /* \"#utility.yul\":1001:1097   */\n    tag_161:\n        /* \"#utility.yul\":1038:1045   */\n      0x00\n        /* \"#utility.yul\":1067:1091   */\n      tag_198\n        /* \"#utility.yul\":1085:1090   */\n      dup3\n        /* \"#utility.yul\":1067:1091   */\n      tag_160\n      jump\t// in\n    tag_198:\n        /* \"#utility.yul\":1056:1091   */\n      swap1\n      pop\n        /* \"#utility.yul\":1001:1097   */\n      swap2\n      swap1\n      pop\n      jump\t// out\n        /* \"#utility.yul\":1103:1221   */\n    tag_162:\n        /* \"#utility.yul\":1190:1214   */\n      tag_200\n        /* \"#utility.yul\":1208:1213   */\n      dup2\n        /* \"#utility.yul\":1190:1214   */\n      tag_161\n      jump\t// in\n    tag_200:\n        /* \"#utility.yul\":1185:1188   */\n      dup3\n        /* \"#utility.yul\":1178:1215   */\n      mstore\n        /* \"#utility.yul\":1103:1221   */\n      pop\n      pop\n      jump\t// out\n        /* \"#utility.yul\":1227:1449   */\n    tag_44:\n        /* \"#utility.yul\":1320:1324   */\n      0x00\n        /* \"#utility.yul\":1358:1360   */\n      0x20\n        /* \"#utility.yul\":1347:1356   */\n      dup3\n        /* \"#utility.yul\":1343:1361   */\n      add\n        /* \"#utility.yul\":1335:1361   */\n      swap1\n      pop\n        /* \"#utility.yul\":1371:1442   */\n      tag_202\n        /* \"#utility.yul\":1439:1440   */\n      0x00\n        /* \"#utility.yul\":1428:1437   */\n      dup4\n        /* \"#utility.yul\":1424:1441   */\n      add\n        /* \"#utility.yul\":1415:1421   */\n      dup5\n        /* \"#utility.yul\":1371:1442   */\n      tag_162\n      jump\t// in\n    tag_202:\n        /* \"#utility.yul\":1227:1449   */\n      swap3\n      swap2\n      pop\n      pop\n      jump\t// out\n        /* \"#utility.yul\":1536:1653   */\n    tag_164:\n        /* \"#utility.yul\":1645:1646   */\n      0x00\n        /* \"#utility.yul\":1642:1643   */\n      0x00\n        /* \"#utility.yul\":1635:1647   */\n      revert\n        /* \"#utility.yul\":1782:1904   */\n    tag_166:\n        /* \"#utility.yul\":1855:1879   */\n      tag_207\n        /* \"#utility.yul\":1873:1878   */\n      dup2\n        /* \"#utility.yul\":1855:1879   */\n      tag_156\n      jump\t// in\n    tag_207:\n        /* \"#utility.yul\":1848:1853   */\n      dup2\n        /* \"#utility.yul\":1845:1880   */\n      eq\n        /* \"#utility.yul\":1835:1898   */\n      tag_208\n      jumpi\n        /* \"#utility.yul\":1894:1895   */\n      0x00\n        /* \"#utility.yul\":1891:1892   */\n      0x00\n        /* \"#utility.yul\":1884:1896   */\n      revert\n        /* \"#utility.yul\":1835:1898   */\n    tag_208:\n        /* \"#utility.yul\":1782:1904   */\n      pop\n      jump\t// out\n        /* \"#utility.yul\":1910:2049   */\n    tag_167:\n        /* \"#utility.yul\":1956:1961   */\n      0x00\n        /* \"#utility.yul\":1994:2000   */\n      dup2\n        /* \"#utility.yul\":1981:2001   */\n      calldataload\n        /* \"#utility.yul\":1972:2001   */\n      swap1\n      pop\n        /* \"#utility.yul\":2010:2043   */\n      tag_210\n        /* \"#utility.yul\":2037:2042   */\n      dup2\n        /* \"#utility.yul\":2010:2043   */\n      tag_166\n      jump\t// in\n    tag_210:\n        /* \"#utility.yul\":1910:2049   */\n      swap3\n      swap2\n      pop\n      pop\n      jump\t// out\n        /* \"#utility.yul\":2055:2384   */\n    tag_47:\n        /* \"#utility.yul\":2114:2120   */\n      0x00\n        /* \"#utility.yul\":2163:2165   */\n      0x20\n        /* \"#utility.yul\":2151:2160   */\n      dup3\n        /* \"#utility.yul\":2142:2149   */\n      dup5\n        /* \"#utility.yul\":2138:2161   */\n      sub\n        /* \"#utility.yul\":2134:2166   */\n      slt\n        /* \"#utility.yul\":2131:2250   */\n      iszero\n      tag_212\n      jumpi\n        /* \"#utility.yul\":2169:2248   */\n      tag_213\n      tag_164\n      jump\t// in\n    tag_213:\n        /* \"#utility.yul\":2131:2250   */\n    tag_212:\n        /* \"#utility.yul\":2289:2290   */\n      0x00\n        /* \"#utility.yul\":2314:2367   */\n      tag_214\n        /* \"#utility.yul\":2359:2366   */\n      dup5\n        /* \"#utility.yul\":2350:2356   */\n      dup3\n        /* \"#utility.yul\":2339:2348   */\n      dup6\n        /* \"#utility.yul\":2335:2357   */\n      add\n        /* \"#utility.yul\":2314:2367   */\n      tag_167\n      jump\t// in\n    tag_214:\n        /* \"#utility.yul\":2304:2367   */\n      swap2\n      pop\n        /* \"#utility.yul\":2260:2377   */\n      pop\n        /* \"#utility.yul\":2055:2384   */\n      swap3\n      swap2\n      pop\n      pop\n      jump\t// out\n        /* \"#utility.yul\":2390:2512   */\n    tag_168:\n        /* \"#utility.yul\":2463:2487   */\n      tag_216\n        /* \"#utility.yul\":2481:2486   */\n      dup2\n        /* \"#utility.yul\":2463:2487   */\n      tag_161\n      jump\t// in\n    tag_216:\n        /* \"#utility.yul\":2456:2461   */\n      dup2\n        /* \"#utility.yul\":2453:2488   */\n      eq\n        /* \"#utility.yul\":2443:2506   */\n      tag_217\n      jumpi\n        /* \"#utility.yul\":2502:2503   */\n      0x00\n        /* \"#utility.yul\":2499:2500   */\n      0x00\n        /* \"#utility.yul\":2492:2504   */\n      revert\n        /* \"#utility.yul\":2443:2506   */\n    tag_217:\n        /* \"#utility.yul\":2390:2512   */\n      pop\n      jump\t// out\n        /* \"#utility.yul\":2518:2657   */\n    tag_169:\n        /* \"#utility.yul\":2564:2569   */\n      0x00\n        /* \"#utility.yul\":2602:2608   */\n      dup2\n        /* \"#utility.yul\":2589:2609   */\n      calldataload\n        /* \"#utility.yul\":2580:2609   */\n      swap1\n      pop\n        /* \"#utility.yul\":2618:2651   */\n      tag_219\n        /* \"#utility.yul\":2645:2650   */\n      dup2\n        /* \"#utility.yul\":2618:2651   */\n      tag_168\n      jump\t// in\n    tag_219:\n        /* \"#utility.yul\":2518:2657   */\n      swap3\n      swap2\n      pop\n      pop\n      jump\t// out\n        /* \"#utility.yul\":2663:2992   */\n    tag_69:\n        /* \"#utility.yul\":2722:2728   */\n      0x00\n        /* \"#utility.yul\":2771:2773   */\n      0x20\n        /* \"#utility.yul\":2759:2768   */\n      dup3\n        /* \"#utility.yul\":2750:2757   */\n      dup5\n        /* \"#utility.yul\":2746:2769   */\n      sub\n        /* \"#utility.yul\":2742:2774   */\n      slt\n        /* \"#utility.yul\":2739:2858   */\n      iszero\n      tag_221\n      jumpi\n        /* \"#utility.yul\":2777:2856   */\n      tag_222\n      tag_164\n      jump\t// in\n    tag_222:\n        /* \"#utility.yul\":2739:2858   */\n    tag_221:\n        /* \"#utility.yul\":2897:2898   */\n      0x00\n        /* \"#utility.yul\":2922:2975   */\n      tag_223\n        /* \"#utility.yul\":2967:2974   */\n      dup5\n        /* \"#utility.yul\":2958:2964   */\n      dup3\n        /* \"#utility.yul\":2947:2956   */\n      dup6\n        /* \"#utility.yul\":2943:2965   */\n      add\n        /* \"#utility.yul\":2922:2975   */\n      tag_169\n      jump\t// in\n    tag_223:\n        /* \"#utility.yul\":2912:2975   */\n      swap2\n      pop\n        /* \"#utility.yul\":2868:2985   */\n      pop\n        /* \"#utility.yul\":2663:2992   */\n      swap3\n      swap2\n      pop\n      pop\n      jump\t// out\n        /* \"#utility.yul\":2998:3167   */\n    tag_170:\n        /* \"#utility.yul\":3082:3093   */\n      0x00\n        /* \"#utility.yul\":3116:3122   */\n      dup3\n        /* \"#utility.yul\":3111:3114   */\n      dup3\n        /* \"#utility.yul\":3104:3123   */\n      mstore\n        /* \"#utility.yul\":3156:3160   */\n      0x20\n        /* \"#utility.yul\":3151:3154   */\n      dup3\n        /* \"#utility.yul\":3147:3161   */\n      add\n        /* \"#utility.yul\":3132:3161   */\n      swap1\n      pop\n        /* \"#utility.yul\":2998:3167   */\n      swap3\n      swap2\n      pop\n      pop\n      jump\t// out\n        /* \"#utility.yul\":3173:3347   */\n    tag_171:\n        /* \"#utility.yul\":3313:3339   */\n      0x4e6f2070726f6669747320746f20646973747269627574650000000000000000\n        /* \"#utility.yul\":3309:3310   */\n      0x00\n        /* \"#utility.yul\":3301:3307   */\n      dup3\n        /* \"#utility.yul\":3297:3311   */\n      add\n        /* \"#utility.yul\":3290:3340   */\n      mstore\n        /* \"#utility.yul\":3173:3347   */\n      pop\n      jump\t// out\n        /* \"#utility.yul\":3353:3719   */\n    tag_172:\n        /* \"#utility.yul\":3495:3498   */\n      0x00\n        /* \"#utility.yul\":3516:3583   */\n      tag_227\n        /* \"#utility.yul\":3580:3582   */\n      0x18\n        /* \"#utility.yul\":3575:3578   */\n      dup4\n        /* \"#utility.yul\":3516:3583   */\n      tag_170\n      jump\t// in\n    tag_227:\n        /* \"#utility.yul\":3509:3583   */\n      swap2\n      pop\n        /* \"#utility.yul\":3592:3685   */\n      tag_228\n        /* \"#utility.yul\":3681:3684   */\n      dup3\n        /* \"#utility.yul\":3592:3685   */\n      tag_171\n      jump\t// in\n    tag_228:\n        /* \"#utility.yul\":3710:3712   */\n      0x20\n        /* \"#utility.yul\":3705:3708   */\n      dup3\n        /* \"#utility.yul\":3701:3713   */\n      add\n        /* \"#utility.yul\":3694:3713   */\n      swap1\n      pop\n        /* \"#utility.yul\":3353:3719   */\n      swap2\n      swap1\n      pop\n      jump\t// out\n        /* \"#utility.yul\":3725:4144   */\n    tag_85:\n        /* \"#utility.yul\":3891:3895   */\n      0x00\n        /* \"#utility.yul\":3929:3931   */\n      0x20\n        /* \"#utility.yul\":3918:3927   */\n      dup3\n        /* \"#utility.yul\":3914:3932   */\n      add\n        /* \"#utility.yul\":3906:3932   */\n      swap1\n      pop\n        /* \"#utility.yul\":3978:3987   */\n      dup2\n        /* \"#utility.yul\":3972:3976   */\n      dup2\n        /* \"#utility.yul\":3968:3988   */\n      sub\n        /* \"#utility.yul\":3964:3965   */\n      0x00\n        /* \"#utility.yul\":3953:3962   */\n      dup4\n        /* \"#utility.yul\":3949:3966   */\n      add\n        /* \"#utility.yul\":3942:3989   */\n      mstore\n        /* \"#utility.yul\":4006:4137   */\n      tag_230\n        /* \"#utility.yul\":4132:4136   */\n      dup2\n        /* \"#utility.yul\":4006:4137   */\n      tag_172\n      jump\t// in\n    tag_230:\n        /* \"#utility.yul\":3998:4137   */\n      swap1\n      pop\n        /* \"#utility.yul\":3725:4144   */\n      swap2\n      swap1\n      pop\n      jump\t// out\n        /* \"#utility.yul\":4150:4330   */\n    tag_173:\n        /* \"#utility.yul\":4198:4275   */\n      0x4e487b7100000000000000000000000000000000000000000000000000000000\n        /* \"#utility.yul\":4195:4196   */\n      0x00\n        /* \"#utility.yul\":4188:4276   */\n      mstore\n        /* \"#utility.yul\":4295:4299   */\n      0x11\n        /* \"#utility.yul\":4292:4293   */\n      0x04\n        /* \"#utility.yul\":4285:4300   */\n      mstore\n        /* \"#utility.yul\":4319:4323   */\n      0x24\n        /* \"#utility.yul\":4316:4317   */\n      0x00\n        /* \"#utility.yul\":4309:4324   */\n      revert\n        /* \"#utility.yul\":4336:4746   */\n    tag_87:\n        /* \"#utility.yul\":4376:4383   */\n      0x00\n        /* \"#utility.yul\":4399:4419   */\n      tag_233\n        /* \"#utility.yul\":4417:4418   */\n      dup3\n        /* \"#utility.yul\":4399:4419   */\n      tag_156\n      jump\t// in\n    tag_233:\n        /* \"#utility.yul\":4394:4419   */\n      swap2\n      pop\n        /* \"#utility.yul\":4433:4453   */\n      tag_234\n        /* \"#utility.yul\":4451:4452   */\n      dup4\n        /* \"#utility.yul\":4433:4453   */\n      tag_156\n      jump\t// in\n    tag_234:\n        /* \"#utility.yul\":4428:4453   */\n      swap3\n      pop\n        /* \"#utility.yul\":4488:4489   */\n      dup3\n        /* \"#utility.yul\":4485:4486   */\n      dup3\n        /* \"#utility.yul\":4481:4490   */\n      mul\n        /* \"#utility.yul\":4510:4540   */\n      tag_235\n        /* \"#utility.yul\":4528:4539   */\n      dup2\n        /* \"#utility.yul\":4510:4540   */\n      tag_156\n      jump\t// in\n    tag_235:\n        /* \"#utility.yul\":4499:4540   */\n      swap2\n      pop\n        /* \"#utility.yul\":4689:4690   */\n      dup3\n        /* \"#utility.yul\":4680:4687   */\n      dup3\n        /* \"#utility.yul\":4676:4691   */\n      div\n        /* \"#utility.yul\":4673:4674   */\n      dup5\n        /* \"#utility.yul\":4670:4692   */\n      eq\n        /* \"#utility.yul\":4650:4651   */\n      dup4\n        /* \"#utility.yul\":4643:4652   */\n      iszero\n        /* \"#utility.yul\":4623:4706   */\n      or\n        /* \"#utility.yul\":4600:4739   */\n      tag_236\n      jumpi\n        /* \"#utility.yul\":4719:4737   */\n      tag_237\n      tag_173\n      jump\t// in\n    tag_237:\n        /* \"#utility.yul\":4600:4739   */\n    tag_236:\n        /* \"#utility.yul\":4384:4746   */\n      pop\n        /* \"#utility.yul\":4336:4746   */\n      swap3\n      swap2\n      pop\n      pop\n      jump\t// out\n        /* \"#utility.yul\":4752:4932   */\n    tag_174:\n        /* \"#utility.yul\":4800:4877   */\n      0x4e487b7100000000000000000000000000000000000000000000000000000000\n        /* \"#utility.yul\":4797:4798   */\n      0x00\n        /* \"#utility.yul\":4790:4878   */\n      mstore\n        /* \"#utility.yul\":4897:4901   */\n      0x12\n        /* \"#utility.yul\":4894:4895   */\n      0x04\n        /* \"#utility.yul\":4887:4902   */\n      mstore\n        /* \"#utility.yul\":4921:4925   */\n      0x24\n        /* \"#utility.yul\":4918:4919   */\n      0x00\n        /* \"#utility.yul\":4911:4926   */\n      revert\n        /* \"#utility.yul\":4938:5123   */\n    tag_89:\n        /* \"#utility.yul\":4978:4979   */\n      0x00\n        /* \"#utility.yul\":4995:5015   */\n      tag_240\n        /* \"#utility.yul\":5013:5014   */\n      dup3\n        /* \"#utility.yul\":4995:5015   */\n      tag_156\n      jump\t// in\n    tag_240:\n        /* \"#utility.yul\":4990:5015   */\n      swap2\n      pop\n        /* \"#utility.yul\":5029:5049   */\n      tag_241\n        /* \"#utility.yul\":5047:5048   */\n      dup4\n        /* \"#utility.yul\":5029:5049   */\n      tag_156\n      jump\t// in\n    tag_241:\n        /* \"#utility.yul\":5024:5049   */\n      swap3\n      pop\n        /* \"#utility.yul\":5068:5069   */\n      dup3\n        /* \"#utility.yul\":5058:5093   */\n      tag_242\n      jumpi\n        /* \"#utility.yul\":5073:5091   */\n      tag_243\n      tag_174\n      jump\t// in\n    tag_243:\n        /* \"#utility.yul\":5058:5093   */\n    tag_242:\n        /* \"#utility.yul\":5115:5116   */\n      dup3\n        /* \"#utility.yul\":5112:5113   */\n      dup3\n        /* \"#utility.yul\":5108:5117   */\n      div\n        /* \"#utility.yul\":5103:5117   */\n      swap1\n      pop\n        /* \"#utility.yul\":4938:5123   */\n      swap3\n      swap2\n      pop\n      pop\n      jump\t// out\n        /* \"#utility.yul\":5129:5320   */\n    tag_95:\n        /* \"#utility.yul\":5169:5172   */\n      0x00\n        /* \"#utility.yul\":5188:5208   */\n      tag_245\n        /* \"#utility.yul\":5206:5207   */\n      dup3\n        /* \"#utility.yul\":5188:5208   */\n      tag_156\n      jump\t// in\n    tag_245:\n        /* \"#utility.yul\":5183:5208   */\n      swap2\n      pop\n        /* \"#utility.yul\":5222:5242   */\n      tag_246\n        /* \"#utility.yul\":5240:5241   */\n      dup4\n        /* \"#utility.yul\":5222:5242   */\n      tag_156\n      jump\t// in\n    tag_246:\n        /* \"#utility.yul\":5217:5242   */\n      swap3\n      pop\n        /* \"#utility.yul\":5265:5266   */\n      dup3\n        /* \"#utility.yul\":5262:5263   */\n      dup3\n        /* \"#utility.yul\":5258:5267   */\n      add\n        /* \"#utility.yul\":5251:5267   */\n      swap1\n      pop\n        /* \"#utility.yul\":5286:5289   */\n      dup1\n        /* \"#utility.yul\":5283:5284   */\n      dup3\n        /* \"#utility.yul\":5280:5290   */\n      gt\n        /* \"#utility.yul\":5277:5313   */\n      iszero\n      tag_247\n      jumpi\n        /* \"#utility.yul\":5293:5311   */\n      tag_248\n      tag_173\n      jump\t// in\n    tag_248:\n        /* \"#utility.yul\":5277:5313   */\n    tag_247:\n        /* \"#utility.yul\":5129:5320   */\n      swap3\n      swap2\n      pop\n      pop\n      jump\t// out\n        /* \"#utility.yul\":5326:5879   */\n    tag_108:\n        /* \"#utility.yul\":5503:5507   */\n      0x00\n        /* \"#utility.yul\":5541:5544   */\n      0x80\n        /* \"#utility.yul\":5530:5539   */\n      dup3\n        /* \"#utility.yul\":5526:5545   */\n      add\n        /* \"#utility.yul\":5518:5545   */\n      swap1\n      pop\n        /* \"#utility.yul\":5555:5626   */\n      tag_250\n        /* \"#utility.yul\":5623:5624   */\n      0x00\n        /* \"#utility.yul\":5612:5621   */\n      dup4\n        /* \"#utility.yul\":5608:5625   */\n      add\n        /* \"#utility.yul\":5599:5605   */\n      dup8\n        /* \"#utility.yul\":5555:5626   */\n      tag_157\n      jump\t// in\n    tag_250:\n        /* \"#utility.yul\":5636:5708   */\n      tag_251\n        /* \"#utility.yul\":5704:5706   */\n      0x20\n        /* \"#utility.yul\":5693:5702   */\n      dup4\n        /* \"#utility.yul\":5689:5707   */\n      add\n        /* \"#utility.yul\":5680:5686   */\n      dup7\n        /* \"#utility.yul\":5636:5708   */\n      tag_157\n      jump\t// in\n    tag_251:\n        /* \"#utility.yul\":5718:5790   */\n      tag_252\n        /* \"#utility.yul\":5786:5788   */\n      0x40\n        /* \"#utility.yul\":5775:5784   */\n      dup4\n        /* \"#utility.yul\":5771:5789   */\n      add\n        /* \"#utility.yul\":5762:5768   */\n      dup6\n        /* \"#utility.yul\":5718:5790   */\n      tag_157\n      jump\t// in\n    tag_252:\n        /* \"#utility.yul\":5800:5872   */\n      tag_253\n        /* \"#utility.yul\":5868:5870   */\n      0x60\n        /* \"#utility.yul\":5857:5866   */\n      dup4\n        /* \"#utility.yul\":5853:5871   */\n      add\n        /* \"#utility.yul\":5844:5850   */\n      dup5\n        /* \"#utility.yul\":5800:5872   */\n      tag_157\n      jump\t// in\n    tag_253:\n        /* \"#utility.yul\":5326:5879   */\n      swap6\n      swap5\n      pop\n      pop\n      pop\n      pop\n      pop\n      jump\t// out\n        /* \"#utility.yul\":5885:6217   */\n    tag_110:\n        /* \"#utility.yul\":6006:6010   */\n      0x00\n        /* \"#utility.yul\":6044:6046   */\n      0x40\n        /* \"#utility.yul\":6033:6042   */\n      dup3\n        /* \"#utility.yul\":6029:6047   */\n      add\n        /* \"#utility.yul\":6021:6047   */\n      swap1\n      pop\n        /* \"#utility.yul\":6057:6128   */\n      tag_255\n        /* \"#utility.yul\":6125:6126   */\n      0x00\n        /* \"#utility.yul\":6114:6123   */\n      dup4\n        /* \"#utility.yul\":6110:6127   */\n      add\n        /* \"#utility.yul\":6101:6107   */\n      dup6\n        /* \"#utility.yul\":6057:6128   */\n      tag_157\n      jump\t// in\n    tag_255:\n        /* \"#utility.yul\":6138:6210   */\n      tag_256\n        /* \"#utility.yul\":6206:6208   */\n      0x20\n        /* \"#utility.yul\":6195:6204   */\n      dup4\n        /* \"#utility.yul\":6191:6209   */\n      add\n        /* \"#utility.yul\":6182:6188   */\n      dup5\n        /* \"#utility.yul\":6138:6210   */\n      tag_157\n      jump\t// in\n    tag_256:\n        /* \"#utility.yul\":5885:6217   */\n      swap4\n      swap3\n      pop\n      pop\n      pop\n      jump\t// out\n        /* \"#utility.yul\":6223:6387   */\n    tag_175:\n        /* \"#utility.yul\":6363:6379   */\n      0x4e6f7420617574686f72697a6564000000000000000000000000000000000000\n        /* \"#utility.yul\":6359:6360   */\n      0x00\n        /* \"#utility.yul\":6351:6357   */\n      dup3\n        /* \"#utility.yul\":6347:6361   */\n      add\n        /* \"#utility.yul\":6340:6380   */\n      mstore\n        /* \"#utility.yul\":6223:6387   */\n      pop\n      jump\t// out\n        /* \"#utility.yul\":6393:6759   */\n    tag_176:\n        /* \"#utility.yul\":6535:6538   */\n      0x00\n        /* \"#utility.yul\":6556:6623   */\n      tag_259\n        /* \"#utility.yul\":6620:6622   */\n      0x0e\n        /* \"#utility.yul\":6615:6618   */\n      dup4\n        /* \"#utility.yul\":6556:6623   */\n      tag_170\n      jump\t// in\n    tag_259:\n        /* \"#utility.yul\":6549:6623   */\n      swap2\n      pop\n        /* \"#utility.yul\":6632:6725   */\n      tag_260\n        /* \"#utility.yul\":6721:6724   */\n      dup3\n        /* \"#utility.yul\":6632:6725   */\n      tag_175\n      jump\t// in\n    tag_260:\n        /* \"#utility.yul\":6750:6752   */\n      0x20\n        /* \"#utility.yul\":6745:6748   */\n      dup3\n        /* \"#utility.yul\":6741:6753   */\n      add\n        /* \"#utility.yul\":6734:6753   */\n      swap1\n      pop\n        /* \"#utility.yul\":6393:6759   */\n      swap2\n      swap1\n      pop\n      jump\t// out\n        /* \"#utility.yul\":6765:7184   */\n    tag_127:\n        /* \"#utility.yul\":6931:6935   */\n      0x00\n        /* \"#utility.yul\":6969:6971   */\n      0x20\n        /* \"#utility.yul\":6958:6967   */\n      dup3\n        /* \"#utility.yul\":6954:6972   */\n      add\n        /* \"#utility.yul\":6946:6972   */\n      swap1\n      pop\n        /* \"#utility.yul\":7018:7027   */\n      dup2\n        /* \"#utility.yul\":7012:7016   */\n      dup2\n        /* \"#utility.yul\":7008:7028   */\n      sub\n        /* \"#utility.yul\":7004:7005   */\n      0x00\n        /* \"#utility.yul\":6993:7002   */\n      dup4\n        /* \"#utility.yul\":6989:7006   */\n      add\n        /* \"#utility.yul\":6982:7029   */\n      mstore\n        /* \"#utility.yul\":7046:7177   */\n      tag_262\n        /* \"#utility.yul\":7172:7176   */\n      dup2\n        /* \"#utility.yul\":7046:7177   */\n      tag_176\n      jump\t// in\n    tag_262:\n        /* \"#utility.yul\":7038:7177   */\n      swap1\n      pop\n        /* \"#utility.yul\":6765:7184   */\n      swap2\n      swap1\n      pop\n      jump\t// out\n        /* \"#utility.yul\":7190:7422   */\n    tag_177:\n        /* \"#utility.yul\":7330:7364   */\n      0x5072697a65207363616c652063616e206f6e6c79206265207570646174656420\n        /* \"#utility.yul\":7326:7327   */\n      0x00\n        /* \"#utility.yul\":7318:7324   */\n      dup3\n        /* \"#utility.yul\":7314:7328   */\n      add\n        /* \"#utility.yul\":7307:7365   */\n      mstore\n        /* \"#utility.yul\":7399:7414   */\n      0x6f6e636520706572207765656b00000000000000000000000000000000000000\n        /* \"#utility.yul\":7394:7396   */\n      0x20\n        /* \"#utility.yul\":7386:7392   */\n      dup3\n        /* \"#utility.yul\":7382:7397   */\n      add\n        /* \"#utility.yul\":7375:7415   */\n      mstore\n        /* \"#utility.yul\":7190:7422   */\n      pop\n      jump\t// out\n        /* \"#utility.yul\":7428:7794   */\n    tag_178:\n        /* \"#utility.yul\":7570:7573   */\n      0x00\n        /* \"#utility.yul\":7591:7658   */\n      tag_265\n        /* \"#utility.yul\":7655:7657   */\n      0x2d\n        /* \"#utility.yul\":7650:7653   */\n      dup4\n        /* \"#utility.yul\":7591:7658   */\n      tag_170\n      jump\t// in\n    tag_265:\n        /* \"#utility.yul\":7584:7658   */\n      swap2\n      pop\n        /* \"#utility.yul\":7667:7760   */\n      tag_266\n        /* \"#utility.yul\":7756:7759   */\n      dup3\n        /* \"#utility.yul\":7667:7760   */\n      tag_177\n      jump\t// in\n    tag_266:\n        /* \"#utility.yul\":7785:7787   */\n      0x40\n        /* \"#utility.yul\":7780:7783   */\n      dup3\n        /* \"#utility.yul\":7776:7788   */\n      add\n        /* \"#utility.yul\":7769:7788   */\n      swap1\n      pop\n        /* \"#utility.yul\":7428:7794   */\n      swap2\n      swap1\n      pop\n      jump\t// out\n        /* \"#utility.yul\":7800:8219   */\n    tag_131:\n        /* \"#utility.yul\":7966:7970   */\n      0x00\n        /* \"#utility.yul\":8004:8006   */\n      0x20\n        /* \"#utility.yul\":7993:8002   */\n      dup3\n        /* \"#utility.yul\":7989:8007   */\n      add\n        /* \"#utility.yul\":7981:8007   */\n      swap1\n      pop\n        /* \"#utility.yul\":8053:8062   */\n      dup2\n        /* \"#utility.yul\":8047:8051   */\n      dup2\n        /* \"#utility.yul\":8043:8063   */\n      sub\n        /* \"#utility.yul\":8039:8040   */\n      0x00\n        /* \"#utility.yul\":8028:8037   */\n      dup4\n        /* \"#utility.yul\":8024:8041   */\n      add\n        /* \"#utility.yul\":8017:8064   */\n      mstore\n        /* \"#utility.yul\":8081:8212   */\n      tag_268\n        /* \"#utility.yul\":8207:8211   */\n      dup2\n        /* \"#utility.yul\":8081:8212   */\n      tag_178\n      jump\t// in\n    tag_268:\n        /* \"#utility.yul\":8073:8212   */\n      swap1\n      pop\n        /* \"#utility.yul\":7800:8219   */\n      swap2\n      swap1\n      pop\n      jump\t// out\n        /* \"#utility.yul\":8225:8449   */\n    tag_179:\n        /* \"#utility.yul\":8365:8399   */\n      0x5072697a65207363616c65206d7573742062652067726561746572207468616e\n        /* \"#utility.yul\":8361:8362   */\n      0x00\n        /* \"#utility.yul\":8353:8359   */\n      dup3\n        /* \"#utility.yul\":8349:8363   */\n      add\n        /* \"#utility.yul\":8342:8400   */\n      mstore\n        /* \"#utility.yul\":8434:8441   */\n      0x207a65726f000000000000000000000000000000000000000000000000000000\n        /* \"#utility.yul\":8429:8431   */\n      0x20\n        /* \"#utility.yul\":8421:8427   */\n      dup3\n        /* \"#utility.yul\":8417:8432   */\n      add\n        /* \"#utility.yul\":8410:8442   */\n      mstore\n        /* \"#utility.yul\":8225:8449   */\n      pop\n      jump\t// out\n        /* \"#utility.yul\":8455:8821   */\n    tag_180:\n        /* \"#utility.yul\":8597:8600   */\n      0x00\n        /* \"#utility.yul\":8618:8685   */\n      tag_271\n        /* \"#utility.yul\":8682:8684   */\n      0x25\n        /* \"#utility.yul\":8677:8680   */\n      dup4\n        /* \"#utility.yul\":8618:8685   */\n      tag_170\n      jump\t// in\n    tag_271:\n        /* \"#utility.yul\":8611:8685   */\n      swap2\n      pop\n        /* \"#utility.yul\":8694:8787   */\n      tag_272\n        /* \"#utility.yul\":8783:8786   */\n      dup3\n        /* \"#utility.yul\":8694:8787   */\n      tag_179\n      jump\t// in\n    tag_272:\n        /* \"#utility.yul\":8812:8814   */\n      0x40\n        /* \"#utility.yul\":8807:8810   */\n      dup3\n        /* \"#utility.yul\":8803:8815   */\n      add\n        /* \"#utility.yul\":8796:8815   */\n      swap1\n      pop\n        /* \"#utility.yul\":8455:8821   */\n      swap2\n      swap1\n      pop\n      jump\t// out\n        /* \"#utility.yul\":8827:9246   */\n    tag_134:\n        /* \"#utility.yul\":8993:8997   */\n      0x00\n        /* \"#utility.yul\":9031:9033   */\n      0x20\n        /* \"#utility.yul\":9020:9029   */\n      dup3\n        /* \"#utility.yul\":9016:9034   */\n      add\n        /* \"#utility.yul\":9008:9034   */\n      swap1\n      pop\n        /* \"#utility.yul\":9080:9089   */\n      dup2\n        /* \"#utility.yul\":9074:9078   */\n      dup2\n        /* \"#utility.yul\":9070:9090   */\n      sub\n        /* \"#utility.yul\":9066:9067   */\n      0x00\n        /* \"#utility.yul\":9055:9064   */\n      dup4\n        /* \"#utility.yul\":9051:9068   */\n      add\n        /* \"#utility.yul\":9044:9091   */\n      mstore\n        /* \"#utility.yul\":9108:9239   */\n      tag_274\n        /* \"#utility.yul\":9234:9238   */\n      dup2\n        /* \"#utility.yul\":9108:9239   */\n      tag_180\n      jump\t// in\n    tag_274:\n        /* \"#utility.yul\":9100:9239   */\n      swap1\n      pop\n        /* \"#utility.yul\":8827:9246   */\n      swap2\n      swap1\n      pop\n      jump\t// out\n        /* \"#utility.yul\":9252:9337   */\n    tag_181:\n        /* \"#utility.yul\":9297:9304   */\n      0x00\n        /* \"#utility.yul\":9326:9331   */\n      dup2\n        /* \"#utility.yul\":9315:9331   */\n      swap1\n      pop\n        /* \"#utility.yul\":9252:9337   */\n      swap2\n      swap1\n      pop\n      jump\t// out\n        /* \"#utility.yul\":9343:9403   */\n    tag_182:\n        /* \"#utility.yul\":9371:9374   */\n      0x00\n        /* \"#utility.yul\":9392:9397   */\n      dup2\n        /* \"#utility.yul\":9385:9397   */\n      swap1\n      pop\n        /* \"#utility.yul\":9343:9403   */\n      swap2\n      swap1\n      pop\n      jump\t// out\n        /* \"#utility.yul\":9409:9567   */\n    tag_183:\n        /* \"#utility.yul\":9467:9476   */\n      0x00\n        /* \"#utility.yul\":9500:9561   */\n      tag_278\n        /* \"#utility.yul\":9518:9560   */\n      tag_279\n        /* \"#utility.yul\":9527:9559   */\n      tag_280\n        /* \"#utility.yul\":9553:9558   */\n      dup5\n        /* \"#utility.yul\":9527:9559   */\n      tag_181\n      jump\t// in\n    tag_280:\n        /* \"#utility.yul\":9518:9560   */\n      tag_182\n      jump\t// in\n    tag_279:\n        /* \"#utility.yul\":9500:9561   */\n      tag_156\n      jump\t// in\n    tag_278:\n        /* \"#utility.yul\":9487:9561   */\n      swap1\n      pop\n        /* \"#utility.yul\":9409:9567   */\n      swap2\n      swap1\n      pop\n      jump\t// out\n        /* \"#utility.yul\":9573:9720   */\n    tag_184:\n        /* \"#utility.yul\":9668:9713   */\n      tag_282\n        /* \"#utility.yul\":9707:9712   */\n      dup2\n        /* \"#utility.yul\":9668:9713   */\n      tag_183\n      jump\t// in\n    tag_282:\n        /* \"#utility.yul\":9663:9666   */\n      dup3\n        /* \"#utility.yul\":9656:9714   */\n      mstore\n        /* \"#utility.yul\":9573:9720   */\n      pop\n      pop\n      jump\t// out\n        /* \"#utility.yul\":9726:10343   */\n    tag_146:\n        /* \"#utility.yul\":9935:9939   */\n      0x00\n        /* \"#utility.yul\":9973:9976   */\n      0x80\n        /* \"#utility.yul\":9962:9971   */\n      dup3\n        /* \"#utility.yul\":9958:9977   */\n      add\n        /* \"#utility.yul\":9950:9977   */\n      swap1\n      pop\n        /* \"#utility.yul\":9987:10066   */\n      tag_284\n        /* \"#utility.yul\":10063:10064   */\n      0x00\n        /* \"#utility.yul\":10052:10061   */\n      dup4\n        /* \"#utility.yul\":10048:10065   */\n      add\n        /* \"#utility.yul\":10039:10045   */\n      dup8\n        /* \"#utility.yul\":9987:10066   */\n      tag_184\n      jump\t// in\n    tag_284:\n        /* \"#utility.yul\":10076:10156   */\n      tag_285\n        /* \"#utility.yul\":10152:10154   */\n      0x20\n        /* \"#utility.yul\":10141:10150   */\n      dup4\n        /* \"#utility.yul\":10137:10155   */\n      add\n        /* \"#utility.yul\":10128:10134   */\n      dup7\n        /* \"#utility.yul\":10076:10156   */\n      tag_184\n      jump\t// in\n    tag_285:\n        /* \"#utility.yul\":10166:10246   */\n      tag_286\n        /* \"#utility.yul\":10242:10244   */\n      0x40\n        /* \"#utility.yul\":10231:10240   */\n      dup4\n        /* \"#utility.yul\":10227:10245   */\n      add\n        /* \"#utility.yul\":10218:10224   */\n      dup6\n        /* \"#utility.yul\":10166:10246   */\n      tag_184\n      jump\t// in\n    tag_286:\n        /* \"#utility.yul\":10256:10336   */\n      tag_287\n        /* \"#utility.yul\":10332:10334   */\n      0x60\n        /* \"#utility.yul\":10321:10330   */\n      dup4\n        /* \"#utility.yul\":10317:10335   */\n      add\n        /* \"#utility.yul\":10308:10314   */\n      dup5\n        /* \"#utility.yul\":10256:10336   */\n      tag_184\n      jump\t// in\n    tag_287:\n        /* \"#utility.yul\":9726:10343   */\n      swap6\n      swap5\n      pop\n      pop\n      pop\n      pop\n      pop\n      jump\t// out\n\n    auxdata: 0xa2646970667358221220d793c084ec61ac9868c0f6886a702c1adaa8b7b5bb937a0ec4e341af6797d8f364736f6c634300081c0033\n}\n",
				"bytecode": {
					"linkReferences": {},
					"object": "6080604052600a6007555f60095f6101000a81548160ff0219169083151502179055505f600960016101000a81548160ff021916908315150217905550348015610047575f5ffd5b506040516111623803806111628339818101604052810190610069919061020f565b805f73ffffffffffffffffffffffffffffffffffffffff168173ffffffffffffffffffffffffffffffffffffffff16036100da575f6040517f1e4fbdf70000000000000000000000000000000000000000000000000000000081526004016100d19190610249565b60405180910390fd5b6100e9816100f060201b60201c565b5050610262565b5f5f5f9054906101000a900473ffffffffffffffffffffffffffffffffffffffff169050815f5f6101000a81548173ffffffffffffffffffffffffffffffffffffffff021916908373ffffffffffffffffffffffffffffffffffffffff1602179055508173ffffffffffffffffffffffffffffffffffffffff168173ffffffffffffffffffffffffffffffffffffffff167f8be0079c531659141344cd1fd0a4f28419497f9722a3daafe3b4186f6b6457e060405160405180910390a35050565b5f5ffd5b5f73ffffffffffffffffffffffffffffffffffffffff82169050919050565b5f6101de826101b5565b9050919050565b6101ee816101d4565b81146101f8575f5ffd5b50565b5f81519050610209816101e5565b92915050565b5f60208284031215610224576102236101b1565b5b5f610231848285016101fb565b91505092915050565b610243816101d4565b82525050565b5f60208201905061025c5f83018461023a565b92915050565b610ef38061026f5f395ff3fe608060405234801561000f575f5ffd5b50600436106100fe575f3560e01c8063ab4d819f11610095578063f1a002b111610064578063f1a002b114610254578063f2e27b6514610272578063f2fde38b1461028e578063fb5274e5146102aa576100fe565b8063ab4d819f146101dc578063acdcf5f2146101fa578063cb3ebec214610218578063ed22723a14610236576100fe565b8063715018a6116100d1578063715018a61461017a5780637b820b83146101845780638da5cb5b146101a25780639ad97fa0146101c0576100fe565b806311a1c8bd146101025780631934c786146101205780631f63000f1461013e578063638ad71d1461015c575b5f5ffd5b61010a6102b4565b6040516101179190610982565b60405180910390f35b6101286102ba565b6040516101359190610982565b60405180910390f35b6101466102c0565b60405161015391906109b5565b60405180910390f35b6101646102d3565b6040516101719190610982565b60405180910390f35b6101826102d9565b005b61018c6102ec565b6040516101999190610982565b60405180910390f35b6101aa6102f2565b6040516101b79190610a0d565b60405180910390f35b6101da60048036038101906101d59190610a54565b610319565b005b6101e4610512565b6040516101f19190610982565b60405180910390f35b610202610518565b60405161020f91906109b5565b60405180910390f35b6102206105aa565b60405161022d9190610982565b60405180910390f35b61023e6105b0565b60405161024b9190610982565b60405180910390f35b61025c6105b6565b60405161026991906109b5565b60405180910390f35b61028c60048036038101906102879190610a54565b6105c8565b005b6102a860048036038101906102a39190610aa9565b610750565b005b6102b26107d4565b005b60015481565b60065481565b600960019054906101000a900460ff1681565b60045481565b6102e161081b565b6102ea5f6108a2565b565b60025481565b5f5f5f9054906101000a900473ffffffffffffffffffffffffffffffffffffffff16905090565b61032161081b565b5f8111610363576040517f08c379a000000000000000000000000000000000000000000000000000000000815260040161035a90610b2e565b60405180910390fd5b5f60646032836103739190610b79565b61037d9190610be7565b90505f606460058461038f9190610b79565b6103999190610be7565b90506064600a836103aa9190610b79565b6103b49190610be7565b60015f8282546103c49190610c17565b925050819055506064600a836103da9190610b79565b6103e49190610be7565b60025f8282546103f49190610c17565b925050819055506064600a8361040a9190610b79565b6104149190610be7565b60035f8282546104249190610c17565b925050819055506064600a8361043a9190610b79565b6104449190610be7565b60045f8282546104549190610c17565b925050819055508060055f82825461046c9190610c17565b925050819055508060065f8282546104849190610c17565b925050819055507fc1879f0406577975a5876a8db2ec1549e2a3194f0f01e15bde4292d6e4b368246001546002546003546004546040516104c89493929190610c4a565b60405180910390a17fbbb79063c8e8bcd7691a017e4e76c5de1369686b9f0674f946b0129041525b59600554600654604051610505929190610c8d565b60405180910390a1505050565b60035481565b5f5f60016007546105299190610b79565b600a6007546105389190610b79565b60646007546105479190610b79565b6103e86007546105579190610b79565b6105619190610c17565b61056b9190610c17565b6105759190610c17565b90508060015410158061058a57508060025410155b8061059757508060035410155b806105a457508060045410155b91505090565b60055481565b60075481565b60095f9054906101000a900460ff1681565b6105d06102f2565b73ffffffffffffffffffffffffffffffffffffffff163373ffffffffffffffffffffffffffffffffffffffff16148061063457503273ffffffffffffffffffffffffffffffffffffffff163373ffffffffffffffffffffffffffffffffffffffff16145b610673576040517f08c379a000000000000000000000000000000000000000000000000000000000815260040161066a90610cfe565b60405180910390fd5b62093a806008546106849190610c17565b4210156106c6576040517f08c379a00000000000000000000000000000000000000000000000000000000081526004016106bd90610d8c565b60405180910390fd5b5f8111610708576040517f08c379a00000000000000000000000000000000000000000000000000000000081526004016106ff90610e1a565b60405180910390fd5b80600781905550426008819055507fbe74989b82c125ec369bdc21c95661e14a1d97c700ebdef03b84c0da6fc93c5a816040516107459190610982565b60405180910390a150565b61075861081b565b5f73ffffffffffffffffffffffffffffffffffffffff168173ffffffffffffffffffffffffffffffffffffffff16036107c8575f6040517f1e4fbdf70000000000000000000000000000000000000000000000000000000081526004016107bf9190610a0d565b60405180910390fd5b6107d1816108a2565b50565b6107dc61081b565b7ffe24c1a52828fa9764a2d2ebf1c0066647f541fa9636c315facf936ed0b3a7795f5f5f5f6040516108119493929190610e7a565b60405180910390a1565b610823610963565b73ffffffffffffffffffffffffffffffffffffffff166108416102f2565b73ffffffffffffffffffffffffffffffffffffffff16146108a057610864610963565b6040517f118cdaa70000000000000000000000000000000000000000000000000000000081526004016108979190610a0d565b60405180910390fd5b565b5f5f5f9054906101000a900473ffffffffffffffffffffffffffffffffffffffff169050815f5f6101000a81548173ffffffffffffffffffffffffffffffffffffffff021916908373ffffffffffffffffffffffffffffffffffffffff1602179055508173ffffffffffffffffffffffffffffffffffffffff168173ffffffffffffffffffffffffffffffffffffffff167f8be0079c531659141344cd1fd0a4f28419497f9722a3daafe3b4186f6b6457e060405160405180910390a35050565b5f33905090565b5f819050919050565b61097c8161096a565b82525050565b5f6020820190506109955f830184610973565b92915050565b5f8115159050919050565b6109af8161099b565b82525050565b5f6020820190506109c85f8301846109a6565b92915050565b5f73ffffffffffffffffffffffffffffffffffffffff82169050919050565b5f6109f7826109ce565b9050919050565b610a07816109ed565b82525050565b5f602082019050610a205f8301846109fe565b92915050565b5f5ffd5b610a338161096a565b8114610a3d575f5ffd5b50565b5f81359050610a4e81610a2a565b92915050565b5f60208284031215610a6957610a68610a26565b5b5f610a7684828501610a40565b91505092915050565b610a88816109ed565b8114610a92575f5ffd5b50565b5f81359050610aa381610a7f565b92915050565b5f60208284031215610abe57610abd610a26565b5b5f610acb84828501610a95565b91505092915050565b5f82825260208201905092915050565b7f4e6f2070726f6669747320746f206469737472696275746500000000000000005f82015250565b5f610b18601883610ad4565b9150610b2382610ae4565b602082019050919050565b5f6020820190508181035f830152610b4581610b0c565b9050919050565b7f4e487b71000000000000000000000000000000000000000000000000000000005f52601160045260245ffd5b5f610b838261096a565b9150610b8e8361096a565b9250828202610b9c8161096a565b91508282048414831517610bb357610bb2610b4c565b5b5092915050565b7f4e487b71000000000000000000000000000000000000000000000000000000005f52601260045260245ffd5b5f610bf18261096a565b9150610bfc8361096a565b925082610c0c57610c0b610bba565b5b828204905092915050565b5f610c218261096a565b9150610c2c8361096a565b9250828201905080821115610c4457610c43610b4c565b5b92915050565b5f608082019050610c5d5f830187610973565b610c6a6020830186610973565b610c776040830185610973565b610c846060830184610973565b95945050505050565b5f604082019050610ca05f830185610973565b610cad6020830184610973565b9392505050565b7f4e6f7420617574686f72697a65640000000000000000000000000000000000005f82015250565b5f610ce8600e83610ad4565b9150610cf382610cb4565b602082019050919050565b5f6020820190508181035f830152610d1581610cdc565b9050919050565b7f5072697a65207363616c652063616e206f6e6c792062652075706461746564205f8201527f6f6e636520706572207765656b00000000000000000000000000000000000000602082015250565b5f610d76602d83610ad4565b9150610d8182610d1c565b604082019050919050565b5f6020820190508181035f830152610da381610d6a565b9050919050565b7f5072697a65207363616c65206d7573742062652067726561746572207468616e5f8201527f207a65726f000000000000000000000000000000000000000000000000000000602082015250565b5f610e04602583610ad4565b9150610e0f82610daa565b604082019050919050565b5f6020820190508181035f830152610e3181610df8565b9050919050565b5f819050919050565b5f819050919050565b5f610e64610e5f610e5a84610e38565b610e41565b61096a565b9050919050565b610e7481610e4a565b82525050565b5f608082019050610e8d5f830187610e6b565b610e9a6020830186610e6b565b610ea76040830185610e6b565b610eb46060830184610e6b565b9594505050505056fea2646970667358221220d793c084ec61ac9868c0f6886a702c1adaa8b7b5bb937a0ec4e341af6797d8f364736f6c634300081c0033",
					"opcodes": "PUSH1 0x80 PUSH1 0x40 MSTORE PUSH1 0xA PUSH1 0x7 SSTORE PUSH0 PUSH1 0x9 PUSH0 PUSH2 0x100 EXP DUP2 SLOAD DUP2 PUSH1 0xFF MUL NOT AND SWAP1 DUP4 ISZERO ISZERO MUL OR SWAP1 SSTORE POP PUSH0 PUSH1 0x9 PUSH1 0x1 PUSH2 0x100 EXP DUP2 SLOAD DUP2 PUSH1 0xFF MUL NOT AND SWAP1 DUP4 ISZERO ISZERO MUL OR SWAP1 SSTORE POP CALLVALUE DUP1 ISZERO PUSH2 0x47 JUMPI PUSH0 PUSH0 REVERT JUMPDEST POP PUSH1 0x40 MLOAD PUSH2 0x1162 CODESIZE SUB DUP1 PUSH2 0x1162 DUP4 CODECOPY DUP2 DUP2 ADD PUSH1 0x40 MSTORE DUP2 ADD SWAP1 PUSH2 0x69 SWAP2 SWAP1 PUSH2 0x20F JUMP JUMPDEST DUP1 PUSH0 PUSH20 0xFFFFFFFFFFFFFFFFFFFFFFFFFFFFFFFFFFFFFFFF AND DUP2 PUSH20 0xFFFFFFFFFFFFFFFFFFFFFFFFFFFFFFFFFFFFFFFF AND SUB PUSH2 0xDA JUMPI PUSH0 PUSH1 0x40 MLOAD PUSH32 0x1E4FBDF700000000000000000000000000000000000000000000000000000000 DUP2 MSTORE PUSH1 0x4 ADD PUSH2 0xD1 SWAP2 SWAP1 PUSH2 0x249 JUMP JUMPDEST PUSH1 0x40 MLOAD DUP1 SWAP2 SUB SWAP1 REVERT JUMPDEST PUSH2 0xE9 DUP2 PUSH2 0xF0 PUSH1 0x20 SHL PUSH1 0x20 SHR JUMP JUMPDEST POP POP PUSH2 0x262 JUMP JUMPDEST PUSH0 PUSH0 PUSH0 SWAP1 SLOAD SWAP1 PUSH2 0x100 EXP SWAP1 DIV PUSH20 0xFFFFFFFFFFFFFFFFFFFFFFFFFFFFFFFFFFFFFFFF AND SWAP1 POP DUP2 PUSH0 PUSH0 PUSH2 0x100 EXP DUP2 SLOAD DUP2 PUSH20 0xFFFFFFFFFFFFFFFFFFFFFFFFFFFFFFFFFFFFFFFF MUL NOT AND SWAP1 DUP4 PUSH20 0xFFFFFFFFFFFFFFFFFFFFFFFFFFFFFFFFFFFFFFFF AND MUL OR SWAP1 SSTORE POP DUP2 PUSH20 0xFFFFFFFFFFFFFFFFFFFFFFFFFFFFFFFFFFFFFFFF AND DUP2 PUSH20 0xFFFFFFFFFFFFFFFFFFFFFFFFFFFFFFFFFFFFFFFF AND PUSH32 0x8BE0079C531659141344CD1FD0A4F28419497F9722A3DAAFE3B4186F6B6457E0 PUSH1 0x40 MLOAD PUSH1 0x40 MLOAD DUP1 SWAP2 SUB SWAP1 LOG3 POP POP JUMP JUMPDEST PUSH0 PUSH0 REVERT JUMPDEST PUSH0 PUSH20 0xFFFFFFFFFFFFFFFFFFFFFFFFFFFFFFFFFFFFFFFF DUP3 AND SWAP1 POP SWAP2 SWAP1 POP JUMP JUMPDEST PUSH0 PUSH2 0x1DE DUP3 PUSH2 0x1B5 JUMP JUMPDEST SWAP1 POP SWAP2 SWAP1 POP JUMP JUMPDEST PUSH2 0x1EE DUP2 PUSH2 0x1D4 JUMP JUMPDEST DUP2 EQ PUSH2 0x1F8 JUMPI PUSH0 PUSH0 REVERT JUMPDEST POP JUMP JUMPDEST PUSH0 DUP2 MLOAD SWAP1 POP PUSH2 0x209 DUP2 PUSH2 0x1E5 JUMP JUMPDEST SWAP3 SWAP2 POP POP JUMP JUMPDEST PUSH0 PUSH1 0x20 DUP3 DUP5 SUB SLT ISZERO PUSH2 0x224 JUMPI PUSH2 0x223 PUSH2 0x1B1 JUMP JUMPDEST JUMPDEST PUSH0 PUSH2 0x231 DUP5 DUP3 DUP6 ADD PUSH2 0x1FB JUMP JUMPDEST SWAP2 POP POP SWAP3 SWAP2 POP POP JUMP JUMPDEST PUSH2 0x243 DUP2 PUSH2 0x1D4 JUMP JUMPDEST DUP3 MSTORE POP POP JUMP JUMPDEST PUSH0 PUSH1 0x20 DUP3 ADD SWAP1 POP PUSH2 0x25C PUSH0 DUP4 ADD DUP5 PUSH2 0x23A JUMP JUMPDEST SWAP3 SWAP2 POP POP JUMP JUMPDEST PUSH2 0xEF3 DUP1 PUSH2 0x26F PUSH0 CODECOPY PUSH0 RETURN INVALID PUSH1 0x80 PUSH1 0x40 MSTORE CALLVALUE DUP1 ISZERO PUSH2 0xF JUMPI PUSH0 PUSH0 REVERT JUMPDEST POP PUSH1 0x4 CALLDATASIZE LT PUSH2 0xFE JUMPI PUSH0 CALLDATALOAD PUSH1 0xE0 SHR DUP1 PUSH4 0xAB4D819F GT PUSH2 0x95 JUMPI DUP1 PUSH4 0xF1A002B1 GT PUSH2 0x64 JUMPI DUP1 PUSH4 0xF1A002B1 EQ PUSH2 0x254 JUMPI DUP1 PUSH4 0xF2E27B65 EQ PUSH2 0x272 JUMPI DUP1 PUSH4 0xF2FDE38B EQ PUSH2 0x28E JUMPI DUP1 PUSH4 0xFB5274E5 EQ PUSH2 0x2AA JUMPI PUSH2 0xFE JUMP JUMPDEST DUP1 PUSH4 0xAB4D819F EQ PUSH2 0x1DC JUMPI DUP1 PUSH4 0xACDCF5F2 EQ PUSH2 0x1FA JUMPI DUP1 PUSH4 0xCB3EBEC2 EQ PUSH2 0x218 JUMPI DUP1 PUSH4 0xED22723A EQ PUSH2 0x236 JUMPI PUSH2 0xFE JUMP JUMPDEST DUP1 PUSH4 0x715018A6 GT PUSH2 0xD1 JUMPI DUP1 PUSH4 0x715018A6 EQ PUSH2 0x17A JUMPI DUP1 PUSH4 0x7B820B83 EQ PUSH2 0x184 JUMPI DUP1 PUSH4 0x8DA5CB5B EQ PUSH2 0x1A2 JUMPI DUP1 PUSH4 0x9AD97FA0 EQ PUSH2 0x1C0 JUMPI PUSH2 0xFE JUMP JUMPDEST DUP1 PUSH4 0x11A1C8BD EQ PUSH2 0x102 JUMPI DUP1 PUSH4 0x1934C786 EQ PUSH2 0x120 JUMPI DUP1 PUSH4 0x1F63000F EQ PUSH2 0x13E JUMPI DUP1 PUSH4 0x638AD71D EQ PUSH2 0x15C JUMPI JUMPDEST PUSH0 PUSH0 REVERT JUMPDEST PUSH2 0x10A PUSH2 0x2B4 JUMP JUMPDEST PUSH1 0x40 MLOAD PUSH2 0x117 SWAP2 SWAP1 PUSH2 0x982 JUMP JUMPDEST PUSH1 0x40 MLOAD DUP1 SWAP2 SUB SWAP1 RETURN JUMPDEST PUSH2 0x128 PUSH2 0x2BA JUMP JUMPDEST PUSH1 0x40 MLOAD PUSH2 0x135 SWAP2 SWAP1 PUSH2 0x982 JUMP JUMPDEST PUSH1 0x40 MLOAD DUP1 SWAP2 SUB SWAP1 RETURN JUMPDEST PUSH2 0x146 PUSH2 0x2C0 JUMP JUMPDEST PUSH1 0x40 MLOAD PUSH2 0x153 SWAP2 SWAP1 PUSH2 0x9B5 JUMP JUMPDEST PUSH1 0x40 MLOAD DUP1 SWAP2 SUB SWAP1 RETURN JUMPDEST PUSH2 0x164 PUSH2 0x2D3 JUMP JUMPDEST PUSH1 0x40 MLOAD PUSH2 0x171 SWAP2 SWAP1 PUSH2 0x982 JUMP JUMPDEST PUSH1 0x40 MLOAD DUP1 SWAP2 SUB SWAP1 RETURN JUMPDEST PUSH2 0x182 PUSH2 0x2D9 JUMP JUMPDEST STOP JUMPDEST PUSH2 0x18C PUSH2 0x2EC JUMP JUMPDEST PUSH1 0x40 MLOAD PUSH2 0x199 SWAP2 SWAP1 PUSH2 0x982 JUMP JUMPDEST PUSH1 0x40 MLOAD DUP1 SWAP2 SUB SWAP1 RETURN JUMPDEST PUSH2 0x1AA PUSH2 0x2F2 JUMP JUMPDEST PUSH1 0x40 MLOAD PUSH2 0x1B7 SWAP2 SWAP1 PUSH2 0xA0D JUMP JUMPDEST PUSH1 0x40 MLOAD DUP1 SWAP2 SUB SWAP1 RETURN JUMPDEST PUSH2 0x1DA PUSH1 0x4 DUP1 CALLDATASIZE SUB DUP2 ADD SWAP1 PUSH2 0x1D5 SWAP2 SWAP1 PUSH2 0xA54 JUMP JUMPDEST PUSH2 0x319 JUMP JUMPDEST STOP JUMPDEST PUSH2 0x1E4 PUSH2 0x512 JUMP JUMPDEST PUSH1 0x40 MLOAD PUSH2 0x1F1 SWAP2 SWAP1 PUSH2 0x982 JUMP JUMPDEST PUSH1 0x40 MLOAD DUP1 SWAP2 SUB SWAP1 RETURN JUMPDEST PUSH2 0x202 PUSH2 0x518 JUMP JUMPDEST PUSH1 0x40 MLOAD PUSH2 0x20F SWAP2 SWAP1 PUSH2 0x9B5 JUMP JUMPDEST PUSH1 0x40 MLOAD DUP1 SWAP2 SUB SWAP1 RETURN JUMPDEST PUSH2 0x220 PUSH2 0x5AA JUMP JUMPDEST PUSH1 0x40 MLOAD PUSH2 0x22D SWAP2 SWAP1 PUSH2 0x982 JUMP JUMPDEST PUSH1 0x40 MLOAD DUP1 SWAP2 SUB SWAP1 RETURN JUMPDEST PUSH2 0x23E PUSH2 0x5B0 JUMP JUMPDEST PUSH1 0x40 MLOAD PUSH2 0x24B SWAP2 SWAP1 PUSH2 0x982 JUMP JUMPDEST PUSH1 0x40 MLOAD DUP1 SWAP2 SUB SWAP1 RETURN JUMPDEST PUSH2 0x25C PUSH2 0x5B6 JUMP JUMPDEST PUSH1 0x40 MLOAD PUSH2 0x269 SWAP2 SWAP1 PUSH2 0x9B5 JUMP JUMPDEST PUSH1 0x40 MLOAD DUP1 SWAP2 SUB SWAP1 RETURN JUMPDEST PUSH2 0x28C PUSH1 0x4 DUP1 CALLDATASIZE SUB DUP2 ADD SWAP1 PUSH2 0x287 SWAP2 SWAP1 PUSH2 0xA54 JUMP JUMPDEST PUSH2 0x5C8 JUMP JUMPDEST STOP JUMPDEST PUSH2 0x2A8 PUSH1 0x4 DUP1 CALLDATASIZE SUB DUP2 ADD SWAP1 PUSH2 0x2A3 SWAP2 SWAP1 PUSH2 0xAA9 JUMP JUMPDEST PUSH2 0x750 JUMP JUMPDEST STOP JUMPDEST PUSH2 0x2B2 PUSH2 0x7D4 JUMP JUMPDEST STOP JUMPDEST PUSH1 0x1 SLOAD DUP2 JUMP JUMPDEST PUSH1 0x6 SLOAD DUP2 JUMP JUMPDEST PUSH1 0x9 PUSH1 0x1 SWAP1 SLOAD SWAP1 PUSH2 0x100 EXP SWAP1 DIV PUSH1 0xFF AND DUP2 JUMP JUMPDEST PUSH1 0x4 SLOAD DUP2 JUMP JUMPDEST PUSH2 0x2E1 PUSH2 0x81B JUMP JUMPDEST PUSH2 0x2EA PUSH0 PUSH2 0x8A2 JUMP JUMPDEST JUMP JUMPDEST PUSH1 0x2 SLOAD DUP2 JUMP JUMPDEST PUSH0 PUSH0 PUSH0 SWAP1 SLOAD SWAP1 PUSH2 0x100 EXP SWAP1 DIV PUSH20 0xFFFFFFFFFFFFFFFFFFFFFFFFFFFFFFFFFFFFFFFF AND SWAP1 POP SWAP1 JUMP JUMPDEST PUSH2 0x321 PUSH2 0x81B JUMP JUMPDEST PUSH0 DUP2 GT PUSH2 0x363 JUMPI PUSH1 0x40 MLOAD PUSH32 0x8C379A000000000000000000000000000000000000000000000000000000000 DUP2 MSTORE PUSH1 0x4 ADD PUSH2 0x35A SWAP1 PUSH2 0xB2E JUMP JUMPDEST PUSH1 0x40 MLOAD DUP1 SWAP2 SUB SWAP1 REVERT JUMPDEST PUSH0 PUSH1 0x64 PUSH1 0x32 DUP4 PUSH2 0x373 SWAP2 SWAP1 PUSH2 0xB79 JUMP JUMPDEST PUSH2 0x37D SWAP2 SWAP1 PUSH2 0xBE7 JUMP JUMPDEST SWAP1 POP PUSH0 PUSH1 0x64 PUSH1 0x5 DUP5 PUSH2 0x38F SWAP2 SWAP1 PUSH2 0xB79 JUMP JUMPDEST PUSH2 0x399 SWAP2 SWAP1 PUSH2 0xBE7 JUMP JUMPDEST SWAP1 POP PUSH1 0x64 PUSH1 0xA DUP4 PUSH2 0x3AA SWAP2 SWAP1 PUSH2 0xB79 JUMP JUMPDEST PUSH2 0x3B4 SWAP2 SWAP1 PUSH2 0xBE7 JUMP JUMPDEST PUSH1 0x1 PUSH0 DUP3 DUP3 SLOAD PUSH2 0x3C4 SWAP2 SWAP1 PUSH2 0xC17 JUMP JUMPDEST SWAP3 POP POP DUP2 SWAP1 SSTORE POP PUSH1 0x64 PUSH1 0xA DUP4 PUSH2 0x3DA SWAP2 SWAP1 PUSH2 0xB79 JUMP JUMPDEST PUSH2 0x3E4 SWAP2 SWAP1 PUSH2 0xBE7 JUMP JUMPDEST PUSH1 0x2 PUSH0 DUP3 DUP3 SLOAD PUSH2 0x3F4 SWAP2 SWAP1 PUSH2 0xC17 JUMP JUMPDEST SWAP3 POP POP DUP2 SWAP1 SSTORE POP PUSH1 0x64 PUSH1 0xA DUP4 PUSH2 0x40A SWAP2 SWAP1 PUSH2 0xB79 JUMP JUMPDEST PUSH2 0x414 SWAP2 SWAP1 PUSH2 0xBE7 JUMP JUMPDEST PUSH1 0x3 PUSH0 DUP3 DUP3 SLOAD PUSH2 0x424 SWAP2 SWAP1 PUSH2 0xC17 JUMP JUMPDEST SWAP3 POP POP DUP2 SWAP1 SSTORE POP PUSH1 0x64 PUSH1 0xA DUP4 PUSH2 0x43A SWAP2 SWAP1 PUSH2 0xB79 JUMP JUMPDEST PUSH2 0x444 SWAP2 SWAP1 PUSH2 0xBE7 JUMP JUMPDEST PUSH1 0x4 PUSH0 DUP3 DUP3 SLOAD PUSH2 0x454 SWAP2 SWAP1 PUSH2 0xC17 JUMP JUMPDEST SWAP3 POP POP DUP2 SWAP1 SSTORE POP DUP1 PUSH1 0x5 PUSH0 DUP3 DUP3 SLOAD PUSH2 0x46C SWAP2 SWAP1 PUSH2 0xC17 JUMP JUMPDEST SWAP3 POP POP DUP2 SWAP1 SSTORE POP DUP1 PUSH1 0x6 PUSH0 DUP3 DUP3 SLOAD PUSH2 0x484 SWAP2 SWAP1 PUSH2 0xC17 JUMP JUMPDEST SWAP3 POP POP DUP2 SWAP1 SSTORE POP PUSH32 0xC1879F0406577975A5876A8DB2EC1549E2A3194F0F01E15BDE4292D6E4B36824 PUSH1 0x1 SLOAD PUSH1 0x2 SLOAD PUSH1 0x3 SLOAD PUSH1 0x4 SLOAD PUSH1 0x40 MLOAD PUSH2 0x4C8 SWAP5 SWAP4 SWAP3 SWAP2 SWAP1 PUSH2 0xC4A JUMP JUMPDEST PUSH1 0x40 MLOAD DUP1 SWAP2 SUB SWAP1 LOG1 PUSH32 0xBBB79063C8E8BCD7691A017E4E76C5DE1369686B9F0674F946B0129041525B59 PUSH1 0x5 SLOAD PUSH1 0x6 SLOAD PUSH1 0x40 MLOAD PUSH2 0x505 SWAP3 SWAP2 SWAP1 PUSH2 0xC8D JUMP JUMPDEST PUSH1 0x40 MLOAD DUP1 SWAP2 SUB SWAP1 LOG1 POP POP POP JUMP JUMPDEST PUSH1 0x3 SLOAD DUP2 JUMP JUMPDEST PUSH0 PUSH0 PUSH1 0x1 PUSH1 0x7 SLOAD PUSH2 0x529 SWAP2 SWAP1 PUSH2 0xB79 JUMP JUMPDEST PUSH1 0xA PUSH1 0x7 SLOAD PUSH2 0x538 SWAP2 SWAP1 PUSH2 0xB79 JUMP JUMPDEST PUSH1 0x64 PUSH1 0x7 SLOAD PUSH2 0x547 SWAP2 SWAP1 PUSH2 0xB79 JUMP JUMPDEST PUSH2 0x3E8 PUSH1 0x7 SLOAD PUSH2 0x557 SWAP2 SWAP1 PUSH2 0xB79 JUMP JUMPDEST PUSH2 0x561 SWAP2 SWAP1 PUSH2 0xC17 JUMP JUMPDEST PUSH2 0x56B SWAP2 SWAP1 PUSH2 0xC17 JUMP JUMPDEST PUSH2 0x575 SWAP2 SWAP1 PUSH2 0xC17 JUMP JUMPDEST SWAP1 POP DUP1 PUSH1 0x1 SLOAD LT ISZERO DUP1 PUSH2 0x58A JUMPI POP DUP1 PUSH1 0x2 SLOAD LT ISZERO JUMPDEST DUP1 PUSH2 0x597 JUMPI POP DUP1 PUSH1 0x3 SLOAD LT ISZERO JUMPDEST DUP1 PUSH2 0x5A4 JUMPI POP DUP1 PUSH1 0x4 SLOAD LT ISZERO JUMPDEST SWAP2 POP POP SWAP1 JUMP JUMPDEST PUSH1 0x5 SLOAD DUP2 JUMP JUMPDEST PUSH1 0x7 SLOAD DUP2 JUMP JUMPDEST PUSH1 0x9 PUSH0 SWAP1 SLOAD SWAP1 PUSH2 0x100 EXP SWAP1 DIV PUSH1 0xFF AND DUP2 JUMP JUMPDEST PUSH2 0x5D0 PUSH2 0x2F2 JUMP JUMPDEST PUSH20 0xFFFFFFFFFFFFFFFFFFFFFFFFFFFFFFFFFFFFFFFF AND CALLER PUSH20 0xFFFFFFFFFFFFFFFFFFFFFFFFFFFFFFFFFFFFFFFF AND EQ DUP1 PUSH2 0x634 JUMPI POP ORIGIN PUSH20 0xFFFFFFFFFFFFFFFFFFFFFFFFFFFFFFFFFFFFFFFF AND CALLER PUSH20 0xFFFFFFFFFFFFFFFFFFFFFFFFFFFFFFFFFFFFFFFF AND EQ JUMPDEST PUSH2 0x673 JUMPI PUSH1 0x40 MLOAD PUSH32 0x8C379A000000000000000000000000000000000000000000000000000000000 DUP2 MSTORE PUSH1 0x4 ADD PUSH2 0x66A SWAP1 PUSH2 0xCFE JUMP JUMPDEST PUSH1 0x40 MLOAD DUP1 SWAP2 SUB SWAP1 REVERT JUMPDEST PUSH3 0x93A80 PUSH1 0x8 SLOAD PUSH2 0x684 SWAP2 SWAP1 PUSH2 0xC17 JUMP JUMPDEST TIMESTAMP LT ISZERO PUSH2 0x6C6 JUMPI PUSH1 0x40 MLOAD PUSH32 0x8C379A000000000000000000000000000000000000000000000000000000000 DUP2 MSTORE PUSH1 0x4 ADD PUSH2 0x6BD SWAP1 PUSH2 0xD8C JUMP JUMPDEST PUSH1 0x40 MLOAD DUP1 SWAP2 SUB SWAP1 REVERT JUMPDEST PUSH0 DUP2 GT PUSH2 0x708 JUMPI PUSH1 0x40 MLOAD PUSH32 0x8C379A000000000000000000000000000000000000000000000000000000000 DUP2 MSTORE PUSH1 0x4 ADD PUSH2 0x6FF SWAP1 PUSH2 0xE1A JUMP JUMPDEST PUSH1 0x40 MLOAD DUP1 SWAP2 SUB SWAP1 REVERT JUMPDEST DUP1 PUSH1 0x7 DUP2 SWAP1 SSTORE POP TIMESTAMP PUSH1 0x8 DUP2 SWAP1 SSTORE POP PUSH32 0xBE74989B82C125EC369BDC21C95661E14A1D97C700EBDEF03B84C0DA6FC93C5A DUP2 PUSH1 0x40 MLOAD PUSH2 0x745 SWAP2 SWAP1 PUSH2 0x982 JUMP JUMPDEST PUSH1 0x40 MLOAD DUP1 SWAP2 SUB SWAP1 LOG1 POP JUMP JUMPDEST PUSH2 0x758 PUSH2 0x81B JUMP JUMPDEST PUSH0 PUSH20 0xFFFFFFFFFFFFFFFFFFFFFFFFFFFFFFFFFFFFFFFF AND DUP2 PUSH20 0xFFFFFFFFFFFFFFFFFFFFFFFFFFFFFFFFFFFFFFFF AND SUB PUSH2 0x7C8 JUMPI PUSH0 PUSH1 0x40 MLOAD PUSH32 0x1E4FBDF700000000000000000000000000000000000000000000000000000000 DUP2 MSTORE PUSH1 0x4 ADD PUSH2 0x7BF SWAP2 SWAP1 PUSH2 0xA0D JUMP JUMPDEST PUSH1 0x40 MLOAD DUP1 SWAP2 SUB SWAP1 REVERT JUMPDEST PUSH2 0x7D1 DUP2 PUSH2 0x8A2 JUMP JUMPDEST POP JUMP JUMPDEST PUSH2 0x7DC PUSH2 0x81B JUMP JUMPDEST PUSH32 0xFE24C1A52828FA9764A2D2EBF1C0066647F541FA9636C315FACF936ED0B3A779 PUSH0 PUSH0 PUSH0 PUSH0 PUSH1 0x40 MLOAD PUSH2 0x811 SWAP5 SWAP4 SWAP3 SWAP2 SWAP1 PUSH2 0xE7A JUMP JUMPDEST PUSH1 0x40 MLOAD DUP1 SWAP2 SUB SWAP1 LOG1 JUMP JUMPDEST PUSH2 0x823 PUSH2 0x963 JUMP JUMPDEST PUSH20 0xFFFFFFFFFFFFFFFFFFFFFFFFFFFFFFFFFFFFFFFF AND PUSH2 0x841 PUSH2 0x2F2 JUMP JUMPDEST PUSH20 0xFFFFFFFFFFFFFFFFFFFFFFFFFFFFFFFFFFFFFFFF AND EQ PUSH2 0x8A0 JUMPI PUSH2 0x864 PUSH2 0x963 JUMP JUMPDEST PUSH1 0x40 MLOAD PUSH32 0x118CDAA700000000000000000000000000000000000000000000000000000000 DUP2 MSTORE PUSH1 0x4 ADD PUSH2 0x897 SWAP2 SWAP1 PUSH2 0xA0D JUMP JUMPDEST PUSH1 0x40 MLOAD DUP1 SWAP2 SUB SWAP1 REVERT JUMPDEST JUMP JUMPDEST PUSH0 PUSH0 PUSH0 SWAP1 SLOAD SWAP1 PUSH2 0x100 EXP SWAP1 DIV PUSH20 0xFFFFFFFFFFFFFFFFFFFFFFFFFFFFFFFFFFFFFFFF AND SWAP1 POP DUP2 PUSH0 PUSH0 PUSH2 0x100 EXP DUP2 SLOAD DUP2 PUSH20 0xFFFFFFFFFFFFFFFFFFFFFFFFFFFFFFFFFFFFFFFF MUL NOT AND SWAP1 DUP4 PUSH20 0xFFFFFFFFFFFFFFFFFFFFFFFFFFFFFFFFFFFFFFFF AND MUL OR SWAP1 SSTORE POP DUP2 PUSH20 0xFFFFFFFFFFFFFFFFFFFFFFFFFFFFFFFFFFFFFFFF AND DUP2 PUSH20 0xFFFFFFFFFFFFFFFFFFFFFFFFFFFFFFFFFFFFFFFF AND PUSH32 0x8BE0079C531659141344CD1FD0A4F28419497F9722A3DAAFE3B4186F6B6457E0 PUSH1 0x40 MLOAD PUSH1 0x40 MLOAD DUP1 SWAP2 SUB SWAP1 LOG3 POP POP JUMP JUMPDEST PUSH0 CALLER SWAP1 POP SWAP1 JUMP JUMPDEST PUSH0 DUP2 SWAP1 POP SWAP2 SWAP1 POP JUMP JUMPDEST PUSH2 0x97C DUP2 PUSH2 0x96A JUMP JUMPDEST DUP3 MSTORE POP POP JUMP JUMPDEST PUSH0 PUSH1 0x20 DUP3 ADD SWAP1 POP PUSH2 0x995 PUSH0 DUP4 ADD DUP5 PUSH2 0x973 JUMP JUMPDEST SWAP3 SWAP2 POP POP JUMP JUMPDEST PUSH0 DUP2 ISZERO ISZERO SWAP1 POP SWAP2 SWAP1 POP JUMP JUMPDEST PUSH2 0x9AF DUP2 PUSH2 0x99B JUMP JUMPDEST DUP3 MSTORE POP POP JUMP JUMPDEST PUSH0 PUSH1 0x20 DUP3 ADD SWAP1 POP PUSH2 0x9C8 PUSH0 DUP4 ADD DUP5 PUSH2 0x9A6 JUMP JUMPDEST SWAP3 SWAP2 POP POP JUMP JUMPDEST PUSH0 PUSH20 0xFFFFFFFFFFFFFFFFFFFFFFFFFFFFFFFFFFFFFFFF DUP3 AND SWAP1 POP SWAP2 SWAP1 POP JUMP JUMPDEST PUSH0 PUSH2 0x9F7 DUP3 PUSH2 0x9CE JUMP JUMPDEST SWAP1 POP SWAP2 SWAP1 POP JUMP JUMPDEST PUSH2 0xA07 DUP2 PUSH2 0x9ED JUMP JUMPDEST DUP3 MSTORE POP POP JUMP JUMPDEST PUSH0 PUSH1 0x20 DUP3 ADD SWAP1 POP PUSH2 0xA20 PUSH0 DUP4 ADD DUP5 PUSH2 0x9FE JUMP JUMPDEST SWAP3 SWAP2 POP POP JUMP JUMPDEST PUSH0 PUSH0 REVERT JUMPDEST PUSH2 0xA33 DUP2 PUSH2 0x96A JUMP JUMPDEST DUP2 EQ PUSH2 0xA3D JUMPI PUSH0 PUSH0 REVERT JUMPDEST POP JUMP JUMPDEST PUSH0 DUP2 CALLDATALOAD SWAP1 POP PUSH2 0xA4E DUP2 PUSH2 0xA2A JUMP JUMPDEST SWAP3 SWAP2 POP POP JUMP JUMPDEST PUSH0 PUSH1 0x20 DUP3 DUP5 SUB SLT ISZERO PUSH2 0xA69 JUMPI PUSH2 0xA68 PUSH2 0xA26 JUMP JUMPDEST JUMPDEST PUSH0 PUSH2 0xA76 DUP5 DUP3 DUP6 ADD PUSH2 0xA40 JUMP JUMPDEST SWAP2 POP POP SWAP3 SWAP2 POP POP JUMP JUMPDEST PUSH2 0xA88 DUP2 PUSH2 0x9ED JUMP JUMPDEST DUP2 EQ PUSH2 0xA92 JUMPI PUSH0 PUSH0 REVERT JUMPDEST POP JUMP JUMPDEST PUSH0 DUP2 CALLDATALOAD SWAP1 POP PUSH2 0xAA3 DUP2 PUSH2 0xA7F JUMP JUMPDEST SWAP3 SWAP2 POP POP JUMP JUMPDEST PUSH0 PUSH1 0x20 DUP3 DUP5 SUB SLT ISZERO PUSH2 0xABE JUMPI PUSH2 0xABD PUSH2 0xA26 JUMP JUMPDEST JUMPDEST PUSH0 PUSH2 0xACB DUP5 DUP3 DUP6 ADD PUSH2 0xA95 JUMP JUMPDEST SWAP2 POP POP SWAP3 SWAP2 POP POP JUMP JUMPDEST PUSH0 DUP3 DUP3 MSTORE PUSH1 0x20 DUP3 ADD SWAP1 POP SWAP3 SWAP2 POP POP JUMP JUMPDEST PUSH32 0x4E6F2070726F6669747320746F20646973747269627574650000000000000000 PUSH0 DUP3 ADD MSTORE POP JUMP JUMPDEST PUSH0 PUSH2 0xB18 PUSH1 0x18 DUP4 PUSH2 0xAD4 JUMP JUMPDEST SWAP2 POP PUSH2 0xB23 DUP3 PUSH2 0xAE4 JUMP JUMPDEST PUSH1 0x20 DUP3 ADD SWAP1 POP SWAP2 SWAP1 POP JUMP JUMPDEST PUSH0 PUSH1 0x20 DUP3 ADD SWAP1 POP DUP2 DUP2 SUB PUSH0 DUP4 ADD MSTORE PUSH2 0xB45 DUP2 PUSH2 0xB0C JUMP JUMPDEST SWAP1 POP SWAP2 SWAP1 POP JUMP JUMPDEST PUSH32 0x4E487B7100000000000000000000000000000000000000000000000000000000 PUSH0 MSTORE PUSH1 0x11 PUSH1 0x4 MSTORE PUSH1 0x24 PUSH0 REVERT JUMPDEST PUSH0 PUSH2 0xB83 DUP3 PUSH2 0x96A JUMP JUMPDEST SWAP2 POP PUSH2 0xB8E DUP4 PUSH2 0x96A JUMP JUMPDEST SWAP3 POP DUP3 DUP3 MUL PUSH2 0xB9C DUP2 PUSH2 0x96A JUMP JUMPDEST SWAP2 POP DUP3 DUP3 DIV DUP5 EQ DUP4 ISZERO OR PUSH2 0xBB3 JUMPI PUSH2 0xBB2 PUSH2 0xB4C JUMP JUMPDEST JUMPDEST POP SWAP3 SWAP2 POP POP JUMP JUMPDEST PUSH32 0x4E487B7100000000000000000000000000000000000000000000000000000000 PUSH0 MSTORE PUSH1 0x12 PUSH1 0x4 MSTORE PUSH1 0x24 PUSH0 REVERT JUMPDEST PUSH0 PUSH2 0xBF1 DUP3 PUSH2 0x96A JUMP JUMPDEST SWAP2 POP PUSH2 0xBFC DUP4 PUSH2 0x96A JUMP JUMPDEST SWAP3 POP DUP3 PUSH2 0xC0C JUMPI PUSH2 0xC0B PUSH2 0xBBA JUMP JUMPDEST JUMPDEST DUP3 DUP3 DIV SWAP1 POP SWAP3 SWAP2 POP POP JUMP JUMPDEST PUSH0 PUSH2 0xC21 DUP3 PUSH2 0x96A JUMP JUMPDEST SWAP2 POP PUSH2 0xC2C DUP4 PUSH2 0x96A JUMP JUMPDEST SWAP3 POP DUP3 DUP3 ADD SWAP1 POP DUP1 DUP3 GT ISZERO PUSH2 0xC44 JUMPI PUSH2 0xC43 PUSH2 0xB4C JUMP JUMPDEST JUMPDEST SWAP3 SWAP2 POP POP JUMP JUMPDEST PUSH0 PUSH1 0x80 DUP3 ADD SWAP1 POP PUSH2 0xC5D PUSH0 DUP4 ADD DUP8 PUSH2 0x973 JUMP JUMPDEST PUSH2 0xC6A PUSH1 0x20 DUP4 ADD DUP7 PUSH2 0x973 JUMP JUMPDEST PUSH2 0xC77 PUSH1 0x40 DUP4 ADD DUP6 PUSH2 0x973 JUMP JUMPDEST PUSH2 0xC84 PUSH1 0x60 DUP4 ADD DUP5 PUSH2 0x973 JUMP JUMPDEST SWAP6 SWAP5 POP POP POP POP POP JUMP JUMPDEST PUSH0 PUSH1 0x40 DUP3 ADD SWAP1 POP PUSH2 0xCA0 PUSH0 DUP4 ADD DUP6 PUSH2 0x973 JUMP JUMPDEST PUSH2 0xCAD PUSH1 0x20 DUP4 ADD DUP5 PUSH2 0x973 JUMP JUMPDEST SWAP4 SWAP3 POP POP POP JUMP JUMPDEST PUSH32 0x4E6F7420617574686F72697A6564000000000000000000000000000000000000 PUSH0 DUP3 ADD MSTORE POP JUMP JUMPDEST PUSH0 PUSH2 0xCE8 PUSH1 0xE DUP4 PUSH2 0xAD4 JUMP JUMPDEST SWAP2 POP PUSH2 0xCF3 DUP3 PUSH2 0xCB4 JUMP JUMPDEST PUSH1 0x20 DUP3 ADD SWAP1 POP SWAP2 SWAP1 POP JUMP JUMPDEST PUSH0 PUSH1 0x20 DUP3 ADD SWAP1 POP DUP2 DUP2 SUB PUSH0 DUP4 ADD MSTORE PUSH2 0xD15 DUP2 PUSH2 0xCDC JUMP JUMPDEST SWAP1 POP SWAP2 SWAP1 POP JUMP JUMPDEST PUSH32 0x5072697A65207363616C652063616E206F6E6C79206265207570646174656420 PUSH0 DUP3 ADD MSTORE PUSH32 0x6F6E636520706572207765656B00000000000000000000000000000000000000 PUSH1 0x20 DUP3 ADD MSTORE POP JUMP JUMPDEST PUSH0 PUSH2 0xD76 PUSH1 0x2D DUP4 PUSH2 0xAD4 JUMP JUMPDEST SWAP2 POP PUSH2 0xD81 DUP3 PUSH2 0xD1C JUMP JUMPDEST PUSH1 0x40 DUP3 ADD SWAP1 POP SWAP2 SWAP1 POP JUMP JUMPDEST PUSH0 PUSH1 0x20 DUP3 ADD SWAP1 POP DUP2 DUP2 SUB PUSH0 DUP4 ADD MSTORE PUSH2 0xDA3 DUP2 PUSH2 0xD6A JUMP JUMPDEST SWAP1 POP SWAP2 SWAP1 POP JUMP JUMPDEST PUSH32 0x5072697A65207363616C65206D7573742062652067726561746572207468616E PUSH0 DUP3 ADD MSTORE PUSH32 0x207A65726F000000000000000000000000000000000000000000000000000000 PUSH1 0x20 DUP3 ADD MSTORE POP JUMP JUMPDEST PUSH0 PUSH2 0xE04 PUSH1 0x25 DUP4 PUSH2 0xAD4 JUMP JUMPDEST SWAP2 POP PUSH2 0xE0F DUP3 PUSH2 0xDAA JUMP JUMPDEST PUSH1 0x40 DUP3 ADD SWAP1 POP SWAP2 SWAP1 POP JUMP JUMPDEST PUSH0 PUSH1 0x20 DUP3 ADD SWAP1 POP DUP2 DUP2 SUB PUSH0 DUP4 ADD MSTORE PUSH2 0xE31 DUP2 PUSH2 0xDF8 JUMP JUMPDEST SWAP1 POP SWAP2 SWAP1 POP JUMP JUMPDEST PUSH0 DUP2 SWAP1 POP SWAP2 SWAP1 POP JUMP JUMPDEST PUSH0 DUP2 SWAP1 POP SWAP2 SWAP1 POP JUMP JUMPDEST PUSH0 PUSH2 0xE64 PUSH2 0xE5F PUSH2 0xE5A DUP5 PUSH2 0xE38 JUMP JUMPDEST PUSH2 0xE41 JUMP JUMPDEST PUSH2 0x96A JUMP JUMPDEST SWAP1 POP SWAP2 SWAP1 POP JUMP JUMPDEST PUSH2 0xE74 DUP2 PUSH2 0xE4A JUMP JUMPDEST DUP3 MSTORE POP POP JUMP JUMPDEST PUSH0 PUSH1 0x80 DUP3 ADD SWAP1 POP PUSH2 0xE8D PUSH0 DUP4 ADD DUP8 PUSH2 0xE6B JUMP JUMPDEST PUSH2 0xE9A PUSH1 0x20 DUP4 ADD DUP7 PUSH2 0xE6B JUMP JUMPDEST PUSH2 0xEA7 PUSH1 0x40 DUP4 ADD DUP6 PUSH2 0xE6B JUMP JUMPDEST PUSH2 0xEB4 PUSH1 0x60 DUP4 ADD DUP5 PUSH2 0xE6B JUMP JUMPDEST SWAP6 SWAP5 POP POP POP POP POP JUMP INVALID LOG2 PUSH5 0x6970667358 0x22 SLT KECCAK256 0xD7 SWAP4 0xC0 DUP5 0xEC PUSH2 0xAC98 PUSH9 0xC0F6886A702C1ADAA8 0xB7 0xB5 0xBB SWAP4 PUSH27 0xEC4E341AF6797D8F364736F6C634300081C003300000000000000 "
				},
				"gasEstimates": {
					"creation": {
						"codeDepositCost": "765400",
						"executionCost": "infinite",
						"totalCost": "infinite"
					},
					"external": {
						"checkPrizePoolDistribution()": "infinite",
						"developerDividend()": "2471",
						"distributeDeveloperDividends()": "2585",
						"distributeOwnerDividends()": "2488",
						"generateWinners()": "infinite",
						"highPrize()": "2470",
						"lowPrize()": "2515",
						"middlePrize()": "2448",
						"owner()": "2581",
						"ownerDividend()": "2492",
						"prizeScale()": "2514",
						"renounceOwnership()": "infinite",
						"superPrize()": "2449",
						"transferOwnership(address)": "infinite",
						"updatePrizePools(uint256)": "infinite",
						"updatePrizeScale(uint256)": "infinite"
					}
				},
				"methodIdentifiers": {
					"checkPrizePoolDistribution()": "acdcf5f2",
					"developerDividend()": "1934c786",
					"distributeDeveloperDividends()": "1f63000f",
					"distributeOwnerDividends()": "f1a002b1",
					"generateWinners()": "fb5274e5",
					"highPrize()": "7b820b83",
					"lowPrize()": "638ad71d",
					"middlePrize()": "ab4d819f",
					"owner()": "8da5cb5b",
					"ownerDividend()": "cb3ebec2",
					"prizeScale()": "ed22723a",
					"renounceOwnership()": "715018a6",
					"superPrize()": "11a1c8bd",
					"transferOwnership(address)": "f2fde38b",
					"updatePrizePools(uint256)": "9ad97fa0",
					"updatePrizeScale(uint256)": "f2e27b65"
				}
			},
			"storageLayout": {
				"storage": [
					{
						"astId": 8,
						"contract": "contracts/PrizeManager.sol:PrizeManager",
						"label": "_owner",
						"offset": 0,
						"slot": "0",
						"type": "t_address"
					},
					{
						"astId": 185,
						"contract": "contracts/PrizeManager.sol:PrizeManager",
						"label": "superPrize",
						"offset": 0,
						"slot": "1",
						"type": "t_uint256"
					},
					{
						"astId": 187,
						"contract": "contracts/PrizeManager.sol:PrizeManager",
						"label": "highPrize",
						"offset": 0,
						"slot": "2",
						"type": "t_uint256"
					},
					{
						"astId": 189,
						"contract": "contracts/PrizeManager.sol:PrizeManager",
						"label": "middlePrize",
						"offset": 0,
						"slot": "3",
						"type": "t_uint256"
					},
					{
						"astId": 191,
						"contract": "contracts/PrizeManager.sol:PrizeManager",
						"label": "lowPrize",
						"offset": 0,
						"slot": "4",
						"type": "t_uint256"
					},
					{
						"astId": 193,
						"contract": "contracts/PrizeManager.sol:PrizeManager",
						"label": "ownerDividend",
						"offset": 0,
						"slot": "5",
						"type": "t_uint256"
					},
					{
						"astId": 195,
						"contract": "contracts/PrizeManager.sol:PrizeManager",
						"label": "developerDividend",
						"offset": 0,
						"slot": "6",
						"type": "t_uint256"
					},
					{
						"astId": 198,
						"contract": "contracts/PrizeManager.sol:PrizeManager",
						"label": "prizeScale",
						"offset": 0,
						"slot": "7",
						"type": "t_uint256"
					},
					{
						"astId": 200,
						"contract": "contracts/PrizeManager.sol:PrizeManager",
						"label": "lastPrizeScaleUpdate",
						"offset": 0,
						"slot": "8",
						"type": "t_uint256"
					},
					{
						"astId": 203,
						"contract": "contracts/PrizeManager.sol:PrizeManager",
						"label": "distributeOwnerDividends",
						"offset": 0,
						"slot": "9",
						"type": "t_bool"
					},
					{
						"astId": 206,
						"contract": "contracts/PrizeManager.sol:PrizeManager",
						"label": "distributeDeveloperDividends",
						"offset": 1,
						"slot": "9",
						"type": "t_bool"
					}
				],
				"types": {
					"t_address": {
						"encoding": "inplace",
						"label": "address",
						"numberOfBytes": "20"
					},
					"t_bool": {
						"encoding": "inplace",
						"label": "bool",
						"numberOfBytes": "1"
					},
					"t_uint256": {
						"encoding": "inplace",
						"label": "uint256",
						"numberOfBytes": "32"
					}
				}
			},
			"userdoc": {
				"kind": "user",
				"methods": {
					"checkPrizePoolDistribution()": {
						"notice": "Checks if there are sufficient funds in prize pools for distribution."
					},
					"constructor": {
						"notice": "Constructor to initialize the contract with an initial owner."
					},
					"generateWinners()": {
						"notice": "Generates winners for each prize pool."
					},
					"updatePrizePools(uint256)": {
						"notice": "Updates the prize pools and dividends based on weekly profits."
					},
					"updatePrizeScale(uint256)": {
						"notice": "Allows owner or developer to update the prize scale once per week."
					}
				},
				"version": 1
			}
		}
	}
}