{
	"contracts/NASICOIN.sol": {
		"NASICOIN": {
			"abi": [
				{
					"inputs": [
						{
							"internalType": "address",
							"name": "initialOwner",
							"type": "address"
						}
					],
					"stateMutability": "nonpayable",
					"type": "constructor"
				},
				{
					"inputs": [
						{
							"internalType": "address",
							"name": "spender",
							"type": "address"
						},
						{
							"internalType": "uint256",
							"name": "allowance",
							"type": "uint256"
						},
						{
							"internalType": "uint256",
							"name": "needed",
							"type": "uint256"
						}
					],
					"name": "ERC20InsufficientAllowance",
					"type": "error"
				},
				{
					"inputs": [
						{
							"internalType": "address",
							"name": "sender",
							"type": "address"
						},
						{
							"internalType": "uint256",
							"name": "balance",
							"type": "uint256"
						},
						{
							"internalType": "uint256",
							"name": "needed",
							"type": "uint256"
						}
					],
					"name": "ERC20InsufficientBalance",
					"type": "error"
				},
				{
					"inputs": [
						{
							"internalType": "address",
							"name": "approver",
							"type": "address"
						}
					],
					"name": "ERC20InvalidApprover",
					"type": "error"
				},
				{
					"inputs": [
						{
							"internalType": "address",
							"name": "receiver",
							"type": "address"
						}
					],
					"name": "ERC20InvalidReceiver",
					"type": "error"
				},
				{
					"inputs": [
						{
							"internalType": "address",
							"name": "sender",
							"type": "address"
						}
					],
					"name": "ERC20InvalidSender",
					"type": "error"
				},
				{
					"inputs": [
						{
							"internalType": "address",
							"name": "spender",
							"type": "address"
						}
					],
					"name": "ERC20InvalidSpender",
					"type": "error"
				},
				{
					"inputs": [
						{
							"internalType": "address",
							"name": "owner",
							"type": "address"
						}
					],
					"name": "OwnableInvalidOwner",
					"type": "error"
				},
				{
					"inputs": [
						{
							"internalType": "address",
							"name": "account",
							"type": "address"
						}
					],
					"name": "OwnableUnauthorizedAccount",
					"type": "error"
				},
				{
					"anonymous": false,
					"inputs": [
						{
							"indexed": true,
							"internalType": "address",
							"name": "owner",
							"type": "address"
						},
						{
							"indexed": true,
							"internalType": "address",
							"name": "spender",
							"type": "address"
						},
						{
							"indexed": false,
							"internalType": "uint256",
							"name": "value",
							"type": "uint256"
						}
					],
					"name": "Approval",
					"type": "event"
				},
				{
					"anonymous": false,
					"inputs": [
						{
							"indexed": true,
							"internalType": "address",
							"name": "currentDeveloper",
							"type": "address"
						}
					],
					"name": "DeveloperChangeCanceled",
					"type": "event"
				},
				{
					"anonymous": false,
					"inputs": [
						{
							"indexed": true,
							"internalType": "address",
							"name": "requester",
							"type": "address"
						},
						{
							"indexed": true,
							"internalType": "address",
							"name": "newDeveloper",
							"type": "address"
						}
					],
					"name": "DeveloperChangeRequested",
					"type": "event"
				},
				{
					"anonymous": false,
					"inputs": [
						{
							"indexed": true,
							"internalType": "address",
							"name": "oldDeveloper",
							"type": "address"
						},
						{
							"indexed": true,
							"internalType": "address",
							"name": "newDeveloper",
							"type": "address"
						}
					],
					"name": "DeveloperChanged",
					"type": "event"
				},
				{
					"anonymous": false,
					"inputs": [
						{
							"indexed": true,
							"internalType": "address",
							"name": "currentOwner",
							"type": "address"
						}
					],
					"name": "OwnerChangeCanceled",
					"type": "event"
				},
				{
					"anonymous": false,
					"inputs": [
						{
							"indexed": true,
							"internalType": "address",
							"name": "requester",
							"type": "address"
						},
						{
							"indexed": true,
							"internalType": "address",
							"name": "newOwner",
							"type": "address"
						}
					],
					"name": "OwnerChangeRequested",
					"type": "event"
				},
				{
					"anonymous": false,
					"inputs": [
						{
							"indexed": true,
							"internalType": "address",
							"name": "previousOwner",
							"type": "address"
						},
						{
							"indexed": true,
							"internalType": "address",
							"name": "newOwner",
							"type": "address"
						}
					],
					"name": "OwnershipTransferred",
					"type": "event"
				},
				{
					"anonymous": false,
					"inputs": [
						{
							"indexed": true,
							"internalType": "address",
							"name": "from",
							"type": "address"
						},
						{
							"indexed": true,
							"internalType": "address",
							"name": "to",
							"type": "address"
						},
						{
							"indexed": false,
							"internalType": "uint256",
							"name": "value",
							"type": "uint256"
						}
					],
					"name": "Transfer",
					"type": "event"
				},
				{
					"inputs": [],
					"name": "INITIAL_SUPPLY",
					"outputs": [
						{
							"internalType": "uint256",
							"name": "",
							"type": "uint256"
						}
					],
					"stateMutability": "view",
					"type": "function"
				},
				{
					"inputs": [
						{
							"internalType": "address",
							"name": "owner",
							"type": "address"
						},
						{
							"internalType": "address",
							"name": "spender",
							"type": "address"
						}
					],
					"name": "allowance",
					"outputs": [
						{
							"internalType": "uint256",
							"name": "",
							"type": "uint256"
						}
					],
					"stateMutability": "view",
					"type": "function"
				},
				{
					"inputs": [
						{
							"internalType": "address",
							"name": "spender",
							"type": "address"
						},
						{
							"internalType": "uint256",
							"name": "value",
							"type": "uint256"
						}
					],
					"name": "approve",
					"outputs": [
						{
							"internalType": "bool",
							"name": "",
							"type": "bool"
						}
					],
					"stateMutability": "nonpayable",
					"type": "function"
				},
				{
					"inputs": [
						{
							"internalType": "address",
							"name": "account",
							"type": "address"
						}
					],
					"name": "balanceOf",
					"outputs": [
						{
							"internalType": "uint256",
							"name": "",
							"type": "uint256"
						}
					],
					"stateMutability": "view",
					"type": "function"
				},
				{
					"inputs": [],
					"name": "cancelDeveloperChange",
					"outputs": [],
					"stateMutability": "nonpayable",
					"type": "function"
				},
				{
					"inputs": [],
					"name": "cancelOwnerChange",
					"outputs": [],
					"stateMutability": "nonpayable",
					"type": "function"
				},
				{
					"inputs": [],
					"name": "decimals",
					"outputs": [
						{
							"internalType": "uint8",
							"name": "",
							"type": "uint8"
						}
					],
					"stateMutability": "view",
					"type": "function"
				},
				{
					"inputs": [],
					"name": "developer",
					"outputs": [
						{
							"internalType": "address",
							"name": "",
							"type": "address"
						}
					],
					"stateMutability": "view",
					"type": "function"
				},
				{
					"inputs": [],
					"name": "developerChangeRequestTime",
					"outputs": [
						{
							"internalType": "uint256",
							"name": "",
							"type": "uint256"
						}
					],
					"stateMutability": "view",
					"type": "function"
				},
				{
					"inputs": [],
					"name": "finalizeDeveloperChange",
					"outputs": [],
					"stateMutability": "nonpayable",
					"type": "function"
				},
				{
					"inputs": [],
					"name": "finalizeOwnerChange",
					"outputs": [],
					"stateMutability": "nonpayable",
					"type": "function"
				},
				{
					"inputs": [
						{
							"internalType": "address",
							"name": "user",
							"type": "address"
						}
					],
					"name": "getUserBalance",
					"outputs": [
						{
							"internalType": "uint256",
							"name": "",
							"type": "uint256"
						}
					],
					"stateMutability": "view",
					"type": "function"
				},
				{
					"inputs": [],
					"name": "getUsers",
					"outputs": [
						{
							"internalType": "address[]",
							"name": "",
							"type": "address[]"
						}
					],
					"stateMutability": "view",
					"type": "function"
				},
				{
					"inputs": [
						{
							"internalType": "address",
							"name": "to",
							"type": "address"
						},
						{
							"internalType": "uint256",
							"name": "amount",
							"type": "uint256"
						}
					],
					"name": "mint",
					"outputs": [],
					"stateMutability": "nonpayable",
					"type": "function"
				},
				{
					"inputs": [],
					"name": "name",
					"outputs": [
						{
							"internalType": "string",
							"name": "",
							"type": "string"
						}
					],
					"stateMutability": "view",
					"type": "function"
				},
				{
					"inputs": [],
					"name": "owner",
					"outputs": [
						{
							"internalType": "address",
							"name": "",
							"type": "address"
						}
					],
					"stateMutability": "view",
					"type": "function"
				},
				{
					"inputs": [],
					"name": "ownerChangeRequestTime",
					"outputs": [
						{
							"internalType": "uint256",
							"name": "",
							"type": "uint256"
						}
					],
					"stateMutability": "view",
					"type": "function"
				},
				{
					"inputs": [],
					"name": "pendingNewDeveloper",
					"outputs": [
						{
							"internalType": "address",
							"name": "",
							"type": "address"
						}
					],
					"stateMutability": "view",
					"type": "function"
				},
				{
					"inputs": [],
					"name": "pendingNewOwner",
					"outputs": [
						{
							"internalType": "address",
							"name": "",
							"type": "address"
						}
					],
					"stateMutability": "view",
					"type": "function"
				},
				{
					"inputs": [],
					"name": "renounceOwnership",
					"outputs": [],
					"stateMutability": "nonpayable",
					"type": "function"
				},
				{
					"inputs": [
						{
							"internalType": "address",
							"name": "_newDeveloper",
							"type": "address"
						}
					],
					"name": "requestDeveloperChange",
					"outputs": [],
					"stateMutability": "nonpayable",
					"type": "function"
				},
				{
					"inputs": [
						{
							"internalType": "address",
							"name": "_newOwner",
							"type": "address"
						}
					],
					"name": "requestOwnerChange",
					"outputs": [],
					"stateMutability": "nonpayable",
					"type": "function"
				},
				{
					"inputs": [
						{
							"internalType": "address",
							"name": "_vaultManager",
							"type": "address"
						}
					],
					"name": "setVaultManager",
					"outputs": [],
					"stateMutability": "nonpayable",
					"type": "function"
				},
				{
					"inputs": [],
					"name": "symbol",
					"outputs": [
						{
							"internalType": "string",
							"name": "",
							"type": "string"
						}
					],
					"stateMutability": "view",
					"type": "function"
				},
				{
					"inputs": [],
					"name": "totalSupply",
					"outputs": [
						{
							"internalType": "uint256",
							"name": "",
							"type": "uint256"
						}
					],
					"stateMutability": "view",
					"type": "function"
				},
				{
					"inputs": [
						{
							"internalType": "address",
							"name": "to",
							"type": "address"
						},
						{
							"internalType": "uint256",
							"name": "value",
							"type": "uint256"
						}
					],
					"name": "transfer",
					"outputs": [
						{
							"internalType": "bool",
							"name": "",
							"type": "bool"
						}
					],
					"stateMutability": "nonpayable",
					"type": "function"
				},
				{
					"inputs": [
						{
							"internalType": "address",
							"name": "from",
							"type": "address"
						},
						{
							"internalType": "address",
							"name": "to",
							"type": "address"
						},
						{
							"internalType": "uint256",
							"name": "value",
							"type": "uint256"
						}
					],
					"name": "transferFrom",
					"outputs": [
						{
							"internalType": "bool",
							"name": "",
							"type": "bool"
						}
					],
					"stateMutability": "nonpayable",
					"type": "function"
				},
				{
					"inputs": [
						{
							"internalType": "address",
							"name": "newOwner",
							"type": "address"
						}
					],
					"name": "transferOwnership",
					"outputs": [],
					"stateMutability": "nonpayable",
					"type": "function"
				},
				{
					"inputs": [],
					"name": "vaultManager",
					"outputs": [
						{
							"internalType": "address",
							"name": "",
							"type": "address"
						}
					],
					"stateMutability": "view",
					"type": "function"
				}
			],
			"devdoc": {
				"details": "NASICOIN is a token created to support the owner of a cat named NASIC.       It has unique functionalities such as staking, donations, and weekly lottery-based prize distributions.      The fractional unit of NASICOIN is called \"FISH\".",
				"errors": {
					"ERC20InsufficientAllowance(address,uint256,uint256)": [
						{
							"details": "Indicates a failure with the `spender`’s `allowance`. Used in transfers.",
							"params": {
								"allowance": "Amount of tokens a `spender` is allowed to operate with.",
								"needed": "Minimum amount required to perform a transfer.",
								"spender": "Address that may be allowed to operate on tokens without being their owner."
							}
						}
					],
					"ERC20InsufficientBalance(address,uint256,uint256)": [
						{
							"details": "Indicates an error related to the current `balance` of a `sender`. Used in transfers.",
							"params": {
								"balance": "Current balance for the interacting account.",
								"needed": "Minimum amount required to perform a transfer.",
								"sender": "Address whose tokens are being transferred."
							}
						}
					],
					"ERC20InvalidApprover(address)": [
						{
							"details": "Indicates a failure with the `approver` of a token to be approved. Used in approvals.",
							"params": {
								"approver": "Address initiating an approval operation."
							}
						}
					],
					"ERC20InvalidReceiver(address)": [
						{
							"details": "Indicates a failure with the token `receiver`. Used in transfers.",
							"params": {
								"receiver": "Address to which tokens are being transferred."
							}
						}
					],
					"ERC20InvalidSender(address)": [
						{
							"details": "Indicates a failure with the token `sender`. Used in transfers.",
							"params": {
								"sender": "Address whose tokens are being transferred."
							}
						}
					],
					"ERC20InvalidSpender(address)": [
						{
							"details": "Indicates a failure with the `spender` to be approved. Used in approvals.",
							"params": {
								"spender": "Address that may be allowed to operate on tokens without being their owner."
							}
						}
					],
					"OwnableInvalidOwner(address)": [
						{
							"details": "The owner is not a valid owner account. (eg. `address(0)`)"
						}
					],
					"OwnableUnauthorizedAccount(address)": [
						{
							"details": "The caller account is not authorized to perform an operation."
						}
					]
				},
				"events": {
					"Approval(address,address,uint256)": {
						"details": "Emitted when the allowance of a `spender` for an `owner` is set by a call to {approve}. `value` is the new allowance."
					},
					"Transfer(address,address,uint256)": {
						"details": "Emitted when `value` tokens are moved from one account (`from`) to another (`to`). Note that `value` may be zero."
					}
				},
				"kind": "dev",
				"methods": {
					"allowance(address,address)": {
						"details": "See {IERC20-allowance}."
					},
					"approve(address,uint256)": {
						"details": "See {IERC20-approve}. NOTE: If `value` is the maximum `uint256`, the allowance is not updated on `transferFrom`. This is semantically equivalent to an infinite approval. Requirements: - `spender` cannot be the zero address."
					},
					"balanceOf(address)": {
						"details": "See {IERC20-balanceOf}."
					},
					"constructor": {
						"params": {
							"initialOwner": "The initial owner of the contract (passed to the Ownable constructor)."
						}
					},
					"mint(address,uint256)": {
						"params": {
							"amount": "The amount of tokens to mint.",
							"to": "The address to receive the newly minted tokens."
						}
					},
					"name()": {
						"details": "Returns the name of the token."
					},
					"owner()": {
						"details": "Returns the address of the current owner."
					},
					"renounceOwnership()": {
						"details": "Leaves the contract without owner. It will not be possible to call `onlyOwner` functions. Can only be called by the current owner. NOTE: Renouncing ownership will leave the contract without an owner, thereby disabling any functionality that is only available to the owner."
					},
					"requestDeveloperChange(address)": {
						"params": {
							"_newDeveloper": "Address of the new developer."
						}
					},
					"requestOwnerChange(address)": {
						"params": {
							"_newOwner": "Address of the new owner."
						}
					},
					"setVaultManager(address)": {
						"params": {
							"_vaultManager": "The address of the VaultManager contract."
						}
					},
					"symbol()": {
						"details": "Returns the symbol of the token, usually a shorter version of the name."
					},
					"totalSupply()": {
						"details": "See {IERC20-totalSupply}."
					},
					"transfer(address,uint256)": {
						"details": "See {IERC20-transfer}. Requirements: - `to` cannot be the zero address. - the caller must have a balance of at least `value`."
					},
					"transferFrom(address,address,uint256)": {
						"details": "See {IERC20-transferFrom}. Skips emitting an {Approval} event indicating an allowance update. This is not required by the ERC. See {xref-ERC20-_approve-address-address-uint256-bool-}[_approve]. NOTE: Does not update the allowance if the current allowance is the maximum `uint256`. Requirements: - `from` and `to` cannot be the zero address. - `from` must have a balance of at least `value`. - the caller must have allowance for ``from``'s tokens of at least `value`."
					},
					"transferOwnership(address)": {
						"details": "Transfers ownership of the contract to a new account (`newOwner`). Can only be called by the current owner."
					}
				},
				"title": "NASICOIN (NASIC)",
				"version": 1
			},
			"evm": {
				"assembly": "    /* \"contracts/NASICOIN.sol\":540:8227  contract NASICOIN is ERC20, Ownable {... */\n  mstore(0x40, 0x80)\n    /* \"contracts/NASICOIN.sol\":1938:2199  constructor(address initialOwner) ERC20(\"NASICOIN\", \"NASIC\") Ownable(initialOwner) {... */\n  callvalue\n  dup1\n  iszero\n  tag_1\n  jumpi\n  revert(0x00, 0x00)\ntag_1:\n  pop\n  mload(0x40)\n  sub(codesize, bytecodeSize)\n  dup1\n  bytecodeSize\n  dup4\n  codecopy\n  dup2\n  dup2\n  add\n  0x40\n  mstore\n  dup2\n  add\n  swap1\n  tag_2\n  swap2\n  swap1\n  tag_3\n  jump\t// in\ntag_2:\n    /* \"contracts/NASICOIN.sol\":2007:2019  initialOwner */\n  dup1\n    /* \"@openzeppelin/contracts/token/ERC20/ERC20.sol\":1601:1714  constructor(string memory name_, string memory symbol_) {... */\n  mload(0x40)\n  dup1\n  0x40\n  add\n  0x40\n  mstore\n  dup1\n  0x08\n  dup2\n  mstore\n  0x20\n  add\n  0x4e415349434f494e000000000000000000000000000000000000000000000000\n  dup2\n  mstore\n  pop\n  mload(0x40)\n  dup1\n  0x40\n  add\n  0x40\n  mstore\n  dup1\n  0x05\n  dup2\n  mstore\n  0x20\n  add\n  0x4e41534943000000000000000000000000000000000000000000000000000000\n  dup2\n  mstore\n  pop\n    /* \"@openzeppelin/contracts/token/ERC20/ERC20.sol\":1675:1680  name_ */\n  dup2\n    /* \"@openzeppelin/contracts/token/ERC20/ERC20.sol\":1667:1672  _name */\n  0x03\n    /* \"@openzeppelin/contracts/token/ERC20/ERC20.sol\":1667:1680  _name = name_ */\n  swap1\n  dup2\n  tag_8\n  swap2\n  swap1\n  tag_9\n  jump\t// in\ntag_8:\n  pop\n    /* \"@openzeppelin/contracts/token/ERC20/ERC20.sol\":1700:1707  symbol_ */\n  dup1\n    /* \"@openzeppelin/contracts/token/ERC20/ERC20.sol\":1690:1697  _symbol */\n  0x04\n    /* \"@openzeppelin/contracts/token/ERC20/ERC20.sol\":1690:1707  _symbol = symbol_ */\n  swap1\n  dup2\n  tag_10\n  swap2\n  swap1\n  tag_9\n  jump\t// in\ntag_10:\n  pop\n    /* \"@openzeppelin/contracts/token/ERC20/ERC20.sol\":1601:1714  constructor(string memory name_, string memory symbol_) {... */\n  pop\n  pop\n    /* \"@openzeppelin/contracts/access/Ownable.sol\":1297:1298  0 */\n  0x00\n    /* \"@openzeppelin/contracts/access/Ownable.sol\":1273:1299  initialOwner == address(0) */\n  0xffffffffffffffffffffffffffffffffffffffff\n  and\n    /* \"@openzeppelin/contracts/access/Ownable.sol\":1273:1285  initialOwner */\n  dup2\n    /* \"@openzeppelin/contracts/access/Ownable.sol\":1273:1299  initialOwner == address(0) */\n  0xffffffffffffffffffffffffffffffffffffffff\n  and\n  sub\n    /* \"@openzeppelin/contracts/access/Ownable.sol\":1269:1364  if (initialOwner == address(0)) {... */\n  tag_12\n  jumpi\n    /* \"@openzeppelin/contracts/access/Ownable.sol\":1350:1351  0 */\n  0x00\n    /* \"@openzeppelin/contracts/access/Ownable.sol\":1322:1353  OwnableInvalidOwner(address(0)) */\n  mload(0x40)\n  0x1e4fbdf700000000000000000000000000000000000000000000000000000000\n  dup2\n  mstore\n  0x04\n  add\n  tag_13\n  swap2\n  swap1\n  tag_14\n  jump\t// in\ntag_13:\n  mload(0x40)\n  dup1\n  swap2\n  sub\n  swap1\n  revert\n    /* \"@openzeppelin/contracts/access/Ownable.sol\":1269:1364  if (initialOwner == address(0)) {... */\ntag_12:\n    /* \"@openzeppelin/contracts/access/Ownable.sol\":1373:1405  _transferOwnership(initialOwner) */\n  tag_15\n    /* \"@openzeppelin/contracts/access/Ownable.sol\":1392:1404  initialOwner */\n  dup2\n    /* \"@openzeppelin/contracts/access/Ownable.sol\":1373:1391  _transferOwnership */\n  shl(0x20, tag_16)\n    /* \"@openzeppelin/contracts/access/Ownable.sol\":1373:1405  _transferOwnership(initialOwner) */\n  0x20\n  shr\n  jump\t// in\ntag_15:\n    /* \"@openzeppelin/contracts/access/Ownable.sol\":1225:1412  constructor(address initialOwner) {... */\n  pop\n    /* \"contracts/NASICOIN.sol\":2094:2104  msg.sender */\n  caller\n    /* \"contracts/NASICOIN.sol\":2082:2091  developer */\n  0x09\n  0x00\n    /* \"contracts/NASICOIN.sol\":2082:2104  developer = msg.sender */\n  0x0100\n  exp\n  dup2\n  sload\n  dup2\n  0xffffffffffffffffffffffffffffffffffffffff\n  mul\n  not\n  and\n  swap1\n  dup4\n  0xffffffffffffffffffffffffffffffffffffffff\n  and\n  mul\n  or\n  swap1\n  sstore\n  pop\n    /* \"contracts/NASICOIN.sol\":2159:2192  _mint(msg.sender, INITIAL_SUPPLY) */\n  tag_18\n    /* \"contracts/NASICOIN.sol\":2165:2175  msg.sender */\n  caller\n    /* \"contracts/NASICOIN.sol\":640:650  2 * 10**18 */\n  0x1bc16d674ec80000\n    /* \"contracts/NASICOIN.sol\":2159:2164  _mint */\n  shl(0x20, tag_19)\n    /* \"contracts/NASICOIN.sol\":2159:2192  _mint(msg.sender, INITIAL_SUPPLY) */\n  0x20\n  shr\n  jump\t// in\ntag_18:\n    /* \"contracts/NASICOIN.sol\":1938:2199  constructor(address initialOwner) ERC20(\"NASICOIN\", \"NASIC\") Ownable(initialOwner) {... */\n  pop\n    /* \"contracts/NASICOIN.sol\":540:8227  contract NASICOIN is ERC20, Ownable {... */\n  jump(tag_20)\n    /* \"@openzeppelin/contracts/access/Ownable.sol\":2912:3099  function _transferOwnership(address newOwner) internal virtual {... */\ntag_16:\n    /* \"@openzeppelin/contracts/access/Ownable.sol\":2985:3001  address oldOwner */\n  0x00\n    /* \"@openzeppelin/contracts/access/Ownable.sol\":3004:3010  _owner */\n  0x05\n  0x00\n  swap1\n  sload\n  swap1\n  0x0100\n  exp\n  swap1\n  div\n  0xffffffffffffffffffffffffffffffffffffffff\n  and\n    /* \"@openzeppelin/contracts/access/Ownable.sol\":2985:3010  address oldOwner = _owner */\n  swap1\n  pop\n    /* \"@openzeppelin/contracts/access/Ownable.sol\":3029:3037  newOwner */\n  dup2\n    /* \"@openzeppelin/contracts/access/Ownable.sol\":3020:3026  _owner */\n  0x05\n  0x00\n    /* \"@openzeppelin/contracts/access/Ownable.sol\":3020:3037  _owner = newOwner */\n  0x0100\n  exp\n  dup2\n  sload\n  dup2\n  0xffffffffffffffffffffffffffffffffffffffff\n  mul\n  not\n  and\n  swap1\n  dup4\n  0xffffffffffffffffffffffffffffffffffffffff\n  and\n  mul\n  or\n  swap1\n  sstore\n  pop\n    /* \"@openzeppelin/contracts/access/Ownable.sol\":3083:3091  newOwner */\n  dup2\n    /* \"@openzeppelin/contracts/access/Ownable.sol\":3052:3092  OwnershipTransferred(oldOwner, newOwner) */\n  0xffffffffffffffffffffffffffffffffffffffff\n  and\n    /* \"@openzeppelin/contracts/access/Ownable.sol\":3073:3081  oldOwner */\n  dup2\n    /* \"@openzeppelin/contracts/access/Ownable.sol\":3052:3092  OwnershipTransferred(oldOwner, newOwner) */\n  0xffffffffffffffffffffffffffffffffffffffff\n  and\n  0x8be0079c531659141344cd1fd0a4f28419497f9722a3daafe3b4186f6b6457e0\n  mload(0x40)\n  mload(0x40)\n  dup1\n  swap2\n  sub\n  swap1\n  log3\n    /* \"@openzeppelin/contracts/access/Ownable.sol\":2975:3099  {... */\n  pop\n    /* \"@openzeppelin/contracts/access/Ownable.sol\":2912:3099  function _transferOwnership(address newOwner) internal virtual {... */\n  pop\n  jump\t// out\n    /* \"contracts/NASICOIN.sol\":2743:2910  function _mint(address account, uint256 amount) internal override {... */\ntag_19:\n    /* \"contracts/NASICOIN.sol\":2819:2847  super._mint(account, amount) */\n  tag_23\n    /* \"contracts/NASICOIN.sol\":2831:2838  account */\n  dup3\n    /* \"contracts/NASICOIN.sol\":2840:2846  amount */\n  dup3\n    /* \"contracts/NASICOIN.sol\":2819:2830  super._mint */\n  shl(0x20, tag_24)\n    /* \"contracts/NASICOIN.sol\":2819:2847  super._mint(account, amount) */\n  0x20\n  shr\n  jump\t// in\ntag_23:\n    /* \"contracts/NASICOIN.sol\":2857:2903  _trackUserBalance(account, balanceOf(account)) */\n  tag_25\n    /* \"contracts/NASICOIN.sol\":2875:2882  account */\n  dup3\n    /* \"contracts/NASICOIN.sol\":2884:2902  balanceOf(account) */\n  tag_26\n    /* \"contracts/NASICOIN.sol\":2894:2901  account */\n  dup5\n    /* \"contracts/NASICOIN.sol\":2884:2893  balanceOf */\n  shl(0x20, tag_27)\n    /* \"contracts/NASICOIN.sol\":2884:2902  balanceOf(account) */\n  0x20\n  shr\n  jump\t// in\ntag_26:\n    /* \"contracts/NASICOIN.sol\":2857:2874  _trackUserBalance */\n  shl(0x20, tag_28)\n    /* \"contracts/NASICOIN.sol\":2857:2903  _trackUserBalance(account, balanceOf(account)) */\n  0x20\n  shr\n  jump\t// in\ntag_25:\n    /* \"contracts/NASICOIN.sol\":2743:2910  function _mint(address account, uint256 amount) internal override {... */\n  pop\n  pop\n  jump\t// out\n    /* \"@openzeppelin/contracts/token/ERC20/ERC20.sol\":7466:7682  function _mint(address account, uint256 value) internal virtual {... */\ntag_24:\n    /* \"@openzeppelin/contracts/token/ERC20/ERC20.sol\":7563:7564  0 */\n  0x00\n    /* \"@openzeppelin/contracts/token/ERC20/ERC20.sol\":7544:7565  account == address(0) */\n  0xffffffffffffffffffffffffffffffffffffffff\n  and\n    /* \"@openzeppelin/contracts/token/ERC20/ERC20.sol\":7544:7551  account */\n  dup3\n    /* \"@openzeppelin/contracts/token/ERC20/ERC20.sol\":7544:7565  account == address(0) */\n  0xffffffffffffffffffffffffffffffffffffffff\n  and\n  sub\n    /* \"@openzeppelin/contracts/token/ERC20/ERC20.sol\":7540:7631  if (account == address(0)) {... */\n  tag_30\n  jumpi\n    /* \"@openzeppelin/contracts/token/ERC20/ERC20.sol\":7617:7618  0 */\n  0x00\n    /* \"@openzeppelin/contracts/token/ERC20/ERC20.sol\":7588:7620  ERC20InvalidReceiver(address(0)) */\n  mload(0x40)\n  0xec442f0500000000000000000000000000000000000000000000000000000000\n  dup2\n  mstore\n  0x04\n  add\n  tag_31\n  swap2\n  swap1\n  tag_14\n  jump\t// in\ntag_31:\n  mload(0x40)\n  dup1\n  swap2\n  sub\n  swap1\n  revert\n    /* \"@openzeppelin/contracts/token/ERC20/ERC20.sol\":7540:7631  if (account == address(0)) {... */\ntag_30:\n    /* \"@openzeppelin/contracts/token/ERC20/ERC20.sol\":7640:7675  _update(address(0), account, value) */\n  tag_32\n    /* \"@openzeppelin/contracts/token/ERC20/ERC20.sol\":7656:7657  0 */\n  0x00\n    /* \"@openzeppelin/contracts/token/ERC20/ERC20.sol\":7660:7667  account */\n  dup4\n    /* \"@openzeppelin/contracts/token/ERC20/ERC20.sol\":7669:7674  value */\n  dup4\n    /* \"@openzeppelin/contracts/token/ERC20/ERC20.sol\":7640:7647  _update */\n  shl(0x20, tag_33)\n    /* \"@openzeppelin/contracts/token/ERC20/ERC20.sol\":7640:7675  _update(address(0), account, value) */\n  0x20\n  shr\n  jump\t// in\ntag_32:\n    /* \"@openzeppelin/contracts/token/ERC20/ERC20.sol\":7466:7682  function _mint(address account, uint256 value) internal virtual {... */\n  pop\n  pop\n  jump\t// out\n    /* \"@openzeppelin/contracts/token/ERC20/ERC20.sol\":3004:3120  function balanceOf(address account) public view virtual returns (uint256) {... */\ntag_27:\n    /* \"@openzeppelin/contracts/token/ERC20/ERC20.sol\":3069:3076  uint256 */\n  0x00\n    /* \"@openzeppelin/contracts/token/ERC20/ERC20.sol\":3095:3104  _balances */\n  0x00\n    /* \"@openzeppelin/contracts/token/ERC20/ERC20.sol\":3095:3113  _balances[account] */\n  0x00\n    /* \"@openzeppelin/contracts/token/ERC20/ERC20.sol\":3105:3112  account */\n  dup4\n    /* \"@openzeppelin/contracts/token/ERC20/ERC20.sol\":3095:3113  _balances[account] */\n  0xffffffffffffffffffffffffffffffffffffffff\n  and\n  0xffffffffffffffffffffffffffffffffffffffff\n  and\n  dup2\n  mstore\n  0x20\n  add\n  swap1\n  dup2\n  mstore\n  0x20\n  add\n  0x00\n  keccak256\n  sload\n    /* \"@openzeppelin/contracts/token/ERC20/ERC20.sol\":3088:3113  return _balances[account] */\n  swap1\n  pop\n    /* \"@openzeppelin/contracts/token/ERC20/ERC20.sol\":3004:3120  function balanceOf(address account) public view virtual returns (uint256) {... */\n  swap2\n  swap1\n  pop\n  jump\t// out\n    /* \"contracts/NASICOIN.sol\":3465:3826  function _trackUserBalance(address user, uint256 balance) internal {... */\ntag_28:\n    /* \"contracts/NASICOIN.sol\":3556:3557  0 */\n  0x00\n    /* \"contracts/NASICOIN.sol\":3546:3553  balance */\n  dup2\n    /* \"contracts/NASICOIN.sol\":3546:3557  balance > 0 */\n  gt\n    /* \"contracts/NASICOIN.sol\":3546:3578  balance > 0 && !hasBalance[user] */\n  dup1\n  iszero\n  tag_36\n  jumpi\n  pop\n    /* \"contracts/NASICOIN.sol\":3562:3572  hasBalance */\n  0x06\n    /* \"contracts/NASICOIN.sol\":3562:3578  hasBalance[user] */\n  0x00\n    /* \"contracts/NASICOIN.sol\":3573:3577  user */\n  dup4\n    /* \"contracts/NASICOIN.sol\":3562:3578  hasBalance[user] */\n  0xffffffffffffffffffffffffffffffffffffffff\n  and\n  0xffffffffffffffffffffffffffffffffffffffff\n  and\n  dup2\n  mstore\n  0x20\n  add\n  swap1\n  dup2\n  mstore\n  0x20\n  add\n  0x00\n  keccak256\n  0x00\n  swap1\n  sload\n  swap1\n  0x0100\n  exp\n  swap1\n  div\n  0xff\n  and\n    /* \"contracts/NASICOIN.sol\":3561:3578  !hasBalance[user] */\n  iszero\n    /* \"contracts/NASICOIN.sol\":3546:3578  balance > 0 && !hasBalance[user] */\ntag_36:\n    /* \"contracts/NASICOIN.sol\":3542:3782  if (balance > 0 && !hasBalance[user]) {... */\n  iszero\n  tag_37\n  jumpi\n    /* \"contracts/NASICOIN.sol\":3613:3617  true */\n  0x01\n    /* \"contracts/NASICOIN.sol\":3594:3604  hasBalance */\n  0x06\n    /* \"contracts/NASICOIN.sol\":3594:3610  hasBalance[user] */\n  0x00\n    /* \"contracts/NASICOIN.sol\":3605:3609  user */\n  dup5\n    /* \"contracts/NASICOIN.sol\":3594:3610  hasBalance[user] */\n  0xffffffffffffffffffffffffffffffffffffffff\n  and\n  0xffffffffffffffffffffffffffffffffffffffff\n  and\n  dup2\n  mstore\n  0x20\n  add\n  swap1\n  dup2\n  mstore\n  0x20\n  add\n  0x00\n  keccak256\n  0x00\n    /* \"contracts/NASICOIN.sol\":3594:3617  hasBalance[user] = true */\n  0x0100\n  exp\n  dup2\n  sload\n  dup2\n  0xff\n  mul\n  not\n  and\n  swap1\n  dup4\n  iszero\n  iszero\n  mul\n  or\n  swap1\n  sstore\n  pop\n    /* \"contracts/NASICOIN.sol\":3631:3636  users */\n  0x08\n    /* \"contracts/NASICOIN.sol\":3642:3646  user */\n  dup3\n    /* \"contracts/NASICOIN.sol\":3631:3647  users.push(user) */\n  swap1\n  dup1\n  0x01\n  dup2\n  sload\n  add\n  dup1\n  dup3\n  sstore\n  dup1\n  swap2\n  pop\n  pop\n  0x01\n  swap1\n  sub\n  swap1\n  0x00\n  mstore\n  keccak256(0x00, 0x20)\n  add\n  0x00\n  swap1\n  swap2\n  swap1\n  swap2\n  swap1\n  swap2\n  0x0100\n  exp\n  dup2\n  sload\n  dup2\n  0xffffffffffffffffffffffffffffffffffffffff\n  mul\n  not\n  and\n  swap1\n  dup4\n  0xffffffffffffffffffffffffffffffffffffffff\n  and\n  mul\n  or\n  swap1\n  sstore\n  pop\n    /* \"contracts/NASICOIN.sol\":3542:3782  if (balance > 0 && !hasBalance[user]) {... */\n  jump(tag_39)\ntag_37:\n    /* \"contracts/NASICOIN.sol\":3679:3680  0 */\n  0x00\n    /* \"contracts/NASICOIN.sol\":3668:3675  balance */\n  dup2\n    /* \"contracts/NASICOIN.sol\":3668:3680  balance == 0 */\n  eq\n    /* \"contracts/NASICOIN.sol\":3668:3700  balance == 0 && hasBalance[user] */\n  dup1\n  iszero\n  tag_40\n  jumpi\n  pop\n    /* \"contracts/NASICOIN.sol\":3684:3694  hasBalance */\n  0x06\n    /* \"contracts/NASICOIN.sol\":3684:3700  hasBalance[user] */\n  0x00\n    /* \"contracts/NASICOIN.sol\":3695:3699  user */\n  dup4\n    /* \"contracts/NASICOIN.sol\":3684:3700  hasBalance[user] */\n  0xffffffffffffffffffffffffffffffffffffffff\n  and\n  0xffffffffffffffffffffffffffffffffffffffff\n  and\n  dup2\n  mstore\n  0x20\n  add\n  swap1\n  dup2\n  mstore\n  0x20\n  add\n  0x00\n  keccak256\n  0x00\n  swap1\n  sload\n  swap1\n  0x0100\n  exp\n  swap1\n  div\n  0xff\n  and\n    /* \"contracts/NASICOIN.sol\":3668:3700  balance == 0 && hasBalance[user] */\ntag_40:\n    /* \"contracts/NASICOIN.sol\":3664:3782  if (balance == 0 && hasBalance[user]) {... */\n  iszero\n  tag_41\n  jumpi\n    /* \"contracts/NASICOIN.sol\":3735:3740  false */\n  0x00\n    /* \"contracts/NASICOIN.sol\":3716:3726  hasBalance */\n  0x06\n    /* \"contracts/NASICOIN.sol\":3716:3732  hasBalance[user] */\n  0x00\n    /* \"contracts/NASICOIN.sol\":3727:3731  user */\n  dup5\n    /* \"contracts/NASICOIN.sol\":3716:3732  hasBalance[user] */\n  0xffffffffffffffffffffffffffffffffffffffff\n  and\n  0xffffffffffffffffffffffffffffffffffffffff\n  and\n  dup2\n  mstore\n  0x20\n  add\n  swap1\n  dup2\n  mstore\n  0x20\n  add\n  0x00\n  keccak256\n  0x00\n    /* \"contracts/NASICOIN.sol\":3716:3740  hasBalance[user] = false */\n  0x0100\n  exp\n  dup2\n  sload\n  dup2\n  0xff\n  mul\n  not\n  and\n  swap1\n  dup4\n  iszero\n  iszero\n  mul\n  or\n  swap1\n  sstore\n  pop\n    /* \"contracts/NASICOIN.sol\":3754:3771  _removeUser(user) */\n  tag_42\n    /* \"contracts/NASICOIN.sol\":3766:3770  user */\n  dup3\n    /* \"contracts/NASICOIN.sol\":3754:3765  _removeUser */\n  shl(0x20, tag_43)\n    /* \"contracts/NASICOIN.sol\":3754:3771  _removeUser(user) */\n  0x20\n  shr\n  jump\t// in\ntag_42:\n    /* \"contracts/NASICOIN.sol\":3664:3782  if (balance == 0 && hasBalance[user]) {... */\ntag_41:\n    /* \"contracts/NASICOIN.sol\":3542:3782  if (balance > 0 && !hasBalance[user]) {... */\ntag_39:\n    /* \"contracts/NASICOIN.sol\":3812:3819  balance */\n  dup1\n    /* \"contracts/NASICOIN.sol\":3791:3803  userBalances */\n  0x07\n    /* \"contracts/NASICOIN.sol\":3791:3809  userBalances[user] */\n  0x00\n    /* \"contracts/NASICOIN.sol\":3804:3808  user */\n  dup5\n    /* \"contracts/NASICOIN.sol\":3791:3809  userBalances[user] */\n  0xffffffffffffffffffffffffffffffffffffffff\n  and\n  0xffffffffffffffffffffffffffffffffffffffff\n  and\n  dup2\n  mstore\n  0x20\n  add\n  swap1\n  dup2\n  mstore\n  0x20\n  add\n  0x00\n  keccak256\n    /* \"contracts/NASICOIN.sol\":3791:3819  userBalances[user] = balance */\n  dup2\n  swap1\n  sstore\n  pop\n    /* \"contracts/NASICOIN.sol\":3465:3826  function _trackUserBalance(address user, uint256 balance) internal {... */\n  pop\n  pop\n  jump\t// out\n    /* \"@openzeppelin/contracts/token/ERC20/ERC20.sol\":6016:7123  function _update(address from, address to, uint256 value) internal virtual {... */\ntag_33:\n    /* \"@openzeppelin/contracts/token/ERC20/ERC20.sol\":6121:6122  0 */\n  0x00\n    /* \"@openzeppelin/contracts/token/ERC20/ERC20.sol\":6105:6123  from == address(0) */\n  0xffffffffffffffffffffffffffffffffffffffff\n  and\n    /* \"@openzeppelin/contracts/token/ERC20/ERC20.sol\":6105:6109  from */\n  dup4\n    /* \"@openzeppelin/contracts/token/ERC20/ERC20.sol\":6105:6123  from == address(0) */\n  0xffffffffffffffffffffffffffffffffffffffff\n  and\n  sub\n    /* \"@openzeppelin/contracts/token/ERC20/ERC20.sol\":6101:6641  if (from == address(0)) {... */\n  tag_45\n  jumpi\n    /* \"@openzeppelin/contracts/token/ERC20/ERC20.sol\":6257:6262  value */\n  dup1\n    /* \"@openzeppelin/contracts/token/ERC20/ERC20.sol\":6241:6253  _totalSupply */\n  0x02\n  0x00\n    /* \"@openzeppelin/contracts/token/ERC20/ERC20.sol\":6241:6262  _totalSupply += value */\n  dup3\n  dup3\n  sload\n  tag_46\n  swap2\n  swap1\n  tag_47\n  jump\t// in\ntag_46:\n  swap3\n  pop\n  pop\n  dup2\n  swap1\n  sstore\n  pop\n    /* \"@openzeppelin/contracts/token/ERC20/ERC20.sol\":6101:6641  if (from == address(0)) {... */\n  jump(tag_48)\ntag_45:\n    /* \"@openzeppelin/contracts/token/ERC20/ERC20.sol\":6293:6312  uint256 fromBalance */\n  0x00\n    /* \"@openzeppelin/contracts/token/ERC20/ERC20.sol\":6315:6324  _balances */\n  0x00\n    /* \"@openzeppelin/contracts/token/ERC20/ERC20.sol\":6315:6330  _balances[from] */\n  0x00\n    /* \"@openzeppelin/contracts/token/ERC20/ERC20.sol\":6325:6329  from */\n  dup6\n    /* \"@openzeppelin/contracts/token/ERC20/ERC20.sol\":6315:6330  _balances[from] */\n  0xffffffffffffffffffffffffffffffffffffffff\n  and\n  0xffffffffffffffffffffffffffffffffffffffff\n  and\n  dup2\n  mstore\n  0x20\n  add\n  swap1\n  dup2\n  mstore\n  0x20\n  add\n  0x00\n  keccak256\n  sload\n    /* \"@openzeppelin/contracts/token/ERC20/ERC20.sol\":6293:6330  uint256 fromBalance = _balances[from] */\n  swap1\n  pop\n    /* \"@openzeppelin/contracts/token/ERC20/ERC20.sol\":6362:6367  value */\n  dup2\n    /* \"@openzeppelin/contracts/token/ERC20/ERC20.sol\":6348:6359  fromBalance */\n  dup2\n    /* \"@openzeppelin/contracts/token/ERC20/ERC20.sol\":6348:6367  fromBalance < value */\n  lt\n    /* \"@openzeppelin/contracts/token/ERC20/ERC20.sol\":6344:6459  if (fromBalance < value) {... */\n  iszero\n  tag_49\n  jumpi\n    /* \"@openzeppelin/contracts/token/ERC20/ERC20.sol\":6419:6423  from */\n  dup4\n    /* \"@openzeppelin/contracts/token/ERC20/ERC20.sol\":6425:6436  fromBalance */\n  dup2\n    /* \"@openzeppelin/contracts/token/ERC20/ERC20.sol\":6438:6443  value */\n  dup4\n    /* \"@openzeppelin/contracts/token/ERC20/ERC20.sol\":6394:6444  ERC20InsufficientBalance(from, fromBalance, value) */\n  mload(0x40)\n  0xe450d38c00000000000000000000000000000000000000000000000000000000\n  dup2\n  mstore\n  0x04\n  add\n  tag_50\n  swap4\n  swap3\n  swap2\n  swap1\n  tag_51\n  jump\t// in\ntag_50:\n  mload(0x40)\n  dup1\n  swap2\n  sub\n  swap1\n  revert\n    /* \"@openzeppelin/contracts/token/ERC20/ERC20.sol\":6344:6459  if (fromBalance < value) {... */\ntag_49:\n    /* \"@openzeppelin/contracts/token/ERC20/ERC20.sol\":6611:6616  value */\n  dup2\n    /* \"@openzeppelin/contracts/token/ERC20/ERC20.sol\":6597:6608  fromBalance */\n  dup2\n    /* \"@openzeppelin/contracts/token/ERC20/ERC20.sol\":6597:6616  fromBalance - value */\n  sub\n    /* \"@openzeppelin/contracts/token/ERC20/ERC20.sol\":6579:6588  _balances */\n  0x00\n    /* \"@openzeppelin/contracts/token/ERC20/ERC20.sol\":6579:6594  _balances[from] */\n  0x00\n    /* \"@openzeppelin/contracts/token/ERC20/ERC20.sol\":6589:6593  from */\n  dup7\n    /* \"@openzeppelin/contracts/token/ERC20/ERC20.sol\":6579:6594  _balances[from] */\n  0xffffffffffffffffffffffffffffffffffffffff\n  and\n  0xffffffffffffffffffffffffffffffffffffffff\n  and\n  dup2\n  mstore\n  0x20\n  add\n  swap1\n  dup2\n  mstore\n  0x20\n  add\n  0x00\n  keccak256\n    /* \"@openzeppelin/contracts/token/ERC20/ERC20.sol\":6579:6616  _balances[from] = fromBalance - value */\n  dup2\n  swap1\n  sstore\n  pop\n    /* \"@openzeppelin/contracts/token/ERC20/ERC20.sol\":6279:6641  {... */\n  pop\n    /* \"@openzeppelin/contracts/token/ERC20/ERC20.sol\":6101:6641  if (from == address(0)) {... */\ntag_48:\n    /* \"@openzeppelin/contracts/token/ERC20/ERC20.sol\":6669:6670  0 */\n  0x00\n    /* \"@openzeppelin/contracts/token/ERC20/ERC20.sol\":6655:6671  to == address(0) */\n  0xffffffffffffffffffffffffffffffffffffffff\n  and\n    /* \"@openzeppelin/contracts/token/ERC20/ERC20.sol\":6655:6657  to */\n  dup3\n    /* \"@openzeppelin/contracts/token/ERC20/ERC20.sol\":6655:6671  to == address(0) */\n  0xffffffffffffffffffffffffffffffffffffffff\n  and\n  sub\n    /* \"@openzeppelin/contracts/token/ERC20/ERC20.sol\":6651:7076  if (to == address(0)) {... */\n  tag_52\n  jumpi\n    /* \"@openzeppelin/contracts/token/ERC20/ERC20.sol\":6834:6839  value */\n  dup1\n    /* \"@openzeppelin/contracts/token/ERC20/ERC20.sol\":6818:6830  _totalSupply */\n  0x02\n  0x00\n    /* \"@openzeppelin/contracts/token/ERC20/ERC20.sol\":6818:6839  _totalSupply -= value */\n  dup3\n  dup3\n  sload\n  sub\n  swap3\n  pop\n  pop\n  dup2\n  swap1\n  sstore\n  pop\n    /* \"@openzeppelin/contracts/token/ERC20/ERC20.sol\":6651:7076  if (to == address(0)) {... */\n  jump(tag_53)\ntag_52:\n    /* \"@openzeppelin/contracts/token/ERC20/ERC20.sol\":7046:7051  value */\n  dup1\n    /* \"@openzeppelin/contracts/token/ERC20/ERC20.sol\":7029:7038  _balances */\n  0x00\n    /* \"@openzeppelin/contracts/token/ERC20/ERC20.sol\":7029:7042  _balances[to] */\n  0x00\n    /* \"@openzeppelin/contracts/token/ERC20/ERC20.sol\":7039:7041  to */\n  dup5\n    /* \"@openzeppelin/contracts/token/ERC20/ERC20.sol\":7029:7042  _balances[to] */\n  0xffffffffffffffffffffffffffffffffffffffff\n  and\n  0xffffffffffffffffffffffffffffffffffffffff\n  and\n  dup2\n  mstore\n  0x20\n  add\n  swap1\n  dup2\n  mstore\n  0x20\n  add\n  0x00\n  keccak256\n  0x00\n    /* \"@openzeppelin/contracts/token/ERC20/ERC20.sol\":7029:7051  _balances[to] += value */\n  dup3\n  dup3\n  sload\n  add\n  swap3\n  pop\n  pop\n  dup2\n  swap1\n  sstore\n  pop\n    /* \"@openzeppelin/contracts/token/ERC20/ERC20.sol\":6651:7076  if (to == address(0)) {... */\ntag_53:\n    /* \"@openzeppelin/contracts/token/ERC20/ERC20.sol\":7106:7108  to */\n  dup2\n    /* \"@openzeppelin/contracts/token/ERC20/ERC20.sol\":7091:7116  Transfer(from, to, value) */\n  0xffffffffffffffffffffffffffffffffffffffff\n  and\n    /* \"@openzeppelin/contracts/token/ERC20/ERC20.sol\":7100:7104  from */\n  dup4\n    /* \"@openzeppelin/contracts/token/ERC20/ERC20.sol\":7091:7116  Transfer(from, to, value) */\n  0xffffffffffffffffffffffffffffffffffffffff\n  and\n  0xddf252ad1be2c89b69c2b068fc378daa952ba7f163c4a11628f55a4df523b3ef\n    /* \"@openzeppelin/contracts/token/ERC20/ERC20.sol\":7110:7115  value */\n  dup4\n    /* \"@openzeppelin/contracts/token/ERC20/ERC20.sol\":7091:7116  Transfer(from, to, value) */\n  mload(0x40)\n  tag_54\n  swap2\n  swap1\n  tag_55\n  jump\t// in\ntag_54:\n  mload(0x40)\n  dup1\n  swap2\n  sub\n  swap1\n  log3\n    /* \"@openzeppelin/contracts/token/ERC20/ERC20.sol\":6016:7123  function _update(address from, address to, uint256 value) internal virtual {... */\n  pop\n  pop\n  pop\n  jump\t// out\n    /* \"contracts/NASICOIN.sol\":3895:4217  function _removeUser(address user) internal {... */\ntag_43:\n    /* \"contracts/NASICOIN.sol\":3954:3963  uint256 i */\n  0x00\n    /* \"contracts/NASICOIN.sol\":3966:3967  0 */\n  0x00\n    /* \"contracts/NASICOIN.sol\":3954:3967  uint256 i = 0 */\n  swap1\n  pop\n    /* \"contracts/NASICOIN.sol\":3949:4211  for (uint256 i = 0; i < users.length; i++) {... */\ntag_57:\n    /* \"contracts/NASICOIN.sol\":3973:3978  users */\n  0x08\n    /* \"contracts/NASICOIN.sol\":3973:3985  users.length */\n  dup1\n  sload\n  swap1\n  pop\n    /* \"contracts/NASICOIN.sol\":3969:3970  i */\n  dup2\n    /* \"contracts/NASICOIN.sol\":3969:3985  i < users.length */\n  lt\n    /* \"contracts/NASICOIN.sol\":3949:4211  for (uint256 i = 0; i < users.length; i++) {... */\n  iszero\n  tag_58\n  jumpi\n    /* \"contracts/NASICOIN.sol\":4022:4026  user */\n  dup2\n    /* \"contracts/NASICOIN.sol\":4010:4026  users[i] == user */\n  0xffffffffffffffffffffffffffffffffffffffff\n  and\n    /* \"contracts/NASICOIN.sol\":4010:4015  users */\n  0x08\n    /* \"contracts/NASICOIN.sol\":4016:4017  i */\n  dup3\n    /* \"contracts/NASICOIN.sol\":4010:4018  users[i] */\n  dup2\n  sload\n  dup2\n  lt\n  tag_60\n  jumpi\n  tag_61\n  tag_62\n  jump\t// in\ntag_61:\ntag_60:\n  swap1\n  0x00\n  mstore\n  keccak256(0x00, 0x20)\n  add\n  0x00\n  swap1\n  sload\n  swap1\n  0x0100\n  exp\n  swap1\n  div\n  0xffffffffffffffffffffffffffffffffffffffff\n  and\n    /* \"contracts/NASICOIN.sol\":4010:4026  users[i] == user */\n  0xffffffffffffffffffffffffffffffffffffffff\n  and\n  sub\n    /* \"contracts/NASICOIN.sol\":4006:4201  if (users[i] == user) {... */\n  tag_64\n  jumpi\n    /* \"contracts/NASICOIN.sol\":4057:4062  users */\n  0x08\n    /* \"contracts/NASICOIN.sol\":4078:4079  1 */\n  0x01\n    /* \"contracts/NASICOIN.sol\":4063:4068  users */\n  0x08\n    /* \"contracts/NASICOIN.sol\":4063:4075  users.length */\n  dup1\n  sload\n  swap1\n  pop\n    /* \"contracts/NASICOIN.sol\":4063:4079  users.length - 1 */\n  tag_65\n  swap2\n  swap1\n  tag_66\n  jump\t// in\ntag_65:\n    /* \"contracts/NASICOIN.sol\":4057:4080  users[users.length - 1] */\n  dup2\n  sload\n  dup2\n  lt\n  tag_67\n  jumpi\n  tag_68\n  tag_62\n  jump\t// in\ntag_68:\ntag_67:\n  swap1\n  0x00\n  mstore\n  keccak256(0x00, 0x20)\n  add\n  0x00\n  swap1\n  sload\n  swap1\n  0x0100\n  exp\n  swap1\n  div\n  0xffffffffffffffffffffffffffffffffffffffff\n  and\n    /* \"contracts/NASICOIN.sol\":4046:4051  users */\n  0x08\n    /* \"contracts/NASICOIN.sol\":4052:4053  i */\n  dup3\n    /* \"contracts/NASICOIN.sol\":4046:4054  users[i] */\n  dup2\n  sload\n  dup2\n  lt\n  tag_70\n  jumpi\n  tag_71\n  tag_62\n  jump\t// in\ntag_71:\ntag_70:\n  swap1\n  0x00\n  mstore\n  keccak256(0x00, 0x20)\n  add\n  0x00\n    /* \"contracts/NASICOIN.sol\":4046:4080  users[i] = users[users.length - 1] */\n  0x0100\n  exp\n  dup2\n  sload\n  dup2\n  0xffffffffffffffffffffffffffffffffffffffff\n  mul\n  not\n  and\n  swap1\n  dup4\n  0xffffffffffffffffffffffffffffffffffffffff\n  and\n  mul\n  or\n  swap1\n  sstore\n  pop\n    /* \"contracts/NASICOIN.sol\":4128:4133  users */\n  0x08\n    /* \"contracts/NASICOIN.sol\":4128:4139  users.pop() */\n  dup1\n  sload\n  dup1\n  tag_73\n  jumpi\n  tag_74\n  tag_75\n  jump\t// in\ntag_74:\ntag_73:\n  0x01\n  swap1\n  sub\n  dup2\n  dup2\n  swap1\n  0x00\n  mstore\n  keccak256(0x00, 0x20)\n  add\n  exp(0x0100, 0x00)\n  dup2\n  sload\n  swap1\n  0xffffffffffffffffffffffffffffffffffffffff\n  mul\n  not\n  and\n  swap1\n  sstore\n  swap1\n  sstore\n    /* \"contracts/NASICOIN.sol\":4181:4186  break */\n  jump(tag_58)\n    /* \"contracts/NASICOIN.sol\":4006:4201  if (users[i] == user) {... */\ntag_64:\n    /* \"contracts/NASICOIN.sol\":3987:3990  i++ */\n  dup1\n  dup1\n  0x01\n  add\n  swap2\n  pop\n  pop\n    /* \"contracts/NASICOIN.sol\":3949:4211  for (uint256 i = 0; i < users.length; i++) {... */\n  jump(tag_57)\ntag_58:\n  pop\n    /* \"contracts/NASICOIN.sol\":3895:4217  function _removeUser(address user) internal {... */\n  pop\n  jump\t// out\n    /* \"#utility.yul\":88:205   */\ntag_78:\n    /* \"#utility.yul\":197:198   */\n  0x00\n    /* \"#utility.yul\":194:195   */\n  0x00\n    /* \"#utility.yul\":187:199   */\n  revert\n    /* \"#utility.yul\":334:460   */\ntag_80:\n    /* \"#utility.yul\":371:378   */\n  0x00\n    /* \"#utility.yul\":411:453   */\n  0xffffffffffffffffffffffffffffffffffffffff\n    /* \"#utility.yul\":404:409   */\n  dup3\n    /* \"#utility.yul\":400:454   */\n  and\n    /* \"#utility.yul\":389:454   */\n  swap1\n  pop\n    /* \"#utility.yul\":334:460   */\n  swap2\n  swap1\n  pop\n  jump\t// out\n    /* \"#utility.yul\":466:562   */\ntag_81:\n    /* \"#utility.yul\":503:510   */\n  0x00\n    /* \"#utility.yul\":532:556   */\n  tag_113\n    /* \"#utility.yul\":550:555   */\n  dup3\n    /* \"#utility.yul\":532:556   */\n  tag_80\n  jump\t// in\ntag_113:\n    /* \"#utility.yul\":521:556   */\n  swap1\n  pop\n    /* \"#utility.yul\":466:562   */\n  swap2\n  swap1\n  pop\n  jump\t// out\n    /* \"#utility.yul\":568:690   */\ntag_82:\n    /* \"#utility.yul\":641:665   */\n  tag_115\n    /* \"#utility.yul\":659:664   */\n  dup2\n    /* \"#utility.yul\":641:665   */\n  tag_81\n  jump\t// in\ntag_115:\n    /* \"#utility.yul\":634:639   */\n  dup2\n    /* \"#utility.yul\":631:666   */\n  eq\n    /* \"#utility.yul\":621:684   */\n  tag_116\n  jumpi\n    /* \"#utility.yul\":680:681   */\n  0x00\n    /* \"#utility.yul\":677:678   */\n  0x00\n    /* \"#utility.yul\":670:682   */\n  revert\n    /* \"#utility.yul\":621:684   */\ntag_116:\n    /* \"#utility.yul\":568:690   */\n  pop\n  jump\t// out\n    /* \"#utility.yul\":696:839   */\ntag_83:\n    /* \"#utility.yul\":753:758   */\n  0x00\n    /* \"#utility.yul\":784:790   */\n  dup2\n    /* \"#utility.yul\":778:791   */\n  mload\n    /* \"#utility.yul\":769:791   */\n  swap1\n  pop\n    /* \"#utility.yul\":800:833   */\n  tag_118\n    /* \"#utility.yul\":827:832   */\n  dup2\n    /* \"#utility.yul\":800:833   */\n  tag_82\n  jump\t// in\ntag_118:\n    /* \"#utility.yul\":696:839   */\n  swap3\n  swap2\n  pop\n  pop\n  jump\t// out\n    /* \"#utility.yul\":845:1196   */\ntag_3:\n    /* \"#utility.yul\":915:921   */\n  0x00\n    /* \"#utility.yul\":964:966   */\n  0x20\n    /* \"#utility.yul\":952:961   */\n  dup3\n    /* \"#utility.yul\":943:950   */\n  dup5\n    /* \"#utility.yul\":939:962   */\n  sub\n    /* \"#utility.yul\":935:967   */\n  slt\n    /* \"#utility.yul\":932:1051   */\n  iszero\n  tag_120\n  jumpi\n    /* \"#utility.yul\":970:1049   */\n  tag_121\n  tag_78\n  jump\t// in\ntag_121:\n    /* \"#utility.yul\":932:1051   */\ntag_120:\n    /* \"#utility.yul\":1090:1091   */\n  0x00\n    /* \"#utility.yul\":1115:1179   */\n  tag_122\n    /* \"#utility.yul\":1171:1178   */\n  dup5\n    /* \"#utility.yul\":1162:1168   */\n  dup3\n    /* \"#utility.yul\":1151:1160   */\n  dup6\n    /* \"#utility.yul\":1147:1169   */\n  add\n    /* \"#utility.yul\":1115:1179   */\n  tag_83\n  jump\t// in\ntag_122:\n    /* \"#utility.yul\":1105:1179   */\n  swap2\n  pop\n    /* \"#utility.yul\":1061:1189   */\n  pop\n    /* \"#utility.yul\":845:1196   */\n  swap3\n  swap2\n  pop\n  pop\n  jump\t// out\n    /* \"#utility.yul\":1202:1301   */\ntag_84:\n    /* \"#utility.yul\":1254:1260   */\n  0x00\n    /* \"#utility.yul\":1288:1293   */\n  dup2\n    /* \"#utility.yul\":1282:1294   */\n  mload\n    /* \"#utility.yul\":1272:1294   */\n  swap1\n  pop\n    /* \"#utility.yul\":1202:1301   */\n  swap2\n  swap1\n  pop\n  jump\t// out\n    /* \"#utility.yul\":1307:1487   */\ntag_85:\n    /* \"#utility.yul\":1355:1432   */\n  0x4e487b7100000000000000000000000000000000000000000000000000000000\n    /* \"#utility.yul\":1352:1353   */\n  0x00\n    /* \"#utility.yul\":1345:1433   */\n  mstore\n    /* \"#utility.yul\":1452:1456   */\n  0x41\n    /* \"#utility.yul\":1449:1450   */\n  0x04\n    /* \"#utility.yul\":1442:1457   */\n  mstore\n    /* \"#utility.yul\":1476:1480   */\n  0x24\n    /* \"#utility.yul\":1473:1474   */\n  0x00\n    /* \"#utility.yul\":1466:1481   */\n  revert\n    /* \"#utility.yul\":1493:1673   */\ntag_86:\n    /* \"#utility.yul\":1541:1618   */\n  0x4e487b7100000000000000000000000000000000000000000000000000000000\n    /* \"#utility.yul\":1538:1539   */\n  0x00\n    /* \"#utility.yul\":1531:1619   */\n  mstore\n    /* \"#utility.yul\":1638:1642   */\n  0x22\n    /* \"#utility.yul\":1635:1636   */\n  0x04\n    /* \"#utility.yul\":1628:1643   */\n  mstore\n    /* \"#utility.yul\":1662:1666   */\n  0x24\n    /* \"#utility.yul\":1659:1660   */\n  0x00\n    /* \"#utility.yul\":1652:1667   */\n  revert\n    /* \"#utility.yul\":1679:1999   */\ntag_87:\n    /* \"#utility.yul\":1723:1729   */\n  0x00\n    /* \"#utility.yul\":1760:1761   */\n  0x02\n    /* \"#utility.yul\":1754:1758   */\n  dup3\n    /* \"#utility.yul\":1750:1762   */\n  div\n    /* \"#utility.yul\":1740:1762   */\n  swap1\n  pop\n    /* \"#utility.yul\":1807:1808   */\n  0x01\n    /* \"#utility.yul\":1801:1805   */\n  dup3\n    /* \"#utility.yul\":1797:1809   */\n  and\n    /* \"#utility.yul\":1828:1846   */\n  dup1\n    /* \"#utility.yul\":1818:1899   */\n  tag_127\n  jumpi\n    /* \"#utility.yul\":1884:1888   */\n  0x7f\n    /* \"#utility.yul\":1876:1882   */\n  dup3\n    /* \"#utility.yul\":1872:1889   */\n  and\n    /* \"#utility.yul\":1862:1889   */\n  swap2\n  pop\n    /* \"#utility.yul\":1818:1899   */\ntag_127:\n    /* \"#utility.yul\":1946:1948   */\n  0x20\n    /* \"#utility.yul\":1938:1944   */\n  dup3\n    /* \"#utility.yul\":1935:1949   */\n  lt\n    /* \"#utility.yul\":1915:1933   */\n  dup2\n    /* \"#utility.yul\":1912:1950   */\n  sub\n    /* \"#utility.yul\":1909:1993   */\n  tag_128\n  jumpi\n    /* \"#utility.yul\":1965:1983   */\n  tag_129\n  tag_86\n  jump\t// in\ntag_129:\n    /* \"#utility.yul\":1909:1993   */\ntag_128:\n    /* \"#utility.yul\":1730:1999   */\n  pop\n    /* \"#utility.yul\":1679:1999   */\n  swap2\n  swap1\n  pop\n  jump\t// out\n    /* \"#utility.yul\":2005:2146   */\ntag_88:\n    /* \"#utility.yul\":2054:2058   */\n  0x00\n    /* \"#utility.yul\":2077:2080   */\n  dup2\n    /* \"#utility.yul\":2069:2080   */\n  swap1\n  pop\n    /* \"#utility.yul\":2100:2103   */\n  dup2\n    /* \"#utility.yul\":2097:2098   */\n  0x00\n    /* \"#utility.yul\":2090:2104   */\n  mstore\n    /* \"#utility.yul\":2134:2138   */\n  0x20\n    /* \"#utility.yul\":2131:2132   */\n  0x00\n    /* \"#utility.yul\":2121:2139   */\n  keccak256\n    /* \"#utility.yul\":2113:2139   */\n  swap1\n  pop\n    /* \"#utility.yul\":2005:2146   */\n  swap2\n  swap1\n  pop\n  jump\t// out\n    /* \"#utility.yul\":2152:2245   */\ntag_89:\n    /* \"#utility.yul\":2189:2195   */\n  0x00\n    /* \"#utility.yul\":2236:2238   */\n  0x20\n    /* \"#utility.yul\":2231:2233   */\n  0x1f\n    /* \"#utility.yul\":2224:2229   */\n  dup4\n    /* \"#utility.yul\":2220:2234   */\n  add\n    /* \"#utility.yul\":2216:2239   */\n  div\n    /* \"#utility.yul\":2206:2239   */\n  swap1\n  pop\n    /* \"#utility.yul\":2152:2245   */\n  swap2\n  swap1\n  pop\n  jump\t// out\n    /* \"#utility.yul\":2251:2358   */\ntag_90:\n    /* \"#utility.yul\":2295:2303   */\n  0x00\n    /* \"#utility.yul\":2345:2350   */\n  dup3\n    /* \"#utility.yul\":2339:2343   */\n  dup3\n    /* \"#utility.yul\":2335:2351   */\n  shl\n    /* \"#utility.yul\":2314:2351   */\n  swap1\n  pop\n    /* \"#utility.yul\":2251:2358   */\n  swap3\n  swap2\n  pop\n  pop\n  jump\t// out\n    /* \"#utility.yul\":2364:2757   */\ntag_91:\n    /* \"#utility.yul\":2433:2439   */\n  0x00\n    /* \"#utility.yul\":2483:2484   */\n  0x08\n    /* \"#utility.yul\":2471:2481   */\n  dup4\n    /* \"#utility.yul\":2467:2485   */\n  mul\n    /* \"#utility.yul\":2506:2603   */\n  tag_134\n    /* \"#utility.yul\":2536:2602   */\n  0xffffffffffffffffffffffffffffffffffffffffffffffffffffffffffffffff\n    /* \"#utility.yul\":2525:2534   */\n  dup3\n    /* \"#utility.yul\":2506:2603   */\n  tag_90\n  jump\t// in\ntag_134:\n    /* \"#utility.yul\":2624:2663   */\n  tag_135\n    /* \"#utility.yul\":2654:2662   */\n  dup7\n    /* \"#utility.yul\":2643:2652   */\n  dup4\n    /* \"#utility.yul\":2624:2663   */\n  tag_90\n  jump\t// in\ntag_135:\n    /* \"#utility.yul\":2612:2663   */\n  swap6\n  pop\n    /* \"#utility.yul\":2696:2700   */\n  dup1\n    /* \"#utility.yul\":2692:2701   */\n  not\n    /* \"#utility.yul\":2685:2690   */\n  dup5\n    /* \"#utility.yul\":2681:2702   */\n  and\n    /* \"#utility.yul\":2672:2702   */\n  swap4\n  pop\n    /* \"#utility.yul\":2745:2749   */\n  dup1\n    /* \"#utility.yul\":2735:2743   */\n  dup7\n    /* \"#utility.yul\":2731:2750   */\n  and\n    /* \"#utility.yul\":2724:2729   */\n  dup5\n    /* \"#utility.yul\":2721:2751   */\n  or\n    /* \"#utility.yul\":2711:2751   */\n  swap3\n  pop\n    /* \"#utility.yul\":2440:2757   */\n  pop\n  pop\n    /* \"#utility.yul\":2364:2757   */\n  swap4\n  swap3\n  pop\n  pop\n  pop\n  jump\t// out\n    /* \"#utility.yul\":2763:2840   */\ntag_92:\n    /* \"#utility.yul\":2800:2807   */\n  0x00\n    /* \"#utility.yul\":2829:2834   */\n  dup2\n    /* \"#utility.yul\":2818:2834   */\n  swap1\n  pop\n    /* \"#utility.yul\":2763:2840   */\n  swap2\n  swap1\n  pop\n  jump\t// out\n    /* \"#utility.yul\":2846:2906   */\ntag_93:\n    /* \"#utility.yul\":2874:2877   */\n  0x00\n    /* \"#utility.yul\":2895:2900   */\n  dup2\n    /* \"#utility.yul\":2888:2900   */\n  swap1\n  pop\n    /* \"#utility.yul\":2846:2906   */\n  swap2\n  swap1\n  pop\n  jump\t// out\n    /* \"#utility.yul\":2912:3054   */\ntag_94:\n    /* \"#utility.yul\":2962:2971   */\n  0x00\n    /* \"#utility.yul\":2995:3048   */\n  tag_139\n    /* \"#utility.yul\":3013:3047   */\n  tag_140\n    /* \"#utility.yul\":3022:3046   */\n  tag_141\n    /* \"#utility.yul\":3040:3045   */\n  dup5\n    /* \"#utility.yul\":3022:3046   */\n  tag_92\n  jump\t// in\ntag_141:\n    /* \"#utility.yul\":3013:3047   */\n  tag_93\n  jump\t// in\ntag_140:\n    /* \"#utility.yul\":2995:3048   */\n  tag_92\n  jump\t// in\ntag_139:\n    /* \"#utility.yul\":2982:3048   */\n  swap1\n  pop\n    /* \"#utility.yul\":2912:3054   */\n  swap2\n  swap1\n  pop\n  jump\t// out\n    /* \"#utility.yul\":3060:3135   */\ntag_95:\n    /* \"#utility.yul\":3103:3106   */\n  0x00\n    /* \"#utility.yul\":3124:3129   */\n  dup2\n    /* \"#utility.yul\":3117:3129   */\n  swap1\n  pop\n    /* \"#utility.yul\":3060:3135   */\n  swap2\n  swap1\n  pop\n  jump\t// out\n    /* \"#utility.yul\":3141:3410   */\ntag_96:\n    /* \"#utility.yul\":3251:3290   */\n  tag_144\n    /* \"#utility.yul\":3282:3289   */\n  dup4\n    /* \"#utility.yul\":3251:3290   */\n  tag_94\n  jump\t// in\ntag_144:\n    /* \"#utility.yul\":3312:3403   */\n  tag_145\n    /* \"#utility.yul\":3361:3402   */\n  tag_146\n    /* \"#utility.yul\":3385:3401   */\n  dup3\n    /* \"#utility.yul\":3361:3402   */\n  tag_95\n  jump\t// in\ntag_146:\n    /* \"#utility.yul\":3353:3359   */\n  dup5\n    /* \"#utility.yul\":3346:3350   */\n  dup5\n    /* \"#utility.yul\":3340:3351   */\n  sload\n    /* \"#utility.yul\":3312:3403   */\n  tag_91\n  jump\t// in\ntag_145:\n    /* \"#utility.yul\":3306:3310   */\n  dup3\n    /* \"#utility.yul\":3299:3404   */\n  sstore\n    /* \"#utility.yul\":3217:3410   */\n  pop\n    /* \"#utility.yul\":3141:3410   */\n  pop\n  pop\n  pop\n  jump\t// out\n    /* \"#utility.yul\":3416:3489   */\ntag_97:\n    /* \"#utility.yul\":3461:3464   */\n  0x00\n    /* \"#utility.yul\":3482:3483   */\n  0x00\n    /* \"#utility.yul\":3475:3483   */\n  swap1\n  pop\n    /* \"#utility.yul\":3416:3489   */\n  swap1\n  jump\t// out\n    /* \"#utility.yul\":3495:3684   */\ntag_98:\n    /* \"#utility.yul\":3572:3604   */\n  tag_149\n  tag_97\n  jump\t// in\ntag_149:\n    /* \"#utility.yul\":3613:3678   */\n  tag_150\n    /* \"#utility.yul\":3671:3677   */\n  dup2\n    /* \"#utility.yul\":3663:3669   */\n  dup5\n    /* \"#utility.yul\":3657:3661   */\n  dup5\n    /* \"#utility.yul\":3613:3678   */\n  tag_96\n  jump\t// in\ntag_150:\n    /* \"#utility.yul\":3548:3684   */\n  pop\n    /* \"#utility.yul\":3495:3684   */\n  pop\n  pop\n  jump\t// out\n    /* \"#utility.yul\":3690:3876   */\ntag_99:\n    /* \"#utility.yul\":3750:3870   */\ntag_152:\n    /* \"#utility.yul\":3767:3770   */\n  dup2\n    /* \"#utility.yul\":3760:3765   */\n  dup2\n    /* \"#utility.yul\":3757:3771   */\n  lt\n    /* \"#utility.yul\":3750:3870   */\n  iszero\n  tag_154\n  jumpi\n    /* \"#utility.yul\":3821:3860   */\n  tag_155\n    /* \"#utility.yul\":3858:3859   */\n  0x00\n    /* \"#utility.yul\":3851:3856   */\n  dup3\n    /* \"#utility.yul\":3821:3860   */\n  tag_98\n  jump\t// in\ntag_155:\n    /* \"#utility.yul\":3794:3795   */\n  0x01\n    /* \"#utility.yul\":3787:3792   */\n  dup2\n    /* \"#utility.yul\":3783:3796   */\n  add\n    /* \"#utility.yul\":3774:3796   */\n  swap1\n  pop\n    /* \"#utility.yul\":3750:3870   */\n  jump(tag_152)\ntag_154:\n    /* \"#utility.yul\":3690:3876   */\n  pop\n  pop\n  jump\t// out\n    /* \"#utility.yul\":3882:4425   */\ntag_100:\n    /* \"#utility.yul\":3983:3985   */\n  0x1f\n    /* \"#utility.yul\":3978:3981   */\n  dup3\n    /* \"#utility.yul\":3975:3986   */\n  gt\n    /* \"#utility.yul\":3972:4418   */\n  iszero\n  tag_157\n  jumpi\n    /* \"#utility.yul\":4017:4055   */\n  tag_158\n    /* \"#utility.yul\":4049:4054   */\n  dup2\n    /* \"#utility.yul\":4017:4055   */\n  tag_88\n  jump\t// in\ntag_158:\n    /* \"#utility.yul\":4101:4130   */\n  tag_159\n    /* \"#utility.yul\":4119:4129   */\n  dup5\n    /* \"#utility.yul\":4101:4130   */\n  tag_89\n  jump\t// in\ntag_159:\n    /* \"#utility.yul\":4091:4099   */\n  dup2\n    /* \"#utility.yul\":4087:4131   */\n  add\n    /* \"#utility.yul\":4284:4286   */\n  0x20\n    /* \"#utility.yul\":4272:4282   */\n  dup6\n    /* \"#utility.yul\":4269:4287   */\n  lt\n    /* \"#utility.yul\":4266:4315   */\n  iszero\n  tag_160\n  jumpi\n    /* \"#utility.yul\":4305:4313   */\n  dup2\n    /* \"#utility.yul\":4290:4313   */\n  swap1\n  pop\n    /* \"#utility.yul\":4266:4315   */\ntag_160:\n    /* \"#utility.yul\":4328:4408   */\n  tag_161\n    /* \"#utility.yul\":4384:4406   */\n  tag_162\n    /* \"#utility.yul\":4402:4405   */\n  dup6\n    /* \"#utility.yul\":4384:4406   */\n  tag_89\n  jump\t// in\ntag_162:\n    /* \"#utility.yul\":4374:4382   */\n  dup4\n    /* \"#utility.yul\":4370:4407   */\n  add\n    /* \"#utility.yul\":4357:4368   */\n  dup3\n    /* \"#utility.yul\":4328:4408   */\n  tag_99\n  jump\t// in\ntag_161:\n    /* \"#utility.yul\":3987:4418   */\n  pop\n  pop\n    /* \"#utility.yul\":3972:4418   */\ntag_157:\n    /* \"#utility.yul\":3882:4425   */\n  pop\n  pop\n  pop\n  jump\t// out\n    /* \"#utility.yul\":4431:4548   */\ntag_101:\n    /* \"#utility.yul\":4485:4493   */\n  0x00\n    /* \"#utility.yul\":4535:4540   */\n  dup3\n    /* \"#utility.yul\":4529:4533   */\n  dup3\n    /* \"#utility.yul\":4525:4541   */\n  shr\n    /* \"#utility.yul\":4504:4541   */\n  swap1\n  pop\n    /* \"#utility.yul\":4431:4548   */\n  swap3\n  swap2\n  pop\n  pop\n  jump\t// out\n    /* \"#utility.yul\":4554:4723   */\ntag_102:\n    /* \"#utility.yul\":4598:4604   */\n  0x00\n    /* \"#utility.yul\":4631:4682   */\n  tag_165\n    /* \"#utility.yul\":4679:4680   */\n  0x00\n    /* \"#utility.yul\":4675:4681   */\n  not\n    /* \"#utility.yul\":4667:4672   */\n  dup5\n    /* \"#utility.yul\":4664:4665   */\n  0x08\n    /* \"#utility.yul\":4660:4673   */\n  mul\n    /* \"#utility.yul\":4631:4682   */\n  tag_101\n  jump\t// in\ntag_165:\n    /* \"#utility.yul\":4627:4683   */\n  not\n    /* \"#utility.yul\":4712:4716   */\n  dup1\n    /* \"#utility.yul\":4706:4710   */\n  dup4\n    /* \"#utility.yul\":4702:4717   */\n  and\n    /* \"#utility.yul\":4692:4717   */\n  swap2\n  pop\n    /* \"#utility.yul\":4605:4723   */\n  pop\n    /* \"#utility.yul\":4554:4723   */\n  swap3\n  swap2\n  pop\n  pop\n  jump\t// out\n    /* \"#utility.yul\":4728:5023   */\ntag_103:\n    /* \"#utility.yul\":4804:4808   */\n  0x00\n    /* \"#utility.yul\":4950:4979   */\n  tag_167\n    /* \"#utility.yul\":4975:4978   */\n  dup4\n    /* \"#utility.yul\":4969:4973   */\n  dup4\n    /* \"#utility.yul\":4950:4979   */\n  tag_102\n  jump\t// in\ntag_167:\n    /* \"#utility.yul\":4942:4979   */\n  swap2\n  pop\n    /* \"#utility.yul\":5012:5015   */\n  dup3\n    /* \"#utility.yul\":5009:5010   */\n  0x02\n    /* \"#utility.yul\":5005:5016   */\n  mul\n    /* \"#utility.yul\":4999:5003   */\n  dup3\n    /* \"#utility.yul\":4996:5017   */\n  or\n    /* \"#utility.yul\":4988:5017   */\n  swap1\n  pop\n    /* \"#utility.yul\":4728:5023   */\n  swap3\n  swap2\n  pop\n  pop\n  jump\t// out\n    /* \"#utility.yul\":5028:6423   */\ntag_9:\n    /* \"#utility.yul\":5145:5182   */\n  tag_169\n    /* \"#utility.yul\":5178:5181   */\n  dup3\n    /* \"#utility.yul\":5145:5182   */\n  tag_84\n  jump\t// in\ntag_169:\n    /* \"#utility.yul\":5247:5265   */\n  0xffffffffffffffff\n    /* \"#utility.yul\":5239:5245   */\n  dup2\n    /* \"#utility.yul\":5236:5266   */\n  gt\n    /* \"#utility.yul\":5233:5289   */\n  iszero\n  tag_170\n  jumpi\n    /* \"#utility.yul\":5269:5287   */\n  tag_171\n  tag_85\n  jump\t// in\ntag_171:\n    /* \"#utility.yul\":5233:5289   */\ntag_170:\n    /* \"#utility.yul\":5313:5351   */\n  tag_172\n    /* \"#utility.yul\":5345:5349   */\n  dup3\n    /* \"#utility.yul\":5339:5350   */\n  sload\n    /* \"#utility.yul\":5313:5351   */\n  tag_87\n  jump\t// in\ntag_172:\n    /* \"#utility.yul\":5398:5465   */\n  tag_173\n    /* \"#utility.yul\":5458:5464   */\n  dup3\n    /* \"#utility.yul\":5450:5456   */\n  dup3\n    /* \"#utility.yul\":5444:5448   */\n  dup6\n    /* \"#utility.yul\":5398:5465   */\n  tag_100\n  jump\t// in\ntag_173:\n    /* \"#utility.yul\":5492:5493   */\n  0x00\n    /* \"#utility.yul\":5516:5520   */\n  0x20\n    /* \"#utility.yul\":5503:5520   */\n  swap1\n  pop\n    /* \"#utility.yul\":5548:5550   */\n  0x1f\n    /* \"#utility.yul\":5540:5546   */\n  dup4\n    /* \"#utility.yul\":5537:5551   */\n  gt\n    /* \"#utility.yul\":5565:5566   */\n  0x01\n    /* \"#utility.yul\":5560:6178   */\n  dup2\n  eq\n  tag_175\n  jumpi\n    /* \"#utility.yul\":6222:6223   */\n  0x00\n    /* \"#utility.yul\":6239:6245   */\n  dup5\n    /* \"#utility.yul\":6236:6313   */\n  iszero\n  tag_176\n  jumpi\n    /* \"#utility.yul\":6288:6297   */\n  dup3\n    /* \"#utility.yul\":6283:6286   */\n  dup8\n    /* \"#utility.yul\":6279:6298   */\n  add\n    /* \"#utility.yul\":6273:6299   */\n  mload\n    /* \"#utility.yul\":6264:6299   */\n  swap1\n  pop\n    /* \"#utility.yul\":6236:6313   */\ntag_176:\n    /* \"#utility.yul\":6339:6406   */\n  tag_177\n    /* \"#utility.yul\":6399:6405   */\n  dup6\n    /* \"#utility.yul\":6392:6397   */\n  dup3\n    /* \"#utility.yul\":6339:6406   */\n  tag_103\n  jump\t// in\ntag_177:\n    /* \"#utility.yul\":6333:6337   */\n  dup7\n    /* \"#utility.yul\":6326:6407   */\n  sstore\n    /* \"#utility.yul\":6195:6417   */\n  pop\n    /* \"#utility.yul\":5530:6417   */\n  jump(tag_174)\n    /* \"#utility.yul\":5560:6178   */\ntag_175:\n    /* \"#utility.yul\":5612:5616   */\n  0x1f\n    /* \"#utility.yul\":5608:5617   */\n  not\n    /* \"#utility.yul\":5600:5606   */\n  dup5\n    /* \"#utility.yul\":5596:5618   */\n  and\n    /* \"#utility.yul\":5646:5683   */\n  tag_178\n    /* \"#utility.yul\":5678:5682   */\n  dup7\n    /* \"#utility.yul\":5646:5683   */\n  tag_88\n  jump\t// in\ntag_178:\n    /* \"#utility.yul\":5705:5706   */\n  0x00\n    /* \"#utility.yul\":5719:5927   */\ntag_179:\n    /* \"#utility.yul\":5733:5740   */\n  dup3\n    /* \"#utility.yul\":5730:5731   */\n  dup2\n    /* \"#utility.yul\":5727:5741   */\n  lt\n    /* \"#utility.yul\":5719:5927   */\n  iszero\n  tag_181\n  jumpi\n    /* \"#utility.yul\":5812:5821   */\n  dup5\n    /* \"#utility.yul\":5807:5810   */\n  dup10\n    /* \"#utility.yul\":5803:5822   */\n  add\n    /* \"#utility.yul\":5797:5823   */\n  mload\n    /* \"#utility.yul\":5789:5795   */\n  dup3\n    /* \"#utility.yul\":5782:5824   */\n  sstore\n    /* \"#utility.yul\":5863:5864   */\n  0x01\n    /* \"#utility.yul\":5855:5861   */\n  dup3\n    /* \"#utility.yul\":5851:5865   */\n  add\n    /* \"#utility.yul\":5841:5865   */\n  swap2\n  pop\n    /* \"#utility.yul\":5910:5912   */\n  0x20\n    /* \"#utility.yul\":5899:5908   */\n  dup6\n    /* \"#utility.yul\":5895:5913   */\n  add\n    /* \"#utility.yul\":5882:5913   */\n  swap5\n  pop\n    /* \"#utility.yul\":5756:5760   */\n  0x20\n    /* \"#utility.yul\":5753:5754   */\n  dup2\n    /* \"#utility.yul\":5749:5761   */\n  add\n    /* \"#utility.yul\":5744:5761   */\n  swap1\n  pop\n    /* \"#utility.yul\":5719:5927   */\n  jump(tag_179)\ntag_181:\n    /* \"#utility.yul\":5955:5961   */\n  dup7\n    /* \"#utility.yul\":5946:5953   */\n  dup4\n    /* \"#utility.yul\":5943:5962   */\n  lt\n    /* \"#utility.yul\":5940:6119   */\n  iszero\n  tag_182\n  jumpi\n    /* \"#utility.yul\":6013:6022   */\n  dup5\n    /* \"#utility.yul\":6008:6011   */\n  dup10\n    /* \"#utility.yul\":6004:6023   */\n  add\n    /* \"#utility.yul\":5998:6024   */\n  mload\n    /* \"#utility.yul\":6056:6104   */\n  tag_183\n    /* \"#utility.yul\":6098:6102   */\n  0x1f\n    /* \"#utility.yul\":6090:6096   */\n  dup10\n    /* \"#utility.yul\":6086:6103   */\n  and\n    /* \"#utility.yul\":6075:6084   */\n  dup3\n    /* \"#utility.yul\":6056:6104   */\n  tag_102\n  jump\t// in\ntag_183:\n    /* \"#utility.yul\":6048:6054   */\n  dup4\n    /* \"#utility.yul\":6041:6105   */\n  sstore\n    /* \"#utility.yul\":5963:6119   */\n  pop\n    /* \"#utility.yul\":5940:6119   */\ntag_182:\n    /* \"#utility.yul\":6165:6166   */\n  0x01\n    /* \"#utility.yul\":6161:6162   */\n  0x02\n    /* \"#utility.yul\":6153:6159   */\n  dup9\n    /* \"#utility.yul\":6149:6163   */\n  mul\n    /* \"#utility.yul\":6145:6167   */\n  add\n    /* \"#utility.yul\":6139:6143   */\n  dup9\n    /* \"#utility.yul\":6132:6168   */\n  sstore\n    /* \"#utility.yul\":5567:6178   */\n  pop\n  pop\n  pop\n    /* \"#utility.yul\":5530:6417   */\ntag_174:\n  pop\n    /* \"#utility.yul\":5120:6423   */\n  pop\n  pop\n  pop\n    /* \"#utility.yul\":5028:6423   */\n  pop\n  pop\n  jump\t// out\n    /* \"#utility.yul\":6429:6547   */\ntag_104:\n    /* \"#utility.yul\":6516:6540   */\n  tag_185\n    /* \"#utility.yul\":6534:6539   */\n  dup2\n    /* \"#utility.yul\":6516:6540   */\n  tag_81\n  jump\t// in\ntag_185:\n    /* \"#utility.yul\":6511:6514   */\n  dup3\n    /* \"#utility.yul\":6504:6541   */\n  mstore\n    /* \"#utility.yul\":6429:6547   */\n  pop\n  pop\n  jump\t// out\n    /* \"#utility.yul\":6553:6775   */\ntag_14:\n    /* \"#utility.yul\":6646:6650   */\n  0x00\n    /* \"#utility.yul\":6684:6686   */\n  0x20\n    /* \"#utility.yul\":6673:6682   */\n  dup3\n    /* \"#utility.yul\":6669:6687   */\n  add\n    /* \"#utility.yul\":6661:6687   */\n  swap1\n  pop\n    /* \"#utility.yul\":6697:6768   */\n  tag_187\n    /* \"#utility.yul\":6765:6766   */\n  0x00\n    /* \"#utility.yul\":6754:6763   */\n  dup4\n    /* \"#utility.yul\":6750:6767   */\n  add\n    /* \"#utility.yul\":6741:6747   */\n  dup5\n    /* \"#utility.yul\":6697:6768   */\n  tag_104\n  jump\t// in\ntag_187:\n    /* \"#utility.yul\":6553:6775   */\n  swap3\n  swap2\n  pop\n  pop\n  jump\t// out\n    /* \"#utility.yul\":6781:6961   */\ntag_105:\n    /* \"#utility.yul\":6829:6906   */\n  0x4e487b7100000000000000000000000000000000000000000000000000000000\n    /* \"#utility.yul\":6826:6827   */\n  0x00\n    /* \"#utility.yul\":6819:6907   */\n  mstore\n    /* \"#utility.yul\":6926:6930   */\n  0x11\n    /* \"#utility.yul\":6923:6924   */\n  0x04\n    /* \"#utility.yul\":6916:6931   */\n  mstore\n    /* \"#utility.yul\":6950:6954   */\n  0x24\n    /* \"#utility.yul\":6947:6948   */\n  0x00\n    /* \"#utility.yul\":6940:6955   */\n  revert\n    /* \"#utility.yul\":6967:7158   */\ntag_47:\n    /* \"#utility.yul\":7007:7010   */\n  0x00\n    /* \"#utility.yul\":7026:7046   */\n  tag_190\n    /* \"#utility.yul\":7044:7045   */\n  dup3\n    /* \"#utility.yul\":7026:7046   */\n  tag_92\n  jump\t// in\ntag_190:\n    /* \"#utility.yul\":7021:7046   */\n  swap2\n  pop\n    /* \"#utility.yul\":7060:7080   */\n  tag_191\n    /* \"#utility.yul\":7078:7079   */\n  dup4\n    /* \"#utility.yul\":7060:7080   */\n  tag_92\n  jump\t// in\ntag_191:\n    /* \"#utility.yul\":7055:7080   */\n  swap3\n  pop\n    /* \"#utility.yul\":7103:7104   */\n  dup3\n    /* \"#utility.yul\":7100:7101   */\n  dup3\n    /* \"#utility.yul\":7096:7105   */\n  add\n    /* \"#utility.yul\":7089:7105   */\n  swap1\n  pop\n    /* \"#utility.yul\":7124:7127   */\n  dup1\n    /* \"#utility.yul\":7121:7122   */\n  dup3\n    /* \"#utility.yul\":7118:7128   */\n  gt\n    /* \"#utility.yul\":7115:7151   */\n  iszero\n  tag_192\n  jumpi\n    /* \"#utility.yul\":7131:7149   */\n  tag_193\n  tag_105\n  jump\t// in\ntag_193:\n    /* \"#utility.yul\":7115:7151   */\ntag_192:\n    /* \"#utility.yul\":6967:7158   */\n  swap3\n  swap2\n  pop\n  pop\n  jump\t// out\n    /* \"#utility.yul\":7164:7282   */\ntag_106:\n    /* \"#utility.yul\":7251:7275   */\n  tag_195\n    /* \"#utility.yul\":7269:7274   */\n  dup2\n    /* \"#utility.yul\":7251:7275   */\n  tag_92\n  jump\t// in\ntag_195:\n    /* \"#utility.yul\":7246:7249   */\n  dup3\n    /* \"#utility.yul\":7239:7276   */\n  mstore\n    /* \"#utility.yul\":7164:7282   */\n  pop\n  pop\n  jump\t// out\n    /* \"#utility.yul\":7288:7730   */\ntag_51:\n    /* \"#utility.yul\":7437:7441   */\n  0x00\n    /* \"#utility.yul\":7475:7477   */\n  0x60\n    /* \"#utility.yul\":7464:7473   */\n  dup3\n    /* \"#utility.yul\":7460:7478   */\n  add\n    /* \"#utility.yul\":7452:7478   */\n  swap1\n  pop\n    /* \"#utility.yul\":7488:7559   */\n  tag_197\n    /* \"#utility.yul\":7556:7557   */\n  0x00\n    /* \"#utility.yul\":7545:7554   */\n  dup4\n    /* \"#utility.yul\":7541:7558   */\n  add\n    /* \"#utility.yul\":7532:7538   */\n  dup7\n    /* \"#utility.yul\":7488:7559   */\n  tag_104\n  jump\t// in\ntag_197:\n    /* \"#utility.yul\":7569:7641   */\n  tag_198\n    /* \"#utility.yul\":7637:7639   */\n  0x20\n    /* \"#utility.yul\":7626:7635   */\n  dup4\n    /* \"#utility.yul\":7622:7640   */\n  add\n    /* \"#utility.yul\":7613:7619   */\n  dup6\n    /* \"#utility.yul\":7569:7641   */\n  tag_106\n  jump\t// in\ntag_198:\n    /* \"#utility.yul\":7651:7723   */\n  tag_199\n    /* \"#utility.yul\":7719:7721   */\n  0x40\n    /* \"#utility.yul\":7708:7717   */\n  dup4\n    /* \"#utility.yul\":7704:7722   */\n  add\n    /* \"#utility.yul\":7695:7701   */\n  dup5\n    /* \"#utility.yul\":7651:7723   */\n  tag_106\n  jump\t// in\ntag_199:\n    /* \"#utility.yul\":7288:7730   */\n  swap5\n  swap4\n  pop\n  pop\n  pop\n  pop\n  jump\t// out\n    /* \"#utility.yul\":7736:7958   */\ntag_55:\n    /* \"#utility.yul\":7829:7833   */\n  0x00\n    /* \"#utility.yul\":7867:7869   */\n  0x20\n    /* \"#utility.yul\":7856:7865   */\n  dup3\n    /* \"#utility.yul\":7852:7870   */\n  add\n    /* \"#utility.yul\":7844:7870   */\n  swap1\n  pop\n    /* \"#utility.yul\":7880:7951   */\n  tag_201\n    /* \"#utility.yul\":7948:7949   */\n  0x00\n    /* \"#utility.yul\":7937:7946   */\n  dup4\n    /* \"#utility.yul\":7933:7950   */\n  add\n    /* \"#utility.yul\":7924:7930   */\n  dup5\n    /* \"#utility.yul\":7880:7951   */\n  tag_106\n  jump\t// in\ntag_201:\n    /* \"#utility.yul\":7736:7958   */\n  swap3\n  swap2\n  pop\n  pop\n  jump\t// out\n    /* \"#utility.yul\":7964:8144   */\ntag_62:\n    /* \"#utility.yul\":8012:8089   */\n  0x4e487b7100000000000000000000000000000000000000000000000000000000\n    /* \"#utility.yul\":8009:8010   */\n  0x00\n    /* \"#utility.yul\":8002:8090   */\n  mstore\n    /* \"#utility.yul\":8109:8113   */\n  0x32\n    /* \"#utility.yul\":8106:8107   */\n  0x04\n    /* \"#utility.yul\":8099:8114   */\n  mstore\n    /* \"#utility.yul\":8133:8137   */\n  0x24\n    /* \"#utility.yul\":8130:8131   */\n  0x00\n    /* \"#utility.yul\":8123:8138   */\n  revert\n    /* \"#utility.yul\":8150:8344   */\ntag_66:\n    /* \"#utility.yul\":8190:8194   */\n  0x00\n    /* \"#utility.yul\":8210:8230   */\n  tag_204\n    /* \"#utility.yul\":8228:8229   */\n  dup3\n    /* \"#utility.yul\":8210:8230   */\n  tag_92\n  jump\t// in\ntag_204:\n    /* \"#utility.yul\":8205:8230   */\n  swap2\n  pop\n    /* \"#utility.yul\":8244:8264   */\n  tag_205\n    /* \"#utility.yul\":8262:8263   */\n  dup4\n    /* \"#utility.yul\":8244:8264   */\n  tag_92\n  jump\t// in\ntag_205:\n    /* \"#utility.yul\":8239:8264   */\n  swap3\n  pop\n    /* \"#utility.yul\":8288:8289   */\n  dup3\n    /* \"#utility.yul\":8285:8286   */\n  dup3\n    /* \"#utility.yul\":8281:8290   */\n  sub\n    /* \"#utility.yul\":8273:8290   */\n  swap1\n  pop\n    /* \"#utility.yul\":8312:8313   */\n  dup2\n    /* \"#utility.yul\":8306:8310   */\n  dup2\n    /* \"#utility.yul\":8303:8314   */\n  gt\n    /* \"#utility.yul\":8300:8337   */\n  iszero\n  tag_206\n  jumpi\n    /* \"#utility.yul\":8317:8335   */\n  tag_207\n  tag_105\n  jump\t// in\ntag_207:\n    /* \"#utility.yul\":8300:8337   */\ntag_206:\n    /* \"#utility.yul\":8150:8344   */\n  swap3\n  swap2\n  pop\n  pop\n  jump\t// out\n    /* \"#utility.yul\":8350:8530   */\ntag_75:\n    /* \"#utility.yul\":8398:8475   */\n  0x4e487b7100000000000000000000000000000000000000000000000000000000\n    /* \"#utility.yul\":8395:8396   */\n  0x00\n    /* \"#utility.yul\":8388:8476   */\n  mstore\n    /* \"#utility.yul\":8495:8499   */\n  0x31\n    /* \"#utility.yul\":8492:8493   */\n  0x04\n    /* \"#utility.yul\":8485:8500   */\n  mstore\n    /* \"#utility.yul\":8519:8523   */\n  0x24\n    /* \"#utility.yul\":8516:8517   */\n  0x00\n    /* \"#utility.yul\":8509:8524   */\n  revert\n    /* \"contracts/NASICOIN.sol\":540:8227  contract NASICOIN is ERC20, Ownable {... */\ntag_20:\n  dataSize(sub_0)\n  dup1\n  dataOffset(sub_0)\n  0x00\n  codecopy\n  0x00\n  return\nstop\n\nsub_0: assembly {\n        /* \"contracts/NASICOIN.sol\":540:8227  contract NASICOIN is ERC20, Ownable {... */\n      mstore(0x40, 0x80)\n      callvalue\n      dup1\n      iszero\n      tag_1\n      jumpi\n      revert(0x00, 0x00)\n    tag_1:\n      pop\n      jumpi(tag_2, lt(calldatasize, 0x04))\n      shr(0xe0, calldataload(0x00))\n      dup1\n      0x88dacbcc\n      gt\n      tag_32\n      jumpi\n      dup1\n      0xa9059cbb\n      gt\n      tag_33\n      jumpi\n      dup1\n      0xdd62ed3e\n      gt\n      tag_34\n      jumpi\n      dup1\n      0xdd62ed3e\n      eq\n      tag_28\n      jumpi\n      dup1\n      0xdd940cb5\n      eq\n      tag_29\n      jumpi\n      dup1\n      0xe9c559a9\n      eq\n      tag_30\n      jumpi\n      dup1\n      0xf2fde38b\n      eq\n      tag_31\n      jumpi\n      jump(tag_2)\n    tag_34:\n      dup1\n      0xa9059cbb\n      eq\n      tag_24\n      jumpi\n      dup1\n      0xb543503e\n      eq\n      tag_25\n      jumpi\n      dup1\n      0xb9c28d29\n      eq\n      tag_26\n      jumpi\n      dup1\n      0xca4b208b\n      eq\n      tag_27\n      jumpi\n      jump(tag_2)\n    tag_33:\n      dup1\n      0x95d89b41\n      gt\n      tag_35\n      jumpi\n      dup1\n      0x95d89b41\n      eq\n      tag_20\n      jumpi\n      dup1\n      0x9e12279d\n      eq\n      tag_21\n      jumpi\n      dup1\n      0xa67a91e3\n      eq\n      tag_22\n      jumpi\n      dup1\n      0xa86c8374\n      eq\n      tag_23\n      jumpi\n      jump(tag_2)\n    tag_35:\n      dup1\n      0x88dacbcc\n      eq\n      tag_17\n      jumpi\n      dup1\n      0x8a4adf24\n      eq\n      tag_18\n      jumpi\n      dup1\n      0x8da5cb5b\n      eq\n      tag_19\n      jumpi\n      jump(tag_2)\n    tag_32:\n      dup1\n      0x2b7df804\n      gt\n      tag_36\n      jumpi\n      dup1\n      0x40c10f19\n      gt\n      tag_37\n      jumpi\n      dup1\n      0x40c10f19\n      eq\n      tag_13\n      jumpi\n      dup1\n      0x47734892\n      eq\n      tag_14\n      jumpi\n      dup1\n      0x70a08231\n      eq\n      tag_15\n      jumpi\n      dup1\n      0x715018a6\n      eq\n      tag_16\n      jumpi\n      jump(tag_2)\n    tag_37:\n      dup1\n      0x2b7df804\n      eq\n      tag_10\n      jumpi\n      dup1\n      0x2ff2e9dc\n      eq\n      tag_11\n      jumpi\n      dup1\n      0x313ce567\n      eq\n      tag_12\n      jumpi\n      jump(tag_2)\n    tag_36:\n      dup1\n      0x06fdde03\n      gt\n      tag_38\n      jumpi\n      dup1\n      0x06fdde03\n      eq\n      tag_6\n      jumpi\n      dup1\n      0x095ea7b3\n      eq\n      tag_7\n      jumpi\n      dup1\n      0x18160ddd\n      eq\n      tag_8\n      jumpi\n      dup1\n      0x23b872dd\n      eq\n      tag_9\n      jumpi\n      jump(tag_2)\n    tag_38:\n      dup1\n      0xce8e3e\n      eq\n      tag_3\n      jumpi\n      dup1\n      0x05069f22\n      eq\n      tag_4\n      jumpi\n      dup1\n      0x067453a6\n      eq\n      tag_5\n      jumpi\n    tag_2:\n      revert(0x00, 0x00)\n        /* \"contracts/NASICOIN.sol\":4279:4369  function getUsers() external view returns (address[] memory) {... */\n    tag_3:\n      tag_39\n      tag_40\n      jump\t// in\n    tag_39:\n      mload(0x40)\n      tag_41\n      swap2\n      swap1\n      tag_42\n      jump\t// in\n    tag_41:\n      mload(0x40)\n      dup1\n      swap2\n      sub\n      swap1\n      return\n        /* \"contracts/NASICOIN.sol\":1115:1145  address public pendingNewOwner */\n    tag_4:\n      tag_43\n      tag_44\n      jump\t// in\n    tag_43:\n      mload(0x40)\n      tag_45\n      swap2\n      swap1\n      tag_46\n      jump\t// in\n    tag_45:\n      mload(0x40)\n      dup1\n      swap2\n      sub\n      swap1\n      return\n        /* \"contracts/NASICOIN.sol\":7306:7591  function cancelDeveloperChange() external onlyDeveloper {... */\n    tag_5:\n      tag_47\n      tag_48\n      jump\t// in\n    tag_47:\n      stop\n        /* \"@openzeppelin/contracts/token/ERC20/ERC20.sol\":1779:1868  function name() public view virtual returns (string memory) {... */\n    tag_6:\n      tag_49\n      tag_50\n      jump\t// in\n    tag_49:\n      mload(0x40)\n      tag_51\n      swap2\n      swap1\n      tag_52\n      jump\t// in\n    tag_51:\n      mload(0x40)\n      dup1\n      swap2\n      sub\n      swap1\n      return\n        /* \"@openzeppelin/contracts/token/ERC20/ERC20.sol\":3998:4184  function approve(address spender, uint256 value) public virtual returns (bool) {... */\n    tag_7:\n      tag_53\n      0x04\n      dup1\n      calldatasize\n      sub\n      dup2\n      add\n      swap1\n      tag_54\n      swap2\n      swap1\n      tag_55\n      jump\t// in\n    tag_54:\n      tag_56\n      jump\t// in\n    tag_53:\n      mload(0x40)\n      tag_57\n      swap2\n      swap1\n      tag_58\n      jump\t// in\n    tag_57:\n      mload(0x40)\n      dup1\n      swap2\n      sub\n      swap1\n      return\n        /* \"@openzeppelin/contracts/token/ERC20/ERC20.sol\":2849:2946  function totalSupply() public view virtual returns (uint256) {... */\n    tag_8:\n      tag_59\n      tag_60\n      jump\t// in\n    tag_59:\n      mload(0x40)\n      tag_61\n      swap2\n      swap1\n      tag_62\n      jump\t// in\n    tag_61:\n      mload(0x40)\n      dup1\n      swap2\n      sub\n      swap1\n      return\n        /* \"@openzeppelin/contracts/token/ERC20/ERC20.sol\":4776:5020  function transferFrom(address from, address to, uint256 value) public virtual returns (bool) {... */\n    tag_9:\n      tag_63\n      0x04\n      dup1\n      calldatasize\n      sub\n      dup2\n      add\n      swap1\n      tag_64\n      swap2\n      swap1\n      tag_65\n      jump\t// in\n    tag_64:\n      tag_66\n      jump\t// in\n    tag_63:\n      mload(0x40)\n      tag_67\n      swap2\n      swap1\n      tag_58\n      jump\t// in\n    tag_67:\n      mload(0x40)\n      dup1\n      swap2\n      sub\n      swap1\n      return\n        /* \"contracts/NASICOIN.sol\":1192:1229  uint256 public ownerChangeRequestTime */\n    tag_10:\n      tag_68\n      tag_69\n      jump\t// in\n    tag_68:\n      mload(0x40)\n      tag_70\n      swap2\n      swap1\n      tag_62\n      jump\t// in\n    tag_70:\n      mload(0x40)\n      dup1\n      swap2\n      sub\n      swap1\n      return\n        /* \"contracts/NASICOIN.sol\":599:650  uint256 public constant INITIAL_SUPPLY = 2 * 10**18 */\n    tag_11:\n      tag_71\n      tag_72\n      jump\t// in\n    tag_71:\n      mload(0x40)\n      tag_73\n      swap2\n      swap1\n      tag_62\n      jump\t// in\n    tag_73:\n      mload(0x40)\n      dup1\n      swap2\n      sub\n      swap1\n      return\n        /* \"contracts/NASICOIN.sol\":2382:2473  function decimals() public view virtual override returns (uint8) {... */\n    tag_12:\n      tag_74\n      tag_75\n      jump\t// in\n    tag_74:\n      mload(0x40)\n      tag_76\n      swap2\n      swap1\n      tag_77\n      jump\t// in\n    tag_76:\n      mload(0x40)\n      dup1\n      swap2\n      sub\n      swap1\n      return\n        /* \"contracts/NASICOIN.sol\":5097:5261  function mint(address to, uint256 amount) external {... */\n    tag_13:\n      tag_78\n      0x04\n      dup1\n      calldatasize\n      sub\n      dup2\n      add\n      swap1\n      tag_79\n      swap2\n      swap1\n      tag_55\n      jump\t// in\n    tag_79:\n      tag_80\n      jump\t// in\n    tag_78:\n      stop\n        /* \"contracts/NASICOIN.sol\":4417:4529  function getUserBalance(address user) external view returns (uint256) {... */\n    tag_14:\n      tag_81\n      0x04\n      dup1\n      calldatasize\n      sub\n      dup2\n      add\n      swap1\n      tag_82\n      swap2\n      swap1\n      tag_83\n      jump\t// in\n    tag_82:\n      tag_84\n      jump\t// in\n    tag_81:\n      mload(0x40)\n      tag_85\n      swap2\n      swap1\n      tag_62\n      jump\t// in\n    tag_85:\n      mload(0x40)\n      dup1\n      swap2\n      sub\n      swap1\n      return\n        /* \"@openzeppelin/contracts/token/ERC20/ERC20.sol\":3004:3120  function balanceOf(address account) public view virtual returns (uint256) {... */\n    tag_15:\n      tag_86\n      0x04\n      dup1\n      calldatasize\n      sub\n      dup2\n      add\n      swap1\n      tag_87\n      swap2\n      swap1\n      tag_83\n      jump\t// in\n    tag_87:\n      tag_88\n      jump\t// in\n    tag_86:\n      mload(0x40)\n      tag_89\n      swap2\n      swap1\n      tag_62\n      jump\t// in\n    tag_89:\n      mload(0x40)\n      dup1\n      swap2\n      sub\n      swap1\n      return\n        /* \"@openzeppelin/contracts/access/Ownable.sol\":2293:2394  function renounceOwnership() public virtual onlyOwner {... */\n    tag_16:\n      tag_90\n      tag_91\n      jump\t// in\n    tag_90:\n      stop\n        /* \"contracts/NASICOIN.sol\":5833:6090  function cancelOwnerChange() external onlyOwner {... */\n    tag_17:\n      tag_92\n      tag_93\n      jump\t// in\n    tag_92:\n      stop\n        /* \"contracts/NASICOIN.sol\":1042:1069  address public vaultManager */\n    tag_18:\n      tag_94\n      tag_95\n      jump\t// in\n    tag_94:\n      mload(0x40)\n      tag_96\n      swap2\n      swap1\n      tag_46\n      jump\t// in\n    tag_96:\n      mload(0x40)\n      dup1\n      swap2\n      sub\n      swap1\n      return\n        /* \"@openzeppelin/contracts/access/Ownable.sol\":1638:1723  function owner() public view virtual returns (address) {... */\n    tag_19:\n      tag_97\n      tag_98\n      jump\t// in\n    tag_97:\n      mload(0x40)\n      tag_99\n      swap2\n      swap1\n      tag_46\n      jump\t// in\n    tag_99:\n      mload(0x40)\n      dup1\n      swap2\n      sub\n      swap1\n      return\n        /* \"@openzeppelin/contracts/token/ERC20/ERC20.sol\":1981:2074  function symbol() public view virtual returns (string memory) {... */\n    tag_20:\n      tag_100\n      tag_101\n      jump\t// in\n    tag_100:\n      mload(0x40)\n      tag_102\n      swap2\n      swap1\n      tag_52\n      jump\t// in\n    tag_102:\n      mload(0x40)\n      dup1\n      swap2\n      sub\n      swap1\n      return\n        /* \"contracts/NASICOIN.sol\":6810:7232  function requestDeveloperChange(address _newDeveloper) external onlyOwner {... */\n    tag_21:\n      tag_103\n      0x04\n      dup1\n      calldatasize\n      sub\n      dup2\n      add\n      swap1\n      tag_104\n      swap2\n      swap1\n      tag_83\n      jump\t// in\n    tag_104:\n      tag_105\n      jump\t// in\n    tag_103:\n      stop\n        /* \"contracts/NASICOIN.sol\":7682:8225  function finalizeDeveloperChange() external onlyOwner {... */\n    tag_22:\n      tag_106\n      tag_107\n      jump\t// in\n    tag_106:\n      stop\n        /* \"contracts/NASICOIN.sol\":5381:5763  function requestOwnerChange(address _newOwner) external onlyDeveloper {... */\n    tag_23:\n      tag_108\n      0x04\n      dup1\n      calldatasize\n      sub\n      dup2\n      add\n      swap1\n      tag_109\n      swap2\n      swap1\n      tag_83\n      jump\t// in\n    tag_109:\n      tag_110\n      jump\t// in\n    tag_108:\n      stop\n        /* \"@openzeppelin/contracts/token/ERC20/ERC20.sol\":3315:3493  function transfer(address to, uint256 value) public virtual returns (bool) {... */\n    tag_24:\n      tag_111\n      0x04\n      dup1\n      calldatasize\n      sub\n      dup2\n      add\n      swap1\n      tag_112\n      swap2\n      swap1\n      tag_55\n      jump\t// in\n    tag_112:\n      tag_113\n      jump\t// in\n    tag_111:\n      mload(0x40)\n      tag_114\n      swap2\n      swap1\n      tag_58\n      jump\t// in\n    tag_114:\n      mload(0x40)\n      dup1\n      swap2\n      sub\n      swap1\n      return\n        /* \"contracts/NASICOIN.sol\":4681:4878  function setVaultManager(address _vaultManager) external onlyOwner {... */\n    tag_25:\n      tag_115\n      0x04\n      dup1\n      calldatasize\n      sub\n      dup2\n      add\n      swap1\n      tag_116\n      swap2\n      swap1\n      tag_83\n      jump\t// in\n    tag_116:\n      tag_117\n      jump\t// in\n    tag_115:\n      stop\n        /* \"contracts/NASICOIN.sol\":1151:1185  address public pendingNewDeveloper */\n    tag_26:\n      tag_118\n      tag_119\n      jump\t// in\n    tag_118:\n      mload(0x40)\n      tag_120\n      swap2\n      swap1\n      tag_46\n      jump\t// in\n    tag_120:\n      mload(0x40)\n      dup1\n      swap2\n      sub\n      swap1\n      return\n        /* \"contracts/NASICOIN.sol\":984:1008  address public developer */\n    tag_27:\n      tag_121\n      tag_122\n      jump\t// in\n    tag_121:\n      mload(0x40)\n      tag_123\n      swap2\n      swap1\n      tag_46\n      jump\t// in\n    tag_123:\n      mload(0x40)\n      dup1\n      swap2\n      sub\n      swap1\n      return\n        /* \"@openzeppelin/contracts/token/ERC20/ERC20.sol\":3551:3691  function allowance(address owner, address spender) public view virtual returns (uint256) {... */\n    tag_28:\n      tag_124\n      0x04\n      dup1\n      calldatasize\n      sub\n      dup2\n      add\n      swap1\n      tag_125\n      swap2\n      swap1\n      tag_126\n      jump\t// in\n    tag_125:\n      tag_127\n      jump\t// in\n    tag_124:\n      mload(0x40)\n      tag_128\n      swap2\n      swap1\n      tag_62\n      jump\t// in\n    tag_128:\n      mload(0x40)\n      dup1\n      swap2\n      sub\n      swap1\n      return\n        /* \"contracts/NASICOIN.sol\":6177:6682  function finalizeOwnerChange() external onlyDeveloper {... */\n    tag_29:\n      tag_129\n      tag_130\n      jump\t// in\n    tag_129:\n      stop\n        /* \"contracts/NASICOIN.sol\":1235:1276  uint256 public developerChangeRequestTime */\n    tag_30:\n      tag_131\n      tag_132\n      jump\t// in\n    tag_131:\n      mload(0x40)\n      tag_133\n      swap2\n      swap1\n      tag_62\n      jump\t// in\n    tag_133:\n      mload(0x40)\n      dup1\n      swap2\n      sub\n      swap1\n      return\n        /* \"@openzeppelin/contracts/access/Ownable.sol\":2543:2758  function transferOwnership(address newOwner) public virtual onlyOwner {... */\n    tag_31:\n      tag_134\n      0x04\n      dup1\n      calldatasize\n      sub\n      dup2\n      add\n      swap1\n      tag_135\n      swap2\n      swap1\n      tag_83\n      jump\t// in\n    tag_135:\n      tag_136\n      jump\t// in\n    tag_134:\n      stop\n        /* \"contracts/NASICOIN.sol\":4279:4369  function getUsers() external view returns (address[] memory) {... */\n    tag_40:\n        /* \"contracts/NASICOIN.sol\":4322:4338  address[] memory */\n      0x60\n        /* \"contracts/NASICOIN.sol\":4357:4362  users */\n      0x08\n        /* \"contracts/NASICOIN.sol\":4350:4362  return users */\n      dup1\n      sload\n      dup1\n      0x20\n      mul\n      0x20\n      add\n      mload(0x40)\n      swap1\n      dup2\n      add\n      0x40\n      mstore\n      dup1\n      swap3\n      swap2\n      swap1\n      dup2\n      dup2\n      mstore\n      0x20\n      add\n      dup3\n      dup1\n      sload\n      dup1\n      iszero\n      tag_138\n      jumpi\n      0x20\n      mul\n      dup3\n      add\n      swap2\n      swap1\n      0x00\n      mstore\n      keccak256(0x00, 0x20)\n      swap1\n    tag_139:\n      dup2\n      0x00\n      swap1\n      sload\n      swap1\n      0x0100\n      exp\n      swap1\n      div\n      0xffffffffffffffffffffffffffffffffffffffff\n      and\n      0xffffffffffffffffffffffffffffffffffffffff\n      and\n      dup2\n      mstore\n      0x20\n      add\n      swap1\n      0x01\n      add\n      swap1\n      dup1\n      dup4\n      gt\n      tag_139\n      jumpi\n    tag_138:\n      pop\n      pop\n      pop\n      pop\n      pop\n      swap1\n      pop\n        /* \"contracts/NASICOIN.sol\":4279:4369  function getUsers() external view returns (address[] memory) {... */\n      swap1\n      jump\t// out\n        /* \"contracts/NASICOIN.sol\":1115:1145  address public pendingNewOwner */\n    tag_44:\n      0x0b\n      0x00\n      swap1\n      sload\n      swap1\n      0x0100\n      exp\n      swap1\n      div\n      0xffffffffffffffffffffffffffffffffffffffff\n      and\n      dup2\n      jump\t// out\n        /* \"contracts/NASICOIN.sol\":7306:7591  function cancelDeveloperChange() external onlyDeveloper {... */\n    tag_48:\n        /* \"contracts/NASICOIN.sol\":2624:2633  developer */\n      0x09\n      0x00\n      swap1\n      sload\n      swap1\n      0x0100\n      exp\n      swap1\n      div\n      0xffffffffffffffffffffffffffffffffffffffff\n      and\n        /* \"contracts/NASICOIN.sol\":2610:2633  msg.sender == developer */\n      0xffffffffffffffffffffffffffffffffffffffff\n      and\n        /* \"contracts/NASICOIN.sol\":2610:2620  msg.sender */\n      caller\n        /* \"contracts/NASICOIN.sol\":2610:2633  msg.sender == developer */\n      0xffffffffffffffffffffffffffffffffffffffff\n      and\n      eq\n        /* \"contracts/NASICOIN.sol\":2602:2665  require(msg.sender == developer, \"Caller is not the developer\") */\n      tag_141\n      jumpi\n      mload(0x40)\n      0x08c379a000000000000000000000000000000000000000000000000000000000\n      dup2\n      mstore\n      0x04\n      add\n      tag_142\n      swap1\n      tag_143\n      jump\t// in\n    tag_142:\n      mload(0x40)\n      dup1\n      swap2\n      sub\n      swap1\n      revert\n    tag_141:\n        /* \"contracts/NASICOIN.sol\":7409:7410  0 */\n      0x00\n        /* \"contracts/NASICOIN.sol\":7380:7406  developerChangeRequestTime */\n      sload(0x0e)\n        /* \"contracts/NASICOIN.sol\":7380:7410  developerChangeRequestTime > 0 */\n      gt\n        /* \"contracts/NASICOIN.sol\":7372:7450  require(developerChangeRequestTime > 0, \"No developer change request pending\") */\n      tag_145\n      jumpi\n      mload(0x40)\n      0x08c379a000000000000000000000000000000000000000000000000000000000\n      dup2\n      mstore\n      0x04\n      add\n      tag_146\n      swap1\n      tag_147\n      jump\t// in\n    tag_146:\n      mload(0x40)\n      dup1\n      swap2\n      sub\n      swap1\n      revert\n    tag_145:\n        /* \"contracts/NASICOIN.sol\":7491:7492  0 */\n      0x00\n        /* \"contracts/NASICOIN.sol\":7461:7480  pendingNewDeveloper */\n      0x0c\n      0x00\n        /* \"contracts/NASICOIN.sol\":7461:7493  pendingNewDeveloper = address(0) */\n      0x0100\n      exp\n      dup2\n      sload\n      dup2\n      0xffffffffffffffffffffffffffffffffffffffff\n      mul\n      not\n      and\n      swap1\n      dup4\n      0xffffffffffffffffffffffffffffffffffffffff\n      and\n      mul\n      or\n      swap1\n      sstore\n      pop\n        /* \"contracts/NASICOIN.sol\":7532:7533  0 */\n      0x00\n        /* \"contracts/NASICOIN.sol\":7503:7529  developerChangeRequestTime */\n      0x0e\n        /* \"contracts/NASICOIN.sol\":7503:7533  developerChangeRequestTime = 0 */\n      dup2\n      swap1\n      sstore\n      pop\n        /* \"contracts/NASICOIN.sol\":7573:7583  msg.sender */\n      caller\n        /* \"contracts/NASICOIN.sol\":7549:7584  DeveloperChangeCanceled(msg.sender) */\n      0xffffffffffffffffffffffffffffffffffffffff\n      and\n      0xccd8c9d5857ed509892cb6ba9a608f25fa4cfed016a475a02e39837f019461cc\n      mload(0x40)\n      mload(0x40)\n      dup1\n      swap2\n      sub\n      swap1\n      log2\n        /* \"contracts/NASICOIN.sol\":7306:7591  function cancelDeveloperChange() external onlyDeveloper {... */\n      jump\t// out\n        /* \"@openzeppelin/contracts/token/ERC20/ERC20.sol\":1779:1868  function name() public view virtual returns (string memory) {... */\n    tag_50:\n        /* \"@openzeppelin/contracts/token/ERC20/ERC20.sol\":1824:1837  string memory */\n      0x60\n        /* \"@openzeppelin/contracts/token/ERC20/ERC20.sol\":1856:1861  _name */\n      0x03\n        /* \"@openzeppelin/contracts/token/ERC20/ERC20.sol\":1849:1861  return _name */\n      dup1\n      sload\n      tag_149\n      swap1\n      tag_150\n      jump\t// in\n    tag_149:\n      dup1\n      0x1f\n      add\n      0x20\n      dup1\n      swap2\n      div\n      mul\n      0x20\n      add\n      mload(0x40)\n      swap1\n      dup2\n      add\n      0x40\n      mstore\n      dup1\n      swap3\n      swap2\n      swap1\n      dup2\n      dup2\n      mstore\n      0x20\n      add\n      dup3\n      dup1\n      sload\n      tag_151\n      swap1\n      tag_150\n      jump\t// in\n    tag_151:\n      dup1\n      iszero\n      tag_152\n      jumpi\n      dup1\n      0x1f\n      lt\n      tag_153\n      jumpi\n      0x0100\n      dup1\n      dup4\n      sload\n      div\n      mul\n      dup4\n      mstore\n      swap2\n      0x20\n      add\n      swap2\n      jump(tag_152)\n    tag_153:\n      dup3\n      add\n      swap2\n      swap1\n      0x00\n      mstore\n      keccak256(0x00, 0x20)\n      swap1\n    tag_154:\n      dup2\n      sload\n      dup2\n      mstore\n      swap1\n      0x01\n      add\n      swap1\n      0x20\n      add\n      dup1\n      dup4\n      gt\n      tag_154\n      jumpi\n      dup3\n      swap1\n      sub\n      0x1f\n      and\n      dup3\n      add\n      swap2\n    tag_152:\n      pop\n      pop\n      pop\n      pop\n      pop\n      swap1\n      pop\n        /* \"@openzeppelin/contracts/token/ERC20/ERC20.sol\":1779:1868  function name() public view virtual returns (string memory) {... */\n      swap1\n      jump\t// out\n        /* \"@openzeppelin/contracts/token/ERC20/ERC20.sol\":3998:4184  function approve(address spender, uint256 value) public virtual returns (bool) {... */\n    tag_56:\n        /* \"@openzeppelin/contracts/token/ERC20/ERC20.sol\":4071:4075  bool */\n      0x00\n        /* \"@openzeppelin/contracts/token/ERC20/ERC20.sol\":4087:4100  address owner */\n      0x00\n        /* \"@openzeppelin/contracts/token/ERC20/ERC20.sol\":4103:4115  _msgSender() */\n      tag_156\n        /* \"@openzeppelin/contracts/token/ERC20/ERC20.sol\":4103:4113  _msgSender */\n      tag_157\n        /* \"@openzeppelin/contracts/token/ERC20/ERC20.sol\":4103:4115  _msgSender() */\n      jump\t// in\n    tag_156:\n        /* \"@openzeppelin/contracts/token/ERC20/ERC20.sol\":4087:4115  address owner = _msgSender() */\n      swap1\n      pop\n        /* \"@openzeppelin/contracts/token/ERC20/ERC20.sol\":4125:4156  _approve(owner, spender, value) */\n      tag_158\n        /* \"@openzeppelin/contracts/token/ERC20/ERC20.sol\":4134:4139  owner */\n      dup2\n        /* \"@openzeppelin/contracts/token/ERC20/ERC20.sol\":4141:4148  spender */\n      dup6\n        /* \"@openzeppelin/contracts/token/ERC20/ERC20.sol\":4150:4155  value */\n      dup6\n        /* \"@openzeppelin/contracts/token/ERC20/ERC20.sol\":4125:4133  _approve */\n      tag_159\n        /* \"@openzeppelin/contracts/token/ERC20/ERC20.sol\":4125:4156  _approve(owner, spender, value) */\n      jump\t// in\n    tag_158:\n        /* \"@openzeppelin/contracts/token/ERC20/ERC20.sol\":4173:4177  true */\n      0x01\n        /* \"@openzeppelin/contracts/token/ERC20/ERC20.sol\":4166:4177  return true */\n      swap2\n      pop\n      pop\n        /* \"@openzeppelin/contracts/token/ERC20/ERC20.sol\":3998:4184  function approve(address spender, uint256 value) public virtual returns (bool) {... */\n      swap3\n      swap2\n      pop\n      pop\n      jump\t// out\n        /* \"@openzeppelin/contracts/token/ERC20/ERC20.sol\":2849:2946  function totalSupply() public view virtual returns (uint256) {... */\n    tag_60:\n        /* \"@openzeppelin/contracts/token/ERC20/ERC20.sol\":2901:2908  uint256 */\n      0x00\n        /* \"@openzeppelin/contracts/token/ERC20/ERC20.sol\":2927:2939  _totalSupply */\n      sload(0x02)\n        /* \"@openzeppelin/contracts/token/ERC20/ERC20.sol\":2920:2939  return _totalSupply */\n      swap1\n      pop\n        /* \"@openzeppelin/contracts/token/ERC20/ERC20.sol\":2849:2946  function totalSupply() public view virtual returns (uint256) {... */\n      swap1\n      jump\t// out\n        /* \"@openzeppelin/contracts/token/ERC20/ERC20.sol\":4776:5020  function transferFrom(address from, address to, uint256 value) public virtual returns (bool) {... */\n    tag_66:\n        /* \"@openzeppelin/contracts/token/ERC20/ERC20.sol\":4863:4867  bool */\n      0x00\n        /* \"@openzeppelin/contracts/token/ERC20/ERC20.sol\":4879:4894  address spender */\n      0x00\n        /* \"@openzeppelin/contracts/token/ERC20/ERC20.sol\":4897:4909  _msgSender() */\n      tag_162\n        /* \"@openzeppelin/contracts/token/ERC20/ERC20.sol\":4897:4907  _msgSender */\n      tag_157\n        /* \"@openzeppelin/contracts/token/ERC20/ERC20.sol\":4897:4909  _msgSender() */\n      jump\t// in\n    tag_162:\n        /* \"@openzeppelin/contracts/token/ERC20/ERC20.sol\":4879:4909  address spender = _msgSender() */\n      swap1\n      pop\n        /* \"@openzeppelin/contracts/token/ERC20/ERC20.sol\":4919:4956  _spendAllowance(from, spender, value) */\n      tag_163\n        /* \"@openzeppelin/contracts/token/ERC20/ERC20.sol\":4935:4939  from */\n      dup6\n        /* \"@openzeppelin/contracts/token/ERC20/ERC20.sol\":4941:4948  spender */\n      dup3\n        /* \"@openzeppelin/contracts/token/ERC20/ERC20.sol\":4950:4955  value */\n      dup6\n        /* \"@openzeppelin/contracts/token/ERC20/ERC20.sol\":4919:4934  _spendAllowance */\n      tag_164\n        /* \"@openzeppelin/contracts/token/ERC20/ERC20.sol\":4919:4956  _spendAllowance(from, spender, value) */\n      jump\t// in\n    tag_163:\n        /* \"@openzeppelin/contracts/token/ERC20/ERC20.sol\":4966:4992  _transfer(from, to, value) */\n      tag_165\n        /* \"@openzeppelin/contracts/token/ERC20/ERC20.sol\":4976:4980  from */\n      dup6\n        /* \"@openzeppelin/contracts/token/ERC20/ERC20.sol\":4982:4984  to */\n      dup6\n        /* \"@openzeppelin/contracts/token/ERC20/ERC20.sol\":4986:4991  value */\n      dup6\n        /* \"@openzeppelin/contracts/token/ERC20/ERC20.sol\":4966:4975  _transfer */\n      tag_166\n        /* \"@openzeppelin/contracts/token/ERC20/ERC20.sol\":4966:4992  _transfer(from, to, value) */\n      jump\t// in\n    tag_165:\n        /* \"@openzeppelin/contracts/token/ERC20/ERC20.sol\":5009:5013  true */\n      0x01\n        /* \"@openzeppelin/contracts/token/ERC20/ERC20.sol\":5002:5013  return true */\n      swap2\n      pop\n      pop\n        /* \"@openzeppelin/contracts/token/ERC20/ERC20.sol\":4776:5020  function transferFrom(address from, address to, uint256 value) public virtual returns (bool) {... */\n      swap4\n      swap3\n      pop\n      pop\n      pop\n      jump\t// out\n        /* \"contracts/NASICOIN.sol\":1192:1229  uint256 public ownerChangeRequestTime */\n    tag_69:\n      sload(0x0d)\n      dup2\n      jump\t// out\n        /* \"contracts/NASICOIN.sol\":599:650  uint256 public constant INITIAL_SUPPLY = 2 * 10**18 */\n    tag_72:\n        /* \"contracts/NASICOIN.sol\":640:650  2 * 10**18 */\n      0x1bc16d674ec80000\n        /* \"contracts/NASICOIN.sol\":599:650  uint256 public constant INITIAL_SUPPLY = 2 * 10**18 */\n      dup2\n      jump\t// out\n        /* \"contracts/NASICOIN.sol\":2382:2473  function decimals() public view virtual override returns (uint8) {... */\n    tag_75:\n        /* \"contracts/NASICOIN.sol\":2440:2445  uint8 */\n      0x00\n        /* \"contracts/NASICOIN.sol\":2464:2466  18 */\n      0x12\n        /* \"contracts/NASICOIN.sol\":2457:2466  return 18 */\n      swap1\n      pop\n        /* \"contracts/NASICOIN.sol\":2382:2473  function decimals() public view virtual override returns (uint8) {... */\n      swap1\n      jump\t// out\n        /* \"contracts/NASICOIN.sol\":5097:5261  function mint(address to, uint256 amount) external {... */\n    tag_80:\n        /* \"contracts/NASICOIN.sol\":5180:5192  vaultManager */\n      0x0a\n      0x00\n      swap1\n      sload\n      swap1\n      0x0100\n      exp\n      swap1\n      div\n      0xffffffffffffffffffffffffffffffffffffffff\n      and\n        /* \"contracts/NASICOIN.sol\":5166:5192  msg.sender == vaultManager */\n      0xffffffffffffffffffffffffffffffffffffffff\n      and\n        /* \"contracts/NASICOIN.sol\":5166:5176  msg.sender */\n      caller\n        /* \"contracts/NASICOIN.sol\":5166:5192  msg.sender == vaultManager */\n      0xffffffffffffffffffffffffffffffffffffffff\n      and\n      eq\n        /* \"contracts/NASICOIN.sol\":5158:5227  require(msg.sender == vaultManager, \"Caller is not the VaultManager\") */\n      tag_169\n      jumpi\n      mload(0x40)\n      0x08c379a000000000000000000000000000000000000000000000000000000000\n      dup2\n      mstore\n      0x04\n      add\n      tag_170\n      swap1\n      tag_171\n      jump\t// in\n    tag_170:\n      mload(0x40)\n      dup1\n      swap2\n      sub\n      swap1\n      revert\n    tag_169:\n        /* \"contracts/NASICOIN.sol\":5237:5254  _mint(to, amount) */\n      tag_172\n        /* \"contracts/NASICOIN.sol\":5243:5245  to */\n      dup3\n        /* \"contracts/NASICOIN.sol\":5247:5253  amount */\n      dup3\n        /* \"contracts/NASICOIN.sol\":5237:5242  _mint */\n      tag_173\n        /* \"contracts/NASICOIN.sol\":5237:5254  _mint(to, amount) */\n      jump\t// in\n    tag_172:\n        /* \"contracts/NASICOIN.sol\":5097:5261  function mint(address to, uint256 amount) external {... */\n      pop\n      pop\n      jump\t// out\n        /* \"contracts/NASICOIN.sol\":4417:4529  function getUserBalance(address user) external view returns (uint256) {... */\n    tag_84:\n        /* \"contracts/NASICOIN.sol\":4478:4485  uint256 */\n      0x00\n        /* \"contracts/NASICOIN.sol\":4504:4516  userBalances */\n      0x07\n        /* \"contracts/NASICOIN.sol\":4504:4522  userBalances[user] */\n      0x00\n        /* \"contracts/NASICOIN.sol\":4517:4521  user */\n      dup4\n        /* \"contracts/NASICOIN.sol\":4504:4522  userBalances[user] */\n      0xffffffffffffffffffffffffffffffffffffffff\n      and\n      0xffffffffffffffffffffffffffffffffffffffff\n      and\n      dup2\n      mstore\n      0x20\n      add\n      swap1\n      dup2\n      mstore\n      0x20\n      add\n      0x00\n      keccak256\n      sload\n        /* \"contracts/NASICOIN.sol\":4497:4522  return userBalances[user] */\n      swap1\n      pop\n        /* \"contracts/NASICOIN.sol\":4417:4529  function getUserBalance(address user) external view returns (uint256) {... */\n      swap2\n      swap1\n      pop\n      jump\t// out\n        /* \"@openzeppelin/contracts/token/ERC20/ERC20.sol\":3004:3120  function balanceOf(address account) public view virtual returns (uint256) {... */\n    tag_88:\n        /* \"@openzeppelin/contracts/token/ERC20/ERC20.sol\":3069:3076  uint256 */\n      0x00\n        /* \"@openzeppelin/contracts/token/ERC20/ERC20.sol\":3095:3104  _balances */\n      0x00\n        /* \"@openzeppelin/contracts/token/ERC20/ERC20.sol\":3095:3113  _balances[account] */\n      0x00\n        /* \"@openzeppelin/contracts/token/ERC20/ERC20.sol\":3105:3112  account */\n      dup4\n        /* \"@openzeppelin/contracts/token/ERC20/ERC20.sol\":3095:3113  _balances[account] */\n      0xffffffffffffffffffffffffffffffffffffffff\n      and\n      0xffffffffffffffffffffffffffffffffffffffff\n      and\n      dup2\n      mstore\n      0x20\n      add\n      swap1\n      dup2\n      mstore\n      0x20\n      add\n      0x00\n      keccak256\n      sload\n        /* \"@openzeppelin/contracts/token/ERC20/ERC20.sol\":3088:3113  return _balances[account] */\n      swap1\n      pop\n        /* \"@openzeppelin/contracts/token/ERC20/ERC20.sol\":3004:3120  function balanceOf(address account) public view virtual returns (uint256) {... */\n      swap2\n      swap1\n      pop\n      jump\t// out\n        /* \"@openzeppelin/contracts/access/Ownable.sol\":2293:2394  function renounceOwnership() public virtual onlyOwner {... */\n    tag_91:\n        /* \"@openzeppelin/contracts/access/Ownable.sol\":1531:1544  _checkOwner() */\n      tag_177\n        /* \"@openzeppelin/contracts/access/Ownable.sol\":1531:1542  _checkOwner */\n      tag_178\n        /* \"@openzeppelin/contracts/access/Ownable.sol\":1531:1544  _checkOwner() */\n      jump\t// in\n    tag_177:\n        /* \"@openzeppelin/contracts/access/Ownable.sol\":2357:2387  _transferOwnership(address(0)) */\n      tag_180\n        /* \"@openzeppelin/contracts/access/Ownable.sol\":2384:2385  0 */\n      0x00\n        /* \"@openzeppelin/contracts/access/Ownable.sol\":2357:2375  _transferOwnership */\n      tag_181\n        /* \"@openzeppelin/contracts/access/Ownable.sol\":2357:2387  _transferOwnership(address(0)) */\n      jump\t// in\n    tag_180:\n        /* \"@openzeppelin/contracts/access/Ownable.sol\":2293:2394  function renounceOwnership() public virtual onlyOwner {... */\n      jump\t// out\n        /* \"contracts/NASICOIN.sol\":5833:6090  function cancelOwnerChange() external onlyOwner {... */\n    tag_93:\n        /* \"@openzeppelin/contracts/access/Ownable.sol\":1531:1544  _checkOwner() */\n      tag_183\n        /* \"@openzeppelin/contracts/access/Ownable.sol\":1531:1542  _checkOwner */\n      tag_178\n        /* \"@openzeppelin/contracts/access/Ownable.sol\":1531:1544  _checkOwner() */\n      jump\t// in\n    tag_183:\n        /* \"contracts/NASICOIN.sol\":5924:5925  0 */\n      0x00\n        /* \"contracts/NASICOIN.sol\":5899:5921  ownerChangeRequestTime */\n      sload(0x0d)\n        /* \"contracts/NASICOIN.sol\":5899:5925  ownerChangeRequestTime > 0 */\n      gt\n        /* \"contracts/NASICOIN.sol\":5891:5961  require(ownerChangeRequestTime > 0, \"No owner change request pending\") */\n      tag_185\n      jumpi\n      mload(0x40)\n      0x08c379a000000000000000000000000000000000000000000000000000000000\n      dup2\n      mstore\n      0x04\n      add\n      tag_186\n      swap1\n      tag_187\n      jump\t// in\n    tag_186:\n      mload(0x40)\n      dup1\n      swap2\n      sub\n      swap1\n      revert\n    tag_185:\n        /* \"contracts/NASICOIN.sol\":5998:5999  0 */\n      0x00\n        /* \"contracts/NASICOIN.sol\":5972:5987  pendingNewOwner */\n      0x0b\n      0x00\n        /* \"contracts/NASICOIN.sol\":5972:6000  pendingNewOwner = address(0) */\n      0x0100\n      exp\n      dup2\n      sload\n      dup2\n      0xffffffffffffffffffffffffffffffffffffffff\n      mul\n      not\n      and\n      swap1\n      dup4\n      0xffffffffffffffffffffffffffffffffffffffff\n      and\n      mul\n      or\n      swap1\n      sstore\n      pop\n        /* \"contracts/NASICOIN.sol\":6035:6036  0 */\n      0x00\n        /* \"contracts/NASICOIN.sol\":6010:6032  ownerChangeRequestTime */\n      0x0d\n        /* \"contracts/NASICOIN.sol\":6010:6036  ownerChangeRequestTime = 0 */\n      dup2\n      swap1\n      sstore\n      pop\n        /* \"contracts/NASICOIN.sol\":6072:6082  msg.sender */\n      caller\n        /* \"contracts/NASICOIN.sol\":6052:6083  OwnerChangeCanceled(msg.sender) */\n      0xffffffffffffffffffffffffffffffffffffffff\n      and\n      0x71929bfc41c49ae5e05a53003b97907866c902f9807734ce3a0507bfdae425f9\n      mload(0x40)\n      mload(0x40)\n      dup1\n      swap2\n      sub\n      swap1\n      log2\n        /* \"contracts/NASICOIN.sol\":5833:6090  function cancelOwnerChange() external onlyOwner {... */\n      jump\t// out\n        /* \"contracts/NASICOIN.sol\":1042:1069  address public vaultManager */\n    tag_95:\n      0x0a\n      0x00\n      swap1\n      sload\n      swap1\n      0x0100\n      exp\n      swap1\n      div\n      0xffffffffffffffffffffffffffffffffffffffff\n      and\n      dup2\n      jump\t// out\n        /* \"@openzeppelin/contracts/access/Ownable.sol\":1638:1723  function owner() public view virtual returns (address) {... */\n    tag_98:\n        /* \"@openzeppelin/contracts/access/Ownable.sol\":1684:1691  address */\n      0x00\n        /* \"@openzeppelin/contracts/access/Ownable.sol\":1710:1716  _owner */\n      0x05\n      0x00\n      swap1\n      sload\n      swap1\n      0x0100\n      exp\n      swap1\n      div\n      0xffffffffffffffffffffffffffffffffffffffff\n      and\n        /* \"@openzeppelin/contracts/access/Ownable.sol\":1703:1716  return _owner */\n      swap1\n      pop\n        /* \"@openzeppelin/contracts/access/Ownable.sol\":1638:1723  function owner() public view virtual returns (address) {... */\n      swap1\n      jump\t// out\n        /* \"@openzeppelin/contracts/token/ERC20/ERC20.sol\":1981:2074  function symbol() public view virtual returns (string memory) {... */\n    tag_101:\n        /* \"@openzeppelin/contracts/token/ERC20/ERC20.sol\":2028:2041  string memory */\n      0x60\n        /* \"@openzeppelin/contracts/token/ERC20/ERC20.sol\":2060:2067  _symbol */\n      0x04\n        /* \"@openzeppelin/contracts/token/ERC20/ERC20.sol\":2053:2067  return _symbol */\n      dup1\n      sload\n      tag_190\n      swap1\n      tag_150\n      jump\t// in\n    tag_190:\n      dup1\n      0x1f\n      add\n      0x20\n      dup1\n      swap2\n      div\n      mul\n      0x20\n      add\n      mload(0x40)\n      swap1\n      dup2\n      add\n      0x40\n      mstore\n      dup1\n      swap3\n      swap2\n      swap1\n      dup2\n      dup2\n      mstore\n      0x20\n      add\n      dup3\n      dup1\n      sload\n      tag_191\n      swap1\n      tag_150\n      jump\t// in\n    tag_191:\n      dup1\n      iszero\n      tag_192\n      jumpi\n      dup1\n      0x1f\n      lt\n      tag_193\n      jumpi\n      0x0100\n      dup1\n      dup4\n      sload\n      div\n      mul\n      dup4\n      mstore\n      swap2\n      0x20\n      add\n      swap2\n      jump(tag_192)\n    tag_193:\n      dup3\n      add\n      swap2\n      swap1\n      0x00\n      mstore\n      keccak256(0x00, 0x20)\n      swap1\n    tag_194:\n      dup2\n      sload\n      dup2\n      mstore\n      swap1\n      0x01\n      add\n      swap1\n      0x20\n      add\n      dup1\n      dup4\n      gt\n      tag_194\n      jumpi\n      dup3\n      swap1\n      sub\n      0x1f\n      and\n      dup3\n      add\n      swap2\n    tag_192:\n      pop\n      pop\n      pop\n      pop\n      pop\n      swap1\n      pop\n        /* \"@openzeppelin/contracts/token/ERC20/ERC20.sol\":1981:2074  function symbol() public view virtual returns (string memory) {... */\n      swap1\n      jump\t// out\n        /* \"contracts/NASICOIN.sol\":6810:7232  function requestDeveloperChange(address _newDeveloper) external onlyOwner {... */\n    tag_105:\n        /* \"@openzeppelin/contracts/access/Ownable.sol\":1531:1544  _checkOwner() */\n      tag_196\n        /* \"@openzeppelin/contracts/access/Ownable.sol\":1531:1542  _checkOwner */\n      tag_178\n        /* \"@openzeppelin/contracts/access/Ownable.sol\":1531:1544  _checkOwner() */\n      jump\t// in\n    tag_196:\n        /* \"contracts/NASICOIN.sol\":6927:6928  0 */\n      0x00\n        /* \"contracts/NASICOIN.sol\":6902:6929  _newDeveloper != address(0) */\n      0xffffffffffffffffffffffffffffffffffffffff\n      and\n        /* \"contracts/NASICOIN.sol\":6902:6915  _newDeveloper */\n      dup2\n        /* \"contracts/NASICOIN.sol\":6902:6929  _newDeveloper != address(0) */\n      0xffffffffffffffffffffffffffffffffffffffff\n      and\n      sub\n        /* \"contracts/NASICOIN.sol\":6894:6970  require(_newDeveloper != address(0), \"New developer cannot be zero address\") */\n      tag_198\n      jumpi\n      mload(0x40)\n      0x08c379a000000000000000000000000000000000000000000000000000000000\n      dup2\n      mstore\n      0x04\n      add\n      tag_199\n      swap1\n      tag_200\n      jump\t// in\n    tag_199:\n      mload(0x40)\n      dup1\n      swap2\n      sub\n      swap1\n      revert\n    tag_198:\n        /* \"contracts/NASICOIN.sol\":7018:7019  0 */\n      0x00\n        /* \"contracts/NASICOIN.sol\":6988:7014  developerChangeRequestTime */\n      sload(0x0e)\n        /* \"contracts/NASICOIN.sol\":6988:7019  developerChangeRequestTime == 0 */\n      eq\n        /* \"contracts/NASICOIN.sol\":6980:7058  require(developerChangeRequestTime == 0, \"Developer change already requested\") */\n      tag_201\n      jumpi\n      mload(0x40)\n      0x08c379a000000000000000000000000000000000000000000000000000000000\n      dup2\n      mstore\n      0x04\n      add\n      tag_202\n      swap1\n      tag_203\n      jump\t// in\n    tag_202:\n      mload(0x40)\n      dup1\n      swap2\n      sub\n      swap1\n      revert\n    tag_201:\n        /* \"contracts/NASICOIN.sol\":7091:7104  _newDeveloper */\n      dup1\n        /* \"contracts/NASICOIN.sol\":7069:7088  pendingNewDeveloper */\n      0x0c\n      0x00\n        /* \"contracts/NASICOIN.sol\":7069:7104  pendingNewDeveloper = _newDeveloper */\n      0x0100\n      exp\n      dup2\n      sload\n      dup2\n      0xffffffffffffffffffffffffffffffffffffffff\n      mul\n      not\n      and\n      swap1\n      dup4\n      0xffffffffffffffffffffffffffffffffffffffff\n      and\n      mul\n      or\n      swap1\n      sstore\n      pop\n        /* \"contracts/NASICOIN.sol\":7143:7158  block.timestamp */\n      timestamp\n        /* \"contracts/NASICOIN.sol\":7114:7140  developerChangeRequestTime */\n      0x0e\n        /* \"contracts/NASICOIN.sol\":7114:7158  developerChangeRequestTime = block.timestamp */\n      dup2\n      swap1\n      sstore\n      pop\n        /* \"contracts/NASICOIN.sol\":7211:7224  _newDeveloper */\n      dup1\n        /* \"contracts/NASICOIN.sol\":7174:7225  DeveloperChangeRequested(msg.sender, _newDeveloper) */\n      0xffffffffffffffffffffffffffffffffffffffff\n      and\n        /* \"contracts/NASICOIN.sol\":7199:7209  msg.sender */\n      caller\n        /* \"contracts/NASICOIN.sol\":7174:7225  DeveloperChangeRequested(msg.sender, _newDeveloper) */\n      0xffffffffffffffffffffffffffffffffffffffff\n      and\n      0x11d251823298414f86a55ee989c577145357724264d4f6d10632f865a55488fb\n      mload(0x40)\n      mload(0x40)\n      dup1\n      swap2\n      sub\n      swap1\n      log3\n        /* \"contracts/NASICOIN.sol\":6810:7232  function requestDeveloperChange(address _newDeveloper) external onlyOwner {... */\n      pop\n      jump\t// out\n        /* \"contracts/NASICOIN.sol\":7682:8225  function finalizeDeveloperChange() external onlyOwner {... */\n    tag_107:\n        /* \"@openzeppelin/contracts/access/Ownable.sol\":1531:1544  _checkOwner() */\n      tag_205\n        /* \"@openzeppelin/contracts/access/Ownable.sol\":1531:1542  _checkOwner */\n      tag_178\n        /* \"@openzeppelin/contracts/access/Ownable.sol\":1531:1544  _checkOwner() */\n      jump\t// in\n    tag_205:\n        /* \"contracts/NASICOIN.sol\":7783:7784  0 */\n      0x00\n        /* \"contracts/NASICOIN.sol\":7754:7780  developerChangeRequestTime */\n      sload(0x0e)\n        /* \"contracts/NASICOIN.sol\":7754:7784  developerChangeRequestTime > 0 */\n      gt\n        /* \"contracts/NASICOIN.sol\":7746:7824  require(developerChangeRequestTime > 0, \"No developer change request pending\") */\n      tag_207\n      jumpi\n      mload(0x40)\n      0x08c379a000000000000000000000000000000000000000000000000000000000\n      dup2\n      mstore\n      0x04\n      add\n      tag_208\n      swap1\n      tag_147\n      jump\t// in\n    tag_208:\n      mload(0x40)\n      dup1\n      swap2\n      sub\n      swap1\n      revert\n    tag_207:\n        /* \"contracts/NASICOIN.sol\":1331:1338  90 days */\n      0x76a700\n        /* \"contracts/NASICOIN.sol\":7861:7887  developerChangeRequestTime */\n      sload(0x0e)\n        /* \"contracts/NASICOIN.sol\":7861:7910  developerChangeRequestTime + CHANGE_REQUEST_DELAY */\n      tag_209\n      swap2\n      swap1\n      tag_210\n      jump\t// in\n    tag_209:\n        /* \"contracts/NASICOIN.sol\":7842:7857  block.timestamp */\n      timestamp\n        /* \"contracts/NASICOIN.sol\":7842:7910  block.timestamp >= developerChangeRequestTime + CHANGE_REQUEST_DELAY */\n      lt\n      iszero\n        /* \"contracts/NASICOIN.sol\":7834:7945  require(block.timestamp >= developerChangeRequestTime + CHANGE_REQUEST_DELAY, \"Developer change delay not met\") */\n      tag_211\n      jumpi\n      mload(0x40)\n      0x08c379a000000000000000000000000000000000000000000000000000000000\n      dup2\n      mstore\n      0x04\n      add\n      tag_212\n      swap1\n      tag_213\n      jump\t// in\n    tag_212:\n      mload(0x40)\n      dup1\n      swap2\n      sub\n      swap1\n      revert\n    tag_211:\n        /* \"contracts/NASICOIN.sol\":7956:7976  address oldDeveloper */\n      0x00\n        /* \"contracts/NASICOIN.sol\":7979:7988  developer */\n      0x09\n      0x00\n      swap1\n      sload\n      swap1\n      0x0100\n      exp\n      swap1\n      div\n      0xffffffffffffffffffffffffffffffffffffffff\n      and\n        /* \"contracts/NASICOIN.sol\":7956:7988  address oldDeveloper = developer */\n      swap1\n      pop\n        /* \"contracts/NASICOIN.sol\":7998:8018  address newDeveloper */\n      0x00\n        /* \"contracts/NASICOIN.sol\":8021:8040  pendingNewDeveloper */\n      0x0c\n      0x00\n      swap1\n      sload\n      swap1\n      0x0100\n      exp\n      swap1\n      div\n      0xffffffffffffffffffffffffffffffffffffffff\n      and\n        /* \"contracts/NASICOIN.sol\":7998:8040  address newDeveloper = pendingNewDeveloper */\n      swap1\n      pop\n        /* \"contracts/NASICOIN.sol\":8063:8075  newDeveloper */\n      dup1\n        /* \"contracts/NASICOIN.sol\":8051:8060  developer */\n      0x09\n      0x00\n        /* \"contracts/NASICOIN.sol\":8051:8075  developer = newDeveloper */\n      0x0100\n      exp\n      dup2\n      sload\n      dup2\n      0xffffffffffffffffffffffffffffffffffffffff\n      mul\n      not\n      and\n      swap1\n      dup4\n      0xffffffffffffffffffffffffffffffffffffffff\n      and\n      mul\n      or\n      swap1\n      sstore\n      pop\n        /* \"contracts/NASICOIN.sol\":8116:8117  0 */\n      0x00\n        /* \"contracts/NASICOIN.sol\":8086:8105  pendingNewDeveloper */\n      0x0c\n      0x00\n        /* \"contracts/NASICOIN.sol\":8086:8118  pendingNewDeveloper = address(0) */\n      0x0100\n      exp\n      dup2\n      sload\n      dup2\n      0xffffffffffffffffffffffffffffffffffffffff\n      mul\n      not\n      and\n      swap1\n      dup4\n      0xffffffffffffffffffffffffffffffffffffffff\n      and\n      mul\n      or\n      swap1\n      sstore\n      pop\n        /* \"contracts/NASICOIN.sol\":8157:8158  0 */\n      0x00\n        /* \"contracts/NASICOIN.sol\":8128:8154  developerChangeRequestTime */\n      0x0e\n        /* \"contracts/NASICOIN.sol\":8128:8158  developerChangeRequestTime = 0 */\n      dup2\n      swap1\n      sstore\n      pop\n        /* \"contracts/NASICOIN.sol\":8205:8217  newDeveloper */\n      dup1\n        /* \"contracts/NASICOIN.sol\":8174:8218  DeveloperChanged(oldDeveloper, newDeveloper) */\n      0xffffffffffffffffffffffffffffffffffffffff\n      and\n        /* \"contracts/NASICOIN.sol\":8191:8203  oldDeveloper */\n      dup3\n        /* \"contracts/NASICOIN.sol\":8174:8218  DeveloperChanged(oldDeveloper, newDeveloper) */\n      0xffffffffffffffffffffffffffffffffffffffff\n      and\n      0xe823578be672ebcfc6a23fce5293a8769dd2449c1ae45d769b8ba0fc3435625f\n      mload(0x40)\n      mload(0x40)\n      dup1\n      swap2\n      sub\n      swap1\n      log3\n        /* \"contracts/NASICOIN.sol\":7736:8225  {... */\n      pop\n      pop\n        /* \"contracts/NASICOIN.sol\":7682:8225  function finalizeDeveloperChange() external onlyOwner {... */\n      jump\t// out\n        /* \"contracts/NASICOIN.sol\":5381:5763  function requestOwnerChange(address _newOwner) external onlyDeveloper {... */\n    tag_110:\n        /* \"contracts/NASICOIN.sol\":2624:2633  developer */\n      0x09\n      0x00\n      swap1\n      sload\n      swap1\n      0x0100\n      exp\n      swap1\n      div\n      0xffffffffffffffffffffffffffffffffffffffff\n      and\n        /* \"contracts/NASICOIN.sol\":2610:2633  msg.sender == developer */\n      0xffffffffffffffffffffffffffffffffffffffff\n      and\n        /* \"contracts/NASICOIN.sol\":2610:2620  msg.sender */\n      caller\n        /* \"contracts/NASICOIN.sol\":2610:2633  msg.sender == developer */\n      0xffffffffffffffffffffffffffffffffffffffff\n      and\n      eq\n        /* \"contracts/NASICOIN.sol\":2602:2665  require(msg.sender == developer, \"Caller is not the developer\") */\n      tag_215\n      jumpi\n      mload(0x40)\n      0x08c379a000000000000000000000000000000000000000000000000000000000\n      dup2\n      mstore\n      0x04\n      add\n      tag_216\n      swap1\n      tag_143\n      jump\t// in\n    tag_216:\n      mload(0x40)\n      dup1\n      swap2\n      sub\n      swap1\n      revert\n    tag_215:\n        /* \"contracts/NASICOIN.sol\":5490:5491  0 */\n      0x00\n        /* \"contracts/NASICOIN.sol\":5469:5492  _newOwner != address(0) */\n      0xffffffffffffffffffffffffffffffffffffffff\n      and\n        /* \"contracts/NASICOIN.sol\":5469:5478  _newOwner */\n      dup2\n        /* \"contracts/NASICOIN.sol\":5469:5492  _newOwner != address(0) */\n      0xffffffffffffffffffffffffffffffffffffffff\n      and\n      sub\n        /* \"contracts/NASICOIN.sol\":5461:5529  require(_newOwner != address(0), \"New owner cannot be zero address\") */\n      tag_218\n      jumpi\n      mload(0x40)\n      0x08c379a000000000000000000000000000000000000000000000000000000000\n      dup2\n      mstore\n      0x04\n      add\n      tag_219\n      swap1\n      tag_220\n      jump\t// in\n    tag_219:\n      mload(0x40)\n      dup1\n      swap2\n      sub\n      swap1\n      revert\n    tag_218:\n        /* \"contracts/NASICOIN.sol\":5573:5574  0 */\n      0x00\n        /* \"contracts/NASICOIN.sol\":5547:5569  ownerChangeRequestTime */\n      sload(0x0d)\n        /* \"contracts/NASICOIN.sol\":5547:5574  ownerChangeRequestTime == 0 */\n      eq\n        /* \"contracts/NASICOIN.sol\":5539:5609  require(ownerChangeRequestTime == 0, \"Owner change already requested\") */\n      tag_221\n      jumpi\n      mload(0x40)\n      0x08c379a000000000000000000000000000000000000000000000000000000000\n      dup2\n      mstore\n      0x04\n      add\n      tag_222\n      swap1\n      tag_223\n      jump\t// in\n    tag_222:\n      mload(0x40)\n      dup1\n      swap2\n      sub\n      swap1\n      revert\n    tag_221:\n        /* \"contracts/NASICOIN.sol\":5638:5647  _newOwner */\n      dup1\n        /* \"contracts/NASICOIN.sol\":5620:5635  pendingNewOwner */\n      0x0b\n      0x00\n        /* \"contracts/NASICOIN.sol\":5620:5647  pendingNewOwner = _newOwner */\n      0x0100\n      exp\n      dup2\n      sload\n      dup2\n      0xffffffffffffffffffffffffffffffffffffffff\n      mul\n      not\n      and\n      swap1\n      dup4\n      0xffffffffffffffffffffffffffffffffffffffff\n      and\n      mul\n      or\n      swap1\n      sstore\n      pop\n        /* \"contracts/NASICOIN.sol\":5682:5697  block.timestamp */\n      timestamp\n        /* \"contracts/NASICOIN.sol\":5657:5679  ownerChangeRequestTime */\n      0x0d\n        /* \"contracts/NASICOIN.sol\":5657:5697  ownerChangeRequestTime = block.timestamp */\n      dup2\n      swap1\n      sstore\n      pop\n        /* \"contracts/NASICOIN.sol\":5746:5755  _newOwner */\n      dup1\n        /* \"contracts/NASICOIN.sol\":5713:5756  OwnerChangeRequested(msg.sender, _newOwner) */\n      0xffffffffffffffffffffffffffffffffffffffff\n      and\n        /* \"contracts/NASICOIN.sol\":5734:5744  msg.sender */\n      caller\n        /* \"contracts/NASICOIN.sol\":5713:5756  OwnerChangeRequested(msg.sender, _newOwner) */\n      0xffffffffffffffffffffffffffffffffffffffff\n      and\n      0xe4d82e46d7a4a49d024ed3cdf35530213f02413245e7bf0d20121174c089e0d2\n      mload(0x40)\n      mload(0x40)\n      dup1\n      swap2\n      sub\n      swap1\n      log3\n        /* \"contracts/NASICOIN.sol\":5381:5763  function requestOwnerChange(address _newOwner) external onlyDeveloper {... */\n      pop\n      jump\t// out\n        /* \"@openzeppelin/contracts/token/ERC20/ERC20.sol\":3315:3493  function transfer(address to, uint256 value) public virtual returns (bool) {... */\n    tag_113:\n        /* \"@openzeppelin/contracts/token/ERC20/ERC20.sol\":3384:3388  bool */\n      0x00\n        /* \"@openzeppelin/contracts/token/ERC20/ERC20.sol\":3400:3413  address owner */\n      0x00\n        /* \"@openzeppelin/contracts/token/ERC20/ERC20.sol\":3416:3428  _msgSender() */\n      tag_225\n        /* \"@openzeppelin/contracts/token/ERC20/ERC20.sol\":3416:3426  _msgSender */\n      tag_157\n        /* \"@openzeppelin/contracts/token/ERC20/ERC20.sol\":3416:3428  _msgSender() */\n      jump\t// in\n    tag_225:\n        /* \"@openzeppelin/contracts/token/ERC20/ERC20.sol\":3400:3428  address owner = _msgSender() */\n      swap1\n      pop\n        /* \"@openzeppelin/contracts/token/ERC20/ERC20.sol\":3438:3465  _transfer(owner, to, value) */\n      tag_226\n        /* \"@openzeppelin/contracts/token/ERC20/ERC20.sol\":3448:3453  owner */\n      dup2\n        /* \"@openzeppelin/contracts/token/ERC20/ERC20.sol\":3455:3457  to */\n      dup6\n        /* \"@openzeppelin/contracts/token/ERC20/ERC20.sol\":3459:3464  value */\n      dup6\n        /* \"@openzeppelin/contracts/token/ERC20/ERC20.sol\":3438:3447  _transfer */\n      tag_166\n        /* \"@openzeppelin/contracts/token/ERC20/ERC20.sol\":3438:3465  _transfer(owner, to, value) */\n      jump\t// in\n    tag_226:\n        /* \"@openzeppelin/contracts/token/ERC20/ERC20.sol\":3482:3486  true */\n      0x01\n        /* \"@openzeppelin/contracts/token/ERC20/ERC20.sol\":3475:3486  return true */\n      swap2\n      pop\n      pop\n        /* \"@openzeppelin/contracts/token/ERC20/ERC20.sol\":3315:3493  function transfer(address to, uint256 value) public virtual returns (bool) {... */\n      swap3\n      swap2\n      pop\n      pop\n      jump\t// out\n        /* \"contracts/NASICOIN.sol\":4681:4878  function setVaultManager(address _vaultManager) external onlyOwner {... */\n    tag_117:\n        /* \"@openzeppelin/contracts/access/Ownable.sol\":1531:1544  _checkOwner() */\n      tag_228\n        /* \"@openzeppelin/contracts/access/Ownable.sol\":1531:1542  _checkOwner */\n      tag_178\n        /* \"@openzeppelin/contracts/access/Ownable.sol\":1531:1544  _checkOwner() */\n      jump\t// in\n    tag_228:\n        /* \"contracts/NASICOIN.sol\":4791:4792  0 */\n      0x00\n        /* \"contracts/NASICOIN.sol\":4766:4793  _vaultManager != address(0) */\n      0xffffffffffffffffffffffffffffffffffffffff\n      and\n        /* \"contracts/NASICOIN.sol\":4766:4779  _vaultManager */\n      dup2\n        /* \"contracts/NASICOIN.sol\":4766:4793  _vaultManager != address(0) */\n      0xffffffffffffffffffffffffffffffffffffffff\n      and\n      sub\n        /* \"contracts/NASICOIN.sol\":4758:4833  require(_vaultManager != address(0), \"VaultManager address cannot be zero\") */\n      tag_230\n      jumpi\n      mload(0x40)\n      0x08c379a000000000000000000000000000000000000000000000000000000000\n      dup2\n      mstore\n      0x04\n      add\n      tag_231\n      swap1\n      tag_232\n      jump\t// in\n    tag_231:\n      mload(0x40)\n      dup1\n      swap2\n      sub\n      swap1\n      revert\n    tag_230:\n        /* \"contracts/NASICOIN.sol\":4858:4871  _vaultManager */\n      dup1\n        /* \"contracts/NASICOIN.sol\":4843:4855  vaultManager */\n      0x0a\n      0x00\n        /* \"contracts/NASICOIN.sol\":4843:4871  vaultManager = _vaultManager */\n      0x0100\n      exp\n      dup2\n      sload\n      dup2\n      0xffffffffffffffffffffffffffffffffffffffff\n      mul\n      not\n      and\n      swap1\n      dup4\n      0xffffffffffffffffffffffffffffffffffffffff\n      and\n      mul\n      or\n      swap1\n      sstore\n      pop\n        /* \"contracts/NASICOIN.sol\":4681:4878  function setVaultManager(address _vaultManager) external onlyOwner {... */\n      pop\n      jump\t// out\n        /* \"contracts/NASICOIN.sol\":1151:1185  address public pendingNewDeveloper */\n    tag_119:\n      0x0c\n      0x00\n      swap1\n      sload\n      swap1\n      0x0100\n      exp\n      swap1\n      div\n      0xffffffffffffffffffffffffffffffffffffffff\n      and\n      dup2\n      jump\t// out\n        /* \"contracts/NASICOIN.sol\":984:1008  address public developer */\n    tag_122:\n      0x09\n      0x00\n      swap1\n      sload\n      swap1\n      0x0100\n      exp\n      swap1\n      div\n      0xffffffffffffffffffffffffffffffffffffffff\n      and\n      dup2\n      jump\t// out\n        /* \"@openzeppelin/contracts/token/ERC20/ERC20.sol\":3551:3691  function allowance(address owner, address spender) public view virtual returns (uint256) {... */\n    tag_127:\n        /* \"@openzeppelin/contracts/token/ERC20/ERC20.sol\":3631:3638  uint256 */\n      0x00\n        /* \"@openzeppelin/contracts/token/ERC20/ERC20.sol\":3657:3668  _allowances */\n      0x01\n        /* \"@openzeppelin/contracts/token/ERC20/ERC20.sol\":3657:3675  _allowances[owner] */\n      0x00\n        /* \"@openzeppelin/contracts/token/ERC20/ERC20.sol\":3669:3674  owner */\n      dup5\n        /* \"@openzeppelin/contracts/token/ERC20/ERC20.sol\":3657:3675  _allowances[owner] */\n      0xffffffffffffffffffffffffffffffffffffffff\n      and\n      0xffffffffffffffffffffffffffffffffffffffff\n      and\n      dup2\n      mstore\n      0x20\n      add\n      swap1\n      dup2\n      mstore\n      0x20\n      add\n      0x00\n      keccak256\n        /* \"@openzeppelin/contracts/token/ERC20/ERC20.sol\":3657:3684  _allowances[owner][spender] */\n      0x00\n        /* \"@openzeppelin/contracts/token/ERC20/ERC20.sol\":3676:3683  spender */\n      dup4\n        /* \"@openzeppelin/contracts/token/ERC20/ERC20.sol\":3657:3684  _allowances[owner][spender] */\n      0xffffffffffffffffffffffffffffffffffffffff\n      and\n      0xffffffffffffffffffffffffffffffffffffffff\n      and\n      dup2\n      mstore\n      0x20\n      add\n      swap1\n      dup2\n      mstore\n      0x20\n      add\n      0x00\n      keccak256\n      sload\n        /* \"@openzeppelin/contracts/token/ERC20/ERC20.sol\":3650:3684  return _allowances[owner][spender] */\n      swap1\n      pop\n        /* \"@openzeppelin/contracts/token/ERC20/ERC20.sol\":3551:3691  function allowance(address owner, address spender) public view virtual returns (uint256) {... */\n      swap3\n      swap2\n      pop\n      pop\n      jump\t// out\n        /* \"contracts/NASICOIN.sol\":6177:6682  function finalizeOwnerChange() external onlyDeveloper {... */\n    tag_130:\n        /* \"contracts/NASICOIN.sol\":2624:2633  developer */\n      0x09\n      0x00\n      swap1\n      sload\n      swap1\n      0x0100\n      exp\n      swap1\n      div\n      0xffffffffffffffffffffffffffffffffffffffff\n      and\n        /* \"contracts/NASICOIN.sol\":2610:2633  msg.sender == developer */\n      0xffffffffffffffffffffffffffffffffffffffff\n      and\n        /* \"contracts/NASICOIN.sol\":2610:2620  msg.sender */\n      caller\n        /* \"contracts/NASICOIN.sol\":2610:2633  msg.sender == developer */\n      0xffffffffffffffffffffffffffffffffffffffff\n      and\n      eq\n        /* \"contracts/NASICOIN.sol\":2602:2665  require(msg.sender == developer, \"Caller is not the developer\") */\n      tag_235\n      jumpi\n      mload(0x40)\n      0x08c379a000000000000000000000000000000000000000000000000000000000\n      dup2\n      mstore\n      0x04\n      add\n      tag_236\n      swap1\n      tag_143\n      jump\t// in\n    tag_236:\n      mload(0x40)\n      dup1\n      swap2\n      sub\n      swap1\n      revert\n    tag_235:\n        /* \"contracts/NASICOIN.sol\":6274:6275  0 */\n      0x00\n        /* \"contracts/NASICOIN.sol\":6249:6271  ownerChangeRequestTime */\n      sload(0x0d)\n        /* \"contracts/NASICOIN.sol\":6249:6275  ownerChangeRequestTime > 0 */\n      gt\n        /* \"contracts/NASICOIN.sol\":6241:6311  require(ownerChangeRequestTime > 0, \"No owner change request pending\") */\n      tag_238\n      jumpi\n      mload(0x40)\n      0x08c379a000000000000000000000000000000000000000000000000000000000\n      dup2\n      mstore\n      0x04\n      add\n      tag_239\n      swap1\n      tag_187\n      jump\t// in\n    tag_239:\n      mload(0x40)\n      dup1\n      swap2\n      sub\n      swap1\n      revert\n    tag_238:\n        /* \"contracts/NASICOIN.sol\":1331:1338  90 days */\n      0x76a700\n        /* \"contracts/NASICOIN.sol\":6348:6370  ownerChangeRequestTime */\n      sload(0x0d)\n        /* \"contracts/NASICOIN.sol\":6348:6393  ownerChangeRequestTime + CHANGE_REQUEST_DELAY */\n      tag_240\n      swap2\n      swap1\n      tag_210\n      jump\t// in\n    tag_240:\n        /* \"contracts/NASICOIN.sol\":6329:6344  block.timestamp */\n      timestamp\n        /* \"contracts/NASICOIN.sol\":6329:6393  block.timestamp >= ownerChangeRequestTime + CHANGE_REQUEST_DELAY */\n      lt\n      iszero\n        /* \"contracts/NASICOIN.sol\":6321:6424  require(block.timestamp >= ownerChangeRequestTime + CHANGE_REQUEST_DELAY, \"Owner change delay not met\") */\n      tag_241\n      jumpi\n      mload(0x40)\n      0x08c379a000000000000000000000000000000000000000000000000000000000\n      dup2\n      mstore\n      0x04\n      add\n      tag_242\n      swap1\n      tag_243\n      jump\t// in\n    tag_242:\n      mload(0x40)\n      dup1\n      swap2\n      sub\n      swap1\n      revert\n    tag_241:\n        /* \"contracts/NASICOIN.sol\":6435:6451  address oldOwner */\n      0x00\n        /* \"contracts/NASICOIN.sol\":6454:6461  owner() */\n      tag_244\n        /* \"contracts/NASICOIN.sol\":6454:6459  owner */\n      tag_98\n        /* \"contracts/NASICOIN.sol\":6454:6461  owner() */\n      jump\t// in\n    tag_244:\n        /* \"contracts/NASICOIN.sol\":6435:6461  address oldOwner = owner() */\n      swap1\n      pop\n        /* \"contracts/NASICOIN.sol\":6471:6487  address newOwner */\n      0x00\n        /* \"contracts/NASICOIN.sol\":6490:6505  pendingNewOwner */\n      0x0b\n      0x00\n      swap1\n      sload\n      swap1\n      0x0100\n      exp\n      swap1\n      div\n      0xffffffffffffffffffffffffffffffffffffffff\n      and\n        /* \"contracts/NASICOIN.sol\":6471:6505  address newOwner = pendingNewOwner */\n      swap1\n      pop\n        /* \"contracts/NASICOIN.sol\":6516:6544  _transferOwnership(newOwner) */\n      tag_245\n        /* \"contracts/NASICOIN.sol\":6535:6543  newOwner */\n      dup2\n        /* \"contracts/NASICOIN.sol\":6516:6534  _transferOwnership */\n      tag_181\n        /* \"contracts/NASICOIN.sol\":6516:6544  _transferOwnership(newOwner) */\n      jump\t// in\n    tag_245:\n        /* \"contracts/NASICOIN.sol\":6581:6582  0 */\n      0x00\n        /* \"contracts/NASICOIN.sol\":6555:6570  pendingNewOwner */\n      0x0b\n      0x00\n        /* \"contracts/NASICOIN.sol\":6555:6583  pendingNewOwner = address(0) */\n      0x0100\n      exp\n      dup2\n      sload\n      dup2\n      0xffffffffffffffffffffffffffffffffffffffff\n      mul\n      not\n      and\n      swap1\n      dup4\n      0xffffffffffffffffffffffffffffffffffffffff\n      and\n      mul\n      or\n      swap1\n      sstore\n      pop\n        /* \"contracts/NASICOIN.sol\":6618:6619  0 */\n      0x00\n        /* \"contracts/NASICOIN.sol\":6593:6615  ownerChangeRequestTime */\n      0x0d\n        /* \"contracts/NASICOIN.sol\":6593:6619  ownerChangeRequestTime = 0 */\n      dup2\n      swap1\n      sstore\n      pop\n        /* \"contracts/NASICOIN.sol\":6666:6674  newOwner */\n      dup1\n        /* \"contracts/NASICOIN.sol\":6635:6675  OwnershipTransferred(oldOwner, newOwner) */\n      0xffffffffffffffffffffffffffffffffffffffff\n      and\n        /* \"contracts/NASICOIN.sol\":6656:6664  oldOwner */\n      dup3\n        /* \"contracts/NASICOIN.sol\":6635:6675  OwnershipTransferred(oldOwner, newOwner) */\n      0xffffffffffffffffffffffffffffffffffffffff\n      and\n      0x8be0079c531659141344cd1fd0a4f28419497f9722a3daafe3b4186f6b6457e0\n      mload(0x40)\n      mload(0x40)\n      dup1\n      swap2\n      sub\n      swap1\n      log3\n        /* \"contracts/NASICOIN.sol\":6231:6682  {... */\n      pop\n      pop\n        /* \"contracts/NASICOIN.sol\":6177:6682  function finalizeOwnerChange() external onlyDeveloper {... */\n      jump\t// out\n        /* \"contracts/NASICOIN.sol\":1235:1276  uint256 public developerChangeRequestTime */\n    tag_132:\n      sload(0x0e)\n      dup2\n      jump\t// out\n        /* \"@openzeppelin/contracts/access/Ownable.sol\":2543:2758  function transferOwnership(address newOwner) public virtual onlyOwner {... */\n    tag_136:\n        /* \"@openzeppelin/contracts/access/Ownable.sol\":1531:1544  _checkOwner() */\n      tag_247\n        /* \"@openzeppelin/contracts/access/Ownable.sol\":1531:1542  _checkOwner */\n      tag_178\n        /* \"@openzeppelin/contracts/access/Ownable.sol\":1531:1544  _checkOwner() */\n      jump\t// in\n    tag_247:\n        /* \"@openzeppelin/contracts/access/Ownable.sol\":2647:2648  0 */\n      0x00\n        /* \"@openzeppelin/contracts/access/Ownable.sol\":2627:2649  newOwner == address(0) */\n      0xffffffffffffffffffffffffffffffffffffffff\n      and\n        /* \"@openzeppelin/contracts/access/Ownable.sol\":2627:2635  newOwner */\n      dup2\n        /* \"@openzeppelin/contracts/access/Ownable.sol\":2627:2649  newOwner == address(0) */\n      0xffffffffffffffffffffffffffffffffffffffff\n      and\n      sub\n        /* \"@openzeppelin/contracts/access/Ownable.sol\":2623:2714  if (newOwner == address(0)) {... */\n      tag_249\n      jumpi\n        /* \"@openzeppelin/contracts/access/Ownable.sol\":2700:2701  0 */\n      0x00\n        /* \"@openzeppelin/contracts/access/Ownable.sol\":2672:2703  OwnableInvalidOwner(address(0)) */\n      mload(0x40)\n      0x1e4fbdf700000000000000000000000000000000000000000000000000000000\n      dup2\n      mstore\n      0x04\n      add\n      tag_250\n      swap2\n      swap1\n      tag_46\n      jump\t// in\n    tag_250:\n      mload(0x40)\n      dup1\n      swap2\n      sub\n      swap1\n      revert\n        /* \"@openzeppelin/contracts/access/Ownable.sol\":2623:2714  if (newOwner == address(0)) {... */\n    tag_249:\n        /* \"@openzeppelin/contracts/access/Ownable.sol\":2723:2751  _transferOwnership(newOwner) */\n      tag_251\n        /* \"@openzeppelin/contracts/access/Ownable.sol\":2742:2750  newOwner */\n      dup2\n        /* \"@openzeppelin/contracts/access/Ownable.sol\":2723:2741  _transferOwnership */\n      tag_181\n        /* \"@openzeppelin/contracts/access/Ownable.sol\":2723:2751  _transferOwnership(newOwner) */\n      jump\t// in\n    tag_251:\n        /* \"@openzeppelin/contracts/access/Ownable.sol\":2543:2758  function transferOwnership(address newOwner) public virtual onlyOwner {... */\n      pop\n      jump\t// out\n        /* \"@openzeppelin/contracts/utils/Context.sol\":656:752  function _msgSender() internal view virtual returns (address) {... */\n    tag_157:\n        /* \"@openzeppelin/contracts/utils/Context.sol\":709:716  address */\n      0x00\n        /* \"@openzeppelin/contracts/utils/Context.sol\":735:745  msg.sender */\n      caller\n        /* \"@openzeppelin/contracts/utils/Context.sol\":728:745  return msg.sender */\n      swap1\n      pop\n        /* \"@openzeppelin/contracts/utils/Context.sol\":656:752  function _msgSender() internal view virtual returns (address) {... */\n      swap1\n      jump\t// out\n        /* \"@openzeppelin/contracts/token/ERC20/ERC20.sol\":8742:8870  function _approve(address owner, address spender, uint256 value) internal {... */\n    tag_159:\n        /* \"@openzeppelin/contracts/token/ERC20/ERC20.sol\":8826:8863  _approve(owner, spender, value, true) */\n      tag_254\n        /* \"@openzeppelin/contracts/token/ERC20/ERC20.sol\":8835:8840  owner */\n      dup4\n        /* \"@openzeppelin/contracts/token/ERC20/ERC20.sol\":8842:8849  spender */\n      dup4\n        /* \"@openzeppelin/contracts/token/ERC20/ERC20.sol\":8851:8856  value */\n      dup4\n        /* \"@openzeppelin/contracts/token/ERC20/ERC20.sol\":8858:8862  true */\n      0x01\n        /* \"@openzeppelin/contracts/token/ERC20/ERC20.sol\":8826:8834  _approve */\n      tag_255\n        /* \"@openzeppelin/contracts/token/ERC20/ERC20.sol\":8826:8863  _approve(owner, spender, value, true) */\n      jump\t// in\n    tag_254:\n        /* \"@openzeppelin/contracts/token/ERC20/ERC20.sol\":8742:8870  function _approve(address owner, address spender, uint256 value) internal {... */\n      pop\n      pop\n      pop\n      jump\t// out\n        /* \"@openzeppelin/contracts/token/ERC20/ERC20.sol\":10431:10907  function _spendAllowance(address owner, address spender, uint256 value) internal virtual {... */\n    tag_164:\n        /* \"@openzeppelin/contracts/token/ERC20/ERC20.sol\":10530:10554  uint256 currentAllowance */\n      0x00\n        /* \"@openzeppelin/contracts/token/ERC20/ERC20.sol\":10557:10582  allowance(owner, spender) */\n      tag_257\n        /* \"@openzeppelin/contracts/token/ERC20/ERC20.sol\":10567:10572  owner */\n      dup5\n        /* \"@openzeppelin/contracts/token/ERC20/ERC20.sol\":10574:10581  spender */\n      dup5\n        /* \"@openzeppelin/contracts/token/ERC20/ERC20.sol\":10557:10566  allowance */\n      tag_127\n        /* \"@openzeppelin/contracts/token/ERC20/ERC20.sol\":10557:10582  allowance(owner, spender) */\n      jump\t// in\n    tag_257:\n        /* \"@openzeppelin/contracts/token/ERC20/ERC20.sol\":10530:10582  uint256 currentAllowance = allowance(owner, spender) */\n      swap1\n      pop\n        /* \"@openzeppelin/contracts/token/ERC20/ERC20.sol\":10615:10632  type(uint256).max */\n      0xffffffffffffffffffffffffffffffffffffffffffffffffffffffffffffffff\n        /* \"@openzeppelin/contracts/token/ERC20/ERC20.sol\":10596:10612  currentAllowance */\n      dup2\n        /* \"@openzeppelin/contracts/token/ERC20/ERC20.sol\":10596:10632  currentAllowance < type(uint256).max */\n      lt\n        /* \"@openzeppelin/contracts/token/ERC20/ERC20.sol\":10592:10901  if (currentAllowance < type(uint256).max) {... */\n      iszero\n      tag_258\n      jumpi\n        /* \"@openzeppelin/contracts/token/ERC20/ERC20.sol\":10671:10676  value */\n      dup2\n        /* \"@openzeppelin/contracts/token/ERC20/ERC20.sol\":10652:10668  currentAllowance */\n      dup2\n        /* \"@openzeppelin/contracts/token/ERC20/ERC20.sol\":10652:10676  currentAllowance < value */\n      lt\n        /* \"@openzeppelin/contracts/token/ERC20/ERC20.sol\":10648:10778  if (currentAllowance < value) {... */\n      iszero\n      tag_259\n      jumpi\n        /* \"@openzeppelin/contracts/token/ERC20/ERC20.sol\":10730:10737  spender */\n      dup3\n        /* \"@openzeppelin/contracts/token/ERC20/ERC20.sol\":10739:10755  currentAllowance */\n      dup2\n        /* \"@openzeppelin/contracts/token/ERC20/ERC20.sol\":10757:10762  value */\n      dup4\n        /* \"@openzeppelin/contracts/token/ERC20/ERC20.sol\":10703:10763  ERC20InsufficientAllowance(spender, currentAllowance, value) */\n      mload(0x40)\n      0xfb8f41b200000000000000000000000000000000000000000000000000000000\n      dup2\n      mstore\n      0x04\n      add\n      tag_260\n      swap4\n      swap3\n      swap2\n      swap1\n      tag_261\n      jump\t// in\n    tag_260:\n      mload(0x40)\n      dup1\n      swap2\n      sub\n      swap1\n      revert\n        /* \"@openzeppelin/contracts/token/ERC20/ERC20.sol\":10648:10778  if (currentAllowance < value) {... */\n    tag_259:\n        /* \"@openzeppelin/contracts/token/ERC20/ERC20.sol\":10819:10876  _approve(owner, spender, currentAllowance - value, false) */\n      tag_262\n        /* \"@openzeppelin/contracts/token/ERC20/ERC20.sol\":10828:10833  owner */\n      dup5\n        /* \"@openzeppelin/contracts/token/ERC20/ERC20.sol\":10835:10842  spender */\n      dup5\n        /* \"@openzeppelin/contracts/token/ERC20/ERC20.sol\":10863:10868  value */\n      dup5\n        /* \"@openzeppelin/contracts/token/ERC20/ERC20.sol\":10844:10860  currentAllowance */\n      dup5\n        /* \"@openzeppelin/contracts/token/ERC20/ERC20.sol\":10844:10868  currentAllowance - value */\n      sub\n        /* \"@openzeppelin/contracts/token/ERC20/ERC20.sol\":10870:10875  false */\n      0x00\n        /* \"@openzeppelin/contracts/token/ERC20/ERC20.sol\":10819:10827  _approve */\n      tag_255\n        /* \"@openzeppelin/contracts/token/ERC20/ERC20.sol\":10819:10876  _approve(owner, spender, currentAllowance - value, false) */\n      jump\t// in\n    tag_262:\n        /* \"@openzeppelin/contracts/token/ERC20/ERC20.sol\":10592:10901  if (currentAllowance < type(uint256).max) {... */\n    tag_258:\n        /* \"@openzeppelin/contracts/token/ERC20/ERC20.sol\":10520:10907  {... */\n      pop\n        /* \"@openzeppelin/contracts/token/ERC20/ERC20.sol\":10431:10907  function _spendAllowance(address owner, address spender, uint256 value) internal virtual {... */\n      pop\n      pop\n      pop\n      jump\t// out\n        /* \"contracts/NASICOIN.sol\":2988:3380  function _transfer(... */\n    tag_166:\n        /* \"contracts/NASICOIN.sol\":3116:3158  super._transfer(sender, recipient, amount) */\n      tag_264\n        /* \"contracts/NASICOIN.sol\":3132:3138  sender */\n      dup4\n        /* \"contracts/NASICOIN.sol\":3140:3149  recipient */\n      dup4\n        /* \"contracts/NASICOIN.sol\":3151:3157  amount */\n      dup4\n        /* \"contracts/NASICOIN.sol\":3116:3131  super._transfer */\n      tag_265\n        /* \"contracts/NASICOIN.sol\":3116:3158  super._transfer(sender, recipient, amount) */\n      jump\t// in\n    tag_264:\n        /* \"contracts/NASICOIN.sol\":3217:3261  _trackUserBalance(sender, balanceOf(sender)) */\n      tag_266\n        /* \"contracts/NASICOIN.sol\":3235:3241  sender */\n      dup4\n        /* \"contracts/NASICOIN.sol\":3243:3260  balanceOf(sender) */\n      tag_267\n        /* \"contracts/NASICOIN.sol\":3253:3259  sender */\n      dup6\n        /* \"contracts/NASICOIN.sol\":3243:3252  balanceOf */\n      tag_88\n        /* \"contracts/NASICOIN.sol\":3243:3260  balanceOf(sender) */\n      jump\t// in\n    tag_267:\n        /* \"contracts/NASICOIN.sol\":3217:3234  _trackUserBalance */\n      tag_268\n        /* \"contracts/NASICOIN.sol\":3217:3261  _trackUserBalance(sender, balanceOf(sender)) */\n      jump\t// in\n    tag_266:\n        /* \"contracts/NASICOIN.sol\":3323:3373  _trackUserBalance(recipient, balanceOf(recipient)) */\n      tag_269\n        /* \"contracts/NASICOIN.sol\":3341:3350  recipient */\n      dup3\n        /* \"contracts/NASICOIN.sol\":3352:3372  balanceOf(recipient) */\n      tag_270\n        /* \"contracts/NASICOIN.sol\":3362:3371  recipient */\n      dup5\n        /* \"contracts/NASICOIN.sol\":3352:3361  balanceOf */\n      tag_88\n        /* \"contracts/NASICOIN.sol\":3352:3372  balanceOf(recipient) */\n      jump\t// in\n    tag_270:\n        /* \"contracts/NASICOIN.sol\":3323:3340  _trackUserBalance */\n      tag_268\n        /* \"contracts/NASICOIN.sol\":3323:3373  _trackUserBalance(recipient, balanceOf(recipient)) */\n      jump\t// in\n    tag_269:\n        /* \"contracts/NASICOIN.sol\":2988:3380  function _transfer(... */\n      pop\n      pop\n      pop\n      jump\t// out\n        /* \"contracts/NASICOIN.sol\":2743:2910  function _mint(address account, uint256 amount) internal override {... */\n    tag_173:\n        /* \"contracts/NASICOIN.sol\":2819:2847  super._mint(account, amount) */\n      tag_272\n        /* \"contracts/NASICOIN.sol\":2831:2838  account */\n      dup3\n        /* \"contracts/NASICOIN.sol\":2840:2846  amount */\n      dup3\n        /* \"contracts/NASICOIN.sol\":2819:2830  super._mint */\n      tag_273\n        /* \"contracts/NASICOIN.sol\":2819:2847  super._mint(account, amount) */\n      jump\t// in\n    tag_272:\n        /* \"contracts/NASICOIN.sol\":2857:2903  _trackUserBalance(account, balanceOf(account)) */\n      tag_274\n        /* \"contracts/NASICOIN.sol\":2875:2882  account */\n      dup3\n        /* \"contracts/NASICOIN.sol\":2884:2902  balanceOf(account) */\n      tag_275\n        /* \"contracts/NASICOIN.sol\":2894:2901  account */\n      dup5\n        /* \"contracts/NASICOIN.sol\":2884:2893  balanceOf */\n      tag_88\n        /* \"contracts/NASICOIN.sol\":2884:2902  balanceOf(account) */\n      jump\t// in\n    tag_275:\n        /* \"contracts/NASICOIN.sol\":2857:2874  _trackUserBalance */\n      tag_268\n        /* \"contracts/NASICOIN.sol\":2857:2903  _trackUserBalance(account, balanceOf(account)) */\n      jump\t// in\n    tag_274:\n        /* \"contracts/NASICOIN.sol\":2743:2910  function _mint(address account, uint256 amount) internal override {... */\n      pop\n      pop\n      jump\t// out\n        /* \"@openzeppelin/contracts/access/Ownable.sol\":1796:1958  function _checkOwner() internal view virtual {... */\n    tag_178:\n        /* \"@openzeppelin/contracts/access/Ownable.sol\":1866:1878  _msgSender() */\n      tag_277\n        /* \"@openzeppelin/contracts/access/Ownable.sol\":1866:1876  _msgSender */\n      tag_157\n        /* \"@openzeppelin/contracts/access/Ownable.sol\":1866:1878  _msgSender() */\n      jump\t// in\n    tag_277:\n        /* \"@openzeppelin/contracts/access/Ownable.sol\":1855:1878  owner() != _msgSender() */\n      0xffffffffffffffffffffffffffffffffffffffff\n      and\n        /* \"@openzeppelin/contracts/access/Ownable.sol\":1855:1862  owner() */\n      tag_278\n        /* \"@openzeppelin/contracts/access/Ownable.sol\":1855:1860  owner */\n      tag_98\n        /* \"@openzeppelin/contracts/access/Ownable.sol\":1855:1862  owner() */\n      jump\t// in\n    tag_278:\n        /* \"@openzeppelin/contracts/access/Ownable.sol\":1855:1878  owner() != _msgSender() */\n      0xffffffffffffffffffffffffffffffffffffffff\n      and\n      eq\n        /* \"@openzeppelin/contracts/access/Ownable.sol\":1851:1952  if (owner() != _msgSender()) {... */\n      tag_279\n      jumpi\n        /* \"@openzeppelin/contracts/access/Ownable.sol\":1928:1940  _msgSender() */\n      tag_280\n        /* \"@openzeppelin/contracts/access/Ownable.sol\":1928:1938  _msgSender */\n      tag_157\n        /* \"@openzeppelin/contracts/access/Ownable.sol\":1928:1940  _msgSender() */\n      jump\t// in\n    tag_280:\n        /* \"@openzeppelin/contracts/access/Ownable.sol\":1901:1941  OwnableUnauthorizedAccount(_msgSender()) */\n      mload(0x40)\n      0x118cdaa700000000000000000000000000000000000000000000000000000000\n      dup2\n      mstore\n      0x04\n      add\n      tag_281\n      swap2\n      swap1\n      tag_46\n      jump\t// in\n    tag_281:\n      mload(0x40)\n      dup1\n      swap2\n      sub\n      swap1\n      revert\n        /* \"@openzeppelin/contracts/access/Ownable.sol\":1851:1952  if (owner() != _msgSender()) {... */\n    tag_279:\n        /* \"@openzeppelin/contracts/access/Ownable.sol\":1796:1958  function _checkOwner() internal view virtual {... */\n      jump\t// out\n        /* \"@openzeppelin/contracts/access/Ownable.sol\":2912:3099  function _transferOwnership(address newOwner) internal virtual {... */\n    tag_181:\n        /* \"@openzeppelin/contracts/access/Ownable.sol\":2985:3001  address oldOwner */\n      0x00\n        /* \"@openzeppelin/contracts/access/Ownable.sol\":3004:3010  _owner */\n      0x05\n      0x00\n      swap1\n      sload\n      swap1\n      0x0100\n      exp\n      swap1\n      div\n      0xffffffffffffffffffffffffffffffffffffffff\n      and\n        /* \"@openzeppelin/contracts/access/Ownable.sol\":2985:3010  address oldOwner = _owner */\n      swap1\n      pop\n        /* \"@openzeppelin/contracts/access/Ownable.sol\":3029:3037  newOwner */\n      dup2\n        /* \"@openzeppelin/contracts/access/Ownable.sol\":3020:3026  _owner */\n      0x05\n      0x00\n        /* \"@openzeppelin/contracts/access/Ownable.sol\":3020:3037  _owner = newOwner */\n      0x0100\n      exp\n      dup2\n      sload\n      dup2\n      0xffffffffffffffffffffffffffffffffffffffff\n      mul\n      not\n      and\n      swap1\n      dup4\n      0xffffffffffffffffffffffffffffffffffffffff\n      and\n      mul\n      or\n      swap1\n      sstore\n      pop\n        /* \"@openzeppelin/contracts/access/Ownable.sol\":3083:3091  newOwner */\n      dup2\n        /* \"@openzeppelin/contracts/access/Ownable.sol\":3052:3092  OwnershipTransferred(oldOwner, newOwner) */\n      0xffffffffffffffffffffffffffffffffffffffff\n      and\n        /* \"@openzeppelin/contracts/access/Ownable.sol\":3073:3081  oldOwner */\n      dup2\n        /* \"@openzeppelin/contracts/access/Ownable.sol\":3052:3092  OwnershipTransferred(oldOwner, newOwner) */\n      0xffffffffffffffffffffffffffffffffffffffff\n      and\n      0x8be0079c531659141344cd1fd0a4f28419497f9722a3daafe3b4186f6b6457e0\n      mload(0x40)\n      mload(0x40)\n      dup1\n      swap2\n      sub\n      swap1\n      log3\n        /* \"@openzeppelin/contracts/access/Ownable.sol\":2975:3099  {... */\n      pop\n        /* \"@openzeppelin/contracts/access/Ownable.sol\":2912:3099  function _transferOwnership(address newOwner) internal virtual {... */\n      pop\n      jump\t// out\n        /* \"@openzeppelin/contracts/token/ERC20/ERC20.sol\":9717:10149  function _approve(address owner, address spender, uint256 value, bool emitEvent) internal virtual {... */\n    tag_255:\n        /* \"@openzeppelin/contracts/token/ERC20/ERC20.sol\":9846:9847  0 */\n      0x00\n        /* \"@openzeppelin/contracts/token/ERC20/ERC20.sol\":9829:9848  owner == address(0) */\n      0xffffffffffffffffffffffffffffffffffffffff\n      and\n        /* \"@openzeppelin/contracts/token/ERC20/ERC20.sol\":9829:9834  owner */\n      dup5\n        /* \"@openzeppelin/contracts/token/ERC20/ERC20.sol\":9829:9848  owner == address(0) */\n      0xffffffffffffffffffffffffffffffffffffffff\n      and\n      sub\n        /* \"@openzeppelin/contracts/token/ERC20/ERC20.sol\":9825:9914  if (owner == address(0)) {... */\n      tag_284\n      jumpi\n        /* \"@openzeppelin/contracts/token/ERC20/ERC20.sol\":9900:9901  0 */\n      0x00\n        /* \"@openzeppelin/contracts/token/ERC20/ERC20.sol\":9871:9903  ERC20InvalidApprover(address(0)) */\n      mload(0x40)\n      0xe602df0500000000000000000000000000000000000000000000000000000000\n      dup2\n      mstore\n      0x04\n      add\n      tag_285\n      swap2\n      swap1\n      tag_46\n      jump\t// in\n    tag_285:\n      mload(0x40)\n      dup1\n      swap2\n      sub\n      swap1\n      revert\n        /* \"@openzeppelin/contracts/token/ERC20/ERC20.sol\":9825:9914  if (owner == address(0)) {... */\n    tag_284:\n        /* \"@openzeppelin/contracts/token/ERC20/ERC20.sol\":9946:9947  0 */\n      0x00\n        /* \"@openzeppelin/contracts/token/ERC20/ERC20.sol\":9927:9948  spender == address(0) */\n      0xffffffffffffffffffffffffffffffffffffffff\n      and\n        /* \"@openzeppelin/contracts/token/ERC20/ERC20.sol\":9927:9934  spender */\n      dup4\n        /* \"@openzeppelin/contracts/token/ERC20/ERC20.sol\":9927:9948  spender == address(0) */\n      0xffffffffffffffffffffffffffffffffffffffff\n      and\n      sub\n        /* \"@openzeppelin/contracts/token/ERC20/ERC20.sol\":9923:10013  if (spender == address(0)) {... */\n      tag_286\n      jumpi\n        /* \"@openzeppelin/contracts/token/ERC20/ERC20.sol\":9999:10000  0 */\n      0x00\n        /* \"@openzeppelin/contracts/token/ERC20/ERC20.sol\":9971:10002  ERC20InvalidSpender(address(0)) */\n      mload(0x40)\n      0x94280d6200000000000000000000000000000000000000000000000000000000\n      dup2\n      mstore\n      0x04\n      add\n      tag_287\n      swap2\n      swap1\n      tag_46\n      jump\t// in\n    tag_287:\n      mload(0x40)\n      dup1\n      swap2\n      sub\n      swap1\n      revert\n        /* \"@openzeppelin/contracts/token/ERC20/ERC20.sol\":9923:10013  if (spender == address(0)) {... */\n    tag_286:\n        /* \"@openzeppelin/contracts/token/ERC20/ERC20.sol\":10052:10057  value */\n      dup2\n        /* \"@openzeppelin/contracts/token/ERC20/ERC20.sol\":10022:10033  _allowances */\n      0x01\n        /* \"@openzeppelin/contracts/token/ERC20/ERC20.sol\":10022:10040  _allowances[owner] */\n      0x00\n        /* \"@openzeppelin/contracts/token/ERC20/ERC20.sol\":10034:10039  owner */\n      dup7\n        /* \"@openzeppelin/contracts/token/ERC20/ERC20.sol\":10022:10040  _allowances[owner] */\n      0xffffffffffffffffffffffffffffffffffffffff\n      and\n      0xffffffffffffffffffffffffffffffffffffffff\n      and\n      dup2\n      mstore\n      0x20\n      add\n      swap1\n      dup2\n      mstore\n      0x20\n      add\n      0x00\n      keccak256\n        /* \"@openzeppelin/contracts/token/ERC20/ERC20.sol\":10022:10049  _allowances[owner][spender] */\n      0x00\n        /* \"@openzeppelin/contracts/token/ERC20/ERC20.sol\":10041:10048  spender */\n      dup6\n        /* \"@openzeppelin/contracts/token/ERC20/ERC20.sol\":10022:10049  _allowances[owner][spender] */\n      0xffffffffffffffffffffffffffffffffffffffff\n      and\n      0xffffffffffffffffffffffffffffffffffffffff\n      and\n      dup2\n      mstore\n      0x20\n      add\n      swap1\n      dup2\n      mstore\n      0x20\n      add\n      0x00\n      keccak256\n        /* \"@openzeppelin/contracts/token/ERC20/ERC20.sol\":10022:10057  _allowances[owner][spender] = value */\n      dup2\n      swap1\n      sstore\n      pop\n        /* \"@openzeppelin/contracts/token/ERC20/ERC20.sol\":10071:10080  emitEvent */\n      dup1\n        /* \"@openzeppelin/contracts/token/ERC20/ERC20.sol\":10067:10143  if (emitEvent) {... */\n      iszero\n      tag_288\n      jumpi\n        /* \"@openzeppelin/contracts/token/ERC20/ERC20.sol\":10117:10124  spender */\n      dup3\n        /* \"@openzeppelin/contracts/token/ERC20/ERC20.sol\":10101:10132  Approval(owner, spender, value) */\n      0xffffffffffffffffffffffffffffffffffffffff\n      and\n        /* \"@openzeppelin/contracts/token/ERC20/ERC20.sol\":10110:10115  owner */\n      dup5\n        /* \"@openzeppelin/contracts/token/ERC20/ERC20.sol\":10101:10132  Approval(owner, spender, value) */\n      0xffffffffffffffffffffffffffffffffffffffff\n      and\n      0x8c5be1e5ebec7d5bd14f71427d1e84f3dd0314c0f7b2291e5b200ac8c7c3b925\n        /* \"@openzeppelin/contracts/token/ERC20/ERC20.sol\":10126:10131  value */\n      dup5\n        /* \"@openzeppelin/contracts/token/ERC20/ERC20.sol\":10101:10132  Approval(owner, spender, value) */\n      mload(0x40)\n      tag_289\n      swap2\n      swap1\n      tag_62\n      jump\t// in\n    tag_289:\n      mload(0x40)\n      dup1\n      swap2\n      sub\n      swap1\n      log3\n        /* \"@openzeppelin/contracts/token/ERC20/ERC20.sol\":10067:10143  if (emitEvent) {... */\n    tag_288:\n        /* \"@openzeppelin/contracts/token/ERC20/ERC20.sol\":9717:10149  function _approve(address owner, address spender, uint256 value, bool emitEvent) internal virtual {... */\n      pop\n      pop\n      pop\n      pop\n      jump\t// out\n        /* \"@openzeppelin/contracts/token/ERC20/ERC20.sol\":5393:5701  function _transfer(address from, address to, uint256 value) internal virtual {... */\n    tag_265:\n        /* \"@openzeppelin/contracts/token/ERC20/ERC20.sol\":5500:5501  0 */\n      0x00\n        /* \"@openzeppelin/contracts/token/ERC20/ERC20.sol\":5484:5502  from == address(0) */\n      0xffffffffffffffffffffffffffffffffffffffff\n      and\n        /* \"@openzeppelin/contracts/token/ERC20/ERC20.sol\":5484:5488  from */\n      dup4\n        /* \"@openzeppelin/contracts/token/ERC20/ERC20.sol\":5484:5502  from == address(0) */\n      0xffffffffffffffffffffffffffffffffffffffff\n      and\n      sub\n        /* \"@openzeppelin/contracts/token/ERC20/ERC20.sol\":5480:5566  if (from == address(0)) {... */\n      tag_291\n      jumpi\n        /* \"@openzeppelin/contracts/token/ERC20/ERC20.sol\":5552:5553  0 */\n      0x00\n        /* \"@openzeppelin/contracts/token/ERC20/ERC20.sol\":5525:5555  ERC20InvalidSender(address(0)) */\n      mload(0x40)\n      0x96c6fd1e00000000000000000000000000000000000000000000000000000000\n      dup2\n      mstore\n      0x04\n      add\n      tag_292\n      swap2\n      swap1\n      tag_46\n      jump\t// in\n    tag_292:\n      mload(0x40)\n      dup1\n      swap2\n      sub\n      swap1\n      revert\n        /* \"@openzeppelin/contracts/token/ERC20/ERC20.sol\":5480:5566  if (from == address(0)) {... */\n    tag_291:\n        /* \"@openzeppelin/contracts/token/ERC20/ERC20.sol\":5593:5594  0 */\n      0x00\n        /* \"@openzeppelin/contracts/token/ERC20/ERC20.sol\":5579:5595  to == address(0) */\n      0xffffffffffffffffffffffffffffffffffffffff\n      and\n        /* \"@openzeppelin/contracts/token/ERC20/ERC20.sol\":5579:5581  to */\n      dup3\n        /* \"@openzeppelin/contracts/token/ERC20/ERC20.sol\":5579:5595  to == address(0) */\n      0xffffffffffffffffffffffffffffffffffffffff\n      and\n      sub\n        /* \"@openzeppelin/contracts/token/ERC20/ERC20.sol\":5575:5661  if (to == address(0)) {... */\n      tag_293\n      jumpi\n        /* \"@openzeppelin/contracts/token/ERC20/ERC20.sol\":5647:5648  0 */\n      0x00\n        /* \"@openzeppelin/contracts/token/ERC20/ERC20.sol\":5618:5650  ERC20InvalidReceiver(address(0)) */\n      mload(0x40)\n      0xec442f0500000000000000000000000000000000000000000000000000000000\n      dup2\n      mstore\n      0x04\n      add\n      tag_294\n      swap2\n      swap1\n      tag_46\n      jump\t// in\n    tag_294:\n      mload(0x40)\n      dup1\n      swap2\n      sub\n      swap1\n      revert\n        /* \"@openzeppelin/contracts/token/ERC20/ERC20.sol\":5575:5661  if (to == address(0)) {... */\n    tag_293:\n        /* \"@openzeppelin/contracts/token/ERC20/ERC20.sol\":5670:5694  _update(from, to, value) */\n      tag_295\n        /* \"@openzeppelin/contracts/token/ERC20/ERC20.sol\":5678:5682  from */\n      dup4\n        /* \"@openzeppelin/contracts/token/ERC20/ERC20.sol\":5684:5686  to */\n      dup4\n        /* \"@openzeppelin/contracts/token/ERC20/ERC20.sol\":5688:5693  value */\n      dup4\n        /* \"@openzeppelin/contracts/token/ERC20/ERC20.sol\":5670:5677  _update */\n      tag_296\n        /* \"@openzeppelin/contracts/token/ERC20/ERC20.sol\":5670:5694  _update(from, to, value) */\n      jump\t// in\n    tag_295:\n        /* \"@openzeppelin/contracts/token/ERC20/ERC20.sol\":5393:5701  function _transfer(address from, address to, uint256 value) internal virtual {... */\n      pop\n      pop\n      pop\n      jump\t// out\n        /* \"contracts/NASICOIN.sol\":3465:3826  function _trackUserBalance(address user, uint256 balance) internal {... */\n    tag_268:\n        /* \"contracts/NASICOIN.sol\":3556:3557  0 */\n      0x00\n        /* \"contracts/NASICOIN.sol\":3546:3553  balance */\n      dup2\n        /* \"contracts/NASICOIN.sol\":3546:3557  balance > 0 */\n      gt\n        /* \"contracts/NASICOIN.sol\":3546:3578  balance > 0 && !hasBalance[user] */\n      dup1\n      iszero\n      tag_298\n      jumpi\n      pop\n        /* \"contracts/NASICOIN.sol\":3562:3572  hasBalance */\n      0x06\n        /* \"contracts/NASICOIN.sol\":3562:3578  hasBalance[user] */\n      0x00\n        /* \"contracts/NASICOIN.sol\":3573:3577  user */\n      dup4\n        /* \"contracts/NASICOIN.sol\":3562:3578  hasBalance[user] */\n      0xffffffffffffffffffffffffffffffffffffffff\n      and\n      0xffffffffffffffffffffffffffffffffffffffff\n      and\n      dup2\n      mstore\n      0x20\n      add\n      swap1\n      dup2\n      mstore\n      0x20\n      add\n      0x00\n      keccak256\n      0x00\n      swap1\n      sload\n      swap1\n      0x0100\n      exp\n      swap1\n      div\n      0xff\n      and\n        /* \"contracts/NASICOIN.sol\":3561:3578  !hasBalance[user] */\n      iszero\n        /* \"contracts/NASICOIN.sol\":3546:3578  balance > 0 && !hasBalance[user] */\n    tag_298:\n        /* \"contracts/NASICOIN.sol\":3542:3782  if (balance > 0 && !hasBalance[user]) {... */\n      iszero\n      tag_299\n      jumpi\n        /* \"contracts/NASICOIN.sol\":3613:3617  true */\n      0x01\n        /* \"contracts/NASICOIN.sol\":3594:3604  hasBalance */\n      0x06\n        /* \"contracts/NASICOIN.sol\":3594:3610  hasBalance[user] */\n      0x00\n        /* \"contracts/NASICOIN.sol\":3605:3609  user */\n      dup5\n        /* \"contracts/NASICOIN.sol\":3594:3610  hasBalance[user] */\n      0xffffffffffffffffffffffffffffffffffffffff\n      and\n      0xffffffffffffffffffffffffffffffffffffffff\n      and\n      dup2\n      mstore\n      0x20\n      add\n      swap1\n      dup2\n      mstore\n      0x20\n      add\n      0x00\n      keccak256\n      0x00\n        /* \"contracts/NASICOIN.sol\":3594:3617  hasBalance[user] = true */\n      0x0100\n      exp\n      dup2\n      sload\n      dup2\n      0xff\n      mul\n      not\n      and\n      swap1\n      dup4\n      iszero\n      iszero\n      mul\n      or\n      swap1\n      sstore\n      pop\n        /* \"contracts/NASICOIN.sol\":3631:3636  users */\n      0x08\n        /* \"contracts/NASICOIN.sol\":3642:3646  user */\n      dup3\n        /* \"contracts/NASICOIN.sol\":3631:3647  users.push(user) */\n      swap1\n      dup1\n      0x01\n      dup2\n      sload\n      add\n      dup1\n      dup3\n      sstore\n      dup1\n      swap2\n      pop\n      pop\n      0x01\n      swap1\n      sub\n      swap1\n      0x00\n      mstore\n      keccak256(0x00, 0x20)\n      add\n      0x00\n      swap1\n      swap2\n      swap1\n      swap2\n      swap1\n      swap2\n      0x0100\n      exp\n      dup2\n      sload\n      dup2\n      0xffffffffffffffffffffffffffffffffffffffff\n      mul\n      not\n      and\n      swap1\n      dup4\n      0xffffffffffffffffffffffffffffffffffffffff\n      and\n      mul\n      or\n      swap1\n      sstore\n      pop\n        /* \"contracts/NASICOIN.sol\":3542:3782  if (balance > 0 && !hasBalance[user]) {... */\n      jump(tag_301)\n    tag_299:\n        /* \"contracts/NASICOIN.sol\":3679:3680  0 */\n      0x00\n        /* \"contracts/NASICOIN.sol\":3668:3675  balance */\n      dup2\n        /* \"contracts/NASICOIN.sol\":3668:3680  balance == 0 */\n      eq\n        /* \"contracts/NASICOIN.sol\":3668:3700  balance == 0 && hasBalance[user] */\n      dup1\n      iszero\n      tag_302\n      jumpi\n      pop\n        /* \"contracts/NASICOIN.sol\":3684:3694  hasBalance */\n      0x06\n        /* \"contracts/NASICOIN.sol\":3684:3700  hasBalance[user] */\n      0x00\n        /* \"contracts/NASICOIN.sol\":3695:3699  user */\n      dup4\n        /* \"contracts/NASICOIN.sol\":3684:3700  hasBalance[user] */\n      0xffffffffffffffffffffffffffffffffffffffff\n      and\n      0xffffffffffffffffffffffffffffffffffffffff\n      and\n      dup2\n      mstore\n      0x20\n      add\n      swap1\n      dup2\n      mstore\n      0x20\n      add\n      0x00\n      keccak256\n      0x00\n      swap1\n      sload\n      swap1\n      0x0100\n      exp\n      swap1\n      div\n      0xff\n      and\n        /* \"contracts/NASICOIN.sol\":3668:3700  balance == 0 && hasBalance[user] */\n    tag_302:\n        /* \"contracts/NASICOIN.sol\":3664:3782  if (balance == 0 && hasBalance[user]) {... */\n      iszero\n      tag_303\n      jumpi\n        /* \"contracts/NASICOIN.sol\":3735:3740  false */\n      0x00\n        /* \"contracts/NASICOIN.sol\":3716:3726  hasBalance */\n      0x06\n        /* \"contracts/NASICOIN.sol\":3716:3732  hasBalance[user] */\n      0x00\n        /* \"contracts/NASICOIN.sol\":3727:3731  user */\n      dup5\n        /* \"contracts/NASICOIN.sol\":3716:3732  hasBalance[user] */\n      0xffffffffffffffffffffffffffffffffffffffff\n      and\n      0xffffffffffffffffffffffffffffffffffffffff\n      and\n      dup2\n      mstore\n      0x20\n      add\n      swap1\n      dup2\n      mstore\n      0x20\n      add\n      0x00\n      keccak256\n      0x00\n        /* \"contracts/NASICOIN.sol\":3716:3740  hasBalance[user] = false */\n      0x0100\n      exp\n      dup2\n      sload\n      dup2\n      0xff\n      mul\n      not\n      and\n      swap1\n      dup4\n      iszero\n      iszero\n      mul\n      or\n      swap1\n      sstore\n      pop\n        /* \"contracts/NASICOIN.sol\":3754:3771  _removeUser(user) */\n      tag_304\n        /* \"contracts/NASICOIN.sol\":3766:3770  user */\n      dup3\n        /* \"contracts/NASICOIN.sol\":3754:3765  _removeUser */\n      tag_305\n        /* \"contracts/NASICOIN.sol\":3754:3771  _removeUser(user) */\n      jump\t// in\n    tag_304:\n        /* \"contracts/NASICOIN.sol\":3664:3782  if (balance == 0 && hasBalance[user]) {... */\n    tag_303:\n        /* \"contracts/NASICOIN.sol\":3542:3782  if (balance > 0 && !hasBalance[user]) {... */\n    tag_301:\n        /* \"contracts/NASICOIN.sol\":3812:3819  balance */\n      dup1\n        /* \"contracts/NASICOIN.sol\":3791:3803  userBalances */\n      0x07\n        /* \"contracts/NASICOIN.sol\":3791:3809  userBalances[user] */\n      0x00\n        /* \"contracts/NASICOIN.sol\":3804:3808  user */\n      dup5\n        /* \"contracts/NASICOIN.sol\":3791:3809  userBalances[user] */\n      0xffffffffffffffffffffffffffffffffffffffff\n      and\n      0xffffffffffffffffffffffffffffffffffffffff\n      and\n      dup2\n      mstore\n      0x20\n      add\n      swap1\n      dup2\n      mstore\n      0x20\n      add\n      0x00\n      keccak256\n        /* \"contracts/NASICOIN.sol\":3791:3819  userBalances[user] = balance */\n      dup2\n      swap1\n      sstore\n      pop\n        /* \"contracts/NASICOIN.sol\":3465:3826  function _trackUserBalance(address user, uint256 balance) internal {... */\n      pop\n      pop\n      jump\t// out\n        /* \"@openzeppelin/contracts/token/ERC20/ERC20.sol\":7466:7682  function _mint(address account, uint256 value) internal virtual {... */\n    tag_273:\n        /* \"@openzeppelin/contracts/token/ERC20/ERC20.sol\":7563:7564  0 */\n      0x00\n        /* \"@openzeppelin/contracts/token/ERC20/ERC20.sol\":7544:7565  account == address(0) */\n      0xffffffffffffffffffffffffffffffffffffffff\n      and\n        /* \"@openzeppelin/contracts/token/ERC20/ERC20.sol\":7544:7551  account */\n      dup3\n        /* \"@openzeppelin/contracts/token/ERC20/ERC20.sol\":7544:7565  account == address(0) */\n      0xffffffffffffffffffffffffffffffffffffffff\n      and\n      sub\n        /* \"@openzeppelin/contracts/token/ERC20/ERC20.sol\":7540:7631  if (account == address(0)) {... */\n      tag_307\n      jumpi\n        /* \"@openzeppelin/contracts/token/ERC20/ERC20.sol\":7617:7618  0 */\n      0x00\n        /* \"@openzeppelin/contracts/token/ERC20/ERC20.sol\":7588:7620  ERC20InvalidReceiver(address(0)) */\n      mload(0x40)\n      0xec442f0500000000000000000000000000000000000000000000000000000000\n      dup2\n      mstore\n      0x04\n      add\n      tag_308\n      swap2\n      swap1\n      tag_46\n      jump\t// in\n    tag_308:\n      mload(0x40)\n      dup1\n      swap2\n      sub\n      swap1\n      revert\n        /* \"@openzeppelin/contracts/token/ERC20/ERC20.sol\":7540:7631  if (account == address(0)) {... */\n    tag_307:\n        /* \"@openzeppelin/contracts/token/ERC20/ERC20.sol\":7640:7675  _update(address(0), account, value) */\n      tag_309\n        /* \"@openzeppelin/contracts/token/ERC20/ERC20.sol\":7656:7657  0 */\n      0x00\n        /* \"@openzeppelin/contracts/token/ERC20/ERC20.sol\":7660:7667  account */\n      dup4\n        /* \"@openzeppelin/contracts/token/ERC20/ERC20.sol\":7669:7674  value */\n      dup4\n        /* \"@openzeppelin/contracts/token/ERC20/ERC20.sol\":7640:7647  _update */\n      tag_296\n        /* \"@openzeppelin/contracts/token/ERC20/ERC20.sol\":7640:7675  _update(address(0), account, value) */\n      jump\t// in\n    tag_309:\n        /* \"@openzeppelin/contracts/token/ERC20/ERC20.sol\":7466:7682  function _mint(address account, uint256 value) internal virtual {... */\n      pop\n      pop\n      jump\t// out\n        /* \"@openzeppelin/contracts/token/ERC20/ERC20.sol\":6016:7123  function _update(address from, address to, uint256 value) internal virtual {... */\n    tag_296:\n        /* \"@openzeppelin/contracts/token/ERC20/ERC20.sol\":6121:6122  0 */\n      0x00\n        /* \"@openzeppelin/contracts/token/ERC20/ERC20.sol\":6105:6123  from == address(0) */\n      0xffffffffffffffffffffffffffffffffffffffff\n      and\n        /* \"@openzeppelin/contracts/token/ERC20/ERC20.sol\":6105:6109  from */\n      dup4\n        /* \"@openzeppelin/contracts/token/ERC20/ERC20.sol\":6105:6123  from == address(0) */\n      0xffffffffffffffffffffffffffffffffffffffff\n      and\n      sub\n        /* \"@openzeppelin/contracts/token/ERC20/ERC20.sol\":6101:6641  if (from == address(0)) {... */\n      tag_311\n      jumpi\n        /* \"@openzeppelin/contracts/token/ERC20/ERC20.sol\":6257:6262  value */\n      dup1\n        /* \"@openzeppelin/contracts/token/ERC20/ERC20.sol\":6241:6253  _totalSupply */\n      0x02\n      0x00\n        /* \"@openzeppelin/contracts/token/ERC20/ERC20.sol\":6241:6262  _totalSupply += value */\n      dup3\n      dup3\n      sload\n      tag_312\n      swap2\n      swap1\n      tag_210\n      jump\t// in\n    tag_312:\n      swap3\n      pop\n      pop\n      dup2\n      swap1\n      sstore\n      pop\n        /* \"@openzeppelin/contracts/token/ERC20/ERC20.sol\":6101:6641  if (from == address(0)) {... */\n      jump(tag_313)\n    tag_311:\n        /* \"@openzeppelin/contracts/token/ERC20/ERC20.sol\":6293:6312  uint256 fromBalance */\n      0x00\n        /* \"@openzeppelin/contracts/token/ERC20/ERC20.sol\":6315:6324  _balances */\n      0x00\n        /* \"@openzeppelin/contracts/token/ERC20/ERC20.sol\":6315:6330  _balances[from] */\n      0x00\n        /* \"@openzeppelin/contracts/token/ERC20/ERC20.sol\":6325:6329  from */\n      dup6\n        /* \"@openzeppelin/contracts/token/ERC20/ERC20.sol\":6315:6330  _balances[from] */\n      0xffffffffffffffffffffffffffffffffffffffff\n      and\n      0xffffffffffffffffffffffffffffffffffffffff\n      and\n      dup2\n      mstore\n      0x20\n      add\n      swap1\n      dup2\n      mstore\n      0x20\n      add\n      0x00\n      keccak256\n      sload\n        /* \"@openzeppelin/contracts/token/ERC20/ERC20.sol\":6293:6330  uint256 fromBalance = _balances[from] */\n      swap1\n      pop\n        /* \"@openzeppelin/contracts/token/ERC20/ERC20.sol\":6362:6367  value */\n      dup2\n        /* \"@openzeppelin/contracts/token/ERC20/ERC20.sol\":6348:6359  fromBalance */\n      dup2\n        /* \"@openzeppelin/contracts/token/ERC20/ERC20.sol\":6348:6367  fromBalance < value */\n      lt\n        /* \"@openzeppelin/contracts/token/ERC20/ERC20.sol\":6344:6459  if (fromBalance < value) {... */\n      iszero\n      tag_314\n      jumpi\n        /* \"@openzeppelin/contracts/token/ERC20/ERC20.sol\":6419:6423  from */\n      dup4\n        /* \"@openzeppelin/contracts/token/ERC20/ERC20.sol\":6425:6436  fromBalance */\n      dup2\n        /* \"@openzeppelin/contracts/token/ERC20/ERC20.sol\":6438:6443  value */\n      dup4\n        /* \"@openzeppelin/contracts/token/ERC20/ERC20.sol\":6394:6444  ERC20InsufficientBalance(from, fromBalance, value) */\n      mload(0x40)\n      0xe450d38c00000000000000000000000000000000000000000000000000000000\n      dup2\n      mstore\n      0x04\n      add\n      tag_315\n      swap4\n      swap3\n      swap2\n      swap1\n      tag_261\n      jump\t// in\n    tag_315:\n      mload(0x40)\n      dup1\n      swap2\n      sub\n      swap1\n      revert\n        /* \"@openzeppelin/contracts/token/ERC20/ERC20.sol\":6344:6459  if (fromBalance < value) {... */\n    tag_314:\n        /* \"@openzeppelin/contracts/token/ERC20/ERC20.sol\":6611:6616  value */\n      dup2\n        /* \"@openzeppelin/contracts/token/ERC20/ERC20.sol\":6597:6608  fromBalance */\n      dup2\n        /* \"@openzeppelin/contracts/token/ERC20/ERC20.sol\":6597:6616  fromBalance - value */\n      sub\n        /* \"@openzeppelin/contracts/token/ERC20/ERC20.sol\":6579:6588  _balances */\n      0x00\n        /* \"@openzeppelin/contracts/token/ERC20/ERC20.sol\":6579:6594  _balances[from] */\n      0x00\n        /* \"@openzeppelin/contracts/token/ERC20/ERC20.sol\":6589:6593  from */\n      dup7\n        /* \"@openzeppelin/contracts/token/ERC20/ERC20.sol\":6579:6594  _balances[from] */\n      0xffffffffffffffffffffffffffffffffffffffff\n      and\n      0xffffffffffffffffffffffffffffffffffffffff\n      and\n      dup2\n      mstore\n      0x20\n      add\n      swap1\n      dup2\n      mstore\n      0x20\n      add\n      0x00\n      keccak256\n        /* \"@openzeppelin/contracts/token/ERC20/ERC20.sol\":6579:6616  _balances[from] = fromBalance - value */\n      dup2\n      swap1\n      sstore\n      pop\n        /* \"@openzeppelin/contracts/token/ERC20/ERC20.sol\":6279:6641  {... */\n      pop\n        /* \"@openzeppelin/contracts/token/ERC20/ERC20.sol\":6101:6641  if (from == address(0)) {... */\n    tag_313:\n        /* \"@openzeppelin/contracts/token/ERC20/ERC20.sol\":6669:6670  0 */\n      0x00\n        /* \"@openzeppelin/contracts/token/ERC20/ERC20.sol\":6655:6671  to == address(0) */\n      0xffffffffffffffffffffffffffffffffffffffff\n      and\n        /* \"@openzeppelin/contracts/token/ERC20/ERC20.sol\":6655:6657  to */\n      dup3\n        /* \"@openzeppelin/contracts/token/ERC20/ERC20.sol\":6655:6671  to == address(0) */\n      0xffffffffffffffffffffffffffffffffffffffff\n      and\n      sub\n        /* \"@openzeppelin/contracts/token/ERC20/ERC20.sol\":6651:7076  if (to == address(0)) {... */\n      tag_316\n      jumpi\n        /* \"@openzeppelin/contracts/token/ERC20/ERC20.sol\":6834:6839  value */\n      dup1\n        /* \"@openzeppelin/contracts/token/ERC20/ERC20.sol\":6818:6830  _totalSupply */\n      0x02\n      0x00\n        /* \"@openzeppelin/contracts/token/ERC20/ERC20.sol\":6818:6839  _totalSupply -= value */\n      dup3\n      dup3\n      sload\n      sub\n      swap3\n      pop\n      pop\n      dup2\n      swap1\n      sstore\n      pop\n        /* \"@openzeppelin/contracts/token/ERC20/ERC20.sol\":6651:7076  if (to == address(0)) {... */\n      jump(tag_317)\n    tag_316:\n        /* \"@openzeppelin/contracts/token/ERC20/ERC20.sol\":7046:7051  value */\n      dup1\n        /* \"@openzeppelin/contracts/token/ERC20/ERC20.sol\":7029:7038  _balances */\n      0x00\n        /* \"@openzeppelin/contracts/token/ERC20/ERC20.sol\":7029:7042  _balances[to] */\n      0x00\n        /* \"@openzeppelin/contracts/token/ERC20/ERC20.sol\":7039:7041  to */\n      dup5\n        /* \"@openzeppelin/contracts/token/ERC20/ERC20.sol\":7029:7042  _balances[to] */\n      0xffffffffffffffffffffffffffffffffffffffff\n      and\n      0xffffffffffffffffffffffffffffffffffffffff\n      and\n      dup2\n      mstore\n      0x20\n      add\n      swap1\n      dup2\n      mstore\n      0x20\n      add\n      0x00\n      keccak256\n      0x00\n        /* \"@openzeppelin/contracts/token/ERC20/ERC20.sol\":7029:7051  _balances[to] += value */\n      dup3\n      dup3\n      sload\n      add\n      swap3\n      pop\n      pop\n      dup2\n      swap1\n      sstore\n      pop\n        /* \"@openzeppelin/contracts/token/ERC20/ERC20.sol\":6651:7076  if (to == address(0)) {... */\n    tag_317:\n        /* \"@openzeppelin/contracts/token/ERC20/ERC20.sol\":7106:7108  to */\n      dup2\n        /* \"@openzeppelin/contracts/token/ERC20/ERC20.sol\":7091:7116  Transfer(from, to, value) */\n      0xffffffffffffffffffffffffffffffffffffffff\n      and\n        /* \"@openzeppelin/contracts/token/ERC20/ERC20.sol\":7100:7104  from */\n      dup4\n        /* \"@openzeppelin/contracts/token/ERC20/ERC20.sol\":7091:7116  Transfer(from, to, value) */\n      0xffffffffffffffffffffffffffffffffffffffff\n      and\n      0xddf252ad1be2c89b69c2b068fc378daa952ba7f163c4a11628f55a4df523b3ef\n        /* \"@openzeppelin/contracts/token/ERC20/ERC20.sol\":7110:7115  value */\n      dup4\n        /* \"@openzeppelin/contracts/token/ERC20/ERC20.sol\":7091:7116  Transfer(from, to, value) */\n      mload(0x40)\n      tag_318\n      swap2\n      swap1\n      tag_62\n      jump\t// in\n    tag_318:\n      mload(0x40)\n      dup1\n      swap2\n      sub\n      swap1\n      log3\n        /* \"@openzeppelin/contracts/token/ERC20/ERC20.sol\":6016:7123  function _update(address from, address to, uint256 value) internal virtual {... */\n      pop\n      pop\n      pop\n      jump\t// out\n        /* \"contracts/NASICOIN.sol\":3895:4217  function _removeUser(address user) internal {... */\n    tag_305:\n        /* \"contracts/NASICOIN.sol\":3954:3963  uint256 i */\n      0x00\n        /* \"contracts/NASICOIN.sol\":3966:3967  0 */\n      0x00\n        /* \"contracts/NASICOIN.sol\":3954:3967  uint256 i = 0 */\n      swap1\n      pop\n        /* \"contracts/NASICOIN.sol\":3949:4211  for (uint256 i = 0; i < users.length; i++) {... */\n    tag_320:\n        /* \"contracts/NASICOIN.sol\":3973:3978  users */\n      0x08\n        /* \"contracts/NASICOIN.sol\":3973:3985  users.length */\n      dup1\n      sload\n      swap1\n      pop\n        /* \"contracts/NASICOIN.sol\":3969:3970  i */\n      dup2\n        /* \"contracts/NASICOIN.sol\":3969:3985  i < users.length */\n      lt\n        /* \"contracts/NASICOIN.sol\":3949:4211  for (uint256 i = 0; i < users.length; i++) {... */\n      iszero\n      tag_321\n      jumpi\n        /* \"contracts/NASICOIN.sol\":4022:4026  user */\n      dup2\n        /* \"contracts/NASICOIN.sol\":4010:4026  users[i] == user */\n      0xffffffffffffffffffffffffffffffffffffffff\n      and\n        /* \"contracts/NASICOIN.sol\":4010:4015  users */\n      0x08\n        /* \"contracts/NASICOIN.sol\":4016:4017  i */\n      dup3\n        /* \"contracts/NASICOIN.sol\":4010:4018  users[i] */\n      dup2\n      sload\n      dup2\n      lt\n      tag_323\n      jumpi\n      tag_324\n      tag_325\n      jump\t// in\n    tag_324:\n    tag_323:\n      swap1\n      0x00\n      mstore\n      keccak256(0x00, 0x20)\n      add\n      0x00\n      swap1\n      sload\n      swap1\n      0x0100\n      exp\n      swap1\n      div\n      0xffffffffffffffffffffffffffffffffffffffff\n      and\n        /* \"contracts/NASICOIN.sol\":4010:4026  users[i] == user */\n      0xffffffffffffffffffffffffffffffffffffffff\n      and\n      sub\n        /* \"contracts/NASICOIN.sol\":4006:4201  if (users[i] == user) {... */\n      tag_327\n      jumpi\n        /* \"contracts/NASICOIN.sol\":4057:4062  users */\n      0x08\n        /* \"contracts/NASICOIN.sol\":4078:4079  1 */\n      0x01\n        /* \"contracts/NASICOIN.sol\":4063:4068  users */\n      0x08\n        /* \"contracts/NASICOIN.sol\":4063:4075  users.length */\n      dup1\n      sload\n      swap1\n      pop\n        /* \"contracts/NASICOIN.sol\":4063:4079  users.length - 1 */\n      tag_328\n      swap2\n      swap1\n      tag_329\n      jump\t// in\n    tag_328:\n        /* \"contracts/NASICOIN.sol\":4057:4080  users[users.length - 1] */\n      dup2\n      sload\n      dup2\n      lt\n      tag_330\n      jumpi\n      tag_331\n      tag_325\n      jump\t// in\n    tag_331:\n    tag_330:\n      swap1\n      0x00\n      mstore\n      keccak256(0x00, 0x20)\n      add\n      0x00\n      swap1\n      sload\n      swap1\n      0x0100\n      exp\n      swap1\n      div\n      0xffffffffffffffffffffffffffffffffffffffff\n      and\n        /* \"contracts/NASICOIN.sol\":4046:4051  users */\n      0x08\n        /* \"contracts/NASICOIN.sol\":4052:4053  i */\n      dup3\n        /* \"contracts/NASICOIN.sol\":4046:4054  users[i] */\n      dup2\n      sload\n      dup2\n      lt\n      tag_333\n      jumpi\n      tag_334\n      tag_325\n      jump\t// in\n    tag_334:\n    tag_333:\n      swap1\n      0x00\n      mstore\n      keccak256(0x00, 0x20)\n      add\n      0x00\n        /* \"contracts/NASICOIN.sol\":4046:4080  users[i] = users[users.length - 1] */\n      0x0100\n      exp\n      dup2\n      sload\n      dup2\n      0xffffffffffffffffffffffffffffffffffffffff\n      mul\n      not\n      and\n      swap1\n      dup4\n      0xffffffffffffffffffffffffffffffffffffffff\n      and\n      mul\n      or\n      swap1\n      sstore\n      pop\n        /* \"contracts/NASICOIN.sol\":4128:4133  users */\n      0x08\n        /* \"contracts/NASICOIN.sol\":4128:4139  users.pop() */\n      dup1\n      sload\n      dup1\n      tag_336\n      jumpi\n      tag_337\n      tag_338\n      jump\t// in\n    tag_337:\n    tag_336:\n      0x01\n      swap1\n      sub\n      dup2\n      dup2\n      swap1\n      0x00\n      mstore\n      keccak256(0x00, 0x20)\n      add\n      exp(0x0100, 0x00)\n      dup2\n      sload\n      swap1\n      0xffffffffffffffffffffffffffffffffffffffff\n      mul\n      not\n      and\n      swap1\n      sstore\n      swap1\n      sstore\n        /* \"contracts/NASICOIN.sol\":4181:4186  break */\n      jump(tag_321)\n        /* \"contracts/NASICOIN.sol\":4006:4201  if (users[i] == user) {... */\n    tag_327:\n        /* \"contracts/NASICOIN.sol\":3987:3990  i++ */\n      dup1\n      dup1\n      0x01\n      add\n      swap2\n      pop\n      pop\n        /* \"contracts/NASICOIN.sol\":3949:4211  for (uint256 i = 0; i < users.length; i++) {... */\n      jump(tag_320)\n    tag_321:\n      pop\n        /* \"contracts/NASICOIN.sol\":3895:4217  function _removeUser(address user) internal {... */\n      pop\n      jump\t// out\n        /* \"#utility.yul\":7:121   */\n    tag_340:\n        /* \"#utility.yul\":74:80   */\n      0x00\n        /* \"#utility.yul\":108:113   */\n      dup2\n        /* \"#utility.yul\":102:114   */\n      mload\n        /* \"#utility.yul\":92:114   */\n      swap1\n      pop\n        /* \"#utility.yul\":7:121   */\n      swap2\n      swap1\n      pop\n      jump\t// out\n        /* \"#utility.yul\":127:311   */\n    tag_341:\n        /* \"#utility.yul\":226:237   */\n      0x00\n        /* \"#utility.yul\":260:266   */\n      dup3\n        /* \"#utility.yul\":255:258   */\n      dup3\n        /* \"#utility.yul\":248:267   */\n      mstore\n        /* \"#utility.yul\":300:304   */\n      0x20\n        /* \"#utility.yul\":295:298   */\n      dup3\n        /* \"#utility.yul\":291:305   */\n      add\n        /* \"#utility.yul\":276:305   */\n      swap1\n      pop\n        /* \"#utility.yul\":127:311   */\n      swap3\n      swap2\n      pop\n      pop\n      jump\t// out\n        /* \"#utility.yul\":317:449   */\n    tag_342:\n        /* \"#utility.yul\":384:388   */\n      0x00\n        /* \"#utility.yul\":407:410   */\n      dup2\n        /* \"#utility.yul\":399:410   */\n      swap1\n      pop\n        /* \"#utility.yul\":437:441   */\n      0x20\n        /* \"#utility.yul\":432:435   */\n      dup3\n        /* \"#utility.yul\":428:442   */\n      add\n        /* \"#utility.yul\":420:442   */\n      swap1\n      pop\n        /* \"#utility.yul\":317:449   */\n      swap2\n      swap1\n      pop\n      jump\t// out\n        /* \"#utility.yul\":455:581   */\n    tag_343:\n        /* \"#utility.yul\":492:499   */\n      0x00\n        /* \"#utility.yul\":532:574   */\n      0xffffffffffffffffffffffffffffffffffffffff\n        /* \"#utility.yul\":525:530   */\n      dup3\n        /* \"#utility.yul\":521:575   */\n      and\n        /* \"#utility.yul\":510:575   */\n      swap1\n      pop\n        /* \"#utility.yul\":455:581   */\n      swap2\n      swap1\n      pop\n      jump\t// out\n        /* \"#utility.yul\":587:683   */\n    tag_344:\n        /* \"#utility.yul\":624:631   */\n      0x00\n        /* \"#utility.yul\":653:677   */\n      tag_398\n        /* \"#utility.yul\":671:676   */\n      dup3\n        /* \"#utility.yul\":653:677   */\n      tag_343\n      jump\t// in\n    tag_398:\n        /* \"#utility.yul\":642:677   */\n      swap1\n      pop\n        /* \"#utility.yul\":587:683   */\n      swap2\n      swap1\n      pop\n      jump\t// out\n        /* \"#utility.yul\":689:797   */\n    tag_345:\n        /* \"#utility.yul\":766:790   */\n      tag_400\n        /* \"#utility.yul\":784:789   */\n      dup2\n        /* \"#utility.yul\":766:790   */\n      tag_344\n      jump\t// in\n    tag_400:\n        /* \"#utility.yul\":761:764   */\n      dup3\n        /* \"#utility.yul\":754:791   */\n      mstore\n        /* \"#utility.yul\":689:797   */\n      pop\n      pop\n      jump\t// out\n        /* \"#utility.yul\":803:982   */\n    tag_346:\n        /* \"#utility.yul\":872:882   */\n      0x00\n        /* \"#utility.yul\":893:939   */\n      tag_402\n        /* \"#utility.yul\":935:938   */\n      dup4\n        /* \"#utility.yul\":927:933   */\n      dup4\n        /* \"#utility.yul\":893:939   */\n      tag_345\n      jump\t// in\n    tag_402:\n        /* \"#utility.yul\":971:975   */\n      0x20\n        /* \"#utility.yul\":966:969   */\n      dup4\n        /* \"#utility.yul\":962:976   */\n      add\n        /* \"#utility.yul\":948:976   */\n      swap1\n      pop\n        /* \"#utility.yul\":803:982   */\n      swap3\n      swap2\n      pop\n      pop\n      jump\t// out\n        /* \"#utility.yul\":988:1101   */\n    tag_347:\n        /* \"#utility.yul\":1058:1062   */\n      0x00\n        /* \"#utility.yul\":1090:1094   */\n      0x20\n        /* \"#utility.yul\":1085:1088   */\n      dup3\n        /* \"#utility.yul\":1081:1095   */\n      add\n        /* \"#utility.yul\":1073:1095   */\n      swap1\n      pop\n        /* \"#utility.yul\":988:1101   */\n      swap2\n      swap1\n      pop\n      jump\t// out\n        /* \"#utility.yul\":1137:1869   */\n    tag_348:\n        /* \"#utility.yul\":1256:1259   */\n      0x00\n        /* \"#utility.yul\":1285:1339   */\n      tag_405\n        /* \"#utility.yul\":1333:1338   */\n      dup3\n        /* \"#utility.yul\":1285:1339   */\n      tag_340\n      jump\t// in\n    tag_405:\n        /* \"#utility.yul\":1355:1441   */\n      tag_406\n        /* \"#utility.yul\":1434:1440   */\n      dup2\n        /* \"#utility.yul\":1429:1432   */\n      dup6\n        /* \"#utility.yul\":1355:1441   */\n      tag_341\n      jump\t// in\n    tag_406:\n        /* \"#utility.yul\":1348:1441   */\n      swap4\n      pop\n        /* \"#utility.yul\":1465:1521   */\n      tag_407\n        /* \"#utility.yul\":1515:1520   */\n      dup4\n        /* \"#utility.yul\":1465:1521   */\n      tag_342\n      jump\t// in\n    tag_407:\n        /* \"#utility.yul\":1544:1551   */\n      dup1\n        /* \"#utility.yul\":1575:1576   */\n      0x00\n        /* \"#utility.yul\":1560:1844   */\n    tag_408:\n        /* \"#utility.yul\":1585:1591   */\n      dup4\n        /* \"#utility.yul\":1582:1583   */\n      dup2\n        /* \"#utility.yul\":1579:1592   */\n      lt\n        /* \"#utility.yul\":1560:1844   */\n      iszero\n      tag_410\n      jumpi\n        /* \"#utility.yul\":1661:1667   */\n      dup2\n        /* \"#utility.yul\":1655:1668   */\n      mload\n        /* \"#utility.yul\":1688:1751   */\n      tag_411\n        /* \"#utility.yul\":1747:1750   */\n      dup9\n        /* \"#utility.yul\":1732:1745   */\n      dup3\n        /* \"#utility.yul\":1688:1751   */\n      tag_346\n      jump\t// in\n    tag_411:\n        /* \"#utility.yul\":1681:1751   */\n      swap8\n      pop\n        /* \"#utility.yul\":1774:1834   */\n      tag_412\n        /* \"#utility.yul\":1827:1833   */\n      dup4\n        /* \"#utility.yul\":1774:1834   */\n      tag_347\n      jump\t// in\n    tag_412:\n        /* \"#utility.yul\":1764:1834   */\n      swap3\n      pop\n        /* \"#utility.yul\":1620:1844   */\n      pop\n        /* \"#utility.yul\":1607:1608   */\n      0x01\n        /* \"#utility.yul\":1604:1605   */\n      dup2\n        /* \"#utility.yul\":1600:1609   */\n      add\n        /* \"#utility.yul\":1595:1609   */\n      swap1\n      pop\n        /* \"#utility.yul\":1560:1844   */\n      jump(tag_408)\n    tag_410:\n        /* \"#utility.yul\":1564:1578   */\n      pop\n        /* \"#utility.yul\":1860:1863   */\n      dup6\n        /* \"#utility.yul\":1853:1863   */\n      swap4\n      pop\n        /* \"#utility.yul\":1261:1869   */\n      pop\n      pop\n      pop\n        /* \"#utility.yul\":1137:1869   */\n      swap3\n      swap2\n      pop\n      pop\n      jump\t// out\n        /* \"#utility.yul\":1875:2248   */\n    tag_42:\n        /* \"#utility.yul\":2018:2022   */\n      0x00\n        /* \"#utility.yul\":2056:2058   */\n      0x20\n        /* \"#utility.yul\":2045:2054   */\n      dup3\n        /* \"#utility.yul\":2041:2059   */\n      add\n        /* \"#utility.yul\":2033:2059   */\n      swap1\n      pop\n        /* \"#utility.yul\":2105:2114   */\n      dup2\n        /* \"#utility.yul\":2099:2103   */\n      dup2\n        /* \"#utility.yul\":2095:2115   */\n      sub\n        /* \"#utility.yul\":2091:2092   */\n      0x00\n        /* \"#utility.yul\":2080:2089   */\n      dup4\n        /* \"#utility.yul\":2076:2093   */\n      add\n        /* \"#utility.yul\":2069:2116   */\n      mstore\n        /* \"#utility.yul\":2133:2241   */\n      tag_414\n        /* \"#utility.yul\":2236:2240   */\n      dup2\n        /* \"#utility.yul\":2227:2233   */\n      dup5\n        /* \"#utility.yul\":2133:2241   */\n      tag_348\n      jump\t// in\n    tag_414:\n        /* \"#utility.yul\":2125:2241   */\n      swap1\n      pop\n        /* \"#utility.yul\":1875:2248   */\n      swap3\n      swap2\n      pop\n      pop\n      jump\t// out\n        /* \"#utility.yul\":2254:2372   */\n    tag_349:\n        /* \"#utility.yul\":2341:2365   */\n      tag_416\n        /* \"#utility.yul\":2359:2364   */\n      dup2\n        /* \"#utility.yul\":2341:2365   */\n      tag_344\n      jump\t// in\n    tag_416:\n        /* \"#utility.yul\":2336:2339   */\n      dup3\n        /* \"#utility.yul\":2329:2366   */\n      mstore\n        /* \"#utility.yul\":2254:2372   */\n      pop\n      pop\n      jump\t// out\n        /* \"#utility.yul\":2378:2600   */\n    tag_46:\n        /* \"#utility.yul\":2471:2475   */\n      0x00\n        /* \"#utility.yul\":2509:2511   */\n      0x20\n        /* \"#utility.yul\":2498:2507   */\n      dup3\n        /* \"#utility.yul\":2494:2512   */\n      add\n        /* \"#utility.yul\":2486:2512   */\n      swap1\n      pop\n        /* \"#utility.yul\":2522:2593   */\n      tag_418\n        /* \"#utility.yul\":2590:2591   */\n      0x00\n        /* \"#utility.yul\":2579:2588   */\n      dup4\n        /* \"#utility.yul\":2575:2592   */\n      add\n        /* \"#utility.yul\":2566:2572   */\n      dup5\n        /* \"#utility.yul\":2522:2593   */\n      tag_349\n      jump\t// in\n    tag_418:\n        /* \"#utility.yul\":2378:2600   */\n      swap3\n      swap2\n      pop\n      pop\n      jump\t// out\n        /* \"#utility.yul\":2606:2705   */\n    tag_350:\n        /* \"#utility.yul\":2658:2664   */\n      0x00\n        /* \"#utility.yul\":2692:2697   */\n      dup2\n        /* \"#utility.yul\":2686:2698   */\n      mload\n        /* \"#utility.yul\":2676:2698   */\n      swap1\n      pop\n        /* \"#utility.yul\":2606:2705   */\n      swap2\n      swap1\n      pop\n      jump\t// out\n        /* \"#utility.yul\":2711:2880   */\n    tag_351:\n        /* \"#utility.yul\":2795:2806   */\n      0x00\n        /* \"#utility.yul\":2829:2835   */\n      dup3\n        /* \"#utility.yul\":2824:2827   */\n      dup3\n        /* \"#utility.yul\":2817:2836   */\n      mstore\n        /* \"#utility.yul\":2869:2873   */\n      0x20\n        /* \"#utility.yul\":2864:2867   */\n      dup3\n        /* \"#utility.yul\":2860:2874   */\n      add\n        /* \"#utility.yul\":2845:2874   */\n      swap1\n      pop\n        /* \"#utility.yul\":2711:2880   */\n      swap3\n      swap2\n      pop\n      pop\n      jump\t// out\n        /* \"#utility.yul\":2886:3025   */\n    tag_352:\n        /* \"#utility.yul\":2975:2981   */\n      dup3\n        /* \"#utility.yul\":2970:2973   */\n      dup2\n        /* \"#utility.yul\":2965:2968   */\n      dup4\n        /* \"#utility.yul\":2959:2982   */\n      mcopy\n        /* \"#utility.yul\":3016:3017   */\n      0x00\n        /* \"#utility.yul\":3007:3013   */\n      dup4\n        /* \"#utility.yul\":3002:3005   */\n      dup4\n        /* \"#utility.yul\":2998:3014   */\n      add\n        /* \"#utility.yul\":2991:3018   */\n      mstore\n        /* \"#utility.yul\":2886:3025   */\n      pop\n      pop\n      pop\n      jump\t// out\n        /* \"#utility.yul\":3031:3133   */\n    tag_353:\n        /* \"#utility.yul\":3072:3078   */\n      0x00\n        /* \"#utility.yul\":3123:3125   */\n      0x1f\n        /* \"#utility.yul\":3119:3126   */\n      not\n        /* \"#utility.yul\":3114:3116   */\n      0x1f\n        /* \"#utility.yul\":3107:3112   */\n      dup4\n        /* \"#utility.yul\":3103:3117   */\n      add\n        /* \"#utility.yul\":3099:3127   */\n      and\n        /* \"#utility.yul\":3089:3127   */\n      swap1\n      pop\n        /* \"#utility.yul\":3031:3133   */\n      swap2\n      swap1\n      pop\n      jump\t// out\n        /* \"#utility.yul\":3139:3516   */\n    tag_354:\n        /* \"#utility.yul\":3227:3230   */\n      0x00\n        /* \"#utility.yul\":3255:3294   */\n      tag_424\n        /* \"#utility.yul\":3288:3293   */\n      dup3\n        /* \"#utility.yul\":3255:3294   */\n      tag_350\n      jump\t// in\n    tag_424:\n        /* \"#utility.yul\":3310:3381   */\n      tag_425\n        /* \"#utility.yul\":3374:3380   */\n      dup2\n        /* \"#utility.yul\":3369:3372   */\n      dup6\n        /* \"#utility.yul\":3310:3381   */\n      tag_351\n      jump\t// in\n    tag_425:\n        /* \"#utility.yul\":3303:3381   */\n      swap4\n      pop\n        /* \"#utility.yul\":3390:3455   */\n      tag_426\n        /* \"#utility.yul\":3448:3454   */\n      dup2\n        /* \"#utility.yul\":3443:3446   */\n      dup6\n        /* \"#utility.yul\":3436:3440   */\n      0x20\n        /* \"#utility.yul\":3429:3434   */\n      dup7\n        /* \"#utility.yul\":3425:3441   */\n      add\n        /* \"#utility.yul\":3390:3455   */\n      tag_352\n      jump\t// in\n    tag_426:\n        /* \"#utility.yul\":3480:3509   */\n      tag_427\n        /* \"#utility.yul\":3502:3508   */\n      dup2\n        /* \"#utility.yul\":3480:3509   */\n      tag_353\n      jump\t// in\n    tag_427:\n        /* \"#utility.yul\":3475:3478   */\n      dup5\n        /* \"#utility.yul\":3471:3510   */\n      add\n        /* \"#utility.yul\":3464:3510   */\n      swap2\n      pop\n        /* \"#utility.yul\":3231:3516   */\n      pop\n        /* \"#utility.yul\":3139:3516   */\n      swap3\n      swap2\n      pop\n      pop\n      jump\t// out\n        /* \"#utility.yul\":3522:3835   */\n    tag_52:\n        /* \"#utility.yul\":3635:3639   */\n      0x00\n        /* \"#utility.yul\":3673:3675   */\n      0x20\n        /* \"#utility.yul\":3662:3671   */\n      dup3\n        /* \"#utility.yul\":3658:3676   */\n      add\n        /* \"#utility.yul\":3650:3676   */\n      swap1\n      pop\n        /* \"#utility.yul\":3722:3731   */\n      dup2\n        /* \"#utility.yul\":3716:3720   */\n      dup2\n        /* \"#utility.yul\":3712:3732   */\n      sub\n        /* \"#utility.yul\":3708:3709   */\n      0x00\n        /* \"#utility.yul\":3697:3706   */\n      dup4\n        /* \"#utility.yul\":3693:3710   */\n      add\n        /* \"#utility.yul\":3686:3733   */\n      mstore\n        /* \"#utility.yul\":3750:3828   */\n      tag_429\n        /* \"#utility.yul\":3823:3827   */\n      dup2\n        /* \"#utility.yul\":3814:3820   */\n      dup5\n        /* \"#utility.yul\":3750:3828   */\n      tag_354\n      jump\t// in\n    tag_429:\n        /* \"#utility.yul\":3742:3828   */\n      swap1\n      pop\n        /* \"#utility.yul\":3522:3835   */\n      swap3\n      swap2\n      pop\n      pop\n      jump\t// out\n        /* \"#utility.yul\":3922:4039   */\n    tag_356:\n        /* \"#utility.yul\":4031:4032   */\n      0x00\n        /* \"#utility.yul\":4028:4029   */\n      0x00\n        /* \"#utility.yul\":4021:4033   */\n      revert\n        /* \"#utility.yul\":4168:4290   */\n    tag_358:\n        /* \"#utility.yul\":4241:4265   */\n      tag_434\n        /* \"#utility.yul\":4259:4264   */\n      dup2\n        /* \"#utility.yul\":4241:4265   */\n      tag_344\n      jump\t// in\n    tag_434:\n        /* \"#utility.yul\":4234:4239   */\n      dup2\n        /* \"#utility.yul\":4231:4266   */\n      eq\n        /* \"#utility.yul\":4221:4284   */\n      tag_435\n      jumpi\n        /* \"#utility.yul\":4280:4281   */\n      0x00\n        /* \"#utility.yul\":4277:4278   */\n      0x00\n        /* \"#utility.yul\":4270:4282   */\n      revert\n        /* \"#utility.yul\":4221:4284   */\n    tag_435:\n        /* \"#utility.yul\":4168:4290   */\n      pop\n      jump\t// out\n        /* \"#utility.yul\":4296:4435   */\n    tag_359:\n        /* \"#utility.yul\":4342:4347   */\n      0x00\n        /* \"#utility.yul\":4380:4386   */\n      dup2\n        /* \"#utility.yul\":4367:4387   */\n      calldataload\n        /* \"#utility.yul\":4358:4387   */\n      swap1\n      pop\n        /* \"#utility.yul\":4396:4429   */\n      tag_437\n        /* \"#utility.yul\":4423:4428   */\n      dup2\n        /* \"#utility.yul\":4396:4429   */\n      tag_358\n      jump\t// in\n    tag_437:\n        /* \"#utility.yul\":4296:4435   */\n      swap3\n      swap2\n      pop\n      pop\n      jump\t// out\n        /* \"#utility.yul\":4441:4518   */\n    tag_360:\n        /* \"#utility.yul\":4478:4485   */\n      0x00\n        /* \"#utility.yul\":4507:4512   */\n      dup2\n        /* \"#utility.yul\":4496:4512   */\n      swap1\n      pop\n        /* \"#utility.yul\":4441:4518   */\n      swap2\n      swap1\n      pop\n      jump\t// out\n        /* \"#utility.yul\":4524:4646   */\n    tag_361:\n        /* \"#utility.yul\":4597:4621   */\n      tag_440\n        /* \"#utility.yul\":4615:4620   */\n      dup2\n        /* \"#utility.yul\":4597:4621   */\n      tag_360\n      jump\t// in\n    tag_440:\n        /* \"#utility.yul\":4590:4595   */\n      dup2\n        /* \"#utility.yul\":4587:4622   */\n      eq\n        /* \"#utility.yul\":4577:4640   */\n      tag_441\n      jumpi\n        /* \"#utility.yul\":4636:4637   */\n      0x00\n        /* \"#utility.yul\":4633:4634   */\n      0x00\n        /* \"#utility.yul\":4626:4638   */\n      revert\n        /* \"#utility.yul\":4577:4640   */\n    tag_441:\n        /* \"#utility.yul\":4524:4646   */\n      pop\n      jump\t// out\n        /* \"#utility.yul\":4652:4791   */\n    tag_362:\n        /* \"#utility.yul\":4698:4703   */\n      0x00\n        /* \"#utility.yul\":4736:4742   */\n      dup2\n        /* \"#utility.yul\":4723:4743   */\n      calldataload\n        /* \"#utility.yul\":4714:4743   */\n      swap1\n      pop\n        /* \"#utility.yul\":4752:4785   */\n      tag_443\n        /* \"#utility.yul\":4779:4784   */\n      dup2\n        /* \"#utility.yul\":4752:4785   */\n      tag_361\n      jump\t// in\n    tag_443:\n        /* \"#utility.yul\":4652:4791   */\n      swap3\n      swap2\n      pop\n      pop\n      jump\t// out\n        /* \"#utility.yul\":4797:5271   */\n    tag_55:\n        /* \"#utility.yul\":4865:4871   */\n      0x00\n        /* \"#utility.yul\":4873:4879   */\n      0x00\n        /* \"#utility.yul\":4922:4924   */\n      0x40\n        /* \"#utility.yul\":4910:4919   */\n      dup4\n        /* \"#utility.yul\":4901:4908   */\n      dup6\n        /* \"#utility.yul\":4897:4920   */\n      sub\n        /* \"#utility.yul\":4893:4925   */\n      slt\n        /* \"#utility.yul\":4890:5009   */\n      iszero\n      tag_445\n      jumpi\n        /* \"#utility.yul\":4928:5007   */\n      tag_446\n      tag_356\n      jump\t// in\n    tag_446:\n        /* \"#utility.yul\":4890:5009   */\n    tag_445:\n        /* \"#utility.yul\":5048:5049   */\n      0x00\n        /* \"#utility.yul\":5073:5126   */\n      tag_447\n        /* \"#utility.yul\":5118:5125   */\n      dup6\n        /* \"#utility.yul\":5109:5115   */\n      dup3\n        /* \"#utility.yul\":5098:5107   */\n      dup7\n        /* \"#utility.yul\":5094:5116   */\n      add\n        /* \"#utility.yul\":5073:5126   */\n      tag_359\n      jump\t// in\n    tag_447:\n        /* \"#utility.yul\":5063:5126   */\n      swap3\n      pop\n        /* \"#utility.yul\":5019:5136   */\n      pop\n        /* \"#utility.yul\":5175:5177   */\n      0x20\n        /* \"#utility.yul\":5201:5254   */\n      tag_448\n        /* \"#utility.yul\":5246:5253   */\n      dup6\n        /* \"#utility.yul\":5237:5243   */\n      dup3\n        /* \"#utility.yul\":5226:5235   */\n      dup7\n        /* \"#utility.yul\":5222:5244   */\n      add\n        /* \"#utility.yul\":5201:5254   */\n      tag_362\n      jump\t// in\n    tag_448:\n        /* \"#utility.yul\":5191:5254   */\n      swap2\n      pop\n        /* \"#utility.yul\":5146:5264   */\n      pop\n        /* \"#utility.yul\":4797:5271   */\n      swap3\n      pop\n      swap3\n      swap1\n      pop\n      jump\t// out\n        /* \"#utility.yul\":5277:5367   */\n    tag_363:\n        /* \"#utility.yul\":5311:5318   */\n      0x00\n        /* \"#utility.yul\":5354:5359   */\n      dup2\n        /* \"#utility.yul\":5347:5360   */\n      iszero\n        /* \"#utility.yul\":5340:5361   */\n      iszero\n        /* \"#utility.yul\":5329:5361   */\n      swap1\n      pop\n        /* \"#utility.yul\":5277:5367   */\n      swap2\n      swap1\n      pop\n      jump\t// out\n        /* \"#utility.yul\":5373:5482   */\n    tag_364:\n        /* \"#utility.yul\":5454:5475   */\n      tag_451\n        /* \"#utility.yul\":5469:5474   */\n      dup2\n        /* \"#utility.yul\":5454:5475   */\n      tag_363\n      jump\t// in\n    tag_451:\n        /* \"#utility.yul\":5449:5452   */\n      dup3\n        /* \"#utility.yul\":5442:5476   */\n      mstore\n        /* \"#utility.yul\":5373:5482   */\n      pop\n      pop\n      jump\t// out\n        /* \"#utility.yul\":5488:5698   */\n    tag_58:\n        /* \"#utility.yul\":5575:5579   */\n      0x00\n        /* \"#utility.yul\":5613:5615   */\n      0x20\n        /* \"#utility.yul\":5602:5611   */\n      dup3\n        /* \"#utility.yul\":5598:5616   */\n      add\n        /* \"#utility.yul\":5590:5616   */\n      swap1\n      pop\n        /* \"#utility.yul\":5626:5691   */\n      tag_453\n        /* \"#utility.yul\":5688:5689   */\n      0x00\n        /* \"#utility.yul\":5677:5686   */\n      dup4\n        /* \"#utility.yul\":5673:5690   */\n      add\n        /* \"#utility.yul\":5664:5670   */\n      dup5\n        /* \"#utility.yul\":5626:5691   */\n      tag_364\n      jump\t// in\n    tag_453:\n        /* \"#utility.yul\":5488:5698   */\n      swap3\n      swap2\n      pop\n      pop\n      jump\t// out\n        /* \"#utility.yul\":5704:5822   */\n    tag_365:\n        /* \"#utility.yul\":5791:5815   */\n      tag_455\n        /* \"#utility.yul\":5809:5814   */\n      dup2\n        /* \"#utility.yul\":5791:5815   */\n      tag_360\n      jump\t// in\n    tag_455:\n        /* \"#utility.yul\":5786:5789   */\n      dup3\n        /* \"#utility.yul\":5779:5816   */\n      mstore\n        /* \"#utility.yul\":5704:5822   */\n      pop\n      pop\n      jump\t// out\n        /* \"#utility.yul\":5828:6050   */\n    tag_62:\n        /* \"#utility.yul\":5921:5925   */\n      0x00\n        /* \"#utility.yul\":5959:5961   */\n      0x20\n        /* \"#utility.yul\":5948:5957   */\n      dup3\n        /* \"#utility.yul\":5944:5962   */\n      add\n        /* \"#utility.yul\":5936:5962   */\n      swap1\n      pop\n        /* \"#utility.yul\":5972:6043   */\n      tag_457\n        /* \"#utility.yul\":6040:6041   */\n      0x00\n        /* \"#utility.yul\":6029:6038   */\n      dup4\n        /* \"#utility.yul\":6025:6042   */\n      add\n        /* \"#utility.yul\":6016:6022   */\n      dup5\n        /* \"#utility.yul\":5972:6043   */\n      tag_365\n      jump\t// in\n    tag_457:\n        /* \"#utility.yul\":5828:6050   */\n      swap3\n      swap2\n      pop\n      pop\n      jump\t// out\n        /* \"#utility.yul\":6056:6675   */\n    tag_65:\n        /* \"#utility.yul\":6133:6139   */\n      0x00\n        /* \"#utility.yul\":6141:6147   */\n      0x00\n        /* \"#utility.yul\":6149:6155   */\n      0x00\n        /* \"#utility.yul\":6198:6200   */\n      0x60\n        /* \"#utility.yul\":6186:6195   */\n      dup5\n        /* \"#utility.yul\":6177:6184   */\n      dup7\n        /* \"#utility.yul\":6173:6196   */\n      sub\n        /* \"#utility.yul\":6169:6201   */\n      slt\n        /* \"#utility.yul\":6166:6285   */\n      iszero\n      tag_459\n      jumpi\n        /* \"#utility.yul\":6204:6283   */\n      tag_460\n      tag_356\n      jump\t// in\n    tag_460:\n        /* \"#utility.yul\":6166:6285   */\n    tag_459:\n        /* \"#utility.yul\":6324:6325   */\n      0x00\n        /* \"#utility.yul\":6349:6402   */\n      tag_461\n        /* \"#utility.yul\":6394:6401   */\n      dup7\n        /* \"#utility.yul\":6385:6391   */\n      dup3\n        /* \"#utility.yul\":6374:6383   */\n      dup8\n        /* \"#utility.yul\":6370:6392   */\n      add\n        /* \"#utility.yul\":6349:6402   */\n      tag_359\n      jump\t// in\n    tag_461:\n        /* \"#utility.yul\":6339:6402   */\n      swap4\n      pop\n        /* \"#utility.yul\":6295:6412   */\n      pop\n        /* \"#utility.yul\":6451:6453   */\n      0x20\n        /* \"#utility.yul\":6477:6530   */\n      tag_462\n        /* \"#utility.yul\":6522:6529   */\n      dup7\n        /* \"#utility.yul\":6513:6519   */\n      dup3\n        /* \"#utility.yul\":6502:6511   */\n      dup8\n        /* \"#utility.yul\":6498:6520   */\n      add\n        /* \"#utility.yul\":6477:6530   */\n      tag_359\n      jump\t// in\n    tag_462:\n        /* \"#utility.yul\":6467:6530   */\n      swap3\n      pop\n        /* \"#utility.yul\":6422:6540   */\n      pop\n        /* \"#utility.yul\":6579:6581   */\n      0x40\n        /* \"#utility.yul\":6605:6658   */\n      tag_463\n        /* \"#utility.yul\":6650:6657   */\n      dup7\n        /* \"#utility.yul\":6641:6647   */\n      dup3\n        /* \"#utility.yul\":6630:6639   */\n      dup8\n        /* \"#utility.yul\":6626:6648   */\n      add\n        /* \"#utility.yul\":6605:6658   */\n      tag_362\n      jump\t// in\n    tag_463:\n        /* \"#utility.yul\":6595:6658   */\n      swap2\n      pop\n        /* \"#utility.yul\":6550:6668   */\n      pop\n        /* \"#utility.yul\":6056:6675   */\n      swap3\n      pop\n      swap3\n      pop\n      swap3\n      jump\t// out\n        /* \"#utility.yul\":6681:6767   */\n    tag_366:\n        /* \"#utility.yul\":6716:6723   */\n      0x00\n        /* \"#utility.yul\":6756:6760   */\n      0xff\n        /* \"#utility.yul\":6749:6754   */\n      dup3\n        /* \"#utility.yul\":6745:6761   */\n      and\n        /* \"#utility.yul\":6734:6761   */\n      swap1\n      pop\n        /* \"#utility.yul\":6681:6767   */\n      swap2\n      swap1\n      pop\n      jump\t// out\n        /* \"#utility.yul\":6773:6885   */\n    tag_367:\n        /* \"#utility.yul\":6856:6878   */\n      tag_466\n        /* \"#utility.yul\":6872:6877   */\n      dup2\n        /* \"#utility.yul\":6856:6878   */\n      tag_366\n      jump\t// in\n    tag_466:\n        /* \"#utility.yul\":6851:6854   */\n      dup3\n        /* \"#utility.yul\":6844:6879   */\n      mstore\n        /* \"#utility.yul\":6773:6885   */\n      pop\n      pop\n      jump\t// out\n        /* \"#utility.yul\":6891:7105   */\n    tag_77:\n        /* \"#utility.yul\":6980:6984   */\n      0x00\n        /* \"#utility.yul\":7018:7020   */\n      0x20\n        /* \"#utility.yul\":7007:7016   */\n      dup3\n        /* \"#utility.yul\":7003:7021   */\n      add\n        /* \"#utility.yul\":6995:7021   */\n      swap1\n      pop\n        /* \"#utility.yul\":7031:7098   */\n      tag_468\n        /* \"#utility.yul\":7095:7096   */\n      0x00\n        /* \"#utility.yul\":7084:7093   */\n      dup4\n        /* \"#utility.yul\":7080:7097   */\n      add\n        /* \"#utility.yul\":7071:7077   */\n      dup5\n        /* \"#utility.yul\":7031:7098   */\n      tag_367\n      jump\t// in\n    tag_468:\n        /* \"#utility.yul\":6891:7105   */\n      swap3\n      swap2\n      pop\n      pop\n      jump\t// out\n        /* \"#utility.yul\":7111:7440   */\n    tag_83:\n        /* \"#utility.yul\":7170:7176   */\n      0x00\n        /* \"#utility.yul\":7219:7221   */\n      0x20\n        /* \"#utility.yul\":7207:7216   */\n      dup3\n        /* \"#utility.yul\":7198:7205   */\n      dup5\n        /* \"#utility.yul\":7194:7217   */\n      sub\n        /* \"#utility.yul\":7190:7222   */\n      slt\n        /* \"#utility.yul\":7187:7306   */\n      iszero\n      tag_470\n      jumpi\n        /* \"#utility.yul\":7225:7304   */\n      tag_471\n      tag_356\n      jump\t// in\n    tag_471:\n        /* \"#utility.yul\":7187:7306   */\n    tag_470:\n        /* \"#utility.yul\":7345:7346   */\n      0x00\n        /* \"#utility.yul\":7370:7423   */\n      tag_472\n        /* \"#utility.yul\":7415:7422   */\n      dup5\n        /* \"#utility.yul\":7406:7412   */\n      dup3\n        /* \"#utility.yul\":7395:7404   */\n      dup6\n        /* \"#utility.yul\":7391:7413   */\n      add\n        /* \"#utility.yul\":7370:7423   */\n      tag_359\n      jump\t// in\n    tag_472:\n        /* \"#utility.yul\":7360:7423   */\n      swap2\n      pop\n        /* \"#utility.yul\":7316:7433   */\n      pop\n        /* \"#utility.yul\":7111:7440   */\n      swap3\n      swap2\n      pop\n      pop\n      jump\t// out\n        /* \"#utility.yul\":7446:7920   */\n    tag_126:\n        /* \"#utility.yul\":7514:7520   */\n      0x00\n        /* \"#utility.yul\":7522:7528   */\n      0x00\n        /* \"#utility.yul\":7571:7573   */\n      0x40\n        /* \"#utility.yul\":7559:7568   */\n      dup4\n        /* \"#utility.yul\":7550:7557   */\n      dup6\n        /* \"#utility.yul\":7546:7569   */\n      sub\n        /* \"#utility.yul\":7542:7574   */\n      slt\n        /* \"#utility.yul\":7539:7658   */\n      iszero\n      tag_474\n      jumpi\n        /* \"#utility.yul\":7577:7656   */\n      tag_475\n      tag_356\n      jump\t// in\n    tag_475:\n        /* \"#utility.yul\":7539:7658   */\n    tag_474:\n        /* \"#utility.yul\":7697:7698   */\n      0x00\n        /* \"#utility.yul\":7722:7775   */\n      tag_476\n        /* \"#utility.yul\":7767:7774   */\n      dup6\n        /* \"#utility.yul\":7758:7764   */\n      dup3\n        /* \"#utility.yul\":7747:7756   */\n      dup7\n        /* \"#utility.yul\":7743:7765   */\n      add\n        /* \"#utility.yul\":7722:7775   */\n      tag_359\n      jump\t// in\n    tag_476:\n        /* \"#utility.yul\":7712:7775   */\n      swap3\n      pop\n        /* \"#utility.yul\":7668:7785   */\n      pop\n        /* \"#utility.yul\":7824:7826   */\n      0x20\n        /* \"#utility.yul\":7850:7903   */\n      tag_477\n        /* \"#utility.yul\":7895:7902   */\n      dup6\n        /* \"#utility.yul\":7886:7892   */\n      dup3\n        /* \"#utility.yul\":7875:7884   */\n      dup7\n        /* \"#utility.yul\":7871:7893   */\n      add\n        /* \"#utility.yul\":7850:7903   */\n      tag_359\n      jump\t// in\n    tag_477:\n        /* \"#utility.yul\":7840:7903   */\n      swap2\n      pop\n        /* \"#utility.yul\":7795:7913   */\n      pop\n        /* \"#utility.yul\":7446:7920   */\n      swap3\n      pop\n      swap3\n      swap1\n      pop\n      jump\t// out\n        /* \"#utility.yul\":7926:8103   */\n    tag_368:\n        /* \"#utility.yul\":8066:8095   */\n      0x43616c6c6572206973206e6f742074686520646576656c6f7065720000000000\n        /* \"#utility.yul\":8062:8063   */\n      0x00\n        /* \"#utility.yul\":8054:8060   */\n      dup3\n        /* \"#utility.yul\":8050:8064   */\n      add\n        /* \"#utility.yul\":8043:8096   */\n      mstore\n        /* \"#utility.yul\":7926:8103   */\n      pop\n      jump\t// out\n        /* \"#utility.yul\":8109:8475   */\n    tag_369:\n        /* \"#utility.yul\":8251:8254   */\n      0x00\n        /* \"#utility.yul\":8272:8339   */\n      tag_480\n        /* \"#utility.yul\":8336:8338   */\n      0x1b\n        /* \"#utility.yul\":8331:8334   */\n      dup4\n        /* \"#utility.yul\":8272:8339   */\n      tag_351\n      jump\t// in\n    tag_480:\n        /* \"#utility.yul\":8265:8339   */\n      swap2\n      pop\n        /* \"#utility.yul\":8348:8441   */\n      tag_481\n        /* \"#utility.yul\":8437:8440   */\n      dup3\n        /* \"#utility.yul\":8348:8441   */\n      tag_368\n      jump\t// in\n    tag_481:\n        /* \"#utility.yul\":8466:8468   */\n      0x20\n        /* \"#utility.yul\":8461:8464   */\n      dup3\n        /* \"#utility.yul\":8457:8469   */\n      add\n        /* \"#utility.yul\":8450:8469   */\n      swap1\n      pop\n        /* \"#utility.yul\":8109:8475   */\n      swap2\n      swap1\n      pop\n      jump\t// out\n        /* \"#utility.yul\":8481:8900   */\n    tag_143:\n        /* \"#utility.yul\":8647:8651   */\n      0x00\n        /* \"#utility.yul\":8685:8687   */\n      0x20\n        /* \"#utility.yul\":8674:8683   */\n      dup3\n        /* \"#utility.yul\":8670:8688   */\n      add\n        /* \"#utility.yul\":8662:8688   */\n      swap1\n      pop\n        /* \"#utility.yul\":8734:8743   */\n      dup2\n        /* \"#utility.yul\":8728:8732   */\n      dup2\n        /* \"#utility.yul\":8724:8744   */\n      sub\n        /* \"#utility.yul\":8720:8721   */\n      0x00\n        /* \"#utility.yul\":8709:8718   */\n      dup4\n        /* \"#utility.yul\":8705:8722   */\n      add\n        /* \"#utility.yul\":8698:8745   */\n      mstore\n        /* \"#utility.yul\":8762:8893   */\n      tag_483\n        /* \"#utility.yul\":8888:8892   */\n      dup2\n        /* \"#utility.yul\":8762:8893   */\n      tag_369\n      jump\t// in\n    tag_483:\n        /* \"#utility.yul\":8754:8893   */\n      swap1\n      pop\n        /* \"#utility.yul\":8481:8900   */\n      swap2\n      swap1\n      pop\n      jump\t// out\n        /* \"#utility.yul\":8906:9128   */\n    tag_370:\n        /* \"#utility.yul\":9046:9080   */\n      0x4e6f20646576656c6f706572206368616e676520726571756573742070656e64\n        /* \"#utility.yul\":9042:9043   */\n      0x00\n        /* \"#utility.yul\":9034:9040   */\n      dup3\n        /* \"#utility.yul\":9030:9044   */\n      add\n        /* \"#utility.yul\":9023:9081   */\n      mstore\n        /* \"#utility.yul\":9115:9120   */\n      0x696e670000000000000000000000000000000000000000000000000000000000\n        /* \"#utility.yul\":9110:9112   */\n      0x20\n        /* \"#utility.yul\":9102:9108   */\n      dup3\n        /* \"#utility.yul\":9098:9113   */\n      add\n        /* \"#utility.yul\":9091:9121   */\n      mstore\n        /* \"#utility.yul\":8906:9128   */\n      pop\n      jump\t// out\n        /* \"#utility.yul\":9134:9500   */\n    tag_371:\n        /* \"#utility.yul\":9276:9279   */\n      0x00\n        /* \"#utility.yul\":9297:9364   */\n      tag_486\n        /* \"#utility.yul\":9361:9363   */\n      0x23\n        /* \"#utility.yul\":9356:9359   */\n      dup4\n        /* \"#utility.yul\":9297:9364   */\n      tag_351\n      jump\t// in\n    tag_486:\n        /* \"#utility.yul\":9290:9364   */\n      swap2\n      pop\n        /* \"#utility.yul\":9373:9466   */\n      tag_487\n        /* \"#utility.yul\":9462:9465   */\n      dup3\n        /* \"#utility.yul\":9373:9466   */\n      tag_370\n      jump\t// in\n    tag_487:\n        /* \"#utility.yul\":9491:9493   */\n      0x40\n        /* \"#utility.yul\":9486:9489   */\n      dup3\n        /* \"#utility.yul\":9482:9494   */\n      add\n        /* \"#utility.yul\":9475:9494   */\n      swap1\n      pop\n        /* \"#utility.yul\":9134:9500   */\n      swap2\n      swap1\n      pop\n      jump\t// out\n        /* \"#utility.yul\":9506:9925   */\n    tag_147:\n        /* \"#utility.yul\":9672:9676   */\n      0x00\n        /* \"#utility.yul\":9710:9712   */\n      0x20\n        /* \"#utility.yul\":9699:9708   */\n      dup3\n        /* \"#utility.yul\":9695:9713   */\n      add\n        /* \"#utility.yul\":9687:9713   */\n      swap1\n      pop\n        /* \"#utility.yul\":9759:9768   */\n      dup2\n        /* \"#utility.yul\":9753:9757   */\n      dup2\n        /* \"#utility.yul\":9749:9769   */\n      sub\n        /* \"#utility.yul\":9745:9746   */\n      0x00\n        /* \"#utility.yul\":9734:9743   */\n      dup4\n        /* \"#utility.yul\":9730:9747   */\n      add\n        /* \"#utility.yul\":9723:9770   */\n      mstore\n        /* \"#utility.yul\":9787:9918   */\n      tag_489\n        /* \"#utility.yul\":9913:9917   */\n      dup2\n        /* \"#utility.yul\":9787:9918   */\n      tag_371\n      jump\t// in\n    tag_489:\n        /* \"#utility.yul\":9779:9918   */\n      swap1\n      pop\n        /* \"#utility.yul\":9506:9925   */\n      swap2\n      swap1\n      pop\n      jump\t// out\n        /* \"#utility.yul\":9931:10111   */\n    tag_372:\n        /* \"#utility.yul\":9979:10056   */\n      0x4e487b7100000000000000000000000000000000000000000000000000000000\n        /* \"#utility.yul\":9976:9977   */\n      0x00\n        /* \"#utility.yul\":9969:10057   */\n      mstore\n        /* \"#utility.yul\":10076:10080   */\n      0x22\n        /* \"#utility.yul\":10073:10074   */\n      0x04\n        /* \"#utility.yul\":10066:10081   */\n      mstore\n        /* \"#utility.yul\":10100:10104   */\n      0x24\n        /* \"#utility.yul\":10097:10098   */\n      0x00\n        /* \"#utility.yul\":10090:10105   */\n      revert\n        /* \"#utility.yul\":10117:10437   */\n    tag_150:\n        /* \"#utility.yul\":10161:10167   */\n      0x00\n        /* \"#utility.yul\":10198:10199   */\n      0x02\n        /* \"#utility.yul\":10192:10196   */\n      dup3\n        /* \"#utility.yul\":10188:10200   */\n      div\n        /* \"#utility.yul\":10178:10200   */\n      swap1\n      pop\n        /* \"#utility.yul\":10245:10246   */\n      0x01\n        /* \"#utility.yul\":10239:10243   */\n      dup3\n        /* \"#utility.yul\":10235:10247   */\n      and\n        /* \"#utility.yul\":10266:10284   */\n      dup1\n        /* \"#utility.yul\":10256:10337   */\n      tag_492\n      jumpi\n        /* \"#utility.yul\":10322:10326   */\n      0x7f\n        /* \"#utility.yul\":10314:10320   */\n      dup3\n        /* \"#utility.yul\":10310:10327   */\n      and\n        /* \"#utility.yul\":10300:10327   */\n      swap2\n      pop\n        /* \"#utility.yul\":10256:10337   */\n    tag_492:\n        /* \"#utility.yul\":10384:10386   */\n      0x20\n        /* \"#utility.yul\":10376:10382   */\n      dup3\n        /* \"#utility.yul\":10373:10387   */\n      lt\n        /* \"#utility.yul\":10353:10371   */\n      dup2\n        /* \"#utility.yul\":10350:10388   */\n      sub\n        /* \"#utility.yul\":10347:10431   */\n      tag_493\n      jumpi\n        /* \"#utility.yul\":10403:10421   */\n      tag_494\n      tag_372\n      jump\t// in\n    tag_494:\n        /* \"#utility.yul\":10347:10431   */\n    tag_493:\n        /* \"#utility.yul\":10168:10437   */\n      pop\n        /* \"#utility.yul\":10117:10437   */\n      swap2\n      swap1\n      pop\n      jump\t// out\n        /* \"#utility.yul\":10443:10623   */\n    tag_373:\n        /* \"#utility.yul\":10583:10615   */\n      0x43616c6c6572206973206e6f7420746865205661756c744d616e616765720000\n        /* \"#utility.yul\":10579:10580   */\n      0x00\n        /* \"#utility.yul\":10571:10577   */\n      dup3\n        /* \"#utility.yul\":10567:10581   */\n      add\n        /* \"#utility.yul\":10560:10616   */\n      mstore\n        /* \"#utility.yul\":10443:10623   */\n      pop\n      jump\t// out\n        /* \"#utility.yul\":10629:10995   */\n    tag_374:\n        /* \"#utility.yul\":10771:10774   */\n      0x00\n        /* \"#utility.yul\":10792:10859   */\n      tag_497\n        /* \"#utility.yul\":10856:10858   */\n      0x1e\n        /* \"#utility.yul\":10851:10854   */\n      dup4\n        /* \"#utility.yul\":10792:10859   */\n      tag_351\n      jump\t// in\n    tag_497:\n        /* \"#utility.yul\":10785:10859   */\n      swap2\n      pop\n        /* \"#utility.yul\":10868:10961   */\n      tag_498\n        /* \"#utility.yul\":10957:10960   */\n      dup3\n        /* \"#utility.yul\":10868:10961   */\n      tag_373\n      jump\t// in\n    tag_498:\n        /* \"#utility.yul\":10986:10988   */\n      0x20\n        /* \"#utility.yul\":10981:10984   */\n      dup3\n        /* \"#utility.yul\":10977:10989   */\n      add\n        /* \"#utility.yul\":10970:10989   */\n      swap1\n      pop\n        /* \"#utility.yul\":10629:10995   */\n      swap2\n      swap1\n      pop\n      jump\t// out\n        /* \"#utility.yul\":11001:11420   */\n    tag_171:\n        /* \"#utility.yul\":11167:11171   */\n      0x00\n        /* \"#utility.yul\":11205:11207   */\n      0x20\n        /* \"#utility.yul\":11194:11203   */\n      dup3\n        /* \"#utility.yul\":11190:11208   */\n      add\n        /* \"#utility.yul\":11182:11208   */\n      swap1\n      pop\n        /* \"#utility.yul\":11254:11263   */\n      dup2\n        /* \"#utility.yul\":11248:11252   */\n      dup2\n        /* \"#utility.yul\":11244:11264   */\n      sub\n        /* \"#utility.yul\":11240:11241   */\n      0x00\n        /* \"#utility.yul\":11229:11238   */\n      dup4\n        /* \"#utility.yul\":11225:11242   */\n      add\n        /* \"#utility.yul\":11218:11265   */\n      mstore\n        /* \"#utility.yul\":11282:11413   */\n      tag_500\n        /* \"#utility.yul\":11408:11412   */\n      dup2\n        /* \"#utility.yul\":11282:11413   */\n      tag_374\n      jump\t// in\n    tag_500:\n        /* \"#utility.yul\":11274:11413   */\n      swap1\n      pop\n        /* \"#utility.yul\":11001:11420   */\n      swap2\n      swap1\n      pop\n      jump\t// out\n        /* \"#utility.yul\":11426:11607   */\n    tag_375:\n        /* \"#utility.yul\":11566:11599   */\n      0x4e6f206f776e6572206368616e676520726571756573742070656e64696e6700\n        /* \"#utility.yul\":11562:11563   */\n      0x00\n        /* \"#utility.yul\":11554:11560   */\n      dup3\n        /* \"#utility.yul\":11550:11564   */\n      add\n        /* \"#utility.yul\":11543:11600   */\n      mstore\n        /* \"#utility.yul\":11426:11607   */\n      pop\n      jump\t// out\n        /* \"#utility.yul\":11613:11979   */\n    tag_376:\n        /* \"#utility.yul\":11755:11758   */\n      0x00\n        /* \"#utility.yul\":11776:11843   */\n      tag_503\n        /* \"#utility.yul\":11840:11842   */\n      0x1f\n        /* \"#utility.yul\":11835:11838   */\n      dup4\n        /* \"#utility.yul\":11776:11843   */\n      tag_351\n      jump\t// in\n    tag_503:\n        /* \"#utility.yul\":11769:11843   */\n      swap2\n      pop\n        /* \"#utility.yul\":11852:11945   */\n      tag_504\n        /* \"#utility.yul\":11941:11944   */\n      dup3\n        /* \"#utility.yul\":11852:11945   */\n      tag_375\n      jump\t// in\n    tag_504:\n        /* \"#utility.yul\":11970:11972   */\n      0x20\n        /* \"#utility.yul\":11965:11968   */\n      dup3\n        /* \"#utility.yul\":11961:11973   */\n      add\n        /* \"#utility.yul\":11954:11973   */\n      swap1\n      pop\n        /* \"#utility.yul\":11613:11979   */\n      swap2\n      swap1\n      pop\n      jump\t// out\n        /* \"#utility.yul\":11985:12404   */\n    tag_187:\n        /* \"#utility.yul\":12151:12155   */\n      0x00\n        /* \"#utility.yul\":12189:12191   */\n      0x20\n        /* \"#utility.yul\":12178:12187   */\n      dup3\n        /* \"#utility.yul\":12174:12192   */\n      add\n        /* \"#utility.yul\":12166:12192   */\n      swap1\n      pop\n        /* \"#utility.yul\":12238:12247   */\n      dup2\n        /* \"#utility.yul\":12232:12236   */\n      dup2\n        /* \"#utility.yul\":12228:12248   */\n      sub\n        /* \"#utility.yul\":12224:12225   */\n      0x00\n        /* \"#utility.yul\":12213:12222   */\n      dup4\n        /* \"#utility.yul\":12209:12226   */\n      add\n        /* \"#utility.yul\":12202:12249   */\n      mstore\n        /* \"#utility.yul\":12266:12397   */\n      tag_506\n        /* \"#utility.yul\":12392:12396   */\n      dup2\n        /* \"#utility.yul\":12266:12397   */\n      tag_376\n      jump\t// in\n    tag_506:\n        /* \"#utility.yul\":12258:12397   */\n      swap1\n      pop\n        /* \"#utility.yul\":11985:12404   */\n      swap2\n      swap1\n      pop\n      jump\t// out\n        /* \"#utility.yul\":12410:12633   */\n    tag_377:\n        /* \"#utility.yul\":12550:12584   */\n      0x4e657720646576656c6f7065722063616e6e6f74206265207a65726f20616464\n        /* \"#utility.yul\":12546:12547   */\n      0x00\n        /* \"#utility.yul\":12538:12544   */\n      dup3\n        /* \"#utility.yul\":12534:12548   */\n      add\n        /* \"#utility.yul\":12527:12585   */\n      mstore\n        /* \"#utility.yul\":12619:12625   */\n      0x7265737300000000000000000000000000000000000000000000000000000000\n        /* \"#utility.yul\":12614:12616   */\n      0x20\n        /* \"#utility.yul\":12606:12612   */\n      dup3\n        /* \"#utility.yul\":12602:12617   */\n      add\n        /* \"#utility.yul\":12595:12626   */\n      mstore\n        /* \"#utility.yul\":12410:12633   */\n      pop\n      jump\t// out\n        /* \"#utility.yul\":12639:13005   */\n    tag_378:\n        /* \"#utility.yul\":12781:12784   */\n      0x00\n        /* \"#utility.yul\":12802:12869   */\n      tag_509\n        /* \"#utility.yul\":12866:12868   */\n      0x24\n        /* \"#utility.yul\":12861:12864   */\n      dup4\n        /* \"#utility.yul\":12802:12869   */\n      tag_351\n      jump\t// in\n    tag_509:\n        /* \"#utility.yul\":12795:12869   */\n      swap2\n      pop\n        /* \"#utility.yul\":12878:12971   */\n      tag_510\n        /* \"#utility.yul\":12967:12970   */\n      dup3\n        /* \"#utility.yul\":12878:12971   */\n      tag_377\n      jump\t// in\n    tag_510:\n        /* \"#utility.yul\":12996:12998   */\n      0x40\n        /* \"#utility.yul\":12991:12994   */\n      dup3\n        /* \"#utility.yul\":12987:12999   */\n      add\n        /* \"#utility.yul\":12980:12999   */\n      swap1\n      pop\n        /* \"#utility.yul\":12639:13005   */\n      swap2\n      swap1\n      pop\n      jump\t// out\n        /* \"#utility.yul\":13011:13430   */\n    tag_200:\n        /* \"#utility.yul\":13177:13181   */\n      0x00\n        /* \"#utility.yul\":13215:13217   */\n      0x20\n        /* \"#utility.yul\":13204:13213   */\n      dup3\n        /* \"#utility.yul\":13200:13218   */\n      add\n        /* \"#utility.yul\":13192:13218   */\n      swap1\n      pop\n        /* \"#utility.yul\":13264:13273   */\n      dup2\n        /* \"#utility.yul\":13258:13262   */\n      dup2\n        /* \"#utility.yul\":13254:13274   */\n      sub\n        /* \"#utility.yul\":13250:13251   */\n      0x00\n        /* \"#utility.yul\":13239:13248   */\n      dup4\n        /* \"#utility.yul\":13235:13252   */\n      add\n        /* \"#utility.yul\":13228:13275   */\n      mstore\n        /* \"#utility.yul\":13292:13423   */\n      tag_512\n        /* \"#utility.yul\":13418:13422   */\n      dup2\n        /* \"#utility.yul\":13292:13423   */\n      tag_378\n      jump\t// in\n    tag_512:\n        /* \"#utility.yul\":13284:13423   */\n      swap1\n      pop\n        /* \"#utility.yul\":13011:13430   */\n      swap2\n      swap1\n      pop\n      jump\t// out\n        /* \"#utility.yul\":13436:13657   */\n    tag_379:\n        /* \"#utility.yul\":13576:13610   */\n      0x446576656c6f706572206368616e676520616c72656164792072657175657374\n        /* \"#utility.yul\":13572:13573   */\n      0x00\n        /* \"#utility.yul\":13564:13570   */\n      dup3\n        /* \"#utility.yul\":13560:13574   */\n      add\n        /* \"#utility.yul\":13553:13611   */\n      mstore\n        /* \"#utility.yul\":13645:13649   */\n      0x6564000000000000000000000000000000000000000000000000000000000000\n        /* \"#utility.yul\":13640:13642   */\n      0x20\n        /* \"#utility.yul\":13632:13638   */\n      dup3\n        /* \"#utility.yul\":13628:13643   */\n      add\n        /* \"#utility.yul\":13621:13650   */\n      mstore\n        /* \"#utility.yul\":13436:13657   */\n      pop\n      jump\t// out\n        /* \"#utility.yul\":13663:14029   */\n    tag_380:\n        /* \"#utility.yul\":13805:13808   */\n      0x00\n        /* \"#utility.yul\":13826:13893   */\n      tag_515\n        /* \"#utility.yul\":13890:13892   */\n      0x22\n        /* \"#utility.yul\":13885:13888   */\n      dup4\n        /* \"#utility.yul\":13826:13893   */\n      tag_351\n      jump\t// in\n    tag_515:\n        /* \"#utility.yul\":13819:13893   */\n      swap2\n      pop\n        /* \"#utility.yul\":13902:13995   */\n      tag_516\n        /* \"#utility.yul\":13991:13994   */\n      dup3\n        /* \"#utility.yul\":13902:13995   */\n      tag_379\n      jump\t// in\n    tag_516:\n        /* \"#utility.yul\":14020:14022   */\n      0x40\n        /* \"#utility.yul\":14015:14018   */\n      dup3\n        /* \"#utility.yul\":14011:14023   */\n      add\n        /* \"#utility.yul\":14004:14023   */\n      swap1\n      pop\n        /* \"#utility.yul\":13663:14029   */\n      swap2\n      swap1\n      pop\n      jump\t// out\n        /* \"#utility.yul\":14035:14454   */\n    tag_203:\n        /* \"#utility.yul\":14201:14205   */\n      0x00\n        /* \"#utility.yul\":14239:14241   */\n      0x20\n        /* \"#utility.yul\":14228:14237   */\n      dup3\n        /* \"#utility.yul\":14224:14242   */\n      add\n        /* \"#utility.yul\":14216:14242   */\n      swap1\n      pop\n        /* \"#utility.yul\":14288:14297   */\n      dup2\n        /* \"#utility.yul\":14282:14286   */\n      dup2\n        /* \"#utility.yul\":14278:14298   */\n      sub\n        /* \"#utility.yul\":14274:14275   */\n      0x00\n        /* \"#utility.yul\":14263:14272   */\n      dup4\n        /* \"#utility.yul\":14259:14276   */\n      add\n        /* \"#utility.yul\":14252:14299   */\n      mstore\n        /* \"#utility.yul\":14316:14447   */\n      tag_518\n        /* \"#utility.yul\":14442:14446   */\n      dup2\n        /* \"#utility.yul\":14316:14447   */\n      tag_380\n      jump\t// in\n    tag_518:\n        /* \"#utility.yul\":14308:14447   */\n      swap1\n      pop\n        /* \"#utility.yul\":14035:14454   */\n      swap2\n      swap1\n      pop\n      jump\t// out\n        /* \"#utility.yul\":14460:14640   */\n    tag_381:\n        /* \"#utility.yul\":14508:14585   */\n      0x4e487b7100000000000000000000000000000000000000000000000000000000\n        /* \"#utility.yul\":14505:14506   */\n      0x00\n        /* \"#utility.yul\":14498:14586   */\n      mstore\n        /* \"#utility.yul\":14605:14609   */\n      0x11\n        /* \"#utility.yul\":14602:14603   */\n      0x04\n        /* \"#utility.yul\":14595:14610   */\n      mstore\n        /* \"#utility.yul\":14629:14633   */\n      0x24\n        /* \"#utility.yul\":14626:14627   */\n      0x00\n        /* \"#utility.yul\":14619:14634   */\n      revert\n        /* \"#utility.yul\":14646:14837   */\n    tag_210:\n        /* \"#utility.yul\":14686:14689   */\n      0x00\n        /* \"#utility.yul\":14705:14725   */\n      tag_521\n        /* \"#utility.yul\":14723:14724   */\n      dup3\n        /* \"#utility.yul\":14705:14725   */\n      tag_360\n      jump\t// in\n    tag_521:\n        /* \"#utility.yul\":14700:14725   */\n      swap2\n      pop\n        /* \"#utility.yul\":14739:14759   */\n      tag_522\n        /* \"#utility.yul\":14757:14758   */\n      dup4\n        /* \"#utility.yul\":14739:14759   */\n      tag_360\n      jump\t// in\n    tag_522:\n        /* \"#utility.yul\":14734:14759   */\n      swap3\n      pop\n        /* \"#utility.yul\":14782:14783   */\n      dup3\n        /* \"#utility.yul\":14779:14780   */\n      dup3\n        /* \"#utility.yul\":14775:14784   */\n      add\n        /* \"#utility.yul\":14768:14784   */\n      swap1\n      pop\n        /* \"#utility.yul\":14803:14806   */\n      dup1\n        /* \"#utility.yul\":14800:14801   */\n      dup3\n        /* \"#utility.yul\":14797:14807   */\n      gt\n        /* \"#utility.yul\":14794:14830   */\n      iszero\n      tag_523\n      jumpi\n        /* \"#utility.yul\":14810:14828   */\n      tag_524\n      tag_381\n      jump\t// in\n    tag_524:\n        /* \"#utility.yul\":14794:14830   */\n    tag_523:\n        /* \"#utility.yul\":14646:14837   */\n      swap3\n      swap2\n      pop\n      pop\n      jump\t// out\n        /* \"#utility.yul\":14843:15023   */\n    tag_382:\n        /* \"#utility.yul\":14983:15015   */\n      0x446576656c6f706572206368616e67652064656c6179206e6f74206d65740000\n        /* \"#utility.yul\":14979:14980   */\n      0x00\n        /* \"#utility.yul\":14971:14977   */\n      dup3\n        /* \"#utility.yul\":14967:14981   */\n      add\n        /* \"#utility.yul\":14960:15016   */\n      mstore\n        /* \"#utility.yul\":14843:15023   */\n      pop\n      jump\t// out\n        /* \"#utility.yul\":15029:15395   */\n    tag_383:\n        /* \"#utility.yul\":15171:15174   */\n      0x00\n        /* \"#utility.yul\":15192:15259   */\n      tag_527\n        /* \"#utility.yul\":15256:15258   */\n      0x1e\n        /* \"#utility.yul\":15251:15254   */\n      dup4\n        /* \"#utility.yul\":15192:15259   */\n      tag_351\n      jump\t// in\n    tag_527:\n        /* \"#utility.yul\":15185:15259   */\n      swap2\n      pop\n        /* \"#utility.yul\":15268:15361   */\n      tag_528\n        /* \"#utility.yul\":15357:15360   */\n      dup3\n        /* \"#utility.yul\":15268:15361   */\n      tag_382\n      jump\t// in\n    tag_528:\n        /* \"#utility.yul\":15386:15388   */\n      0x20\n        /* \"#utility.yul\":15381:15384   */\n      dup3\n        /* \"#utility.yul\":15377:15389   */\n      add\n        /* \"#utility.yul\":15370:15389   */\n      swap1\n      pop\n        /* \"#utility.yul\":15029:15395   */\n      swap2\n      swap1\n      pop\n      jump\t// out\n        /* \"#utility.yul\":15401:15820   */\n    tag_213:\n        /* \"#utility.yul\":15567:15571   */\n      0x00\n        /* \"#utility.yul\":15605:15607   */\n      0x20\n        /* \"#utility.yul\":15594:15603   */\n      dup3\n        /* \"#utility.yul\":15590:15608   */\n      add\n        /* \"#utility.yul\":15582:15608   */\n      swap1\n      pop\n        /* \"#utility.yul\":15654:15663   */\n      dup2\n        /* \"#utility.yul\":15648:15652   */\n      dup2\n        /* \"#utility.yul\":15644:15664   */\n      sub\n        /* \"#utility.yul\":15640:15641   */\n      0x00\n        /* \"#utility.yul\":15629:15638   */\n      dup4\n        /* \"#utility.yul\":15625:15642   */\n      add\n        /* \"#utility.yul\":15618:15665   */\n      mstore\n        /* \"#utility.yul\":15682:15813   */\n      tag_530\n        /* \"#utility.yul\":15808:15812   */\n      dup2\n        /* \"#utility.yul\":15682:15813   */\n      tag_383\n      jump\t// in\n    tag_530:\n        /* \"#utility.yul\":15674:15813   */\n      swap1\n      pop\n        /* \"#utility.yul\":15401:15820   */\n      swap2\n      swap1\n      pop\n      jump\t// out\n        /* \"#utility.yul\":15826:16008   */\n    tag_384:\n        /* \"#utility.yul\":15966:16000   */\n      0x4e6577206f776e65722063616e6e6f74206265207a65726f2061646472657373\n        /* \"#utility.yul\":15962:15963   */\n      0x00\n        /* \"#utility.yul\":15954:15960   */\n      dup3\n        /* \"#utility.yul\":15950:15964   */\n      add\n        /* \"#utility.yul\":15943:16001   */\n      mstore\n        /* \"#utility.yul\":15826:16008   */\n      pop\n      jump\t// out\n        /* \"#utility.yul\":16014:16380   */\n    tag_385:\n        /* \"#utility.yul\":16156:16159   */\n      0x00\n        /* \"#utility.yul\":16177:16244   */\n      tag_533\n        /* \"#utility.yul\":16241:16243   */\n      0x20\n        /* \"#utility.yul\":16236:16239   */\n      dup4\n        /* \"#utility.yul\":16177:16244   */\n      tag_351\n      jump\t// in\n    tag_533:\n        /* \"#utility.yul\":16170:16244   */\n      swap2\n      pop\n        /* \"#utility.yul\":16253:16346   */\n      tag_534\n        /* \"#utility.yul\":16342:16345   */\n      dup3\n        /* \"#utility.yul\":16253:16346   */\n      tag_384\n      jump\t// in\n    tag_534:\n        /* \"#utility.yul\":16371:16373   */\n      0x20\n        /* \"#utility.yul\":16366:16369   */\n      dup3\n        /* \"#utility.yul\":16362:16374   */\n      add\n        /* \"#utility.yul\":16355:16374   */\n      swap1\n      pop\n        /* \"#utility.yul\":16014:16380   */\n      swap2\n      swap1\n      pop\n      jump\t// out\n        /* \"#utility.yul\":16386:16805   */\n    tag_220:\n        /* \"#utility.yul\":16552:16556   */\n      0x00\n        /* \"#utility.yul\":16590:16592   */\n      0x20\n        /* \"#utility.yul\":16579:16588   */\n      dup3\n        /* \"#utility.yul\":16575:16593   */\n      add\n        /* \"#utility.yul\":16567:16593   */\n      swap1\n      pop\n        /* \"#utility.yul\":16639:16648   */\n      dup2\n        /* \"#utility.yul\":16633:16637   */\n      dup2\n        /* \"#utility.yul\":16629:16649   */\n      sub\n        /* \"#utility.yul\":16625:16626   */\n      0x00\n        /* \"#utility.yul\":16614:16623   */\n      dup4\n        /* \"#utility.yul\":16610:16627   */\n      add\n        /* \"#utility.yul\":16603:16650   */\n      mstore\n        /* \"#utility.yul\":16667:16798   */\n      tag_536\n        /* \"#utility.yul\":16793:16797   */\n      dup2\n        /* \"#utility.yul\":16667:16798   */\n      tag_385\n      jump\t// in\n    tag_536:\n        /* \"#utility.yul\":16659:16798   */\n      swap1\n      pop\n        /* \"#utility.yul\":16386:16805   */\n      swap2\n      swap1\n      pop\n      jump\t// out\n        /* \"#utility.yul\":16811:16991   */\n    tag_386:\n        /* \"#utility.yul\":16951:16983   */\n      0x4f776e6572206368616e676520616c7265616479207265717565737465640000\n        /* \"#utility.yul\":16947:16948   */\n      0x00\n        /* \"#utility.yul\":16939:16945   */\n      dup3\n        /* \"#utility.yul\":16935:16949   */\n      add\n        /* \"#utility.yul\":16928:16984   */\n      mstore\n        /* \"#utility.yul\":16811:16991   */\n      pop\n      jump\t// out\n        /* \"#utility.yul\":16997:17363   */\n    tag_387:\n        /* \"#utility.yul\":17139:17142   */\n      0x00\n        /* \"#utility.yul\":17160:17227   */\n      tag_539\n        /* \"#utility.yul\":17224:17226   */\n      0x1e\n        /* \"#utility.yul\":17219:17222   */\n      dup4\n        /* \"#utility.yul\":17160:17227   */\n      tag_351\n      jump\t// in\n    tag_539:\n        /* \"#utility.yul\":17153:17227   */\n      swap2\n      pop\n        /* \"#utility.yul\":17236:17329   */\n      tag_540\n        /* \"#utility.yul\":17325:17328   */\n      dup3\n        /* \"#utility.yul\":17236:17329   */\n      tag_386\n      jump\t// in\n    tag_540:\n        /* \"#utility.yul\":17354:17356   */\n      0x20\n        /* \"#utility.yul\":17349:17352   */\n      dup3\n        /* \"#utility.yul\":17345:17357   */\n      add\n        /* \"#utility.yul\":17338:17357   */\n      swap1\n      pop\n        /* \"#utility.yul\":16997:17363   */\n      swap2\n      swap1\n      pop\n      jump\t// out\n        /* \"#utility.yul\":17369:17788   */\n    tag_223:\n        /* \"#utility.yul\":17535:17539   */\n      0x00\n        /* \"#utility.yul\":17573:17575   */\n      0x20\n        /* \"#utility.yul\":17562:17571   */\n      dup3\n        /* \"#utility.yul\":17558:17576   */\n      add\n        /* \"#utility.yul\":17550:17576   */\n      swap1\n      pop\n        /* \"#utility.yul\":17622:17631   */\n      dup2\n        /* \"#utility.yul\":17616:17620   */\n      dup2\n        /* \"#utility.yul\":17612:17632   */\n      sub\n        /* \"#utility.yul\":17608:17609   */\n      0x00\n        /* \"#utility.yul\":17597:17606   */\n      dup4\n        /* \"#utility.yul\":17593:17610   */\n      add\n        /* \"#utility.yul\":17586:17633   */\n      mstore\n        /* \"#utility.yul\":17650:17781   */\n      tag_542\n        /* \"#utility.yul\":17776:17780   */\n      dup2\n        /* \"#utility.yul\":17650:17781   */\n      tag_387\n      jump\t// in\n    tag_542:\n        /* \"#utility.yul\":17642:17781   */\n      swap1\n      pop\n        /* \"#utility.yul\":17369:17788   */\n      swap2\n      swap1\n      pop\n      jump\t// out\n        /* \"#utility.yul\":17794:18016   */\n    tag_388:\n        /* \"#utility.yul\":17934:17968   */\n      0x5661756c744d616e6167657220616464726573732063616e6e6f74206265207a\n        /* \"#utility.yul\":17930:17931   */\n      0x00\n        /* \"#utility.yul\":17922:17928   */\n      dup3\n        /* \"#utility.yul\":17918:17932   */\n      add\n        /* \"#utility.yul\":17911:17969   */\n      mstore\n        /* \"#utility.yul\":18003:18008   */\n      0x65726f0000000000000000000000000000000000000000000000000000000000\n        /* \"#utility.yul\":17998:18000   */\n      0x20\n        /* \"#utility.yul\":17990:17996   */\n      dup3\n        /* \"#utility.yul\":17986:18001   */\n      add\n        /* \"#utility.yul\":17979:18009   */\n      mstore\n        /* \"#utility.yul\":17794:18016   */\n      pop\n      jump\t// out\n        /* \"#utility.yul\":18022:18388   */\n    tag_389:\n        /* \"#utility.yul\":18164:18167   */\n      0x00\n        /* \"#utility.yul\":18185:18252   */\n      tag_545\n        /* \"#utility.yul\":18249:18251   */\n      0x23\n        /* \"#utility.yul\":18244:18247   */\n      dup4\n        /* \"#utility.yul\":18185:18252   */\n      tag_351\n      jump\t// in\n    tag_545:\n        /* \"#utility.yul\":18178:18252   */\n      swap2\n      pop\n        /* \"#utility.yul\":18261:18354   */\n      tag_546\n        /* \"#utility.yul\":18350:18353   */\n      dup3\n        /* \"#utility.yul\":18261:18354   */\n      tag_388\n      jump\t// in\n    tag_546:\n        /* \"#utility.yul\":18379:18381   */\n      0x40\n        /* \"#utility.yul\":18374:18377   */\n      dup3\n        /* \"#utility.yul\":18370:18382   */\n      add\n        /* \"#utility.yul\":18363:18382   */\n      swap1\n      pop\n        /* \"#utility.yul\":18022:18388   */\n      swap2\n      swap1\n      pop\n      jump\t// out\n        /* \"#utility.yul\":18394:18813   */\n    tag_232:\n        /* \"#utility.yul\":18560:18564   */\n      0x00\n        /* \"#utility.yul\":18598:18600   */\n      0x20\n        /* \"#utility.yul\":18587:18596   */\n      dup3\n        /* \"#utility.yul\":18583:18601   */\n      add\n        /* \"#utility.yul\":18575:18601   */\n      swap1\n      pop\n        /* \"#utility.yul\":18647:18656   */\n      dup2\n        /* \"#utility.yul\":18641:18645   */\n      dup2\n        /* \"#utility.yul\":18637:18657   */\n      sub\n        /* \"#utility.yul\":18633:18634   */\n      0x00\n        /* \"#utility.yul\":18622:18631   */\n      dup4\n        /* \"#utility.yul\":18618:18635   */\n      add\n        /* \"#utility.yul\":18611:18658   */\n      mstore\n        /* \"#utility.yul\":18675:18806   */\n      tag_548\n        /* \"#utility.yul\":18801:18805   */\n      dup2\n        /* \"#utility.yul\":18675:18806   */\n      tag_389\n      jump\t// in\n    tag_548:\n        /* \"#utility.yul\":18667:18806   */\n      swap1\n      pop\n        /* \"#utility.yul\":18394:18813   */\n      swap2\n      swap1\n      pop\n      jump\t// out\n        /* \"#utility.yul\":18819:18995   */\n    tag_390:\n        /* \"#utility.yul\":18959:18987   */\n      0x4f776e6572206368616e67652064656c6179206e6f74206d6574000000000000\n        /* \"#utility.yul\":18955:18956   */\n      0x00\n        /* \"#utility.yul\":18947:18953   */\n      dup3\n        /* \"#utility.yul\":18943:18957   */\n      add\n        /* \"#utility.yul\":18936:18988   */\n      mstore\n        /* \"#utility.yul\":18819:18995   */\n      pop\n      jump\t// out\n        /* \"#utility.yul\":19001:19367   */\n    tag_391:\n        /* \"#utility.yul\":19143:19146   */\n      0x00\n        /* \"#utility.yul\":19164:19231   */\n      tag_551\n        /* \"#utility.yul\":19228:19230   */\n      0x1a\n        /* \"#utility.yul\":19223:19226   */\n      dup4\n        /* \"#utility.yul\":19164:19231   */\n      tag_351\n      jump\t// in\n    tag_551:\n        /* \"#utility.yul\":19157:19231   */\n      swap2\n      pop\n        /* \"#utility.yul\":19240:19333   */\n      tag_552\n        /* \"#utility.yul\":19329:19332   */\n      dup3\n        /* \"#utility.yul\":19240:19333   */\n      tag_390\n      jump\t// in\n    tag_552:\n        /* \"#utility.yul\":19358:19360   */\n      0x20\n        /* \"#utility.yul\":19353:19356   */\n      dup3\n        /* \"#utility.yul\":19349:19361   */\n      add\n        /* \"#utility.yul\":19342:19361   */\n      swap1\n      pop\n        /* \"#utility.yul\":19001:19367   */\n      swap2\n      swap1\n      pop\n      jump\t// out\n        /* \"#utility.yul\":19373:19792   */\n    tag_243:\n        /* \"#utility.yul\":19539:19543   */\n      0x00\n        /* \"#utility.yul\":19577:19579   */\n      0x20\n        /* \"#utility.yul\":19566:19575   */\n      dup3\n        /* \"#utility.yul\":19562:19580   */\n      add\n        /* \"#utility.yul\":19554:19580   */\n      swap1\n      pop\n        /* \"#utility.yul\":19626:19635   */\n      dup2\n        /* \"#utility.yul\":19620:19624   */\n      dup2\n        /* \"#utility.yul\":19616:19636   */\n      sub\n        /* \"#utility.yul\":19612:19613   */\n      0x00\n        /* \"#utility.yul\":19601:19610   */\n      dup4\n        /* \"#utility.yul\":19597:19614   */\n      add\n        /* \"#utility.yul\":19590:19637   */\n      mstore\n        /* \"#utility.yul\":19654:19785   */\n      tag_554\n        /* \"#utility.yul\":19780:19784   */\n      dup2\n        /* \"#utility.yul\":19654:19785   */\n      tag_391\n      jump\t// in\n    tag_554:\n        /* \"#utility.yul\":19646:19785   */\n      swap1\n      pop\n        /* \"#utility.yul\":19373:19792   */\n      swap2\n      swap1\n      pop\n      jump\t// out\n        /* \"#utility.yul\":19798:20240   */\n    tag_261:\n        /* \"#utility.yul\":19947:19951   */\n      0x00\n        /* \"#utility.yul\":19985:19987   */\n      0x60\n        /* \"#utility.yul\":19974:19983   */\n      dup3\n        /* \"#utility.yul\":19970:19988   */\n      add\n        /* \"#utility.yul\":19962:19988   */\n      swap1\n      pop\n        /* \"#utility.yul\":19998:20069   */\n      tag_556\n        /* \"#utility.yul\":20066:20067   */\n      0x00\n        /* \"#utility.yul\":20055:20064   */\n      dup4\n        /* \"#utility.yul\":20051:20068   */\n      add\n        /* \"#utility.yul\":20042:20048   */\n      dup7\n        /* \"#utility.yul\":19998:20069   */\n      tag_349\n      jump\t// in\n    tag_556:\n        /* \"#utility.yul\":20079:20151   */\n      tag_557\n        /* \"#utility.yul\":20147:20149   */\n      0x20\n        /* \"#utility.yul\":20136:20145   */\n      dup4\n        /* \"#utility.yul\":20132:20150   */\n      add\n        /* \"#utility.yul\":20123:20129   */\n      dup6\n        /* \"#utility.yul\":20079:20151   */\n      tag_365\n      jump\t// in\n    tag_557:\n        /* \"#utility.yul\":20161:20233   */\n      tag_558\n        /* \"#utility.yul\":20229:20231   */\n      0x40\n        /* \"#utility.yul\":20218:20227   */\n      dup4\n        /* \"#utility.yul\":20214:20232   */\n      add\n        /* \"#utility.yul\":20205:20211   */\n      dup5\n        /* \"#utility.yul\":20161:20233   */\n      tag_365\n      jump\t// in\n    tag_558:\n        /* \"#utility.yul\":19798:20240   */\n      swap5\n      swap4\n      pop\n      pop\n      pop\n      pop\n      jump\t// out\n        /* \"#utility.yul\":20246:20426   */\n    tag_325:\n        /* \"#utility.yul\":20294:20371   */\n      0x4e487b7100000000000000000000000000000000000000000000000000000000\n        /* \"#utility.yul\":20291:20292   */\n      0x00\n        /* \"#utility.yul\":20284:20372   */\n      mstore\n        /* \"#utility.yul\":20391:20395   */\n      0x32\n        /* \"#utility.yul\":20388:20389   */\n      0x04\n        /* \"#utility.yul\":20381:20396   */\n      mstore\n        /* \"#utility.yul\":20415:20419   */\n      0x24\n        /* \"#utility.yul\":20412:20413   */\n      0x00\n        /* \"#utility.yul\":20405:20420   */\n      revert\n        /* \"#utility.yul\":20432:20626   */\n    tag_329:\n        /* \"#utility.yul\":20472:20476   */\n      0x00\n        /* \"#utility.yul\":20492:20512   */\n      tag_561\n        /* \"#utility.yul\":20510:20511   */\n      dup3\n        /* \"#utility.yul\":20492:20512   */\n      tag_360\n      jump\t// in\n    tag_561:\n        /* \"#utility.yul\":20487:20512   */\n      swap2\n      pop\n        /* \"#utility.yul\":20526:20546   */\n      tag_562\n        /* \"#utility.yul\":20544:20545   */\n      dup4\n        /* \"#utility.yul\":20526:20546   */\n      tag_360\n      jump\t// in\n    tag_562:\n        /* \"#utility.yul\":20521:20546   */\n      swap3\n      pop\n        /* \"#utility.yul\":20570:20571   */\n      dup3\n        /* \"#utility.yul\":20567:20568   */\n      dup3\n        /* \"#utility.yul\":20563:20572   */\n      sub\n        /* \"#utility.yul\":20555:20572   */\n      swap1\n      pop\n        /* \"#utility.yul\":20594:20595   */\n      dup2\n        /* \"#utility.yul\":20588:20592   */\n      dup2\n        /* \"#utility.yul\":20585:20596   */\n      gt\n        /* \"#utility.yul\":20582:20619   */\n      iszero\n      tag_563\n      jumpi\n        /* \"#utility.yul\":20599:20617   */\n      tag_564\n      tag_381\n      jump\t// in\n    tag_564:\n        /* \"#utility.yul\":20582:20619   */\n    tag_563:\n        /* \"#utility.yul\":20432:20626   */\n      swap3\n      swap2\n      pop\n      pop\n      jump\t// out\n        /* \"#utility.yul\":20632:20812   */\n    tag_338:\n        /* \"#utility.yul\":20680:20757   */\n      0x4e487b7100000000000000000000000000000000000000000000000000000000\n        /* \"#utility.yul\":20677:20678   */\n      0x00\n        /* \"#utility.yul\":20670:20758   */\n      mstore\n        /* \"#utility.yul\":20777:20781   */\n      0x31\n        /* \"#utility.yul\":20774:20775   */\n      0x04\n        /* \"#utility.yul\":20767:20782   */\n      mstore\n        /* \"#utility.yul\":20801:20805   */\n      0x24\n        /* \"#utility.yul\":20798:20799   */\n      0x00\n        /* \"#utility.yul\":20791:20806   */\n      revert\n\n    auxdata: 0xa26469706673582212204563d810cf716e9e405592decb62b6d71af319d9ac52b3d35c6faefd41ee487e64736f6c634300081c0033\n}\n",
				"bytecode": {
					"linkReferences": {},
					"object": "608060405234801561000f575f5ffd5b506040516138403803806138408339818101604052810190610031919061096e565b806040518060400160405280600881526020017f4e415349434f494e0000000000000000000000000000000000000000000000008152506040518060400160405280600581526020017f4e4153494300000000000000000000000000000000000000000000000000000081525081600390816100ad9190610bd6565b5080600490816100bd9190610bd6565b5050505f73ffffffffffffffffffffffffffffffffffffffff168173ffffffffffffffffffffffffffffffffffffffff1603610130575f6040517f1e4fbdf70000000000000000000000000000000000000000000000000000000081526004016101279190610cb4565b60405180910390fd5b61013f8161019e60201b60201c565b503360095f6101000a81548173ffffffffffffffffffffffffffffffffffffffff021916908373ffffffffffffffffffffffffffffffffffffffff16021790555061019833671bc16d674ec8000061026160201b60201c565b50610e17565b5f60055f9054906101000a900473ffffffffffffffffffffffffffffffffffffffff1690508160055f6101000a81548173ffffffffffffffffffffffffffffffffffffffff021916908373ffffffffffffffffffffffffffffffffffffffff1602179055508173ffffffffffffffffffffffffffffffffffffffff168173ffffffffffffffffffffffffffffffffffffffff167f8be0079c531659141344cd1fd0a4f28419497f9722a3daafe3b4186f6b6457e060405160405180910390a35050565b610271828261029360201b60201c565b61028f826102848461031860201b60201c565b61035d60201b60201c565b5050565b5f73ffffffffffffffffffffffffffffffffffffffff168273ffffffffffffffffffffffffffffffffffffffff1603610303575f6040517fec442f050000000000000000000000000000000000000000000000000000000081526004016102fa9190610cb4565b60405180910390fd5b6103145f838361057760201b60201c565b5050565b5f5f5f8373ffffffffffffffffffffffffffffffffffffffff1673ffffffffffffffffffffffffffffffffffffffff1681526020019081526020015f20549050919050565b5f811180156103b3575060065f8373ffffffffffffffffffffffffffffffffffffffff1673ffffffffffffffffffffffffffffffffffffffff1681526020019081526020015f205f9054906101000a900460ff16155b1561047257600160065f8473ffffffffffffffffffffffffffffffffffffffff1673ffffffffffffffffffffffffffffffffffffffff1681526020019081526020015f205f6101000a81548160ff021916908315150217905550600882908060018154018082558091505060019003905f5260205f20015f9091909190916101000a81548173ffffffffffffffffffffffffffffffffffffffff021916908373ffffffffffffffffffffffffffffffffffffffff160217905550610531565b5f811480156104c7575060065f8373ffffffffffffffffffffffffffffffffffffffff1673ffffffffffffffffffffffffffffffffffffffff1681526020019081526020015f205f9054906101000a900460ff165b15610530575f60065f8473ffffffffffffffffffffffffffffffffffffffff1673ffffffffffffffffffffffffffffffffffffffff1681526020019081526020015f205f6101000a81548160ff02191690831515021790555061052f8261079060201b60201c565b5b5b8060075f8473ffffffffffffffffffffffffffffffffffffffff1673ffffffffffffffffffffffffffffffffffffffff1681526020019081526020015f20819055505050565b5f73ffffffffffffffffffffffffffffffffffffffff168373ffffffffffffffffffffffffffffffffffffffff16036105c7578060025f8282546105bb9190610cfa565b92505081905550610695565b5f5f5f8573ffffffffffffffffffffffffffffffffffffffff1673ffffffffffffffffffffffffffffffffffffffff1681526020019081526020015f2054905081811015610650578381836040517fe450d38c00000000000000000000000000000000000000000000000000000000815260040161064793929190610d3c565b60405180910390fd5b8181035f5f8673ffffffffffffffffffffffffffffffffffffffff1673ffffffffffffffffffffffffffffffffffffffff1681526020019081526020015f2081905550505b5f73ffffffffffffffffffffffffffffffffffffffff168273ffffffffffffffffffffffffffffffffffffffff16036106dc578060025f8282540392505081905550610726565b805f5f8473ffffffffffffffffffffffffffffffffffffffff1673ffffffffffffffffffffffffffffffffffffffff1681526020019081526020015f205f82825401925050819055505b8173ffffffffffffffffffffffffffffffffffffffff168373ffffffffffffffffffffffffffffffffffffffff167fddf252ad1be2c89b69c2b068fc378daa952ba7f163c4a11628f55a4df523b3ef836040516107839190610d71565b60405180910390a3505050565b5f5f90505b60088054905081101561090c578173ffffffffffffffffffffffffffffffffffffffff16600882815481106107cd576107cc610d8a565b5b905f5260205f20015f9054906101000a900473ffffffffffffffffffffffffffffffffffffffff1673ffffffffffffffffffffffffffffffffffffffff16036108ff57600860016008805490506108249190610db7565b8154811061083557610834610d8a565b5b905f5260205f20015f9054906101000a900473ffffffffffffffffffffffffffffffffffffffff166008828154811061087157610870610d8a565b5b905f5260205f20015f6101000a81548173ffffffffffffffffffffffffffffffffffffffff021916908373ffffffffffffffffffffffffffffffffffffffff16021790555060088054806108c8576108c7610dea565b5b600190038181905f5260205f20015f6101000a81549073ffffffffffffffffffffffffffffffffffffffff0219169055905561090c565b8080600101915050610795565b5050565b5f5ffd5b5f73ffffffffffffffffffffffffffffffffffffffff82169050919050565b5f61093d82610914565b9050919050565b61094d81610933565b8114610957575f5ffd5b50565b5f8151905061096881610944565b92915050565b5f6020828403121561098357610982610910565b5b5f6109908482850161095a565b91505092915050565b5f81519050919050565b7f4e487b71000000000000000000000000000000000000000000000000000000005f52604160045260245ffd5b7f4e487b71000000000000000000000000000000000000000000000000000000005f52602260045260245ffd5b5f6002820490506001821680610a1457607f821691505b602082108103610a2757610a266109d0565b5b50919050565b5f819050815f5260205f209050919050565b5f6020601f8301049050919050565b5f82821b905092915050565b5f60088302610a897fffffffffffffffffffffffffffffffffffffffffffffffffffffffffffffffff82610a4e565b610a938683610a4e565b95508019841693508086168417925050509392505050565b5f819050919050565b5f819050919050565b5f610ad7610ad2610acd84610aab565b610ab4565b610aab565b9050919050565b5f819050919050565b610af083610abd565b610b04610afc82610ade565b848454610a5a565b825550505050565b5f5f905090565b610b1b610b0c565b610b26818484610ae7565b505050565b5b81811015610b4957610b3e5f82610b13565b600181019050610b2c565b5050565b601f821115610b8e57610b5f81610a2d565b610b6884610a3f565b81016020851015610b77578190505b610b8b610b8385610a3f565b830182610b2b565b50505b505050565b5f82821c905092915050565b5f610bae5f1984600802610b93565b1980831691505092915050565b5f610bc68383610b9f565b9150826002028217905092915050565b610bdf82610999565b67ffffffffffffffff811115610bf857610bf76109a3565b5b610c0282546109fd565b610c0d828285610b4d565b5f60209050601f831160018114610c3e575f8415610c2c578287015190505b610c368582610bbb565b865550610c9d565b601f198416610c4c86610a2d565b5f5b82811015610c7357848901518255600182019150602085019450602081019050610c4e565b86831015610c905784890151610c8c601f891682610b9f565b8355505b6001600288020188555050505b505050505050565b610cae81610933565b82525050565b5f602082019050610cc75f830184610ca5565b92915050565b7f4e487b71000000000000000000000000000000000000000000000000000000005f52601160045260245ffd5b5f610d0482610aab565b9150610d0f83610aab565b9250828201905080821115610d2757610d26610ccd565b5b92915050565b610d3681610aab565b82525050565b5f606082019050610d4f5f830186610ca5565b610d5c6020830185610d2d565b610d696040830184610d2d565b949350505050565b5f602082019050610d845f830184610d2d565b92915050565b7f4e487b71000000000000000000000000000000000000000000000000000000005f52603260045260245ffd5b5f610dc182610aab565b9150610dcc83610aab565b9250828203905081811115610de457610de3610ccd565b5b92915050565b7f4e487b71000000000000000000000000000000000000000000000000000000005f52603160045260245ffd5b612a1c80610e245f395ff3fe608060405234801561000f575f5ffd5b50600436106101cc575f3560e01c806388dacbcc11610102578063a9059cbb116100a0578063dd62ed3e1161006f578063dd62ed3e146104c0578063dd940cb5146104f0578063e9c559a9146104fa578063f2fde38b14610518576101cc565b8063a9059cbb14610438578063b543503e14610468578063b9c28d2914610484578063ca4b208b146104a2576101cc565b806395d89b41116100dc57806395d89b41146103d85780639e12279d146103f6578063a67a91e314610412578063a86c83741461041c576101cc565b806388dacbcc146103925780638a4adf241461039c5780638da5cb5b146103ba576101cc565b80632b7df8041161016f57806340c10f191161014957806340c10f191461030c578063477348921461032857806370a0823114610358578063715018a614610388576101cc565b80632b7df804146102b25780632ff2e9dc146102d0578063313ce567146102ee576101cc565b806306fdde03116101ab57806306fdde0314610216578063095ea7b31461023457806318160ddd1461026457806323b872dd14610282576101cc565b8062ce8e3e146101d057806305069f22146101ee578063067453a61461020c575b5f5ffd5b6101d8610534565b6040516101e59190612098565b60405180910390f35b6101f66105bf565b60405161020391906120c7565b60405180910390f35b6102146105e4565b005b61021e610743565b60405161022b9190612150565b60405180910390f35b61024e600480360381019061024991906121d1565b6107d3565b60405161025b9190612229565b60405180910390f35b61026c6107f5565b6040516102799190612251565b60405180910390f35b61029c6004803603810190610297919061226a565b6107fe565b6040516102a99190612229565b60405180910390f35b6102ba61082c565b6040516102c79190612251565b60405180910390f35b6102d8610832565b6040516102e59190612251565b60405180910390f35b6102f661083e565b60405161030391906122d5565b60405180910390f35b610326600480360381019061032191906121d1565b610846565b005b610342600480360381019061033d91906122ee565b6108e3565b60405161034f9190612251565b60405180910390f35b610372600480360381019061036d91906122ee565b610929565b60405161037f9190612251565b60405180910390f35b61039061096e565b005b61039a610981565b005b6103a4610a59565b6040516103b191906120c7565b60405180910390f35b6103c2610a7e565b6040516103cf91906120c7565b60405180910390f35b6103e0610aa6565b6040516103ed9190612150565b60405180910390f35b610410600480360381019061040b91906122ee565b610b36565b005b61041a610c94565b005b610436600480360381019061043191906122ee565b610e62565b005b610452600480360381019061044d91906121d1565b611047565b60405161045f9190612229565b60405180910390f35b610482600480360381019061047d91906122ee565b611069565b005b61048c611122565b60405161049991906120c7565b60405180910390f35b6104aa611147565b6040516104b791906120c7565b60405180910390f35b6104da60048036038101906104d59190612319565b61116c565b6040516104e79190612251565b60405180910390f35b6104f86111ee565b005b6105026113f2565b60405161050f9190612251565b60405180910390f35b610532600480360381019061052d91906122ee565b6113f8565b005b606060088054806020026020016040519081016040528092919081815260200182805480156105b557602002820191905f5260205f20905b815f9054906101000a900473ffffffffffffffffffffffffffffffffffffffff1673ffffffffffffffffffffffffffffffffffffffff168152602001906001019080831161056c575b5050505050905090565b600b5f9054906101000a900473ffffffffffffffffffffffffffffffffffffffff1681565b60095f9054906101000a900473ffffffffffffffffffffffffffffffffffffffff1673ffffffffffffffffffffffffffffffffffffffff163373ffffffffffffffffffffffffffffffffffffffff1614610673576040517f08c379a000000000000000000000000000000000000000000000000000000000815260040161066a906123a1565b60405180910390fd5b5f600e54116106b7576040517f08c379a00000000000000000000000000000000000000000000000000000000081526004016106ae9061242f565b60405180910390fd5b5f600c5f6101000a81548173ffffffffffffffffffffffffffffffffffffffff021916908373ffffffffffffffffffffffffffffffffffffffff1602179055505f600e819055503373ffffffffffffffffffffffffffffffffffffffff167fccd8c9d5857ed509892cb6ba9a608f25fa4cfed016a475a02e39837f019461cc60405160405180910390a2565b6060600380546107529061247a565b80601f016020809104026020016040519081016040528092919081815260200182805461077e9061247a565b80156107c95780601f106107a0576101008083540402835291602001916107c9565b820191905f5260205f20905b8154815290600101906020018083116107ac57829003601f168201915b5050505050905090565b5f5f6107dd61147c565b90506107ea818585611483565b600191505092915050565b5f600254905090565b5f5f61080861147c565b9050610815858285611495565b610820858585611528565b60019150509392505050565b600d5481565b671bc16d674ec8000081565b5f6012905090565b600a5f9054906101000a900473ffffffffffffffffffffffffffffffffffffffff1673ffffffffffffffffffffffffffffffffffffffff163373ffffffffffffffffffffffffffffffffffffffff16146108d5576040517f08c379a00000000000000000000000000000000000000000000000000000000081526004016108cc906124f4565b60405180910390fd5b6108df828261155c565b5050565b5f60075f8373ffffffffffffffffffffffffffffffffffffffff1673ffffffffffffffffffffffffffffffffffffffff1681526020019081526020015f20549050919050565b5f5f5f8373ffffffffffffffffffffffffffffffffffffffff1673ffffffffffffffffffffffffffffffffffffffff1681526020019081526020015f20549050919050565b61097661157c565b61097f5f611603565b565b61098961157c565b5f600d54116109cd576040517f08c379a00000000000000000000000000000000000000000000000000000000081526004016109c49061255c565b60405180910390fd5b5f600b5f6101000a81548173ffffffffffffffffffffffffffffffffffffffff021916908373ffffffffffffffffffffffffffffffffffffffff1602179055505f600d819055503373ffffffffffffffffffffffffffffffffffffffff167f71929bfc41c49ae5e05a53003b97907866c902f9807734ce3a0507bfdae425f960405160405180910390a2565b600a5f9054906101000a900473ffffffffffffffffffffffffffffffffffffffff1681565b5f60055f9054906101000a900473ffffffffffffffffffffffffffffffffffffffff16905090565b606060048054610ab59061247a565b80601f0160208091040260200160405190810160405280929190818152602001828054610ae19061247a565b8015610b2c5780601f10610b0357610100808354040283529160200191610b2c565b820191905f5260205f20905b815481529060010190602001808311610b0f57829003601f168201915b5050505050905090565b610b3e61157c565b5f73ffffffffffffffffffffffffffffffffffffffff168173ffffffffffffffffffffffffffffffffffffffff1603610bac576040517f08c379a0000000000000000000000000000000000000000000000000000000008152600401610ba3906125ea565b60405180910390fd5b5f600e5414610bf0576040517f08c379a0000000000000000000000000000000000000000000000000000000008152600401610be790612678565b60405180910390fd5b80600c5f6101000a81548173ffffffffffffffffffffffffffffffffffffffff021916908373ffffffffffffffffffffffffffffffffffffffff16021790555042600e819055508073ffffffffffffffffffffffffffffffffffffffff163373ffffffffffffffffffffffffffffffffffffffff167f11d251823298414f86a55ee989c577145357724264d4f6d10632f865a55488fb60405160405180910390a350565b610c9c61157c565b5f600e5411610ce0576040517f08c379a0000000000000000000000000000000000000000000000000000000008152600401610cd79061242f565b60405180910390fd5b6276a700600e54610cf191906126c3565b421015610d33576040517f08c379a0000000000000000000000000000000000000000000000000000000008152600401610d2a90612740565b60405180910390fd5b5f60095f9054906101000a900473ffffffffffffffffffffffffffffffffffffffff1690505f600c5f9054906101000a900473ffffffffffffffffffffffffffffffffffffffff1690508060095f6101000a81548173ffffffffffffffffffffffffffffffffffffffff021916908373ffffffffffffffffffffffffffffffffffffffff1602179055505f600c5f6101000a81548173ffffffffffffffffffffffffffffffffffffffff021916908373ffffffffffffffffffffffffffffffffffffffff1602179055505f600e819055508073ffffffffffffffffffffffffffffffffffffffff168273ffffffffffffffffffffffffffffffffffffffff167fe823578be672ebcfc6a23fce5293a8769dd2449c1ae45d769b8ba0fc3435625f60405160405180910390a35050565b60095f9054906101000a900473ffffffffffffffffffffffffffffffffffffffff1673ffffffffffffffffffffffffffffffffffffffff163373ffffffffffffffffffffffffffffffffffffffff1614610ef1576040517f08c379a0000000000000000000000000000000000000000000000000000000008152600401610ee8906123a1565b60405180910390fd5b5f73ffffffffffffffffffffffffffffffffffffffff168173ffffffffffffffffffffffffffffffffffffffff1603610f5f576040517f08c379a0000000000000000000000000000000000000000000000000000000008152600401610f56906127a8565b60405180910390fd5b5f600d5414610fa3576040517f08c379a0000000000000000000000000000000000000000000000000000000008152600401610f9a90612810565b60405180910390fd5b80600b5f6101000a81548173ffffffffffffffffffffffffffffffffffffffff021916908373ffffffffffffffffffffffffffffffffffffffff16021790555042600d819055508073ffffffffffffffffffffffffffffffffffffffff163373ffffffffffffffffffffffffffffffffffffffff167fe4d82e46d7a4a49d024ed3cdf35530213f02413245e7bf0d20121174c089e0d260405160405180910390a350565b5f5f61105161147c565b905061105e818585611528565b600191505092915050565b61107161157c565b5f73ffffffffffffffffffffffffffffffffffffffff168173ffffffffffffffffffffffffffffffffffffffff16036110df576040517f08c379a00000000000000000000000000000000000000000000000000000000081526004016110d69061289e565b60405180910390fd5b80600a5f6101000a81548173ffffffffffffffffffffffffffffffffffffffff021916908373ffffffffffffffffffffffffffffffffffffffff16021790555050565b600c5f9054906101000a900473ffffffffffffffffffffffffffffffffffffffff1681565b60095f9054906101000a900473ffffffffffffffffffffffffffffffffffffffff1681565b5f60015f8473ffffffffffffffffffffffffffffffffffffffff1673ffffffffffffffffffffffffffffffffffffffff1681526020019081526020015f205f8373ffffffffffffffffffffffffffffffffffffffff1673ffffffffffffffffffffffffffffffffffffffff1681526020019081526020015f2054905092915050565b60095f9054906101000a900473ffffffffffffffffffffffffffffffffffffffff1673ffffffffffffffffffffffffffffffffffffffff163373ffffffffffffffffffffffffffffffffffffffff161461127d576040517f08c379a0000000000000000000000000000000000000000000000000000000008152600401611274906123a1565b60405180910390fd5b5f600d54116112c1576040517f08c379a00000000000000000000000000000000000000000000000000000000081526004016112b89061255c565b60405180910390fd5b6276a700600d546112d291906126c3565b421015611314576040517f08c379a000000000000000000000000000000000000000000000000000000000815260040161130b90612906565b60405180910390fd5b5f61131d610a7e565b90505f600b5f9054906101000a900473ffffffffffffffffffffffffffffffffffffffff16905061134d81611603565b5f600b5f6101000a81548173ffffffffffffffffffffffffffffffffffffffff021916908373ffffffffffffffffffffffffffffffffffffffff1602179055505f600d819055508073ffffffffffffffffffffffffffffffffffffffff168273ffffffffffffffffffffffffffffffffffffffff167f8be0079c531659141344cd1fd0a4f28419497f9722a3daafe3b4186f6b6457e060405160405180910390a35050565b600e5481565b61140061157c565b5f73ffffffffffffffffffffffffffffffffffffffff168173ffffffffffffffffffffffffffffffffffffffff1603611470575f6040517f1e4fbdf700000000000000000000000000000000000000000000000000000000815260040161146791906120c7565b60405180910390fd5b61147981611603565b50565b5f33905090565b61149083838360016116c6565b505050565b5f6114a0848461116c565b90507fffffffffffffffffffffffffffffffffffffffffffffffffffffffffffffffff8110156115225781811015611513578281836040517ffb8f41b200000000000000000000000000000000000000000000000000000000815260040161150a93929190612924565b60405180910390fd5b61152184848484035f6116c6565b5b50505050565b611533838383611895565b6115458361154085610929565b611985565b6115578261155284610929565b611985565b505050565b6115668282611b99565b6115788261157384610929565b611985565b5050565b61158461147c565b73ffffffffffffffffffffffffffffffffffffffff166115a2610a7e565b73ffffffffffffffffffffffffffffffffffffffff1614611601576115c561147c565b6040517f118cdaa70000000000000000000000000000000000000000000000000000000081526004016115f891906120c7565b60405180910390fd5b565b5f60055f9054906101000a900473ffffffffffffffffffffffffffffffffffffffff1690508160055f6101000a81548173ffffffffffffffffffffffffffffffffffffffff021916908373ffffffffffffffffffffffffffffffffffffffff1602179055508173ffffffffffffffffffffffffffffffffffffffff168173ffffffffffffffffffffffffffffffffffffffff167f8be0079c531659141344cd1fd0a4f28419497f9722a3daafe3b4186f6b6457e060405160405180910390a35050565b5f73ffffffffffffffffffffffffffffffffffffffff168473ffffffffffffffffffffffffffffffffffffffff1603611736575f6040517fe602df0500000000000000000000000000000000000000000000000000000000815260040161172d91906120c7565b60405180910390fd5b5f73ffffffffffffffffffffffffffffffffffffffff168373ffffffffffffffffffffffffffffffffffffffff16036117a6575f6040517f94280d6200000000000000000000000000000000000000000000000000000000815260040161179d91906120c7565b60405180910390fd5b8160015f8673ffffffffffffffffffffffffffffffffffffffff1673ffffffffffffffffffffffffffffffffffffffff1681526020019081526020015f205f8573ffffffffffffffffffffffffffffffffffffffff1673ffffffffffffffffffffffffffffffffffffffff1681526020019081526020015f2081905550801561188f578273ffffffffffffffffffffffffffffffffffffffff168473ffffffffffffffffffffffffffffffffffffffff167f8c5be1e5ebec7d5bd14f71427d1e84f3dd0314c0f7b2291e5b200ac8c7c3b925846040516118869190612251565b60405180910390a35b50505050565b5f73ffffffffffffffffffffffffffffffffffffffff168373ffffffffffffffffffffffffffffffffffffffff1603611905575f6040517f96c6fd1e0000000000000000000000000000000000000000000000000000000081526004016118fc91906120c7565b60405180910390fd5b5f73ffffffffffffffffffffffffffffffffffffffff168273ffffffffffffffffffffffffffffffffffffffff1603611975575f6040517fec442f0500000000000000000000000000000000000000000000000000000000815260040161196c91906120c7565b60405180910390fd5b611980838383611c18565b505050565b5f811180156119db575060065f8373ffffffffffffffffffffffffffffffffffffffff1673ffffffffffffffffffffffffffffffffffffffff1681526020019081526020015f205f9054906101000a900460ff16155b15611a9a57600160065f8473ffffffffffffffffffffffffffffffffffffffff1673ffffffffffffffffffffffffffffffffffffffff1681526020019081526020015f205f6101000a81548160ff021916908315150217905550600882908060018154018082558091505060019003905f5260205f20015f9091909190916101000a81548173ffffffffffffffffffffffffffffffffffffffff021916908373ffffffffffffffffffffffffffffffffffffffff160217905550611b53565b5f81148015611aef575060065f8373ffffffffffffffffffffffffffffffffffffffff1673ffffffffffffffffffffffffffffffffffffffff1681526020019081526020015f205f9054906101000a900460ff165b15611b52575f60065f8473ffffffffffffffffffffffffffffffffffffffff1673ffffffffffffffffffffffffffffffffffffffff1681526020019081526020015f205f6101000a81548160ff021916908315150217905550611b5182611e31565b5b5b8060075f8473ffffffffffffffffffffffffffffffffffffffff1673ffffffffffffffffffffffffffffffffffffffff1681526020019081526020015f20819055505050565b5f73ffffffffffffffffffffffffffffffffffffffff168273ffffffffffffffffffffffffffffffffffffffff1603611c09575f6040517fec442f05000000000000000000000000000000000000000000000000000000008152600401611c0091906120c7565b60405180910390fd5b611c145f8383611c18565b5050565b5f73ffffffffffffffffffffffffffffffffffffffff168373ffffffffffffffffffffffffffffffffffffffff1603611c68578060025f828254611c5c91906126c3565b92505081905550611d36565b5f5f5f8573ffffffffffffffffffffffffffffffffffffffff1673ffffffffffffffffffffffffffffffffffffffff1681526020019081526020015f2054905081811015611cf1578381836040517fe450d38c000000000000000000000000000000000000000000000000000000008152600401611ce893929190612924565b60405180910390fd5b8181035f5f8673ffffffffffffffffffffffffffffffffffffffff1673ffffffffffffffffffffffffffffffffffffffff1681526020019081526020015f2081905550505b5f73ffffffffffffffffffffffffffffffffffffffff168273ffffffffffffffffffffffffffffffffffffffff1603611d7d578060025f8282540392505081905550611dc7565b805f5f8473ffffffffffffffffffffffffffffffffffffffff1673ffffffffffffffffffffffffffffffffffffffff1681526020019081526020015f205f82825401925050819055505b8173ffffffffffffffffffffffffffffffffffffffff168373ffffffffffffffffffffffffffffffffffffffff167fddf252ad1be2c89b69c2b068fc378daa952ba7f163c4a11628f55a4df523b3ef83604051611e249190612251565b60405180910390a3505050565b5f5f90505b600880549050811015611fad578173ffffffffffffffffffffffffffffffffffffffff1660088281548110611e6e57611e6d612959565b5b905f5260205f20015f9054906101000a900473ffffffffffffffffffffffffffffffffffffffff1673ffffffffffffffffffffffffffffffffffffffff1603611fa05760086001600880549050611ec59190612986565b81548110611ed657611ed5612959565b5b905f5260205f20015f9054906101000a900473ffffffffffffffffffffffffffffffffffffffff1660088281548110611f1257611f11612959565b5b905f5260205f20015f6101000a81548173ffffffffffffffffffffffffffffffffffffffff021916908373ffffffffffffffffffffffffffffffffffffffff1602179055506008805480611f6957611f686129b9565b5b600190038181905f5260205f20015f6101000a81549073ffffffffffffffffffffffffffffffffffffffff02191690559055611fad565b8080600101915050611e36565b5050565b5f81519050919050565b5f82825260208201905092915050565b5f819050602082019050919050565b5f73ffffffffffffffffffffffffffffffffffffffff82169050919050565b5f61200382611fda565b9050919050565b61201381611ff9565b82525050565b5f612024838361200a565b60208301905092915050565b5f602082019050919050565b5f61204682611fb1565b6120508185611fbb565b935061205b83611fcb565b805f5b8381101561208b5781516120728882612019565b975061207d83612030565b92505060018101905061205e565b5085935050505092915050565b5f6020820190508181035f8301526120b0818461203c565b905092915050565b6120c181611ff9565b82525050565b5f6020820190506120da5f8301846120b8565b92915050565b5f81519050919050565b5f82825260208201905092915050565b8281835e5f83830152505050565b5f601f19601f8301169050919050565b5f612122826120e0565b61212c81856120ea565b935061213c8185602086016120fa565b61214581612108565b840191505092915050565b5f6020820190508181035f8301526121688184612118565b905092915050565b5f5ffd5b61217d81611ff9565b8114612187575f5ffd5b50565b5f8135905061219881612174565b92915050565b5f819050919050565b6121b08161219e565b81146121ba575f5ffd5b50565b5f813590506121cb816121a7565b92915050565b5f5f604083850312156121e7576121e6612170565b5b5f6121f48582860161218a565b9250506020612205858286016121bd565b9150509250929050565b5f8115159050919050565b6122238161220f565b82525050565b5f60208201905061223c5f83018461221a565b92915050565b61224b8161219e565b82525050565b5f6020820190506122645f830184612242565b92915050565b5f5f5f6060848603121561228157612280612170565b5b5f61228e8682870161218a565b935050602061229f8682870161218a565b92505060406122b0868287016121bd565b9150509250925092565b5f60ff82169050919050565b6122cf816122ba565b82525050565b5f6020820190506122e85f8301846122c6565b92915050565b5f6020828403121561230357612302612170565b5b5f6123108482850161218a565b91505092915050565b5f5f6040838503121561232f5761232e612170565b5b5f61233c8582860161218a565b925050602061234d8582860161218a565b9150509250929050565b7f43616c6c6572206973206e6f742074686520646576656c6f70657200000000005f82015250565b5f61238b601b836120ea565b915061239682612357565b602082019050919050565b5f6020820190508181035f8301526123b88161237f565b9050919050565b7f4e6f20646576656c6f706572206368616e676520726571756573742070656e645f8201527f696e670000000000000000000000000000000000000000000000000000000000602082015250565b5f6124196023836120ea565b9150612424826123bf565b604082019050919050565b5f6020820190508181035f8301526124468161240d565b9050919050565b7f4e487b71000000000000000000000000000000000000000000000000000000005f52602260045260245ffd5b5f600282049050600182168061249157607f821691505b6020821081036124a4576124a361244d565b5b50919050565b7f43616c6c6572206973206e6f7420746865205661756c744d616e6167657200005f82015250565b5f6124de601e836120ea565b91506124e9826124aa565b602082019050919050565b5f6020820190508181035f83015261250b816124d2565b9050919050565b7f4e6f206f776e6572206368616e676520726571756573742070656e64696e67005f82015250565b5f612546601f836120ea565b915061255182612512565b602082019050919050565b5f6020820190508181035f8301526125738161253a565b9050919050565b7f4e657720646576656c6f7065722063616e6e6f74206265207a65726f206164645f8201527f7265737300000000000000000000000000000000000000000000000000000000602082015250565b5f6125d46024836120ea565b91506125df8261257a565b604082019050919050565b5f6020820190508181035f830152612601816125c8565b9050919050565b7f446576656c6f706572206368616e676520616c726561647920726571756573745f8201527f6564000000000000000000000000000000000000000000000000000000000000602082015250565b5f6126626022836120ea565b915061266d82612608565b604082019050919050565b5f6020820190508181035f83015261268f81612656565b9050919050565b7f4e487b71000000000000000000000000000000000000000000000000000000005f52601160045260245ffd5b5f6126cd8261219e565b91506126d88361219e565b92508282019050808211156126f0576126ef612696565b5b92915050565b7f446576656c6f706572206368616e67652064656c6179206e6f74206d657400005f82015250565b5f61272a601e836120ea565b9150612735826126f6565b602082019050919050565b5f6020820190508181035f8301526127578161271e565b9050919050565b7f4e6577206f776e65722063616e6e6f74206265207a65726f20616464726573735f82015250565b5f6127926020836120ea565b915061279d8261275e565b602082019050919050565b5f6020820190508181035f8301526127bf81612786565b9050919050565b7f4f776e6572206368616e676520616c72656164792072657175657374656400005f82015250565b5f6127fa601e836120ea565b9150612805826127c6565b602082019050919050565b5f6020820190508181035f830152612827816127ee565b9050919050565b7f5661756c744d616e6167657220616464726573732063616e6e6f74206265207a5f8201527f65726f0000000000000000000000000000000000000000000000000000000000602082015250565b5f6128886023836120ea565b91506128938261282e565b604082019050919050565b5f6020820190508181035f8301526128b58161287c565b9050919050565b7f4f776e6572206368616e67652064656c6179206e6f74206d65740000000000005f82015250565b5f6128f0601a836120ea565b91506128fb826128bc565b602082019050919050565b5f6020820190508181035f83015261291d816128e4565b9050919050565b5f6060820190506129375f8301866120b8565b6129446020830185612242565b6129516040830184612242565b949350505050565b7f4e487b71000000000000000000000000000000000000000000000000000000005f52603260045260245ffd5b5f6129908261219e565b915061299b8361219e565b92508282039050818111156129b3576129b2612696565b5b92915050565b7f4e487b71000000000000000000000000000000000000000000000000000000005f52603160045260245ffdfea26469706673582212204563d810cf716e9e405592decb62b6d71af319d9ac52b3d35c6faefd41ee487e64736f6c634300081c0033",
					"opcodes": "PUSH1 0x80 PUSH1 0x40 MSTORE CALLVALUE DUP1 ISZERO PUSH2 0xF JUMPI PUSH0 PUSH0 REVERT JUMPDEST POP PUSH1 0x40 MLOAD PUSH2 0x3840 CODESIZE SUB DUP1 PUSH2 0x3840 DUP4 CODECOPY DUP2 DUP2 ADD PUSH1 0x40 MSTORE DUP2 ADD SWAP1 PUSH2 0x31 SWAP2 SWAP1 PUSH2 0x96E JUMP JUMPDEST DUP1 PUSH1 0x40 MLOAD DUP1 PUSH1 0x40 ADD PUSH1 0x40 MSTORE DUP1 PUSH1 0x8 DUP2 MSTORE PUSH1 0x20 ADD PUSH32 0x4E415349434F494E000000000000000000000000000000000000000000000000 DUP2 MSTORE POP PUSH1 0x40 MLOAD DUP1 PUSH1 0x40 ADD PUSH1 0x40 MSTORE DUP1 PUSH1 0x5 DUP2 MSTORE PUSH1 0x20 ADD PUSH32 0x4E41534943000000000000000000000000000000000000000000000000000000 DUP2 MSTORE POP DUP2 PUSH1 0x3 SWAP1 DUP2 PUSH2 0xAD SWAP2 SWAP1 PUSH2 0xBD6 JUMP JUMPDEST POP DUP1 PUSH1 0x4 SWAP1 DUP2 PUSH2 0xBD SWAP2 SWAP1 PUSH2 0xBD6 JUMP JUMPDEST POP POP POP PUSH0 PUSH20 0xFFFFFFFFFFFFFFFFFFFFFFFFFFFFFFFFFFFFFFFF AND DUP2 PUSH20 0xFFFFFFFFFFFFFFFFFFFFFFFFFFFFFFFFFFFFFFFF AND SUB PUSH2 0x130 JUMPI PUSH0 PUSH1 0x40 MLOAD PUSH32 0x1E4FBDF700000000000000000000000000000000000000000000000000000000 DUP2 MSTORE PUSH1 0x4 ADD PUSH2 0x127 SWAP2 SWAP1 PUSH2 0xCB4 JUMP JUMPDEST PUSH1 0x40 MLOAD DUP1 SWAP2 SUB SWAP1 REVERT JUMPDEST PUSH2 0x13F DUP2 PUSH2 0x19E PUSH1 0x20 SHL PUSH1 0x20 SHR JUMP JUMPDEST POP CALLER PUSH1 0x9 PUSH0 PUSH2 0x100 EXP DUP2 SLOAD DUP2 PUSH20 0xFFFFFFFFFFFFFFFFFFFFFFFFFFFFFFFFFFFFFFFF MUL NOT AND SWAP1 DUP4 PUSH20 0xFFFFFFFFFFFFFFFFFFFFFFFFFFFFFFFFFFFFFFFF AND MUL OR SWAP1 SSTORE POP PUSH2 0x198 CALLER PUSH8 0x1BC16D674EC80000 PUSH2 0x261 PUSH1 0x20 SHL PUSH1 0x20 SHR JUMP JUMPDEST POP PUSH2 0xE17 JUMP JUMPDEST PUSH0 PUSH1 0x5 PUSH0 SWAP1 SLOAD SWAP1 PUSH2 0x100 EXP SWAP1 DIV PUSH20 0xFFFFFFFFFFFFFFFFFFFFFFFFFFFFFFFFFFFFFFFF AND SWAP1 POP DUP2 PUSH1 0x5 PUSH0 PUSH2 0x100 EXP DUP2 SLOAD DUP2 PUSH20 0xFFFFFFFFFFFFFFFFFFFFFFFFFFFFFFFFFFFFFFFF MUL NOT AND SWAP1 DUP4 PUSH20 0xFFFFFFFFFFFFFFFFFFFFFFFFFFFFFFFFFFFFFFFF AND MUL OR SWAP1 SSTORE POP DUP2 PUSH20 0xFFFFFFFFFFFFFFFFFFFFFFFFFFFFFFFFFFFFFFFF AND DUP2 PUSH20 0xFFFFFFFFFFFFFFFFFFFFFFFFFFFFFFFFFFFFFFFF AND PUSH32 0x8BE0079C531659141344CD1FD0A4F28419497F9722A3DAAFE3B4186F6B6457E0 PUSH1 0x40 MLOAD PUSH1 0x40 MLOAD DUP1 SWAP2 SUB SWAP1 LOG3 POP POP JUMP JUMPDEST PUSH2 0x271 DUP3 DUP3 PUSH2 0x293 PUSH1 0x20 SHL PUSH1 0x20 SHR JUMP JUMPDEST PUSH2 0x28F DUP3 PUSH2 0x284 DUP5 PUSH2 0x318 PUSH1 0x20 SHL PUSH1 0x20 SHR JUMP JUMPDEST PUSH2 0x35D PUSH1 0x20 SHL PUSH1 0x20 SHR JUMP JUMPDEST POP POP JUMP JUMPDEST PUSH0 PUSH20 0xFFFFFFFFFFFFFFFFFFFFFFFFFFFFFFFFFFFFFFFF AND DUP3 PUSH20 0xFFFFFFFFFFFFFFFFFFFFFFFFFFFFFFFFFFFFFFFF AND SUB PUSH2 0x303 JUMPI PUSH0 PUSH1 0x40 MLOAD PUSH32 0xEC442F0500000000000000000000000000000000000000000000000000000000 DUP2 MSTORE PUSH1 0x4 ADD PUSH2 0x2FA SWAP2 SWAP1 PUSH2 0xCB4 JUMP JUMPDEST PUSH1 0x40 MLOAD DUP1 SWAP2 SUB SWAP1 REVERT JUMPDEST PUSH2 0x314 PUSH0 DUP4 DUP4 PUSH2 0x577 PUSH1 0x20 SHL PUSH1 0x20 SHR JUMP JUMPDEST POP POP JUMP JUMPDEST PUSH0 PUSH0 PUSH0 DUP4 PUSH20 0xFFFFFFFFFFFFFFFFFFFFFFFFFFFFFFFFFFFFFFFF AND PUSH20 0xFFFFFFFFFFFFFFFFFFFFFFFFFFFFFFFFFFFFFFFF AND DUP2 MSTORE PUSH1 0x20 ADD SWAP1 DUP2 MSTORE PUSH1 0x20 ADD PUSH0 KECCAK256 SLOAD SWAP1 POP SWAP2 SWAP1 POP JUMP JUMPDEST PUSH0 DUP2 GT DUP1 ISZERO PUSH2 0x3B3 JUMPI POP PUSH1 0x6 PUSH0 DUP4 PUSH20 0xFFFFFFFFFFFFFFFFFFFFFFFFFFFFFFFFFFFFFFFF AND PUSH20 0xFFFFFFFFFFFFFFFFFFFFFFFFFFFFFFFFFFFFFFFF AND DUP2 MSTORE PUSH1 0x20 ADD SWAP1 DUP2 MSTORE PUSH1 0x20 ADD PUSH0 KECCAK256 PUSH0 SWAP1 SLOAD SWAP1 PUSH2 0x100 EXP SWAP1 DIV PUSH1 0xFF AND ISZERO JUMPDEST ISZERO PUSH2 0x472 JUMPI PUSH1 0x1 PUSH1 0x6 PUSH0 DUP5 PUSH20 0xFFFFFFFFFFFFFFFFFFFFFFFFFFFFFFFFFFFFFFFF AND PUSH20 0xFFFFFFFFFFFFFFFFFFFFFFFFFFFFFFFFFFFFFFFF AND DUP2 MSTORE PUSH1 0x20 ADD SWAP1 DUP2 MSTORE PUSH1 0x20 ADD PUSH0 KECCAK256 PUSH0 PUSH2 0x100 EXP DUP2 SLOAD DUP2 PUSH1 0xFF MUL NOT AND SWAP1 DUP4 ISZERO ISZERO MUL OR SWAP1 SSTORE POP PUSH1 0x8 DUP3 SWAP1 DUP1 PUSH1 0x1 DUP2 SLOAD ADD DUP1 DUP3 SSTORE DUP1 SWAP2 POP POP PUSH1 0x1 SWAP1 SUB SWAP1 PUSH0 MSTORE PUSH1 0x20 PUSH0 KECCAK256 ADD PUSH0 SWAP1 SWAP2 SWAP1 SWAP2 SWAP1 SWAP2 PUSH2 0x100 EXP DUP2 SLOAD DUP2 PUSH20 0xFFFFFFFFFFFFFFFFFFFFFFFFFFFFFFFFFFFFFFFF MUL NOT AND SWAP1 DUP4 PUSH20 0xFFFFFFFFFFFFFFFFFFFFFFFFFFFFFFFFFFFFFFFF AND MUL OR SWAP1 SSTORE POP PUSH2 0x531 JUMP JUMPDEST PUSH0 DUP2 EQ DUP1 ISZERO PUSH2 0x4C7 JUMPI POP PUSH1 0x6 PUSH0 DUP4 PUSH20 0xFFFFFFFFFFFFFFFFFFFFFFFFFFFFFFFFFFFFFFFF AND PUSH20 0xFFFFFFFFFFFFFFFFFFFFFFFFFFFFFFFFFFFFFFFF AND DUP2 MSTORE PUSH1 0x20 ADD SWAP1 DUP2 MSTORE PUSH1 0x20 ADD PUSH0 KECCAK256 PUSH0 SWAP1 SLOAD SWAP1 PUSH2 0x100 EXP SWAP1 DIV PUSH1 0xFF AND JUMPDEST ISZERO PUSH2 0x530 JUMPI PUSH0 PUSH1 0x6 PUSH0 DUP5 PUSH20 0xFFFFFFFFFFFFFFFFFFFFFFFFFFFFFFFFFFFFFFFF AND PUSH20 0xFFFFFFFFFFFFFFFFFFFFFFFFFFFFFFFFFFFFFFFF AND DUP2 MSTORE PUSH1 0x20 ADD SWAP1 DUP2 MSTORE PUSH1 0x20 ADD PUSH0 KECCAK256 PUSH0 PUSH2 0x100 EXP DUP2 SLOAD DUP2 PUSH1 0xFF MUL NOT AND SWAP1 DUP4 ISZERO ISZERO MUL OR SWAP1 SSTORE POP PUSH2 0x52F DUP3 PUSH2 0x790 PUSH1 0x20 SHL PUSH1 0x20 SHR JUMP JUMPDEST JUMPDEST JUMPDEST DUP1 PUSH1 0x7 PUSH0 DUP5 PUSH20 0xFFFFFFFFFFFFFFFFFFFFFFFFFFFFFFFFFFFFFFFF AND PUSH20 0xFFFFFFFFFFFFFFFFFFFFFFFFFFFFFFFFFFFFFFFF AND DUP2 MSTORE PUSH1 0x20 ADD SWAP1 DUP2 MSTORE PUSH1 0x20 ADD PUSH0 KECCAK256 DUP2 SWAP1 SSTORE POP POP POP JUMP JUMPDEST PUSH0 PUSH20 0xFFFFFFFFFFFFFFFFFFFFFFFFFFFFFFFFFFFFFFFF AND DUP4 PUSH20 0xFFFFFFFFFFFFFFFFFFFFFFFFFFFFFFFFFFFFFFFF AND SUB PUSH2 0x5C7 JUMPI DUP1 PUSH1 0x2 PUSH0 DUP3 DUP3 SLOAD PUSH2 0x5BB SWAP2 SWAP1 PUSH2 0xCFA JUMP JUMPDEST SWAP3 POP POP DUP2 SWAP1 SSTORE POP PUSH2 0x695 JUMP JUMPDEST PUSH0 PUSH0 PUSH0 DUP6 PUSH20 0xFFFFFFFFFFFFFFFFFFFFFFFFFFFFFFFFFFFFFFFF AND PUSH20 0xFFFFFFFFFFFFFFFFFFFFFFFFFFFFFFFFFFFFFFFF AND DUP2 MSTORE PUSH1 0x20 ADD SWAP1 DUP2 MSTORE PUSH1 0x20 ADD PUSH0 KECCAK256 SLOAD SWAP1 POP DUP2 DUP2 LT ISZERO PUSH2 0x650 JUMPI DUP4 DUP2 DUP4 PUSH1 0x40 MLOAD PUSH32 0xE450D38C00000000000000000000000000000000000000000000000000000000 DUP2 MSTORE PUSH1 0x4 ADD PUSH2 0x647 SWAP4 SWAP3 SWAP2 SWAP1 PUSH2 0xD3C JUMP JUMPDEST PUSH1 0x40 MLOAD DUP1 SWAP2 SUB SWAP1 REVERT JUMPDEST DUP2 DUP2 SUB PUSH0 PUSH0 DUP7 PUSH20 0xFFFFFFFFFFFFFFFFFFFFFFFFFFFFFFFFFFFFFFFF AND PUSH20 0xFFFFFFFFFFFFFFFFFFFFFFFFFFFFFFFFFFFFFFFF AND DUP2 MSTORE PUSH1 0x20 ADD SWAP1 DUP2 MSTORE PUSH1 0x20 ADD PUSH0 KECCAK256 DUP2 SWAP1 SSTORE POP POP JUMPDEST PUSH0 PUSH20 0xFFFFFFFFFFFFFFFFFFFFFFFFFFFFFFFFFFFFFFFF AND DUP3 PUSH20 0xFFFFFFFFFFFFFFFFFFFFFFFFFFFFFFFFFFFFFFFF AND SUB PUSH2 0x6DC JUMPI DUP1 PUSH1 0x2 PUSH0 DUP3 DUP3 SLOAD SUB SWAP3 POP POP DUP2 SWAP1 SSTORE POP PUSH2 0x726 JUMP JUMPDEST DUP1 PUSH0 PUSH0 DUP5 PUSH20 0xFFFFFFFFFFFFFFFFFFFFFFFFFFFFFFFFFFFFFFFF AND PUSH20 0xFFFFFFFFFFFFFFFFFFFFFFFFFFFFFFFFFFFFFFFF AND DUP2 MSTORE PUSH1 0x20 ADD SWAP1 DUP2 MSTORE PUSH1 0x20 ADD PUSH0 KECCAK256 PUSH0 DUP3 DUP3 SLOAD ADD SWAP3 POP POP DUP2 SWAP1 SSTORE POP JUMPDEST DUP2 PUSH20 0xFFFFFFFFFFFFFFFFFFFFFFFFFFFFFFFFFFFFFFFF AND DUP4 PUSH20 0xFFFFFFFFFFFFFFFFFFFFFFFFFFFFFFFFFFFFFFFF AND PUSH32 0xDDF252AD1BE2C89B69C2B068FC378DAA952BA7F163C4A11628F55A4DF523B3EF DUP4 PUSH1 0x40 MLOAD PUSH2 0x783 SWAP2 SWAP1 PUSH2 0xD71 JUMP JUMPDEST PUSH1 0x40 MLOAD DUP1 SWAP2 SUB SWAP1 LOG3 POP POP POP JUMP JUMPDEST PUSH0 PUSH0 SWAP1 POP JUMPDEST PUSH1 0x8 DUP1 SLOAD SWAP1 POP DUP2 LT ISZERO PUSH2 0x90C JUMPI DUP2 PUSH20 0xFFFFFFFFFFFFFFFFFFFFFFFFFFFFFFFFFFFFFFFF AND PUSH1 0x8 DUP3 DUP2 SLOAD DUP2 LT PUSH2 0x7CD JUMPI PUSH2 0x7CC PUSH2 0xD8A JUMP JUMPDEST JUMPDEST SWAP1 PUSH0 MSTORE PUSH1 0x20 PUSH0 KECCAK256 ADD PUSH0 SWAP1 SLOAD SWAP1 PUSH2 0x100 EXP SWAP1 DIV PUSH20 0xFFFFFFFFFFFFFFFFFFFFFFFFFFFFFFFFFFFFFFFF AND PUSH20 0xFFFFFFFFFFFFFFFFFFFFFFFFFFFFFFFFFFFFFFFF AND SUB PUSH2 0x8FF JUMPI PUSH1 0x8 PUSH1 0x1 PUSH1 0x8 DUP1 SLOAD SWAP1 POP PUSH2 0x824 SWAP2 SWAP1 PUSH2 0xDB7 JUMP JUMPDEST DUP2 SLOAD DUP2 LT PUSH2 0x835 JUMPI PUSH2 0x834 PUSH2 0xD8A JUMP JUMPDEST JUMPDEST SWAP1 PUSH0 MSTORE PUSH1 0x20 PUSH0 KECCAK256 ADD PUSH0 SWAP1 SLOAD SWAP1 PUSH2 0x100 EXP SWAP1 DIV PUSH20 0xFFFFFFFFFFFFFFFFFFFFFFFFFFFFFFFFFFFFFFFF AND PUSH1 0x8 DUP3 DUP2 SLOAD DUP2 LT PUSH2 0x871 JUMPI PUSH2 0x870 PUSH2 0xD8A JUMP JUMPDEST JUMPDEST SWAP1 PUSH0 MSTORE PUSH1 0x20 PUSH0 KECCAK256 ADD PUSH0 PUSH2 0x100 EXP DUP2 SLOAD DUP2 PUSH20 0xFFFFFFFFFFFFFFFFFFFFFFFFFFFFFFFFFFFFFFFF MUL NOT AND SWAP1 DUP4 PUSH20 0xFFFFFFFFFFFFFFFFFFFFFFFFFFFFFFFFFFFFFFFF AND MUL OR SWAP1 SSTORE POP PUSH1 0x8 DUP1 SLOAD DUP1 PUSH2 0x8C8 JUMPI PUSH2 0x8C7 PUSH2 0xDEA JUMP JUMPDEST JUMPDEST PUSH1 0x1 SWAP1 SUB DUP2 DUP2 SWAP1 PUSH0 MSTORE PUSH1 0x20 PUSH0 KECCAK256 ADD PUSH0 PUSH2 0x100 EXP DUP2 SLOAD SWAP1 PUSH20 0xFFFFFFFFFFFFFFFFFFFFFFFFFFFFFFFFFFFFFFFF MUL NOT AND SWAP1 SSTORE SWAP1 SSTORE PUSH2 0x90C JUMP JUMPDEST DUP1 DUP1 PUSH1 0x1 ADD SWAP2 POP POP PUSH2 0x795 JUMP JUMPDEST POP POP JUMP JUMPDEST PUSH0 PUSH0 REVERT JUMPDEST PUSH0 PUSH20 0xFFFFFFFFFFFFFFFFFFFFFFFFFFFFFFFFFFFFFFFF DUP3 AND SWAP1 POP SWAP2 SWAP1 POP JUMP JUMPDEST PUSH0 PUSH2 0x93D DUP3 PUSH2 0x914 JUMP JUMPDEST SWAP1 POP SWAP2 SWAP1 POP JUMP JUMPDEST PUSH2 0x94D DUP2 PUSH2 0x933 JUMP JUMPDEST DUP2 EQ PUSH2 0x957 JUMPI PUSH0 PUSH0 REVERT JUMPDEST POP JUMP JUMPDEST PUSH0 DUP2 MLOAD SWAP1 POP PUSH2 0x968 DUP2 PUSH2 0x944 JUMP JUMPDEST SWAP3 SWAP2 POP POP JUMP JUMPDEST PUSH0 PUSH1 0x20 DUP3 DUP5 SUB SLT ISZERO PUSH2 0x983 JUMPI PUSH2 0x982 PUSH2 0x910 JUMP JUMPDEST JUMPDEST PUSH0 PUSH2 0x990 DUP5 DUP3 DUP6 ADD PUSH2 0x95A JUMP JUMPDEST SWAP2 POP POP SWAP3 SWAP2 POP POP JUMP JUMPDEST PUSH0 DUP2 MLOAD SWAP1 POP SWAP2 SWAP1 POP JUMP JUMPDEST PUSH32 0x4E487B7100000000000000000000000000000000000000000000000000000000 PUSH0 MSTORE PUSH1 0x41 PUSH1 0x4 MSTORE PUSH1 0x24 PUSH0 REVERT JUMPDEST PUSH32 0x4E487B7100000000000000000000000000000000000000000000000000000000 PUSH0 MSTORE PUSH1 0x22 PUSH1 0x4 MSTORE PUSH1 0x24 PUSH0 REVERT JUMPDEST PUSH0 PUSH1 0x2 DUP3 DIV SWAP1 POP PUSH1 0x1 DUP3 AND DUP1 PUSH2 0xA14 JUMPI PUSH1 0x7F DUP3 AND SWAP2 POP JUMPDEST PUSH1 0x20 DUP3 LT DUP2 SUB PUSH2 0xA27 JUMPI PUSH2 0xA26 PUSH2 0x9D0 JUMP JUMPDEST JUMPDEST POP SWAP2 SWAP1 POP JUMP JUMPDEST PUSH0 DUP2 SWAP1 POP DUP2 PUSH0 MSTORE PUSH1 0x20 PUSH0 KECCAK256 SWAP1 POP SWAP2 SWAP1 POP JUMP JUMPDEST PUSH0 PUSH1 0x20 PUSH1 0x1F DUP4 ADD DIV SWAP1 POP SWAP2 SWAP1 POP JUMP JUMPDEST PUSH0 DUP3 DUP3 SHL SWAP1 POP SWAP3 SWAP2 POP POP JUMP JUMPDEST PUSH0 PUSH1 0x8 DUP4 MUL PUSH2 0xA89 PUSH32 0xFFFFFFFFFFFFFFFFFFFFFFFFFFFFFFFFFFFFFFFFFFFFFFFFFFFFFFFFFFFFFFFF DUP3 PUSH2 0xA4E JUMP JUMPDEST PUSH2 0xA93 DUP7 DUP4 PUSH2 0xA4E JUMP JUMPDEST SWAP6 POP DUP1 NOT DUP5 AND SWAP4 POP DUP1 DUP7 AND DUP5 OR SWAP3 POP POP POP SWAP4 SWAP3 POP POP POP JUMP JUMPDEST PUSH0 DUP2 SWAP1 POP SWAP2 SWAP1 POP JUMP JUMPDEST PUSH0 DUP2 SWAP1 POP SWAP2 SWAP1 POP JUMP JUMPDEST PUSH0 PUSH2 0xAD7 PUSH2 0xAD2 PUSH2 0xACD DUP5 PUSH2 0xAAB JUMP JUMPDEST PUSH2 0xAB4 JUMP JUMPDEST PUSH2 0xAAB JUMP JUMPDEST SWAP1 POP SWAP2 SWAP1 POP JUMP JUMPDEST PUSH0 DUP2 SWAP1 POP SWAP2 SWAP1 POP JUMP JUMPDEST PUSH2 0xAF0 DUP4 PUSH2 0xABD JUMP JUMPDEST PUSH2 0xB04 PUSH2 0xAFC DUP3 PUSH2 0xADE JUMP JUMPDEST DUP5 DUP5 SLOAD PUSH2 0xA5A JUMP JUMPDEST DUP3 SSTORE POP POP POP POP JUMP JUMPDEST PUSH0 PUSH0 SWAP1 POP SWAP1 JUMP JUMPDEST PUSH2 0xB1B PUSH2 0xB0C JUMP JUMPDEST PUSH2 0xB26 DUP2 DUP5 DUP5 PUSH2 0xAE7 JUMP JUMPDEST POP POP POP JUMP JUMPDEST JUMPDEST DUP2 DUP2 LT ISZERO PUSH2 0xB49 JUMPI PUSH2 0xB3E PUSH0 DUP3 PUSH2 0xB13 JUMP JUMPDEST PUSH1 0x1 DUP2 ADD SWAP1 POP PUSH2 0xB2C JUMP JUMPDEST POP POP JUMP JUMPDEST PUSH1 0x1F DUP3 GT ISZERO PUSH2 0xB8E JUMPI PUSH2 0xB5F DUP2 PUSH2 0xA2D JUMP JUMPDEST PUSH2 0xB68 DUP5 PUSH2 0xA3F JUMP JUMPDEST DUP2 ADD PUSH1 0x20 DUP6 LT ISZERO PUSH2 0xB77 JUMPI DUP2 SWAP1 POP JUMPDEST PUSH2 0xB8B PUSH2 0xB83 DUP6 PUSH2 0xA3F JUMP JUMPDEST DUP4 ADD DUP3 PUSH2 0xB2B JUMP JUMPDEST POP POP JUMPDEST POP POP POP JUMP JUMPDEST PUSH0 DUP3 DUP3 SHR SWAP1 POP SWAP3 SWAP2 POP POP JUMP JUMPDEST PUSH0 PUSH2 0xBAE PUSH0 NOT DUP5 PUSH1 0x8 MUL PUSH2 0xB93 JUMP JUMPDEST NOT DUP1 DUP4 AND SWAP2 POP POP SWAP3 SWAP2 POP POP JUMP JUMPDEST PUSH0 PUSH2 0xBC6 DUP4 DUP4 PUSH2 0xB9F JUMP JUMPDEST SWAP2 POP DUP3 PUSH1 0x2 MUL DUP3 OR SWAP1 POP SWAP3 SWAP2 POP POP JUMP JUMPDEST PUSH2 0xBDF DUP3 PUSH2 0x999 JUMP JUMPDEST PUSH8 0xFFFFFFFFFFFFFFFF DUP2 GT ISZERO PUSH2 0xBF8 JUMPI PUSH2 0xBF7 PUSH2 0x9A3 JUMP JUMPDEST JUMPDEST PUSH2 0xC02 DUP3 SLOAD PUSH2 0x9FD JUMP JUMPDEST PUSH2 0xC0D DUP3 DUP3 DUP6 PUSH2 0xB4D JUMP JUMPDEST PUSH0 PUSH1 0x20 SWAP1 POP PUSH1 0x1F DUP4 GT PUSH1 0x1 DUP2 EQ PUSH2 0xC3E JUMPI PUSH0 DUP5 ISZERO PUSH2 0xC2C JUMPI DUP3 DUP8 ADD MLOAD SWAP1 POP JUMPDEST PUSH2 0xC36 DUP6 DUP3 PUSH2 0xBBB JUMP JUMPDEST DUP7 SSTORE POP PUSH2 0xC9D JUMP JUMPDEST PUSH1 0x1F NOT DUP5 AND PUSH2 0xC4C DUP7 PUSH2 0xA2D JUMP JUMPDEST PUSH0 JUMPDEST DUP3 DUP2 LT ISZERO PUSH2 0xC73 JUMPI DUP5 DUP10 ADD MLOAD DUP3 SSTORE PUSH1 0x1 DUP3 ADD SWAP2 POP PUSH1 0x20 DUP6 ADD SWAP5 POP PUSH1 0x20 DUP2 ADD SWAP1 POP PUSH2 0xC4E JUMP JUMPDEST DUP7 DUP4 LT ISZERO PUSH2 0xC90 JUMPI DUP5 DUP10 ADD MLOAD PUSH2 0xC8C PUSH1 0x1F DUP10 AND DUP3 PUSH2 0xB9F JUMP JUMPDEST DUP4 SSTORE POP JUMPDEST PUSH1 0x1 PUSH1 0x2 DUP9 MUL ADD DUP9 SSTORE POP POP POP JUMPDEST POP POP POP POP POP POP JUMP JUMPDEST PUSH2 0xCAE DUP2 PUSH2 0x933 JUMP JUMPDEST DUP3 MSTORE POP POP JUMP JUMPDEST PUSH0 PUSH1 0x20 DUP3 ADD SWAP1 POP PUSH2 0xCC7 PUSH0 DUP4 ADD DUP5 PUSH2 0xCA5 JUMP JUMPDEST SWAP3 SWAP2 POP POP JUMP JUMPDEST PUSH32 0x4E487B7100000000000000000000000000000000000000000000000000000000 PUSH0 MSTORE PUSH1 0x11 PUSH1 0x4 MSTORE PUSH1 0x24 PUSH0 REVERT JUMPDEST PUSH0 PUSH2 0xD04 DUP3 PUSH2 0xAAB JUMP JUMPDEST SWAP2 POP PUSH2 0xD0F DUP4 PUSH2 0xAAB JUMP JUMPDEST SWAP3 POP DUP3 DUP3 ADD SWAP1 POP DUP1 DUP3 GT ISZERO PUSH2 0xD27 JUMPI PUSH2 0xD26 PUSH2 0xCCD JUMP JUMPDEST JUMPDEST SWAP3 SWAP2 POP POP JUMP JUMPDEST PUSH2 0xD36 DUP2 PUSH2 0xAAB JUMP JUMPDEST DUP3 MSTORE POP POP JUMP JUMPDEST PUSH0 PUSH1 0x60 DUP3 ADD SWAP1 POP PUSH2 0xD4F PUSH0 DUP4 ADD DUP7 PUSH2 0xCA5 JUMP JUMPDEST PUSH2 0xD5C PUSH1 0x20 DUP4 ADD DUP6 PUSH2 0xD2D JUMP JUMPDEST PUSH2 0xD69 PUSH1 0x40 DUP4 ADD DUP5 PUSH2 0xD2D JUMP JUMPDEST SWAP5 SWAP4 POP POP POP POP JUMP JUMPDEST PUSH0 PUSH1 0x20 DUP3 ADD SWAP1 POP PUSH2 0xD84 PUSH0 DUP4 ADD DUP5 PUSH2 0xD2D JUMP JUMPDEST SWAP3 SWAP2 POP POP JUMP JUMPDEST PUSH32 0x4E487B7100000000000000000000000000000000000000000000000000000000 PUSH0 MSTORE PUSH1 0x32 PUSH1 0x4 MSTORE PUSH1 0x24 PUSH0 REVERT JUMPDEST PUSH0 PUSH2 0xDC1 DUP3 PUSH2 0xAAB JUMP JUMPDEST SWAP2 POP PUSH2 0xDCC DUP4 PUSH2 0xAAB JUMP JUMPDEST SWAP3 POP DUP3 DUP3 SUB SWAP1 POP DUP2 DUP2 GT ISZERO PUSH2 0xDE4 JUMPI PUSH2 0xDE3 PUSH2 0xCCD JUMP JUMPDEST JUMPDEST SWAP3 SWAP2 POP POP JUMP JUMPDEST PUSH32 0x4E487B7100000000000000000000000000000000000000000000000000000000 PUSH0 MSTORE PUSH1 0x31 PUSH1 0x4 MSTORE PUSH1 0x24 PUSH0 REVERT JUMPDEST PUSH2 0x2A1C DUP1 PUSH2 0xE24 PUSH0 CODECOPY PUSH0 RETURN INVALID PUSH1 0x80 PUSH1 0x40 MSTORE CALLVALUE DUP1 ISZERO PUSH2 0xF JUMPI PUSH0 PUSH0 REVERT JUMPDEST POP PUSH1 0x4 CALLDATASIZE LT PUSH2 0x1CC JUMPI PUSH0 CALLDATALOAD PUSH1 0xE0 SHR DUP1 PUSH4 0x88DACBCC GT PUSH2 0x102 JUMPI DUP1 PUSH4 0xA9059CBB GT PUSH2 0xA0 JUMPI DUP1 PUSH4 0xDD62ED3E GT PUSH2 0x6F JUMPI DUP1 PUSH4 0xDD62ED3E EQ PUSH2 0x4C0 JUMPI DUP1 PUSH4 0xDD940CB5 EQ PUSH2 0x4F0 JUMPI DUP1 PUSH4 0xE9C559A9 EQ PUSH2 0x4FA JUMPI DUP1 PUSH4 0xF2FDE38B EQ PUSH2 0x518 JUMPI PUSH2 0x1CC JUMP JUMPDEST DUP1 PUSH4 0xA9059CBB EQ PUSH2 0x438 JUMPI DUP1 PUSH4 0xB543503E EQ PUSH2 0x468 JUMPI DUP1 PUSH4 0xB9C28D29 EQ PUSH2 0x484 JUMPI DUP1 PUSH4 0xCA4B208B EQ PUSH2 0x4A2 JUMPI PUSH2 0x1CC JUMP JUMPDEST DUP1 PUSH4 0x95D89B41 GT PUSH2 0xDC JUMPI DUP1 PUSH4 0x95D89B41 EQ PUSH2 0x3D8 JUMPI DUP1 PUSH4 0x9E12279D EQ PUSH2 0x3F6 JUMPI DUP1 PUSH4 0xA67A91E3 EQ PUSH2 0x412 JUMPI DUP1 PUSH4 0xA86C8374 EQ PUSH2 0x41C JUMPI PUSH2 0x1CC JUMP JUMPDEST DUP1 PUSH4 0x88DACBCC EQ PUSH2 0x392 JUMPI DUP1 PUSH4 0x8A4ADF24 EQ PUSH2 0x39C JUMPI DUP1 PUSH4 0x8DA5CB5B EQ PUSH2 0x3BA JUMPI PUSH2 0x1CC JUMP JUMPDEST DUP1 PUSH4 0x2B7DF804 GT PUSH2 0x16F JUMPI DUP1 PUSH4 0x40C10F19 GT PUSH2 0x149 JUMPI DUP1 PUSH4 0x40C10F19 EQ PUSH2 0x30C JUMPI DUP1 PUSH4 0x47734892 EQ PUSH2 0x328 JUMPI DUP1 PUSH4 0x70A08231 EQ PUSH2 0x358 JUMPI DUP1 PUSH4 0x715018A6 EQ PUSH2 0x388 JUMPI PUSH2 0x1CC JUMP JUMPDEST DUP1 PUSH4 0x2B7DF804 EQ PUSH2 0x2B2 JUMPI DUP1 PUSH4 0x2FF2E9DC EQ PUSH2 0x2D0 JUMPI DUP1 PUSH4 0x313CE567 EQ PUSH2 0x2EE JUMPI PUSH2 0x1CC JUMP JUMPDEST DUP1 PUSH4 0x6FDDE03 GT PUSH2 0x1AB JUMPI DUP1 PUSH4 0x6FDDE03 EQ PUSH2 0x216 JUMPI DUP1 PUSH4 0x95EA7B3 EQ PUSH2 0x234 JUMPI DUP1 PUSH4 0x18160DDD EQ PUSH2 0x264 JUMPI DUP1 PUSH4 0x23B872DD EQ PUSH2 0x282 JUMPI PUSH2 0x1CC JUMP JUMPDEST DUP1 PUSH3 0xCE8E3E EQ PUSH2 0x1D0 JUMPI DUP1 PUSH4 0x5069F22 EQ PUSH2 0x1EE JUMPI DUP1 PUSH4 0x67453A6 EQ PUSH2 0x20C JUMPI JUMPDEST PUSH0 PUSH0 REVERT JUMPDEST PUSH2 0x1D8 PUSH2 0x534 JUMP JUMPDEST PUSH1 0x40 MLOAD PUSH2 0x1E5 SWAP2 SWAP1 PUSH2 0x2098 JUMP JUMPDEST PUSH1 0x40 MLOAD DUP1 SWAP2 SUB SWAP1 RETURN JUMPDEST PUSH2 0x1F6 PUSH2 0x5BF JUMP JUMPDEST PUSH1 0x40 MLOAD PUSH2 0x203 SWAP2 SWAP1 PUSH2 0x20C7 JUMP JUMPDEST PUSH1 0x40 MLOAD DUP1 SWAP2 SUB SWAP1 RETURN JUMPDEST PUSH2 0x214 PUSH2 0x5E4 JUMP JUMPDEST STOP JUMPDEST PUSH2 0x21E PUSH2 0x743 JUMP JUMPDEST PUSH1 0x40 MLOAD PUSH2 0x22B SWAP2 SWAP1 PUSH2 0x2150 JUMP JUMPDEST PUSH1 0x40 MLOAD DUP1 SWAP2 SUB SWAP1 RETURN JUMPDEST PUSH2 0x24E PUSH1 0x4 DUP1 CALLDATASIZE SUB DUP2 ADD SWAP1 PUSH2 0x249 SWAP2 SWAP1 PUSH2 0x21D1 JUMP JUMPDEST PUSH2 0x7D3 JUMP JUMPDEST PUSH1 0x40 MLOAD PUSH2 0x25B SWAP2 SWAP1 PUSH2 0x2229 JUMP JUMPDEST PUSH1 0x40 MLOAD DUP1 SWAP2 SUB SWAP1 RETURN JUMPDEST PUSH2 0x26C PUSH2 0x7F5 JUMP JUMPDEST PUSH1 0x40 MLOAD PUSH2 0x279 SWAP2 SWAP1 PUSH2 0x2251 JUMP JUMPDEST PUSH1 0x40 MLOAD DUP1 SWAP2 SUB SWAP1 RETURN JUMPDEST PUSH2 0x29C PUSH1 0x4 DUP1 CALLDATASIZE SUB DUP2 ADD SWAP1 PUSH2 0x297 SWAP2 SWAP1 PUSH2 0x226A JUMP JUMPDEST PUSH2 0x7FE JUMP JUMPDEST PUSH1 0x40 MLOAD PUSH2 0x2A9 SWAP2 SWAP1 PUSH2 0x2229 JUMP JUMPDEST PUSH1 0x40 MLOAD DUP1 SWAP2 SUB SWAP1 RETURN JUMPDEST PUSH2 0x2BA PUSH2 0x82C JUMP JUMPDEST PUSH1 0x40 MLOAD PUSH2 0x2C7 SWAP2 SWAP1 PUSH2 0x2251 JUMP JUMPDEST PUSH1 0x40 MLOAD DUP1 SWAP2 SUB SWAP1 RETURN JUMPDEST PUSH2 0x2D8 PUSH2 0x832 JUMP JUMPDEST PUSH1 0x40 MLOAD PUSH2 0x2E5 SWAP2 SWAP1 PUSH2 0x2251 JUMP JUMPDEST PUSH1 0x40 MLOAD DUP1 SWAP2 SUB SWAP1 RETURN JUMPDEST PUSH2 0x2F6 PUSH2 0x83E JUMP JUMPDEST PUSH1 0x40 MLOAD PUSH2 0x303 SWAP2 SWAP1 PUSH2 0x22D5 JUMP JUMPDEST PUSH1 0x40 MLOAD DUP1 SWAP2 SUB SWAP1 RETURN JUMPDEST PUSH2 0x326 PUSH1 0x4 DUP1 CALLDATASIZE SUB DUP2 ADD SWAP1 PUSH2 0x321 SWAP2 SWAP1 PUSH2 0x21D1 JUMP JUMPDEST PUSH2 0x846 JUMP JUMPDEST STOP JUMPDEST PUSH2 0x342 PUSH1 0x4 DUP1 CALLDATASIZE SUB DUP2 ADD SWAP1 PUSH2 0x33D SWAP2 SWAP1 PUSH2 0x22EE JUMP JUMPDEST PUSH2 0x8E3 JUMP JUMPDEST PUSH1 0x40 MLOAD PUSH2 0x34F SWAP2 SWAP1 PUSH2 0x2251 JUMP JUMPDEST PUSH1 0x40 MLOAD DUP1 SWAP2 SUB SWAP1 RETURN JUMPDEST PUSH2 0x372 PUSH1 0x4 DUP1 CALLDATASIZE SUB DUP2 ADD SWAP1 PUSH2 0x36D SWAP2 SWAP1 PUSH2 0x22EE JUMP JUMPDEST PUSH2 0x929 JUMP JUMPDEST PUSH1 0x40 MLOAD PUSH2 0x37F SWAP2 SWAP1 PUSH2 0x2251 JUMP JUMPDEST PUSH1 0x40 MLOAD DUP1 SWAP2 SUB SWAP1 RETURN JUMPDEST PUSH2 0x390 PUSH2 0x96E JUMP JUMPDEST STOP JUMPDEST PUSH2 0x39A PUSH2 0x981 JUMP JUMPDEST STOP JUMPDEST PUSH2 0x3A4 PUSH2 0xA59 JUMP JUMPDEST PUSH1 0x40 MLOAD PUSH2 0x3B1 SWAP2 SWAP1 PUSH2 0x20C7 JUMP JUMPDEST PUSH1 0x40 MLOAD DUP1 SWAP2 SUB SWAP1 RETURN JUMPDEST PUSH2 0x3C2 PUSH2 0xA7E JUMP JUMPDEST PUSH1 0x40 MLOAD PUSH2 0x3CF SWAP2 SWAP1 PUSH2 0x20C7 JUMP JUMPDEST PUSH1 0x40 MLOAD DUP1 SWAP2 SUB SWAP1 RETURN JUMPDEST PUSH2 0x3E0 PUSH2 0xAA6 JUMP JUMPDEST PUSH1 0x40 MLOAD PUSH2 0x3ED SWAP2 SWAP1 PUSH2 0x2150 JUMP JUMPDEST PUSH1 0x40 MLOAD DUP1 SWAP2 SUB SWAP1 RETURN JUMPDEST PUSH2 0x410 PUSH1 0x4 DUP1 CALLDATASIZE SUB DUP2 ADD SWAP1 PUSH2 0x40B SWAP2 SWAP1 PUSH2 0x22EE JUMP JUMPDEST PUSH2 0xB36 JUMP JUMPDEST STOP JUMPDEST PUSH2 0x41A PUSH2 0xC94 JUMP JUMPDEST STOP JUMPDEST PUSH2 0x436 PUSH1 0x4 DUP1 CALLDATASIZE SUB DUP2 ADD SWAP1 PUSH2 0x431 SWAP2 SWAP1 PUSH2 0x22EE JUMP JUMPDEST PUSH2 0xE62 JUMP JUMPDEST STOP JUMPDEST PUSH2 0x452 PUSH1 0x4 DUP1 CALLDATASIZE SUB DUP2 ADD SWAP1 PUSH2 0x44D SWAP2 SWAP1 PUSH2 0x21D1 JUMP JUMPDEST PUSH2 0x1047 JUMP JUMPDEST PUSH1 0x40 MLOAD PUSH2 0x45F SWAP2 SWAP1 PUSH2 0x2229 JUMP JUMPDEST PUSH1 0x40 MLOAD DUP1 SWAP2 SUB SWAP1 RETURN JUMPDEST PUSH2 0x482 PUSH1 0x4 DUP1 CALLDATASIZE SUB DUP2 ADD SWAP1 PUSH2 0x47D SWAP2 SWAP1 PUSH2 0x22EE JUMP JUMPDEST PUSH2 0x1069 JUMP JUMPDEST STOP JUMPDEST PUSH2 0x48C PUSH2 0x1122 JUMP JUMPDEST PUSH1 0x40 MLOAD PUSH2 0x499 SWAP2 SWAP1 PUSH2 0x20C7 JUMP JUMPDEST PUSH1 0x40 MLOAD DUP1 SWAP2 SUB SWAP1 RETURN JUMPDEST PUSH2 0x4AA PUSH2 0x1147 JUMP JUMPDEST PUSH1 0x40 MLOAD PUSH2 0x4B7 SWAP2 SWAP1 PUSH2 0x20C7 JUMP JUMPDEST PUSH1 0x40 MLOAD DUP1 SWAP2 SUB SWAP1 RETURN JUMPDEST PUSH2 0x4DA PUSH1 0x4 DUP1 CALLDATASIZE SUB DUP2 ADD SWAP1 PUSH2 0x4D5 SWAP2 SWAP1 PUSH2 0x2319 JUMP JUMPDEST PUSH2 0x116C JUMP JUMPDEST PUSH1 0x40 MLOAD PUSH2 0x4E7 SWAP2 SWAP1 PUSH2 0x2251 JUMP JUMPDEST PUSH1 0x40 MLOAD DUP1 SWAP2 SUB SWAP1 RETURN JUMPDEST PUSH2 0x4F8 PUSH2 0x11EE JUMP JUMPDEST STOP JUMPDEST PUSH2 0x502 PUSH2 0x13F2 JUMP JUMPDEST PUSH1 0x40 MLOAD PUSH2 0x50F SWAP2 SWAP1 PUSH2 0x2251 JUMP JUMPDEST PUSH1 0x40 MLOAD DUP1 SWAP2 SUB SWAP1 RETURN JUMPDEST PUSH2 0x532 PUSH1 0x4 DUP1 CALLDATASIZE SUB DUP2 ADD SWAP1 PUSH2 0x52D SWAP2 SWAP1 PUSH2 0x22EE JUMP JUMPDEST PUSH2 0x13F8 JUMP JUMPDEST STOP JUMPDEST PUSH1 0x60 PUSH1 0x8 DUP1 SLOAD DUP1 PUSH1 0x20 MUL PUSH1 0x20 ADD PUSH1 0x40 MLOAD SWAP1 DUP2 ADD PUSH1 0x40 MSTORE DUP1 SWAP3 SWAP2 SWAP1 DUP2 DUP2 MSTORE PUSH1 0x20 ADD DUP3 DUP1 SLOAD DUP1 ISZERO PUSH2 0x5B5 JUMPI PUSH1 0x20 MUL DUP3 ADD SWAP2 SWAP1 PUSH0 MSTORE PUSH1 0x20 PUSH0 KECCAK256 SWAP1 JUMPDEST DUP2 PUSH0 SWAP1 SLOAD SWAP1 PUSH2 0x100 EXP SWAP1 DIV PUSH20 0xFFFFFFFFFFFFFFFFFFFFFFFFFFFFFFFFFFFFFFFF AND PUSH20 0xFFFFFFFFFFFFFFFFFFFFFFFFFFFFFFFFFFFFFFFF AND DUP2 MSTORE PUSH1 0x20 ADD SWAP1 PUSH1 0x1 ADD SWAP1 DUP1 DUP4 GT PUSH2 0x56C JUMPI JUMPDEST POP POP POP POP POP SWAP1 POP SWAP1 JUMP JUMPDEST PUSH1 0xB PUSH0 SWAP1 SLOAD SWAP1 PUSH2 0x100 EXP SWAP1 DIV PUSH20 0xFFFFFFFFFFFFFFFFFFFFFFFFFFFFFFFFFFFFFFFF AND DUP2 JUMP JUMPDEST PUSH1 0x9 PUSH0 SWAP1 SLOAD SWAP1 PUSH2 0x100 EXP SWAP1 DIV PUSH20 0xFFFFFFFFFFFFFFFFFFFFFFFFFFFFFFFFFFFFFFFF AND PUSH20 0xFFFFFFFFFFFFFFFFFFFFFFFFFFFFFFFFFFFFFFFF AND CALLER PUSH20 0xFFFFFFFFFFFFFFFFFFFFFFFFFFFFFFFFFFFFFFFF AND EQ PUSH2 0x673 JUMPI PUSH1 0x40 MLOAD PUSH32 0x8C379A000000000000000000000000000000000000000000000000000000000 DUP2 MSTORE PUSH1 0x4 ADD PUSH2 0x66A SWAP1 PUSH2 0x23A1 JUMP JUMPDEST PUSH1 0x40 MLOAD DUP1 SWAP2 SUB SWAP1 REVERT JUMPDEST PUSH0 PUSH1 0xE SLOAD GT PUSH2 0x6B7 JUMPI PUSH1 0x40 MLOAD PUSH32 0x8C379A000000000000000000000000000000000000000000000000000000000 DUP2 MSTORE PUSH1 0x4 ADD PUSH2 0x6AE SWAP1 PUSH2 0x242F JUMP JUMPDEST PUSH1 0x40 MLOAD DUP1 SWAP2 SUB SWAP1 REVERT JUMPDEST PUSH0 PUSH1 0xC PUSH0 PUSH2 0x100 EXP DUP2 SLOAD DUP2 PUSH20 0xFFFFFFFFFFFFFFFFFFFFFFFFFFFFFFFFFFFFFFFF MUL NOT AND SWAP1 DUP4 PUSH20 0xFFFFFFFFFFFFFFFFFFFFFFFFFFFFFFFFFFFFFFFF AND MUL OR SWAP1 SSTORE POP PUSH0 PUSH1 0xE DUP2 SWAP1 SSTORE POP CALLER PUSH20 0xFFFFFFFFFFFFFFFFFFFFFFFFFFFFFFFFFFFFFFFF AND PUSH32 0xCCD8C9D5857ED509892CB6BA9A608F25FA4CFED016A475A02E39837F019461CC PUSH1 0x40 MLOAD PUSH1 0x40 MLOAD DUP1 SWAP2 SUB SWAP1 LOG2 JUMP JUMPDEST PUSH1 0x60 PUSH1 0x3 DUP1 SLOAD PUSH2 0x752 SWAP1 PUSH2 0x247A JUMP JUMPDEST DUP1 PUSH1 0x1F ADD PUSH1 0x20 DUP1 SWAP2 DIV MUL PUSH1 0x20 ADD PUSH1 0x40 MLOAD SWAP1 DUP2 ADD PUSH1 0x40 MSTORE DUP1 SWAP3 SWAP2 SWAP1 DUP2 DUP2 MSTORE PUSH1 0x20 ADD DUP3 DUP1 SLOAD PUSH2 0x77E SWAP1 PUSH2 0x247A JUMP JUMPDEST DUP1 ISZERO PUSH2 0x7C9 JUMPI DUP1 PUSH1 0x1F LT PUSH2 0x7A0 JUMPI PUSH2 0x100 DUP1 DUP4 SLOAD DIV MUL DUP4 MSTORE SWAP2 PUSH1 0x20 ADD SWAP2 PUSH2 0x7C9 JUMP JUMPDEST DUP3 ADD SWAP2 SWAP1 PUSH0 MSTORE PUSH1 0x20 PUSH0 KECCAK256 SWAP1 JUMPDEST DUP2 SLOAD DUP2 MSTORE SWAP1 PUSH1 0x1 ADD SWAP1 PUSH1 0x20 ADD DUP1 DUP4 GT PUSH2 0x7AC JUMPI DUP3 SWAP1 SUB PUSH1 0x1F AND DUP3 ADD SWAP2 JUMPDEST POP POP POP POP POP SWAP1 POP SWAP1 JUMP JUMPDEST PUSH0 PUSH0 PUSH2 0x7DD PUSH2 0x147C JUMP JUMPDEST SWAP1 POP PUSH2 0x7EA DUP2 DUP6 DUP6 PUSH2 0x1483 JUMP JUMPDEST PUSH1 0x1 SWAP2 POP POP SWAP3 SWAP2 POP POP JUMP JUMPDEST PUSH0 PUSH1 0x2 SLOAD SWAP1 POP SWAP1 JUMP JUMPDEST PUSH0 PUSH0 PUSH2 0x808 PUSH2 0x147C JUMP JUMPDEST SWAP1 POP PUSH2 0x815 DUP6 DUP3 DUP6 PUSH2 0x1495 JUMP JUMPDEST PUSH2 0x820 DUP6 DUP6 DUP6 PUSH2 0x1528 JUMP JUMPDEST PUSH1 0x1 SWAP2 POP POP SWAP4 SWAP3 POP POP POP JUMP JUMPDEST PUSH1 0xD SLOAD DUP2 JUMP JUMPDEST PUSH8 0x1BC16D674EC80000 DUP2 JUMP JUMPDEST PUSH0 PUSH1 0x12 SWAP1 POP SWAP1 JUMP JUMPDEST PUSH1 0xA PUSH0 SWAP1 SLOAD SWAP1 PUSH2 0x100 EXP SWAP1 DIV PUSH20 0xFFFFFFFFFFFFFFFFFFFFFFFFFFFFFFFFFFFFFFFF AND PUSH20 0xFFFFFFFFFFFFFFFFFFFFFFFFFFFFFFFFFFFFFFFF AND CALLER PUSH20 0xFFFFFFFFFFFFFFFFFFFFFFFFFFFFFFFFFFFFFFFF AND EQ PUSH2 0x8D5 JUMPI PUSH1 0x40 MLOAD PUSH32 0x8C379A000000000000000000000000000000000000000000000000000000000 DUP2 MSTORE PUSH1 0x4 ADD PUSH2 0x8CC SWAP1 PUSH2 0x24F4 JUMP JUMPDEST PUSH1 0x40 MLOAD DUP1 SWAP2 SUB SWAP1 REVERT JUMPDEST PUSH2 0x8DF DUP3 DUP3 PUSH2 0x155C JUMP JUMPDEST POP POP JUMP JUMPDEST PUSH0 PUSH1 0x7 PUSH0 DUP4 PUSH20 0xFFFFFFFFFFFFFFFFFFFFFFFFFFFFFFFFFFFFFFFF AND PUSH20 0xFFFFFFFFFFFFFFFFFFFFFFFFFFFFFFFFFFFFFFFF AND DUP2 MSTORE PUSH1 0x20 ADD SWAP1 DUP2 MSTORE PUSH1 0x20 ADD PUSH0 KECCAK256 SLOAD SWAP1 POP SWAP2 SWAP1 POP JUMP JUMPDEST PUSH0 PUSH0 PUSH0 DUP4 PUSH20 0xFFFFFFFFFFFFFFFFFFFFFFFFFFFFFFFFFFFFFFFF AND PUSH20 0xFFFFFFFFFFFFFFFFFFFFFFFFFFFFFFFFFFFFFFFF AND DUP2 MSTORE PUSH1 0x20 ADD SWAP1 DUP2 MSTORE PUSH1 0x20 ADD PUSH0 KECCAK256 SLOAD SWAP1 POP SWAP2 SWAP1 POP JUMP JUMPDEST PUSH2 0x976 PUSH2 0x157C JUMP JUMPDEST PUSH2 0x97F PUSH0 PUSH2 0x1603 JUMP JUMPDEST JUMP JUMPDEST PUSH2 0x989 PUSH2 0x157C JUMP JUMPDEST PUSH0 PUSH1 0xD SLOAD GT PUSH2 0x9CD JUMPI PUSH1 0x40 MLOAD PUSH32 0x8C379A000000000000000000000000000000000000000000000000000000000 DUP2 MSTORE PUSH1 0x4 ADD PUSH2 0x9C4 SWAP1 PUSH2 0x255C JUMP JUMPDEST PUSH1 0x40 MLOAD DUP1 SWAP2 SUB SWAP1 REVERT JUMPDEST PUSH0 PUSH1 0xB PUSH0 PUSH2 0x100 EXP DUP2 SLOAD DUP2 PUSH20 0xFFFFFFFFFFFFFFFFFFFFFFFFFFFFFFFFFFFFFFFF MUL NOT AND SWAP1 DUP4 PUSH20 0xFFFFFFFFFFFFFFFFFFFFFFFFFFFFFFFFFFFFFFFF AND MUL OR SWAP1 SSTORE POP PUSH0 PUSH1 0xD DUP2 SWAP1 SSTORE POP CALLER PUSH20 0xFFFFFFFFFFFFFFFFFFFFFFFFFFFFFFFFFFFFFFFF AND PUSH32 0x71929BFC41C49AE5E05A53003B97907866C902F9807734CE3A0507BFDAE425F9 PUSH1 0x40 MLOAD PUSH1 0x40 MLOAD DUP1 SWAP2 SUB SWAP1 LOG2 JUMP JUMPDEST PUSH1 0xA PUSH0 SWAP1 SLOAD SWAP1 PUSH2 0x100 EXP SWAP1 DIV PUSH20 0xFFFFFFFFFFFFFFFFFFFFFFFFFFFFFFFFFFFFFFFF AND DUP2 JUMP JUMPDEST PUSH0 PUSH1 0x5 PUSH0 SWAP1 SLOAD SWAP1 PUSH2 0x100 EXP SWAP1 DIV PUSH20 0xFFFFFFFFFFFFFFFFFFFFFFFFFFFFFFFFFFFFFFFF AND SWAP1 POP SWAP1 JUMP JUMPDEST PUSH1 0x60 PUSH1 0x4 DUP1 SLOAD PUSH2 0xAB5 SWAP1 PUSH2 0x247A JUMP JUMPDEST DUP1 PUSH1 0x1F ADD PUSH1 0x20 DUP1 SWAP2 DIV MUL PUSH1 0x20 ADD PUSH1 0x40 MLOAD SWAP1 DUP2 ADD PUSH1 0x40 MSTORE DUP1 SWAP3 SWAP2 SWAP1 DUP2 DUP2 MSTORE PUSH1 0x20 ADD DUP3 DUP1 SLOAD PUSH2 0xAE1 SWAP1 PUSH2 0x247A JUMP JUMPDEST DUP1 ISZERO PUSH2 0xB2C JUMPI DUP1 PUSH1 0x1F LT PUSH2 0xB03 JUMPI PUSH2 0x100 DUP1 DUP4 SLOAD DIV MUL DUP4 MSTORE SWAP2 PUSH1 0x20 ADD SWAP2 PUSH2 0xB2C JUMP JUMPDEST DUP3 ADD SWAP2 SWAP1 PUSH0 MSTORE PUSH1 0x20 PUSH0 KECCAK256 SWAP1 JUMPDEST DUP2 SLOAD DUP2 MSTORE SWAP1 PUSH1 0x1 ADD SWAP1 PUSH1 0x20 ADD DUP1 DUP4 GT PUSH2 0xB0F JUMPI DUP3 SWAP1 SUB PUSH1 0x1F AND DUP3 ADD SWAP2 JUMPDEST POP POP POP POP POP SWAP1 POP SWAP1 JUMP JUMPDEST PUSH2 0xB3E PUSH2 0x157C JUMP JUMPDEST PUSH0 PUSH20 0xFFFFFFFFFFFFFFFFFFFFFFFFFFFFFFFFFFFFFFFF AND DUP2 PUSH20 0xFFFFFFFFFFFFFFFFFFFFFFFFFFFFFFFFFFFFFFFF AND SUB PUSH2 0xBAC JUMPI PUSH1 0x40 MLOAD PUSH32 0x8C379A000000000000000000000000000000000000000000000000000000000 DUP2 MSTORE PUSH1 0x4 ADD PUSH2 0xBA3 SWAP1 PUSH2 0x25EA JUMP JUMPDEST PUSH1 0x40 MLOAD DUP1 SWAP2 SUB SWAP1 REVERT JUMPDEST PUSH0 PUSH1 0xE SLOAD EQ PUSH2 0xBF0 JUMPI PUSH1 0x40 MLOAD PUSH32 0x8C379A000000000000000000000000000000000000000000000000000000000 DUP2 MSTORE PUSH1 0x4 ADD PUSH2 0xBE7 SWAP1 PUSH2 0x2678 JUMP JUMPDEST PUSH1 0x40 MLOAD DUP1 SWAP2 SUB SWAP1 REVERT JUMPDEST DUP1 PUSH1 0xC PUSH0 PUSH2 0x100 EXP DUP2 SLOAD DUP2 PUSH20 0xFFFFFFFFFFFFFFFFFFFFFFFFFFFFFFFFFFFFFFFF MUL NOT AND SWAP1 DUP4 PUSH20 0xFFFFFFFFFFFFFFFFFFFFFFFFFFFFFFFFFFFFFFFF AND MUL OR SWAP1 SSTORE POP TIMESTAMP PUSH1 0xE DUP2 SWAP1 SSTORE POP DUP1 PUSH20 0xFFFFFFFFFFFFFFFFFFFFFFFFFFFFFFFFFFFFFFFF AND CALLER PUSH20 0xFFFFFFFFFFFFFFFFFFFFFFFFFFFFFFFFFFFFFFFF AND PUSH32 0x11D251823298414F86A55EE989C577145357724264D4F6D10632F865A55488FB PUSH1 0x40 MLOAD PUSH1 0x40 MLOAD DUP1 SWAP2 SUB SWAP1 LOG3 POP JUMP JUMPDEST PUSH2 0xC9C PUSH2 0x157C JUMP JUMPDEST PUSH0 PUSH1 0xE SLOAD GT PUSH2 0xCE0 JUMPI PUSH1 0x40 MLOAD PUSH32 0x8C379A000000000000000000000000000000000000000000000000000000000 DUP2 MSTORE PUSH1 0x4 ADD PUSH2 0xCD7 SWAP1 PUSH2 0x242F JUMP JUMPDEST PUSH1 0x40 MLOAD DUP1 SWAP2 SUB SWAP1 REVERT JUMPDEST PUSH3 0x76A700 PUSH1 0xE SLOAD PUSH2 0xCF1 SWAP2 SWAP1 PUSH2 0x26C3 JUMP JUMPDEST TIMESTAMP LT ISZERO PUSH2 0xD33 JUMPI PUSH1 0x40 MLOAD PUSH32 0x8C379A000000000000000000000000000000000000000000000000000000000 DUP2 MSTORE PUSH1 0x4 ADD PUSH2 0xD2A SWAP1 PUSH2 0x2740 JUMP JUMPDEST PUSH1 0x40 MLOAD DUP1 SWAP2 SUB SWAP1 REVERT JUMPDEST PUSH0 PUSH1 0x9 PUSH0 SWAP1 SLOAD SWAP1 PUSH2 0x100 EXP SWAP1 DIV PUSH20 0xFFFFFFFFFFFFFFFFFFFFFFFFFFFFFFFFFFFFFFFF AND SWAP1 POP PUSH0 PUSH1 0xC PUSH0 SWAP1 SLOAD SWAP1 PUSH2 0x100 EXP SWAP1 DIV PUSH20 0xFFFFFFFFFFFFFFFFFFFFFFFFFFFFFFFFFFFFFFFF AND SWAP1 POP DUP1 PUSH1 0x9 PUSH0 PUSH2 0x100 EXP DUP2 SLOAD DUP2 PUSH20 0xFFFFFFFFFFFFFFFFFFFFFFFFFFFFFFFFFFFFFFFF MUL NOT AND SWAP1 DUP4 PUSH20 0xFFFFFFFFFFFFFFFFFFFFFFFFFFFFFFFFFFFFFFFF AND MUL OR SWAP1 SSTORE POP PUSH0 PUSH1 0xC PUSH0 PUSH2 0x100 EXP DUP2 SLOAD DUP2 PUSH20 0xFFFFFFFFFFFFFFFFFFFFFFFFFFFFFFFFFFFFFFFF MUL NOT AND SWAP1 DUP4 PUSH20 0xFFFFFFFFFFFFFFFFFFFFFFFFFFFFFFFFFFFFFFFF AND MUL OR SWAP1 SSTORE POP PUSH0 PUSH1 0xE DUP2 SWAP1 SSTORE POP DUP1 PUSH20 0xFFFFFFFFFFFFFFFFFFFFFFFFFFFFFFFFFFFFFFFF AND DUP3 PUSH20 0xFFFFFFFFFFFFFFFFFFFFFFFFFFFFFFFFFFFFFFFF AND PUSH32 0xE823578BE672EBCFC6A23FCE5293A8769DD2449C1AE45D769B8BA0FC3435625F PUSH1 0x40 MLOAD PUSH1 0x40 MLOAD DUP1 SWAP2 SUB SWAP1 LOG3 POP POP JUMP JUMPDEST PUSH1 0x9 PUSH0 SWAP1 SLOAD SWAP1 PUSH2 0x100 EXP SWAP1 DIV PUSH20 0xFFFFFFFFFFFFFFFFFFFFFFFFFFFFFFFFFFFFFFFF AND PUSH20 0xFFFFFFFFFFFFFFFFFFFFFFFFFFFFFFFFFFFFFFFF AND CALLER PUSH20 0xFFFFFFFFFFFFFFFFFFFFFFFFFFFFFFFFFFFFFFFF AND EQ PUSH2 0xEF1 JUMPI PUSH1 0x40 MLOAD PUSH32 0x8C379A000000000000000000000000000000000000000000000000000000000 DUP2 MSTORE PUSH1 0x4 ADD PUSH2 0xEE8 SWAP1 PUSH2 0x23A1 JUMP JUMPDEST PUSH1 0x40 MLOAD DUP1 SWAP2 SUB SWAP1 REVERT JUMPDEST PUSH0 PUSH20 0xFFFFFFFFFFFFFFFFFFFFFFFFFFFFFFFFFFFFFFFF AND DUP2 PUSH20 0xFFFFFFFFFFFFFFFFFFFFFFFFFFFFFFFFFFFFFFFF AND SUB PUSH2 0xF5F JUMPI PUSH1 0x40 MLOAD PUSH32 0x8C379A000000000000000000000000000000000000000000000000000000000 DUP2 MSTORE PUSH1 0x4 ADD PUSH2 0xF56 SWAP1 PUSH2 0x27A8 JUMP JUMPDEST PUSH1 0x40 MLOAD DUP1 SWAP2 SUB SWAP1 REVERT JUMPDEST PUSH0 PUSH1 0xD SLOAD EQ PUSH2 0xFA3 JUMPI PUSH1 0x40 MLOAD PUSH32 0x8C379A000000000000000000000000000000000000000000000000000000000 DUP2 MSTORE PUSH1 0x4 ADD PUSH2 0xF9A SWAP1 PUSH2 0x2810 JUMP JUMPDEST PUSH1 0x40 MLOAD DUP1 SWAP2 SUB SWAP1 REVERT JUMPDEST DUP1 PUSH1 0xB PUSH0 PUSH2 0x100 EXP DUP2 SLOAD DUP2 PUSH20 0xFFFFFFFFFFFFFFFFFFFFFFFFFFFFFFFFFFFFFFFF MUL NOT AND SWAP1 DUP4 PUSH20 0xFFFFFFFFFFFFFFFFFFFFFFFFFFFFFFFFFFFFFFFF AND MUL OR SWAP1 SSTORE POP TIMESTAMP PUSH1 0xD DUP2 SWAP1 SSTORE POP DUP1 PUSH20 0xFFFFFFFFFFFFFFFFFFFFFFFFFFFFFFFFFFFFFFFF AND CALLER PUSH20 0xFFFFFFFFFFFFFFFFFFFFFFFFFFFFFFFFFFFFFFFF AND PUSH32 0xE4D82E46D7A4A49D024ED3CDF35530213F02413245E7BF0D20121174C089E0D2 PUSH1 0x40 MLOAD PUSH1 0x40 MLOAD DUP1 SWAP2 SUB SWAP1 LOG3 POP JUMP JUMPDEST PUSH0 PUSH0 PUSH2 0x1051 PUSH2 0x147C JUMP JUMPDEST SWAP1 POP PUSH2 0x105E DUP2 DUP6 DUP6 PUSH2 0x1528 JUMP JUMPDEST PUSH1 0x1 SWAP2 POP POP SWAP3 SWAP2 POP POP JUMP JUMPDEST PUSH2 0x1071 PUSH2 0x157C JUMP JUMPDEST PUSH0 PUSH20 0xFFFFFFFFFFFFFFFFFFFFFFFFFFFFFFFFFFFFFFFF AND DUP2 PUSH20 0xFFFFFFFFFFFFFFFFFFFFFFFFFFFFFFFFFFFFFFFF AND SUB PUSH2 0x10DF JUMPI PUSH1 0x40 MLOAD PUSH32 0x8C379A000000000000000000000000000000000000000000000000000000000 DUP2 MSTORE PUSH1 0x4 ADD PUSH2 0x10D6 SWAP1 PUSH2 0x289E JUMP JUMPDEST PUSH1 0x40 MLOAD DUP1 SWAP2 SUB SWAP1 REVERT JUMPDEST DUP1 PUSH1 0xA PUSH0 PUSH2 0x100 EXP DUP2 SLOAD DUP2 PUSH20 0xFFFFFFFFFFFFFFFFFFFFFFFFFFFFFFFFFFFFFFFF MUL NOT AND SWAP1 DUP4 PUSH20 0xFFFFFFFFFFFFFFFFFFFFFFFFFFFFFFFFFFFFFFFF AND MUL OR SWAP1 SSTORE POP POP JUMP JUMPDEST PUSH1 0xC PUSH0 SWAP1 SLOAD SWAP1 PUSH2 0x100 EXP SWAP1 DIV PUSH20 0xFFFFFFFFFFFFFFFFFFFFFFFFFFFFFFFFFFFFFFFF AND DUP2 JUMP JUMPDEST PUSH1 0x9 PUSH0 SWAP1 SLOAD SWAP1 PUSH2 0x100 EXP SWAP1 DIV PUSH20 0xFFFFFFFFFFFFFFFFFFFFFFFFFFFFFFFFFFFFFFFF AND DUP2 JUMP JUMPDEST PUSH0 PUSH1 0x1 PUSH0 DUP5 PUSH20 0xFFFFFFFFFFFFFFFFFFFFFFFFFFFFFFFFFFFFFFFF AND PUSH20 0xFFFFFFFFFFFFFFFFFFFFFFFFFFFFFFFFFFFFFFFF AND DUP2 MSTORE PUSH1 0x20 ADD SWAP1 DUP2 MSTORE PUSH1 0x20 ADD PUSH0 KECCAK256 PUSH0 DUP4 PUSH20 0xFFFFFFFFFFFFFFFFFFFFFFFFFFFFFFFFFFFFFFFF AND PUSH20 0xFFFFFFFFFFFFFFFFFFFFFFFFFFFFFFFFFFFFFFFF AND DUP2 MSTORE PUSH1 0x20 ADD SWAP1 DUP2 MSTORE PUSH1 0x20 ADD PUSH0 KECCAK256 SLOAD SWAP1 POP SWAP3 SWAP2 POP POP JUMP JUMPDEST PUSH1 0x9 PUSH0 SWAP1 SLOAD SWAP1 PUSH2 0x100 EXP SWAP1 DIV PUSH20 0xFFFFFFFFFFFFFFFFFFFFFFFFFFFFFFFFFFFFFFFF AND PUSH20 0xFFFFFFFFFFFFFFFFFFFFFFFFFFFFFFFFFFFFFFFF AND CALLER PUSH20 0xFFFFFFFFFFFFFFFFFFFFFFFFFFFFFFFFFFFFFFFF AND EQ PUSH2 0x127D JUMPI PUSH1 0x40 MLOAD PUSH32 0x8C379A000000000000000000000000000000000000000000000000000000000 DUP2 MSTORE PUSH1 0x4 ADD PUSH2 0x1274 SWAP1 PUSH2 0x23A1 JUMP JUMPDEST PUSH1 0x40 MLOAD DUP1 SWAP2 SUB SWAP1 REVERT JUMPDEST PUSH0 PUSH1 0xD SLOAD GT PUSH2 0x12C1 JUMPI PUSH1 0x40 MLOAD PUSH32 0x8C379A000000000000000000000000000000000000000000000000000000000 DUP2 MSTORE PUSH1 0x4 ADD PUSH2 0x12B8 SWAP1 PUSH2 0x255C JUMP JUMPDEST PUSH1 0x40 MLOAD DUP1 SWAP2 SUB SWAP1 REVERT JUMPDEST PUSH3 0x76A700 PUSH1 0xD SLOAD PUSH2 0x12D2 SWAP2 SWAP1 PUSH2 0x26C3 JUMP JUMPDEST TIMESTAMP LT ISZERO PUSH2 0x1314 JUMPI PUSH1 0x40 MLOAD PUSH32 0x8C379A000000000000000000000000000000000000000000000000000000000 DUP2 MSTORE PUSH1 0x4 ADD PUSH2 0x130B SWAP1 PUSH2 0x2906 JUMP JUMPDEST PUSH1 0x40 MLOAD DUP1 SWAP2 SUB SWAP1 REVERT JUMPDEST PUSH0 PUSH2 0x131D PUSH2 0xA7E JUMP JUMPDEST SWAP1 POP PUSH0 PUSH1 0xB PUSH0 SWAP1 SLOAD SWAP1 PUSH2 0x100 EXP SWAP1 DIV PUSH20 0xFFFFFFFFFFFFFFFFFFFFFFFFFFFFFFFFFFFFFFFF AND SWAP1 POP PUSH2 0x134D DUP2 PUSH2 0x1603 JUMP JUMPDEST PUSH0 PUSH1 0xB PUSH0 PUSH2 0x100 EXP DUP2 SLOAD DUP2 PUSH20 0xFFFFFFFFFFFFFFFFFFFFFFFFFFFFFFFFFFFFFFFF MUL NOT AND SWAP1 DUP4 PUSH20 0xFFFFFFFFFFFFFFFFFFFFFFFFFFFFFFFFFFFFFFFF AND MUL OR SWAP1 SSTORE POP PUSH0 PUSH1 0xD DUP2 SWAP1 SSTORE POP DUP1 PUSH20 0xFFFFFFFFFFFFFFFFFFFFFFFFFFFFFFFFFFFFFFFF AND DUP3 PUSH20 0xFFFFFFFFFFFFFFFFFFFFFFFFFFFFFFFFFFFFFFFF AND PUSH32 0x8BE0079C531659141344CD1FD0A4F28419497F9722A3DAAFE3B4186F6B6457E0 PUSH1 0x40 MLOAD PUSH1 0x40 MLOAD DUP1 SWAP2 SUB SWAP1 LOG3 POP POP JUMP JUMPDEST PUSH1 0xE SLOAD DUP2 JUMP JUMPDEST PUSH2 0x1400 PUSH2 0x157C JUMP JUMPDEST PUSH0 PUSH20 0xFFFFFFFFFFFFFFFFFFFFFFFFFFFFFFFFFFFFFFFF AND DUP2 PUSH20 0xFFFFFFFFFFFFFFFFFFFFFFFFFFFFFFFFFFFFFFFF AND SUB PUSH2 0x1470 JUMPI PUSH0 PUSH1 0x40 MLOAD PUSH32 0x1E4FBDF700000000000000000000000000000000000000000000000000000000 DUP2 MSTORE PUSH1 0x4 ADD PUSH2 0x1467 SWAP2 SWAP1 PUSH2 0x20C7 JUMP JUMPDEST PUSH1 0x40 MLOAD DUP1 SWAP2 SUB SWAP1 REVERT JUMPDEST PUSH2 0x1479 DUP2 PUSH2 0x1603 JUMP JUMPDEST POP JUMP JUMPDEST PUSH0 CALLER SWAP1 POP SWAP1 JUMP JUMPDEST PUSH2 0x1490 DUP4 DUP4 DUP4 PUSH1 0x1 PUSH2 0x16C6 JUMP JUMPDEST POP POP POP JUMP JUMPDEST PUSH0 PUSH2 0x14A0 DUP5 DUP5 PUSH2 0x116C JUMP JUMPDEST SWAP1 POP PUSH32 0xFFFFFFFFFFFFFFFFFFFFFFFFFFFFFFFFFFFFFFFFFFFFFFFFFFFFFFFFFFFFFFFF DUP2 LT ISZERO PUSH2 0x1522 JUMPI DUP2 DUP2 LT ISZERO PUSH2 0x1513 JUMPI DUP3 DUP2 DUP4 PUSH1 0x40 MLOAD PUSH32 0xFB8F41B200000000000000000000000000000000000000000000000000000000 DUP2 MSTORE PUSH1 0x4 ADD PUSH2 0x150A SWAP4 SWAP3 SWAP2 SWAP1 PUSH2 0x2924 JUMP JUMPDEST PUSH1 0x40 MLOAD DUP1 SWAP2 SUB SWAP1 REVERT JUMPDEST PUSH2 0x1521 DUP5 DUP5 DUP5 DUP5 SUB PUSH0 PUSH2 0x16C6 JUMP JUMPDEST JUMPDEST POP POP POP POP JUMP JUMPDEST PUSH2 0x1533 DUP4 DUP4 DUP4 PUSH2 0x1895 JUMP JUMPDEST PUSH2 0x1545 DUP4 PUSH2 0x1540 DUP6 PUSH2 0x929 JUMP JUMPDEST PUSH2 0x1985 JUMP JUMPDEST PUSH2 0x1557 DUP3 PUSH2 0x1552 DUP5 PUSH2 0x929 JUMP JUMPDEST PUSH2 0x1985 JUMP JUMPDEST POP POP POP JUMP JUMPDEST PUSH2 0x1566 DUP3 DUP3 PUSH2 0x1B99 JUMP JUMPDEST PUSH2 0x1578 DUP3 PUSH2 0x1573 DUP5 PUSH2 0x929 JUMP JUMPDEST PUSH2 0x1985 JUMP JUMPDEST POP POP JUMP JUMPDEST PUSH2 0x1584 PUSH2 0x147C JUMP JUMPDEST PUSH20 0xFFFFFFFFFFFFFFFFFFFFFFFFFFFFFFFFFFFFFFFF AND PUSH2 0x15A2 PUSH2 0xA7E JUMP JUMPDEST PUSH20 0xFFFFFFFFFFFFFFFFFFFFFFFFFFFFFFFFFFFFFFFF AND EQ PUSH2 0x1601 JUMPI PUSH2 0x15C5 PUSH2 0x147C JUMP JUMPDEST PUSH1 0x40 MLOAD PUSH32 0x118CDAA700000000000000000000000000000000000000000000000000000000 DUP2 MSTORE PUSH1 0x4 ADD PUSH2 0x15F8 SWAP2 SWAP1 PUSH2 0x20C7 JUMP JUMPDEST PUSH1 0x40 MLOAD DUP1 SWAP2 SUB SWAP1 REVERT JUMPDEST JUMP JUMPDEST PUSH0 PUSH1 0x5 PUSH0 SWAP1 SLOAD SWAP1 PUSH2 0x100 EXP SWAP1 DIV PUSH20 0xFFFFFFFFFFFFFFFFFFFFFFFFFFFFFFFFFFFFFFFF AND SWAP1 POP DUP2 PUSH1 0x5 PUSH0 PUSH2 0x100 EXP DUP2 SLOAD DUP2 PUSH20 0xFFFFFFFFFFFFFFFFFFFFFFFFFFFFFFFFFFFFFFFF MUL NOT AND SWAP1 DUP4 PUSH20 0xFFFFFFFFFFFFFFFFFFFFFFFFFFFFFFFFFFFFFFFF AND MUL OR SWAP1 SSTORE POP DUP2 PUSH20 0xFFFFFFFFFFFFFFFFFFFFFFFFFFFFFFFFFFFFFFFF AND DUP2 PUSH20 0xFFFFFFFFFFFFFFFFFFFFFFFFFFFFFFFFFFFFFFFF AND PUSH32 0x8BE0079C531659141344CD1FD0A4F28419497F9722A3DAAFE3B4186F6B6457E0 PUSH1 0x40 MLOAD PUSH1 0x40 MLOAD DUP1 SWAP2 SUB SWAP1 LOG3 POP POP JUMP JUMPDEST PUSH0 PUSH20 0xFFFFFFFFFFFFFFFFFFFFFFFFFFFFFFFFFFFFFFFF AND DUP5 PUSH20 0xFFFFFFFFFFFFFFFFFFFFFFFFFFFFFFFFFFFFFFFF AND SUB PUSH2 0x1736 JUMPI PUSH0 PUSH1 0x40 MLOAD PUSH32 0xE602DF0500000000000000000000000000000000000000000000000000000000 DUP2 MSTORE PUSH1 0x4 ADD PUSH2 0x172D SWAP2 SWAP1 PUSH2 0x20C7 JUMP JUMPDEST PUSH1 0x40 MLOAD DUP1 SWAP2 SUB SWAP1 REVERT JUMPDEST PUSH0 PUSH20 0xFFFFFFFFFFFFFFFFFFFFFFFFFFFFFFFFFFFFFFFF AND DUP4 PUSH20 0xFFFFFFFFFFFFFFFFFFFFFFFFFFFFFFFFFFFFFFFF AND SUB PUSH2 0x17A6 JUMPI PUSH0 PUSH1 0x40 MLOAD PUSH32 0x94280D6200000000000000000000000000000000000000000000000000000000 DUP2 MSTORE PUSH1 0x4 ADD PUSH2 0x179D SWAP2 SWAP1 PUSH2 0x20C7 JUMP JUMPDEST PUSH1 0x40 MLOAD DUP1 SWAP2 SUB SWAP1 REVERT JUMPDEST DUP2 PUSH1 0x1 PUSH0 DUP7 PUSH20 0xFFFFFFFFFFFFFFFFFFFFFFFFFFFFFFFFFFFFFFFF AND PUSH20 0xFFFFFFFFFFFFFFFFFFFFFFFFFFFFFFFFFFFFFFFF AND DUP2 MSTORE PUSH1 0x20 ADD SWAP1 DUP2 MSTORE PUSH1 0x20 ADD PUSH0 KECCAK256 PUSH0 DUP6 PUSH20 0xFFFFFFFFFFFFFFFFFFFFFFFFFFFFFFFFFFFFFFFF AND PUSH20 0xFFFFFFFFFFFFFFFFFFFFFFFFFFFFFFFFFFFFFFFF AND DUP2 MSTORE PUSH1 0x20 ADD SWAP1 DUP2 MSTORE PUSH1 0x20 ADD PUSH0 KECCAK256 DUP2 SWAP1 SSTORE POP DUP1 ISZERO PUSH2 0x188F JUMPI DUP3 PUSH20 0xFFFFFFFFFFFFFFFFFFFFFFFFFFFFFFFFFFFFFFFF AND DUP5 PUSH20 0xFFFFFFFFFFFFFFFFFFFFFFFFFFFFFFFFFFFFFFFF AND PUSH32 0x8C5BE1E5EBEC7D5BD14F71427D1E84F3DD0314C0F7B2291E5B200AC8C7C3B925 DUP5 PUSH1 0x40 MLOAD PUSH2 0x1886 SWAP2 SWAP1 PUSH2 0x2251 JUMP JUMPDEST PUSH1 0x40 MLOAD DUP1 SWAP2 SUB SWAP1 LOG3 JUMPDEST POP POP POP POP JUMP JUMPDEST PUSH0 PUSH20 0xFFFFFFFFFFFFFFFFFFFFFFFFFFFFFFFFFFFFFFFF AND DUP4 PUSH20 0xFFFFFFFFFFFFFFFFFFFFFFFFFFFFFFFFFFFFFFFF AND SUB PUSH2 0x1905 JUMPI PUSH0 PUSH1 0x40 MLOAD PUSH32 0x96C6FD1E00000000000000000000000000000000000000000000000000000000 DUP2 MSTORE PUSH1 0x4 ADD PUSH2 0x18FC SWAP2 SWAP1 PUSH2 0x20C7 JUMP JUMPDEST PUSH1 0x40 MLOAD DUP1 SWAP2 SUB SWAP1 REVERT JUMPDEST PUSH0 PUSH20 0xFFFFFFFFFFFFFFFFFFFFFFFFFFFFFFFFFFFFFFFF AND DUP3 PUSH20 0xFFFFFFFFFFFFFFFFFFFFFFFFFFFFFFFFFFFFFFFF AND SUB PUSH2 0x1975 JUMPI PUSH0 PUSH1 0x40 MLOAD PUSH32 0xEC442F0500000000000000000000000000000000000000000000000000000000 DUP2 MSTORE PUSH1 0x4 ADD PUSH2 0x196C SWAP2 SWAP1 PUSH2 0x20C7 JUMP JUMPDEST PUSH1 0x40 MLOAD DUP1 SWAP2 SUB SWAP1 REVERT JUMPDEST PUSH2 0x1980 DUP4 DUP4 DUP4 PUSH2 0x1C18 JUMP JUMPDEST POP POP POP JUMP JUMPDEST PUSH0 DUP2 GT DUP1 ISZERO PUSH2 0x19DB JUMPI POP PUSH1 0x6 PUSH0 DUP4 PUSH20 0xFFFFFFFFFFFFFFFFFFFFFFFFFFFFFFFFFFFFFFFF AND PUSH20 0xFFFFFFFFFFFFFFFFFFFFFFFFFFFFFFFFFFFFFFFF AND DUP2 MSTORE PUSH1 0x20 ADD SWAP1 DUP2 MSTORE PUSH1 0x20 ADD PUSH0 KECCAK256 PUSH0 SWAP1 SLOAD SWAP1 PUSH2 0x100 EXP SWAP1 DIV PUSH1 0xFF AND ISZERO JUMPDEST ISZERO PUSH2 0x1A9A JUMPI PUSH1 0x1 PUSH1 0x6 PUSH0 DUP5 PUSH20 0xFFFFFFFFFFFFFFFFFFFFFFFFFFFFFFFFFFFFFFFF AND PUSH20 0xFFFFFFFFFFFFFFFFFFFFFFFFFFFFFFFFFFFFFFFF AND DUP2 MSTORE PUSH1 0x20 ADD SWAP1 DUP2 MSTORE PUSH1 0x20 ADD PUSH0 KECCAK256 PUSH0 PUSH2 0x100 EXP DUP2 SLOAD DUP2 PUSH1 0xFF MUL NOT AND SWAP1 DUP4 ISZERO ISZERO MUL OR SWAP1 SSTORE POP PUSH1 0x8 DUP3 SWAP1 DUP1 PUSH1 0x1 DUP2 SLOAD ADD DUP1 DUP3 SSTORE DUP1 SWAP2 POP POP PUSH1 0x1 SWAP1 SUB SWAP1 PUSH0 MSTORE PUSH1 0x20 PUSH0 KECCAK256 ADD PUSH0 SWAP1 SWAP2 SWAP1 SWAP2 SWAP1 SWAP2 PUSH2 0x100 EXP DUP2 SLOAD DUP2 PUSH20 0xFFFFFFFFFFFFFFFFFFFFFFFFFFFFFFFFFFFFFFFF MUL NOT AND SWAP1 DUP4 PUSH20 0xFFFFFFFFFFFFFFFFFFFFFFFFFFFFFFFFFFFFFFFF AND MUL OR SWAP1 SSTORE POP PUSH2 0x1B53 JUMP JUMPDEST PUSH0 DUP2 EQ DUP1 ISZERO PUSH2 0x1AEF JUMPI POP PUSH1 0x6 PUSH0 DUP4 PUSH20 0xFFFFFFFFFFFFFFFFFFFFFFFFFFFFFFFFFFFFFFFF AND PUSH20 0xFFFFFFFFFFFFFFFFFFFFFFFFFFFFFFFFFFFFFFFF AND DUP2 MSTORE PUSH1 0x20 ADD SWAP1 DUP2 MSTORE PUSH1 0x20 ADD PUSH0 KECCAK256 PUSH0 SWAP1 SLOAD SWAP1 PUSH2 0x100 EXP SWAP1 DIV PUSH1 0xFF AND JUMPDEST ISZERO PUSH2 0x1B52 JUMPI PUSH0 PUSH1 0x6 PUSH0 DUP5 PUSH20 0xFFFFFFFFFFFFFFFFFFFFFFFFFFFFFFFFFFFFFFFF AND PUSH20 0xFFFFFFFFFFFFFFFFFFFFFFFFFFFFFFFFFFFFFFFF AND DUP2 MSTORE PUSH1 0x20 ADD SWAP1 DUP2 MSTORE PUSH1 0x20 ADD PUSH0 KECCAK256 PUSH0 PUSH2 0x100 EXP DUP2 SLOAD DUP2 PUSH1 0xFF MUL NOT AND SWAP1 DUP4 ISZERO ISZERO MUL OR SWAP1 SSTORE POP PUSH2 0x1B51 DUP3 PUSH2 0x1E31 JUMP JUMPDEST JUMPDEST JUMPDEST DUP1 PUSH1 0x7 PUSH0 DUP5 PUSH20 0xFFFFFFFFFFFFFFFFFFFFFFFFFFFFFFFFFFFFFFFF AND PUSH20 0xFFFFFFFFFFFFFFFFFFFFFFFFFFFFFFFFFFFFFFFF AND DUP2 MSTORE PUSH1 0x20 ADD SWAP1 DUP2 MSTORE PUSH1 0x20 ADD PUSH0 KECCAK256 DUP2 SWAP1 SSTORE POP POP POP JUMP JUMPDEST PUSH0 PUSH20 0xFFFFFFFFFFFFFFFFFFFFFFFFFFFFFFFFFFFFFFFF AND DUP3 PUSH20 0xFFFFFFFFFFFFFFFFFFFFFFFFFFFFFFFFFFFFFFFF AND SUB PUSH2 0x1C09 JUMPI PUSH0 PUSH1 0x40 MLOAD PUSH32 0xEC442F0500000000000000000000000000000000000000000000000000000000 DUP2 MSTORE PUSH1 0x4 ADD PUSH2 0x1C00 SWAP2 SWAP1 PUSH2 0x20C7 JUMP JUMPDEST PUSH1 0x40 MLOAD DUP1 SWAP2 SUB SWAP1 REVERT JUMPDEST PUSH2 0x1C14 PUSH0 DUP4 DUP4 PUSH2 0x1C18 JUMP JUMPDEST POP POP JUMP JUMPDEST PUSH0 PUSH20 0xFFFFFFFFFFFFFFFFFFFFFFFFFFFFFFFFFFFFFFFF AND DUP4 PUSH20 0xFFFFFFFFFFFFFFFFFFFFFFFFFFFFFFFFFFFFFFFF AND SUB PUSH2 0x1C68 JUMPI DUP1 PUSH1 0x2 PUSH0 DUP3 DUP3 SLOAD PUSH2 0x1C5C SWAP2 SWAP1 PUSH2 0x26C3 JUMP JUMPDEST SWAP3 POP POP DUP2 SWAP1 SSTORE POP PUSH2 0x1D36 JUMP JUMPDEST PUSH0 PUSH0 PUSH0 DUP6 PUSH20 0xFFFFFFFFFFFFFFFFFFFFFFFFFFFFFFFFFFFFFFFF AND PUSH20 0xFFFFFFFFFFFFFFFFFFFFFFFFFFFFFFFFFFFFFFFF AND DUP2 MSTORE PUSH1 0x20 ADD SWAP1 DUP2 MSTORE PUSH1 0x20 ADD PUSH0 KECCAK256 SLOAD SWAP1 POP DUP2 DUP2 LT ISZERO PUSH2 0x1CF1 JUMPI DUP4 DUP2 DUP4 PUSH1 0x40 MLOAD PUSH32 0xE450D38C00000000000000000000000000000000000000000000000000000000 DUP2 MSTORE PUSH1 0x4 ADD PUSH2 0x1CE8 SWAP4 SWAP3 SWAP2 SWAP1 PUSH2 0x2924 JUMP JUMPDEST PUSH1 0x40 MLOAD DUP1 SWAP2 SUB SWAP1 REVERT JUMPDEST DUP2 DUP2 SUB PUSH0 PUSH0 DUP7 PUSH20 0xFFFFFFFFFFFFFFFFFFFFFFFFFFFFFFFFFFFFFFFF AND PUSH20 0xFFFFFFFFFFFFFFFFFFFFFFFFFFFFFFFFFFFFFFFF AND DUP2 MSTORE PUSH1 0x20 ADD SWAP1 DUP2 MSTORE PUSH1 0x20 ADD PUSH0 KECCAK256 DUP2 SWAP1 SSTORE POP POP JUMPDEST PUSH0 PUSH20 0xFFFFFFFFFFFFFFFFFFFFFFFFFFFFFFFFFFFFFFFF AND DUP3 PUSH20 0xFFFFFFFFFFFFFFFFFFFFFFFFFFFFFFFFFFFFFFFF AND SUB PUSH2 0x1D7D JUMPI DUP1 PUSH1 0x2 PUSH0 DUP3 DUP3 SLOAD SUB SWAP3 POP POP DUP2 SWAP1 SSTORE POP PUSH2 0x1DC7 JUMP JUMPDEST DUP1 PUSH0 PUSH0 DUP5 PUSH20 0xFFFFFFFFFFFFFFFFFFFFFFFFFFFFFFFFFFFFFFFF AND PUSH20 0xFFFFFFFFFFFFFFFFFFFFFFFFFFFFFFFFFFFFFFFF AND DUP2 MSTORE PUSH1 0x20 ADD SWAP1 DUP2 MSTORE PUSH1 0x20 ADD PUSH0 KECCAK256 PUSH0 DUP3 DUP3 SLOAD ADD SWAP3 POP POP DUP2 SWAP1 SSTORE POP JUMPDEST DUP2 PUSH20 0xFFFFFFFFFFFFFFFFFFFFFFFFFFFFFFFFFFFFFFFF AND DUP4 PUSH20 0xFFFFFFFFFFFFFFFFFFFFFFFFFFFFFFFFFFFFFFFF AND PUSH32 0xDDF252AD1BE2C89B69C2B068FC378DAA952BA7F163C4A11628F55A4DF523B3EF DUP4 PUSH1 0x40 MLOAD PUSH2 0x1E24 SWAP2 SWAP1 PUSH2 0x2251 JUMP JUMPDEST PUSH1 0x40 MLOAD DUP1 SWAP2 SUB SWAP1 LOG3 POP POP POP JUMP JUMPDEST PUSH0 PUSH0 SWAP1 POP JUMPDEST PUSH1 0x8 DUP1 SLOAD SWAP1 POP DUP2 LT ISZERO PUSH2 0x1FAD JUMPI DUP2 PUSH20 0xFFFFFFFFFFFFFFFFFFFFFFFFFFFFFFFFFFFFFFFF AND PUSH1 0x8 DUP3 DUP2 SLOAD DUP2 LT PUSH2 0x1E6E JUMPI PUSH2 0x1E6D PUSH2 0x2959 JUMP JUMPDEST JUMPDEST SWAP1 PUSH0 MSTORE PUSH1 0x20 PUSH0 KECCAK256 ADD PUSH0 SWAP1 SLOAD SWAP1 PUSH2 0x100 EXP SWAP1 DIV PUSH20 0xFFFFFFFFFFFFFFFFFFFFFFFFFFFFFFFFFFFFFFFF AND PUSH20 0xFFFFFFFFFFFFFFFFFFFFFFFFFFFFFFFFFFFFFFFF AND SUB PUSH2 0x1FA0 JUMPI PUSH1 0x8 PUSH1 0x1 PUSH1 0x8 DUP1 SLOAD SWAP1 POP PUSH2 0x1EC5 SWAP2 SWAP1 PUSH2 0x2986 JUMP JUMPDEST DUP2 SLOAD DUP2 LT PUSH2 0x1ED6 JUMPI PUSH2 0x1ED5 PUSH2 0x2959 JUMP JUMPDEST JUMPDEST SWAP1 PUSH0 MSTORE PUSH1 0x20 PUSH0 KECCAK256 ADD PUSH0 SWAP1 SLOAD SWAP1 PUSH2 0x100 EXP SWAP1 DIV PUSH20 0xFFFFFFFFFFFFFFFFFFFFFFFFFFFFFFFFFFFFFFFF AND PUSH1 0x8 DUP3 DUP2 SLOAD DUP2 LT PUSH2 0x1F12 JUMPI PUSH2 0x1F11 PUSH2 0x2959 JUMP JUMPDEST JUMPDEST SWAP1 PUSH0 MSTORE PUSH1 0x20 PUSH0 KECCAK256 ADD PUSH0 PUSH2 0x100 EXP DUP2 SLOAD DUP2 PUSH20 0xFFFFFFFFFFFFFFFFFFFFFFFFFFFFFFFFFFFFFFFF MUL NOT AND SWAP1 DUP4 PUSH20 0xFFFFFFFFFFFFFFFFFFFFFFFFFFFFFFFFFFFFFFFF AND MUL OR SWAP1 SSTORE POP PUSH1 0x8 DUP1 SLOAD DUP1 PUSH2 0x1F69 JUMPI PUSH2 0x1F68 PUSH2 0x29B9 JUMP JUMPDEST JUMPDEST PUSH1 0x1 SWAP1 SUB DUP2 DUP2 SWAP1 PUSH0 MSTORE PUSH1 0x20 PUSH0 KECCAK256 ADD PUSH0 PUSH2 0x100 EXP DUP2 SLOAD SWAP1 PUSH20 0xFFFFFFFFFFFFFFFFFFFFFFFFFFFFFFFFFFFFFFFF MUL NOT AND SWAP1 SSTORE SWAP1 SSTORE PUSH2 0x1FAD JUMP JUMPDEST DUP1 DUP1 PUSH1 0x1 ADD SWAP2 POP POP PUSH2 0x1E36 JUMP JUMPDEST POP POP JUMP JUMPDEST PUSH0 DUP2 MLOAD SWAP1 POP SWAP2 SWAP1 POP JUMP JUMPDEST PUSH0 DUP3 DUP3 MSTORE PUSH1 0x20 DUP3 ADD SWAP1 POP SWAP3 SWAP2 POP POP JUMP JUMPDEST PUSH0 DUP2 SWAP1 POP PUSH1 0x20 DUP3 ADD SWAP1 POP SWAP2 SWAP1 POP JUMP JUMPDEST PUSH0 PUSH20 0xFFFFFFFFFFFFFFFFFFFFFFFFFFFFFFFFFFFFFFFF DUP3 AND SWAP1 POP SWAP2 SWAP1 POP JUMP JUMPDEST PUSH0 PUSH2 0x2003 DUP3 PUSH2 0x1FDA JUMP JUMPDEST SWAP1 POP SWAP2 SWAP1 POP JUMP JUMPDEST PUSH2 0x2013 DUP2 PUSH2 0x1FF9 JUMP JUMPDEST DUP3 MSTORE POP POP JUMP JUMPDEST PUSH0 PUSH2 0x2024 DUP4 DUP4 PUSH2 0x200A JUMP JUMPDEST PUSH1 0x20 DUP4 ADD SWAP1 POP SWAP3 SWAP2 POP POP JUMP JUMPDEST PUSH0 PUSH1 0x20 DUP3 ADD SWAP1 POP SWAP2 SWAP1 POP JUMP JUMPDEST PUSH0 PUSH2 0x2046 DUP3 PUSH2 0x1FB1 JUMP JUMPDEST PUSH2 0x2050 DUP2 DUP6 PUSH2 0x1FBB JUMP JUMPDEST SWAP4 POP PUSH2 0x205B DUP4 PUSH2 0x1FCB JUMP JUMPDEST DUP1 PUSH0 JUMPDEST DUP4 DUP2 LT ISZERO PUSH2 0x208B JUMPI DUP2 MLOAD PUSH2 0x2072 DUP9 DUP3 PUSH2 0x2019 JUMP JUMPDEST SWAP8 POP PUSH2 0x207D DUP4 PUSH2 0x2030 JUMP JUMPDEST SWAP3 POP POP PUSH1 0x1 DUP2 ADD SWAP1 POP PUSH2 0x205E JUMP JUMPDEST POP DUP6 SWAP4 POP POP POP POP SWAP3 SWAP2 POP POP JUMP JUMPDEST PUSH0 PUSH1 0x20 DUP3 ADD SWAP1 POP DUP2 DUP2 SUB PUSH0 DUP4 ADD MSTORE PUSH2 0x20B0 DUP2 DUP5 PUSH2 0x203C JUMP JUMPDEST SWAP1 POP SWAP3 SWAP2 POP POP JUMP JUMPDEST PUSH2 0x20C1 DUP2 PUSH2 0x1FF9 JUMP JUMPDEST DUP3 MSTORE POP POP JUMP JUMPDEST PUSH0 PUSH1 0x20 DUP3 ADD SWAP1 POP PUSH2 0x20DA PUSH0 DUP4 ADD DUP5 PUSH2 0x20B8 JUMP JUMPDEST SWAP3 SWAP2 POP POP JUMP JUMPDEST PUSH0 DUP2 MLOAD SWAP1 POP SWAP2 SWAP1 POP JUMP JUMPDEST PUSH0 DUP3 DUP3 MSTORE PUSH1 0x20 DUP3 ADD SWAP1 POP SWAP3 SWAP2 POP POP JUMP JUMPDEST DUP3 DUP2 DUP4 MCOPY PUSH0 DUP4 DUP4 ADD MSTORE POP POP POP JUMP JUMPDEST PUSH0 PUSH1 0x1F NOT PUSH1 0x1F DUP4 ADD AND SWAP1 POP SWAP2 SWAP1 POP JUMP JUMPDEST PUSH0 PUSH2 0x2122 DUP3 PUSH2 0x20E0 JUMP JUMPDEST PUSH2 0x212C DUP2 DUP6 PUSH2 0x20EA JUMP JUMPDEST SWAP4 POP PUSH2 0x213C DUP2 DUP6 PUSH1 0x20 DUP7 ADD PUSH2 0x20FA JUMP JUMPDEST PUSH2 0x2145 DUP2 PUSH2 0x2108 JUMP JUMPDEST DUP5 ADD SWAP2 POP POP SWAP3 SWAP2 POP POP JUMP JUMPDEST PUSH0 PUSH1 0x20 DUP3 ADD SWAP1 POP DUP2 DUP2 SUB PUSH0 DUP4 ADD MSTORE PUSH2 0x2168 DUP2 DUP5 PUSH2 0x2118 JUMP JUMPDEST SWAP1 POP SWAP3 SWAP2 POP POP JUMP JUMPDEST PUSH0 PUSH0 REVERT JUMPDEST PUSH2 0x217D DUP2 PUSH2 0x1FF9 JUMP JUMPDEST DUP2 EQ PUSH2 0x2187 JUMPI PUSH0 PUSH0 REVERT JUMPDEST POP JUMP JUMPDEST PUSH0 DUP2 CALLDATALOAD SWAP1 POP PUSH2 0x2198 DUP2 PUSH2 0x2174 JUMP JUMPDEST SWAP3 SWAP2 POP POP JUMP JUMPDEST PUSH0 DUP2 SWAP1 POP SWAP2 SWAP1 POP JUMP JUMPDEST PUSH2 0x21B0 DUP2 PUSH2 0x219E JUMP JUMPDEST DUP2 EQ PUSH2 0x21BA JUMPI PUSH0 PUSH0 REVERT JUMPDEST POP JUMP JUMPDEST PUSH0 DUP2 CALLDATALOAD SWAP1 POP PUSH2 0x21CB DUP2 PUSH2 0x21A7 JUMP JUMPDEST SWAP3 SWAP2 POP POP JUMP JUMPDEST PUSH0 PUSH0 PUSH1 0x40 DUP4 DUP6 SUB SLT ISZERO PUSH2 0x21E7 JUMPI PUSH2 0x21E6 PUSH2 0x2170 JUMP JUMPDEST JUMPDEST PUSH0 PUSH2 0x21F4 DUP6 DUP3 DUP7 ADD PUSH2 0x218A JUMP JUMPDEST SWAP3 POP POP PUSH1 0x20 PUSH2 0x2205 DUP6 DUP3 DUP7 ADD PUSH2 0x21BD JUMP JUMPDEST SWAP2 POP POP SWAP3 POP SWAP3 SWAP1 POP JUMP JUMPDEST PUSH0 DUP2 ISZERO ISZERO SWAP1 POP SWAP2 SWAP1 POP JUMP JUMPDEST PUSH2 0x2223 DUP2 PUSH2 0x220F JUMP JUMPDEST DUP3 MSTORE POP POP JUMP JUMPDEST PUSH0 PUSH1 0x20 DUP3 ADD SWAP1 POP PUSH2 0x223C PUSH0 DUP4 ADD DUP5 PUSH2 0x221A JUMP JUMPDEST SWAP3 SWAP2 POP POP JUMP JUMPDEST PUSH2 0x224B DUP2 PUSH2 0x219E JUMP JUMPDEST DUP3 MSTORE POP POP JUMP JUMPDEST PUSH0 PUSH1 0x20 DUP3 ADD SWAP1 POP PUSH2 0x2264 PUSH0 DUP4 ADD DUP5 PUSH2 0x2242 JUMP JUMPDEST SWAP3 SWAP2 POP POP JUMP JUMPDEST PUSH0 PUSH0 PUSH0 PUSH1 0x60 DUP5 DUP7 SUB SLT ISZERO PUSH2 0x2281 JUMPI PUSH2 0x2280 PUSH2 0x2170 JUMP JUMPDEST JUMPDEST PUSH0 PUSH2 0x228E DUP7 DUP3 DUP8 ADD PUSH2 0x218A JUMP JUMPDEST SWAP4 POP POP PUSH1 0x20 PUSH2 0x229F DUP7 DUP3 DUP8 ADD PUSH2 0x218A JUMP JUMPDEST SWAP3 POP POP PUSH1 0x40 PUSH2 0x22B0 DUP7 DUP3 DUP8 ADD PUSH2 0x21BD JUMP JUMPDEST SWAP2 POP POP SWAP3 POP SWAP3 POP SWAP3 JUMP JUMPDEST PUSH0 PUSH1 0xFF DUP3 AND SWAP1 POP SWAP2 SWAP1 POP JUMP JUMPDEST PUSH2 0x22CF DUP2 PUSH2 0x22BA JUMP JUMPDEST DUP3 MSTORE POP POP JUMP JUMPDEST PUSH0 PUSH1 0x20 DUP3 ADD SWAP1 POP PUSH2 0x22E8 PUSH0 DUP4 ADD DUP5 PUSH2 0x22C6 JUMP JUMPDEST SWAP3 SWAP2 POP POP JUMP JUMPDEST PUSH0 PUSH1 0x20 DUP3 DUP5 SUB SLT ISZERO PUSH2 0x2303 JUMPI PUSH2 0x2302 PUSH2 0x2170 JUMP JUMPDEST JUMPDEST PUSH0 PUSH2 0x2310 DUP5 DUP3 DUP6 ADD PUSH2 0x218A JUMP JUMPDEST SWAP2 POP POP SWAP3 SWAP2 POP POP JUMP JUMPDEST PUSH0 PUSH0 PUSH1 0x40 DUP4 DUP6 SUB SLT ISZERO PUSH2 0x232F JUMPI PUSH2 0x232E PUSH2 0x2170 JUMP JUMPDEST JUMPDEST PUSH0 PUSH2 0x233C DUP6 DUP3 DUP7 ADD PUSH2 0x218A JUMP JUMPDEST SWAP3 POP POP PUSH1 0x20 PUSH2 0x234D DUP6 DUP3 DUP7 ADD PUSH2 0x218A JUMP JUMPDEST SWAP2 POP POP SWAP3 POP SWAP3 SWAP1 POP JUMP JUMPDEST PUSH32 0x43616C6C6572206973206E6F742074686520646576656C6F7065720000000000 PUSH0 DUP3 ADD MSTORE POP JUMP JUMPDEST PUSH0 PUSH2 0x238B PUSH1 0x1B DUP4 PUSH2 0x20EA JUMP JUMPDEST SWAP2 POP PUSH2 0x2396 DUP3 PUSH2 0x2357 JUMP JUMPDEST PUSH1 0x20 DUP3 ADD SWAP1 POP SWAP2 SWAP1 POP JUMP JUMPDEST PUSH0 PUSH1 0x20 DUP3 ADD SWAP1 POP DUP2 DUP2 SUB PUSH0 DUP4 ADD MSTORE PUSH2 0x23B8 DUP2 PUSH2 0x237F JUMP JUMPDEST SWAP1 POP SWAP2 SWAP1 POP JUMP JUMPDEST PUSH32 0x4E6F20646576656C6F706572206368616E676520726571756573742070656E64 PUSH0 DUP3 ADD MSTORE PUSH32 0x696E670000000000000000000000000000000000000000000000000000000000 PUSH1 0x20 DUP3 ADD MSTORE POP JUMP JUMPDEST PUSH0 PUSH2 0x2419 PUSH1 0x23 DUP4 PUSH2 0x20EA JUMP JUMPDEST SWAP2 POP PUSH2 0x2424 DUP3 PUSH2 0x23BF JUMP JUMPDEST PUSH1 0x40 DUP3 ADD SWAP1 POP SWAP2 SWAP1 POP JUMP JUMPDEST PUSH0 PUSH1 0x20 DUP3 ADD SWAP1 POP DUP2 DUP2 SUB PUSH0 DUP4 ADD MSTORE PUSH2 0x2446 DUP2 PUSH2 0x240D JUMP JUMPDEST SWAP1 POP SWAP2 SWAP1 POP JUMP JUMPDEST PUSH32 0x4E487B7100000000000000000000000000000000000000000000000000000000 PUSH0 MSTORE PUSH1 0x22 PUSH1 0x4 MSTORE PUSH1 0x24 PUSH0 REVERT JUMPDEST PUSH0 PUSH1 0x2 DUP3 DIV SWAP1 POP PUSH1 0x1 DUP3 AND DUP1 PUSH2 0x2491 JUMPI PUSH1 0x7F DUP3 AND SWAP2 POP JUMPDEST PUSH1 0x20 DUP3 LT DUP2 SUB PUSH2 0x24A4 JUMPI PUSH2 0x24A3 PUSH2 0x244D JUMP JUMPDEST JUMPDEST POP SWAP2 SWAP1 POP JUMP JUMPDEST PUSH32 0x43616C6C6572206973206E6F7420746865205661756C744D616E616765720000 PUSH0 DUP3 ADD MSTORE POP JUMP JUMPDEST PUSH0 PUSH2 0x24DE PUSH1 0x1E DUP4 PUSH2 0x20EA JUMP JUMPDEST SWAP2 POP PUSH2 0x24E9 DUP3 PUSH2 0x24AA JUMP JUMPDEST PUSH1 0x20 DUP3 ADD SWAP1 POP SWAP2 SWAP1 POP JUMP JUMPDEST PUSH0 PUSH1 0x20 DUP3 ADD SWAP1 POP DUP2 DUP2 SUB PUSH0 DUP4 ADD MSTORE PUSH2 0x250B DUP2 PUSH2 0x24D2 JUMP JUMPDEST SWAP1 POP SWAP2 SWAP1 POP JUMP JUMPDEST PUSH32 0x4E6F206F776E6572206368616E676520726571756573742070656E64696E6700 PUSH0 DUP3 ADD MSTORE POP JUMP JUMPDEST PUSH0 PUSH2 0x2546 PUSH1 0x1F DUP4 PUSH2 0x20EA JUMP JUMPDEST SWAP2 POP PUSH2 0x2551 DUP3 PUSH2 0x2512 JUMP JUMPDEST PUSH1 0x20 DUP3 ADD SWAP1 POP SWAP2 SWAP1 POP JUMP JUMPDEST PUSH0 PUSH1 0x20 DUP3 ADD SWAP1 POP DUP2 DUP2 SUB PUSH0 DUP4 ADD MSTORE PUSH2 0x2573 DUP2 PUSH2 0x253A JUMP JUMPDEST SWAP1 POP SWAP2 SWAP1 POP JUMP JUMPDEST PUSH32 0x4E657720646576656C6F7065722063616E6E6F74206265207A65726F20616464 PUSH0 DUP3 ADD MSTORE PUSH32 0x7265737300000000000000000000000000000000000000000000000000000000 PUSH1 0x20 DUP3 ADD MSTORE POP JUMP JUMPDEST PUSH0 PUSH2 0x25D4 PUSH1 0x24 DUP4 PUSH2 0x20EA JUMP JUMPDEST SWAP2 POP PUSH2 0x25DF DUP3 PUSH2 0x257A JUMP JUMPDEST PUSH1 0x40 DUP3 ADD SWAP1 POP SWAP2 SWAP1 POP JUMP JUMPDEST PUSH0 PUSH1 0x20 DUP3 ADD SWAP1 POP DUP2 DUP2 SUB PUSH0 DUP4 ADD MSTORE PUSH2 0x2601 DUP2 PUSH2 0x25C8 JUMP JUMPDEST SWAP1 POP SWAP2 SWAP1 POP JUMP JUMPDEST PUSH32 0x446576656C6F706572206368616E676520616C72656164792072657175657374 PUSH0 DUP3 ADD MSTORE PUSH32 0x6564000000000000000000000000000000000000000000000000000000000000 PUSH1 0x20 DUP3 ADD MSTORE POP JUMP JUMPDEST PUSH0 PUSH2 0x2662 PUSH1 0x22 DUP4 PUSH2 0x20EA JUMP JUMPDEST SWAP2 POP PUSH2 0x266D DUP3 PUSH2 0x2608 JUMP JUMPDEST PUSH1 0x40 DUP3 ADD SWAP1 POP SWAP2 SWAP1 POP JUMP JUMPDEST PUSH0 PUSH1 0x20 DUP3 ADD SWAP1 POP DUP2 DUP2 SUB PUSH0 DUP4 ADD MSTORE PUSH2 0x268F DUP2 PUSH2 0x2656 JUMP JUMPDEST SWAP1 POP SWAP2 SWAP1 POP JUMP JUMPDEST PUSH32 0x4E487B7100000000000000000000000000000000000000000000000000000000 PUSH0 MSTORE PUSH1 0x11 PUSH1 0x4 MSTORE PUSH1 0x24 PUSH0 REVERT JUMPDEST PUSH0 PUSH2 0x26CD DUP3 PUSH2 0x219E JUMP JUMPDEST SWAP2 POP PUSH2 0x26D8 DUP4 PUSH2 0x219E JUMP JUMPDEST SWAP3 POP DUP3 DUP3 ADD SWAP1 POP DUP1 DUP3 GT ISZERO PUSH2 0x26F0 JUMPI PUSH2 0x26EF PUSH2 0x2696 JUMP JUMPDEST JUMPDEST SWAP3 SWAP2 POP POP JUMP JUMPDEST PUSH32 0x446576656C6F706572206368616E67652064656C6179206E6F74206D65740000 PUSH0 DUP3 ADD MSTORE POP JUMP JUMPDEST PUSH0 PUSH2 0x272A PUSH1 0x1E DUP4 PUSH2 0x20EA JUMP JUMPDEST SWAP2 POP PUSH2 0x2735 DUP3 PUSH2 0x26F6 JUMP JUMPDEST PUSH1 0x20 DUP3 ADD SWAP1 POP SWAP2 SWAP1 POP JUMP JUMPDEST PUSH0 PUSH1 0x20 DUP3 ADD SWAP1 POP DUP2 DUP2 SUB PUSH0 DUP4 ADD MSTORE PUSH2 0x2757 DUP2 PUSH2 0x271E JUMP JUMPDEST SWAP1 POP SWAP2 SWAP1 POP JUMP JUMPDEST PUSH32 0x4E6577206F776E65722063616E6E6F74206265207A65726F2061646472657373 PUSH0 DUP3 ADD MSTORE POP JUMP JUMPDEST PUSH0 PUSH2 0x2792 PUSH1 0x20 DUP4 PUSH2 0x20EA JUMP JUMPDEST SWAP2 POP PUSH2 0x279D DUP3 PUSH2 0x275E JUMP JUMPDEST PUSH1 0x20 DUP3 ADD SWAP1 POP SWAP2 SWAP1 POP JUMP JUMPDEST PUSH0 PUSH1 0x20 DUP3 ADD SWAP1 POP DUP2 DUP2 SUB PUSH0 DUP4 ADD MSTORE PUSH2 0x27BF DUP2 PUSH2 0x2786 JUMP JUMPDEST SWAP1 POP SWAP2 SWAP1 POP JUMP JUMPDEST PUSH32 0x4F776E6572206368616E676520616C7265616479207265717565737465640000 PUSH0 DUP3 ADD MSTORE POP JUMP JUMPDEST PUSH0 PUSH2 0x27FA PUSH1 0x1E DUP4 PUSH2 0x20EA JUMP JUMPDEST SWAP2 POP PUSH2 0x2805 DUP3 PUSH2 0x27C6 JUMP JUMPDEST PUSH1 0x20 DUP3 ADD SWAP1 POP SWAP2 SWAP1 POP JUMP JUMPDEST PUSH0 PUSH1 0x20 DUP3 ADD SWAP1 POP DUP2 DUP2 SUB PUSH0 DUP4 ADD MSTORE PUSH2 0x2827 DUP2 PUSH2 0x27EE JUMP JUMPDEST SWAP1 POP SWAP2 SWAP1 POP JUMP JUMPDEST PUSH32 0x5661756C744D616E6167657220616464726573732063616E6E6F74206265207A PUSH0 DUP3 ADD MSTORE PUSH32 0x65726F0000000000000000000000000000000000000000000000000000000000 PUSH1 0x20 DUP3 ADD MSTORE POP JUMP JUMPDEST PUSH0 PUSH2 0x2888 PUSH1 0x23 DUP4 PUSH2 0x20EA JUMP JUMPDEST SWAP2 POP PUSH2 0x2893 DUP3 PUSH2 0x282E JUMP JUMPDEST PUSH1 0x40 DUP3 ADD SWAP1 POP SWAP2 SWAP1 POP JUMP JUMPDEST PUSH0 PUSH1 0x20 DUP3 ADD SWAP1 POP DUP2 DUP2 SUB PUSH0 DUP4 ADD MSTORE PUSH2 0x28B5 DUP2 PUSH2 0x287C JUMP JUMPDEST SWAP1 POP SWAP2 SWAP1 POP JUMP JUMPDEST PUSH32 0x4F776E6572206368616E67652064656C6179206E6F74206D6574000000000000 PUSH0 DUP3 ADD MSTORE POP JUMP JUMPDEST PUSH0 PUSH2 0x28F0 PUSH1 0x1A DUP4 PUSH2 0x20EA JUMP JUMPDEST SWAP2 POP PUSH2 0x28FB DUP3 PUSH2 0x28BC JUMP JUMPDEST PUSH1 0x20 DUP3 ADD SWAP1 POP SWAP2 SWAP1 POP JUMP JUMPDEST PUSH0 PUSH1 0x20 DUP3 ADD SWAP1 POP DUP2 DUP2 SUB PUSH0 DUP4 ADD MSTORE PUSH2 0x291D DUP2 PUSH2 0x28E4 JUMP JUMPDEST SWAP1 POP SWAP2 SWAP1 POP JUMP JUMPDEST PUSH0 PUSH1 0x60 DUP3 ADD SWAP1 POP PUSH2 0x2937 PUSH0 DUP4 ADD DUP7 PUSH2 0x20B8 JUMP JUMPDEST PUSH2 0x2944 PUSH1 0x20 DUP4 ADD DUP6 PUSH2 0x2242 JUMP JUMPDEST PUSH2 0x2951 PUSH1 0x40 DUP4 ADD DUP5 PUSH2 0x2242 JUMP JUMPDEST SWAP5 SWAP4 POP POP POP POP JUMP JUMPDEST PUSH32 0x4E487B7100000000000000000000000000000000000000000000000000000000 PUSH0 MSTORE PUSH1 0x32 PUSH1 0x4 MSTORE PUSH1 0x24 PUSH0 REVERT JUMPDEST PUSH0 PUSH2 0x2990 DUP3 PUSH2 0x219E JUMP JUMPDEST SWAP2 POP PUSH2 0x299B DUP4 PUSH2 0x219E JUMP JUMPDEST SWAP3 POP DUP3 DUP3 SUB SWAP1 POP DUP2 DUP2 GT ISZERO PUSH2 0x29B3 JUMPI PUSH2 0x29B2 PUSH2 0x2696 JUMP JUMPDEST JUMPDEST SWAP3 SWAP2 POP POP JUMP JUMPDEST PUSH32 0x4E487B7100000000000000000000000000000000000000000000000000000000 PUSH0 MSTORE PUSH1 0x31 PUSH1 0x4 MSTORE PUSH1 0x24 PUSH0 REVERT INVALID LOG2 PUSH5 0x6970667358 0x22 SLT KECCAK256 GASLIMIT PUSH4 0xD810CF71 PUSH15 0x9E405592DECB62B6D71AF319D9AC52 0xB3 0xD3 TLOAD PUSH16 0xAEFD41EE487E64736F6C634300081C00 CALLER "
				},
				"gasEstimates": {
					"creation": {
						"codeDepositCost": "2156000",
						"executionCost": "infinite",
						"totalCost": "infinite"
					},
					"external": {
						"INITIAL_SUPPLY()": "393",
						"allowance(address,address)": "infinite",
						"approve(address,uint256)": "infinite",
						"balanceOf(address)": "2917",
						"cancelDeveloperChange()": "34963",
						"cancelOwnerChange()": "infinite",
						"decimals()": "428",
						"developer()": "2619",
						"developerChangeRequestTime()": "2513",
						"finalizeDeveloperChange()": "infinite",
						"finalizeOwnerChange()": "infinite",
						"getUserBalance(address)": "2896",
						"getUsers()": "infinite",
						"mint(address,uint256)": "infinite",
						"name()": "infinite",
						"owner()": "2605",
						"ownerChangeRequestTime()": "2471",
						"pendingNewDeveloper()": "2597",
						"pendingNewOwner()": "2577",
						"renounceOwnership()": "infinite",
						"requestDeveloperChange(address)": "infinite",
						"requestOwnerChange(address)": "52808",
						"setVaultManager(address)": "infinite",
						"symbol()": "infinite",
						"totalSupply()": "2522",
						"transfer(address,uint256)": "infinite",
						"transferFrom(address,address,uint256)": "infinite",
						"transferOwnership(address)": "infinite",
						"vaultManager()": "2576"
					},
					"internal": {
						"_mint(address,uint256)": "infinite",
						"_removeUser(address)": "infinite",
						"_trackUserBalance(address,uint256)": "infinite",
						"_transfer(address,address,uint256)": "infinite"
					}
				},
				"methodIdentifiers": {
					"INITIAL_SUPPLY()": "2ff2e9dc",
					"allowance(address,address)": "dd62ed3e",
					"approve(address,uint256)": "095ea7b3",
					"balanceOf(address)": "70a08231",
					"cancelDeveloperChange()": "067453a6",
					"cancelOwnerChange()": "88dacbcc",
					"decimals()": "313ce567",
					"developer()": "ca4b208b",
					"developerChangeRequestTime()": "e9c559a9",
					"finalizeDeveloperChange()": "a67a91e3",
					"finalizeOwnerChange()": "dd940cb5",
					"getUserBalance(address)": "47734892",
					"getUsers()": "00ce8e3e",
					"mint(address,uint256)": "40c10f19",
					"name()": "06fdde03",
					"owner()": "8da5cb5b",
					"ownerChangeRequestTime()": "2b7df804",
					"pendingNewDeveloper()": "b9c28d29",
					"pendingNewOwner()": "05069f22",
					"renounceOwnership()": "715018a6",
					"requestDeveloperChange(address)": "9e12279d",
					"requestOwnerChange(address)": "a86c8374",
					"setVaultManager(address)": "b543503e",
					"symbol()": "95d89b41",
					"totalSupply()": "18160ddd",
					"transfer(address,uint256)": "a9059cbb",
					"transferFrom(address,address,uint256)": "23b872dd",
					"transferOwnership(address)": "f2fde38b",
					"vaultManager()": "8a4adf24"
				}
			},
			"storageLayout": {
				"storage": [
					{
						"astId": 307,
						"contract": "contracts/NASICOIN.sol:NASICOIN",
						"label": "_balances",
						"offset": 0,
						"slot": "0",
						"type": "t_mapping(t_address,t_uint256)"
					},
					{
						"astId": 313,
						"contract": "contracts/NASICOIN.sol:NASICOIN",
						"label": "_allowances",
						"offset": 0,
						"slot": "1",
						"type": "t_mapping(t_address,t_mapping(t_address,t_uint256))"
					},
					{
						"astId": 315,
						"contract": "contracts/NASICOIN.sol:NASICOIN",
						"label": "_totalSupply",
						"offset": 0,
						"slot": "2",
						"type": "t_uint256"
					},
					{
						"astId": 317,
						"contract": "contracts/NASICOIN.sol:NASICOIN",
						"label": "_name",
						"offset": 0,
						"slot": "3",
						"type": "t_string_storage"
					},
					{
						"astId": 319,
						"contract": "contracts/NASICOIN.sol:NASICOIN",
						"label": "_symbol",
						"offset": 0,
						"slot": "4",
						"type": "t_string_storage"
					},
					{
						"astId": 8,
						"contract": "contracts/NASICOIN.sol:NASICOIN",
						"label": "_owner",
						"offset": 0,
						"slot": "5",
						"type": "t_address"
					},
					{
						"astId": 953,
						"contract": "contracts/NASICOIN.sol:NASICOIN",
						"label": "hasBalance",
						"offset": 0,
						"slot": "6",
						"type": "t_mapping(t_address,t_bool)"
					},
					{
						"astId": 957,
						"contract": "contracts/NASICOIN.sol:NASICOIN",
						"label": "userBalances",
						"offset": 0,
						"slot": "7",
						"type": "t_mapping(t_address,t_uint256)"
					},
					{
						"astId": 960,
						"contract": "contracts/NASICOIN.sol:NASICOIN",
						"label": "users",
						"offset": 0,
						"slot": "8",
						"type": "t_array(t_address)dyn_storage"
					},
					{
						"astId": 962,
						"contract": "contracts/NASICOIN.sol:NASICOIN",
						"label": "developer",
						"offset": 0,
						"slot": "9",
						"type": "t_address"
					},
					{
						"astId": 964,
						"contract": "contracts/NASICOIN.sol:NASICOIN",
						"label": "vaultManager",
						"offset": 0,
						"slot": "10",
						"type": "t_address"
					},
					{
						"astId": 966,
						"contract": "contracts/NASICOIN.sol:NASICOIN",
						"label": "pendingNewOwner",
						"offset": 0,
						"slot": "11",
						"type": "t_address"
					},
					{
						"astId": 968,
						"contract": "contracts/NASICOIN.sol:NASICOIN",
						"label": "pendingNewDeveloper",
						"offset": 0,
						"slot": "12",
						"type": "t_address"
					},
					{
						"astId": 970,
						"contract": "contracts/NASICOIN.sol:NASICOIN",
						"label": "ownerChangeRequestTime",
						"offset": 0,
						"slot": "13",
						"type": "t_uint256"
					},
					{
						"astId": 972,
						"contract": "contracts/NASICOIN.sol:NASICOIN",
						"label": "developerChangeRequestTime",
						"offset": 0,
						"slot": "14",
						"type": "t_uint256"
					}
				],
				"types": {
					"t_address": {
						"encoding": "inplace",
						"label": "address",
						"numberOfBytes": "20"
					},
					"t_array(t_address)dyn_storage": {
						"base": "t_address",
						"encoding": "dynamic_array",
						"label": "address[]",
						"numberOfBytes": "32"
					},
					"t_bool": {
						"encoding": "inplace",
						"label": "bool",
						"numberOfBytes": "1"
					},
					"t_mapping(t_address,t_bool)": {
						"encoding": "mapping",
						"key": "t_address",
						"label": "mapping(address => bool)",
						"numberOfBytes": "32",
						"value": "t_bool"
					},
					"t_mapping(t_address,t_mapping(t_address,t_uint256))": {
						"encoding": "mapping",
						"key": "t_address",
						"label": "mapping(address => mapping(address => uint256))",
						"numberOfBytes": "32",
						"value": "t_mapping(t_address,t_uint256)"
					},
					"t_mapping(t_address,t_uint256)": {
						"encoding": "mapping",
						"key": "t_address",
						"label": "mapping(address => uint256)",
						"numberOfBytes": "32",
						"value": "t_uint256"
					},
					"t_string_storage": {
						"encoding": "bytes",
						"label": "string",
						"numberOfBytes": "32"
					},
					"t_uint256": {
						"encoding": "inplace",
						"label": "uint256",
						"numberOfBytes": "32"
					}
				}
			},
			"userdoc": {
				"kind": "user",
				"methods": {
					"cancelDeveloperChange()": {
						"notice": "Cancel the developer change request."
					},
					"cancelOwnerChange()": {
						"notice": "Cancel the owner change request."
					},
					"constructor": {
						"notice": "Constructor to deploy the NASICOIN token."
					},
					"decimals()": {
						"notice": "Override the decimals function to return 18, standard for ERC20 tokens.         The smallest fractional unit of NASICOIN is called \"FISH\"."
					},
					"finalizeDeveloperChange()": {
						"notice": "Finalize the developer change after the delay period."
					},
					"finalizeOwnerChange()": {
						"notice": "Finalize the owner change after the delay period."
					},
					"mint(address,uint256)": {
						"notice": "Mint new tokens. Can only be called by the VaultManager contract."
					},
					"requestDeveloperChange(address)": {
						"notice": "Request to change the developer."
					},
					"requestOwnerChange(address)": {
						"notice": "Request to change the owner."
					},
					"setVaultManager(address)": {
						"notice": "Set the address of the VaultManager contract."
					}
				},
				"version": 1
			}
		}
	}
}