{
	"contracts/SelectWinner.sol": {
		"SelectWinner": {
			"abi": [
				{
					"inputs": [
						{
							"internalType": "uint256",
							"name": "totalSupply",
							"type": "uint256"
						},
						{
							"internalType": "address[]",
							"name": "userAddresses",
							"type": "address[]"
						},
						{
							"internalType": "uint256[]",
							"name": "userBalances",
							"type": "uint256[]"
						}
					],
					"name": "selectWinner",
					"outputs": [
						{
							"internalType": "address",
							"name": "winnerAddress",
							"type": "address"
						}
					],
					"stateMutability": "view",
					"type": "function"
				}
			],
			"devdoc": {
				"details": "Manages prize pools, distributions, and random winner selection.",
				"kind": "dev",
				"methods": {
					"selectWinner(uint256,address[],uint256[])": {
						"params": {
							"totalSupply": "The total supply of tokens.",
							"userBalances": "An array of balances corresponding to the users."
						},
						"returns": {
							"winnerAddress": "The randomly selected winner's address."
						}
					}
				},
				"title": "PrizeManager",
				"version": 1
			},
			"evm": {
				"assembly": "    /* \"contracts/SelectWinner.sol\":304:2212  contract SelectWinner {... */\n  mstore(0x40, 0x80)\n  callvalue\n  dup1\n  iszero\n  tag_1\n  jumpi\n  revert(0x00, 0x00)\ntag_1:\n  pop\n  dataSize(sub_0)\n  dup1\n  dataOffset(sub_0)\n  0x00\n  codecopy\n  0x00\n  return\nstop\n\nsub_0: assembly {\n        /* \"contracts/SelectWinner.sol\":304:2212  contract SelectWinner {... */\n      mstore(0x40, 0x80)\n      callvalue\n      dup1\n      iszero\n      tag_1\n      jumpi\n      revert(0x00, 0x00)\n    tag_1:\n      pop\n      jumpi(tag_2, lt(calldatasize, 0x04))\n      shr(0xe0, calldataload(0x00))\n      dup1\n      0x971a22c5\n      eq\n      tag_3\n      jumpi\n    tag_2:\n      revert(0x00, 0x00)\n        /* \"contracts/SelectWinner.sol\":658:2209  function selectWinner(uint256 totalSupply, address[] calldata userAddresses, uint256[] calldata userBalances) ... */\n    tag_3:\n      tag_4\n      0x04\n      dup1\n      calldatasize\n      sub\n      dup2\n      add\n      swap1\n      tag_5\n      swap2\n      swap1\n      tag_6\n      jump\t// in\n    tag_5:\n      tag_7\n      jump\t// in\n    tag_4:\n      mload(0x40)\n      tag_8\n      swap2\n      swap1\n      tag_9\n      jump\t// in\n    tag_8:\n      mload(0x40)\n      dup1\n      swap2\n      sub\n      swap1\n      return\n    tag_7:\n        /* \"contracts/SelectWinner.sol\":821:842  address winnerAddress */\n      0x00\n        /* \"contracts/SelectWinner.sol\":893:905  userBalances */\n      dup3\n      dup3\n        /* \"contracts/SelectWinner.sol\":893:912  userBalances.length */\n      swap1\n      pop\n        /* \"contracts/SelectWinner.sol\":869:882  userAddresses */\n      dup6\n      dup6\n        /* \"contracts/SelectWinner.sol\":869:889  userAddresses.length */\n      swap1\n      pop\n        /* \"contracts/SelectWinner.sol\":869:912  userAddresses.length == userBalances.length */\n      eq\n        /* \"contracts/SelectWinner.sol\":861:955  require(userAddresses.length == userBalances.length, \"Input arrays must have the same length\") */\n      tag_11\n      jumpi\n      mload(0x40)\n      0x08c379a000000000000000000000000000000000000000000000000000000000\n      dup2\n      mstore\n      0x04\n      add\n      tag_12\n      swap1\n      tag_13\n      jump\t// in\n    tag_12:\n      mload(0x40)\n      dup1\n      swap2\n      sub\n      swap1\n      revert\n    tag_11:\n        /* \"contracts/SelectWinner.sol\":988:989  0 */\n      0x00\n        /* \"contracts/SelectWinner.sol\":974:985  totalSupply */\n      dup7\n        /* \"contracts/SelectWinner.sol\":974:989  totalSupply > 0 */\n      gt\n        /* \"contracts/SelectWinner.sol\":966:1029  require(totalSupply > 0, \"Total supply must be greater than 0\") */\n      tag_14\n      jumpi\n      mload(0x40)\n      0x08c379a000000000000000000000000000000000000000000000000000000000\n      dup2\n      mstore\n      0x04\n      add\n      tag_15\n      swap1\n      tag_16\n      jump\t// in\n    tag_15:\n      mload(0x40)\n      dup1\n      swap2\n      sub\n      swap1\n      revert\n    tag_14:\n        /* \"contracts/SelectWinner.sol\":1116:1134  uint256 randomSeed */\n      0x00\n        /* \"contracts/SelectWinner.sol\":1186:1201  block.timestamp */\n      timestamp\n        /* \"contracts/SelectWinner.sol\":1216:1228  block.number */\n      number\n        /* \"contracts/SelectWinner.sol\":1268:1269  1 */\n      0x01\n        /* \"contracts/SelectWinner.sol\":1253:1265  block.number */\n      number\n        /* \"contracts/SelectWinner.sol\":1253:1269  block.number - 1 */\n      tag_17\n      swap2\n      swap1\n      tag_18\n      jump\t// in\n    tag_17:\n        /* \"contracts/SelectWinner.sol\":1243:1270  blockhash(block.number - 1) */\n      blockhash\n        /* \"contracts/SelectWinner.sol\":1285:1295  msg.sender */\n      caller\n        /* \"contracts/SelectWinner.sol\":1310:1331  address(this).balance */\n      selfbalance\n        /* \"contracts/SelectWinner.sol\":1346:1355  gasleft() */\n      gas\n        /* \"contracts/SelectWinner.sol\":1370:1381  tx.gasprice */\n      gasprice\n        /* \"contracts/SelectWinner.sol\":1396:1407  totalSupply */\n      dup14\n        /* \"contracts/SelectWinner.sol\":1155:1418  abi.encodePacked(... */\n      add(0x20, mload(0x40))\n      tag_19\n      swap9\n      swap8\n      swap7\n      swap6\n      swap5\n      swap4\n      swap3\n      swap2\n      swap1\n      tag_20\n      jump\t// in\n    tag_19:\n      mload(0x40)\n      0x20\n      dup2\n      dup4\n      sub\n      sub\n      dup2\n      mstore\n      swap1\n      0x40\n      mstore\n        /* \"contracts/SelectWinner.sol\":1145:1419  keccak256(abi.encodePacked(... */\n      dup1\n      mload\n      swap1\n      0x20\n      add\n      keccak256\n        /* \"contracts/SelectWinner.sol\":1137:1420  uint256(keccak256(abi.encodePacked(... */\n      0x00\n      shr\n        /* \"contracts/SelectWinner.sol\":1116:1420  uint256 randomSeed = uint256(keccak256(abi.encodePacked(... */\n      swap1\n      pop\n        /* \"contracts/SelectWinner.sol\":1502:1516  uint256 random */\n      0x00\n        /* \"contracts/SelectWinner.sol\":1568:1583  block.timestamp */\n      timestamp\n        /* \"contracts/SelectWinner.sol\":1598:1610  block.number */\n      number\n        /* \"contracts/SelectWinner.sol\":1650:1651  1 */\n      0x01\n        /* \"contracts/SelectWinner.sol\":1635:1647  block.number */\n      number\n        /* \"contracts/SelectWinner.sol\":1635:1651  block.number - 1 */\n      tag_21\n      swap2\n      swap1\n      tag_18\n      jump\t// in\n    tag_21:\n        /* \"contracts/SelectWinner.sol\":1625:1652  blockhash(block.number - 1) */\n      blockhash\n        /* \"contracts/SelectWinner.sol\":1667:1677  msg.sender */\n      caller\n        /* \"contracts/SelectWinner.sol\":1692:1713  address(this).balance */\n      selfbalance\n        /* \"contracts/SelectWinner.sol\":1728:1738  randomSeed */\n      dup7\n        /* \"contracts/SelectWinner.sol\":1537:1749  abi.encodePacked(... */\n      add(0x20, mload(0x40))\n      tag_22\n      swap7\n      swap6\n      swap5\n      swap4\n      swap3\n      swap2\n      swap1\n      tag_23\n      jump\t// in\n    tag_22:\n      mload(0x40)\n      0x20\n      dup2\n      dup4\n      sub\n      sub\n      dup2\n      mstore\n      swap1\n      0x40\n      mstore\n        /* \"contracts/SelectWinner.sol\":1527:1750  keccak256(abi.encodePacked(... */\n      dup1\n      mload\n      swap1\n      0x20\n      add\n      keccak256\n        /* \"contracts/SelectWinner.sol\":1519:1751  uint256(keccak256(abi.encodePacked(... */\n      0x00\n      shr\n        /* \"contracts/SelectWinner.sol\":1502:1751  uint256 random = uint256(keccak256(abi.encodePacked(... */\n      swap1\n      pop\n        /* \"contracts/SelectWinner.sol\":1833:1857  uint256 cumulativeWeight */\n      0x00\n        /* \"contracts/SelectWinner.sol\":1860:1861  0 */\n      0x00\n        /* \"contracts/SelectWinner.sol\":1833:1861  uint256 cumulativeWeight = 0 */\n      swap1\n      pop\n        /* \"contracts/SelectWinner.sol\":1872:1892  uint256 winningValue */\n      0x00\n        /* \"contracts/SelectWinner.sol\":1904:1915  totalSupply */\n      dup10\n        /* \"contracts/SelectWinner.sol\":1895:1901  random */\n      dup4\n        /* \"contracts/SelectWinner.sol\":1895:1915  random % totalSupply */\n      tag_24\n      swap2\n      swap1\n      tag_25\n      jump\t// in\n    tag_24:\n        /* \"contracts/SelectWinner.sol\":1872:1915  uint256 winningValue = random % totalSupply */\n      swap1\n      pop\n        /* \"contracts/SelectWinner.sol\":1933:1942  uint256 i */\n      0x00\n        /* \"contracts/SelectWinner.sol\":1945:1946  0 */\n      0x00\n        /* \"contracts/SelectWinner.sol\":1933:1946  uint256 i = 0 */\n      swap1\n      pop\n        /* \"contracts/SelectWinner.sol\":1928:2149  for (uint256 i = 0; i < userBalances.length; i++) {... */\n    tag_26:\n        /* \"contracts/SelectWinner.sol\":1952:1964  userBalances */\n      dup8\n      dup8\n        /* \"contracts/SelectWinner.sol\":1952:1971  userBalances.length */\n      swap1\n      pop\n        /* \"contracts/SelectWinner.sol\":1948:1949  i */\n      dup2\n        /* \"contracts/SelectWinner.sol\":1948:1971  i < userBalances.length */\n      lt\n        /* \"contracts/SelectWinner.sol\":1928:2149  for (uint256 i = 0; i < userBalances.length; i++) {... */\n      iszero\n      tag_27\n      jumpi\n        /* \"contracts/SelectWinner.sol\":2013:2025  userBalances */\n      dup8\n      dup8\n        /* \"contracts/SelectWinner.sol\":2026:2027  i */\n      dup3\n        /* \"contracts/SelectWinner.sol\":2013:2028  userBalances[i] */\n      dup2\n      dup2\n      lt\n      tag_29\n      jumpi\n      tag_30\n      tag_31\n      jump\t// in\n    tag_30:\n    tag_29:\n      swap1\n      pop\n      0x20\n      mul\n      add\n      calldataload\n        /* \"contracts/SelectWinner.sol\":1993:2028  cumulativeWeight += userBalances[i] */\n      dup4\n      tag_32\n      swap2\n      swap1\n      tag_33\n      jump\t// in\n    tag_32:\n      swap3\n      pop\n        /* \"contracts/SelectWinner.sol\":2062:2078  cumulativeWeight */\n      dup3\n        /* \"contracts/SelectWinner.sol\":2047:2059  winningValue */\n      dup3\n        /* \"contracts/SelectWinner.sol\":2047:2078  winningValue < cumulativeWeight */\n      lt\n        /* \"contracts/SelectWinner.sol\":2043:2138  if (winningValue < cumulativeWeight) {... */\n      iszero\n      tag_34\n      jumpi\n        /* \"contracts/SelectWinner.sol\":2106:2119  userAddresses */\n      dup10\n      dup10\n        /* \"contracts/SelectWinner.sol\":2120:2121  i */\n      dup3\n        /* \"contracts/SelectWinner.sol\":2106:2122  userAddresses[i] */\n      dup2\n      dup2\n      lt\n      tag_35\n      jumpi\n      tag_36\n      tag_31\n      jump\t// in\n    tag_36:\n    tag_35:\n      swap1\n      pop\n      0x20\n      mul\n      add\n      0x20\n      dup2\n      add\n      swap1\n      tag_37\n      swap2\n      swap1\n      tag_38\n      jump\t// in\n    tag_37:\n        /* \"contracts/SelectWinner.sol\":2099:2122  return userAddresses[i] */\n      swap6\n      pop\n      pop\n      pop\n      pop\n      pop\n      pop\n      jump(tag_10)\n        /* \"contracts/SelectWinner.sol\":2043:2138  if (winningValue < cumulativeWeight) {... */\n    tag_34:\n        /* \"contracts/SelectWinner.sol\":1973:1976  i++ */\n      dup1\n      dup1\n      0x01\n      add\n      swap2\n      pop\n      pop\n        /* \"contracts/SelectWinner.sol\":1928:2149  for (uint256 i = 0; i < userBalances.length; i++) {... */\n      jump(tag_26)\n    tag_27:\n      pop\n        /* \"contracts/SelectWinner.sol\":2161:2201  revert(\"Winner could not be determined\") */\n      mload(0x40)\n      0x08c379a000000000000000000000000000000000000000000000000000000000\n      dup2\n      mstore\n      0x04\n      add\n      tag_39\n      swap1\n      tag_40\n      jump\t// in\n    tag_39:\n      mload(0x40)\n      dup1\n      swap2\n      sub\n      swap1\n      revert\n        /* \"contracts/SelectWinner.sol\":658:2209  function selectWinner(uint256 totalSupply, address[] calldata userAddresses, uint256[] calldata userBalances) ... */\n    tag_10:\n      swap6\n      swap5\n      pop\n      pop\n      pop\n      pop\n      pop\n      jump\t// out\n        /* \"#utility.yul\":88:205   */\n    tag_42:\n        /* \"#utility.yul\":197:198   */\n      0x00\n        /* \"#utility.yul\":194:195   */\n      0x00\n        /* \"#utility.yul\":187:199   */\n      revert\n        /* \"#utility.yul\":211:328   */\n    tag_43:\n        /* \"#utility.yul\":320:321   */\n      0x00\n        /* \"#utility.yul\":317:318   */\n      0x00\n        /* \"#utility.yul\":310:322   */\n      revert\n        /* \"#utility.yul\":334:411   */\n    tag_44:\n        /* \"#utility.yul\":371:378   */\n      0x00\n        /* \"#utility.yul\":400:405   */\n      dup2\n        /* \"#utility.yul\":389:405   */\n      swap1\n      pop\n        /* \"#utility.yul\":334:411   */\n      swap2\n      swap1\n      pop\n      jump\t// out\n        /* \"#utility.yul\":417:539   */\n    tag_45:\n        /* \"#utility.yul\":490:514   */\n      tag_81\n        /* \"#utility.yul\":508:513   */\n      dup2\n        /* \"#utility.yul\":490:514   */\n      tag_44\n      jump\t// in\n    tag_81:\n        /* \"#utility.yul\":483:488   */\n      dup2\n        /* \"#utility.yul\":480:515   */\n      eq\n        /* \"#utility.yul\":470:533   */\n      tag_82\n      jumpi\n        /* \"#utility.yul\":529:530   */\n      0x00\n        /* \"#utility.yul\":526:527   */\n      0x00\n        /* \"#utility.yul\":519:531   */\n      revert\n        /* \"#utility.yul\":470:533   */\n    tag_82:\n        /* \"#utility.yul\":417:539   */\n      pop\n      jump\t// out\n        /* \"#utility.yul\":545:684   */\n    tag_46:\n        /* \"#utility.yul\":591:596   */\n      0x00\n        /* \"#utility.yul\":629:635   */\n      dup2\n        /* \"#utility.yul\":616:636   */\n      calldataload\n        /* \"#utility.yul\":607:636   */\n      swap1\n      pop\n        /* \"#utility.yul\":645:678   */\n      tag_84\n        /* \"#utility.yul\":672:677   */\n      dup2\n        /* \"#utility.yul\":645:678   */\n      tag_45\n      jump\t// in\n    tag_84:\n        /* \"#utility.yul\":545:684   */\n      swap3\n      swap2\n      pop\n      pop\n      jump\t// out\n        /* \"#utility.yul\":690:807   */\n    tag_47:\n        /* \"#utility.yul\":799:800   */\n      0x00\n        /* \"#utility.yul\":796:797   */\n      0x00\n        /* \"#utility.yul\":789:801   */\n      revert\n        /* \"#utility.yul\":813:930   */\n    tag_48:\n        /* \"#utility.yul\":922:923   */\n      0x00\n        /* \"#utility.yul\":919:920   */\n      0x00\n        /* \"#utility.yul\":912:924   */\n      revert\n        /* \"#utility.yul\":936:1053   */\n    tag_49:\n        /* \"#utility.yul\":1045:1046   */\n      0x00\n        /* \"#utility.yul\":1042:1043   */\n      0x00\n        /* \"#utility.yul\":1035:1047   */\n      revert\n        /* \"#utility.yul\":1076:1644   */\n    tag_50:\n        /* \"#utility.yul\":1149:1157   */\n      0x00\n        /* \"#utility.yul\":1159:1165   */\n      0x00\n        /* \"#utility.yul\":1209:1212   */\n      dup4\n        /* \"#utility.yul\":1202:1206   */\n      0x1f\n        /* \"#utility.yul\":1194:1200   */\n      dup5\n        /* \"#utility.yul\":1190:1207   */\n      add\n        /* \"#utility.yul\":1186:1213   */\n      slt\n        /* \"#utility.yul\":1176:1298   */\n      tag_89\n      jumpi\n        /* \"#utility.yul\":1217:1296   */\n      tag_90\n      tag_47\n      jump\t// in\n    tag_90:\n        /* \"#utility.yul\":1176:1298   */\n    tag_89:\n        /* \"#utility.yul\":1330:1336   */\n      dup3\n        /* \"#utility.yul\":1317:1337   */\n      calldataload\n        /* \"#utility.yul\":1307:1337   */\n      swap1\n      pop\n        /* \"#utility.yul\":1360:1378   */\n      0xffffffffffffffff\n        /* \"#utility.yul\":1352:1358   */\n      dup2\n        /* \"#utility.yul\":1349:1379   */\n      gt\n        /* \"#utility.yul\":1346:1463   */\n      iszero\n      tag_91\n      jumpi\n        /* \"#utility.yul\":1382:1461   */\n      tag_92\n      tag_48\n      jump\t// in\n    tag_92:\n        /* \"#utility.yul\":1346:1463   */\n    tag_91:\n        /* \"#utility.yul\":1496:1500   */\n      0x20\n        /* \"#utility.yul\":1488:1494   */\n      dup4\n        /* \"#utility.yul\":1484:1501   */\n      add\n        /* \"#utility.yul\":1472:1501   */\n      swap2\n      pop\n        /* \"#utility.yul\":1550:1553   */\n      dup4\n        /* \"#utility.yul\":1542:1546   */\n      0x20\n        /* \"#utility.yul\":1534:1540   */\n      dup3\n        /* \"#utility.yul\":1530:1547   */\n      mul\n        /* \"#utility.yul\":1520:1528   */\n      dup4\n        /* \"#utility.yul\":1516:1548   */\n      add\n        /* \"#utility.yul\":1513:1554   */\n      gt\n        /* \"#utility.yul\":1510:1638   */\n      iszero\n      tag_93\n      jumpi\n        /* \"#utility.yul\":1557:1636   */\n      tag_94\n      tag_49\n      jump\t// in\n    tag_94:\n        /* \"#utility.yul\":1510:1638   */\n    tag_93:\n        /* \"#utility.yul\":1076:1644   */\n      swap3\n      pop\n      swap3\n      swap1\n      pop\n      jump\t// out\n        /* \"#utility.yul\":1667:2235   */\n    tag_51:\n        /* \"#utility.yul\":1740:1748   */\n      0x00\n        /* \"#utility.yul\":1750:1756   */\n      0x00\n        /* \"#utility.yul\":1800:1803   */\n      dup4\n        /* \"#utility.yul\":1793:1797   */\n      0x1f\n        /* \"#utility.yul\":1785:1791   */\n      dup5\n        /* \"#utility.yul\":1781:1798   */\n      add\n        /* \"#utility.yul\":1777:1804   */\n      slt\n        /* \"#utility.yul\":1767:1889   */\n      tag_96\n      jumpi\n        /* \"#utility.yul\":1808:1887   */\n      tag_97\n      tag_47\n      jump\t// in\n    tag_97:\n        /* \"#utility.yul\":1767:1889   */\n    tag_96:\n        /* \"#utility.yul\":1921:1927   */\n      dup3\n        /* \"#utility.yul\":1908:1928   */\n      calldataload\n        /* \"#utility.yul\":1898:1928   */\n      swap1\n      pop\n        /* \"#utility.yul\":1951:1969   */\n      0xffffffffffffffff\n        /* \"#utility.yul\":1943:1949   */\n      dup2\n        /* \"#utility.yul\":1940:1970   */\n      gt\n        /* \"#utility.yul\":1937:2054   */\n      iszero\n      tag_98\n      jumpi\n        /* \"#utility.yul\":1973:2052   */\n      tag_99\n      tag_48\n      jump\t// in\n    tag_99:\n        /* \"#utility.yul\":1937:2054   */\n    tag_98:\n        /* \"#utility.yul\":2087:2091   */\n      0x20\n        /* \"#utility.yul\":2079:2085   */\n      dup4\n        /* \"#utility.yul\":2075:2092   */\n      add\n        /* \"#utility.yul\":2063:2092   */\n      swap2\n      pop\n        /* \"#utility.yul\":2141:2144   */\n      dup4\n        /* \"#utility.yul\":2133:2137   */\n      0x20\n        /* \"#utility.yul\":2125:2131   */\n      dup3\n        /* \"#utility.yul\":2121:2138   */\n      mul\n        /* \"#utility.yul\":2111:2119   */\n      dup4\n        /* \"#utility.yul\":2107:2139   */\n      add\n        /* \"#utility.yul\":2104:2145   */\n      gt\n        /* \"#utility.yul\":2101:2229   */\n      iszero\n      tag_100\n      jumpi\n        /* \"#utility.yul\":2148:2227   */\n      tag_101\n      tag_49\n      jump\t// in\n    tag_101:\n        /* \"#utility.yul\":2101:2229   */\n    tag_100:\n        /* \"#utility.yul\":1667:2235   */\n      swap3\n      pop\n      swap3\n      swap1\n      pop\n      jump\t// out\n        /* \"#utility.yul\":2241:3320   */\n    tag_6:\n        /* \"#utility.yul\":2372:2378   */\n      0x00\n        /* \"#utility.yul\":2380:2386   */\n      0x00\n        /* \"#utility.yul\":2388:2394   */\n      0x00\n        /* \"#utility.yul\":2396:2402   */\n      0x00\n        /* \"#utility.yul\":2404:2410   */\n      0x00\n        /* \"#utility.yul\":2453:2455   */\n      0x60\n        /* \"#utility.yul\":2441:2450   */\n      dup7\n        /* \"#utility.yul\":2432:2439   */\n      dup9\n        /* \"#utility.yul\":2428:2451   */\n      sub\n        /* \"#utility.yul\":2424:2456   */\n      slt\n        /* \"#utility.yul\":2421:2540   */\n      iszero\n      tag_103\n      jumpi\n        /* \"#utility.yul\":2459:2538   */\n      tag_104\n      tag_42\n      jump\t// in\n    tag_104:\n        /* \"#utility.yul\":2421:2540   */\n    tag_103:\n        /* \"#utility.yul\":2579:2580   */\n      0x00\n        /* \"#utility.yul\":2604:2657   */\n      tag_105\n        /* \"#utility.yul\":2649:2656   */\n      dup9\n        /* \"#utility.yul\":2640:2646   */\n      dup3\n        /* \"#utility.yul\":2629:2638   */\n      dup10\n        /* \"#utility.yul\":2625:2647   */\n      add\n        /* \"#utility.yul\":2604:2657   */\n      tag_46\n      jump\t// in\n    tag_105:\n        /* \"#utility.yul\":2594:2657   */\n      swap6\n      pop\n        /* \"#utility.yul\":2550:2667   */\n      pop\n        /* \"#utility.yul\":2734:2736   */\n      0x20\n        /* \"#utility.yul\":2723:2732   */\n      dup7\n        /* \"#utility.yul\":2719:2737   */\n      add\n        /* \"#utility.yul\":2706:2738   */\n      calldataload\n        /* \"#utility.yul\":2765:2783   */\n      0xffffffffffffffff\n        /* \"#utility.yul\":2757:2763   */\n      dup2\n        /* \"#utility.yul\":2754:2784   */\n      gt\n        /* \"#utility.yul\":2751:2868   */\n      iszero\n      tag_106\n      jumpi\n        /* \"#utility.yul\":2787:2866   */\n      tag_107\n      tag_43\n      jump\t// in\n    tag_107:\n        /* \"#utility.yul\":2751:2868   */\n    tag_106:\n        /* \"#utility.yul\":2900:2980   */\n      tag_108\n        /* \"#utility.yul\":2972:2979   */\n      dup9\n        /* \"#utility.yul\":2963:2969   */\n      dup3\n        /* \"#utility.yul\":2952:2961   */\n      dup10\n        /* \"#utility.yul\":2948:2970   */\n      add\n        /* \"#utility.yul\":2900:2980   */\n      tag_50\n      jump\t// in\n    tag_108:\n        /* \"#utility.yul\":2882:2980   */\n      swap5\n      pop\n      swap5\n      pop\n        /* \"#utility.yul\":2677:2990   */\n      pop\n        /* \"#utility.yul\":3057:3059   */\n      0x40\n        /* \"#utility.yul\":3046:3055   */\n      dup7\n        /* \"#utility.yul\":3042:3060   */\n      add\n        /* \"#utility.yul\":3029:3061   */\n      calldataload\n        /* \"#utility.yul\":3088:3106   */\n      0xffffffffffffffff\n        /* \"#utility.yul\":3080:3086   */\n      dup2\n        /* \"#utility.yul\":3077:3107   */\n      gt\n        /* \"#utility.yul\":3074:3191   */\n      iszero\n      tag_109\n      jumpi\n        /* \"#utility.yul\":3110:3189   */\n      tag_110\n      tag_43\n      jump\t// in\n    tag_110:\n        /* \"#utility.yul\":3074:3191   */\n    tag_109:\n        /* \"#utility.yul\":3223:3303   */\n      tag_111\n        /* \"#utility.yul\":3295:3302   */\n      dup9\n        /* \"#utility.yul\":3286:3292   */\n      dup3\n        /* \"#utility.yul\":3275:3284   */\n      dup10\n        /* \"#utility.yul\":3271:3293   */\n      add\n        /* \"#utility.yul\":3223:3303   */\n      tag_51\n      jump\t// in\n    tag_111:\n        /* \"#utility.yul\":3205:3303   */\n      swap3\n      pop\n      swap3\n      pop\n        /* \"#utility.yul\":3000:3313   */\n      pop\n        /* \"#utility.yul\":2241:3320   */\n      swap3\n      swap6\n      pop\n      swap3\n      swap6\n      swap1\n      swap4\n      pop\n      jump\t// out\n        /* \"#utility.yul\":3326:3452   */\n    tag_52:\n        /* \"#utility.yul\":3363:3370   */\n      0x00\n        /* \"#utility.yul\":3403:3445   */\n      0xffffffffffffffffffffffffffffffffffffffff\n        /* \"#utility.yul\":3396:3401   */\n      dup3\n        /* \"#utility.yul\":3392:3446   */\n      and\n        /* \"#utility.yul\":3381:3446   */\n      swap1\n      pop\n        /* \"#utility.yul\":3326:3452   */\n      swap2\n      swap1\n      pop\n      jump\t// out\n        /* \"#utility.yul\":3458:3554   */\n    tag_53:\n        /* \"#utility.yul\":3495:3502   */\n      0x00\n        /* \"#utility.yul\":3524:3548   */\n      tag_114\n        /* \"#utility.yul\":3542:3547   */\n      dup3\n        /* \"#utility.yul\":3524:3548   */\n      tag_52\n      jump\t// in\n    tag_114:\n        /* \"#utility.yul\":3513:3548   */\n      swap1\n      pop\n        /* \"#utility.yul\":3458:3554   */\n      swap2\n      swap1\n      pop\n      jump\t// out\n        /* \"#utility.yul\":3560:3678   */\n    tag_54:\n        /* \"#utility.yul\":3647:3671   */\n      tag_116\n        /* \"#utility.yul\":3665:3670   */\n      dup2\n        /* \"#utility.yul\":3647:3671   */\n      tag_53\n      jump\t// in\n    tag_116:\n        /* \"#utility.yul\":3642:3645   */\n      dup3\n        /* \"#utility.yul\":3635:3672   */\n      mstore\n        /* \"#utility.yul\":3560:3678   */\n      pop\n      pop\n      jump\t// out\n        /* \"#utility.yul\":3684:3906   */\n    tag_9:\n        /* \"#utility.yul\":3777:3781   */\n      0x00\n        /* \"#utility.yul\":3815:3817   */\n      0x20\n        /* \"#utility.yul\":3804:3813   */\n      dup3\n        /* \"#utility.yul\":3800:3818   */\n      add\n        /* \"#utility.yul\":3792:3818   */\n      swap1\n      pop\n        /* \"#utility.yul\":3828:3899   */\n      tag_118\n        /* \"#utility.yul\":3896:3897   */\n      0x00\n        /* \"#utility.yul\":3885:3894   */\n      dup4\n        /* \"#utility.yul\":3881:3898   */\n      add\n        /* \"#utility.yul\":3872:3878   */\n      dup5\n        /* \"#utility.yul\":3828:3899   */\n      tag_54\n      jump\t// in\n    tag_118:\n        /* \"#utility.yul\":3684:3906   */\n      swap3\n      swap2\n      pop\n      pop\n      jump\t// out\n        /* \"#utility.yul\":3912:4081   */\n    tag_55:\n        /* \"#utility.yul\":3996:4007   */\n      0x00\n        /* \"#utility.yul\":4030:4036   */\n      dup3\n        /* \"#utility.yul\":4025:4028   */\n      dup3\n        /* \"#utility.yul\":4018:4037   */\n      mstore\n        /* \"#utility.yul\":4070:4074   */\n      0x20\n        /* \"#utility.yul\":4065:4068   */\n      dup3\n        /* \"#utility.yul\":4061:4075   */\n      add\n        /* \"#utility.yul\":4046:4075   */\n      swap1\n      pop\n        /* \"#utility.yul\":3912:4081   */\n      swap3\n      swap2\n      pop\n      pop\n      jump\t// out\n        /* \"#utility.yul\":4087:4312   */\n    tag_56:\n        /* \"#utility.yul\":4227:4261   */\n      0x496e70757420617272617973206d7573742068617665207468652073616d6520\n        /* \"#utility.yul\":4223:4224   */\n      0x00\n        /* \"#utility.yul\":4215:4221   */\n      dup3\n        /* \"#utility.yul\":4211:4225   */\n      add\n        /* \"#utility.yul\":4204:4262   */\n      mstore\n        /* \"#utility.yul\":4296:4304   */\n      0x6c656e6774680000000000000000000000000000000000000000000000000000\n        /* \"#utility.yul\":4291:4293   */\n      0x20\n        /* \"#utility.yul\":4283:4289   */\n      dup3\n        /* \"#utility.yul\":4279:4294   */\n      add\n        /* \"#utility.yul\":4272:4305   */\n      mstore\n        /* \"#utility.yul\":4087:4312   */\n      pop\n      jump\t// out\n        /* \"#utility.yul\":4318:4684   */\n    tag_57:\n        /* \"#utility.yul\":4460:4463   */\n      0x00\n        /* \"#utility.yul\":4481:4548   */\n      tag_122\n        /* \"#utility.yul\":4545:4547   */\n      0x26\n        /* \"#utility.yul\":4540:4543   */\n      dup4\n        /* \"#utility.yul\":4481:4548   */\n      tag_55\n      jump\t// in\n    tag_122:\n        /* \"#utility.yul\":4474:4548   */\n      swap2\n      pop\n        /* \"#utility.yul\":4557:4650   */\n      tag_123\n        /* \"#utility.yul\":4646:4649   */\n      dup3\n        /* \"#utility.yul\":4557:4650   */\n      tag_56\n      jump\t// in\n    tag_123:\n        /* \"#utility.yul\":4675:4677   */\n      0x40\n        /* \"#utility.yul\":4670:4673   */\n      dup3\n        /* \"#utility.yul\":4666:4678   */\n      add\n        /* \"#utility.yul\":4659:4678   */\n      swap1\n      pop\n        /* \"#utility.yul\":4318:4684   */\n      swap2\n      swap1\n      pop\n      jump\t// out\n        /* \"#utility.yul\":4690:5109   */\n    tag_13:\n        /* \"#utility.yul\":4856:4860   */\n      0x00\n        /* \"#utility.yul\":4894:4896   */\n      0x20\n        /* \"#utility.yul\":4883:4892   */\n      dup3\n        /* \"#utility.yul\":4879:4897   */\n      add\n        /* \"#utility.yul\":4871:4897   */\n      swap1\n      pop\n        /* \"#utility.yul\":4943:4952   */\n      dup2\n        /* \"#utility.yul\":4937:4941   */\n      dup2\n        /* \"#utility.yul\":4933:4953   */\n      sub\n        /* \"#utility.yul\":4929:4930   */\n      0x00\n        /* \"#utility.yul\":4918:4927   */\n      dup4\n        /* \"#utility.yul\":4914:4931   */\n      add\n        /* \"#utility.yul\":4907:4954   */\n      mstore\n        /* \"#utility.yul\":4971:5102   */\n      tag_125\n        /* \"#utility.yul\":5097:5101   */\n      dup2\n        /* \"#utility.yul\":4971:5102   */\n      tag_57\n      jump\t// in\n    tag_125:\n        /* \"#utility.yul\":4963:5102   */\n      swap1\n      pop\n        /* \"#utility.yul\":4690:5109   */\n      swap2\n      swap1\n      pop\n      jump\t// out\n        /* \"#utility.yul\":5115:5337   */\n    tag_58:\n        /* \"#utility.yul\":5255:5289   */\n      0x546f74616c20737570706c79206d757374206265206772656174657220746861\n        /* \"#utility.yul\":5251:5252   */\n      0x00\n        /* \"#utility.yul\":5243:5249   */\n      dup3\n        /* \"#utility.yul\":5239:5253   */\n      add\n        /* \"#utility.yul\":5232:5290   */\n      mstore\n        /* \"#utility.yul\":5324:5329   */\n      0x6e20300000000000000000000000000000000000000000000000000000000000\n        /* \"#utility.yul\":5319:5321   */\n      0x20\n        /* \"#utility.yul\":5311:5317   */\n      dup3\n        /* \"#utility.yul\":5307:5322   */\n      add\n        /* \"#utility.yul\":5300:5330   */\n      mstore\n        /* \"#utility.yul\":5115:5337   */\n      pop\n      jump\t// out\n        /* \"#utility.yul\":5343:5709   */\n    tag_59:\n        /* \"#utility.yul\":5485:5488   */\n      0x00\n        /* \"#utility.yul\":5506:5573   */\n      tag_128\n        /* \"#utility.yul\":5570:5572   */\n      0x23\n        /* \"#utility.yul\":5565:5568   */\n      dup4\n        /* \"#utility.yul\":5506:5573   */\n      tag_55\n      jump\t// in\n    tag_128:\n        /* \"#utility.yul\":5499:5573   */\n      swap2\n      pop\n        /* \"#utility.yul\":5582:5675   */\n      tag_129\n        /* \"#utility.yul\":5671:5674   */\n      dup3\n        /* \"#utility.yul\":5582:5675   */\n      tag_58\n      jump\t// in\n    tag_129:\n        /* \"#utility.yul\":5700:5702   */\n      0x40\n        /* \"#utility.yul\":5695:5698   */\n      dup3\n        /* \"#utility.yul\":5691:5703   */\n      add\n        /* \"#utility.yul\":5684:5703   */\n      swap1\n      pop\n        /* \"#utility.yul\":5343:5709   */\n      swap2\n      swap1\n      pop\n      jump\t// out\n        /* \"#utility.yul\":5715:6134   */\n    tag_16:\n        /* \"#utility.yul\":5881:5885   */\n      0x00\n        /* \"#utility.yul\":5919:5921   */\n      0x20\n        /* \"#utility.yul\":5908:5917   */\n      dup3\n        /* \"#utility.yul\":5904:5922   */\n      add\n        /* \"#utility.yul\":5896:5922   */\n      swap1\n      pop\n        /* \"#utility.yul\":5968:5977   */\n      dup2\n        /* \"#utility.yul\":5962:5966   */\n      dup2\n        /* \"#utility.yul\":5958:5978   */\n      sub\n        /* \"#utility.yul\":5954:5955   */\n      0x00\n        /* \"#utility.yul\":5943:5952   */\n      dup4\n        /* \"#utility.yul\":5939:5956   */\n      add\n        /* \"#utility.yul\":5932:5979   */\n      mstore\n        /* \"#utility.yul\":5996:6127   */\n      tag_131\n        /* \"#utility.yul\":6122:6126   */\n      dup2\n        /* \"#utility.yul\":5996:6127   */\n      tag_59\n      jump\t// in\n    tag_131:\n        /* \"#utility.yul\":5988:6127   */\n      swap1\n      pop\n        /* \"#utility.yul\":5715:6134   */\n      swap2\n      swap1\n      pop\n      jump\t// out\n        /* \"#utility.yul\":6140:6320   */\n    tag_60:\n        /* \"#utility.yul\":6188:6265   */\n      0x4e487b7100000000000000000000000000000000000000000000000000000000\n        /* \"#utility.yul\":6185:6186   */\n      0x00\n        /* \"#utility.yul\":6178:6266   */\n      mstore\n        /* \"#utility.yul\":6285:6289   */\n      0x11\n        /* \"#utility.yul\":6282:6283   */\n      0x04\n        /* \"#utility.yul\":6275:6290   */\n      mstore\n        /* \"#utility.yul\":6309:6313   */\n      0x24\n        /* \"#utility.yul\":6306:6307   */\n      0x00\n        /* \"#utility.yul\":6299:6314   */\n      revert\n        /* \"#utility.yul\":6326:6520   */\n    tag_18:\n        /* \"#utility.yul\":6366:6370   */\n      0x00\n        /* \"#utility.yul\":6386:6406   */\n      tag_134\n        /* \"#utility.yul\":6404:6405   */\n      dup3\n        /* \"#utility.yul\":6386:6406   */\n      tag_44\n      jump\t// in\n    tag_134:\n        /* \"#utility.yul\":6381:6406   */\n      swap2\n      pop\n        /* \"#utility.yul\":6420:6440   */\n      tag_135\n        /* \"#utility.yul\":6438:6439   */\n      dup4\n        /* \"#utility.yul\":6420:6440   */\n      tag_44\n      jump\t// in\n    tag_135:\n        /* \"#utility.yul\":6415:6440   */\n      swap3\n      pop\n        /* \"#utility.yul\":6464:6465   */\n      dup3\n        /* \"#utility.yul\":6461:6462   */\n      dup3\n        /* \"#utility.yul\":6457:6466   */\n      sub\n        /* \"#utility.yul\":6449:6466   */\n      swap1\n      pop\n        /* \"#utility.yul\":6488:6489   */\n      dup2\n        /* \"#utility.yul\":6482:6486   */\n      dup2\n        /* \"#utility.yul\":6479:6490   */\n      gt\n        /* \"#utility.yul\":6476:6513   */\n      iszero\n      tag_136\n      jumpi\n        /* \"#utility.yul\":6493:6511   */\n      tag_137\n      tag_60\n      jump\t// in\n    tag_137:\n        /* \"#utility.yul\":6476:6513   */\n    tag_136:\n        /* \"#utility.yul\":6326:6520   */\n      swap3\n      swap2\n      pop\n      pop\n      jump\t// out\n        /* \"#utility.yul\":6526:6605   */\n    tag_61:\n        /* \"#utility.yul\":6565:6572   */\n      0x00\n        /* \"#utility.yul\":6594:6599   */\n      dup2\n        /* \"#utility.yul\":6583:6599   */\n      swap1\n      pop\n        /* \"#utility.yul\":6526:6605   */\n      swap2\n      swap1\n      pop\n      jump\t// out\n        /* \"#utility.yul\":6611:6768   */\n    tag_62:\n        /* \"#utility.yul\":6716:6761   */\n      tag_140\n        /* \"#utility.yul\":6736:6760   */\n      tag_141\n        /* \"#utility.yul\":6754:6759   */\n      dup3\n        /* \"#utility.yul\":6736:6760   */\n      tag_44\n      jump\t// in\n    tag_141:\n        /* \"#utility.yul\":6716:6761   */\n      tag_61\n      jump\t// in\n    tag_140:\n        /* \"#utility.yul\":6711:6714   */\n      dup3\n        /* \"#utility.yul\":6704:6762   */\n      mstore\n        /* \"#utility.yul\":6611:6768   */\n      pop\n      pop\n      jump\t// out\n        /* \"#utility.yul\":6774:6851   */\n    tag_63:\n        /* \"#utility.yul\":6811:6818   */\n      0x00\n        /* \"#utility.yul\":6840:6845   */\n      dup2\n        /* \"#utility.yul\":6829:6845   */\n      swap1\n      pop\n        /* \"#utility.yul\":6774:6851   */\n      swap2\n      swap1\n      pop\n      jump\t// out\n        /* \"#utility.yul\":6857:6936   */\n    tag_64:\n        /* \"#utility.yul\":6896:6903   */\n      0x00\n        /* \"#utility.yul\":6925:6930   */\n      dup2\n        /* \"#utility.yul\":6914:6930   */\n      swap1\n      pop\n        /* \"#utility.yul\":6857:6936   */\n      swap2\n      swap1\n      pop\n      jump\t// out\n        /* \"#utility.yul\":6942:7099   */\n    tag_65:\n        /* \"#utility.yul\":7047:7092   */\n      tag_145\n        /* \"#utility.yul\":7067:7091   */\n      tag_146\n        /* \"#utility.yul\":7085:7090   */\n      dup3\n        /* \"#utility.yul\":7067:7091   */\n      tag_63\n      jump\t// in\n    tag_146:\n        /* \"#utility.yul\":7047:7092   */\n      tag_64\n      jump\t// in\n    tag_145:\n        /* \"#utility.yul\":7042:7045   */\n      dup3\n        /* \"#utility.yul\":7035:7093   */\n      mstore\n        /* \"#utility.yul\":6942:7099   */\n      pop\n      pop\n      jump\t// out\n        /* \"#utility.yul\":7105:7199   */\n    tag_66:\n        /* \"#utility.yul\":7138:7146   */\n      0x00\n        /* \"#utility.yul\":7186:7191   */\n      dup2\n        /* \"#utility.yul\":7182:7184   */\n      0x60\n        /* \"#utility.yul\":7178:7192   */\n      shl\n        /* \"#utility.yul\":7157:7192   */\n      swap1\n      pop\n        /* \"#utility.yul\":7105:7199   */\n      swap2\n      swap1\n      pop\n      jump\t// out\n        /* \"#utility.yul\":7205:7299   */\n    tag_67:\n        /* \"#utility.yul\":7244:7251   */\n      0x00\n        /* \"#utility.yul\":7273:7293   */\n      tag_149\n        /* \"#utility.yul\":7287:7292   */\n      dup3\n        /* \"#utility.yul\":7273:7293   */\n      tag_66\n      jump\t// in\n    tag_149:\n        /* \"#utility.yul\":7262:7293   */\n      swap1\n      pop\n        /* \"#utility.yul\":7205:7299   */\n      swap2\n      swap1\n      pop\n      jump\t// out\n        /* \"#utility.yul\":7305:7405   */\n    tag_68:\n        /* \"#utility.yul\":7344:7351   */\n      0x00\n        /* \"#utility.yul\":7373:7399   */\n      tag_151\n        /* \"#utility.yul\":7393:7398   */\n      dup3\n        /* \"#utility.yul\":7373:7399   */\n      tag_67\n      jump\t// in\n    tag_151:\n        /* \"#utility.yul\":7362:7399   */\n      swap1\n      pop\n        /* \"#utility.yul\":7305:7405   */\n      swap2\n      swap1\n      pop\n      jump\t// out\n        /* \"#utility.yul\":7411:7568   */\n    tag_69:\n        /* \"#utility.yul\":7516:7561   */\n      tag_153\n        /* \"#utility.yul\":7536:7560   */\n      tag_154\n        /* \"#utility.yul\":7554:7559   */\n      dup3\n        /* \"#utility.yul\":7536:7560   */\n      tag_53\n      jump\t// in\n    tag_154:\n        /* \"#utility.yul\":7516:7561   */\n      tag_68\n      jump\t// in\n    tag_153:\n        /* \"#utility.yul\":7511:7514   */\n      dup3\n        /* \"#utility.yul\":7504:7562   */\n      mstore\n        /* \"#utility.yul\":7411:7568   */\n      pop\n      pop\n      jump\t// out\n        /* \"#utility.yul\":7574:8817   */\n    tag_20:\n        /* \"#utility.yul\":7882:7885   */\n      0x00\n        /* \"#utility.yul\":7897:7972   */\n      tag_156\n        /* \"#utility.yul\":7968:7971   */\n      dup3\n        /* \"#utility.yul\":7959:7965   */\n      dup12\n        /* \"#utility.yul\":7897:7972   */\n      tag_62\n      jump\t// in\n    tag_156:\n        /* \"#utility.yul\":7997:7999   */\n      0x20\n        /* \"#utility.yul\":7992:7995   */\n      dup3\n        /* \"#utility.yul\":7988:8000   */\n      add\n        /* \"#utility.yul\":7981:8000   */\n      swap2\n      pop\n        /* \"#utility.yul\":8010:8085   */\n      tag_157\n        /* \"#utility.yul\":8081:8084   */\n      dup3\n        /* \"#utility.yul\":8072:8078   */\n      dup11\n        /* \"#utility.yul\":8010:8085   */\n      tag_62\n      jump\t// in\n    tag_157:\n        /* \"#utility.yul\":8110:8112   */\n      0x20\n        /* \"#utility.yul\":8105:8108   */\n      dup3\n        /* \"#utility.yul\":8101:8113   */\n      add\n        /* \"#utility.yul\":8094:8113   */\n      swap2\n      pop\n        /* \"#utility.yul\":8123:8198   */\n      tag_158\n        /* \"#utility.yul\":8194:8197   */\n      dup3\n        /* \"#utility.yul\":8185:8191   */\n      dup10\n        /* \"#utility.yul\":8123:8198   */\n      tag_65\n      jump\t// in\n    tag_158:\n        /* \"#utility.yul\":8223:8225   */\n      0x20\n        /* \"#utility.yul\":8218:8221   */\n      dup3\n        /* \"#utility.yul\":8214:8226   */\n      add\n        /* \"#utility.yul\":8207:8226   */\n      swap2\n      pop\n        /* \"#utility.yul\":8236:8311   */\n      tag_159\n        /* \"#utility.yul\":8307:8310   */\n      dup3\n        /* \"#utility.yul\":8298:8304   */\n      dup9\n        /* \"#utility.yul\":8236:8311   */\n      tag_69\n      jump\t// in\n    tag_159:\n        /* \"#utility.yul\":8336:8338   */\n      0x14\n        /* \"#utility.yul\":8331:8334   */\n      dup3\n        /* \"#utility.yul\":8327:8339   */\n      add\n        /* \"#utility.yul\":8320:8339   */\n      swap2\n      pop\n        /* \"#utility.yul\":8349:8424   */\n      tag_160\n        /* \"#utility.yul\":8420:8423   */\n      dup3\n        /* \"#utility.yul\":8411:8417   */\n      dup8\n        /* \"#utility.yul\":8349:8424   */\n      tag_62\n      jump\t// in\n    tag_160:\n        /* \"#utility.yul\":8449:8451   */\n      0x20\n        /* \"#utility.yul\":8444:8447   */\n      dup3\n        /* \"#utility.yul\":8440:8452   */\n      add\n        /* \"#utility.yul\":8433:8452   */\n      swap2\n      pop\n        /* \"#utility.yul\":8462:8537   */\n      tag_161\n        /* \"#utility.yul\":8533:8536   */\n      dup3\n        /* \"#utility.yul\":8524:8530   */\n      dup7\n        /* \"#utility.yul\":8462:8537   */\n      tag_62\n      jump\t// in\n    tag_161:\n        /* \"#utility.yul\":8562:8564   */\n      0x20\n        /* \"#utility.yul\":8557:8560   */\n      dup3\n        /* \"#utility.yul\":8553:8565   */\n      add\n        /* \"#utility.yul\":8546:8565   */\n      swap2\n      pop\n        /* \"#utility.yul\":8575:8650   */\n      tag_162\n        /* \"#utility.yul\":8646:8649   */\n      dup3\n        /* \"#utility.yul\":8637:8643   */\n      dup6\n        /* \"#utility.yul\":8575:8650   */\n      tag_62\n      jump\t// in\n    tag_162:\n        /* \"#utility.yul\":8675:8677   */\n      0x20\n        /* \"#utility.yul\":8670:8673   */\n      dup3\n        /* \"#utility.yul\":8666:8678   */\n      add\n        /* \"#utility.yul\":8659:8678   */\n      swap2\n      pop\n        /* \"#utility.yul\":8688:8763   */\n      tag_163\n        /* \"#utility.yul\":8759:8762   */\n      dup3\n        /* \"#utility.yul\":8750:8756   */\n      dup5\n        /* \"#utility.yul\":8688:8763   */\n      tag_62\n      jump\t// in\n    tag_163:\n        /* \"#utility.yul\":8788:8790   */\n      0x20\n        /* \"#utility.yul\":8783:8786   */\n      dup3\n        /* \"#utility.yul\":8779:8791   */\n      add\n        /* \"#utility.yul\":8772:8791   */\n      swap2\n      pop\n        /* \"#utility.yul\":8808:8811   */\n      dup2\n        /* \"#utility.yul\":8801:8811   */\n      swap1\n      pop\n        /* \"#utility.yul\":7574:8817   */\n      swap10\n      swap9\n      pop\n      pop\n      pop\n      pop\n      pop\n      pop\n      pop\n      pop\n      pop\n      jump\t// out\n        /* \"#utility.yul\":8823:9784   */\n    tag_23:\n        /* \"#utility.yul\":9075:9078   */\n      0x00\n        /* \"#utility.yul\":9090:9165   */\n      tag_165\n        /* \"#utility.yul\":9161:9164   */\n      dup3\n        /* \"#utility.yul\":9152:9158   */\n      dup10\n        /* \"#utility.yul\":9090:9165   */\n      tag_62\n      jump\t// in\n    tag_165:\n        /* \"#utility.yul\":9190:9192   */\n      0x20\n        /* \"#utility.yul\":9185:9188   */\n      dup3\n        /* \"#utility.yul\":9181:9193   */\n      add\n        /* \"#utility.yul\":9174:9193   */\n      swap2\n      pop\n        /* \"#utility.yul\":9203:9278   */\n      tag_166\n        /* \"#utility.yul\":9274:9277   */\n      dup3\n        /* \"#utility.yul\":9265:9271   */\n      dup9\n        /* \"#utility.yul\":9203:9278   */\n      tag_62\n      jump\t// in\n    tag_166:\n        /* \"#utility.yul\":9303:9305   */\n      0x20\n        /* \"#utility.yul\":9298:9301   */\n      dup3\n        /* \"#utility.yul\":9294:9306   */\n      add\n        /* \"#utility.yul\":9287:9306   */\n      swap2\n      pop\n        /* \"#utility.yul\":9316:9391   */\n      tag_167\n        /* \"#utility.yul\":9387:9390   */\n      dup3\n        /* \"#utility.yul\":9378:9384   */\n      dup8\n        /* \"#utility.yul\":9316:9391   */\n      tag_65\n      jump\t// in\n    tag_167:\n        /* \"#utility.yul\":9416:9418   */\n      0x20\n        /* \"#utility.yul\":9411:9414   */\n      dup3\n        /* \"#utility.yul\":9407:9419   */\n      add\n        /* \"#utility.yul\":9400:9419   */\n      swap2\n      pop\n        /* \"#utility.yul\":9429:9504   */\n      tag_168\n        /* \"#utility.yul\":9500:9503   */\n      dup3\n        /* \"#utility.yul\":9491:9497   */\n      dup7\n        /* \"#utility.yul\":9429:9504   */\n      tag_69\n      jump\t// in\n    tag_168:\n        /* \"#utility.yul\":9529:9531   */\n      0x14\n        /* \"#utility.yul\":9524:9527   */\n      dup3\n        /* \"#utility.yul\":9520:9532   */\n      add\n        /* \"#utility.yul\":9513:9532   */\n      swap2\n      pop\n        /* \"#utility.yul\":9542:9617   */\n      tag_169\n        /* \"#utility.yul\":9613:9616   */\n      dup3\n        /* \"#utility.yul\":9604:9610   */\n      dup6\n        /* \"#utility.yul\":9542:9617   */\n      tag_62\n      jump\t// in\n    tag_169:\n        /* \"#utility.yul\":9642:9644   */\n      0x20\n        /* \"#utility.yul\":9637:9640   */\n      dup3\n        /* \"#utility.yul\":9633:9645   */\n      add\n        /* \"#utility.yul\":9626:9645   */\n      swap2\n      pop\n        /* \"#utility.yul\":9655:9730   */\n      tag_170\n        /* \"#utility.yul\":9726:9729   */\n      dup3\n        /* \"#utility.yul\":9717:9723   */\n      dup5\n        /* \"#utility.yul\":9655:9730   */\n      tag_62\n      jump\t// in\n    tag_170:\n        /* \"#utility.yul\":9755:9757   */\n      0x20\n        /* \"#utility.yul\":9750:9753   */\n      dup3\n        /* \"#utility.yul\":9746:9758   */\n      add\n        /* \"#utility.yul\":9739:9758   */\n      swap2\n      pop\n        /* \"#utility.yul\":9775:9778   */\n      dup2\n        /* \"#utility.yul\":9768:9778   */\n      swap1\n      pop\n        /* \"#utility.yul\":8823:9784   */\n      swap8\n      swap7\n      pop\n      pop\n      pop\n      pop\n      pop\n      pop\n      pop\n      jump\t// out\n        /* \"#utility.yul\":9790:9970   */\n    tag_70:\n        /* \"#utility.yul\":9838:9915   */\n      0x4e487b7100000000000000000000000000000000000000000000000000000000\n        /* \"#utility.yul\":9835:9836   */\n      0x00\n        /* \"#utility.yul\":9828:9916   */\n      mstore\n        /* \"#utility.yul\":9935:9939   */\n      0x12\n        /* \"#utility.yul\":9932:9933   */\n      0x04\n        /* \"#utility.yul\":9925:9940   */\n      mstore\n        /* \"#utility.yul\":9959:9963   */\n      0x24\n        /* \"#utility.yul\":9956:9957   */\n      0x00\n        /* \"#utility.yul\":9949:9964   */\n      revert\n        /* \"#utility.yul\":9976:10152   */\n    tag_25:\n        /* \"#utility.yul\":10008:10009   */\n      0x00\n        /* \"#utility.yul\":10025:10045   */\n      tag_173\n        /* \"#utility.yul\":10043:10044   */\n      dup3\n        /* \"#utility.yul\":10025:10045   */\n      tag_44\n      jump\t// in\n    tag_173:\n        /* \"#utility.yul\":10020:10045   */\n      swap2\n      pop\n        /* \"#utility.yul\":10059:10079   */\n      tag_174\n        /* \"#utility.yul\":10077:10078   */\n      dup4\n        /* \"#utility.yul\":10059:10079   */\n      tag_44\n      jump\t// in\n    tag_174:\n        /* \"#utility.yul\":10054:10079   */\n      swap3\n      pop\n        /* \"#utility.yul\":10098:10099   */\n      dup3\n        /* \"#utility.yul\":10088:10123   */\n      tag_175\n      jumpi\n        /* \"#utility.yul\":10103:10121   */\n      tag_176\n      tag_70\n      jump\t// in\n    tag_176:\n        /* \"#utility.yul\":10088:10123   */\n    tag_175:\n        /* \"#utility.yul\":10144:10145   */\n      dup3\n        /* \"#utility.yul\":10141:10142   */\n      dup3\n        /* \"#utility.yul\":10137:10146   */\n      mod\n        /* \"#utility.yul\":10132:10146   */\n      swap1\n      pop\n        /* \"#utility.yul\":9976:10152   */\n      swap3\n      swap2\n      pop\n      pop\n      jump\t// out\n        /* \"#utility.yul\":10158:10338   */\n    tag_31:\n        /* \"#utility.yul\":10206:10283   */\n      0x4e487b7100000000000000000000000000000000000000000000000000000000\n        /* \"#utility.yul\":10203:10204   */\n      0x00\n        /* \"#utility.yul\":10196:10284   */\n      mstore\n        /* \"#utility.yul\":10303:10307   */\n      0x32\n        /* \"#utility.yul\":10300:10301   */\n      0x04\n        /* \"#utility.yul\":10293:10308   */\n      mstore\n        /* \"#utility.yul\":10327:10331   */\n      0x24\n        /* \"#utility.yul\":10324:10325   */\n      0x00\n        /* \"#utility.yul\":10317:10332   */\n      revert\n        /* \"#utility.yul\":10344:10535   */\n    tag_33:\n        /* \"#utility.yul\":10384:10387   */\n      0x00\n        /* \"#utility.yul\":10403:10423   */\n      tag_179\n        /* \"#utility.yul\":10421:10422   */\n      dup3\n        /* \"#utility.yul\":10403:10423   */\n      tag_44\n      jump\t// in\n    tag_179:\n        /* \"#utility.yul\":10398:10423   */\n      swap2\n      pop\n        /* \"#utility.yul\":10437:10457   */\n      tag_180\n        /* \"#utility.yul\":10455:10456   */\n      dup4\n        /* \"#utility.yul\":10437:10457   */\n      tag_44\n      jump\t// in\n    tag_180:\n        /* \"#utility.yul\":10432:10457   */\n      swap3\n      pop\n        /* \"#utility.yul\":10480:10481   */\n      dup3\n        /* \"#utility.yul\":10477:10478   */\n      dup3\n        /* \"#utility.yul\":10473:10482   */\n      add\n        /* \"#utility.yul\":10466:10482   */\n      swap1\n      pop\n        /* \"#utility.yul\":10501:10504   */\n      dup1\n        /* \"#utility.yul\":10498:10499   */\n      dup3\n        /* \"#utility.yul\":10495:10505   */\n      gt\n        /* \"#utility.yul\":10492:10528   */\n      iszero\n      tag_181\n      jumpi\n        /* \"#utility.yul\":10508:10526   */\n      tag_182\n      tag_60\n      jump\t// in\n    tag_182:\n        /* \"#utility.yul\":10492:10528   */\n    tag_181:\n        /* \"#utility.yul\":10344:10535   */\n      swap3\n      swap2\n      pop\n      pop\n      jump\t// out\n        /* \"#utility.yul\":10541:10663   */\n    tag_71:\n        /* \"#utility.yul\":10614:10638   */\n      tag_184\n        /* \"#utility.yul\":10632:10637   */\n      dup2\n        /* \"#utility.yul\":10614:10638   */\n      tag_53\n      jump\t// in\n    tag_184:\n        /* \"#utility.yul\":10607:10612   */\n      dup2\n        /* \"#utility.yul\":10604:10639   */\n      eq\n        /* \"#utility.yul\":10594:10657   */\n      tag_185\n      jumpi\n        /* \"#utility.yul\":10653:10654   */\n      0x00\n        /* \"#utility.yul\":10650:10651   */\n      0x00\n        /* \"#utility.yul\":10643:10655   */\n      revert\n        /* \"#utility.yul\":10594:10657   */\n    tag_185:\n        /* \"#utility.yul\":10541:10663   */\n      pop\n      jump\t// out\n        /* \"#utility.yul\":10669:10808   */\n    tag_72:\n        /* \"#utility.yul\":10715:10720   */\n      0x00\n        /* \"#utility.yul\":10753:10759   */\n      dup2\n        /* \"#utility.yul\":10740:10760   */\n      calldataload\n        /* \"#utility.yul\":10731:10760   */\n      swap1\n      pop\n        /* \"#utility.yul\":10769:10802   */\n      tag_187\n        /* \"#utility.yul\":10796:10801   */\n      dup2\n        /* \"#utility.yul\":10769:10802   */\n      tag_71\n      jump\t// in\n    tag_187:\n        /* \"#utility.yul\":10669:10808   */\n      swap3\n      swap2\n      pop\n      pop\n      jump\t// out\n        /* \"#utility.yul\":10814:11143   */\n    tag_38:\n        /* \"#utility.yul\":10873:10879   */\n      0x00\n        /* \"#utility.yul\":10922:10924   */\n      0x20\n        /* \"#utility.yul\":10910:10919   */\n      dup3\n        /* \"#utility.yul\":10901:10908   */\n      dup5\n        /* \"#utility.yul\":10897:10920   */\n      sub\n        /* \"#utility.yul\":10893:10925   */\n      slt\n        /* \"#utility.yul\":10890:11009   */\n      iszero\n      tag_189\n      jumpi\n        /* \"#utility.yul\":10928:11007   */\n      tag_190\n      tag_42\n      jump\t// in\n    tag_190:\n        /* \"#utility.yul\":10890:11009   */\n    tag_189:\n        /* \"#utility.yul\":11048:11049   */\n      0x00\n        /* \"#utility.yul\":11073:11126   */\n      tag_191\n        /* \"#utility.yul\":11118:11125   */\n      dup5\n        /* \"#utility.yul\":11109:11115   */\n      dup3\n        /* \"#utility.yul\":11098:11107   */\n      dup6\n        /* \"#utility.yul\":11094:11116   */\n      add\n        /* \"#utility.yul\":11073:11126   */\n      tag_72\n      jump\t// in\n    tag_191:\n        /* \"#utility.yul\":11063:11126   */\n      swap2\n      pop\n        /* \"#utility.yul\":11019:11136   */\n      pop\n        /* \"#utility.yul\":10814:11143   */\n      swap3\n      swap2\n      pop\n      pop\n      jump\t// out\n        /* \"#utility.yul\":11149:11329   */\n    tag_73:\n        /* \"#utility.yul\":11289:11321   */\n      0x57696e6e657220636f756c64206e6f742062652064657465726d696e65640000\n        /* \"#utility.yul\":11285:11286   */\n      0x00\n        /* \"#utility.yul\":11277:11283   */\n      dup3\n        /* \"#utility.yul\":11273:11287   */\n      add\n        /* \"#utility.yul\":11266:11322   */\n      mstore\n        /* \"#utility.yul\":11149:11329   */\n      pop\n      jump\t// out\n        /* \"#utility.yul\":11335:11701   */\n    tag_74:\n        /* \"#utility.yul\":11477:11480   */\n      0x00\n        /* \"#utility.yul\":11498:11565   */\n      tag_194\n        /* \"#utility.yul\":11562:11564   */\n      0x1e\n        /* \"#utility.yul\":11557:11560   */\n      dup4\n        /* \"#utility.yul\":11498:11565   */\n      tag_55\n      jump\t// in\n    tag_194:\n        /* \"#utility.yul\":11491:11565   */\n      swap2\n      pop\n        /* \"#utility.yul\":11574:11667   */\n      tag_195\n        /* \"#utility.yul\":11663:11666   */\n      dup3\n        /* \"#utility.yul\":11574:11667   */\n      tag_73\n      jump\t// in\n    tag_195:\n        /* \"#utility.yul\":11692:11694   */\n      0x20\n        /* \"#utility.yul\":11687:11690   */\n      dup3\n        /* \"#utility.yul\":11683:11695   */\n      add\n        /* \"#utility.yul\":11676:11695   */\n      swap1\n      pop\n        /* \"#utility.yul\":11335:11701   */\n      swap2\n      swap1\n      pop\n      jump\t// out\n        /* \"#utility.yul\":11707:12126   */\n    tag_40:\n        /* \"#utility.yul\":11873:11877   */\n      0x00\n        /* \"#utility.yul\":11911:11913   */\n      0x20\n        /* \"#utility.yul\":11900:11909   */\n      dup3\n        /* \"#utility.yul\":11896:11914   */\n      add\n        /* \"#utility.yul\":11888:11914   */\n      swap1\n      pop\n        /* \"#utility.yul\":11960:11969   */\n      dup2\n        /* \"#utility.yul\":11954:11958   */\n      dup2\n        /* \"#utility.yul\":11950:11970   */\n      sub\n        /* \"#utility.yul\":11946:11947   */\n      0x00\n        /* \"#utility.yul\":11935:11944   */\n      dup4\n        /* \"#utility.yul\":11931:11948   */\n      add\n        /* \"#utility.yul\":11924:11971   */\n      mstore\n        /* \"#utility.yul\":11988:12119   */\n      tag_197\n        /* \"#utility.yul\":12114:12118   */\n      dup2\n        /* \"#utility.yul\":11988:12119   */\n      tag_74\n      jump\t// in\n    tag_197:\n        /* \"#utility.yul\":11980:12119   */\n      swap1\n      pop\n        /* \"#utility.yul\":11707:12126   */\n      swap2\n      swap1\n      pop\n      jump\t// out\n\n    auxdata: 0xa26469706673582212203367acaa7570510743765240fe50625f7324429ee63c3374259c6e32b180a15d64736f6c634300081c0033\n}\n",
				"bytecode": {
					"linkReferences": {},
					"object": "6080604052348015600e575f5ffd5b506108ee8061001c5f395ff3fe608060405234801561000f575f5ffd5b5060043610610029575f3560e01c8063971a22c51461002d575b5f5ffd5b6100476004803603810190610042919061033b565b61005d565b604051610054919061040b565b60405180910390f35b5f8282905085859050146100a6576040517f08c379a000000000000000000000000000000000000000000000000000000000815260040161009d906104a4565b60405180910390fd5b5f86116100e8576040517f08c379a00000000000000000000000000000000000000000000000000000000081526004016100df90610532565b60405180910390fd5b5f42436001436100f8919061057d565b4033475a3a8d60405160200161011598979695949392919061063e565b604051602081830303815290604052805190602001205f1c90505f424360014361013f919061057d565b40334786604051602001610158969594939291906106cf565b604051602081830303815290604052805190602001205f1c90505f5f90505f8983610183919061076b565b90505f5f90505b87879050811015610205578787828181106101a8576101a761079b565b5b90506020020135836101ba91906107c8565b9250828210156101f8578989828181106101d7576101d661079b565b5b90506020020160208101906101ec9190610825565b95505050505050610241565b808060010191505061018a565b506040517f08c379a00000000000000000000000000000000000000000000000000000000081526004016102389061089a565b60405180910390fd5b95945050505050565b5f5ffd5b5f5ffd5b5f819050919050565b61026481610252565b811461026e575f5ffd5b50565b5f8135905061027f8161025b565b92915050565b5f5ffd5b5f5ffd5b5f5ffd5b5f5f83601f8401126102a6576102a5610285565b5b8235905067ffffffffffffffff8111156102c3576102c2610289565b5b6020830191508360208202830111156102df576102de61028d565b5b9250929050565b5f5f83601f8401126102fb576102fa610285565b5b8235905067ffffffffffffffff81111561031857610317610289565b5b6020830191508360208202830111156103345761033361028d565b5b9250929050565b5f5f5f5f5f606086880312156103545761035361024a565b5b5f61036188828901610271565b955050602086013567ffffffffffffffff8111156103825761038161024e565b5b61038e88828901610291565b9450945050604086013567ffffffffffffffff8111156103b1576103b061024e565b5b6103bd888289016102e6565b92509250509295509295909350565b5f73ffffffffffffffffffffffffffffffffffffffff82169050919050565b5f6103f5826103cc565b9050919050565b610405816103eb565b82525050565b5f60208201905061041e5f8301846103fc565b92915050565b5f82825260208201905092915050565b7f496e70757420617272617973206d7573742068617665207468652073616d65205f8201527f6c656e6774680000000000000000000000000000000000000000000000000000602082015250565b5f61048e602683610424565b915061049982610434565b604082019050919050565b5f6020820190508181035f8301526104bb81610482565b9050919050565b7f546f74616c20737570706c79206d7573742062652067726561746572207468615f8201527f6e20300000000000000000000000000000000000000000000000000000000000602082015250565b5f61051c602383610424565b9150610527826104c2565b604082019050919050565b5f6020820190508181035f83015261054981610510565b9050919050565b7f4e487b71000000000000000000000000000000000000000000000000000000005f52601160045260245ffd5b5f61058782610252565b915061059283610252565b92508282039050818111156105aa576105a9610550565b5b92915050565b5f819050919050565b6105ca6105c582610252565b6105b0565b82525050565b5f819050919050565b5f819050919050565b6105f36105ee826105d0565b6105d9565b82525050565b5f8160601b9050919050565b5f61060f826105f9565b9050919050565b5f61062082610605565b9050919050565b610638610633826103eb565b610616565b82525050565b5f610649828b6105b9565b602082019150610659828a6105b9565b60208201915061066982896105e2565b6020820191506106798288610627565b60148201915061068982876105b9565b60208201915061069982866105b9565b6020820191506106a982856105b9565b6020820191506106b982846105b9565b6020820191508190509998505050505050505050565b5f6106da82896105b9565b6020820191506106ea82886105b9565b6020820191506106fa82876105e2565b60208201915061070a8286610627565b60148201915061071a82856105b9565b60208201915061072a82846105b9565b602082019150819050979650505050505050565b7f4e487b71000000000000000000000000000000000000000000000000000000005f52601260045260245ffd5b5f61077582610252565b915061078083610252565b9250826107905761078f61073e565b5b828206905092915050565b7f4e487b71000000000000000000000000000000000000000000000000000000005f52603260045260245ffd5b5f6107d282610252565b91506107dd83610252565b92508282019050808211156107f5576107f4610550565b5b92915050565b610804816103eb565b811461080e575f5ffd5b50565b5f8135905061081f816107fb565b92915050565b5f6020828403121561083a5761083961024a565b5b5f61084784828501610811565b91505092915050565b7f57696e6e657220636f756c64206e6f742062652064657465726d696e656400005f82015250565b5f610884601e83610424565b915061088f82610850565b602082019050919050565b5f6020820190508181035f8301526108b181610878565b905091905056fea26469706673582212203367acaa7570510743765240fe50625f7324429ee63c3374259c6e32b180a15d64736f6c634300081c0033",
					"opcodes": "PUSH1 0x80 PUSH1 0x40 MSTORE CALLVALUE DUP1 ISZERO PUSH1 0xE JUMPI PUSH0 PUSH0 REVERT JUMPDEST POP PUSH2 0x8EE DUP1 PUSH2 0x1C PUSH0 CODECOPY PUSH0 RETURN INVALID PUSH1 0x80 PUSH1 0x40 MSTORE CALLVALUE DUP1 ISZERO PUSH2 0xF JUMPI PUSH0 PUSH0 REVERT JUMPDEST POP PUSH1 0x4 CALLDATASIZE LT PUSH2 0x29 JUMPI PUSH0 CALLDATALOAD PUSH1 0xE0 SHR DUP1 PUSH4 0x971A22C5 EQ PUSH2 0x2D JUMPI JUMPDEST PUSH0 PUSH0 REVERT JUMPDEST PUSH2 0x47 PUSH1 0x4 DUP1 CALLDATASIZE SUB DUP2 ADD SWAP1 PUSH2 0x42 SWAP2 SWAP1 PUSH2 0x33B JUMP JUMPDEST PUSH2 0x5D JUMP JUMPDEST PUSH1 0x40 MLOAD PUSH2 0x54 SWAP2 SWAP1 PUSH2 0x40B JUMP JUMPDEST PUSH1 0x40 MLOAD DUP1 SWAP2 SUB SWAP1 RETURN JUMPDEST PUSH0 DUP3 DUP3 SWAP1 POP DUP6 DUP6 SWAP1 POP EQ PUSH2 0xA6 JUMPI PUSH1 0x40 MLOAD PUSH32 0x8C379A000000000000000000000000000000000000000000000000000000000 DUP2 MSTORE PUSH1 0x4 ADD PUSH2 0x9D SWAP1 PUSH2 0x4A4 JUMP JUMPDEST PUSH1 0x40 MLOAD DUP1 SWAP2 SUB SWAP1 REVERT JUMPDEST PUSH0 DUP7 GT PUSH2 0xE8 JUMPI PUSH1 0x40 MLOAD PUSH32 0x8C379A000000000000000000000000000000000000000000000000000000000 DUP2 MSTORE PUSH1 0x4 ADD PUSH2 0xDF SWAP1 PUSH2 0x532 JUMP JUMPDEST PUSH1 0x40 MLOAD DUP1 SWAP2 SUB SWAP1 REVERT JUMPDEST PUSH0 TIMESTAMP NUMBER PUSH1 0x1 NUMBER PUSH2 0xF8 SWAP2 SWAP1 PUSH2 0x57D JUMP JUMPDEST BLOCKHASH CALLER SELFBALANCE GAS GASPRICE DUP14 PUSH1 0x40 MLOAD PUSH1 0x20 ADD PUSH2 0x115 SWAP9 SWAP8 SWAP7 SWAP6 SWAP5 SWAP4 SWAP3 SWAP2 SWAP1 PUSH2 0x63E JUMP JUMPDEST PUSH1 0x40 MLOAD PUSH1 0x20 DUP2 DUP4 SUB SUB DUP2 MSTORE SWAP1 PUSH1 0x40 MSTORE DUP1 MLOAD SWAP1 PUSH1 0x20 ADD KECCAK256 PUSH0 SHR SWAP1 POP PUSH0 TIMESTAMP NUMBER PUSH1 0x1 NUMBER PUSH2 0x13F SWAP2 SWAP1 PUSH2 0x57D JUMP JUMPDEST BLOCKHASH CALLER SELFBALANCE DUP7 PUSH1 0x40 MLOAD PUSH1 0x20 ADD PUSH2 0x158 SWAP7 SWAP6 SWAP5 SWAP4 SWAP3 SWAP2 SWAP1 PUSH2 0x6CF JUMP JUMPDEST PUSH1 0x40 MLOAD PUSH1 0x20 DUP2 DUP4 SUB SUB DUP2 MSTORE SWAP1 PUSH1 0x40 MSTORE DUP1 MLOAD SWAP1 PUSH1 0x20 ADD KECCAK256 PUSH0 SHR SWAP1 POP PUSH0 PUSH0 SWAP1 POP PUSH0 DUP10 DUP4 PUSH2 0x183 SWAP2 SWAP1 PUSH2 0x76B JUMP JUMPDEST SWAP1 POP PUSH0 PUSH0 SWAP1 POP JUMPDEST DUP8 DUP8 SWAP1 POP DUP2 LT ISZERO PUSH2 0x205 JUMPI DUP8 DUP8 DUP3 DUP2 DUP2 LT PUSH2 0x1A8 JUMPI PUSH2 0x1A7 PUSH2 0x79B JUMP JUMPDEST JUMPDEST SWAP1 POP PUSH1 0x20 MUL ADD CALLDATALOAD DUP4 PUSH2 0x1BA SWAP2 SWAP1 PUSH2 0x7C8 JUMP JUMPDEST SWAP3 POP DUP3 DUP3 LT ISZERO PUSH2 0x1F8 JUMPI DUP10 DUP10 DUP3 DUP2 DUP2 LT PUSH2 0x1D7 JUMPI PUSH2 0x1D6 PUSH2 0x79B JUMP JUMPDEST JUMPDEST SWAP1 POP PUSH1 0x20 MUL ADD PUSH1 0x20 DUP2 ADD SWAP1 PUSH2 0x1EC SWAP2 SWAP1 PUSH2 0x825 JUMP JUMPDEST SWAP6 POP POP POP POP POP POP PUSH2 0x241 JUMP JUMPDEST DUP1 DUP1 PUSH1 0x1 ADD SWAP2 POP POP PUSH2 0x18A JUMP JUMPDEST POP PUSH1 0x40 MLOAD PUSH32 0x8C379A000000000000000000000000000000000000000000000000000000000 DUP2 MSTORE PUSH1 0x4 ADD PUSH2 0x238 SWAP1 PUSH2 0x89A JUMP JUMPDEST PUSH1 0x40 MLOAD DUP1 SWAP2 SUB SWAP1 REVERT JUMPDEST SWAP6 SWAP5 POP POP POP POP POP JUMP JUMPDEST PUSH0 PUSH0 REVERT JUMPDEST PUSH0 PUSH0 REVERT JUMPDEST PUSH0 DUP2 SWAP1 POP SWAP2 SWAP1 POP JUMP JUMPDEST PUSH2 0x264 DUP2 PUSH2 0x252 JUMP JUMPDEST DUP2 EQ PUSH2 0x26E JUMPI PUSH0 PUSH0 REVERT JUMPDEST POP JUMP JUMPDEST PUSH0 DUP2 CALLDATALOAD SWAP1 POP PUSH2 0x27F DUP2 PUSH2 0x25B JUMP JUMPDEST SWAP3 SWAP2 POP POP JUMP JUMPDEST PUSH0 PUSH0 REVERT JUMPDEST PUSH0 PUSH0 REVERT JUMPDEST PUSH0 PUSH0 REVERT JUMPDEST PUSH0 PUSH0 DUP4 PUSH1 0x1F DUP5 ADD SLT PUSH2 0x2A6 JUMPI PUSH2 0x2A5 PUSH2 0x285 JUMP JUMPDEST JUMPDEST DUP3 CALLDATALOAD SWAP1 POP PUSH8 0xFFFFFFFFFFFFFFFF DUP2 GT ISZERO PUSH2 0x2C3 JUMPI PUSH2 0x2C2 PUSH2 0x289 JUMP JUMPDEST JUMPDEST PUSH1 0x20 DUP4 ADD SWAP2 POP DUP4 PUSH1 0x20 DUP3 MUL DUP4 ADD GT ISZERO PUSH2 0x2DF JUMPI PUSH2 0x2DE PUSH2 0x28D JUMP JUMPDEST JUMPDEST SWAP3 POP SWAP3 SWAP1 POP JUMP JUMPDEST PUSH0 PUSH0 DUP4 PUSH1 0x1F DUP5 ADD SLT PUSH2 0x2FB JUMPI PUSH2 0x2FA PUSH2 0x285 JUMP JUMPDEST JUMPDEST DUP3 CALLDATALOAD SWAP1 POP PUSH8 0xFFFFFFFFFFFFFFFF DUP2 GT ISZERO PUSH2 0x318 JUMPI PUSH2 0x317 PUSH2 0x289 JUMP JUMPDEST JUMPDEST PUSH1 0x20 DUP4 ADD SWAP2 POP DUP4 PUSH1 0x20 DUP3 MUL DUP4 ADD GT ISZERO PUSH2 0x334 JUMPI PUSH2 0x333 PUSH2 0x28D JUMP JUMPDEST JUMPDEST SWAP3 POP SWAP3 SWAP1 POP JUMP JUMPDEST PUSH0 PUSH0 PUSH0 PUSH0 PUSH0 PUSH1 0x60 DUP7 DUP9 SUB SLT ISZERO PUSH2 0x354 JUMPI PUSH2 0x353 PUSH2 0x24A JUMP JUMPDEST JUMPDEST PUSH0 PUSH2 0x361 DUP9 DUP3 DUP10 ADD PUSH2 0x271 JUMP JUMPDEST SWAP6 POP POP PUSH1 0x20 DUP7 ADD CALLDATALOAD PUSH8 0xFFFFFFFFFFFFFFFF DUP2 GT ISZERO PUSH2 0x382 JUMPI PUSH2 0x381 PUSH2 0x24E JUMP JUMPDEST JUMPDEST PUSH2 0x38E DUP9 DUP3 DUP10 ADD PUSH2 0x291 JUMP JUMPDEST SWAP5 POP SWAP5 POP POP PUSH1 0x40 DUP7 ADD CALLDATALOAD PUSH8 0xFFFFFFFFFFFFFFFF DUP2 GT ISZERO PUSH2 0x3B1 JUMPI PUSH2 0x3B0 PUSH2 0x24E JUMP JUMPDEST JUMPDEST PUSH2 0x3BD DUP9 DUP3 DUP10 ADD PUSH2 0x2E6 JUMP JUMPDEST SWAP3 POP SWAP3 POP POP SWAP3 SWAP6 POP SWAP3 SWAP6 SWAP1 SWAP4 POP JUMP JUMPDEST PUSH0 PUSH20 0xFFFFFFFFFFFFFFFFFFFFFFFFFFFFFFFFFFFFFFFF DUP3 AND SWAP1 POP SWAP2 SWAP1 POP JUMP JUMPDEST PUSH0 PUSH2 0x3F5 DUP3 PUSH2 0x3CC JUMP JUMPDEST SWAP1 POP SWAP2 SWAP1 POP JUMP JUMPDEST PUSH2 0x405 DUP2 PUSH2 0x3EB JUMP JUMPDEST DUP3 MSTORE POP POP JUMP JUMPDEST PUSH0 PUSH1 0x20 DUP3 ADD SWAP1 POP PUSH2 0x41E PUSH0 DUP4 ADD DUP5 PUSH2 0x3FC JUMP JUMPDEST SWAP3 SWAP2 POP POP JUMP JUMPDEST PUSH0 DUP3 DUP3 MSTORE PUSH1 0x20 DUP3 ADD SWAP1 POP SWAP3 SWAP2 POP POP JUMP JUMPDEST PUSH32 0x496E70757420617272617973206D7573742068617665207468652073616D6520 PUSH0 DUP3 ADD MSTORE PUSH32 0x6C656E6774680000000000000000000000000000000000000000000000000000 PUSH1 0x20 DUP3 ADD MSTORE POP JUMP JUMPDEST PUSH0 PUSH2 0x48E PUSH1 0x26 DUP4 PUSH2 0x424 JUMP JUMPDEST SWAP2 POP PUSH2 0x499 DUP3 PUSH2 0x434 JUMP JUMPDEST PUSH1 0x40 DUP3 ADD SWAP1 POP SWAP2 SWAP1 POP JUMP JUMPDEST PUSH0 PUSH1 0x20 DUP3 ADD SWAP1 POP DUP2 DUP2 SUB PUSH0 DUP4 ADD MSTORE PUSH2 0x4BB DUP2 PUSH2 0x482 JUMP JUMPDEST SWAP1 POP SWAP2 SWAP1 POP JUMP JUMPDEST PUSH32 0x546F74616C20737570706C79206D757374206265206772656174657220746861 PUSH0 DUP3 ADD MSTORE PUSH32 0x6E20300000000000000000000000000000000000000000000000000000000000 PUSH1 0x20 DUP3 ADD MSTORE POP JUMP JUMPDEST PUSH0 PUSH2 0x51C PUSH1 0x23 DUP4 PUSH2 0x424 JUMP JUMPDEST SWAP2 POP PUSH2 0x527 DUP3 PUSH2 0x4C2 JUMP JUMPDEST PUSH1 0x40 DUP3 ADD SWAP1 POP SWAP2 SWAP1 POP JUMP JUMPDEST PUSH0 PUSH1 0x20 DUP3 ADD SWAP1 POP DUP2 DUP2 SUB PUSH0 DUP4 ADD MSTORE PUSH2 0x549 DUP2 PUSH2 0x510 JUMP JUMPDEST SWAP1 POP SWAP2 SWAP1 POP JUMP JUMPDEST PUSH32 0x4E487B7100000000000000000000000000000000000000000000000000000000 PUSH0 MSTORE PUSH1 0x11 PUSH1 0x4 MSTORE PUSH1 0x24 PUSH0 REVERT JUMPDEST PUSH0 PUSH2 0x587 DUP3 PUSH2 0x252 JUMP JUMPDEST SWAP2 POP PUSH2 0x592 DUP4 PUSH2 0x252 JUMP JUMPDEST SWAP3 POP DUP3 DUP3 SUB SWAP1 POP DUP2 DUP2 GT ISZERO PUSH2 0x5AA JUMPI PUSH2 0x5A9 PUSH2 0x550 JUMP JUMPDEST JUMPDEST SWAP3 SWAP2 POP POP JUMP JUMPDEST PUSH0 DUP2 SWAP1 POP SWAP2 SWAP1 POP JUMP JUMPDEST PUSH2 0x5CA PUSH2 0x5C5 DUP3 PUSH2 0x252 JUMP JUMPDEST PUSH2 0x5B0 JUMP JUMPDEST DUP3 MSTORE POP POP JUMP JUMPDEST PUSH0 DUP2 SWAP1 POP SWAP2 SWAP1 POP JUMP JUMPDEST PUSH0 DUP2 SWAP1 POP SWAP2 SWAP1 POP JUMP JUMPDEST PUSH2 0x5F3 PUSH2 0x5EE DUP3 PUSH2 0x5D0 JUMP JUMPDEST PUSH2 0x5D9 JUMP JUMPDEST DUP3 MSTORE POP POP JUMP JUMPDEST PUSH0 DUP2 PUSH1 0x60 SHL SWAP1 POP SWAP2 SWAP1 POP JUMP JUMPDEST PUSH0 PUSH2 0x60F DUP3 PUSH2 0x5F9 JUMP JUMPDEST SWAP1 POP SWAP2 SWAP1 POP JUMP JUMPDEST PUSH0 PUSH2 0x620 DUP3 PUSH2 0x605 JUMP JUMPDEST SWAP1 POP SWAP2 SWAP1 POP JUMP JUMPDEST PUSH2 0x638 PUSH2 0x633 DUP3 PUSH2 0x3EB JUMP JUMPDEST PUSH2 0x616 JUMP JUMPDEST DUP3 MSTORE POP POP JUMP JUMPDEST PUSH0 PUSH2 0x649 DUP3 DUP12 PUSH2 0x5B9 JUMP JUMPDEST PUSH1 0x20 DUP3 ADD SWAP2 POP PUSH2 0x659 DUP3 DUP11 PUSH2 0x5B9 JUMP JUMPDEST PUSH1 0x20 DUP3 ADD SWAP2 POP PUSH2 0x669 DUP3 DUP10 PUSH2 0x5E2 JUMP JUMPDEST PUSH1 0x20 DUP3 ADD SWAP2 POP PUSH2 0x679 DUP3 DUP9 PUSH2 0x627 JUMP JUMPDEST PUSH1 0x14 DUP3 ADD SWAP2 POP PUSH2 0x689 DUP3 DUP8 PUSH2 0x5B9 JUMP JUMPDEST PUSH1 0x20 DUP3 ADD SWAP2 POP PUSH2 0x699 DUP3 DUP7 PUSH2 0x5B9 JUMP JUMPDEST PUSH1 0x20 DUP3 ADD SWAP2 POP PUSH2 0x6A9 DUP3 DUP6 PUSH2 0x5B9 JUMP JUMPDEST PUSH1 0x20 DUP3 ADD SWAP2 POP PUSH2 0x6B9 DUP3 DUP5 PUSH2 0x5B9 JUMP JUMPDEST PUSH1 0x20 DUP3 ADD SWAP2 POP DUP2 SWAP1 POP SWAP10 SWAP9 POP POP POP POP POP POP POP POP POP JUMP JUMPDEST PUSH0 PUSH2 0x6DA DUP3 DUP10 PUSH2 0x5B9 JUMP JUMPDEST PUSH1 0x20 DUP3 ADD SWAP2 POP PUSH2 0x6EA DUP3 DUP9 PUSH2 0x5B9 JUMP JUMPDEST PUSH1 0x20 DUP3 ADD SWAP2 POP PUSH2 0x6FA DUP3 DUP8 PUSH2 0x5E2 JUMP JUMPDEST PUSH1 0x20 DUP3 ADD SWAP2 POP PUSH2 0x70A DUP3 DUP7 PUSH2 0x627 JUMP JUMPDEST PUSH1 0x14 DUP3 ADD SWAP2 POP PUSH2 0x71A DUP3 DUP6 PUSH2 0x5B9 JUMP JUMPDEST PUSH1 0x20 DUP3 ADD SWAP2 POP PUSH2 0x72A DUP3 DUP5 PUSH2 0x5B9 JUMP JUMPDEST PUSH1 0x20 DUP3 ADD SWAP2 POP DUP2 SWAP1 POP SWAP8 SWAP7 POP POP POP POP POP POP POP JUMP JUMPDEST PUSH32 0x4E487B7100000000000000000000000000000000000000000000000000000000 PUSH0 MSTORE PUSH1 0x12 PUSH1 0x4 MSTORE PUSH1 0x24 PUSH0 REVERT JUMPDEST PUSH0 PUSH2 0x775 DUP3 PUSH2 0x252 JUMP JUMPDEST SWAP2 POP PUSH2 0x780 DUP4 PUSH2 0x252 JUMP JUMPDEST SWAP3 POP DUP3 PUSH2 0x790 JUMPI PUSH2 0x78F PUSH2 0x73E JUMP JUMPDEST JUMPDEST DUP3 DUP3 MOD SWAP1 POP SWAP3 SWAP2 POP POP JUMP JUMPDEST PUSH32 0x4E487B7100000000000000000000000000000000000000000000000000000000 PUSH0 MSTORE PUSH1 0x32 PUSH1 0x4 MSTORE PUSH1 0x24 PUSH0 REVERT JUMPDEST PUSH0 PUSH2 0x7D2 DUP3 PUSH2 0x252 JUMP JUMPDEST SWAP2 POP PUSH2 0x7DD DUP4 PUSH2 0x252 JUMP JUMPDEST SWAP3 POP DUP3 DUP3 ADD SWAP1 POP DUP1 DUP3 GT ISZERO PUSH2 0x7F5 JUMPI PUSH2 0x7F4 PUSH2 0x550 JUMP JUMPDEST JUMPDEST SWAP3 SWAP2 POP POP JUMP JUMPDEST PUSH2 0x804 DUP2 PUSH2 0x3EB JUMP JUMPDEST DUP2 EQ PUSH2 0x80E JUMPI PUSH0 PUSH0 REVERT JUMPDEST POP JUMP JUMPDEST PUSH0 DUP2 CALLDATALOAD SWAP1 POP PUSH2 0x81F DUP2 PUSH2 0x7FB JUMP JUMPDEST SWAP3 SWAP2 POP POP JUMP JUMPDEST PUSH0 PUSH1 0x20 DUP3 DUP5 SUB SLT ISZERO PUSH2 0x83A JUMPI PUSH2 0x839 PUSH2 0x24A JUMP JUMPDEST JUMPDEST PUSH0 PUSH2 0x847 DUP5 DUP3 DUP6 ADD PUSH2 0x811 JUMP JUMPDEST SWAP2 POP POP SWAP3 SWAP2 POP POP JUMP JUMPDEST PUSH32 0x57696E6E657220636F756C64206E6F742062652064657465726D696E65640000 PUSH0 DUP3 ADD MSTORE POP JUMP JUMPDEST PUSH0 PUSH2 0x884 PUSH1 0x1E DUP4 PUSH2 0x424 JUMP JUMPDEST SWAP2 POP PUSH2 0x88F DUP3 PUSH2 0x850 JUMP JUMPDEST PUSH1 0x20 DUP3 ADD SWAP1 POP SWAP2 SWAP1 POP JUMP JUMPDEST PUSH0 PUSH1 0x20 DUP3 ADD SWAP1 POP DUP2 DUP2 SUB PUSH0 DUP4 ADD MSTORE PUSH2 0x8B1 DUP2 PUSH2 0x878 JUMP JUMPDEST SWAP1 POP SWAP2 SWAP1 POP JUMP INVALID LOG2 PUSH5 0x6970667358 0x22 SLT KECCAK256 CALLER PUSH8 0xACAA757051074376 MSTORE BLOCKHASH INVALID POP PUSH3 0x5F7324 TIMESTAMP SWAP15 0xE6 EXTCODECOPY CALLER PUSH21 0x259C6E32B180A15D64736F6C634300081C00330000 "
				},
				"gasEstimates": {
					"creation": {
						"codeDepositCost": "457200",
						"executionCost": "491",
						"totalCost": "457691"
					},
					"external": {
						"selectWinner(uint256,address[],uint256[])": "infinite"
					}
				},
				"methodIdentifiers": {
					"selectWinner(uint256,address[],uint256[])": "971a22c5"
				}
			},
			"storageLayout": {
				"storage": [],
				"types": null
			},
			"userdoc": {
				"kind": "user",
				"methods": {
					"selectWinner(uint256,address[],uint256[])": {
						"notice": "Selects a random winner from a list of users based on their balances and total supply."
					}
				},
				"version": 1
			}
		}
	}
}