{
	"contracts/VaultManager.sol": {
		"VaultManager": {
			"abi": [
				{
					"inputs": [
						{
							"internalType": "address",
							"name": "_prizeManager",
							"type": "address"
						},
						{
							"internalType": "address",
							"name": "initialOwner",
							"type": "address"
						}
					],
					"stateMutability": "nonpayable",
					"type": "constructor"
				},
				{
					"inputs": [
						{
							"internalType": "address",
							"name": "owner",
							"type": "address"
						}
					],
					"name": "OwnableInvalidOwner",
					"type": "error"
				},
				{
					"inputs": [
						{
							"internalType": "address",
							"name": "account",
							"type": "address"
						}
					],
					"name": "OwnableUnauthorizedAccount",
					"type": "error"
				},
				{
					"anonymous": false,
					"inputs": [
						{
							"indexed": true,
							"internalType": "address",
							"name": "user",
							"type": "address"
						},
						{
							"indexed": true,
							"internalType": "address",
							"name": "token",
							"type": "address"
						},
						{
							"indexed": false,
							"internalType": "uint256",
							"name": "amount",
							"type": "uint256"
						},
						{
							"indexed": false,
							"internalType": "uint256",
							"name": "timestamp",
							"type": "uint256"
						}
					],
					"name": "DepositMade",
					"type": "event"
				},
				{
					"anonymous": false,
					"inputs": [
						{
							"indexed": true,
							"internalType": "address",
							"name": "user",
							"type": "address"
						},
						{
							"indexed": true,
							"internalType": "address",
							"name": "token",
							"type": "address"
						},
						{
							"indexed": false,
							"internalType": "uint256",
							"name": "amount",
							"type": "uint256"
						},
						{
							"indexed": false,
							"internalType": "uint256",
							"name": "nasicReward",
							"type": "uint256"
						}
					],
					"name": "DonationMade",
					"type": "event"
				},
				{
					"anonymous": false,
					"inputs": [
						{
							"indexed": true,
							"internalType": "address",
							"name": "previousOwner",
							"type": "address"
						},
						{
							"indexed": true,
							"internalType": "address",
							"name": "newOwner",
							"type": "address"
						}
					],
					"name": "OwnershipTransferred",
					"type": "event"
				},
				{
					"anonymous": false,
					"inputs": [
						{
							"indexed": false,
							"internalType": "uint256",
							"name": "totalMinted",
							"type": "uint256"
						}
					],
					"name": "TokensMintedBeforeDraw",
					"type": "event"
				},
				{
					"anonymous": false,
					"inputs": [
						{
							"indexed": false,
							"internalType": "uint256",
							"name": "totalInvested",
							"type": "uint256"
						},
						{
							"indexed": false,
							"internalType": "uint256",
							"name": "weeklyProfit",
							"type": "uint256"
						},
						{
							"indexed": false,
							"internalType": "uint256",
							"name": "lowPrizeRemaining",
							"type": "uint256"
						},
						{
							"indexed": false,
							"internalType": "uint256",
							"name": "middlePrizeRemaining",
							"type": "uint256"
						},
						{
							"indexed": false,
							"internalType": "uint256",
							"name": "highPrizeRemaining",
							"type": "uint256"
						},
						{
							"indexed": false,
							"internalType": "uint256",
							"name": "superPrizeRemaining",
							"type": "uint256"
						}
					],
					"name": "WeeklyReport",
					"type": "event"
				},
				{
					"anonymous": false,
					"inputs": [
						{
							"indexed": true,
							"internalType": "address",
							"name": "user",
							"type": "address"
						},
						{
							"indexed": true,
							"internalType": "address",
							"name": "token",
							"type": "address"
						},
						{
							"indexed": false,
							"internalType": "uint256",
							"name": "amount",
							"type": "uint256"
						},
						{
							"indexed": false,
							"internalType": "uint256",
							"name": "extraTokens",
							"type": "uint256"
						}
					],
					"name": "WithdrawalCompleted",
					"type": "event"
				},
				{
					"inputs": [],
					"name": "DAI",
					"outputs": [
						{
							"internalType": "address",
							"name": "",
							"type": "address"
						}
					],
					"stateMutability": "view",
					"type": "function"
				},
				{
					"inputs": [],
					"name": "SUSD",
					"outputs": [
						{
							"internalType": "address",
							"name": "",
							"type": "address"
						}
					],
					"stateMutability": "view",
					"type": "function"
				},
				{
					"inputs": [],
					"name": "USDC",
					"outputs": [
						{
							"internalType": "address",
							"name": "",
							"type": "address"
						}
					],
					"stateMutability": "view",
					"type": "function"
				},
				{
					"inputs": [],
					"name": "USDT",
					"outputs": [
						{
							"internalType": "address",
							"name": "",
							"type": "address"
						}
					],
					"stateMutability": "view",
					"type": "function"
				},
				{
					"inputs": [],
					"name": "YCRV_VAULT",
					"outputs": [
						{
							"internalType": "address",
							"name": "",
							"type": "address"
						}
					],
					"stateMutability": "view",
					"type": "function"
				},
				{
					"inputs": [],
					"name": "calculateWeeklyProfits",
					"outputs": [],
					"stateMutability": "nonpayable",
					"type": "function"
				},
				{
					"inputs": [
						{
							"internalType": "uint256",
							"name": "amount",
							"type": "uint256"
						}
					],
					"name": "depositToDAI",
					"outputs": [],
					"stateMutability": "nonpayable",
					"type": "function"
				},
				{
					"inputs": [
						{
							"internalType": "uint256",
							"name": "amount",
							"type": "uint256"
						}
					],
					"name": "depositToSUSD",
					"outputs": [],
					"stateMutability": "nonpayable",
					"type": "function"
				},
				{
					"inputs": [
						{
							"internalType": "uint256",
							"name": "amount",
							"type": "uint256"
						}
					],
					"name": "depositToUSDC",
					"outputs": [],
					"stateMutability": "nonpayable",
					"type": "function"
				},
				{
					"inputs": [
						{
							"internalType": "uint256",
							"name": "amount",
							"type": "uint256"
						}
					],
					"name": "depositToUSDT",
					"outputs": [],
					"stateMutability": "nonpayable",
					"type": "function"
				},
				{
					"inputs": [
						{
							"internalType": "address",
							"name": "token",
							"type": "address"
						},
						{
							"internalType": "uint256",
							"name": "amount",
							"type": "uint256"
						}
					],
					"name": "depositToVault",
					"outputs": [],
					"stateMutability": "nonpayable",
					"type": "function"
				},
				{
					"inputs": [
						{
							"internalType": "uint256",
							"name": "amount",
							"type": "uint256"
						}
					],
					"name": "donateDAI",
					"outputs": [],
					"stateMutability": "nonpayable",
					"type": "function"
				},
				{
					"inputs": [
						{
							"internalType": "uint256",
							"name": "amount",
							"type": "uint256"
						}
					],
					"name": "donateSUSD",
					"outputs": [],
					"stateMutability": "nonpayable",
					"type": "function"
				},
				{
					"inputs": [
						{
							"internalType": "address",
							"name": "token",
							"type": "address"
						},
						{
							"internalType": "uint256",
							"name": "amount",
							"type": "uint256"
						}
					],
					"name": "donateToVault",
					"outputs": [],
					"stateMutability": "nonpayable",
					"type": "function"
				},
				{
					"inputs": [
						{
							"internalType": "uint256",
							"name": "amount",
							"type": "uint256"
						}
					],
					"name": "donateUSDC",
					"outputs": [],
					"stateMutability": "nonpayable",
					"type": "function"
				},
				{
					"inputs": [
						{
							"internalType": "uint256",
							"name": "amount",
							"type": "uint256"
						}
					],
					"name": "donateUSDT",
					"outputs": [],
					"stateMutability": "nonpayable",
					"type": "function"
				},
				{
					"inputs": [],
					"name": "mintTokensBeforeDraw",
					"outputs": [],
					"stateMutability": "nonpayable",
					"type": "function"
				},
				{
					"inputs": [],
					"name": "owner",
					"outputs": [
						{
							"internalType": "address",
							"name": "",
							"type": "address"
						}
					],
					"stateMutability": "view",
					"type": "function"
				},
				{
					"inputs": [],
					"name": "prizeManager",
					"outputs": [
						{
							"internalType": "address",
							"name": "",
							"type": "address"
						}
					],
					"stateMutability": "view",
					"type": "function"
				},
				{
					"inputs": [
						{
							"internalType": "address",
							"name": "",
							"type": "address"
						}
					],
					"name": "releasedTokens",
					"outputs": [
						{
							"internalType": "uint256",
							"name": "",
							"type": "uint256"
						}
					],
					"stateMutability": "view",
					"type": "function"
				},
				{
					"inputs": [],
					"name": "renounceOwnership",
					"outputs": [],
					"stateMutability": "nonpayable",
					"type": "function"
				},
				{
					"inputs": [
						{
							"internalType": "address",
							"name": "newOwner",
							"type": "address"
						}
					],
					"name": "transferOwnership",
					"outputs": [],
					"stateMutability": "nonpayable",
					"type": "function"
				},
				{
					"inputs": [
						{
							"internalType": "address",
							"name": "",
							"type": "address"
						},
						{
							"internalType": "address",
							"name": "",
							"type": "address"
						}
					],
					"name": "userDeposits",
					"outputs": [
						{
							"internalType": "uint256",
							"name": "amount",
							"type": "uint256"
						},
						{
							"internalType": "uint256",
							"name": "timestamp",
							"type": "uint256"
						}
					],
					"stateMutability": "view",
					"type": "function"
				},
				{
					"inputs": [
						{
							"internalType": "address",
							"name": "token",
							"type": "address"
						},
						{
							"internalType": "uint256",
							"name": "amount",
							"type": "uint256"
						}
					],
					"name": "withdrawFunds",
					"outputs": [],
					"stateMutability": "nonpayable",
					"type": "function"
				}
			],
			"devdoc": {
				"errors": {
					"OwnableInvalidOwner(address)": [
						{
							"details": "The owner is not a valid owner account. (eg. `address(0)`)"
						}
					],
					"OwnableUnauthorizedAccount(address)": [
						{
							"details": "The caller account is not authorized to perform an operation."
						}
					]
				},
				"kind": "dev",
				"methods": {
					"owner()": {
						"details": "Returns the address of the current owner."
					},
					"renounceOwnership()": {
						"details": "Leaves the contract without owner. It will not be possible to call `onlyOwner` functions. Can only be called by the current owner. NOTE: Renouncing ownership will leave the contract without an owner, thereby disabling any functionality that is only available to the owner."
					},
					"transferOwnership(address)": {
						"details": "Transfers ownership of the contract to a new account (`newOwner`). Can only be called by the current owner."
					}
				},
				"version": 1
			},
			"evm": {
				"assembly": "    /* \"contracts/VaultManager.sol\":946:6784  contract VaultManager is Ownable {... */\n  mstore(0x40, 0x80)\n    /* \"contracts/VaultManager.sol\":2583:2788  constructor(address _prizeManager, address initialOwner) Ownable(initialOwner) {... */\n  callvalue\n  dup1\n  iszero\n  tag_1\n  jumpi\n  revert(0x00, 0x00)\ntag_1:\n  pop\n  mload(0x40)\n  sub(codesize, bytecodeSize)\n  dup1\n  bytecodeSize\n  dup4\n  codecopy\n  dup2\n  dup2\n  add\n  0x40\n  mstore\n  dup2\n  add\n  swap1\n  tag_2\n  swap2\n  swap1\n  tag_3\n  jump\t// in\ntag_2:\n    /* \"contracts/VaultManager.sol\":2648:2660  initialOwner */\n  dup1\n    /* \"@openzeppelin/contracts/access/Ownable.sol\":1297:1298  0 */\n  0x00\n    /* \"@openzeppelin/contracts/access/Ownable.sol\":1273:1299  initialOwner == address(0) */\n  0xffffffffffffffffffffffffffffffffffffffff\n  and\n    /* \"@openzeppelin/contracts/access/Ownable.sol\":1273:1285  initialOwner */\n  dup2\n    /* \"@openzeppelin/contracts/access/Ownable.sol\":1273:1299  initialOwner == address(0) */\n  0xffffffffffffffffffffffffffffffffffffffff\n  and\n  sub\n    /* \"@openzeppelin/contracts/access/Ownable.sol\":1269:1364  if (initialOwner == address(0)) {... */\n  tag_7\n  jumpi\n    /* \"@openzeppelin/contracts/access/Ownable.sol\":1350:1351  0 */\n  0x00\n    /* \"@openzeppelin/contracts/access/Ownable.sol\":1322:1353  OwnableInvalidOwner(address(0)) */\n  mload(0x40)\n  0x1e4fbdf700000000000000000000000000000000000000000000000000000000\n  dup2\n  mstore\n  0x04\n  add\n  tag_8\n  swap2\n  swap1\n  tag_9\n  jump\t// in\ntag_8:\n  mload(0x40)\n  dup1\n  swap2\n  sub\n  swap1\n  revert\n    /* \"@openzeppelin/contracts/access/Ownable.sol\":1269:1364  if (initialOwner == address(0)) {... */\ntag_7:\n    /* \"@openzeppelin/contracts/access/Ownable.sol\":1373:1405  _transferOwnership(initialOwner) */\n  tag_10\n    /* \"@openzeppelin/contracts/access/Ownable.sol\":1392:1404  initialOwner */\n  dup2\n    /* \"@openzeppelin/contracts/access/Ownable.sol\":1373:1391  _transferOwnership */\n  shl(0x20, tag_11)\n    /* \"@openzeppelin/contracts/access/Ownable.sol\":1373:1405  _transferOwnership(initialOwner) */\n  0x20\n  shr\n  jump\t// in\ntag_10:\n    /* \"@openzeppelin/contracts/access/Ownable.sol\":1225:1412  constructor(address initialOwner) {... */\n  pop\n    /* \"contracts/VaultManager.sol\":2706:2707  0 */\n  0x00\n    /* \"contracts/VaultManager.sol\":2681:2708  _prizeManager != address(0) */\n  0xffffffffffffffffffffffffffffffffffffffff\n  and\n    /* \"contracts/VaultManager.sol\":2681:2694  _prizeManager */\n  dup3\n    /* \"contracts/VaultManager.sol\":2681:2708  _prizeManager != address(0) */\n  0xffffffffffffffffffffffffffffffffffffffff\n  and\n  sub\n    /* \"contracts/VaultManager.sol\":2673:2741  require(_prizeManager != address(0), \"Invalid PrizeManager address\") */\n  tag_13\n  jumpi\n  mload(0x40)\n  0x08c379a000000000000000000000000000000000000000000000000000000000\n  dup2\n  mstore\n  0x04\n  add\n  tag_14\n  swap1\n  tag_15\n  jump\t// in\ntag_14:\n  mload(0x40)\n  dup1\n  swap2\n  sub\n  swap1\n  revert\ntag_13:\n    /* \"contracts/VaultManager.sol\":2767:2780  _prizeManager */\n  dup2\n    /* \"contracts/VaultManager.sol\":2752:2764  prizeManager */\n  0x01\n  0x00\n    /* \"contracts/VaultManager.sol\":2752:2780  prizeManager = _prizeManager */\n  0x0100\n  exp\n  dup2\n  sload\n  dup2\n  0xffffffffffffffffffffffffffffffffffffffff\n  mul\n  not\n  and\n  swap1\n  dup4\n  0xffffffffffffffffffffffffffffffffffffffff\n  and\n  mul\n  or\n  swap1\n  sstore\n  pop\n    /* \"contracts/VaultManager.sol\":2583:2788  constructor(address _prizeManager, address initialOwner) Ownable(initialOwner) {... */\n  pop\n  pop\n    /* \"contracts/VaultManager.sol\":946:6784  contract VaultManager is Ownable {... */\n  jump(tag_16)\n    /* \"@openzeppelin/contracts/access/Ownable.sol\":2912:3099  function _transferOwnership(address newOwner) internal virtual {... */\ntag_11:\n    /* \"@openzeppelin/contracts/access/Ownable.sol\":2985:3001  address oldOwner */\n  0x00\n    /* \"@openzeppelin/contracts/access/Ownable.sol\":3004:3010  _owner */\n  0x00\n  0x00\n  swap1\n  sload\n  swap1\n  0x0100\n  exp\n  swap1\n  div\n  0xffffffffffffffffffffffffffffffffffffffff\n  and\n    /* \"@openzeppelin/contracts/access/Ownable.sol\":2985:3010  address oldOwner = _owner */\n  swap1\n  pop\n    /* \"@openzeppelin/contracts/access/Ownable.sol\":3029:3037  newOwner */\n  dup2\n    /* \"@openzeppelin/contracts/access/Ownable.sol\":3020:3026  _owner */\n  0x00\n  0x00\n    /* \"@openzeppelin/contracts/access/Ownable.sol\":3020:3037  _owner = newOwner */\n  0x0100\n  exp\n  dup2\n  sload\n  dup2\n  0xffffffffffffffffffffffffffffffffffffffff\n  mul\n  not\n  and\n  swap1\n  dup4\n  0xffffffffffffffffffffffffffffffffffffffff\n  and\n  mul\n  or\n  swap1\n  sstore\n  pop\n    /* \"@openzeppelin/contracts/access/Ownable.sol\":3083:3091  newOwner */\n  dup2\n    /* \"@openzeppelin/contracts/access/Ownable.sol\":3052:3092  OwnershipTransferred(oldOwner, newOwner) */\n  0xffffffffffffffffffffffffffffffffffffffff\n  and\n    /* \"@openzeppelin/contracts/access/Ownable.sol\":3073:3081  oldOwner */\n  dup2\n    /* \"@openzeppelin/contracts/access/Ownable.sol\":3052:3092  OwnershipTransferred(oldOwner, newOwner) */\n  0xffffffffffffffffffffffffffffffffffffffff\n  and\n  0x8be0079c531659141344cd1fd0a4f28419497f9722a3daafe3b4186f6b6457e0\n  mload(0x40)\n  mload(0x40)\n  dup1\n  swap2\n  sub\n  swap1\n  log3\n    /* \"@openzeppelin/contracts/access/Ownable.sol\":2975:3099  {... */\n  pop\n    /* \"@openzeppelin/contracts/access/Ownable.sol\":2912:3099  function _transferOwnership(address newOwner) internal virtual {... */\n  pop\n  jump\t// out\n    /* \"#utility.yul\":88:205   */\ntag_19:\n    /* \"#utility.yul\":197:198   */\n  0x00\n    /* \"#utility.yul\":194:195   */\n  0x00\n    /* \"#utility.yul\":187:199   */\n  revert\n    /* \"#utility.yul\":334:460   */\ntag_21:\n    /* \"#utility.yul\":371:378   */\n  0x00\n    /* \"#utility.yul\":411:453   */\n  0xffffffffffffffffffffffffffffffffffffffff\n    /* \"#utility.yul\":404:409   */\n  dup3\n    /* \"#utility.yul\":400:454   */\n  and\n    /* \"#utility.yul\":389:454   */\n  swap1\n  pop\n    /* \"#utility.yul\":334:460   */\n  swap2\n  swap1\n  pop\n  jump\t// out\n    /* \"#utility.yul\":466:562   */\ntag_22:\n    /* \"#utility.yul\":503:510   */\n  0x00\n    /* \"#utility.yul\":532:556   */\n  tag_35\n    /* \"#utility.yul\":550:555   */\n  dup3\n    /* \"#utility.yul\":532:556   */\n  tag_21\n  jump\t// in\ntag_35:\n    /* \"#utility.yul\":521:556   */\n  swap1\n  pop\n    /* \"#utility.yul\":466:562   */\n  swap2\n  swap1\n  pop\n  jump\t// out\n    /* \"#utility.yul\":568:690   */\ntag_23:\n    /* \"#utility.yul\":641:665   */\n  tag_37\n    /* \"#utility.yul\":659:664   */\n  dup2\n    /* \"#utility.yul\":641:665   */\n  tag_22\n  jump\t// in\ntag_37:\n    /* \"#utility.yul\":634:639   */\n  dup2\n    /* \"#utility.yul\":631:666   */\n  eq\n    /* \"#utility.yul\":621:684   */\n  tag_38\n  jumpi\n    /* \"#utility.yul\":680:681   */\n  0x00\n    /* \"#utility.yul\":677:678   */\n  0x00\n    /* \"#utility.yul\":670:682   */\n  revert\n    /* \"#utility.yul\":621:684   */\ntag_38:\n    /* \"#utility.yul\":568:690   */\n  pop\n  jump\t// out\n    /* \"#utility.yul\":696:839   */\ntag_24:\n    /* \"#utility.yul\":753:758   */\n  0x00\n    /* \"#utility.yul\":784:790   */\n  dup2\n    /* \"#utility.yul\":778:791   */\n  mload\n    /* \"#utility.yul\":769:791   */\n  swap1\n  pop\n    /* \"#utility.yul\":800:833   */\n  tag_40\n    /* \"#utility.yul\":827:832   */\n  dup2\n    /* \"#utility.yul\":800:833   */\n  tag_23\n  jump\t// in\ntag_40:\n    /* \"#utility.yul\":696:839   */\n  swap3\n  swap2\n  pop\n  pop\n  jump\t// out\n    /* \"#utility.yul\":845:1352   */\ntag_3:\n    /* \"#utility.yul\":924:930   */\n  0x00\n    /* \"#utility.yul\":932:938   */\n  0x00\n    /* \"#utility.yul\":981:983   */\n  0x40\n    /* \"#utility.yul\":969:978   */\n  dup4\n    /* \"#utility.yul\":960:967   */\n  dup6\n    /* \"#utility.yul\":956:979   */\n  sub\n    /* \"#utility.yul\":952:984   */\n  slt\n    /* \"#utility.yul\":949:1068   */\n  iszero\n  tag_42\n  jumpi\n    /* \"#utility.yul\":987:1066   */\n  tag_43\n  tag_19\n  jump\t// in\ntag_43:\n    /* \"#utility.yul\":949:1068   */\ntag_42:\n    /* \"#utility.yul\":1107:1108   */\n  0x00\n    /* \"#utility.yul\":1132:1196   */\n  tag_44\n    /* \"#utility.yul\":1188:1195   */\n  dup6\n    /* \"#utility.yul\":1179:1185   */\n  dup3\n    /* \"#utility.yul\":1168:1177   */\n  dup7\n    /* \"#utility.yul\":1164:1186   */\n  add\n    /* \"#utility.yul\":1132:1196   */\n  tag_24\n  jump\t// in\ntag_44:\n    /* \"#utility.yul\":1122:1196   */\n  swap3\n  pop\n    /* \"#utility.yul\":1078:1206   */\n  pop\n    /* \"#utility.yul\":1245:1247   */\n  0x20\n    /* \"#utility.yul\":1271:1335   */\n  tag_45\n    /* \"#utility.yul\":1327:1334   */\n  dup6\n    /* \"#utility.yul\":1318:1324   */\n  dup3\n    /* \"#utility.yul\":1307:1316   */\n  dup7\n    /* \"#utility.yul\":1303:1325   */\n  add\n    /* \"#utility.yul\":1271:1335   */\n  tag_24\n  jump\t// in\ntag_45:\n    /* \"#utility.yul\":1261:1335   */\n  swap2\n  pop\n    /* \"#utility.yul\":1216:1345   */\n  pop\n    /* \"#utility.yul\":845:1352   */\n  swap3\n  pop\n  swap3\n  swap1\n  pop\n  jump\t// out\n    /* \"#utility.yul\":1358:1476   */\ntag_25:\n    /* \"#utility.yul\":1445:1469   */\n  tag_47\n    /* \"#utility.yul\":1463:1468   */\n  dup2\n    /* \"#utility.yul\":1445:1469   */\n  tag_22\n  jump\t// in\ntag_47:\n    /* \"#utility.yul\":1440:1443   */\n  dup3\n    /* \"#utility.yul\":1433:1470   */\n  mstore\n    /* \"#utility.yul\":1358:1476   */\n  pop\n  pop\n  jump\t// out\n    /* \"#utility.yul\":1482:1704   */\ntag_9:\n    /* \"#utility.yul\":1575:1579   */\n  0x00\n    /* \"#utility.yul\":1613:1615   */\n  0x20\n    /* \"#utility.yul\":1602:1611   */\n  dup3\n    /* \"#utility.yul\":1598:1616   */\n  add\n    /* \"#utility.yul\":1590:1616   */\n  swap1\n  pop\n    /* \"#utility.yul\":1626:1697   */\n  tag_49\n    /* \"#utility.yul\":1694:1695   */\n  0x00\n    /* \"#utility.yul\":1683:1692   */\n  dup4\n    /* \"#utility.yul\":1679:1696   */\n  add\n    /* \"#utility.yul\":1670:1676   */\n  dup5\n    /* \"#utility.yul\":1626:1697   */\n  tag_25\n  jump\t// in\ntag_49:\n    /* \"#utility.yul\":1482:1704   */\n  swap3\n  swap2\n  pop\n  pop\n  jump\t// out\n    /* \"#utility.yul\":1710:1879   */\ntag_26:\n    /* \"#utility.yul\":1794:1805   */\n  0x00\n    /* \"#utility.yul\":1828:1834   */\n  dup3\n    /* \"#utility.yul\":1823:1826   */\n  dup3\n    /* \"#utility.yul\":1816:1835   */\n  mstore\n    /* \"#utility.yul\":1868:1872   */\n  0x20\n    /* \"#utility.yul\":1863:1866   */\n  dup3\n    /* \"#utility.yul\":1859:1873   */\n  add\n    /* \"#utility.yul\":1844:1873   */\n  swap1\n  pop\n    /* \"#utility.yul\":1710:1879   */\n  swap3\n  swap2\n  pop\n  pop\n  jump\t// out\n    /* \"#utility.yul\":1885:2063   */\ntag_27:\n    /* \"#utility.yul\":2025:2055   */\n  0x496e76616c6964205072697a654d616e61676572206164647265737300000000\n    /* \"#utility.yul\":2021:2022   */\n  0x00\n    /* \"#utility.yul\":2013:2019   */\n  dup3\n    /* \"#utility.yul\":2009:2023   */\n  add\n    /* \"#utility.yul\":2002:2056   */\n  mstore\n    /* \"#utility.yul\":1885:2063   */\n  pop\n  jump\t// out\n    /* \"#utility.yul\":2069:2435   */\ntag_28:\n    /* \"#utility.yul\":2211:2214   */\n  0x00\n    /* \"#utility.yul\":2232:2299   */\n  tag_53\n    /* \"#utility.yul\":2296:2298   */\n  0x1c\n    /* \"#utility.yul\":2291:2294   */\n  dup4\n    /* \"#utility.yul\":2232:2299   */\n  tag_26\n  jump\t// in\ntag_53:\n    /* \"#utility.yul\":2225:2299   */\n  swap2\n  pop\n    /* \"#utility.yul\":2308:2401   */\n  tag_54\n    /* \"#utility.yul\":2397:2400   */\n  dup3\n    /* \"#utility.yul\":2308:2401   */\n  tag_27\n  jump\t// in\ntag_54:\n    /* \"#utility.yul\":2426:2428   */\n  0x20\n    /* \"#utility.yul\":2421:2424   */\n  dup3\n    /* \"#utility.yul\":2417:2429   */\n  add\n    /* \"#utility.yul\":2410:2429   */\n  swap1\n  pop\n    /* \"#utility.yul\":2069:2435   */\n  swap2\n  swap1\n  pop\n  jump\t// out\n    /* \"#utility.yul\":2441:2860   */\ntag_15:\n    /* \"#utility.yul\":2607:2611   */\n  0x00\n    /* \"#utility.yul\":2645:2647   */\n  0x20\n    /* \"#utility.yul\":2634:2643   */\n  dup3\n    /* \"#utility.yul\":2630:2648   */\n  add\n    /* \"#utility.yul\":2622:2648   */\n  swap1\n  pop\n    /* \"#utility.yul\":2694:2703   */\n  dup2\n    /* \"#utility.yul\":2688:2692   */\n  dup2\n    /* \"#utility.yul\":2684:2704   */\n  sub\n    /* \"#utility.yul\":2680:2681   */\n  0x00\n    /* \"#utility.yul\":2669:2678   */\n  dup4\n    /* \"#utility.yul\":2665:2682   */\n  add\n    /* \"#utility.yul\":2658:2705   */\n  mstore\n    /* \"#utility.yul\":2722:2853   */\n  tag_56\n    /* \"#utility.yul\":2848:2852   */\n  dup2\n    /* \"#utility.yul\":2722:2853   */\n  tag_28\n  jump\t// in\ntag_56:\n    /* \"#utility.yul\":2714:2853   */\n  swap1\n  pop\n    /* \"#utility.yul\":2441:2860   */\n  swap2\n  swap1\n  pop\n  jump\t// out\n    /* \"contracts/VaultManager.sol\":946:6784  contract VaultManager is Ownable {... */\ntag_16:\n  dataSize(sub_0)\n  dup1\n  dataOffset(sub_0)\n  0x00\n  codecopy\n  0x00\n  return\nstop\n\nsub_0: assembly {\n        /* \"contracts/VaultManager.sol\":946:6784  contract VaultManager is Ownable {... */\n      mstore(0x40, 0x80)\n      callvalue\n      dup1\n      iszero\n      tag_1\n      jumpi\n      revert(0x00, 0x00)\n    tag_1:\n      pop\n      jumpi(tag_2, lt(calldatasize, 0x04))\n      shr(0xe0, calldataload(0x00))\n      dup1\n      0x89a30271\n      gt\n      tag_27\n      jumpi\n      dup1\n      0xc1075329\n      gt\n      tag_28\n      jumpi\n      dup1\n      0xc1075329\n      eq\n      tag_21\n      jumpi\n      dup1\n      0xc54e44eb\n      eq\n      tag_22\n      jumpi\n      dup1\n      0xde61e265\n      eq\n      tag_23\n      jumpi\n      dup1\n      0xe0bab4c4\n      eq\n      tag_24\n      jumpi\n      dup1\n      0xf2fde38b\n      eq\n      tag_25\n      jumpi\n      dup1\n      0xf9ba9f71\n      eq\n      tag_26\n      jumpi\n      jump(tag_2)\n    tag_28:\n      dup1\n      0x89a30271\n      eq\n      tag_15\n      jumpi\n      dup1\n      0x8da5cb5b\n      eq\n      tag_16\n      jumpi\n      dup1\n      0xa2da905f\n      eq\n      tag_17\n      jumpi\n      dup1\n      0xa3d11158\n      eq\n      tag_18\n      jumpi\n      dup1\n      0xa544594e\n      eq\n      tag_19\n      jumpi\n      dup1\n      0xb882ba74\n      eq\n      tag_20\n      jumpi\n      jump(tag_2)\n    tag_27:\n      dup1\n      0x556c9166\n      gt\n      tag_29\n      jumpi\n      dup1\n      0x556c9166\n      eq\n      tag_9\n      jumpi\n      dup1\n      0x5610eca0\n      eq\n      tag_10\n      jumpi\n      dup1\n      0x6fdea731\n      eq\n      tag_11\n      jumpi\n      dup1\n      0x70ff852b\n      eq\n      tag_12\n      jumpi\n      dup1\n      0x715018a6\n      eq\n      tag_13\n      jumpi\n      dup1\n      0x791f96a7\n      eq\n      tag_14\n      jumpi\n      jump(tag_2)\n    tag_29:\n      dup1\n      0x0594cc4e\n      eq\n      tag_3\n      jumpi\n      dup1\n      0x15d8eeba\n      eq\n      tag_4\n      jumpi\n      dup1\n      0x161e5cbd\n      eq\n      tag_5\n      jumpi\n      dup1\n      0x3d6f4369\n      eq\n      tag_6\n      jumpi\n      dup1\n      0x436d8039\n      eq\n      tag_7\n      jumpi\n      dup1\n      0x4b95f2f4\n      eq\n      tag_8\n      jumpi\n    tag_2:\n      revert(0x00, 0x00)\n        /* \"contracts/VaultManager.sol\":3103:3198  function depositToSUSD(uint256 amount) external {... */\n    tag_3:\n      tag_30\n      0x04\n      dup1\n      calldatasize\n      sub\n      dup2\n      add\n      swap1\n      tag_31\n      swap2\n      swap1\n      tag_32\n      jump\t// in\n    tag_31:\n      tag_33\n      jump\t// in\n    tag_30:\n      stop\n        /* \"contracts/VaultManager.sol\":1261:1334  address public constant SUSD = 0x57Ab1ec28D129707052df4dF418D58a2D46d5f51 */\n    tag_4:\n      tag_34\n      tag_35\n      jump\t// in\n    tag_34:\n      mload(0x40)\n      tag_36\n      swap2\n      swap1\n      tag_37\n      jump\t// in\n    tag_36:\n      mload(0x40)\n      dup1\n      swap2\n      sub\n      swap1\n      return\n        /* \"contracts/VaultManager.sol\":3002:3095  function depositToDAI(uint256 amount) external {... */\n    tag_5:\n      tag_38\n      0x04\n      dup1\n      calldatasize\n      sub\n      dup2\n      add\n      swap1\n      tag_39\n      swap2\n      swap1\n      tag_32\n      jump\t// in\n    tag_39:\n      tag_40\n      jump\t// in\n    tag_38:\n      stop\n        /* \"contracts/VaultManager.sol\":986:1013  address public prizeManager */\n    tag_6:\n      tag_41\n      tag_42\n      jump\t// in\n    tag_41:\n      mload(0x40)\n      tag_43\n      swap2\n      swap1\n      tag_37\n      jump\t// in\n    tag_43:\n      mload(0x40)\n      dup1\n      swap2\n      sub\n      swap1\n      return\n        /* \"contracts/VaultManager.sol\":1519:1590  mapping(address => mapping(address => DepositInfo)) public userDeposits */\n    tag_7:\n      tag_44\n      0x04\n      dup1\n      calldatasize\n      sub\n      dup2\n      add\n      swap1\n      tag_45\n      swap2\n      swap1\n      tag_46\n      jump\t// in\n    tag_45:\n      tag_47\n      jump\t// in\n    tag_44:\n      mload(0x40)\n      tag_48\n      swap3\n      swap2\n      swap1\n      tag_49\n      jump\t// in\n    tag_48:\n      mload(0x40)\n      dup1\n      swap2\n      sub\n      swap1\n      return\n        /* \"contracts/VaultManager.sol\":5646:6098  function mintTokensBeforeDraw() external onlyOwner {... */\n    tag_8:\n      tag_50\n      tag_51\n      jump\t// in\n    tag_50:\n      stop\n        /* \"contracts/VaultManager.sol\":2899:2994  function depositToUSDC(uint256 amount) external {... */\n    tag_9:\n      tag_52\n      0x04\n      dup1\n      calldatasize\n      sub\n      dup2\n      add\n      swap1\n      tag_53\n      swap2\n      swap1\n      tag_32\n      jump\t// in\n    tag_53:\n      tag_54\n      jump\t// in\n    tag_52:\n      stop\n        /* \"contracts/VaultManager.sol\":3206:3297  function donateUSDT(uint256 amount) external {... */\n    tag_10:\n      tag_55\n      0x04\n      dup1\n      calldatasize\n      sub\n      dup2\n      add\n      swap1\n      tag_56\n      swap2\n      swap1\n      tag_32\n      jump\t// in\n    tag_56:\n      tag_57\n      jump\t// in\n    tag_55:\n      stop\n        /* \"contracts/VaultManager.sol\":2796:2891  function depositToUSDT(uint256 amount) external {... */\n    tag_11:\n      tag_58\n      0x04\n      dup1\n      calldatasize\n      sub\n      dup2\n      add\n      swap1\n      tag_59\n      swap2\n      swap1\n      tag_32\n      jump\t// in\n    tag_59:\n      tag_60\n      jump\t// in\n    tag_58:\n      stop\n        /* \"contracts/VaultManager.sol\":1597:1646  mapping(address => uint256) public releasedTokens */\n    tag_12:\n      tag_61\n      0x04\n      dup1\n      calldatasize\n      sub\n      dup2\n      add\n      swap1\n      tag_62\n      swap2\n      swap1\n      tag_63\n      jump\t// in\n    tag_62:\n      tag_64\n      jump\t// in\n    tag_61:\n      mload(0x40)\n      tag_65\n      swap2\n      swap1\n      tag_66\n      jump\t// in\n    tag_65:\n      mload(0x40)\n      dup1\n      swap2\n      sub\n      swap1\n      return\n        /* \"@openzeppelin/contracts/access/Ownable.sol\":2293:2394  function renounceOwnership() public virtual onlyOwner {... */\n    tag_13:\n      tag_67\n      tag_68\n      jump\t// in\n    tag_67:\n      stop\n        /* \"contracts/VaultManager.sol\":1343:1422  address public constant YCRV_VAULT = 0x5533ed0a3b83F70c3c4a1f69Ef5546D3D4713E44 */\n    tag_14:\n      tag_69\n      tag_70\n      jump\t// in\n    tag_69:\n      mload(0x40)\n      tag_71\n      swap2\n      swap1\n      tag_37\n      jump\t// in\n    tag_71:\n      mload(0x40)\n      dup1\n      swap2\n      sub\n      swap1\n      return\n        /* \"contracts/VaultManager.sol\":1102:1175  address public constant USDC = 0xA0b86991c6218b36c1d19D4a2e9Eb0cE3606eB48 */\n    tag_15:\n      tag_72\n      tag_73\n      jump\t// in\n    tag_72:\n      mload(0x40)\n      tag_74\n      swap2\n      swap1\n      tag_37\n      jump\t// in\n    tag_74:\n      mload(0x40)\n      dup1\n      swap2\n      sub\n      swap1\n      return\n        /* \"@openzeppelin/contracts/access/Ownable.sol\":1638:1723  function owner() public view virtual returns (address) {... */\n    tag_16:\n      tag_75\n      tag_76\n      jump\t// in\n    tag_75:\n      mload(0x40)\n      tag_77\n      swap2\n      swap1\n      tag_37\n      jump\t// in\n    tag_77:\n      mload(0x40)\n      dup1\n      swap2\n      sub\n      swap1\n      return\n        /* \"contracts/VaultManager.sol\":4250:4945  function donateToVault(address token, uint256 amount) public {... */\n    tag_17:\n      tag_78\n      0x04\n      dup1\n      calldatasize\n      sub\n      dup2\n      add\n      swap1\n      tag_79\n      swap2\n      swap1\n      tag_80\n      jump\t// in\n    tag_79:\n      tag_81\n      jump\t// in\n    tag_78:\n      stop\n        /* \"contracts/VaultManager.sol\":3600:4242  function depositToVault(address token, uint256 amount) public {... */\n    tag_18:\n      tag_82\n      0x04\n      dup1\n      calldatasize\n      sub\n      dup2\n      add\n      swap1\n      tag_83\n      swap2\n      swap1\n      tag_80\n      jump\t// in\n    tag_83:\n      tag_84\n      jump\t// in\n    tag_82:\n      stop\n        /* \"contracts/VaultManager.sol\":3404:3493  function donateDAI(uint256 amount) external {... */\n    tag_19:\n      tag_85\n      0x04\n      dup1\n      calldatasize\n      sub\n      dup2\n      add\n      swap1\n      tag_86\n      swap2\n      swap1\n      tag_32\n      jump\t// in\n    tag_86:\n      tag_87\n      jump\t// in\n    tag_85:\n      stop\n        /* \"contracts/VaultManager.sol\":3501:3592  function donateSUSD(uint256 amount) external {... */\n    tag_20:\n      tag_88\n      0x04\n      dup1\n      calldatasize\n      sub\n      dup2\n      add\n      swap1\n      tag_89\n      swap2\n      swap1\n      tag_32\n      jump\t// in\n    tag_89:\n      tag_90\n      jump\t// in\n    tag_88:\n      stop\n        /* \"contracts/VaultManager.sol\":4953:5638  function withdrawFunds(address token, uint256 amount) external {... */\n    tag_21:\n      tag_91\n      0x04\n      dup1\n      calldatasize\n      sub\n      dup2\n      add\n      swap1\n      tag_92\n      swap2\n      swap1\n      tag_80\n      jump\t// in\n    tag_92:\n      tag_93\n      jump\t// in\n    tag_91:\n      stop\n        /* \"contracts/VaultManager.sol\":1022:1095  address public constant USDT = 0xdAC17F958D2ee523a2206206994597C13D831ec7 */\n    tag_22:\n      tag_94\n      tag_95\n      jump\t// in\n    tag_94:\n      mload(0x40)\n      tag_96\n      swap2\n      swap1\n      tag_37\n      jump\t// in\n    tag_96:\n      mload(0x40)\n      dup1\n      swap2\n      sub\n      swap1\n      return\n        /* \"contracts/VaultManager.sol\":6106:6779  function calculateWeeklyProfits() external onlyOwner {... */\n    tag_23:\n      tag_97\n      tag_98\n      jump\t// in\n    tag_97:\n      stop\n        /* \"contracts/VaultManager.sol\":1182:1254  address public constant DAI = 0x6B175474E89094C44Da98b954EedeAC495271d0F */\n    tag_24:\n      tag_99\n      tag_100\n      jump\t// in\n    tag_99:\n      mload(0x40)\n      tag_101\n      swap2\n      swap1\n      tag_37\n      jump\t// in\n    tag_101:\n      mload(0x40)\n      dup1\n      swap2\n      sub\n      swap1\n      return\n        /* \"@openzeppelin/contracts/access/Ownable.sol\":2543:2758  function transferOwnership(address newOwner) public virtual onlyOwner {... */\n    tag_25:\n      tag_102\n      0x04\n      dup1\n      calldatasize\n      sub\n      dup2\n      add\n      swap1\n      tag_103\n      swap2\n      swap1\n      tag_63\n      jump\t// in\n    tag_103:\n      tag_104\n      jump\t// in\n    tag_102:\n      stop\n        /* \"contracts/VaultManager.sol\":3305:3396  function donateUSDC(uint256 amount) external {... */\n    tag_26:\n      tag_105\n      0x04\n      dup1\n      calldatasize\n      sub\n      dup2\n      add\n      swap1\n      tag_106\n      swap2\n      swap1\n      tag_32\n      jump\t// in\n    tag_106:\n      tag_107\n      jump\t// in\n    tag_105:\n      stop\n        /* \"contracts/VaultManager.sol\":3103:3198  function depositToSUSD(uint256 amount) external {... */\n    tag_33:\n        /* \"contracts/VaultManager.sol\":3162:3190  depositToVault(SUSD, amount) */\n      tag_109\n        /* \"contracts/VaultManager.sol\":1292:1334  0x57Ab1ec28D129707052df4dF418D58a2D46d5f51 */\n      0x57ab1ec28d129707052df4df418d58a2d46d5f51\n        /* \"contracts/VaultManager.sol\":3183:3189  amount */\n      dup3\n        /* \"contracts/VaultManager.sol\":3162:3176  depositToVault */\n      tag_84\n        /* \"contracts/VaultManager.sol\":3162:3190  depositToVault(SUSD, amount) */\n      jump\t// in\n    tag_109:\n        /* \"contracts/VaultManager.sol\":3103:3198  function depositToSUSD(uint256 amount) external {... */\n      pop\n      jump\t// out\n        /* \"contracts/VaultManager.sol\":1261:1334  address public constant SUSD = 0x57Ab1ec28D129707052df4dF418D58a2D46d5f51 */\n    tag_35:\n        /* \"contracts/VaultManager.sol\":1292:1334  0x57Ab1ec28D129707052df4dF418D58a2D46d5f51 */\n      0x57ab1ec28d129707052df4df418d58a2d46d5f51\n        /* \"contracts/VaultManager.sol\":1261:1334  address public constant SUSD = 0x57Ab1ec28D129707052df4dF418D58a2D46d5f51 */\n      dup2\n      jump\t// out\n        /* \"contracts/VaultManager.sol\":3002:3095  function depositToDAI(uint256 amount) external {... */\n    tag_40:\n        /* \"contracts/VaultManager.sol\":3060:3087  depositToVault(DAI, amount) */\n      tag_111\n        /* \"contracts/VaultManager.sol\":1212:1254  0x6B175474E89094C44Da98b954EedeAC495271d0F */\n      0x6b175474e89094c44da98b954eedeac495271d0f\n        /* \"contracts/VaultManager.sol\":3080:3086  amount */\n      dup3\n        /* \"contracts/VaultManager.sol\":3060:3074  depositToVault */\n      tag_84\n        /* \"contracts/VaultManager.sol\":3060:3087  depositToVault(DAI, amount) */\n      jump\t// in\n    tag_111:\n        /* \"contracts/VaultManager.sol\":3002:3095  function depositToDAI(uint256 amount) external {... */\n      pop\n      jump\t// out\n        /* \"contracts/VaultManager.sol\":986:1013  address public prizeManager */\n    tag_42:\n      0x01\n      0x00\n      swap1\n      sload\n      swap1\n      0x0100\n      exp\n      swap1\n      div\n      0xffffffffffffffffffffffffffffffffffffffff\n      and\n      dup2\n      jump\t// out\n        /* \"contracts/VaultManager.sol\":1519:1590  mapping(address => mapping(address => DepositInfo)) public userDeposits */\n    tag_47:\n      mstore(0x20, 0x02)\n      dup2\n      0x00\n      mstore\n      mstore(0x20, keccak256(0x00, 0x40))\n      dup1\n      0x00\n      mstore\n      keccak256(0x00, 0x40)\n      0x00\n      swap2\n      pop\n      swap2\n      pop\n      pop\n      dup1\n      0x00\n      add\n      sload\n      swap1\n      dup1\n      0x01\n      add\n      sload\n      swap1\n      pop\n      dup3\n      jump\t// out\n        /* \"contracts/VaultManager.sol\":5646:6098  function mintTokensBeforeDraw() external onlyOwner {... */\n    tag_51:\n        /* \"@openzeppelin/contracts/access/Ownable.sol\":1531:1544  _checkOwner() */\n      tag_113\n        /* \"@openzeppelin/contracts/access/Ownable.sol\":1531:1542  _checkOwner */\n      tag_114\n        /* \"@openzeppelin/contracts/access/Ownable.sol\":1531:1544  _checkOwner() */\n      jump\t// in\n    tag_113:\n        /* \"contracts/VaultManager.sol\":5708:5727  uint256 totalMinted */\n      0x00\n        /* \"contracts/VaultManager.sol\":5730:5731  0 */\n      0x00\n        /* \"contracts/VaultManager.sol\":5708:5731  uint256 totalMinted = 0 */\n      swap1\n      pop\n        /* \"contracts/VaultManager.sol\":5747:5762  address account */\n      0x00\n        /* \"contracts/VaultManager.sol\":5773:5774  0 */\n      0x00\n        /* \"contracts/VaultManager.sol\":5747:5775  address account = address(0) */\n      swap1\n      pop\n        /* \"contracts/VaultManager.sol\":5742:6040  for (address account = address(0); account != address(0); account = address(uint160(account) + 1)) {... */\n    tag_116:\n        /* \"contracts/VaultManager.sol\":5796:5797  0 */\n      0x00\n        /* \"contracts/VaultManager.sol\":5777:5798  account != address(0) */\n      0xffffffffffffffffffffffffffffffffffffffff\n      and\n        /* \"contracts/VaultManager.sol\":5777:5784  account */\n      dup2\n        /* \"contracts/VaultManager.sol\":5777:5798  account != address(0) */\n      0xffffffffffffffffffffffffffffffffffffffff\n      and\n      eq\n        /* \"contracts/VaultManager.sol\":5742:6040  for (address account = address(0); account != address(0); account = address(uint160(account) + 1)) {... */\n      tag_117\n      jumpi\n        /* \"contracts/VaultManager.sol\":5856:5870  uint256 tokens */\n      0x00\n        /* \"contracts/VaultManager.sol\":5873:5887  releasedTokens */\n      0x03\n        /* \"contracts/VaultManager.sol\":5873:5896  releasedTokens[account] */\n      0x00\n        /* \"contracts/VaultManager.sol\":5888:5895  account */\n      dup4\n        /* \"contracts/VaultManager.sol\":5873:5896  releasedTokens[account] */\n      0xffffffffffffffffffffffffffffffffffffffff\n      and\n      0xffffffffffffffffffffffffffffffffffffffff\n      and\n      dup2\n      mstore\n      0x20\n      add\n      swap1\n      dup2\n      mstore\n      0x20\n      add\n      0x00\n      keccak256\n      sload\n        /* \"contracts/VaultManager.sol\":5856:5896  uint256 tokens = releasedTokens[account] */\n      swap1\n      pop\n        /* \"contracts/VaultManager.sol\":5924:5925  0 */\n      0x00\n        /* \"contracts/VaultManager.sol\":5915:5921  tokens */\n      dup2\n        /* \"contracts/VaultManager.sol\":5915:5925  tokens > 0 */\n      gt\n        /* \"contracts/VaultManager.sol\":5911:6029  if (tokens > 0) {... */\n      iszero\n      tag_119\n      jumpi\n        /* \"contracts/VaultManager.sol\":5972:5973  0 */\n      0x00\n        /* \"contracts/VaultManager.sol\":5946:5960  releasedTokens */\n      0x03\n        /* \"contracts/VaultManager.sol\":5946:5969  releasedTokens[account] */\n      0x00\n        /* \"contracts/VaultManager.sol\":5961:5968  account */\n      dup5\n        /* \"contracts/VaultManager.sol\":5946:5969  releasedTokens[account] */\n      0xffffffffffffffffffffffffffffffffffffffff\n      and\n      0xffffffffffffffffffffffffffffffffffffffff\n      and\n      dup2\n      mstore\n      0x20\n      add\n      swap1\n      dup2\n      mstore\n      0x20\n      add\n      0x00\n      keccak256\n        /* \"contracts/VaultManager.sol\":5946:5973  releasedTokens[account] = 0 */\n      dup2\n      swap1\n      sstore\n      pop\n        /* \"contracts/VaultManager.sol\":6007:6013  tokens */\n      dup1\n        /* \"contracts/VaultManager.sol\":5992:6013  totalMinted += tokens */\n      dup4\n      tag_120\n      swap2\n      swap1\n      tag_121\n      jump\t// in\n    tag_120:\n      swap3\n      pop\n        /* \"contracts/VaultManager.sol\":5911:6029  if (tokens > 0) {... */\n    tag_119:\n        /* \"contracts/VaultManager.sol\":5841:6040  {... */\n      pop\n        /* \"contracts/VaultManager.sol\":5837:5838  1 */\n      0x01\n        /* \"contracts/VaultManager.sol\":5826:5833  account */\n      dup2\n        /* \"contracts/VaultManager.sol\":5818:5838  uint160(account) + 1 */\n      tag_122\n      swap2\n      swap1\n      tag_123\n      jump\t// in\n    tag_122:\n        /* \"contracts/VaultManager.sol\":5800:5839  account = address(uint160(account) + 1) */\n      swap1\n      pop\n        /* \"contracts/VaultManager.sol\":5742:6040  for (address account = address(0); account != address(0); account = address(uint160(account) + 1)) {... */\n      jump(tag_116)\n    tag_117:\n      pop\n        /* \"contracts/VaultManager.sol\":6055:6090  TokensMintedBeforeDraw(totalMinted) */\n      0xf23d075c5cc5b1847d8c9fc00e715c38c29dd0db5a6925bfc2a47673c1e7d2b1\n        /* \"contracts/VaultManager.sol\":6078:6089  totalMinted */\n      dup2\n        /* \"contracts/VaultManager.sol\":6055:6090  TokensMintedBeforeDraw(totalMinted) */\n      mload(0x40)\n      tag_124\n      swap2\n      swap1\n      tag_66\n      jump\t// in\n    tag_124:\n      mload(0x40)\n      dup1\n      swap2\n      sub\n      swap1\n      log1\n        /* \"contracts/VaultManager.sol\":5697:6098  {... */\n      pop\n        /* \"contracts/VaultManager.sol\":5646:6098  function mintTokensBeforeDraw() external onlyOwner {... */\n      jump\t// out\n        /* \"contracts/VaultManager.sol\":2899:2994  function depositToUSDC(uint256 amount) external {... */\n    tag_54:\n        /* \"contracts/VaultManager.sol\":2958:2986  depositToVault(USDC, amount) */\n      tag_126\n        /* \"contracts/VaultManager.sol\":1133:1175  0xA0b86991c6218b36c1d19D4a2e9Eb0cE3606eB48 */\n      0xa0b86991c6218b36c1d19d4a2e9eb0ce3606eb48\n        /* \"contracts/VaultManager.sol\":2979:2985  amount */\n      dup3\n        /* \"contracts/VaultManager.sol\":2958:2972  depositToVault */\n      tag_84\n        /* \"contracts/VaultManager.sol\":2958:2986  depositToVault(USDC, amount) */\n      jump\t// in\n    tag_126:\n        /* \"contracts/VaultManager.sol\":2899:2994  function depositToUSDC(uint256 amount) external {... */\n      pop\n      jump\t// out\n        /* \"contracts/VaultManager.sol\":3206:3297  function donateUSDT(uint256 amount) external {... */\n    tag_57:\n        /* \"contracts/VaultManager.sol\":3262:3289  donateToVault(USDT, amount) */\n      tag_128\n        /* \"contracts/VaultManager.sol\":1053:1095  0xdAC17F958D2ee523a2206206994597C13D831ec7 */\n      0xdac17f958d2ee523a2206206994597c13d831ec7\n        /* \"contracts/VaultManager.sol\":3282:3288  amount */\n      dup3\n        /* \"contracts/VaultManager.sol\":3262:3275  donateToVault */\n      tag_81\n        /* \"contracts/VaultManager.sol\":3262:3289  donateToVault(USDT, amount) */\n      jump\t// in\n    tag_128:\n        /* \"contracts/VaultManager.sol\":3206:3297  function donateUSDT(uint256 amount) external {... */\n      pop\n      jump\t// out\n        /* \"contracts/VaultManager.sol\":2796:2891  function depositToUSDT(uint256 amount) external {... */\n    tag_60:\n        /* \"contracts/VaultManager.sol\":2855:2883  depositToVault(USDT, amount) */\n      tag_130\n        /* \"contracts/VaultManager.sol\":1053:1095  0xdAC17F958D2ee523a2206206994597C13D831ec7 */\n      0xdac17f958d2ee523a2206206994597c13d831ec7\n        /* \"contracts/VaultManager.sol\":2876:2882  amount */\n      dup3\n        /* \"contracts/VaultManager.sol\":2855:2869  depositToVault */\n      tag_84\n        /* \"contracts/VaultManager.sol\":2855:2883  depositToVault(USDT, amount) */\n      jump\t// in\n    tag_130:\n        /* \"contracts/VaultManager.sol\":2796:2891  function depositToUSDT(uint256 amount) external {... */\n      pop\n      jump\t// out\n        /* \"contracts/VaultManager.sol\":1597:1646  mapping(address => uint256) public releasedTokens */\n    tag_64:\n      mstore(0x20, 0x03)\n      dup1\n      0x00\n      mstore\n      keccak256(0x00, 0x40)\n      0x00\n      swap2\n      pop\n      swap1\n      pop\n      sload\n      dup2\n      jump\t// out\n        /* \"@openzeppelin/contracts/access/Ownable.sol\":2293:2394  function renounceOwnership() public virtual onlyOwner {... */\n    tag_68:\n        /* \"@openzeppelin/contracts/access/Ownable.sol\":1531:1544  _checkOwner() */\n      tag_132\n        /* \"@openzeppelin/contracts/access/Ownable.sol\":1531:1542  _checkOwner */\n      tag_114\n        /* \"@openzeppelin/contracts/access/Ownable.sol\":1531:1544  _checkOwner() */\n      jump\t// in\n    tag_132:\n        /* \"@openzeppelin/contracts/access/Ownable.sol\":2357:2387  _transferOwnership(address(0)) */\n      tag_134\n        /* \"@openzeppelin/contracts/access/Ownable.sol\":2384:2385  0 */\n      0x00\n        /* \"@openzeppelin/contracts/access/Ownable.sol\":2357:2375  _transferOwnership */\n      tag_135\n        /* \"@openzeppelin/contracts/access/Ownable.sol\":2357:2387  _transferOwnership(address(0)) */\n      jump\t// in\n    tag_134:\n        /* \"@openzeppelin/contracts/access/Ownable.sol\":2293:2394  function renounceOwnership() public virtual onlyOwner {... */\n      jump\t// out\n        /* \"contracts/VaultManager.sol\":1343:1422  address public constant YCRV_VAULT = 0x5533ed0a3b83F70c3c4a1f69Ef5546D3D4713E44 */\n    tag_70:\n        /* \"contracts/VaultManager.sol\":1380:1422  0x5533ed0a3b83F70c3c4a1f69Ef5546D3D4713E44 */\n      0x5533ed0a3b83f70c3c4a1f69ef5546d3d4713e44\n        /* \"contracts/VaultManager.sol\":1343:1422  address public constant YCRV_VAULT = 0x5533ed0a3b83F70c3c4a1f69Ef5546D3D4713E44 */\n      dup2\n      jump\t// out\n        /* \"contracts/VaultManager.sol\":1102:1175  address public constant USDC = 0xA0b86991c6218b36c1d19D4a2e9Eb0cE3606eB48 */\n    tag_73:\n        /* \"contracts/VaultManager.sol\":1133:1175  0xA0b86991c6218b36c1d19D4a2e9Eb0cE3606eB48 */\n      0xa0b86991c6218b36c1d19d4a2e9eb0ce3606eb48\n        /* \"contracts/VaultManager.sol\":1102:1175  address public constant USDC = 0xA0b86991c6218b36c1d19D4a2e9Eb0cE3606eB48 */\n      dup2\n      jump\t// out\n        /* \"@openzeppelin/contracts/access/Ownable.sol\":1638:1723  function owner() public view virtual returns (address) {... */\n    tag_76:\n        /* \"@openzeppelin/contracts/access/Ownable.sol\":1684:1691  address */\n      0x00\n        /* \"@openzeppelin/contracts/access/Ownable.sol\":1710:1716  _owner */\n      0x00\n      0x00\n      swap1\n      sload\n      swap1\n      0x0100\n      exp\n      swap1\n      div\n      0xffffffffffffffffffffffffffffffffffffffff\n      and\n        /* \"@openzeppelin/contracts/access/Ownable.sol\":1703:1716  return _owner */\n      swap1\n      pop\n        /* \"@openzeppelin/contracts/access/Ownable.sol\":1638:1723  function owner() public view virtual returns (address) {... */\n      swap1\n      jump\t// out\n        /* \"contracts/VaultManager.sol\":4250:4945  function donateToVault(address token, uint256 amount) public {... */\n    tag_81:\n        /* \"contracts/VaultManager.sol\":1053:1095  0xdAC17F958D2ee523a2206206994597C13D831ec7 */\n      0xdac17f958d2ee523a2206206994597c13d831ec7\n        /* \"contracts/VaultManager.sol\":4330:4343  token == USDT */\n      0xffffffffffffffffffffffffffffffffffffffff\n      and\n        /* \"contracts/VaultManager.sol\":4330:4335  token */\n      dup3\n        /* \"contracts/VaultManager.sol\":4330:4343  token == USDT */\n      0xffffffffffffffffffffffffffffffffffffffff\n      and\n      eq\n        /* \"contracts/VaultManager.sol\":4330:4360  token == USDT || token == USDC */\n      dup1\n      tag_138\n      jumpi\n      pop\n        /* \"contracts/VaultManager.sol\":1133:1175  0xA0b86991c6218b36c1d19D4a2e9Eb0cE3606eB48 */\n      0xa0b86991c6218b36c1d19d4a2e9eb0ce3606eb48\n        /* \"contracts/VaultManager.sol\":4347:4360  token == USDC */\n      0xffffffffffffffffffffffffffffffffffffffff\n      and\n        /* \"contracts/VaultManager.sol\":4347:4352  token */\n      dup3\n        /* \"contracts/VaultManager.sol\":4347:4360  token == USDC */\n      0xffffffffffffffffffffffffffffffffffffffff\n      and\n      eq\n        /* \"contracts/VaultManager.sol\":4330:4360  token == USDT || token == USDC */\n    tag_138:\n        /* \"contracts/VaultManager.sol\":4330:4376  token == USDT || token == USDC || token == DAI */\n      dup1\n      tag_139\n      jumpi\n      pop\n        /* \"contracts/VaultManager.sol\":1212:1254  0x6B175474E89094C44Da98b954EedeAC495271d0F */\n      0x6b175474e89094c44da98b954eedeac495271d0f\n        /* \"contracts/VaultManager.sol\":4364:4376  token == DAI */\n      0xffffffffffffffffffffffffffffffffffffffff\n      and\n        /* \"contracts/VaultManager.sol\":4364:4369  token */\n      dup3\n        /* \"contracts/VaultManager.sol\":4364:4376  token == DAI */\n      0xffffffffffffffffffffffffffffffffffffffff\n      and\n      eq\n        /* \"contracts/VaultManager.sol\":4330:4376  token == USDT || token == USDC || token == DAI */\n    tag_139:\n        /* \"contracts/VaultManager.sol\":4330:4393  token == USDT || token == USDC || token == DAI || token == SUSD */\n      dup1\n      tag_140\n      jumpi\n      pop\n        /* \"contracts/VaultManager.sol\":1292:1334  0x57Ab1ec28D129707052df4dF418D58a2D46d5f51 */\n      0x57ab1ec28d129707052df4df418d58a2d46d5f51\n        /* \"contracts/VaultManager.sol\":4380:4393  token == SUSD */\n      0xffffffffffffffffffffffffffffffffffffffff\n      and\n        /* \"contracts/VaultManager.sol\":4380:4385  token */\n      dup3\n        /* \"contracts/VaultManager.sol\":4380:4393  token == SUSD */\n      0xffffffffffffffffffffffffffffffffffffffff\n      and\n      eq\n        /* \"contracts/VaultManager.sol\":4330:4393  token == USDT || token == USDC || token == DAI || token == SUSD */\n    tag_140:\n        /* \"contracts/VaultManager.sol\":4322:4415  require(token == USDT || token == USDC || token == DAI || token == SUSD, \"Unsupported token\") */\n      tag_141\n      jumpi\n      mload(0x40)\n      0x08c379a000000000000000000000000000000000000000000000000000000000\n      dup2\n      mstore\n      0x04\n      add\n      tag_142\n      swap1\n      tag_143\n      jump\t// in\n    tag_142:\n      mload(0x40)\n      dup1\n      swap2\n      sub\n      swap1\n      revert\n    tag_141:\n        /* \"contracts/VaultManager.sol\":4443:4444  0 */\n      0x00\n        /* \"contracts/VaultManager.sol\":4434:4440  amount */\n      dup2\n        /* \"contracts/VaultManager.sol\":4434:4444  amount > 0 */\n      gt\n        /* \"contracts/VaultManager.sol\":4426:4481  require(amount > 0, \"Amount must be greater than zero\") */\n      tag_144\n      jumpi\n      mload(0x40)\n      0x08c379a000000000000000000000000000000000000000000000000000000000\n      dup2\n      mstore\n      0x04\n      add\n      tag_145\n      swap1\n      tag_146\n      jump\t// in\n    tag_145:\n      mload(0x40)\n      dup1\n      swap2\n      sub\n      swap1\n      revert\n    tag_144:\n        /* \"contracts/VaultManager.sol\":4542:4547  token */\n      dup2\n        /* \"contracts/VaultManager.sol\":4535:4561  IERC20(token).transferFrom */\n      0xffffffffffffffffffffffffffffffffffffffff\n      and\n      0x23b872dd\n        /* \"contracts/VaultManager.sol\":4562:4572  msg.sender */\n      caller\n        /* \"contracts/VaultManager.sol\":4582:4586  this */\n      address\n        /* \"contracts/VaultManager.sol\":4589:4595  amount */\n      dup5\n        /* \"contracts/VaultManager.sol\":4535:4596  IERC20(token).transferFrom(msg.sender, address(this), amount) */\n      mload(0x40)\n      dup5\n      0xffffffff\n      and\n      0xe0\n      shl\n      dup2\n      mstore\n      0x04\n      add\n      tag_147\n      swap4\n      swap3\n      swap2\n      swap1\n      tag_148\n      jump\t// in\n    tag_147:\n      0x20\n      mload(0x40)\n      dup1\n      dup4\n      sub\n      dup2\n      0x00\n      dup8\n      gas\n      call\n      iszero\n      dup1\n      iszero\n      tag_150\n      jumpi\n      returndatacopy(0x00, 0x00, returndatasize)\n      revert(0x00, returndatasize)\n    tag_150:\n      pop\n      pop\n      pop\n      pop\n      mload(0x40)\n      returndatasize\n      not(0x1f)\n      0x1f\n      dup3\n      add\n      and\n      dup3\n      add\n      dup1\n      0x40\n      mstore\n      pop\n      dup2\n      add\n      swap1\n      tag_151\n      swap2\n      swap1\n      tag_152\n      jump\t// in\n    tag_151:\n      pop\n        /* \"contracts/VaultManager.sol\":4614:4619  token */\n      dup2\n        /* \"contracts/VaultManager.sol\":4607:4628  IERC20(token).approve */\n      0xffffffffffffffffffffffffffffffffffffffff\n      and\n      0x095ea7b3\n        /* \"contracts/VaultManager.sol\":1380:1422  0x5533ed0a3b83F70c3c4a1f69Ef5546D3D4713E44 */\n      0x5533ed0a3b83f70c3c4a1f69ef5546d3d4713e44\n        /* \"contracts/VaultManager.sol\":4641:4647  amount */\n      dup4\n        /* \"contracts/VaultManager.sol\":4607:4648  IERC20(token).approve(YCRV_VAULT, amount) */\n      mload(0x40)\n      dup4\n      0xffffffff\n      and\n      0xe0\n      shl\n      dup2\n      mstore\n      0x04\n      add\n      tag_153\n      swap3\n      swap2\n      swap1\n      tag_154\n      jump\t// in\n    tag_153:\n      0x20\n      mload(0x40)\n      dup1\n      dup4\n      sub\n      dup2\n      0x00\n      dup8\n      gas\n      call\n      iszero\n      dup1\n      iszero\n      tag_156\n      jumpi\n      returndatacopy(0x00, 0x00, returndatasize)\n      revert(0x00, returndatasize)\n    tag_156:\n      pop\n      pop\n      pop\n      pop\n      mload(0x40)\n      returndatasize\n      not(0x1f)\n      0x1f\n      dup3\n      add\n      and\n      dup3\n      add\n      dup1\n      0x40\n      mstore\n      pop\n      dup2\n      add\n      swap1\n      tag_157\n      swap2\n      swap1\n      tag_152\n      jump\t// in\n    tag_157:\n      pop\n        /* \"contracts/VaultManager.sol\":1380:1422  0x5533ed0a3b83F70c3c4a1f69Ef5546D3D4713E44 */\n      0x5533ed0a3b83f70c3c4a1f69ef5546d3d4713e44\n        /* \"contracts/VaultManager.sol\":4659:4685  IVault(YCRV_VAULT).deposit */\n      0xffffffffffffffffffffffffffffffffffffffff\n      and\n      0xb6b55f25\n        /* \"contracts/VaultManager.sol\":4686:4692  amount */\n      dup3\n        /* \"contracts/VaultManager.sol\":4659:4693  IVault(YCRV_VAULT).deposit(amount) */\n      mload(0x40)\n      dup3\n      0xffffffff\n      and\n      0xe0\n      shl\n      dup2\n      mstore\n      0x04\n      add\n      tag_158\n      swap2\n      swap1\n      tag_66\n      jump\t// in\n    tag_158:\n      0x00\n      mload(0x40)\n      dup1\n      dup4\n      sub\n      dup2\n      0x00\n      dup8\n      dup1\n      extcodesize\n      iszero\n      dup1\n      iszero\n      tag_159\n      jumpi\n      revert(0x00, 0x00)\n    tag_159:\n      pop\n      gas\n      call\n      iszero\n      dup1\n      iszero\n      tag_161\n      jumpi\n      returndatacopy(0x00, 0x00, returndatasize)\n      revert(0x00, returndatasize)\n    tag_161:\n      pop\n      pop\n      pop\n      pop\n        /* \"contracts/VaultManager.sol\":4771:4790  uint256 nasicReward */\n      0x00\n        /* \"contracts/VaultManager.sol\":1897:1907  100 * 1e18 */\n      0x056bc75e2d63100000\n        /* \"contracts/VaultManager.sol\":4793:4799  amount */\n      dup3\n        /* \"contracts/VaultManager.sol\":4793:4815  amount * DONATION_RATE */\n      tag_162\n      swap2\n      swap1\n      tag_163\n      jump\t// in\n    tag_162:\n        /* \"contracts/VaultManager.sol\":4771:4815  uint256 nasicReward = amount * DONATION_RATE */\n      swap1\n      pop\n        /* \"contracts/VaultManager.sol\":4856:4867  nasicReward */\n      dup1\n        /* \"contracts/VaultManager.sol\":4826:4840  releasedTokens */\n      0x03\n        /* \"contracts/VaultManager.sol\":4826:4852  releasedTokens[msg.sender] */\n      0x00\n        /* \"contracts/VaultManager.sol\":4841:4851  msg.sender */\n      caller\n        /* \"contracts/VaultManager.sol\":4826:4852  releasedTokens[msg.sender] */\n      0xffffffffffffffffffffffffffffffffffffffff\n      and\n      0xffffffffffffffffffffffffffffffffffffffff\n      and\n      dup2\n      mstore\n      0x20\n      add\n      swap1\n      dup2\n      mstore\n      0x20\n      add\n      0x00\n      keccak256\n      0x00\n        /* \"contracts/VaultManager.sol\":4826:4867  releasedTokens[msg.sender] += nasicReward */\n      dup3\n      dup3\n      sload\n      tag_164\n      swap2\n      swap1\n      tag_121\n      jump\t// in\n    tag_164:\n      swap3\n      pop\n      pop\n      dup2\n      swap1\n      sstore\n      pop\n        /* \"contracts/VaultManager.sol\":4910:4915  token */\n      dup3\n        /* \"contracts/VaultManager.sol\":4885:4937  DonationMade(msg.sender, token, amount, nasicReward) */\n      0xffffffffffffffffffffffffffffffffffffffff\n      and\n        /* \"contracts/VaultManager.sol\":4898:4908  msg.sender */\n      caller\n        /* \"contracts/VaultManager.sol\":4885:4937  DonationMade(msg.sender, token, amount, nasicReward) */\n      0xffffffffffffffffffffffffffffffffffffffff\n      and\n      0x4322cf7bb5bdb39c0e2ffb7af737e3569d51766de459df25281823ffa30b4685\n        /* \"contracts/VaultManager.sol\":4917:4923  amount */\n      dup5\n        /* \"contracts/VaultManager.sol\":4925:4936  nasicReward */\n      dup5\n        /* \"contracts/VaultManager.sol\":4885:4937  DonationMade(msg.sender, token, amount, nasicReward) */\n      mload(0x40)\n      tag_165\n      swap3\n      swap2\n      swap1\n      tag_49\n      jump\t// in\n    tag_165:\n      mload(0x40)\n      dup1\n      swap2\n      sub\n      swap1\n      log3\n        /* \"contracts/VaultManager.sol\":4311:4945  {... */\n      pop\n        /* \"contracts/VaultManager.sol\":4250:4945  function donateToVault(address token, uint256 amount) public {... */\n      pop\n      pop\n      jump\t// out\n        /* \"contracts/VaultManager.sol\":3600:4242  function depositToVault(address token, uint256 amount) public {... */\n    tag_84:\n        /* \"contracts/VaultManager.sol\":1053:1095  0xdAC17F958D2ee523a2206206994597C13D831ec7 */\n      0xdac17f958d2ee523a2206206994597c13d831ec7\n        /* \"contracts/VaultManager.sol\":3681:3694  token == USDT */\n      0xffffffffffffffffffffffffffffffffffffffff\n      and\n        /* \"contracts/VaultManager.sol\":3681:3686  token */\n      dup3\n        /* \"contracts/VaultManager.sol\":3681:3694  token == USDT */\n      0xffffffffffffffffffffffffffffffffffffffff\n      and\n      eq\n        /* \"contracts/VaultManager.sol\":3681:3711  token == USDT || token == USDC */\n      dup1\n      tag_167\n      jumpi\n      pop\n        /* \"contracts/VaultManager.sol\":1133:1175  0xA0b86991c6218b36c1d19D4a2e9Eb0cE3606eB48 */\n      0xa0b86991c6218b36c1d19d4a2e9eb0ce3606eb48\n        /* \"contracts/VaultManager.sol\":3698:3711  token == USDC */\n      0xffffffffffffffffffffffffffffffffffffffff\n      and\n        /* \"contracts/VaultManager.sol\":3698:3703  token */\n      dup3\n        /* \"contracts/VaultManager.sol\":3698:3711  token == USDC */\n      0xffffffffffffffffffffffffffffffffffffffff\n      and\n      eq\n        /* \"contracts/VaultManager.sol\":3681:3711  token == USDT || token == USDC */\n    tag_167:\n        /* \"contracts/VaultManager.sol\":3681:3727  token == USDT || token == USDC || token == DAI */\n      dup1\n      tag_168\n      jumpi\n      pop\n        /* \"contracts/VaultManager.sol\":1212:1254  0x6B175474E89094C44Da98b954EedeAC495271d0F */\n      0x6b175474e89094c44da98b954eedeac495271d0f\n        /* \"contracts/VaultManager.sol\":3715:3727  token == DAI */\n      0xffffffffffffffffffffffffffffffffffffffff\n      and\n        /* \"contracts/VaultManager.sol\":3715:3720  token */\n      dup3\n        /* \"contracts/VaultManager.sol\":3715:3727  token == DAI */\n      0xffffffffffffffffffffffffffffffffffffffff\n      and\n      eq\n        /* \"contracts/VaultManager.sol\":3681:3727  token == USDT || token == USDC || token == DAI */\n    tag_168:\n        /* \"contracts/VaultManager.sol\":3681:3744  token == USDT || token == USDC || token == DAI || token == SUSD */\n      dup1\n      tag_169\n      jumpi\n      pop\n        /* \"contracts/VaultManager.sol\":1292:1334  0x57Ab1ec28D129707052df4dF418D58a2D46d5f51 */\n      0x57ab1ec28d129707052df4df418d58a2d46d5f51\n        /* \"contracts/VaultManager.sol\":3731:3744  token == SUSD */\n      0xffffffffffffffffffffffffffffffffffffffff\n      and\n        /* \"contracts/VaultManager.sol\":3731:3736  token */\n      dup3\n        /* \"contracts/VaultManager.sol\":3731:3744  token == SUSD */\n      0xffffffffffffffffffffffffffffffffffffffff\n      and\n      eq\n        /* \"contracts/VaultManager.sol\":3681:3744  token == USDT || token == USDC || token == DAI || token == SUSD */\n    tag_169:\n        /* \"contracts/VaultManager.sol\":3673:3766  require(token == USDT || token == USDC || token == DAI || token == SUSD, \"Unsupported token\") */\n      tag_170\n      jumpi\n      mload(0x40)\n      0x08c379a000000000000000000000000000000000000000000000000000000000\n      dup2\n      mstore\n      0x04\n      add\n      tag_171\n      swap1\n      tag_143\n      jump\t// in\n    tag_171:\n      mload(0x40)\n      dup1\n      swap2\n      sub\n      swap1\n      revert\n    tag_170:\n        /* \"contracts/VaultManager.sol\":3794:3795  0 */\n      0x00\n        /* \"contracts/VaultManager.sol\":3785:3791  amount */\n      dup2\n        /* \"contracts/VaultManager.sol\":3785:3795  amount > 0 */\n      gt\n        /* \"contracts/VaultManager.sol\":3777:3832  require(amount > 0, \"Amount must be greater than zero\") */\n      tag_172\n      jumpi\n      mload(0x40)\n      0x08c379a000000000000000000000000000000000000000000000000000000000\n      dup2\n      mstore\n      0x04\n      add\n      tag_173\n      swap1\n      tag_146\n      jump\t// in\n    tag_173:\n      mload(0x40)\n      dup1\n      swap2\n      sub\n      swap1\n      revert\n    tag_172:\n        /* \"contracts/VaultManager.sol\":3845:3873  DepositInfo storage userInfo */\n      0x00\n        /* \"contracts/VaultManager.sol\":3876:3888  userDeposits */\n      0x02\n        /* \"contracts/VaultManager.sol\":3876:3900  userDeposits[msg.sender] */\n      0x00\n        /* \"contracts/VaultManager.sol\":3889:3899  msg.sender */\n      caller\n        /* \"contracts/VaultManager.sol\":3876:3900  userDeposits[msg.sender] */\n      0xffffffffffffffffffffffffffffffffffffffff\n      and\n      0xffffffffffffffffffffffffffffffffffffffff\n      and\n      dup2\n      mstore\n      0x20\n      add\n      swap1\n      dup2\n      mstore\n      0x20\n      add\n      0x00\n      keccak256\n        /* \"contracts/VaultManager.sol\":3876:3907  userDeposits[msg.sender][token] */\n      0x00\n        /* \"contracts/VaultManager.sol\":3901:3906  token */\n      dup5\n        /* \"contracts/VaultManager.sol\":3876:3907  userDeposits[msg.sender][token] */\n      0xffffffffffffffffffffffffffffffffffffffff\n      and\n      0xffffffffffffffffffffffffffffffffffffffff\n      and\n      dup2\n      mstore\n      0x20\n      add\n      swap1\n      dup2\n      mstore\n      0x20\n      add\n      0x00\n      keccak256\n        /* \"contracts/VaultManager.sol\":3845:3907  DepositInfo storage userInfo = userDeposits[msg.sender][token] */\n      swap1\n      pop\n        /* \"contracts/VaultManager.sol\":3937:3943  amount */\n      dup2\n        /* \"contracts/VaultManager.sol\":3918:3926  userInfo */\n      dup2\n        /* \"contracts/VaultManager.sol\":3918:3933  userInfo.amount */\n      0x00\n      add\n      0x00\n        /* \"contracts/VaultManager.sol\":3918:3943  userInfo.amount += amount */\n      dup3\n      dup3\n      sload\n      tag_174\n      swap2\n      swap1\n      tag_121\n      jump\t// in\n    tag_174:\n      swap3\n      pop\n      pop\n      dup2\n      swap1\n      sstore\n      pop\n        /* \"contracts/VaultManager.sol\":3975:3990  block.timestamp */\n      timestamp\n        /* \"contracts/VaultManager.sol\":3954:3962  userInfo */\n      dup2\n        /* \"contracts/VaultManager.sol\":3954:3972  userInfo.timestamp */\n      0x01\n      add\n        /* \"contracts/VaultManager.sol\":3954:3990  userInfo.timestamp = block.timestamp */\n      dup2\n      swap1\n      sstore\n      pop\n        /* \"contracts/VaultManager.sol\":4010:4015  token */\n      dup3\n        /* \"contracts/VaultManager.sol\":4003:4029  IERC20(token).transferFrom */\n      0xffffffffffffffffffffffffffffffffffffffff\n      and\n      0x23b872dd\n        /* \"contracts/VaultManager.sol\":4030:4040  msg.sender */\n      caller\n        /* \"contracts/VaultManager.sol\":4050:4054  this */\n      address\n        /* \"contracts/VaultManager.sol\":4057:4063  amount */\n      dup6\n        /* \"contracts/VaultManager.sol\":4003:4064  IERC20(token).transferFrom(msg.sender, address(this), amount) */\n      mload(0x40)\n      dup5\n      0xffffffff\n      and\n      0xe0\n      shl\n      dup2\n      mstore\n      0x04\n      add\n      tag_175\n      swap4\n      swap3\n      swap2\n      swap1\n      tag_148\n      jump\t// in\n    tag_175:\n      0x20\n      mload(0x40)\n      dup1\n      dup4\n      sub\n      dup2\n      0x00\n      dup8\n      gas\n      call\n      iszero\n      dup1\n      iszero\n      tag_177\n      jumpi\n      returndatacopy(0x00, 0x00, returndatasize)\n      revert(0x00, returndatasize)\n    tag_177:\n      pop\n      pop\n      pop\n      pop\n      mload(0x40)\n      returndatasize\n      not(0x1f)\n      0x1f\n      dup3\n      add\n      and\n      dup3\n      add\n      dup1\n      0x40\n      mstore\n      pop\n      dup2\n      add\n      swap1\n      tag_178\n      swap2\n      swap1\n      tag_152\n      jump\t// in\n    tag_178:\n      pop\n        /* \"contracts/VaultManager.sol\":4082:4087  token */\n      dup3\n        /* \"contracts/VaultManager.sol\":4075:4096  IERC20(token).approve */\n      0xffffffffffffffffffffffffffffffffffffffff\n      and\n      0x095ea7b3\n        /* \"contracts/VaultManager.sol\":1380:1422  0x5533ed0a3b83F70c3c4a1f69Ef5546D3D4713E44 */\n      0x5533ed0a3b83f70c3c4a1f69ef5546d3d4713e44\n        /* \"contracts/VaultManager.sol\":4109:4115  amount */\n      dup5\n        /* \"contracts/VaultManager.sol\":4075:4116  IERC20(token).approve(YCRV_VAULT, amount) */\n      mload(0x40)\n      dup4\n      0xffffffff\n      and\n      0xe0\n      shl\n      dup2\n      mstore\n      0x04\n      add\n      tag_179\n      swap3\n      swap2\n      swap1\n      tag_154\n      jump\t// in\n    tag_179:\n      0x20\n      mload(0x40)\n      dup1\n      dup4\n      sub\n      dup2\n      0x00\n      dup8\n      gas\n      call\n      iszero\n      dup1\n      iszero\n      tag_181\n      jumpi\n      returndatacopy(0x00, 0x00, returndatasize)\n      revert(0x00, returndatasize)\n    tag_181:\n      pop\n      pop\n      pop\n      pop\n      mload(0x40)\n      returndatasize\n      not(0x1f)\n      0x1f\n      dup3\n      add\n      and\n      dup3\n      add\n      dup1\n      0x40\n      mstore\n      pop\n      dup2\n      add\n      swap1\n      tag_182\n      swap2\n      swap1\n      tag_152\n      jump\t// in\n    tag_182:\n      pop\n        /* \"contracts/VaultManager.sol\":1380:1422  0x5533ed0a3b83F70c3c4a1f69Ef5546D3D4713E44 */\n      0x5533ed0a3b83f70c3c4a1f69ef5546d3d4713e44\n        /* \"contracts/VaultManager.sol\":4127:4153  IVault(YCRV_VAULT).deposit */\n      0xffffffffffffffffffffffffffffffffffffffff\n      and\n      0xb6b55f25\n        /* \"contracts/VaultManager.sol\":4154:4160  amount */\n      dup4\n        /* \"contracts/VaultManager.sol\":4127:4161  IVault(YCRV_VAULT).deposit(amount) */\n      mload(0x40)\n      dup3\n      0xffffffff\n      and\n      0xe0\n      shl\n      dup2\n      mstore\n      0x04\n      add\n      tag_183\n      swap2\n      swap1\n      tag_66\n      jump\t// in\n    tag_183:\n      0x00\n      mload(0x40)\n      dup1\n      dup4\n      sub\n      dup2\n      0x00\n      dup8\n      dup1\n      extcodesize\n      iszero\n      dup1\n      iszero\n      tag_184\n      jumpi\n      revert(0x00, 0x00)\n    tag_184:\n      pop\n      gas\n      call\n      iszero\n      dup1\n      iszero\n      tag_186\n      jumpi\n      returndatacopy(0x00, 0x00, returndatasize)\n      revert(0x00, returndatasize)\n    tag_186:\n      pop\n      pop\n      pop\n      pop\n        /* \"contracts/VaultManager.sol\":4203:4208  token */\n      dup3\n        /* \"contracts/VaultManager.sol\":4179:4234  DepositMade(msg.sender, token, amount, block.timestamp) */\n      0xffffffffffffffffffffffffffffffffffffffff\n      and\n        /* \"contracts/VaultManager.sol\":4191:4201  msg.sender */\n      caller\n        /* \"contracts/VaultManager.sol\":4179:4234  DepositMade(msg.sender, token, amount, block.timestamp) */\n      0xffffffffffffffffffffffffffffffffffffffff\n      and\n      0x57bad7e3c9efecf6e1f60bbd846b999e9da4a409224287a8df09779f2330135e\n        /* \"contracts/VaultManager.sol\":4210:4216  amount */\n      dup5\n        /* \"contracts/VaultManager.sol\":4218:4233  block.timestamp */\n      timestamp\n        /* \"contracts/VaultManager.sol\":4179:4234  DepositMade(msg.sender, token, amount, block.timestamp) */\n      mload(0x40)\n      tag_187\n      swap3\n      swap2\n      swap1\n      tag_49\n      jump\t// in\n    tag_187:\n      mload(0x40)\n      dup1\n      swap2\n      sub\n      swap1\n      log3\n        /* \"contracts/VaultManager.sol\":3662:4242  {... */\n      pop\n        /* \"contracts/VaultManager.sol\":3600:4242  function depositToVault(address token, uint256 amount) public {... */\n      pop\n      pop\n      jump\t// out\n        /* \"contracts/VaultManager.sol\":3404:3493  function donateDAI(uint256 amount) external {... */\n    tag_87:\n        /* \"contracts/VaultManager.sol\":3459:3485  donateToVault(DAI, amount) */\n      tag_189\n        /* \"contracts/VaultManager.sol\":1212:1254  0x6B175474E89094C44Da98b954EedeAC495271d0F */\n      0x6b175474e89094c44da98b954eedeac495271d0f\n        /* \"contracts/VaultManager.sol\":3478:3484  amount */\n      dup3\n        /* \"contracts/VaultManager.sol\":3459:3472  donateToVault */\n      tag_81\n        /* \"contracts/VaultManager.sol\":3459:3485  donateToVault(DAI, amount) */\n      jump\t// in\n    tag_189:\n        /* \"contracts/VaultManager.sol\":3404:3493  function donateDAI(uint256 amount) external {... */\n      pop\n      jump\t// out\n        /* \"contracts/VaultManager.sol\":3501:3592  function donateSUSD(uint256 amount) external {... */\n    tag_90:\n        /* \"contracts/VaultManager.sol\":3557:3584  donateToVault(SUSD, amount) */\n      tag_191\n        /* \"contracts/VaultManager.sol\":1292:1334  0x57Ab1ec28D129707052df4dF418D58a2D46d5f51 */\n      0x57ab1ec28d129707052df4df418d58a2d46d5f51\n        /* \"contracts/VaultManager.sol\":3577:3583  amount */\n      dup3\n        /* \"contracts/VaultManager.sol\":3557:3570  donateToVault */\n      tag_81\n        /* \"contracts/VaultManager.sol\":3557:3584  donateToVault(SUSD, amount) */\n      jump\t// in\n    tag_191:\n        /* \"contracts/VaultManager.sol\":3501:3592  function donateSUSD(uint256 amount) external {... */\n      pop\n      jump\t// out\n        /* \"contracts/VaultManager.sol\":4953:5638  function withdrawFunds(address token, uint256 amount) external {... */\n    tag_93:\n        /* \"contracts/VaultManager.sol\":5027:5055  DepositInfo storage userInfo */\n      0x00\n        /* \"contracts/VaultManager.sol\":5058:5070  userDeposits */\n      0x02\n        /* \"contracts/VaultManager.sol\":5058:5082  userDeposits[msg.sender] */\n      0x00\n        /* \"contracts/VaultManager.sol\":5071:5081  msg.sender */\n      caller\n        /* \"contracts/VaultManager.sol\":5058:5082  userDeposits[msg.sender] */\n      0xffffffffffffffffffffffffffffffffffffffff\n      and\n      0xffffffffffffffffffffffffffffffffffffffff\n      and\n      dup2\n      mstore\n      0x20\n      add\n      swap1\n      dup2\n      mstore\n      0x20\n      add\n      0x00\n      keccak256\n        /* \"contracts/VaultManager.sol\":5058:5089  userDeposits[msg.sender][token] */\n      0x00\n        /* \"contracts/VaultManager.sol\":5083:5088  token */\n      dup5\n        /* \"contracts/VaultManager.sol\":5058:5089  userDeposits[msg.sender][token] */\n      0xffffffffffffffffffffffffffffffffffffffff\n      and\n      0xffffffffffffffffffffffffffffffffffffffff\n      and\n      dup2\n      mstore\n      0x20\n      add\n      swap1\n      dup2\n      mstore\n      0x20\n      add\n      0x00\n      keccak256\n        /* \"contracts/VaultManager.sol\":5027:5089  DepositInfo storage userInfo = userDeposits[msg.sender][token] */\n      swap1\n      pop\n        /* \"contracts/VaultManager.sol\":5127:5133  amount */\n      dup2\n        /* \"contracts/VaultManager.sol\":5108:5116  userInfo */\n      dup2\n        /* \"contracts/VaultManager.sol\":5108:5123  userInfo.amount */\n      0x00\n      add\n      sload\n        /* \"contracts/VaultManager.sol\":5108:5133  userInfo.amount >= amount */\n      lt\n      iszero\n        /* \"contracts/VaultManager.sol\":5100:5158  require(userInfo.amount >= amount, \"Insufficient balance\") */\n      tag_193\n      jumpi\n      mload(0x40)\n      0x08c379a000000000000000000000000000000000000000000000000000000000\n      dup2\n      mstore\n      0x04\n      add\n      tag_194\n      swap1\n      tag_195\n      jump\t// in\n    tag_194:\n      mload(0x40)\n      dup1\n      swap2\n      sub\n      swap1\n      revert\n    tag_193:\n        /* \"contracts/VaultManager.sol\":5217:5230  7 * 24 * 3600 */\n      0x093a80\n        /* \"contracts/VaultManager.sol\":5196:5204  userInfo */\n      dup2\n        /* \"contracts/VaultManager.sol\":5196:5214  userInfo.timestamp */\n      0x01\n      add\n      sload\n        /* \"contracts/VaultManager.sol\":5196:5230  userInfo.timestamp + 7 * 24 * 3600 */\n      tag_196\n      swap2\n      swap1\n      tag_121\n      jump\t// in\n    tag_196:\n        /* \"contracts/VaultManager.sol\":5177:5192  block.timestamp */\n      timestamp\n        /* \"contracts/VaultManager.sol\":5177:5230  block.timestamp >= userInfo.timestamp + 7 * 24 * 3600 */\n      lt\n      iszero\n        /* \"contracts/VaultManager.sol\":5169:5263  require(block.timestamp >= userInfo.timestamp + 7 * 24 * 3600, \"Withdrawal locked for 7 days\") */\n      tag_197\n      jumpi\n      mload(0x40)\n      0x08c379a000000000000000000000000000000000000000000000000000000000\n      dup2\n      mstore\n      0x04\n      add\n      tag_198\n      swap1\n      tag_199\n      jump\t// in\n    tag_198:\n      mload(0x40)\n      dup1\n      swap2\n      sub\n      swap1\n      revert\n    tag_197:\n        /* \"contracts/VaultManager.sol\":5295:5301  amount */\n      dup2\n        /* \"contracts/VaultManager.sol\":5276:5284  userInfo */\n      dup2\n        /* \"contracts/VaultManager.sol\":5276:5291  userInfo.amount */\n      0x00\n      add\n      0x00\n        /* \"contracts/VaultManager.sol\":5276:5301  userInfo.amount -= amount */\n      dup3\n      dup3\n      sload\n      tag_200\n      swap2\n      swap1\n      tag_201\n      jump\t// in\n    tag_200:\n      swap3\n      pop\n      pop\n      dup2\n      swap1\n      sstore\n      pop\n        /* \"contracts/VaultManager.sol\":5314:5330  uint256 timeHeld */\n      0x00\n        /* \"contracts/VaultManager.sol\":5351:5359  userInfo */\n      dup2\n        /* \"contracts/VaultManager.sol\":5351:5369  userInfo.timestamp */\n      0x01\n      add\n      sload\n        /* \"contracts/VaultManager.sol\":5333:5348  block.timestamp */\n      timestamp\n        /* \"contracts/VaultManager.sol\":5333:5369  block.timestamp - userInfo.timestamp */\n      tag_202\n      swap2\n      swap1\n      tag_201\n      jump\t// in\n    tag_202:\n        /* \"contracts/VaultManager.sol\":5314:5369  uint256 timeHeld = block.timestamp - userInfo.timestamp */\n      swap1\n      pop\n        /* \"contracts/VaultManager.sol\":5380:5399  uint256 extraTokens */\n      0x00\n        /* \"contracts/VaultManager.sol\":5440:5444  1e18 */\n      0x0de0b6b3a7640000\n        /* \"contracts/VaultManager.sol\":5430:5436  amount */\n      dup5\n        /* \"contracts/VaultManager.sol\":1698:1713  365 * 24 * 3600 */\n      0x01e13380\n        /* \"contracts/VaultManager.sol\":1782:1786  1e18 */\n      0x0de0b6b3a7640000\n        /* \"contracts/VaultManager.sol\":1782:1804  1e18 / YEAR_IN_SECONDS */\n      tag_203\n      swap2\n      swap1\n      tag_204\n      jump\t// in\n    tag_203:\n        /* \"contracts/VaultManager.sol\":5403:5411  timeHeld */\n      dup5\n        /* \"contracts/VaultManager.sol\":5403:5427  timeHeld * NASICOIN_RATE */\n      tag_205\n      swap2\n      swap1\n      tag_163\n      jump\t// in\n    tag_205:\n        /* \"contracts/VaultManager.sol\":5403:5436  timeHeld * NASICOIN_RATE * amount */\n      tag_206\n      swap2\n      swap1\n      tag_163\n      jump\t// in\n    tag_206:\n        /* \"contracts/VaultManager.sol\":5402:5444  (timeHeld * NASICOIN_RATE * amount) / 1e18 */\n      tag_207\n      swap2\n      swap1\n      tag_204\n      jump\t// in\n    tag_207:\n        /* \"contracts/VaultManager.sol\":5380:5444  uint256 extraTokens = (timeHeld * NASICOIN_RATE * amount) / 1e18 */\n      swap1\n      pop\n        /* \"contracts/VaultManager.sol\":5487:5498  extraTokens */\n      dup1\n        /* \"contracts/VaultManager.sol\":5457:5471  releasedTokens */\n      0x03\n        /* \"contracts/VaultManager.sol\":5457:5483  releasedTokens[msg.sender] */\n      0x00\n        /* \"contracts/VaultManager.sol\":5472:5482  msg.sender */\n      caller\n        /* \"contracts/VaultManager.sol\":5457:5483  releasedTokens[msg.sender] */\n      0xffffffffffffffffffffffffffffffffffffffff\n      and\n      0xffffffffffffffffffffffffffffffffffffffff\n      and\n      dup2\n      mstore\n      0x20\n      add\n      swap1\n      dup2\n      mstore\n      0x20\n      add\n      0x00\n      keccak256\n      0x00\n        /* \"contracts/VaultManager.sol\":5457:5498  releasedTokens[msg.sender] += extraTokens */\n      dup3\n      dup3\n      sload\n      tag_208\n      swap2\n      swap1\n      tag_121\n      jump\t// in\n    tag_208:\n      swap3\n      pop\n      pop\n      dup2\n      swap1\n      sstore\n      pop\n        /* \"contracts/VaultManager.sol\":5518:5523  token */\n      dup5\n        /* \"contracts/VaultManager.sol\":5511:5533  IERC20(token).transfer */\n      0xffffffffffffffffffffffffffffffffffffffff\n      and\n      0xa9059cbb\n        /* \"contracts/VaultManager.sol\":5534:5544  msg.sender */\n      caller\n        /* \"contracts/VaultManager.sol\":5546:5552  amount */\n      dup7\n        /* \"contracts/VaultManager.sol\":5511:5553  IERC20(token).transfer(msg.sender, amount) */\n      mload(0x40)\n      dup4\n      0xffffffff\n      and\n      0xe0\n      shl\n      dup2\n      mstore\n      0x04\n      add\n      tag_209\n      swap3\n      swap2\n      swap1\n      tag_154\n      jump\t// in\n    tag_209:\n      0x20\n      mload(0x40)\n      dup1\n      dup4\n      sub\n      dup2\n      0x00\n      dup8\n      gas\n      call\n      iszero\n      dup1\n      iszero\n      tag_211\n      jumpi\n      returndatacopy(0x00, 0x00, returndatasize)\n      revert(0x00, returndatasize)\n    tag_211:\n      pop\n      pop\n      pop\n      pop\n      mload(0x40)\n      returndatasize\n      not(0x1f)\n      0x1f\n      dup3\n      add\n      and\n      dup3\n      add\n      dup1\n      0x40\n      mstore\n      pop\n      dup2\n      add\n      swap1\n      tag_212\n      swap2\n      swap1\n      tag_152\n      jump\t// in\n    tag_212:\n      pop\n        /* \"contracts/VaultManager.sol\":5603:5608  token */\n      dup5\n        /* \"contracts/VaultManager.sol\":5571:5630  WithdrawalCompleted(msg.sender, token, amount, extraTokens) */\n      0xffffffffffffffffffffffffffffffffffffffff\n      and\n        /* \"contracts/VaultManager.sol\":5591:5601  msg.sender */\n      caller\n        /* \"contracts/VaultManager.sol\":5571:5630  WithdrawalCompleted(msg.sender, token, amount, extraTokens) */\n      0xffffffffffffffffffffffffffffffffffffffff\n      and\n      0xe01911a56be554fae2e8c04ebcc1c56c757ce4583c883b878180a6ce99fc8a09\n        /* \"contracts/VaultManager.sol\":5610:5616  amount */\n      dup7\n        /* \"contracts/VaultManager.sol\":5618:5629  extraTokens */\n      dup5\n        /* \"contracts/VaultManager.sol\":5571:5630  WithdrawalCompleted(msg.sender, token, amount, extraTokens) */\n      mload(0x40)\n      tag_213\n      swap3\n      swap2\n      swap1\n      tag_49\n      jump\t// in\n    tag_213:\n      mload(0x40)\n      dup1\n      swap2\n      sub\n      swap1\n      log3\n        /* \"contracts/VaultManager.sol\":5016:5638  {... */\n      pop\n      pop\n      pop\n        /* \"contracts/VaultManager.sol\":4953:5638  function withdrawFunds(address token, uint256 amount) external {... */\n      pop\n      pop\n      jump\t// out\n        /* \"contracts/VaultManager.sol\":1022:1095  address public constant USDT = 0xdAC17F958D2ee523a2206206994597C13D831ec7 */\n    tag_95:\n        /* \"contracts/VaultManager.sol\":1053:1095  0xdAC17F958D2ee523a2206206994597C13D831ec7 */\n      0xdac17f958d2ee523a2206206994597c13d831ec7\n        /* \"contracts/VaultManager.sol\":1022:1095  address public constant USDT = 0xdAC17F958D2ee523a2206206994597C13D831ec7 */\n      dup2\n      jump\t// out\n        /* \"contracts/VaultManager.sol\":6106:6779  function calculateWeeklyProfits() external onlyOwner {... */\n    tag_98:\n        /* \"@openzeppelin/contracts/access/Ownable.sol\":1531:1544  _checkOwner() */\n      tag_215\n        /* \"@openzeppelin/contracts/access/Ownable.sol\":1531:1542  _checkOwner */\n      tag_114\n        /* \"@openzeppelin/contracts/access/Ownable.sol\":1531:1544  _checkOwner() */\n      jump\t// in\n    tag_215:\n        /* \"contracts/VaultManager.sol\":6170:6185  uint256 profits */\n      0x00\n        /* \"contracts/VaultManager.sol\":1380:1422  0x5533ed0a3b83F70c3c4a1f69Ef5546D3D4713E44 */\n      0x5533ed0a3b83f70c3c4a1f69ef5546d3d4713e44\n        /* \"contracts/VaultManager.sol\":6188:6216  IVault(YCRV_VAULT).getProfit */\n      0xffffffffffffffffffffffffffffffffffffffff\n      and\n      0xc600e1dc\n        /* \"contracts/VaultManager.sol\":6225:6229  this */\n      address\n        /* \"contracts/VaultManager.sol\":6188:6231  IVault(YCRV_VAULT).getProfit(address(this)) */\n      mload(0x40)\n      dup3\n      0xffffffff\n      and\n      0xe0\n      shl\n      dup2\n      mstore\n      0x04\n      add\n      tag_217\n      swap2\n      swap1\n      tag_37\n      jump\t// in\n    tag_217:\n      0x20\n      mload(0x40)\n      dup1\n      dup4\n      sub\n      dup2\n      dup7\n      gas\n      staticcall\n      iszero\n      dup1\n      iszero\n      tag_219\n      jumpi\n      returndatacopy(0x00, 0x00, returndatasize)\n      revert(0x00, returndatasize)\n    tag_219:\n      pop\n      pop\n      pop\n      pop\n      mload(0x40)\n      returndatasize\n      not(0x1f)\n      0x1f\n      dup3\n      add\n      and\n      dup3\n      add\n      dup1\n      0x40\n      mstore\n      pop\n      dup2\n      add\n      swap1\n      tag_220\n      swap2\n      swap1\n      tag_221\n      jump\t// in\n    tag_220:\n        /* \"contracts/VaultManager.sol\":6170:6231  uint256 profits = IVault(YCRV_VAULT).getProfit(address(this)) */\n      swap1\n      pop\n        /* \"contracts/VaultManager.sol\":6242:6263  uint256 totalInvested */\n      0x00\n        /* \"contracts/VaultManager.sol\":1380:1422  0x5533ed0a3b83F70c3c4a1f69Ef5546D3D4713E44 */\n      0x5533ed0a3b83f70c3c4a1f69ef5546d3d4713e44\n        /* \"contracts/VaultManager.sol\":6266:6294  IVault(YCRV_VAULT).balanceOf */\n      0xffffffffffffffffffffffffffffffffffffffff\n      and\n      0x70a08231\n        /* \"contracts/VaultManager.sol\":6303:6307  this */\n      address\n        /* \"contracts/VaultManager.sol\":6266:6309  IVault(YCRV_VAULT).balanceOf(address(this)) */\n      mload(0x40)\n      dup3\n      0xffffffff\n      and\n      0xe0\n      shl\n      dup2\n      mstore\n      0x04\n      add\n      tag_222\n      swap2\n      swap1\n      tag_37\n      jump\t// in\n    tag_222:\n      0x20\n      mload(0x40)\n      dup1\n      dup4\n      sub\n      dup2\n      dup7\n      gas\n      staticcall\n      iszero\n      dup1\n      iszero\n      tag_224\n      jumpi\n      returndatacopy(0x00, 0x00, returndatasize)\n      revert(0x00, returndatasize)\n    tag_224:\n      pop\n      pop\n      pop\n      pop\n      mload(0x40)\n      returndatasize\n      not(0x1f)\n      0x1f\n      dup3\n      add\n      and\n      dup3\n      add\n      dup1\n      0x40\n      mstore\n      pop\n      dup2\n      add\n      swap1\n      tag_225\n      swap2\n      swap1\n      tag_221\n      jump\t// in\n    tag_225:\n        /* \"contracts/VaultManager.sol\":6242:6309  uint256 totalInvested = IVault(YCRV_VAULT).balanceOf(address(this)) */\n      swap1\n      pop\n        /* \"contracts/VaultManager.sol\":6320:6338  uint256 reinvested */\n      0x00\n        /* \"contracts/VaultManager.sol\":6358:6361  100 */\n      0x64\n        /* \"contracts/VaultManager.sol\":6352:6354  50 */\n      0x32\n        /* \"contracts/VaultManager.sol\":6342:6349  profits */\n      dup5\n        /* \"contracts/VaultManager.sol\":6342:6354  profits * 50 */\n      tag_226\n      swap2\n      swap1\n      tag_163\n      jump\t// in\n    tag_226:\n        /* \"contracts/VaultManager.sol\":6341:6361  (profits * 50) / 100 */\n      tag_227\n      swap2\n      swap1\n      tag_204\n      jump\t// in\n    tag_227:\n        /* \"contracts/VaultManager.sol\":6320:6361  uint256 reinvested = (profits * 50) / 100 */\n      swap1\n      pop\n        /* \"contracts/VaultManager.sol\":6388:6400  prizeManager */\n      0x01\n      0x00\n      swap1\n      sload\n      swap1\n      0x0100\n      exp\n      swap1\n      div\n      0xffffffffffffffffffffffffffffffffffffffff\n      and\n        /* \"contracts/VaultManager.sol\":6374:6421  IPrizeManager(prizeManager).updateWeeklyProfits */\n      0xffffffffffffffffffffffffffffffffffffffff\n      and\n      0xa975b892\n        /* \"contracts/VaultManager.sol\":6422:6429  profits */\n      dup5\n        /* \"contracts/VaultManager.sol\":6431:6444  totalInvested */\n      dup5\n        /* \"contracts/VaultManager.sol\":6446:6456  reinvested */\n      dup5\n        /* \"contracts/VaultManager.sol\":6374:6457  IPrizeManager(prizeManager).updateWeeklyProfits(profits, totalInvested, reinvested) */\n      mload(0x40)\n      dup5\n      0xffffffff\n      and\n      0xe0\n      shl\n      dup2\n      mstore\n      0x04\n      add\n      tag_228\n      swap4\n      swap3\n      swap2\n      swap1\n      tag_229\n      jump\t// in\n    tag_228:\n      0x00\n      mload(0x40)\n      dup1\n      dup4\n      sub\n      dup2\n      0x00\n      dup8\n      dup1\n      extcodesize\n      iszero\n      dup1\n      iszero\n      tag_230\n      jumpi\n      revert(0x00, 0x00)\n    tag_230:\n      pop\n      gas\n      call\n      iszero\n      dup1\n      iszero\n      tag_232\n      jumpi\n      returndatacopy(0x00, 0x00, returndatasize)\n      revert(0x00, returndatasize)\n    tag_232:\n      pop\n      pop\n      pop\n      pop\n        /* \"contracts/VaultManager.sol\":6475:6771  WeeklyReport(... */\n      0x8eaaff2ba16da1160fd06ccb389b317b1eeba725461562003201a60ae6cb9750\n        /* \"contracts/VaultManager.sol\":6502:6515  totalInvested */\n      dup3\n        /* \"contracts/VaultManager.sol\":6530:6537  profits */\n      dup5\n        /* \"contracts/VaultManager.sol\":6552:6553  0 */\n      0x00\n        /* \"contracts/VaultManager.sol\":6606:6607  0 */\n      0x00\n        /* \"contracts/VaultManager.sol\":6663:6664  0 */\n      0x00\n        /* \"contracts/VaultManager.sol\":6718:6719  0 */\n      0x00\n        /* \"contracts/VaultManager.sol\":6475:6771  WeeklyReport(... */\n      mload(0x40)\n      tag_233\n      swap7\n      swap6\n      swap5\n      swap4\n      swap3\n      swap2\n      swap1\n      tag_234\n      jump\t// in\n    tag_233:\n      mload(0x40)\n      dup1\n      swap2\n      sub\n      swap1\n      log1\n        /* \"contracts/VaultManager.sol\":6159:6779  {... */\n      pop\n      pop\n      pop\n        /* \"contracts/VaultManager.sol\":6106:6779  function calculateWeeklyProfits() external onlyOwner {... */\n      jump\t// out\n        /* \"contracts/VaultManager.sol\":1182:1254  address public constant DAI = 0x6B175474E89094C44Da98b954EedeAC495271d0F */\n    tag_100:\n        /* \"contracts/VaultManager.sol\":1212:1254  0x6B175474E89094C44Da98b954EedeAC495271d0F */\n      0x6b175474e89094c44da98b954eedeac495271d0f\n        /* \"contracts/VaultManager.sol\":1182:1254  address public constant DAI = 0x6B175474E89094C44Da98b954EedeAC495271d0F */\n      dup2\n      jump\t// out\n        /* \"@openzeppelin/contracts/access/Ownable.sol\":2543:2758  function transferOwnership(address newOwner) public virtual onlyOwner {... */\n    tag_104:\n        /* \"@openzeppelin/contracts/access/Ownable.sol\":1531:1544  _checkOwner() */\n      tag_236\n        /* \"@openzeppelin/contracts/access/Ownable.sol\":1531:1542  _checkOwner */\n      tag_114\n        /* \"@openzeppelin/contracts/access/Ownable.sol\":1531:1544  _checkOwner() */\n      jump\t// in\n    tag_236:\n        /* \"@openzeppelin/contracts/access/Ownable.sol\":2647:2648  0 */\n      0x00\n        /* \"@openzeppelin/contracts/access/Ownable.sol\":2627:2649  newOwner == address(0) */\n      0xffffffffffffffffffffffffffffffffffffffff\n      and\n        /* \"@openzeppelin/contracts/access/Ownable.sol\":2627:2635  newOwner */\n      dup2\n        /* \"@openzeppelin/contracts/access/Ownable.sol\":2627:2649  newOwner == address(0) */\n      0xffffffffffffffffffffffffffffffffffffffff\n      and\n      sub\n        /* \"@openzeppelin/contracts/access/Ownable.sol\":2623:2714  if (newOwner == address(0)) {... */\n      tag_238\n      jumpi\n        /* \"@openzeppelin/contracts/access/Ownable.sol\":2700:2701  0 */\n      0x00\n        /* \"@openzeppelin/contracts/access/Ownable.sol\":2672:2703  OwnableInvalidOwner(address(0)) */\n      mload(0x40)\n      0x1e4fbdf700000000000000000000000000000000000000000000000000000000\n      dup2\n      mstore\n      0x04\n      add\n      tag_239\n      swap2\n      swap1\n      tag_37\n      jump\t// in\n    tag_239:\n      mload(0x40)\n      dup1\n      swap2\n      sub\n      swap1\n      revert\n        /* \"@openzeppelin/contracts/access/Ownable.sol\":2623:2714  if (newOwner == address(0)) {... */\n    tag_238:\n        /* \"@openzeppelin/contracts/access/Ownable.sol\":2723:2751  _transferOwnership(newOwner) */\n      tag_240\n        /* \"@openzeppelin/contracts/access/Ownable.sol\":2742:2750  newOwner */\n      dup2\n        /* \"@openzeppelin/contracts/access/Ownable.sol\":2723:2741  _transferOwnership */\n      tag_135\n        /* \"@openzeppelin/contracts/access/Ownable.sol\":2723:2751  _transferOwnership(newOwner) */\n      jump\t// in\n    tag_240:\n        /* \"@openzeppelin/contracts/access/Ownable.sol\":2543:2758  function transferOwnership(address newOwner) public virtual onlyOwner {... */\n      pop\n      jump\t// out\n        /* \"contracts/VaultManager.sol\":3305:3396  function donateUSDC(uint256 amount) external {... */\n    tag_107:\n        /* \"contracts/VaultManager.sol\":3361:3388  donateToVault(USDC, amount) */\n      tag_242\n        /* \"contracts/VaultManager.sol\":1133:1175  0xA0b86991c6218b36c1d19D4a2e9Eb0cE3606eB48 */\n      0xa0b86991c6218b36c1d19d4a2e9eb0ce3606eb48\n        /* \"contracts/VaultManager.sol\":3381:3387  amount */\n      dup3\n        /* \"contracts/VaultManager.sol\":3361:3374  donateToVault */\n      tag_81\n        /* \"contracts/VaultManager.sol\":3361:3388  donateToVault(USDC, amount) */\n      jump\t// in\n    tag_242:\n        /* \"contracts/VaultManager.sol\":3305:3396  function donateUSDC(uint256 amount) external {... */\n      pop\n      jump\t// out\n        /* \"@openzeppelin/contracts/access/Ownable.sol\":1796:1958  function _checkOwner() internal view virtual {... */\n    tag_114:\n        /* \"@openzeppelin/contracts/access/Ownable.sol\":1866:1878  _msgSender() */\n      tag_244\n        /* \"@openzeppelin/contracts/access/Ownable.sol\":1866:1876  _msgSender */\n      tag_245\n        /* \"@openzeppelin/contracts/access/Ownable.sol\":1866:1878  _msgSender() */\n      jump\t// in\n    tag_244:\n        /* \"@openzeppelin/contracts/access/Ownable.sol\":1855:1878  owner() != _msgSender() */\n      0xffffffffffffffffffffffffffffffffffffffff\n      and\n        /* \"@openzeppelin/contracts/access/Ownable.sol\":1855:1862  owner() */\n      tag_246\n        /* \"@openzeppelin/contracts/access/Ownable.sol\":1855:1860  owner */\n      tag_76\n        /* \"@openzeppelin/contracts/access/Ownable.sol\":1855:1862  owner() */\n      jump\t// in\n    tag_246:\n        /* \"@openzeppelin/contracts/access/Ownable.sol\":1855:1878  owner() != _msgSender() */\n      0xffffffffffffffffffffffffffffffffffffffff\n      and\n      eq\n        /* \"@openzeppelin/contracts/access/Ownable.sol\":1851:1952  if (owner() != _msgSender()) {... */\n      tag_247\n      jumpi\n        /* \"@openzeppelin/contracts/access/Ownable.sol\":1928:1940  _msgSender() */\n      tag_248\n        /* \"@openzeppelin/contracts/access/Ownable.sol\":1928:1938  _msgSender */\n      tag_245\n        /* \"@openzeppelin/contracts/access/Ownable.sol\":1928:1940  _msgSender() */\n      jump\t// in\n    tag_248:\n        /* \"@openzeppelin/contracts/access/Ownable.sol\":1901:1941  OwnableUnauthorizedAccount(_msgSender()) */\n      mload(0x40)\n      0x118cdaa700000000000000000000000000000000000000000000000000000000\n      dup2\n      mstore\n      0x04\n      add\n      tag_249\n      swap2\n      swap1\n      tag_37\n      jump\t// in\n    tag_249:\n      mload(0x40)\n      dup1\n      swap2\n      sub\n      swap1\n      revert\n        /* \"@openzeppelin/contracts/access/Ownable.sol\":1851:1952  if (owner() != _msgSender()) {... */\n    tag_247:\n        /* \"@openzeppelin/contracts/access/Ownable.sol\":1796:1958  function _checkOwner() internal view virtual {... */\n      jump\t// out\n        /* \"@openzeppelin/contracts/access/Ownable.sol\":2912:3099  function _transferOwnership(address newOwner) internal virtual {... */\n    tag_135:\n        /* \"@openzeppelin/contracts/access/Ownable.sol\":2985:3001  address oldOwner */\n      0x00\n        /* \"@openzeppelin/contracts/access/Ownable.sol\":3004:3010  _owner */\n      0x00\n      0x00\n      swap1\n      sload\n      swap1\n      0x0100\n      exp\n      swap1\n      div\n      0xffffffffffffffffffffffffffffffffffffffff\n      and\n        /* \"@openzeppelin/contracts/access/Ownable.sol\":2985:3010  address oldOwner = _owner */\n      swap1\n      pop\n        /* \"@openzeppelin/contracts/access/Ownable.sol\":3029:3037  newOwner */\n      dup2\n        /* \"@openzeppelin/contracts/access/Ownable.sol\":3020:3026  _owner */\n      0x00\n      0x00\n        /* \"@openzeppelin/contracts/access/Ownable.sol\":3020:3037  _owner = newOwner */\n      0x0100\n      exp\n      dup2\n      sload\n      dup2\n      0xffffffffffffffffffffffffffffffffffffffff\n      mul\n      not\n      and\n      swap1\n      dup4\n      0xffffffffffffffffffffffffffffffffffffffff\n      and\n      mul\n      or\n      swap1\n      sstore\n      pop\n        /* \"@openzeppelin/contracts/access/Ownable.sol\":3083:3091  newOwner */\n      dup2\n        /* \"@openzeppelin/contracts/access/Ownable.sol\":3052:3092  OwnershipTransferred(oldOwner, newOwner) */\n      0xffffffffffffffffffffffffffffffffffffffff\n      and\n        /* \"@openzeppelin/contracts/access/Ownable.sol\":3073:3081  oldOwner */\n      dup2\n        /* \"@openzeppelin/contracts/access/Ownable.sol\":3052:3092  OwnershipTransferred(oldOwner, newOwner) */\n      0xffffffffffffffffffffffffffffffffffffffff\n      and\n      0x8be0079c531659141344cd1fd0a4f28419497f9722a3daafe3b4186f6b6457e0\n      mload(0x40)\n      mload(0x40)\n      dup1\n      swap2\n      sub\n      swap1\n      log3\n        /* \"@openzeppelin/contracts/access/Ownable.sol\":2975:3099  {... */\n      pop\n        /* \"@openzeppelin/contracts/access/Ownable.sol\":2912:3099  function _transferOwnership(address newOwner) internal virtual {... */\n      pop\n      jump\t// out\n        /* \"@openzeppelin/contracts/utils/Context.sol\":656:752  function _msgSender() internal view virtual returns (address) {... */\n    tag_245:\n        /* \"@openzeppelin/contracts/utils/Context.sol\":709:716  address */\n      0x00\n        /* \"@openzeppelin/contracts/utils/Context.sol\":735:745  msg.sender */\n      caller\n        /* \"@openzeppelin/contracts/utils/Context.sol\":728:745  return msg.sender */\n      swap1\n      pop\n        /* \"@openzeppelin/contracts/utils/Context.sol\":656:752  function _msgSender() internal view virtual returns (address) {... */\n      swap1\n      jump\t// out\n        /* \"#utility.yul\":88:205   */\n    tag_253:\n        /* \"#utility.yul\":197:198   */\n      0x00\n        /* \"#utility.yul\":194:195   */\n      0x00\n        /* \"#utility.yul\":187:199   */\n      revert\n        /* \"#utility.yul\":334:411   */\n    tag_255:\n        /* \"#utility.yul\":371:378   */\n      0x00\n        /* \"#utility.yul\":400:405   */\n      dup2\n        /* \"#utility.yul\":389:405   */\n      swap1\n      pop\n        /* \"#utility.yul\":334:411   */\n      swap2\n      swap1\n      pop\n      jump\t// out\n        /* \"#utility.yul\":417:539   */\n    tag_256:\n        /* \"#utility.yul\":490:514   */\n      tag_289\n        /* \"#utility.yul\":508:513   */\n      dup2\n        /* \"#utility.yul\":490:514   */\n      tag_255\n      jump\t// in\n    tag_289:\n        /* \"#utility.yul\":483:488   */\n      dup2\n        /* \"#utility.yul\":480:515   */\n      eq\n        /* \"#utility.yul\":470:533   */\n      tag_290\n      jumpi\n        /* \"#utility.yul\":529:530   */\n      0x00\n        /* \"#utility.yul\":526:527   */\n      0x00\n        /* \"#utility.yul\":519:531   */\n      revert\n        /* \"#utility.yul\":470:533   */\n    tag_290:\n        /* \"#utility.yul\":417:539   */\n      pop\n      jump\t// out\n        /* \"#utility.yul\":545:684   */\n    tag_257:\n        /* \"#utility.yul\":591:596   */\n      0x00\n        /* \"#utility.yul\":629:635   */\n      dup2\n        /* \"#utility.yul\":616:636   */\n      calldataload\n        /* \"#utility.yul\":607:636   */\n      swap1\n      pop\n        /* \"#utility.yul\":645:678   */\n      tag_292\n        /* \"#utility.yul\":672:677   */\n      dup2\n        /* \"#utility.yul\":645:678   */\n      tag_256\n      jump\t// in\n    tag_292:\n        /* \"#utility.yul\":545:684   */\n      swap3\n      swap2\n      pop\n      pop\n      jump\t// out\n        /* \"#utility.yul\":690:1019   */\n    tag_32:\n        /* \"#utility.yul\":749:755   */\n      0x00\n        /* \"#utility.yul\":798:800   */\n      0x20\n        /* \"#utility.yul\":786:795   */\n      dup3\n        /* \"#utility.yul\":777:784   */\n      dup5\n        /* \"#utility.yul\":773:796   */\n      sub\n        /* \"#utility.yul\":769:801   */\n      slt\n        /* \"#utility.yul\":766:885   */\n      iszero\n      tag_294\n      jumpi\n        /* \"#utility.yul\":804:883   */\n      tag_295\n      tag_253\n      jump\t// in\n    tag_295:\n        /* \"#utility.yul\":766:885   */\n    tag_294:\n        /* \"#utility.yul\":924:925   */\n      0x00\n        /* \"#utility.yul\":949:1002   */\n      tag_296\n        /* \"#utility.yul\":994:1001   */\n      dup5\n        /* \"#utility.yul\":985:991   */\n      dup3\n        /* \"#utility.yul\":974:983   */\n      dup6\n        /* \"#utility.yul\":970:992   */\n      add\n        /* \"#utility.yul\":949:1002   */\n      tag_257\n      jump\t// in\n    tag_296:\n        /* \"#utility.yul\":939:1002   */\n      swap2\n      pop\n        /* \"#utility.yul\":895:1012   */\n      pop\n        /* \"#utility.yul\":690:1019   */\n      swap3\n      swap2\n      pop\n      pop\n      jump\t// out\n        /* \"#utility.yul\":1025:1151   */\n    tag_258:\n        /* \"#utility.yul\":1062:1069   */\n      0x00\n        /* \"#utility.yul\":1102:1144   */\n      0xffffffffffffffffffffffffffffffffffffffff\n        /* \"#utility.yul\":1095:1100   */\n      dup3\n        /* \"#utility.yul\":1091:1145   */\n      and\n        /* \"#utility.yul\":1080:1145   */\n      swap1\n      pop\n        /* \"#utility.yul\":1025:1151   */\n      swap2\n      swap1\n      pop\n      jump\t// out\n        /* \"#utility.yul\":1157:1253   */\n    tag_259:\n        /* \"#utility.yul\":1194:1201   */\n      0x00\n        /* \"#utility.yul\":1223:1247   */\n      tag_299\n        /* \"#utility.yul\":1241:1246   */\n      dup3\n        /* \"#utility.yul\":1223:1247   */\n      tag_258\n      jump\t// in\n    tag_299:\n        /* \"#utility.yul\":1212:1247   */\n      swap1\n      pop\n        /* \"#utility.yul\":1157:1253   */\n      swap2\n      swap1\n      pop\n      jump\t// out\n        /* \"#utility.yul\":1259:1377   */\n    tag_260:\n        /* \"#utility.yul\":1346:1370   */\n      tag_301\n        /* \"#utility.yul\":1364:1369   */\n      dup2\n        /* \"#utility.yul\":1346:1370   */\n      tag_259\n      jump\t// in\n    tag_301:\n        /* \"#utility.yul\":1341:1344   */\n      dup3\n        /* \"#utility.yul\":1334:1371   */\n      mstore\n        /* \"#utility.yul\":1259:1377   */\n      pop\n      pop\n      jump\t// out\n        /* \"#utility.yul\":1383:1605   */\n    tag_37:\n        /* \"#utility.yul\":1476:1480   */\n      0x00\n        /* \"#utility.yul\":1514:1516   */\n      0x20\n        /* \"#utility.yul\":1503:1512   */\n      dup3\n        /* \"#utility.yul\":1499:1517   */\n      add\n        /* \"#utility.yul\":1491:1517   */\n      swap1\n      pop\n        /* \"#utility.yul\":1527:1598   */\n      tag_303\n        /* \"#utility.yul\":1595:1596   */\n      0x00\n        /* \"#utility.yul\":1584:1593   */\n      dup4\n        /* \"#utility.yul\":1580:1597   */\n      add\n        /* \"#utility.yul\":1571:1577   */\n      dup5\n        /* \"#utility.yul\":1527:1598   */\n      tag_260\n      jump\t// in\n    tag_303:\n        /* \"#utility.yul\":1383:1605   */\n      swap3\n      swap2\n      pop\n      pop\n      jump\t// out\n        /* \"#utility.yul\":1611:1733   */\n    tag_261:\n        /* \"#utility.yul\":1684:1708   */\n      tag_305\n        /* \"#utility.yul\":1702:1707   */\n      dup2\n        /* \"#utility.yul\":1684:1708   */\n      tag_259\n      jump\t// in\n    tag_305:\n        /* \"#utility.yul\":1677:1682   */\n      dup2\n        /* \"#utility.yul\":1674:1709   */\n      eq\n        /* \"#utility.yul\":1664:1727   */\n      tag_306\n      jumpi\n        /* \"#utility.yul\":1723:1724   */\n      0x00\n        /* \"#utility.yul\":1720:1721   */\n      0x00\n        /* \"#utility.yul\":1713:1725   */\n      revert\n        /* \"#utility.yul\":1664:1727   */\n    tag_306:\n        /* \"#utility.yul\":1611:1733   */\n      pop\n      jump\t// out\n        /* \"#utility.yul\":1739:1878   */\n    tag_262:\n        /* \"#utility.yul\":1785:1790   */\n      0x00\n        /* \"#utility.yul\":1823:1829   */\n      dup2\n        /* \"#utility.yul\":1810:1830   */\n      calldataload\n        /* \"#utility.yul\":1801:1830   */\n      swap1\n      pop\n        /* \"#utility.yul\":1839:1872   */\n      tag_308\n        /* \"#utility.yul\":1866:1871   */\n      dup2\n        /* \"#utility.yul\":1839:1872   */\n      tag_261\n      jump\t// in\n    tag_308:\n        /* \"#utility.yul\":1739:1878   */\n      swap3\n      swap2\n      pop\n      pop\n      jump\t// out\n        /* \"#utility.yul\":1884:2358   */\n    tag_46:\n        /* \"#utility.yul\":1952:1958   */\n      0x00\n        /* \"#utility.yul\":1960:1966   */\n      0x00\n        /* \"#utility.yul\":2009:2011   */\n      0x40\n        /* \"#utility.yul\":1997:2006   */\n      dup4\n        /* \"#utility.yul\":1988:1995   */\n      dup6\n        /* \"#utility.yul\":1984:2007   */\n      sub\n        /* \"#utility.yul\":1980:2012   */\n      slt\n        /* \"#utility.yul\":1977:2096   */\n      iszero\n      tag_310\n      jumpi\n        /* \"#utility.yul\":2015:2094   */\n      tag_311\n      tag_253\n      jump\t// in\n    tag_311:\n        /* \"#utility.yul\":1977:2096   */\n    tag_310:\n        /* \"#utility.yul\":2135:2136   */\n      0x00\n        /* \"#utility.yul\":2160:2213   */\n      tag_312\n        /* \"#utility.yul\":2205:2212   */\n      dup6\n        /* \"#utility.yul\":2196:2202   */\n      dup3\n        /* \"#utility.yul\":2185:2194   */\n      dup7\n        /* \"#utility.yul\":2181:2203   */\n      add\n        /* \"#utility.yul\":2160:2213   */\n      tag_262\n      jump\t// in\n    tag_312:\n        /* \"#utility.yul\":2150:2213   */\n      swap3\n      pop\n        /* \"#utility.yul\":2106:2223   */\n      pop\n        /* \"#utility.yul\":2262:2264   */\n      0x20\n        /* \"#utility.yul\":2288:2341   */\n      tag_313\n        /* \"#utility.yul\":2333:2340   */\n      dup6\n        /* \"#utility.yul\":2324:2330   */\n      dup3\n        /* \"#utility.yul\":2313:2322   */\n      dup7\n        /* \"#utility.yul\":2309:2331   */\n      add\n        /* \"#utility.yul\":2288:2341   */\n      tag_262\n      jump\t// in\n    tag_313:\n        /* \"#utility.yul\":2278:2341   */\n      swap2\n      pop\n        /* \"#utility.yul\":2233:2351   */\n      pop\n        /* \"#utility.yul\":1884:2358   */\n      swap3\n      pop\n      swap3\n      swap1\n      pop\n      jump\t// out\n        /* \"#utility.yul\":2364:2482   */\n    tag_263:\n        /* \"#utility.yul\":2451:2475   */\n      tag_315\n        /* \"#utility.yul\":2469:2474   */\n      dup2\n        /* \"#utility.yul\":2451:2475   */\n      tag_255\n      jump\t// in\n    tag_315:\n        /* \"#utility.yul\":2446:2449   */\n      dup3\n        /* \"#utility.yul\":2439:2476   */\n      mstore\n        /* \"#utility.yul\":2364:2482   */\n      pop\n      pop\n      jump\t// out\n        /* \"#utility.yul\":2488:2820   */\n    tag_49:\n        /* \"#utility.yul\":2609:2613   */\n      0x00\n        /* \"#utility.yul\":2647:2649   */\n      0x40\n        /* \"#utility.yul\":2636:2645   */\n      dup3\n        /* \"#utility.yul\":2632:2650   */\n      add\n        /* \"#utility.yul\":2624:2650   */\n      swap1\n      pop\n        /* \"#utility.yul\":2660:2731   */\n      tag_317\n        /* \"#utility.yul\":2728:2729   */\n      0x00\n        /* \"#utility.yul\":2717:2726   */\n      dup4\n        /* \"#utility.yul\":2713:2730   */\n      add\n        /* \"#utility.yul\":2704:2710   */\n      dup6\n        /* \"#utility.yul\":2660:2731   */\n      tag_263\n      jump\t// in\n    tag_317:\n        /* \"#utility.yul\":2741:2813   */\n      tag_318\n        /* \"#utility.yul\":2809:2811   */\n      0x20\n        /* \"#utility.yul\":2798:2807   */\n      dup4\n        /* \"#utility.yul\":2794:2812   */\n      add\n        /* \"#utility.yul\":2785:2791   */\n      dup5\n        /* \"#utility.yul\":2741:2813   */\n      tag_263\n      jump\t// in\n    tag_318:\n        /* \"#utility.yul\":2488:2820   */\n      swap4\n      swap3\n      pop\n      pop\n      pop\n      jump\t// out\n        /* \"#utility.yul\":2826:3155   */\n    tag_63:\n        /* \"#utility.yul\":2885:2891   */\n      0x00\n        /* \"#utility.yul\":2934:2936   */\n      0x20\n        /* \"#utility.yul\":2922:2931   */\n      dup3\n        /* \"#utility.yul\":2913:2920   */\n      dup5\n        /* \"#utility.yul\":2909:2932   */\n      sub\n        /* \"#utility.yul\":2905:2937   */\n      slt\n        /* \"#utility.yul\":2902:3021   */\n      iszero\n      tag_320\n      jumpi\n        /* \"#utility.yul\":2940:3019   */\n      tag_321\n      tag_253\n      jump\t// in\n    tag_321:\n        /* \"#utility.yul\":2902:3021   */\n    tag_320:\n        /* \"#utility.yul\":3060:3061   */\n      0x00\n        /* \"#utility.yul\":3085:3138   */\n      tag_322\n        /* \"#utility.yul\":3130:3137   */\n      dup5\n        /* \"#utility.yul\":3121:3127   */\n      dup3\n        /* \"#utility.yul\":3110:3119   */\n      dup6\n        /* \"#utility.yul\":3106:3128   */\n      add\n        /* \"#utility.yul\":3085:3138   */\n      tag_262\n      jump\t// in\n    tag_322:\n        /* \"#utility.yul\":3075:3138   */\n      swap2\n      pop\n        /* \"#utility.yul\":3031:3148   */\n      pop\n        /* \"#utility.yul\":2826:3155   */\n      swap3\n      swap2\n      pop\n      pop\n      jump\t// out\n        /* \"#utility.yul\":3161:3383   */\n    tag_66:\n        /* \"#utility.yul\":3254:3258   */\n      0x00\n        /* \"#utility.yul\":3292:3294   */\n      0x20\n        /* \"#utility.yul\":3281:3290   */\n      dup3\n        /* \"#utility.yul\":3277:3295   */\n      add\n        /* \"#utility.yul\":3269:3295   */\n      swap1\n      pop\n        /* \"#utility.yul\":3305:3376   */\n      tag_324\n        /* \"#utility.yul\":3373:3374   */\n      0x00\n        /* \"#utility.yul\":3362:3371   */\n      dup4\n        /* \"#utility.yul\":3358:3375   */\n      add\n        /* \"#utility.yul\":3349:3355   */\n      dup5\n        /* \"#utility.yul\":3305:3376   */\n      tag_263\n      jump\t// in\n    tag_324:\n        /* \"#utility.yul\":3161:3383   */\n      swap3\n      swap2\n      pop\n      pop\n      jump\t// out\n        /* \"#utility.yul\":3389:3863   */\n    tag_80:\n        /* \"#utility.yul\":3457:3463   */\n      0x00\n        /* \"#utility.yul\":3465:3471   */\n      0x00\n        /* \"#utility.yul\":3514:3516   */\n      0x40\n        /* \"#utility.yul\":3502:3511   */\n      dup4\n        /* \"#utility.yul\":3493:3500   */\n      dup6\n        /* \"#utility.yul\":3489:3512   */\n      sub\n        /* \"#utility.yul\":3485:3517   */\n      slt\n        /* \"#utility.yul\":3482:3601   */\n      iszero\n      tag_326\n      jumpi\n        /* \"#utility.yul\":3520:3599   */\n      tag_327\n      tag_253\n      jump\t// in\n    tag_327:\n        /* \"#utility.yul\":3482:3601   */\n    tag_326:\n        /* \"#utility.yul\":3640:3641   */\n      0x00\n        /* \"#utility.yul\":3665:3718   */\n      tag_328\n        /* \"#utility.yul\":3710:3717   */\n      dup6\n        /* \"#utility.yul\":3701:3707   */\n      dup3\n        /* \"#utility.yul\":3690:3699   */\n      dup7\n        /* \"#utility.yul\":3686:3708   */\n      add\n        /* \"#utility.yul\":3665:3718   */\n      tag_262\n      jump\t// in\n    tag_328:\n        /* \"#utility.yul\":3655:3718   */\n      swap3\n      pop\n        /* \"#utility.yul\":3611:3728   */\n      pop\n        /* \"#utility.yul\":3767:3769   */\n      0x20\n        /* \"#utility.yul\":3793:3846   */\n      tag_329\n        /* \"#utility.yul\":3838:3845   */\n      dup6\n        /* \"#utility.yul\":3829:3835   */\n      dup3\n        /* \"#utility.yul\":3818:3827   */\n      dup7\n        /* \"#utility.yul\":3814:3836   */\n      add\n        /* \"#utility.yul\":3793:3846   */\n      tag_257\n      jump\t// in\n    tag_329:\n        /* \"#utility.yul\":3783:3846   */\n      swap2\n      pop\n        /* \"#utility.yul\":3738:3856   */\n      pop\n        /* \"#utility.yul\":3389:3863   */\n      swap3\n      pop\n      swap3\n      swap1\n      pop\n      jump\t// out\n        /* \"#utility.yul\":3869:4049   */\n    tag_264:\n        /* \"#utility.yul\":3917:3994   */\n      0x4e487b7100000000000000000000000000000000000000000000000000000000\n        /* \"#utility.yul\":3914:3915   */\n      0x00\n        /* \"#utility.yul\":3907:3995   */\n      mstore\n        /* \"#utility.yul\":4014:4018   */\n      0x11\n        /* \"#utility.yul\":4011:4012   */\n      0x04\n        /* \"#utility.yul\":4004:4019   */\n      mstore\n        /* \"#utility.yul\":4038:4042   */\n      0x24\n        /* \"#utility.yul\":4035:4036   */\n      0x00\n        /* \"#utility.yul\":4028:4043   */\n      revert\n        /* \"#utility.yul\":4055:4246   */\n    tag_121:\n        /* \"#utility.yul\":4095:4098   */\n      0x00\n        /* \"#utility.yul\":4114:4134   */\n      tag_332\n        /* \"#utility.yul\":4132:4133   */\n      dup3\n        /* \"#utility.yul\":4114:4134   */\n      tag_255\n      jump\t// in\n    tag_332:\n        /* \"#utility.yul\":4109:4134   */\n      swap2\n      pop\n        /* \"#utility.yul\":4148:4168   */\n      tag_333\n        /* \"#utility.yul\":4166:4167   */\n      dup4\n        /* \"#utility.yul\":4148:4168   */\n      tag_255\n      jump\t// in\n    tag_333:\n        /* \"#utility.yul\":4143:4168   */\n      swap3\n      pop\n        /* \"#utility.yul\":4191:4192   */\n      dup3\n        /* \"#utility.yul\":4188:4189   */\n      dup3\n        /* \"#utility.yul\":4184:4193   */\n      add\n        /* \"#utility.yul\":4177:4193   */\n      swap1\n      pop\n        /* \"#utility.yul\":4212:4215   */\n      dup1\n        /* \"#utility.yul\":4209:4210   */\n      dup3\n        /* \"#utility.yul\":4206:4216   */\n      gt\n        /* \"#utility.yul\":4203:4239   */\n      iszero\n      tag_334\n      jumpi\n        /* \"#utility.yul\":4219:4237   */\n      tag_335\n      tag_264\n      jump\t// in\n    tag_335:\n        /* \"#utility.yul\":4203:4239   */\n    tag_334:\n        /* \"#utility.yul\":4055:4246   */\n      swap3\n      swap2\n      pop\n      pop\n      jump\t// out\n        /* \"#utility.yul\":4252:4484   */\n    tag_123:\n        /* \"#utility.yul\":4292:4295   */\n      0x00\n        /* \"#utility.yul\":4311:4331   */\n      tag_337\n        /* \"#utility.yul\":4329:4330   */\n      dup3\n        /* \"#utility.yul\":4311:4331   */\n      tag_258\n      jump\t// in\n    tag_337:\n        /* \"#utility.yul\":4306:4331   */\n      swap2\n      pop\n        /* \"#utility.yul\":4345:4365   */\n      tag_338\n        /* \"#utility.yul\":4363:4364   */\n      dup4\n        /* \"#utility.yul\":4345:4365   */\n      tag_258\n      jump\t// in\n    tag_338:\n        /* \"#utility.yul\":4340:4365   */\n      swap3\n      pop\n        /* \"#utility.yul\":4388:4389   */\n      dup3\n        /* \"#utility.yul\":4385:4386   */\n      dup3\n        /* \"#utility.yul\":4381:4390   */\n      add\n        /* \"#utility.yul\":4374:4390   */\n      swap1\n      pop\n        /* \"#utility.yul\":4411:4453   */\n      0xffffffffffffffffffffffffffffffffffffffff\n        /* \"#utility.yul\":4406:4409   */\n      dup2\n        /* \"#utility.yul\":4403:4454   */\n      gt\n        /* \"#utility.yul\":4400:4477   */\n      iszero\n      tag_339\n      jumpi\n        /* \"#utility.yul\":4457:4475   */\n      tag_340\n      tag_264\n      jump\t// in\n    tag_340:\n        /* \"#utility.yul\":4400:4477   */\n    tag_339:\n        /* \"#utility.yul\":4252:4484   */\n      swap3\n      swap2\n      pop\n      pop\n      jump\t// out\n        /* \"#utility.yul\":4490:4659   */\n    tag_265:\n        /* \"#utility.yul\":4574:4585   */\n      0x00\n        /* \"#utility.yul\":4608:4614   */\n      dup3\n        /* \"#utility.yul\":4603:4606   */\n      dup3\n        /* \"#utility.yul\":4596:4615   */\n      mstore\n        /* \"#utility.yul\":4648:4652   */\n      0x20\n        /* \"#utility.yul\":4643:4646   */\n      dup3\n        /* \"#utility.yul\":4639:4653   */\n      add\n        /* \"#utility.yul\":4624:4653   */\n      swap1\n      pop\n        /* \"#utility.yul\":4490:4659   */\n      swap3\n      swap2\n      pop\n      pop\n      jump\t// out\n        /* \"#utility.yul\":4665:4832   */\n    tag_266:\n        /* \"#utility.yul\":4805:4824   */\n      0x556e737570706f7274656420746f6b656e000000000000000000000000000000\n        /* \"#utility.yul\":4801:4802   */\n      0x00\n        /* \"#utility.yul\":4793:4799   */\n      dup3\n        /* \"#utility.yul\":4789:4803   */\n      add\n        /* \"#utility.yul\":4782:4825   */\n      mstore\n        /* \"#utility.yul\":4665:4832   */\n      pop\n      jump\t// out\n        /* \"#utility.yul\":4838:5204   */\n    tag_267:\n        /* \"#utility.yul\":4980:4983   */\n      0x00\n        /* \"#utility.yul\":5001:5068   */\n      tag_344\n        /* \"#utility.yul\":5065:5067   */\n      0x11\n        /* \"#utility.yul\":5060:5063   */\n      dup4\n        /* \"#utility.yul\":5001:5068   */\n      tag_265\n      jump\t// in\n    tag_344:\n        /* \"#utility.yul\":4994:5068   */\n      swap2\n      pop\n        /* \"#utility.yul\":5077:5170   */\n      tag_345\n        /* \"#utility.yul\":5166:5169   */\n      dup3\n        /* \"#utility.yul\":5077:5170   */\n      tag_266\n      jump\t// in\n    tag_345:\n        /* \"#utility.yul\":5195:5197   */\n      0x20\n        /* \"#utility.yul\":5190:5193   */\n      dup3\n        /* \"#utility.yul\":5186:5198   */\n      add\n        /* \"#utility.yul\":5179:5198   */\n      swap1\n      pop\n        /* \"#utility.yul\":4838:5204   */\n      swap2\n      swap1\n      pop\n      jump\t// out\n        /* \"#utility.yul\":5210:5629   */\n    tag_143:\n        /* \"#utility.yul\":5376:5380   */\n      0x00\n        /* \"#utility.yul\":5414:5416   */\n      0x20\n        /* \"#utility.yul\":5403:5412   */\n      dup3\n        /* \"#utility.yul\":5399:5417   */\n      add\n        /* \"#utility.yul\":5391:5417   */\n      swap1\n      pop\n        /* \"#utility.yul\":5463:5472   */\n      dup2\n        /* \"#utility.yul\":5457:5461   */\n      dup2\n        /* \"#utility.yul\":5453:5473   */\n      sub\n        /* \"#utility.yul\":5449:5450   */\n      0x00\n        /* \"#utility.yul\":5438:5447   */\n      dup4\n        /* \"#utility.yul\":5434:5451   */\n      add\n        /* \"#utility.yul\":5427:5474   */\n      mstore\n        /* \"#utility.yul\":5491:5622   */\n      tag_347\n        /* \"#utility.yul\":5617:5621   */\n      dup2\n        /* \"#utility.yul\":5491:5622   */\n      tag_267\n      jump\t// in\n    tag_347:\n        /* \"#utility.yul\":5483:5622   */\n      swap1\n      pop\n        /* \"#utility.yul\":5210:5629   */\n      swap2\n      swap1\n      pop\n      jump\t// out\n        /* \"#utility.yul\":5635:5817   */\n    tag_268:\n        /* \"#utility.yul\":5775:5809   */\n      0x416d6f756e74206d7573742062652067726561746572207468616e207a65726f\n        /* \"#utility.yul\":5771:5772   */\n      0x00\n        /* \"#utility.yul\":5763:5769   */\n      dup3\n        /* \"#utility.yul\":5759:5773   */\n      add\n        /* \"#utility.yul\":5752:5810   */\n      mstore\n        /* \"#utility.yul\":5635:5817   */\n      pop\n      jump\t// out\n        /* \"#utility.yul\":5823:6189   */\n    tag_269:\n        /* \"#utility.yul\":5965:5968   */\n      0x00\n        /* \"#utility.yul\":5986:6053   */\n      tag_350\n        /* \"#utility.yul\":6050:6052   */\n      0x20\n        /* \"#utility.yul\":6045:6048   */\n      dup4\n        /* \"#utility.yul\":5986:6053   */\n      tag_265\n      jump\t// in\n    tag_350:\n        /* \"#utility.yul\":5979:6053   */\n      swap2\n      pop\n        /* \"#utility.yul\":6062:6155   */\n      tag_351\n        /* \"#utility.yul\":6151:6154   */\n      dup3\n        /* \"#utility.yul\":6062:6155   */\n      tag_268\n      jump\t// in\n    tag_351:\n        /* \"#utility.yul\":6180:6182   */\n      0x20\n        /* \"#utility.yul\":6175:6178   */\n      dup3\n        /* \"#utility.yul\":6171:6183   */\n      add\n        /* \"#utility.yul\":6164:6183   */\n      swap1\n      pop\n        /* \"#utility.yul\":5823:6189   */\n      swap2\n      swap1\n      pop\n      jump\t// out\n        /* \"#utility.yul\":6195:6614   */\n    tag_146:\n        /* \"#utility.yul\":6361:6365   */\n      0x00\n        /* \"#utility.yul\":6399:6401   */\n      0x20\n        /* \"#utility.yul\":6388:6397   */\n      dup3\n        /* \"#utility.yul\":6384:6402   */\n      add\n        /* \"#utility.yul\":6376:6402   */\n      swap1\n      pop\n        /* \"#utility.yul\":6448:6457   */\n      dup2\n        /* \"#utility.yul\":6442:6446   */\n      dup2\n        /* \"#utility.yul\":6438:6458   */\n      sub\n        /* \"#utility.yul\":6434:6435   */\n      0x00\n        /* \"#utility.yul\":6423:6432   */\n      dup4\n        /* \"#utility.yul\":6419:6436   */\n      add\n        /* \"#utility.yul\":6412:6459   */\n      mstore\n        /* \"#utility.yul\":6476:6607   */\n      tag_353\n        /* \"#utility.yul\":6602:6606   */\n      dup2\n        /* \"#utility.yul\":6476:6607   */\n      tag_269\n      jump\t// in\n    tag_353:\n        /* \"#utility.yul\":6468:6607   */\n      swap1\n      pop\n        /* \"#utility.yul\":6195:6614   */\n      swap2\n      swap1\n      pop\n      jump\t// out\n        /* \"#utility.yul\":6620:7062   */\n    tag_148:\n        /* \"#utility.yul\":6769:6773   */\n      0x00\n        /* \"#utility.yul\":6807:6809   */\n      0x60\n        /* \"#utility.yul\":6796:6805   */\n      dup3\n        /* \"#utility.yul\":6792:6810   */\n      add\n        /* \"#utility.yul\":6784:6810   */\n      swap1\n      pop\n        /* \"#utility.yul\":6820:6891   */\n      tag_355\n        /* \"#utility.yul\":6888:6889   */\n      0x00\n        /* \"#utility.yul\":6877:6886   */\n      dup4\n        /* \"#utility.yul\":6873:6890   */\n      add\n        /* \"#utility.yul\":6864:6870   */\n      dup7\n        /* \"#utility.yul\":6820:6891   */\n      tag_260\n      jump\t// in\n    tag_355:\n        /* \"#utility.yul\":6901:6973   */\n      tag_356\n        /* \"#utility.yul\":6969:6971   */\n      0x20\n        /* \"#utility.yul\":6958:6967   */\n      dup4\n        /* \"#utility.yul\":6954:6972   */\n      add\n        /* \"#utility.yul\":6945:6951   */\n      dup6\n        /* \"#utility.yul\":6901:6973   */\n      tag_260\n      jump\t// in\n    tag_356:\n        /* \"#utility.yul\":6983:7055   */\n      tag_357\n        /* \"#utility.yul\":7051:7053   */\n      0x40\n        /* \"#utility.yul\":7040:7049   */\n      dup4\n        /* \"#utility.yul\":7036:7054   */\n      add\n        /* \"#utility.yul\":7027:7033   */\n      dup5\n        /* \"#utility.yul\":6983:7055   */\n      tag_263\n      jump\t// in\n    tag_357:\n        /* \"#utility.yul\":6620:7062   */\n      swap5\n      swap4\n      pop\n      pop\n      pop\n      pop\n      jump\t// out\n        /* \"#utility.yul\":7068:7158   */\n    tag_270:\n        /* \"#utility.yul\":7102:7109   */\n      0x00\n        /* \"#utility.yul\":7145:7150   */\n      dup2\n        /* \"#utility.yul\":7138:7151   */\n      iszero\n        /* \"#utility.yul\":7131:7152   */\n      iszero\n        /* \"#utility.yul\":7120:7152   */\n      swap1\n      pop\n        /* \"#utility.yul\":7068:7158   */\n      swap2\n      swap1\n      pop\n      jump\t// out\n        /* \"#utility.yul\":7164:7280   */\n    tag_271:\n        /* \"#utility.yul\":7234:7255   */\n      tag_360\n        /* \"#utility.yul\":7249:7254   */\n      dup2\n        /* \"#utility.yul\":7234:7255   */\n      tag_270\n      jump\t// in\n    tag_360:\n        /* \"#utility.yul\":7227:7232   */\n      dup2\n        /* \"#utility.yul\":7224:7256   */\n      eq\n        /* \"#utility.yul\":7214:7274   */\n      tag_361\n      jumpi\n        /* \"#utility.yul\":7270:7271   */\n      0x00\n        /* \"#utility.yul\":7267:7268   */\n      0x00\n        /* \"#utility.yul\":7260:7272   */\n      revert\n        /* \"#utility.yul\":7214:7274   */\n    tag_361:\n        /* \"#utility.yul\":7164:7280   */\n      pop\n      jump\t// out\n        /* \"#utility.yul\":7286:7423   */\n    tag_272:\n        /* \"#utility.yul\":7340:7345   */\n      0x00\n        /* \"#utility.yul\":7371:7377   */\n      dup2\n        /* \"#utility.yul\":7365:7378   */\n      mload\n        /* \"#utility.yul\":7356:7378   */\n      swap1\n      pop\n        /* \"#utility.yul\":7387:7417   */\n      tag_363\n        /* \"#utility.yul\":7411:7416   */\n      dup2\n        /* \"#utility.yul\":7387:7417   */\n      tag_271\n      jump\t// in\n    tag_363:\n        /* \"#utility.yul\":7286:7423   */\n      swap3\n      swap2\n      pop\n      pop\n      jump\t// out\n        /* \"#utility.yul\":7429:7774   */\n    tag_152:\n        /* \"#utility.yul\":7496:7502   */\n      0x00\n        /* \"#utility.yul\":7545:7547   */\n      0x20\n        /* \"#utility.yul\":7533:7542   */\n      dup3\n        /* \"#utility.yul\":7524:7531   */\n      dup5\n        /* \"#utility.yul\":7520:7543   */\n      sub\n        /* \"#utility.yul\":7516:7548   */\n      slt\n        /* \"#utility.yul\":7513:7632   */\n      iszero\n      tag_365\n      jumpi\n        /* \"#utility.yul\":7551:7630   */\n      tag_366\n      tag_253\n      jump\t// in\n    tag_366:\n        /* \"#utility.yul\":7513:7632   */\n    tag_365:\n        /* \"#utility.yul\":7671:7672   */\n      0x00\n        /* \"#utility.yul\":7696:7757   */\n      tag_367\n        /* \"#utility.yul\":7749:7756   */\n      dup5\n        /* \"#utility.yul\":7740:7746   */\n      dup3\n        /* \"#utility.yul\":7729:7738   */\n      dup6\n        /* \"#utility.yul\":7725:7747   */\n      add\n        /* \"#utility.yul\":7696:7757   */\n      tag_272\n      jump\t// in\n    tag_367:\n        /* \"#utility.yul\":7686:7757   */\n      swap2\n      pop\n        /* \"#utility.yul\":7642:7767   */\n      pop\n        /* \"#utility.yul\":7429:7774   */\n      swap3\n      swap2\n      pop\n      pop\n      jump\t// out\n        /* \"#utility.yul\":7780:8112   */\n    tag_154:\n        /* \"#utility.yul\":7901:7905   */\n      0x00\n        /* \"#utility.yul\":7939:7941   */\n      0x40\n        /* \"#utility.yul\":7928:7937   */\n      dup3\n        /* \"#utility.yul\":7924:7942   */\n      add\n        /* \"#utility.yul\":7916:7942   */\n      swap1\n      pop\n        /* \"#utility.yul\":7952:8023   */\n      tag_369\n        /* \"#utility.yul\":8020:8021   */\n      0x00\n        /* \"#utility.yul\":8009:8018   */\n      dup4\n        /* \"#utility.yul\":8005:8022   */\n      add\n        /* \"#utility.yul\":7996:8002   */\n      dup6\n        /* \"#utility.yul\":7952:8023   */\n      tag_260\n      jump\t// in\n    tag_369:\n        /* \"#utility.yul\":8033:8105   */\n      tag_370\n        /* \"#utility.yul\":8101:8103   */\n      0x20\n        /* \"#utility.yul\":8090:8099   */\n      dup4\n        /* \"#utility.yul\":8086:8104   */\n      add\n        /* \"#utility.yul\":8077:8083   */\n      dup5\n        /* \"#utility.yul\":8033:8105   */\n      tag_263\n      jump\t// in\n    tag_370:\n        /* \"#utility.yul\":7780:8112   */\n      swap4\n      swap3\n      pop\n      pop\n      pop\n      jump\t// out\n        /* \"#utility.yul\":8118:8528   */\n    tag_163:\n        /* \"#utility.yul\":8158:8165   */\n      0x00\n        /* \"#utility.yul\":8181:8201   */\n      tag_372\n        /* \"#utility.yul\":8199:8200   */\n      dup3\n        /* \"#utility.yul\":8181:8201   */\n      tag_255\n      jump\t// in\n    tag_372:\n        /* \"#utility.yul\":8176:8201   */\n      swap2\n      pop\n        /* \"#utility.yul\":8215:8235   */\n      tag_373\n        /* \"#utility.yul\":8233:8234   */\n      dup4\n        /* \"#utility.yul\":8215:8235   */\n      tag_255\n      jump\t// in\n    tag_373:\n        /* \"#utility.yul\":8210:8235   */\n      swap3\n      pop\n        /* \"#utility.yul\":8270:8271   */\n      dup3\n        /* \"#utility.yul\":8267:8268   */\n      dup3\n        /* \"#utility.yul\":8263:8272   */\n      mul\n        /* \"#utility.yul\":8292:8322   */\n      tag_374\n        /* \"#utility.yul\":8310:8321   */\n      dup2\n        /* \"#utility.yul\":8292:8322   */\n      tag_255\n      jump\t// in\n    tag_374:\n        /* \"#utility.yul\":8281:8322   */\n      swap2\n      pop\n        /* \"#utility.yul\":8471:8472   */\n      dup3\n        /* \"#utility.yul\":8462:8469   */\n      dup3\n        /* \"#utility.yul\":8458:8473   */\n      div\n        /* \"#utility.yul\":8455:8456   */\n      dup5\n        /* \"#utility.yul\":8452:8474   */\n      eq\n        /* \"#utility.yul\":8432:8433   */\n      dup4\n        /* \"#utility.yul\":8425:8434   */\n      iszero\n        /* \"#utility.yul\":8405:8488   */\n      or\n        /* \"#utility.yul\":8382:8521   */\n      tag_375\n      jumpi\n        /* \"#utility.yul\":8501:8519   */\n      tag_376\n      tag_264\n      jump\t// in\n    tag_376:\n        /* \"#utility.yul\":8382:8521   */\n    tag_375:\n        /* \"#utility.yul\":8166:8528   */\n      pop\n        /* \"#utility.yul\":8118:8528   */\n      swap3\n      swap2\n      pop\n      pop\n      jump\t// out\n        /* \"#utility.yul\":8534:8704   */\n    tag_273:\n        /* \"#utility.yul\":8674:8696   */\n      0x496e73756666696369656e742062616c616e6365000000000000000000000000\n        /* \"#utility.yul\":8670:8671   */\n      0x00\n        /* \"#utility.yul\":8662:8668   */\n      dup3\n        /* \"#utility.yul\":8658:8672   */\n      add\n        /* \"#utility.yul\":8651:8697   */\n      mstore\n        /* \"#utility.yul\":8534:8704   */\n      pop\n      jump\t// out\n        /* \"#utility.yul\":8710:9076   */\n    tag_274:\n        /* \"#utility.yul\":8852:8855   */\n      0x00\n        /* \"#utility.yul\":8873:8940   */\n      tag_379\n        /* \"#utility.yul\":8937:8939   */\n      0x14\n        /* \"#utility.yul\":8932:8935   */\n      dup4\n        /* \"#utility.yul\":8873:8940   */\n      tag_265\n      jump\t// in\n    tag_379:\n        /* \"#utility.yul\":8866:8940   */\n      swap2\n      pop\n        /* \"#utility.yul\":8949:9042   */\n      tag_380\n        /* \"#utility.yul\":9038:9041   */\n      dup3\n        /* \"#utility.yul\":8949:9042   */\n      tag_273\n      jump\t// in\n    tag_380:\n        /* \"#utility.yul\":9067:9069   */\n      0x20\n        /* \"#utility.yul\":9062:9065   */\n      dup3\n        /* \"#utility.yul\":9058:9070   */\n      add\n        /* \"#utility.yul\":9051:9070   */\n      swap1\n      pop\n        /* \"#utility.yul\":8710:9076   */\n      swap2\n      swap1\n      pop\n      jump\t// out\n        /* \"#utility.yul\":9082:9501   */\n    tag_195:\n        /* \"#utility.yul\":9248:9252   */\n      0x00\n        /* \"#utility.yul\":9286:9288   */\n      0x20\n        /* \"#utility.yul\":9275:9284   */\n      dup3\n        /* \"#utility.yul\":9271:9289   */\n      add\n        /* \"#utility.yul\":9263:9289   */\n      swap1\n      pop\n        /* \"#utility.yul\":9335:9344   */\n      dup2\n        /* \"#utility.yul\":9329:9333   */\n      dup2\n        /* \"#utility.yul\":9325:9345   */\n      sub\n        /* \"#utility.yul\":9321:9322   */\n      0x00\n        /* \"#utility.yul\":9310:9319   */\n      dup4\n        /* \"#utility.yul\":9306:9323   */\n      add\n        /* \"#utility.yul\":9299:9346   */\n      mstore\n        /* \"#utility.yul\":9363:9494   */\n      tag_382\n        /* \"#utility.yul\":9489:9493   */\n      dup2\n        /* \"#utility.yul\":9363:9494   */\n      tag_274\n      jump\t// in\n    tag_382:\n        /* \"#utility.yul\":9355:9494   */\n      swap1\n      pop\n        /* \"#utility.yul\":9082:9501   */\n      swap2\n      swap1\n      pop\n      jump\t// out\n        /* \"#utility.yul\":9507:9685   */\n    tag_275:\n        /* \"#utility.yul\":9647:9677   */\n      0x5769746864726177616c206c6f636b656420666f722037206461797300000000\n        /* \"#utility.yul\":9643:9644   */\n      0x00\n        /* \"#utility.yul\":9635:9641   */\n      dup3\n        /* \"#utility.yul\":9631:9645   */\n      add\n        /* \"#utility.yul\":9624:9678   */\n      mstore\n        /* \"#utility.yul\":9507:9685   */\n      pop\n      jump\t// out\n        /* \"#utility.yul\":9691:10057   */\n    tag_276:\n        /* \"#utility.yul\":9833:9836   */\n      0x00\n        /* \"#utility.yul\":9854:9921   */\n      tag_385\n        /* \"#utility.yul\":9918:9920   */\n      0x1c\n        /* \"#utility.yul\":9913:9916   */\n      dup4\n        /* \"#utility.yul\":9854:9921   */\n      tag_265\n      jump\t// in\n    tag_385:\n        /* \"#utility.yul\":9847:9921   */\n      swap2\n      pop\n        /* \"#utility.yul\":9930:10023   */\n      tag_386\n        /* \"#utility.yul\":10019:10022   */\n      dup3\n        /* \"#utility.yul\":9930:10023   */\n      tag_275\n      jump\t// in\n    tag_386:\n        /* \"#utility.yul\":10048:10050   */\n      0x20\n        /* \"#utility.yul\":10043:10046   */\n      dup3\n        /* \"#utility.yul\":10039:10051   */\n      add\n        /* \"#utility.yul\":10032:10051   */\n      swap1\n      pop\n        /* \"#utility.yul\":9691:10057   */\n      swap2\n      swap1\n      pop\n      jump\t// out\n        /* \"#utility.yul\":10063:10482   */\n    tag_199:\n        /* \"#utility.yul\":10229:10233   */\n      0x00\n        /* \"#utility.yul\":10267:10269   */\n      0x20\n        /* \"#utility.yul\":10256:10265   */\n      dup3\n        /* \"#utility.yul\":10252:10270   */\n      add\n        /* \"#utility.yul\":10244:10270   */\n      swap1\n      pop\n        /* \"#utility.yul\":10316:10325   */\n      dup2\n        /* \"#utility.yul\":10310:10314   */\n      dup2\n        /* \"#utility.yul\":10306:10326   */\n      sub\n        /* \"#utility.yul\":10302:10303   */\n      0x00\n        /* \"#utility.yul\":10291:10300   */\n      dup4\n        /* \"#utility.yul\":10287:10304   */\n      add\n        /* \"#utility.yul\":10280:10327   */\n      mstore\n        /* \"#utility.yul\":10344:10475   */\n      tag_388\n        /* \"#utility.yul\":10470:10474   */\n      dup2\n        /* \"#utility.yul\":10344:10475   */\n      tag_276\n      jump\t// in\n    tag_388:\n        /* \"#utility.yul\":10336:10475   */\n      swap1\n      pop\n        /* \"#utility.yul\":10063:10482   */\n      swap2\n      swap1\n      pop\n      jump\t// out\n        /* \"#utility.yul\":10488:10682   */\n    tag_201:\n        /* \"#utility.yul\":10528:10532   */\n      0x00\n        /* \"#utility.yul\":10548:10568   */\n      tag_390\n        /* \"#utility.yul\":10566:10567   */\n      dup3\n        /* \"#utility.yul\":10548:10568   */\n      tag_255\n      jump\t// in\n    tag_390:\n        /* \"#utility.yul\":10543:10568   */\n      swap2\n      pop\n        /* \"#utility.yul\":10582:10602   */\n      tag_391\n        /* \"#utility.yul\":10600:10601   */\n      dup4\n        /* \"#utility.yul\":10582:10602   */\n      tag_255\n      jump\t// in\n    tag_391:\n        /* \"#utility.yul\":10577:10602   */\n      swap3\n      pop\n        /* \"#utility.yul\":10626:10627   */\n      dup3\n        /* \"#utility.yul\":10623:10624   */\n      dup3\n        /* \"#utility.yul\":10619:10628   */\n      sub\n        /* \"#utility.yul\":10611:10628   */\n      swap1\n      pop\n        /* \"#utility.yul\":10650:10651   */\n      dup2\n        /* \"#utility.yul\":10644:10648   */\n      dup2\n        /* \"#utility.yul\":10641:10652   */\n      gt\n        /* \"#utility.yul\":10638:10675   */\n      iszero\n      tag_392\n      jumpi\n        /* \"#utility.yul\":10655:10673   */\n      tag_393\n      tag_264\n      jump\t// in\n    tag_393:\n        /* \"#utility.yul\":10638:10675   */\n    tag_392:\n        /* \"#utility.yul\":10488:10682   */\n      swap3\n      swap2\n      pop\n      pop\n      jump\t// out\n        /* \"#utility.yul\":10688:10868   */\n    tag_277:\n        /* \"#utility.yul\":10736:10813   */\n      0x4e487b7100000000000000000000000000000000000000000000000000000000\n        /* \"#utility.yul\":10733:10734   */\n      0x00\n        /* \"#utility.yul\":10726:10814   */\n      mstore\n        /* \"#utility.yul\":10833:10837   */\n      0x12\n        /* \"#utility.yul\":10830:10831   */\n      0x04\n        /* \"#utility.yul\":10823:10838   */\n      mstore\n        /* \"#utility.yul\":10857:10861   */\n      0x24\n        /* \"#utility.yul\":10854:10855   */\n      0x00\n        /* \"#utility.yul\":10847:10862   */\n      revert\n        /* \"#utility.yul\":10874:11059   */\n    tag_204:\n        /* \"#utility.yul\":10914:10915   */\n      0x00\n        /* \"#utility.yul\":10931:10951   */\n      tag_396\n        /* \"#utility.yul\":10949:10950   */\n      dup3\n        /* \"#utility.yul\":10931:10951   */\n      tag_255\n      jump\t// in\n    tag_396:\n        /* \"#utility.yul\":10926:10951   */\n      swap2\n      pop\n        /* \"#utility.yul\":10965:10985   */\n      tag_397\n        /* \"#utility.yul\":10983:10984   */\n      dup4\n        /* \"#utility.yul\":10965:10985   */\n      tag_255\n      jump\t// in\n    tag_397:\n        /* \"#utility.yul\":10960:10985   */\n      swap3\n      pop\n        /* \"#utility.yul\":11004:11005   */\n      dup3\n        /* \"#utility.yul\":10994:11029   */\n      tag_398\n      jumpi\n        /* \"#utility.yul\":11009:11027   */\n      tag_399\n      tag_277\n      jump\t// in\n    tag_399:\n        /* \"#utility.yul\":10994:11029   */\n    tag_398:\n        /* \"#utility.yul\":11051:11052   */\n      dup3\n        /* \"#utility.yul\":11048:11049   */\n      dup3\n        /* \"#utility.yul\":11044:11053   */\n      div\n        /* \"#utility.yul\":11039:11053   */\n      swap1\n      pop\n        /* \"#utility.yul\":10874:11059   */\n      swap3\n      swap2\n      pop\n      pop\n      jump\t// out\n        /* \"#utility.yul\":11065:11208   */\n    tag_278:\n        /* \"#utility.yul\":11122:11127   */\n      0x00\n        /* \"#utility.yul\":11153:11159   */\n      dup2\n        /* \"#utility.yul\":11147:11160   */\n      mload\n        /* \"#utility.yul\":11138:11160   */\n      swap1\n      pop\n        /* \"#utility.yul\":11169:11202   */\n      tag_401\n        /* \"#utility.yul\":11196:11201   */\n      dup2\n        /* \"#utility.yul\":11169:11202   */\n      tag_256\n      jump\t// in\n    tag_401:\n        /* \"#utility.yul\":11065:11208   */\n      swap3\n      swap2\n      pop\n      pop\n      jump\t// out\n        /* \"#utility.yul\":11214:11565   */\n    tag_221:\n        /* \"#utility.yul\":11284:11290   */\n      0x00\n        /* \"#utility.yul\":11333:11335   */\n      0x20\n        /* \"#utility.yul\":11321:11330   */\n      dup3\n        /* \"#utility.yul\":11312:11319   */\n      dup5\n        /* \"#utility.yul\":11308:11331   */\n      sub\n        /* \"#utility.yul\":11304:11336   */\n      slt\n        /* \"#utility.yul\":11301:11420   */\n      iszero\n      tag_403\n      jumpi\n        /* \"#utility.yul\":11339:11418   */\n      tag_404\n      tag_253\n      jump\t// in\n    tag_404:\n        /* \"#utility.yul\":11301:11420   */\n    tag_403:\n        /* \"#utility.yul\":11459:11460   */\n      0x00\n        /* \"#utility.yul\":11484:11548   */\n      tag_405\n        /* \"#utility.yul\":11540:11547   */\n      dup5\n        /* \"#utility.yul\":11531:11537   */\n      dup3\n        /* \"#utility.yul\":11520:11529   */\n      dup6\n        /* \"#utility.yul\":11516:11538   */\n      add\n        /* \"#utility.yul\":11484:11548   */\n      tag_278\n      jump\t// in\n    tag_405:\n        /* \"#utility.yul\":11474:11548   */\n      swap2\n      pop\n        /* \"#utility.yul\":11430:11558   */\n      pop\n        /* \"#utility.yul\":11214:11565   */\n      swap3\n      swap2\n      pop\n      pop\n      jump\t// out\n        /* \"#utility.yul\":11571:12013   */\n    tag_229:\n        /* \"#utility.yul\":11720:11724   */\n      0x00\n        /* \"#utility.yul\":11758:11760   */\n      0x60\n        /* \"#utility.yul\":11747:11756   */\n      dup3\n        /* \"#utility.yul\":11743:11761   */\n      add\n        /* \"#utility.yul\":11735:11761   */\n      swap1\n      pop\n        /* \"#utility.yul\":11771:11842   */\n      tag_407\n        /* \"#utility.yul\":11839:11840   */\n      0x00\n        /* \"#utility.yul\":11828:11837   */\n      dup4\n        /* \"#utility.yul\":11824:11841   */\n      add\n        /* \"#utility.yul\":11815:11821   */\n      dup7\n        /* \"#utility.yul\":11771:11842   */\n      tag_263\n      jump\t// in\n    tag_407:\n        /* \"#utility.yul\":11852:11924   */\n      tag_408\n        /* \"#utility.yul\":11920:11922   */\n      0x20\n        /* \"#utility.yul\":11909:11918   */\n      dup4\n        /* \"#utility.yul\":11905:11923   */\n      add\n        /* \"#utility.yul\":11896:11902   */\n      dup6\n        /* \"#utility.yul\":11852:11924   */\n      tag_263\n      jump\t// in\n    tag_408:\n        /* \"#utility.yul\":11934:12006   */\n      tag_409\n        /* \"#utility.yul\":12002:12004   */\n      0x40\n        /* \"#utility.yul\":11991:12000   */\n      dup4\n        /* \"#utility.yul\":11987:12005   */\n      add\n        /* \"#utility.yul\":11978:11984   */\n      dup5\n        /* \"#utility.yul\":11934:12006   */\n      tag_263\n      jump\t// in\n    tag_409:\n        /* \"#utility.yul\":11571:12013   */\n      swap5\n      swap4\n      pop\n      pop\n      pop\n      pop\n      jump\t// out\n        /* \"#utility.yul\":12019:12104   */\n    tag_279:\n        /* \"#utility.yul\":12064:12071   */\n      0x00\n        /* \"#utility.yul\":12093:12098   */\n      dup2\n        /* \"#utility.yul\":12082:12098   */\n      swap1\n      pop\n        /* \"#utility.yul\":12019:12104   */\n      swap2\n      swap1\n      pop\n      jump\t// out\n        /* \"#utility.yul\":12110:12170   */\n    tag_280:\n        /* \"#utility.yul\":12138:12141   */\n      0x00\n        /* \"#utility.yul\":12159:12164   */\n      dup2\n        /* \"#utility.yul\":12152:12164   */\n      swap1\n      pop\n        /* \"#utility.yul\":12110:12170   */\n      swap2\n      swap1\n      pop\n      jump\t// out\n        /* \"#utility.yul\":12176:12334   */\n    tag_281:\n        /* \"#utility.yul\":12234:12243   */\n      0x00\n        /* \"#utility.yul\":12267:12328   */\n      tag_413\n        /* \"#utility.yul\":12285:12327   */\n      tag_414\n        /* \"#utility.yul\":12294:12326   */\n      tag_415\n        /* \"#utility.yul\":12320:12325   */\n      dup5\n        /* \"#utility.yul\":12294:12326   */\n      tag_279\n      jump\t// in\n    tag_415:\n        /* \"#utility.yul\":12285:12327   */\n      tag_280\n      jump\t// in\n    tag_414:\n        /* \"#utility.yul\":12267:12328   */\n      tag_255\n      jump\t// in\n    tag_413:\n        /* \"#utility.yul\":12254:12328   */\n      swap1\n      pop\n        /* \"#utility.yul\":12176:12334   */\n      swap2\n      swap1\n      pop\n      jump\t// out\n        /* \"#utility.yul\":12340:12487   */\n    tag_282:\n        /* \"#utility.yul\":12435:12480   */\n      tag_417\n        /* \"#utility.yul\":12474:12479   */\n      dup2\n        /* \"#utility.yul\":12435:12480   */\n      tag_281\n      jump\t// in\n    tag_417:\n        /* \"#utility.yul\":12430:12433   */\n      dup3\n        /* \"#utility.yul\":12423:12481   */\n      mstore\n        /* \"#utility.yul\":12340:12487   */\n      pop\n      pop\n      jump\t// out\n        /* \"#utility.yul\":12493:13332   */\n    tag_234:\n        /* \"#utility.yul\":12758:12762   */\n      0x00\n        /* \"#utility.yul\":12796:12799   */\n      0xc0\n        /* \"#utility.yul\":12785:12794   */\n      dup3\n        /* \"#utility.yul\":12781:12800   */\n      add\n        /* \"#utility.yul\":12773:12800   */\n      swap1\n      pop\n        /* \"#utility.yul\":12810:12881   */\n      tag_419\n        /* \"#utility.yul\":12878:12879   */\n      0x00\n        /* \"#utility.yul\":12867:12876   */\n      dup4\n        /* \"#utility.yul\":12863:12880   */\n      add\n        /* \"#utility.yul\":12854:12860   */\n      dup10\n        /* \"#utility.yul\":12810:12881   */\n      tag_263\n      jump\t// in\n    tag_419:\n        /* \"#utility.yul\":12891:12963   */\n      tag_420\n        /* \"#utility.yul\":12959:12961   */\n      0x20\n        /* \"#utility.yul\":12948:12957   */\n      dup4\n        /* \"#utility.yul\":12944:12962   */\n      add\n        /* \"#utility.yul\":12935:12941   */\n      dup9\n        /* \"#utility.yul\":12891:12963   */\n      tag_263\n      jump\t// in\n    tag_420:\n        /* \"#utility.yul\":12973:13053   */\n      tag_421\n        /* \"#utility.yul\":13049:13051   */\n      0x40\n        /* \"#utility.yul\":13038:13047   */\n      dup4\n        /* \"#utility.yul\":13034:13052   */\n      add\n        /* \"#utility.yul\":13025:13031   */\n      dup8\n        /* \"#utility.yul\":12973:13053   */\n      tag_282\n      jump\t// in\n    tag_421:\n        /* \"#utility.yul\":13063:13143   */\n      tag_422\n        /* \"#utility.yul\":13139:13141   */\n      0x60\n        /* \"#utility.yul\":13128:13137   */\n      dup4\n        /* \"#utility.yul\":13124:13142   */\n      add\n        /* \"#utility.yul\":13115:13121   */\n      dup7\n        /* \"#utility.yul\":13063:13143   */\n      tag_282\n      jump\t// in\n    tag_422:\n        /* \"#utility.yul\":13153:13234   */\n      tag_423\n        /* \"#utility.yul\":13229:13232   */\n      0x80\n        /* \"#utility.yul\":13218:13227   */\n      dup4\n        /* \"#utility.yul\":13214:13233   */\n      add\n        /* \"#utility.yul\":13205:13211   */\n      dup6\n        /* \"#utility.yul\":13153:13234   */\n      tag_282\n      jump\t// in\n    tag_423:\n        /* \"#utility.yul\":13244:13325   */\n      tag_424\n        /* \"#utility.yul\":13320:13323   */\n      0xa0\n        /* \"#utility.yul\":13309:13318   */\n      dup4\n        /* \"#utility.yul\":13305:13324   */\n      add\n        /* \"#utility.yul\":13296:13302   */\n      dup5\n        /* \"#utility.yul\":13244:13325   */\n      tag_282\n      jump\t// in\n    tag_424:\n        /* \"#utility.yul\":12493:13332   */\n      swap8\n      swap7\n      pop\n      pop\n      pop\n      pop\n      pop\n      pop\n      pop\n      jump\t// out\n\n    auxdata: 0xa264697066735822122069fe46ab80ef27d5443065dd3058e1d19517971d27c3a72db4eec49e7d740f7264736f6c634300081c0033\n}\n",
				"bytecode": {
					"linkReferences": {},
					"object": "608060405234801561000f575f5ffd5b5060405161209f38038061209f83398181016040528101906100319190610286565b805f73ffffffffffffffffffffffffffffffffffffffff168173ffffffffffffffffffffffffffffffffffffffff16036100a2575f6040517f1e4fbdf700000000000000000000000000000000000000000000000000000000815260040161009991906102d3565b60405180910390fd5b6100b18161016760201b60201c565b505f73ffffffffffffffffffffffffffffffffffffffff168273ffffffffffffffffffffffffffffffffffffffff1603610120576040517f08c379a000000000000000000000000000000000000000000000000000000000815260040161011790610346565b60405180910390fd5b8160015f6101000a81548173ffffffffffffffffffffffffffffffffffffffff021916908373ffffffffffffffffffffffffffffffffffffffff1602179055505050610364565b5f5f5f9054906101000a900473ffffffffffffffffffffffffffffffffffffffff169050815f5f6101000a81548173ffffffffffffffffffffffffffffffffffffffff021916908373ffffffffffffffffffffffffffffffffffffffff1602179055508173ffffffffffffffffffffffffffffffffffffffff168173ffffffffffffffffffffffffffffffffffffffff167f8be0079c531659141344cd1fd0a4f28419497f9722a3daafe3b4186f6b6457e060405160405180910390a35050565b5f5ffd5b5f73ffffffffffffffffffffffffffffffffffffffff82169050919050565b5f6102558261022c565b9050919050565b6102658161024b565b811461026f575f5ffd5b50565b5f815190506102808161025c565b92915050565b5f5f6040838503121561029c5761029b610228565b5b5f6102a985828601610272565b92505060206102ba85828601610272565b9150509250929050565b6102cd8161024b565b82525050565b5f6020820190506102e65f8301846102c4565b92915050565b5f82825260208201905092915050565b7f496e76616c6964205072697a654d616e616765722061646472657373000000005f82015250565b5f610330601c836102ec565b915061033b826102fc565b602082019050919050565b5f6020820190508181035f83015261035d81610324565b9050919050565b611d2e806103715f395ff3fe608060405234801561000f575f5ffd5b5060043610610156575f3560e01c806389a30271116100c1578063c10753291161007a578063c107532914610361578063c54e44eb1461037d578063de61e2651461039b578063e0bab4c4146103a5578063f2fde38b146103c3578063f9ba9f71146103df57610156565b806389a30271146102b55780638da5cb5b146102d3578063a2da905f146102f1578063a3d111581461030d578063a544594e14610329578063b882ba741461034557610156565b8063556c916611610113578063556c9166146102095780635610eca0146102255780636fdea7311461024157806370ff852b1461025d578063715018a61461028d578063791f96a71461029757610156565b80630594cc4e1461015a57806315d8eeba14610176578063161e5cbd146101945780633d6f4369146101b0578063436d8039146101ce5780634b95f2f4146101ff575b5f5ffd5b610174600480360381019061016f919061165c565b6103fb565b005b61017e61041c565b60405161018b91906116c6565b60405180910390f35b6101ae60048036038101906101a9919061165c565b610434565b005b6101b8610455565b6040516101c591906116c6565b60405180910390f35b6101e860048036038101906101e39190611709565b61047a565b6040516101f6929190611756565b60405180910390f35b6102076104a5565b005b610223600480360381019061021e919061165c565b6105d3565b005b61023f600480360381019061023a919061165c565b6105f4565b005b61025b6004803603810190610256919061165c565b610615565b005b6102776004803603810190610272919061177d565b610636565b60405161028491906117a8565b60405180910390f35b61029561064b565b005b61029f61065e565b6040516102ac91906116c6565b60405180910390f35b6102bd610676565b6040516102ca91906116c6565b60405180910390f35b6102db61068e565b6040516102e891906116c6565b60405180910390f35b61030b600480360381019061030691906117c1565b6106b5565b005b610327600480360381019061032291906117c1565b610ab6565b005b610343600480360381019061033e919061165c565b610ee9565b005b61035f600480360381019061035a919061165c565b610f0a565b005b61037b600480360381019061037691906117c1565b610f2b565b005b6103856111ee565b60405161039291906116c6565b60405180910390f35b6103a3611206565b005b6103ad611419565b6040516103ba91906116c6565b60405180910390f35b6103dd60048036038101906103d8919061177d565b611431565b005b6103f960048036038101906103f4919061165c565b6114b5565b005b6104197357ab1ec28d129707052df4df418d58a2d46d5f5182610ab6565b50565b7357ab1ec28d129707052df4df418d58a2d46d5f5181565b610452736b175474e89094c44da98b954eedeac495271d0f82610ab6565b50565b60015f9054906101000a900473ffffffffffffffffffffffffffffffffffffffff1681565b6002602052815f5260405f20602052805f5260405f205f9150915050805f0154908060010154905082565b6104ad6114d6565b5f5f90505f5f90505b5f73ffffffffffffffffffffffffffffffffffffffff168173ffffffffffffffffffffffffffffffffffffffff1614610598575f60035f8373ffffffffffffffffffffffffffffffffffffffff1673ffffffffffffffffffffffffffffffffffffffff1681526020019081526020015f205490505f811115610583575f60035f8473ffffffffffffffffffffffffffffffffffffffff1673ffffffffffffffffffffffffffffffffffffffff1681526020019081526020015f20819055508083610580919061182c565b92505b50600181610591919061185f565b90506104b6565b507ff23d075c5cc5b1847d8c9fc00e715c38c29dd0db5a6925bfc2a47673c1e7d2b1816040516105c891906117a8565b60405180910390a150565b6105f173a0b86991c6218b36c1d19d4a2e9eb0ce3606eb4882610ab6565b50565b61061273dac17f958d2ee523a2206206994597c13d831ec7826106b5565b50565b61063373dac17f958d2ee523a2206206994597c13d831ec782610ab6565b50565b6003602052805f5260405f205f915090505481565b6106536114d6565b61065c5f61155d565b565b735533ed0a3b83f70c3c4a1f69ef5546d3d4713e4481565b73a0b86991c6218b36c1d19d4a2e9eb0ce3606eb4881565b5f5f5f9054906101000a900473ffffffffffffffffffffffffffffffffffffffff16905090565b73dac17f958d2ee523a2206206994597c13d831ec773ffffffffffffffffffffffffffffffffffffffff168273ffffffffffffffffffffffffffffffffffffffff161480610742575073a0b86991c6218b36c1d19d4a2e9eb0ce3606eb4873ffffffffffffffffffffffffffffffffffffffff168273ffffffffffffffffffffffffffffffffffffffff16145b8061078c5750736b175474e89094c44da98b954eedeac495271d0f73ffffffffffffffffffffffffffffffffffffffff168273ffffffffffffffffffffffffffffffffffffffff16145b806107d657507357ab1ec28d129707052df4df418d58a2d46d5f5173ffffffffffffffffffffffffffffffffffffffff168273ffffffffffffffffffffffffffffffffffffffff16145b610815576040517f08c379a000000000000000000000000000000000000000000000000000000000815260040161080c90611900565b60405180910390fd5b5f8111610857576040517f08c379a000000000000000000000000000000000000000000000000000000000815260040161084e90611968565b60405180910390fd5b8173ffffffffffffffffffffffffffffffffffffffff166323b872dd3330846040518463ffffffff1660e01b815260040161089493929190611986565b6020604051808303815f875af11580156108b0573d5f5f3e3d5ffd5b505050506040513d601f19601f820116820180604052508101906108d491906119f0565b508173ffffffffffffffffffffffffffffffffffffffff1663095ea7b3735533ed0a3b83f70c3c4a1f69ef5546d3d4713e44836040518363ffffffff1660e01b8152600401610924929190611a1b565b6020604051808303815f875af1158015610940573d5f5f3e3d5ffd5b505050506040513d601f19601f8201168201806040525081019061096491906119f0565b50735533ed0a3b83f70c3c4a1f69ef5546d3d4713e4473ffffffffffffffffffffffffffffffffffffffff1663b6b55f25826040518263ffffffff1660e01b81526004016109b291906117a8565b5f604051808303815f87803b1580156109c9575f5ffd5b505af11580156109db573d5f5f3e3d5ffd5b505050505f68056bc75e2d63100000826109f59190611a42565b90508060035f3373ffffffffffffffffffffffffffffffffffffffff1673ffffffffffffffffffffffffffffffffffffffff1681526020019081526020015f205f828254610a43919061182c565b925050819055508273ffffffffffffffffffffffffffffffffffffffff163373ffffffffffffffffffffffffffffffffffffffff167f4322cf7bb5bdb39c0e2ffb7af737e3569d51766de459df25281823ffa30b46858484604051610aa9929190611756565b60405180910390a3505050565b73dac17f958d2ee523a2206206994597c13d831ec773ffffffffffffffffffffffffffffffffffffffff168273ffffffffffffffffffffffffffffffffffffffff161480610b43575073a0b86991c6218b36c1d19d4a2e9eb0ce3606eb4873ffffffffffffffffffffffffffffffffffffffff168273ffffffffffffffffffffffffffffffffffffffff16145b80610b8d5750736b175474e89094c44da98b954eedeac495271d0f73ffffffffffffffffffffffffffffffffffffffff168273ffffffffffffffffffffffffffffffffffffffff16145b80610bd757507357ab1ec28d129707052df4df418d58a2d46d5f5173ffffffffffffffffffffffffffffffffffffffff168273ffffffffffffffffffffffffffffffffffffffff16145b610c16576040517f08c379a0000000000000000000000000000000000000000000000000000000008152600401610c0d90611900565b60405180910390fd5b5f8111610c58576040517f08c379a0000000000000000000000000000000000000000000000000000000008152600401610c4f90611968565b60405180910390fd5b5f60025f3373ffffffffffffffffffffffffffffffffffffffff1673ffffffffffffffffffffffffffffffffffffffff1681526020019081526020015f205f8473ffffffffffffffffffffffffffffffffffffffff1673ffffffffffffffffffffffffffffffffffffffff1681526020019081526020015f20905081815f015f828254610ce5919061182c565b925050819055504281600101819055508273ffffffffffffffffffffffffffffffffffffffff166323b872dd3330856040518463ffffffff1660e01b8152600401610d3293929190611986565b6020604051808303815f875af1158015610d4e573d5f5f3e3d5ffd5b505050506040513d601f19601f82011682018060405250810190610d7291906119f0565b508273ffffffffffffffffffffffffffffffffffffffff1663095ea7b3735533ed0a3b83f70c3c4a1f69ef5546d3d4713e44846040518363ffffffff1660e01b8152600401610dc2929190611a1b565b6020604051808303815f875af1158015610dde573d5f5f3e3d5ffd5b505050506040513d601f19601f82011682018060405250810190610e0291906119f0565b50735533ed0a3b83f70c3c4a1f69ef5546d3d4713e4473ffffffffffffffffffffffffffffffffffffffff1663b6b55f25836040518263ffffffff1660e01b8152600401610e5091906117a8565b5f604051808303815f87803b158015610e67575f5ffd5b505af1158015610e79573d5f5f3e3d5ffd5b505050508273ffffffffffffffffffffffffffffffffffffffff163373ffffffffffffffffffffffffffffffffffffffff167f57bad7e3c9efecf6e1f60bbd846b999e9da4a409224287a8df09779f2330135e8442604051610edc929190611756565b60405180910390a3505050565b610f07736b175474e89094c44da98b954eedeac495271d0f826106b5565b50565b610f287357ab1ec28d129707052df4df418d58a2d46d5f51826106b5565b50565b5f60025f3373ffffffffffffffffffffffffffffffffffffffff1673ffffffffffffffffffffffffffffffffffffffff1681526020019081526020015f205f8473ffffffffffffffffffffffffffffffffffffffff1673ffffffffffffffffffffffffffffffffffffffff1681526020019081526020015f20905081815f01541015610fec576040517f08c379a0000000000000000000000000000000000000000000000000000000008152600401610fe390611acd565b60405180910390fd5b62093a808160010154610fff919061182c565b421015611041576040517f08c379a000000000000000000000000000000000000000000000000000000000815260040161103890611b35565b60405180910390fd5b81815f015f8282546110539190611b53565b925050819055505f81600101544261106b9190611b53565b90505f670de0b6b3a7640000846301e13380670de0b6b3a76400006110909190611bb3565b8461109b9190611a42565b6110a59190611a42565b6110af9190611bb3565b90508060035f3373ffffffffffffffffffffffffffffffffffffffff1673ffffffffffffffffffffffffffffffffffffffff1681526020019081526020015f205f8282546110fd919061182c565b925050819055508473ffffffffffffffffffffffffffffffffffffffff1663a9059cbb33866040518363ffffffff1660e01b815260040161113f929190611a1b565b6020604051808303815f875af115801561115b573d5f5f3e3d5ffd5b505050506040513d601f19601f8201168201806040525081019061117f91906119f0565b508473ffffffffffffffffffffffffffffffffffffffff163373ffffffffffffffffffffffffffffffffffffffff167fe01911a56be554fae2e8c04ebcc1c56c757ce4583c883b878180a6ce99fc8a0986846040516111df929190611756565b60405180910390a35050505050565b73dac17f958d2ee523a2206206994597c13d831ec781565b61120e6114d6565b5f735533ed0a3b83f70c3c4a1f69ef5546d3d4713e4473ffffffffffffffffffffffffffffffffffffffff1663c600e1dc306040518263ffffffff1660e01b815260040161125c91906116c6565b602060405180830381865afa158015611277573d5f5f3e3d5ffd5b505050506040513d601f19601f8201168201806040525081019061129b9190611bf7565b90505f735533ed0a3b83f70c3c4a1f69ef5546d3d4713e4473ffffffffffffffffffffffffffffffffffffffff166370a08231306040518263ffffffff1660e01b81526004016112eb91906116c6565b602060405180830381865afa158015611306573d5f5f3e3d5ffd5b505050506040513d601f19601f8201168201806040525081019061132a9190611bf7565b90505f606460328461133c9190611a42565b6113469190611bb3565b905060015f9054906101000a900473ffffffffffffffffffffffffffffffffffffffff1673ffffffffffffffffffffffffffffffffffffffff1663a975b8928484846040518463ffffffff1660e01b81526004016113a693929190611c22565b5f604051808303815f87803b1580156113bd575f5ffd5b505af11580156113cf573d5f5f3e3d5ffd5b505050507f8eaaff2ba16da1160fd06ccb389b317b1eeba725461562003201a60ae6cb975082845f5f5f5f60405161140c96959493929190611c99565b60405180910390a1505050565b736b175474e89094c44da98b954eedeac495271d0f81565b6114396114d6565b5f73ffffffffffffffffffffffffffffffffffffffff168173ffffffffffffffffffffffffffffffffffffffff16036114a9575f6040517f1e4fbdf70000000000000000000000000000000000000000000000000000000081526004016114a091906116c6565b60405180910390fd5b6114b28161155d565b50565b6114d373a0b86991c6218b36c1d19d4a2e9eb0ce3606eb48826106b5565b50565b6114de61161e565b73ffffffffffffffffffffffffffffffffffffffff166114fc61068e565b73ffffffffffffffffffffffffffffffffffffffff161461155b5761151f61161e565b6040517f118cdaa700000000000000000000000000000000000000000000000000000000815260040161155291906116c6565b60405180910390fd5b565b5f5f5f9054906101000a900473ffffffffffffffffffffffffffffffffffffffff169050815f5f6101000a81548173ffffffffffffffffffffffffffffffffffffffff021916908373ffffffffffffffffffffffffffffffffffffffff1602179055508173ffffffffffffffffffffffffffffffffffffffff168173ffffffffffffffffffffffffffffffffffffffff167f8be0079c531659141344cd1fd0a4f28419497f9722a3daafe3b4186f6b6457e060405160405180910390a35050565b5f33905090565b5f5ffd5b5f819050919050565b61163b81611629565b8114611645575f5ffd5b50565b5f8135905061165681611632565b92915050565b5f6020828403121561167157611670611625565b5b5f61167e84828501611648565b91505092915050565b5f73ffffffffffffffffffffffffffffffffffffffff82169050919050565b5f6116b082611687565b9050919050565b6116c0816116a6565b82525050565b5f6020820190506116d95f8301846116b7565b92915050565b6116e8816116a6565b81146116f2575f5ffd5b50565b5f81359050611703816116df565b92915050565b5f5f6040838503121561171f5761171e611625565b5b5f61172c858286016116f5565b925050602061173d858286016116f5565b9150509250929050565b61175081611629565b82525050565b5f6040820190506117695f830185611747565b6117766020830184611747565b9392505050565b5f6020828403121561179257611791611625565b5b5f61179f848285016116f5565b91505092915050565b5f6020820190506117bb5f830184611747565b92915050565b5f5f604083850312156117d7576117d6611625565b5b5f6117e4858286016116f5565b92505060206117f585828601611648565b9150509250929050565b7f4e487b71000000000000000000000000000000000000000000000000000000005f52601160045260245ffd5b5f61183682611629565b915061184183611629565b9250828201905080821115611859576118586117ff565b5b92915050565b5f61186982611687565b915061187483611687565b9250828201905073ffffffffffffffffffffffffffffffffffffffff8111156118a05761189f6117ff565b5b92915050565b5f82825260208201905092915050565b7f556e737570706f7274656420746f6b656e0000000000000000000000000000005f82015250565b5f6118ea6011836118a6565b91506118f5826118b6565b602082019050919050565b5f6020820190508181035f830152611917816118de565b9050919050565b7f416d6f756e74206d7573742062652067726561746572207468616e207a65726f5f82015250565b5f6119526020836118a6565b915061195d8261191e565b602082019050919050565b5f6020820190508181035f83015261197f81611946565b9050919050565b5f6060820190506119995f8301866116b7565b6119a660208301856116b7565b6119b36040830184611747565b949350505050565b5f8115159050919050565b6119cf816119bb565b81146119d9575f5ffd5b50565b5f815190506119ea816119c6565b92915050565b5f60208284031215611a0557611a04611625565b5b5f611a12848285016119dc565b91505092915050565b5f604082019050611a2e5f8301856116b7565b611a3b6020830184611747565b9392505050565b5f611a4c82611629565b9150611a5783611629565b9250828202611a6581611629565b91508282048414831517611a7c57611a7b6117ff565b5b5092915050565b7f496e73756666696369656e742062616c616e63650000000000000000000000005f82015250565b5f611ab76014836118a6565b9150611ac282611a83565b602082019050919050565b5f6020820190508181035f830152611ae481611aab565b9050919050565b7f5769746864726177616c206c6f636b656420666f7220372064617973000000005f82015250565b5f611b1f601c836118a6565b9150611b2a82611aeb565b602082019050919050565b5f6020820190508181035f830152611b4c81611b13565b9050919050565b5f611b5d82611629565b9150611b6883611629565b9250828203905081811115611b8057611b7f6117ff565b5b92915050565b7f4e487b71000000000000000000000000000000000000000000000000000000005f52601260045260245ffd5b5f611bbd82611629565b9150611bc883611629565b925082611bd857611bd7611b86565b5b828204905092915050565b5f81519050611bf181611632565b92915050565b5f60208284031215611c0c57611c0b611625565b5b5f611c1984828501611be3565b91505092915050565b5f606082019050611c355f830186611747565b611c426020830185611747565b611c4f6040830184611747565b949350505050565b5f819050919050565b5f819050919050565b5f611c83611c7e611c7984611c57565b611c60565b611629565b9050919050565b611c9381611c69565b82525050565b5f60c082019050611cac5f830189611747565b611cb96020830188611747565b611cc66040830187611c8a565b611cd36060830186611c8a565b611ce06080830185611c8a565b611ced60a0830184611c8a565b97965050505050505056fea264697066735822122069fe46ab80ef27d5443065dd3058e1d19517971d27c3a72db4eec49e7d740f7264736f6c634300081c0033",
					"opcodes": "PUSH1 0x80 PUSH1 0x40 MSTORE CALLVALUE DUP1 ISZERO PUSH2 0xF JUMPI PUSH0 PUSH0 REVERT JUMPDEST POP PUSH1 0x40 MLOAD PUSH2 0x209F CODESIZE SUB DUP1 PUSH2 0x209F DUP4 CODECOPY DUP2 DUP2 ADD PUSH1 0x40 MSTORE DUP2 ADD SWAP1 PUSH2 0x31 SWAP2 SWAP1 PUSH2 0x286 JUMP JUMPDEST DUP1 PUSH0 PUSH20 0xFFFFFFFFFFFFFFFFFFFFFFFFFFFFFFFFFFFFFFFF AND DUP2 PUSH20 0xFFFFFFFFFFFFFFFFFFFFFFFFFFFFFFFFFFFFFFFF AND SUB PUSH2 0xA2 JUMPI PUSH0 PUSH1 0x40 MLOAD PUSH32 0x1E4FBDF700000000000000000000000000000000000000000000000000000000 DUP2 MSTORE PUSH1 0x4 ADD PUSH2 0x99 SWAP2 SWAP1 PUSH2 0x2D3 JUMP JUMPDEST PUSH1 0x40 MLOAD DUP1 SWAP2 SUB SWAP1 REVERT JUMPDEST PUSH2 0xB1 DUP2 PUSH2 0x167 PUSH1 0x20 SHL PUSH1 0x20 SHR JUMP JUMPDEST POP PUSH0 PUSH20 0xFFFFFFFFFFFFFFFFFFFFFFFFFFFFFFFFFFFFFFFF AND DUP3 PUSH20 0xFFFFFFFFFFFFFFFFFFFFFFFFFFFFFFFFFFFFFFFF AND SUB PUSH2 0x120 JUMPI PUSH1 0x40 MLOAD PUSH32 0x8C379A000000000000000000000000000000000000000000000000000000000 DUP2 MSTORE PUSH1 0x4 ADD PUSH2 0x117 SWAP1 PUSH2 0x346 JUMP JUMPDEST PUSH1 0x40 MLOAD DUP1 SWAP2 SUB SWAP1 REVERT JUMPDEST DUP2 PUSH1 0x1 PUSH0 PUSH2 0x100 EXP DUP2 SLOAD DUP2 PUSH20 0xFFFFFFFFFFFFFFFFFFFFFFFFFFFFFFFFFFFFFFFF MUL NOT AND SWAP1 DUP4 PUSH20 0xFFFFFFFFFFFFFFFFFFFFFFFFFFFFFFFFFFFFFFFF AND MUL OR SWAP1 SSTORE POP POP POP PUSH2 0x364 JUMP JUMPDEST PUSH0 PUSH0 PUSH0 SWAP1 SLOAD SWAP1 PUSH2 0x100 EXP SWAP1 DIV PUSH20 0xFFFFFFFFFFFFFFFFFFFFFFFFFFFFFFFFFFFFFFFF AND SWAP1 POP DUP2 PUSH0 PUSH0 PUSH2 0x100 EXP DUP2 SLOAD DUP2 PUSH20 0xFFFFFFFFFFFFFFFFFFFFFFFFFFFFFFFFFFFFFFFF MUL NOT AND SWAP1 DUP4 PUSH20 0xFFFFFFFFFFFFFFFFFFFFFFFFFFFFFFFFFFFFFFFF AND MUL OR SWAP1 SSTORE POP DUP2 PUSH20 0xFFFFFFFFFFFFFFFFFFFFFFFFFFFFFFFFFFFFFFFF AND DUP2 PUSH20 0xFFFFFFFFFFFFFFFFFFFFFFFFFFFFFFFFFFFFFFFF AND PUSH32 0x8BE0079C531659141344CD1FD0A4F28419497F9722A3DAAFE3B4186F6B6457E0 PUSH1 0x40 MLOAD PUSH1 0x40 MLOAD DUP1 SWAP2 SUB SWAP1 LOG3 POP POP JUMP JUMPDEST PUSH0 PUSH0 REVERT JUMPDEST PUSH0 PUSH20 0xFFFFFFFFFFFFFFFFFFFFFFFFFFFFFFFFFFFFFFFF DUP3 AND SWAP1 POP SWAP2 SWAP1 POP JUMP JUMPDEST PUSH0 PUSH2 0x255 DUP3 PUSH2 0x22C JUMP JUMPDEST SWAP1 POP SWAP2 SWAP1 POP JUMP JUMPDEST PUSH2 0x265 DUP2 PUSH2 0x24B JUMP JUMPDEST DUP2 EQ PUSH2 0x26F JUMPI PUSH0 PUSH0 REVERT JUMPDEST POP JUMP JUMPDEST PUSH0 DUP2 MLOAD SWAP1 POP PUSH2 0x280 DUP2 PUSH2 0x25C JUMP JUMPDEST SWAP3 SWAP2 POP POP JUMP JUMPDEST PUSH0 PUSH0 PUSH1 0x40 DUP4 DUP6 SUB SLT ISZERO PUSH2 0x29C JUMPI PUSH2 0x29B PUSH2 0x228 JUMP JUMPDEST JUMPDEST PUSH0 PUSH2 0x2A9 DUP6 DUP3 DUP7 ADD PUSH2 0x272 JUMP JUMPDEST SWAP3 POP POP PUSH1 0x20 PUSH2 0x2BA DUP6 DUP3 DUP7 ADD PUSH2 0x272 JUMP JUMPDEST SWAP2 POP POP SWAP3 POP SWAP3 SWAP1 POP JUMP JUMPDEST PUSH2 0x2CD DUP2 PUSH2 0x24B JUMP JUMPDEST DUP3 MSTORE POP POP JUMP JUMPDEST PUSH0 PUSH1 0x20 DUP3 ADD SWAP1 POP PUSH2 0x2E6 PUSH0 DUP4 ADD DUP5 PUSH2 0x2C4 JUMP JUMPDEST SWAP3 SWAP2 POP POP JUMP JUMPDEST PUSH0 DUP3 DUP3 MSTORE PUSH1 0x20 DUP3 ADD SWAP1 POP SWAP3 SWAP2 POP POP JUMP JUMPDEST PUSH32 0x496E76616C6964205072697A654D616E61676572206164647265737300000000 PUSH0 DUP3 ADD MSTORE POP JUMP JUMPDEST PUSH0 PUSH2 0x330 PUSH1 0x1C DUP4 PUSH2 0x2EC JUMP JUMPDEST SWAP2 POP PUSH2 0x33B DUP3 PUSH2 0x2FC JUMP JUMPDEST PUSH1 0x20 DUP3 ADD SWAP1 POP SWAP2 SWAP1 POP JUMP JUMPDEST PUSH0 PUSH1 0x20 DUP3 ADD SWAP1 POP DUP2 DUP2 SUB PUSH0 DUP4 ADD MSTORE PUSH2 0x35D DUP2 PUSH2 0x324 JUMP JUMPDEST SWAP1 POP SWAP2 SWAP1 POP JUMP JUMPDEST PUSH2 0x1D2E DUP1 PUSH2 0x371 PUSH0 CODECOPY PUSH0 RETURN INVALID PUSH1 0x80 PUSH1 0x40 MSTORE CALLVALUE DUP1 ISZERO PUSH2 0xF JUMPI PUSH0 PUSH0 REVERT JUMPDEST POP PUSH1 0x4 CALLDATASIZE LT PUSH2 0x156 JUMPI PUSH0 CALLDATALOAD PUSH1 0xE0 SHR DUP1 PUSH4 0x89A30271 GT PUSH2 0xC1 JUMPI DUP1 PUSH4 0xC1075329 GT PUSH2 0x7A JUMPI DUP1 PUSH4 0xC1075329 EQ PUSH2 0x361 JUMPI DUP1 PUSH4 0xC54E44EB EQ PUSH2 0x37D JUMPI DUP1 PUSH4 0xDE61E265 EQ PUSH2 0x39B JUMPI DUP1 PUSH4 0xE0BAB4C4 EQ PUSH2 0x3A5 JUMPI DUP1 PUSH4 0xF2FDE38B EQ PUSH2 0x3C3 JUMPI DUP1 PUSH4 0xF9BA9F71 EQ PUSH2 0x3DF JUMPI PUSH2 0x156 JUMP JUMPDEST DUP1 PUSH4 0x89A30271 EQ PUSH2 0x2B5 JUMPI DUP1 PUSH4 0x8DA5CB5B EQ PUSH2 0x2D3 JUMPI DUP1 PUSH4 0xA2DA905F EQ PUSH2 0x2F1 JUMPI DUP1 PUSH4 0xA3D11158 EQ PUSH2 0x30D JUMPI DUP1 PUSH4 0xA544594E EQ PUSH2 0x329 JUMPI DUP1 PUSH4 0xB882BA74 EQ PUSH2 0x345 JUMPI PUSH2 0x156 JUMP JUMPDEST DUP1 PUSH4 0x556C9166 GT PUSH2 0x113 JUMPI DUP1 PUSH4 0x556C9166 EQ PUSH2 0x209 JUMPI DUP1 PUSH4 0x5610ECA0 EQ PUSH2 0x225 JUMPI DUP1 PUSH4 0x6FDEA731 EQ PUSH2 0x241 JUMPI DUP1 PUSH4 0x70FF852B EQ PUSH2 0x25D JUMPI DUP1 PUSH4 0x715018A6 EQ PUSH2 0x28D JUMPI DUP1 PUSH4 0x791F96A7 EQ PUSH2 0x297 JUMPI PUSH2 0x156 JUMP JUMPDEST DUP1 PUSH4 0x594CC4E EQ PUSH2 0x15A JUMPI DUP1 PUSH4 0x15D8EEBA EQ PUSH2 0x176 JUMPI DUP1 PUSH4 0x161E5CBD EQ PUSH2 0x194 JUMPI DUP1 PUSH4 0x3D6F4369 EQ PUSH2 0x1B0 JUMPI DUP1 PUSH4 0x436D8039 EQ PUSH2 0x1CE JUMPI DUP1 PUSH4 0x4B95F2F4 EQ PUSH2 0x1FF JUMPI JUMPDEST PUSH0 PUSH0 REVERT JUMPDEST PUSH2 0x174 PUSH1 0x4 DUP1 CALLDATASIZE SUB DUP2 ADD SWAP1 PUSH2 0x16F SWAP2 SWAP1 PUSH2 0x165C JUMP JUMPDEST PUSH2 0x3FB JUMP JUMPDEST STOP JUMPDEST PUSH2 0x17E PUSH2 0x41C JUMP JUMPDEST PUSH1 0x40 MLOAD PUSH2 0x18B SWAP2 SWAP1 PUSH2 0x16C6 JUMP JUMPDEST PUSH1 0x40 MLOAD DUP1 SWAP2 SUB SWAP1 RETURN JUMPDEST PUSH2 0x1AE PUSH1 0x4 DUP1 CALLDATASIZE SUB DUP2 ADD SWAP1 PUSH2 0x1A9 SWAP2 SWAP1 PUSH2 0x165C JUMP JUMPDEST PUSH2 0x434 JUMP JUMPDEST STOP JUMPDEST PUSH2 0x1B8 PUSH2 0x455 JUMP JUMPDEST PUSH1 0x40 MLOAD PUSH2 0x1C5 SWAP2 SWAP1 PUSH2 0x16C6 JUMP JUMPDEST PUSH1 0x40 MLOAD DUP1 SWAP2 SUB SWAP1 RETURN JUMPDEST PUSH2 0x1E8 PUSH1 0x4 DUP1 CALLDATASIZE SUB DUP2 ADD SWAP1 PUSH2 0x1E3 SWAP2 SWAP1 PUSH2 0x1709 JUMP JUMPDEST PUSH2 0x47A JUMP JUMPDEST PUSH1 0x40 MLOAD PUSH2 0x1F6 SWAP3 SWAP2 SWAP1 PUSH2 0x1756 JUMP JUMPDEST PUSH1 0x40 MLOAD DUP1 SWAP2 SUB SWAP1 RETURN JUMPDEST PUSH2 0x207 PUSH2 0x4A5 JUMP JUMPDEST STOP JUMPDEST PUSH2 0x223 PUSH1 0x4 DUP1 CALLDATASIZE SUB DUP2 ADD SWAP1 PUSH2 0x21E SWAP2 SWAP1 PUSH2 0x165C JUMP JUMPDEST PUSH2 0x5D3 JUMP JUMPDEST STOP JUMPDEST PUSH2 0x23F PUSH1 0x4 DUP1 CALLDATASIZE SUB DUP2 ADD SWAP1 PUSH2 0x23A SWAP2 SWAP1 PUSH2 0x165C JUMP JUMPDEST PUSH2 0x5F4 JUMP JUMPDEST STOP JUMPDEST PUSH2 0x25B PUSH1 0x4 DUP1 CALLDATASIZE SUB DUP2 ADD SWAP1 PUSH2 0x256 SWAP2 SWAP1 PUSH2 0x165C JUMP JUMPDEST PUSH2 0x615 JUMP JUMPDEST STOP JUMPDEST PUSH2 0x277 PUSH1 0x4 DUP1 CALLDATASIZE SUB DUP2 ADD SWAP1 PUSH2 0x272 SWAP2 SWAP1 PUSH2 0x177D JUMP JUMPDEST PUSH2 0x636 JUMP JUMPDEST PUSH1 0x40 MLOAD PUSH2 0x284 SWAP2 SWAP1 PUSH2 0x17A8 JUMP JUMPDEST PUSH1 0x40 MLOAD DUP1 SWAP2 SUB SWAP1 RETURN JUMPDEST PUSH2 0x295 PUSH2 0x64B JUMP JUMPDEST STOP JUMPDEST PUSH2 0x29F PUSH2 0x65E JUMP JUMPDEST PUSH1 0x40 MLOAD PUSH2 0x2AC SWAP2 SWAP1 PUSH2 0x16C6 JUMP JUMPDEST PUSH1 0x40 MLOAD DUP1 SWAP2 SUB SWAP1 RETURN JUMPDEST PUSH2 0x2BD PUSH2 0x676 JUMP JUMPDEST PUSH1 0x40 MLOAD PUSH2 0x2CA SWAP2 SWAP1 PUSH2 0x16C6 JUMP JUMPDEST PUSH1 0x40 MLOAD DUP1 SWAP2 SUB SWAP1 RETURN JUMPDEST PUSH2 0x2DB PUSH2 0x68E JUMP JUMPDEST PUSH1 0x40 MLOAD PUSH2 0x2E8 SWAP2 SWAP1 PUSH2 0x16C6 JUMP JUMPDEST PUSH1 0x40 MLOAD DUP1 SWAP2 SUB SWAP1 RETURN JUMPDEST PUSH2 0x30B PUSH1 0x4 DUP1 CALLDATASIZE SUB DUP2 ADD SWAP1 PUSH2 0x306 SWAP2 SWAP1 PUSH2 0x17C1 JUMP JUMPDEST PUSH2 0x6B5 JUMP JUMPDEST STOP JUMPDEST PUSH2 0x327 PUSH1 0x4 DUP1 CALLDATASIZE SUB DUP2 ADD SWAP1 PUSH2 0x322 SWAP2 SWAP1 PUSH2 0x17C1 JUMP JUMPDEST PUSH2 0xAB6 JUMP JUMPDEST STOP JUMPDEST PUSH2 0x343 PUSH1 0x4 DUP1 CALLDATASIZE SUB DUP2 ADD SWAP1 PUSH2 0x33E SWAP2 SWAP1 PUSH2 0x165C JUMP JUMPDEST PUSH2 0xEE9 JUMP JUMPDEST STOP JUMPDEST PUSH2 0x35F PUSH1 0x4 DUP1 CALLDATASIZE SUB DUP2 ADD SWAP1 PUSH2 0x35A SWAP2 SWAP1 PUSH2 0x165C JUMP JUMPDEST PUSH2 0xF0A JUMP JUMPDEST STOP JUMPDEST PUSH2 0x37B PUSH1 0x4 DUP1 CALLDATASIZE SUB DUP2 ADD SWAP1 PUSH2 0x376 SWAP2 SWAP1 PUSH2 0x17C1 JUMP JUMPDEST PUSH2 0xF2B JUMP JUMPDEST STOP JUMPDEST PUSH2 0x385 PUSH2 0x11EE JUMP JUMPDEST PUSH1 0x40 MLOAD PUSH2 0x392 SWAP2 SWAP1 PUSH2 0x16C6 JUMP JUMPDEST PUSH1 0x40 MLOAD DUP1 SWAP2 SUB SWAP1 RETURN JUMPDEST PUSH2 0x3A3 PUSH2 0x1206 JUMP JUMPDEST STOP JUMPDEST PUSH2 0x3AD PUSH2 0x1419 JUMP JUMPDEST PUSH1 0x40 MLOAD PUSH2 0x3BA SWAP2 SWAP1 PUSH2 0x16C6 JUMP JUMPDEST PUSH1 0x40 MLOAD DUP1 SWAP2 SUB SWAP1 RETURN JUMPDEST PUSH2 0x3DD PUSH1 0x4 DUP1 CALLDATASIZE SUB DUP2 ADD SWAP1 PUSH2 0x3D8 SWAP2 SWAP1 PUSH2 0x177D JUMP JUMPDEST PUSH2 0x1431 JUMP JUMPDEST STOP JUMPDEST PUSH2 0x3F9 PUSH1 0x4 DUP1 CALLDATASIZE SUB DUP2 ADD SWAP1 PUSH2 0x3F4 SWAP2 SWAP1 PUSH2 0x165C JUMP JUMPDEST PUSH2 0x14B5 JUMP JUMPDEST STOP JUMPDEST PUSH2 0x419 PUSH20 0x57AB1EC28D129707052DF4DF418D58A2D46D5F51 DUP3 PUSH2 0xAB6 JUMP JUMPDEST POP JUMP JUMPDEST PUSH20 0x57AB1EC28D129707052DF4DF418D58A2D46D5F51 DUP2 JUMP JUMPDEST PUSH2 0x452 PUSH20 0x6B175474E89094C44DA98B954EEDEAC495271D0F DUP3 PUSH2 0xAB6 JUMP JUMPDEST POP JUMP JUMPDEST PUSH1 0x1 PUSH0 SWAP1 SLOAD SWAP1 PUSH2 0x100 EXP SWAP1 DIV PUSH20 0xFFFFFFFFFFFFFFFFFFFFFFFFFFFFFFFFFFFFFFFF AND DUP2 JUMP JUMPDEST PUSH1 0x2 PUSH1 0x20 MSTORE DUP2 PUSH0 MSTORE PUSH1 0x40 PUSH0 KECCAK256 PUSH1 0x20 MSTORE DUP1 PUSH0 MSTORE PUSH1 0x40 PUSH0 KECCAK256 PUSH0 SWAP2 POP SWAP2 POP POP DUP1 PUSH0 ADD SLOAD SWAP1 DUP1 PUSH1 0x1 ADD SLOAD SWAP1 POP DUP3 JUMP JUMPDEST PUSH2 0x4AD PUSH2 0x14D6 JUMP JUMPDEST PUSH0 PUSH0 SWAP1 POP PUSH0 PUSH0 SWAP1 POP JUMPDEST PUSH0 PUSH20 0xFFFFFFFFFFFFFFFFFFFFFFFFFFFFFFFFFFFFFFFF AND DUP2 PUSH20 0xFFFFFFFFFFFFFFFFFFFFFFFFFFFFFFFFFFFFFFFF AND EQ PUSH2 0x598 JUMPI PUSH0 PUSH1 0x3 PUSH0 DUP4 PUSH20 0xFFFFFFFFFFFFFFFFFFFFFFFFFFFFFFFFFFFFFFFF AND PUSH20 0xFFFFFFFFFFFFFFFFFFFFFFFFFFFFFFFFFFFFFFFF AND DUP2 MSTORE PUSH1 0x20 ADD SWAP1 DUP2 MSTORE PUSH1 0x20 ADD PUSH0 KECCAK256 SLOAD SWAP1 POP PUSH0 DUP2 GT ISZERO PUSH2 0x583 JUMPI PUSH0 PUSH1 0x3 PUSH0 DUP5 PUSH20 0xFFFFFFFFFFFFFFFFFFFFFFFFFFFFFFFFFFFFFFFF AND PUSH20 0xFFFFFFFFFFFFFFFFFFFFFFFFFFFFFFFFFFFFFFFF AND DUP2 MSTORE PUSH1 0x20 ADD SWAP1 DUP2 MSTORE PUSH1 0x20 ADD PUSH0 KECCAK256 DUP2 SWAP1 SSTORE POP DUP1 DUP4 PUSH2 0x580 SWAP2 SWAP1 PUSH2 0x182C JUMP JUMPDEST SWAP3 POP JUMPDEST POP PUSH1 0x1 DUP2 PUSH2 0x591 SWAP2 SWAP1 PUSH2 0x185F JUMP JUMPDEST SWAP1 POP PUSH2 0x4B6 JUMP JUMPDEST POP PUSH32 0xF23D075C5CC5B1847D8C9FC00E715C38C29DD0DB5A6925BFC2A47673C1E7D2B1 DUP2 PUSH1 0x40 MLOAD PUSH2 0x5C8 SWAP2 SWAP1 PUSH2 0x17A8 JUMP JUMPDEST PUSH1 0x40 MLOAD DUP1 SWAP2 SUB SWAP1 LOG1 POP JUMP JUMPDEST PUSH2 0x5F1 PUSH20 0xA0B86991C6218B36C1D19D4A2E9EB0CE3606EB48 DUP3 PUSH2 0xAB6 JUMP JUMPDEST POP JUMP JUMPDEST PUSH2 0x612 PUSH20 0xDAC17F958D2EE523A2206206994597C13D831EC7 DUP3 PUSH2 0x6B5 JUMP JUMPDEST POP JUMP JUMPDEST PUSH2 0x633 PUSH20 0xDAC17F958D2EE523A2206206994597C13D831EC7 DUP3 PUSH2 0xAB6 JUMP JUMPDEST POP JUMP JUMPDEST PUSH1 0x3 PUSH1 0x20 MSTORE DUP1 PUSH0 MSTORE PUSH1 0x40 PUSH0 KECCAK256 PUSH0 SWAP2 POP SWAP1 POP SLOAD DUP2 JUMP JUMPDEST PUSH2 0x653 PUSH2 0x14D6 JUMP JUMPDEST PUSH2 0x65C PUSH0 PUSH2 0x155D JUMP JUMPDEST JUMP JUMPDEST PUSH20 0x5533ED0A3B83F70C3C4A1F69EF5546D3D4713E44 DUP2 JUMP JUMPDEST PUSH20 0xA0B86991C6218B36C1D19D4A2E9EB0CE3606EB48 DUP2 JUMP JUMPDEST PUSH0 PUSH0 PUSH0 SWAP1 SLOAD SWAP1 PUSH2 0x100 EXP SWAP1 DIV PUSH20 0xFFFFFFFFFFFFFFFFFFFFFFFFFFFFFFFFFFFFFFFF AND SWAP1 POP SWAP1 JUMP JUMPDEST PUSH20 0xDAC17F958D2EE523A2206206994597C13D831EC7 PUSH20 0xFFFFFFFFFFFFFFFFFFFFFFFFFFFFFFFFFFFFFFFF AND DUP3 PUSH20 0xFFFFFFFFFFFFFFFFFFFFFFFFFFFFFFFFFFFFFFFF AND EQ DUP1 PUSH2 0x742 JUMPI POP PUSH20 0xA0B86991C6218B36C1D19D4A2E9EB0CE3606EB48 PUSH20 0xFFFFFFFFFFFFFFFFFFFFFFFFFFFFFFFFFFFFFFFF AND DUP3 PUSH20 0xFFFFFFFFFFFFFFFFFFFFFFFFFFFFFFFFFFFFFFFF AND EQ JUMPDEST DUP1 PUSH2 0x78C JUMPI POP PUSH20 0x6B175474E89094C44DA98B954EEDEAC495271D0F PUSH20 0xFFFFFFFFFFFFFFFFFFFFFFFFFFFFFFFFFFFFFFFF AND DUP3 PUSH20 0xFFFFFFFFFFFFFFFFFFFFFFFFFFFFFFFFFFFFFFFF AND EQ JUMPDEST DUP1 PUSH2 0x7D6 JUMPI POP PUSH20 0x57AB1EC28D129707052DF4DF418D58A2D46D5F51 PUSH20 0xFFFFFFFFFFFFFFFFFFFFFFFFFFFFFFFFFFFFFFFF AND DUP3 PUSH20 0xFFFFFFFFFFFFFFFFFFFFFFFFFFFFFFFFFFFFFFFF AND EQ JUMPDEST PUSH2 0x815 JUMPI PUSH1 0x40 MLOAD PUSH32 0x8C379A000000000000000000000000000000000000000000000000000000000 DUP2 MSTORE PUSH1 0x4 ADD PUSH2 0x80C SWAP1 PUSH2 0x1900 JUMP JUMPDEST PUSH1 0x40 MLOAD DUP1 SWAP2 SUB SWAP1 REVERT JUMPDEST PUSH0 DUP2 GT PUSH2 0x857 JUMPI PUSH1 0x40 MLOAD PUSH32 0x8C379A000000000000000000000000000000000000000000000000000000000 DUP2 MSTORE PUSH1 0x4 ADD PUSH2 0x84E SWAP1 PUSH2 0x1968 JUMP JUMPDEST PUSH1 0x40 MLOAD DUP1 SWAP2 SUB SWAP1 REVERT JUMPDEST DUP2 PUSH20 0xFFFFFFFFFFFFFFFFFFFFFFFFFFFFFFFFFFFFFFFF AND PUSH4 0x23B872DD CALLER ADDRESS DUP5 PUSH1 0x40 MLOAD DUP5 PUSH4 0xFFFFFFFF AND PUSH1 0xE0 SHL DUP2 MSTORE PUSH1 0x4 ADD PUSH2 0x894 SWAP4 SWAP3 SWAP2 SWAP1 PUSH2 0x1986 JUMP JUMPDEST PUSH1 0x20 PUSH1 0x40 MLOAD DUP1 DUP4 SUB DUP2 PUSH0 DUP8 GAS CALL ISZERO DUP1 ISZERO PUSH2 0x8B0 JUMPI RETURNDATASIZE PUSH0 PUSH0 RETURNDATACOPY RETURNDATASIZE PUSH0 REVERT JUMPDEST POP POP POP POP PUSH1 0x40 MLOAD RETURNDATASIZE PUSH1 0x1F NOT PUSH1 0x1F DUP3 ADD AND DUP3 ADD DUP1 PUSH1 0x40 MSTORE POP DUP2 ADD SWAP1 PUSH2 0x8D4 SWAP2 SWAP1 PUSH2 0x19F0 JUMP JUMPDEST POP DUP2 PUSH20 0xFFFFFFFFFFFFFFFFFFFFFFFFFFFFFFFFFFFFFFFF AND PUSH4 0x95EA7B3 PUSH20 0x5533ED0A3B83F70C3C4A1F69EF5546D3D4713E44 DUP4 PUSH1 0x40 MLOAD DUP4 PUSH4 0xFFFFFFFF AND PUSH1 0xE0 SHL DUP2 MSTORE PUSH1 0x4 ADD PUSH2 0x924 SWAP3 SWAP2 SWAP1 PUSH2 0x1A1B JUMP JUMPDEST PUSH1 0x20 PUSH1 0x40 MLOAD DUP1 DUP4 SUB DUP2 PUSH0 DUP8 GAS CALL ISZERO DUP1 ISZERO PUSH2 0x940 JUMPI RETURNDATASIZE PUSH0 PUSH0 RETURNDATACOPY RETURNDATASIZE PUSH0 REVERT JUMPDEST POP POP POP POP PUSH1 0x40 MLOAD RETURNDATASIZE PUSH1 0x1F NOT PUSH1 0x1F DUP3 ADD AND DUP3 ADD DUP1 PUSH1 0x40 MSTORE POP DUP2 ADD SWAP1 PUSH2 0x964 SWAP2 SWAP1 PUSH2 0x19F0 JUMP JUMPDEST POP PUSH20 0x5533ED0A3B83F70C3C4A1F69EF5546D3D4713E44 PUSH20 0xFFFFFFFFFFFFFFFFFFFFFFFFFFFFFFFFFFFFFFFF AND PUSH4 0xB6B55F25 DUP3 PUSH1 0x40 MLOAD DUP3 PUSH4 0xFFFFFFFF AND PUSH1 0xE0 SHL DUP2 MSTORE PUSH1 0x4 ADD PUSH2 0x9B2 SWAP2 SWAP1 PUSH2 0x17A8 JUMP JUMPDEST PUSH0 PUSH1 0x40 MLOAD DUP1 DUP4 SUB DUP2 PUSH0 DUP8 DUP1 EXTCODESIZE ISZERO DUP1 ISZERO PUSH2 0x9C9 JUMPI PUSH0 PUSH0 REVERT JUMPDEST POP GAS CALL ISZERO DUP1 ISZERO PUSH2 0x9DB JUMPI RETURNDATASIZE PUSH0 PUSH0 RETURNDATACOPY RETURNDATASIZE PUSH0 REVERT JUMPDEST POP POP POP POP PUSH0 PUSH9 0x56BC75E2D63100000 DUP3 PUSH2 0x9F5 SWAP2 SWAP1 PUSH2 0x1A42 JUMP JUMPDEST SWAP1 POP DUP1 PUSH1 0x3 PUSH0 CALLER PUSH20 0xFFFFFFFFFFFFFFFFFFFFFFFFFFFFFFFFFFFFFFFF AND PUSH20 0xFFFFFFFFFFFFFFFFFFFFFFFFFFFFFFFFFFFFFFFF AND DUP2 MSTORE PUSH1 0x20 ADD SWAP1 DUP2 MSTORE PUSH1 0x20 ADD PUSH0 KECCAK256 PUSH0 DUP3 DUP3 SLOAD PUSH2 0xA43 SWAP2 SWAP1 PUSH2 0x182C JUMP JUMPDEST SWAP3 POP POP DUP2 SWAP1 SSTORE POP DUP3 PUSH20 0xFFFFFFFFFFFFFFFFFFFFFFFFFFFFFFFFFFFFFFFF AND CALLER PUSH20 0xFFFFFFFFFFFFFFFFFFFFFFFFFFFFFFFFFFFFFFFF AND PUSH32 0x4322CF7BB5BDB39C0E2FFB7AF737E3569D51766DE459DF25281823FFA30B4685 DUP5 DUP5 PUSH1 0x40 MLOAD PUSH2 0xAA9 SWAP3 SWAP2 SWAP1 PUSH2 0x1756 JUMP JUMPDEST PUSH1 0x40 MLOAD DUP1 SWAP2 SUB SWAP1 LOG3 POP POP POP JUMP JUMPDEST PUSH20 0xDAC17F958D2EE523A2206206994597C13D831EC7 PUSH20 0xFFFFFFFFFFFFFFFFFFFFFFFFFFFFFFFFFFFFFFFF AND DUP3 PUSH20 0xFFFFFFFFFFFFFFFFFFFFFFFFFFFFFFFFFFFFFFFF AND EQ DUP1 PUSH2 0xB43 JUMPI POP PUSH20 0xA0B86991C6218B36C1D19D4A2E9EB0CE3606EB48 PUSH20 0xFFFFFFFFFFFFFFFFFFFFFFFFFFFFFFFFFFFFFFFF AND DUP3 PUSH20 0xFFFFFFFFFFFFFFFFFFFFFFFFFFFFFFFFFFFFFFFF AND EQ JUMPDEST DUP1 PUSH2 0xB8D JUMPI POP PUSH20 0x6B175474E89094C44DA98B954EEDEAC495271D0F PUSH20 0xFFFFFFFFFFFFFFFFFFFFFFFFFFFFFFFFFFFFFFFF AND DUP3 PUSH20 0xFFFFFFFFFFFFFFFFFFFFFFFFFFFFFFFFFFFFFFFF AND EQ JUMPDEST DUP1 PUSH2 0xBD7 JUMPI POP PUSH20 0x57AB1EC28D129707052DF4DF418D58A2D46D5F51 PUSH20 0xFFFFFFFFFFFFFFFFFFFFFFFFFFFFFFFFFFFFFFFF AND DUP3 PUSH20 0xFFFFFFFFFFFFFFFFFFFFFFFFFFFFFFFFFFFFFFFF AND EQ JUMPDEST PUSH2 0xC16 JUMPI PUSH1 0x40 MLOAD PUSH32 0x8C379A000000000000000000000000000000000000000000000000000000000 DUP2 MSTORE PUSH1 0x4 ADD PUSH2 0xC0D SWAP1 PUSH2 0x1900 JUMP JUMPDEST PUSH1 0x40 MLOAD DUP1 SWAP2 SUB SWAP1 REVERT JUMPDEST PUSH0 DUP2 GT PUSH2 0xC58 JUMPI PUSH1 0x40 MLOAD PUSH32 0x8C379A000000000000000000000000000000000000000000000000000000000 DUP2 MSTORE PUSH1 0x4 ADD PUSH2 0xC4F SWAP1 PUSH2 0x1968 JUMP JUMPDEST PUSH1 0x40 MLOAD DUP1 SWAP2 SUB SWAP1 REVERT JUMPDEST PUSH0 PUSH1 0x2 PUSH0 CALLER PUSH20 0xFFFFFFFFFFFFFFFFFFFFFFFFFFFFFFFFFFFFFFFF AND PUSH20 0xFFFFFFFFFFFFFFFFFFFFFFFFFFFFFFFFFFFFFFFF AND DUP2 MSTORE PUSH1 0x20 ADD SWAP1 DUP2 MSTORE PUSH1 0x20 ADD PUSH0 KECCAK256 PUSH0 DUP5 PUSH20 0xFFFFFFFFFFFFFFFFFFFFFFFFFFFFFFFFFFFFFFFF AND PUSH20 0xFFFFFFFFFFFFFFFFFFFFFFFFFFFFFFFFFFFFFFFF AND DUP2 MSTORE PUSH1 0x20 ADD SWAP1 DUP2 MSTORE PUSH1 0x20 ADD PUSH0 KECCAK256 SWAP1 POP DUP2 DUP2 PUSH0 ADD PUSH0 DUP3 DUP3 SLOAD PUSH2 0xCE5 SWAP2 SWAP1 PUSH2 0x182C JUMP JUMPDEST SWAP3 POP POP DUP2 SWAP1 SSTORE POP TIMESTAMP DUP2 PUSH1 0x1 ADD DUP2 SWAP1 SSTORE POP DUP3 PUSH20 0xFFFFFFFFFFFFFFFFFFFFFFFFFFFFFFFFFFFFFFFF AND PUSH4 0x23B872DD CALLER ADDRESS DUP6 PUSH1 0x40 MLOAD DUP5 PUSH4 0xFFFFFFFF AND PUSH1 0xE0 SHL DUP2 MSTORE PUSH1 0x4 ADD PUSH2 0xD32 SWAP4 SWAP3 SWAP2 SWAP1 PUSH2 0x1986 JUMP JUMPDEST PUSH1 0x20 PUSH1 0x40 MLOAD DUP1 DUP4 SUB DUP2 PUSH0 DUP8 GAS CALL ISZERO DUP1 ISZERO PUSH2 0xD4E JUMPI RETURNDATASIZE PUSH0 PUSH0 RETURNDATACOPY RETURNDATASIZE PUSH0 REVERT JUMPDEST POP POP POP POP PUSH1 0x40 MLOAD RETURNDATASIZE PUSH1 0x1F NOT PUSH1 0x1F DUP3 ADD AND DUP3 ADD DUP1 PUSH1 0x40 MSTORE POP DUP2 ADD SWAP1 PUSH2 0xD72 SWAP2 SWAP1 PUSH2 0x19F0 JUMP JUMPDEST POP DUP3 PUSH20 0xFFFFFFFFFFFFFFFFFFFFFFFFFFFFFFFFFFFFFFFF AND PUSH4 0x95EA7B3 PUSH20 0x5533ED0A3B83F70C3C4A1F69EF5546D3D4713E44 DUP5 PUSH1 0x40 MLOAD DUP4 PUSH4 0xFFFFFFFF AND PUSH1 0xE0 SHL DUP2 MSTORE PUSH1 0x4 ADD PUSH2 0xDC2 SWAP3 SWAP2 SWAP1 PUSH2 0x1A1B JUMP JUMPDEST PUSH1 0x20 PUSH1 0x40 MLOAD DUP1 DUP4 SUB DUP2 PUSH0 DUP8 GAS CALL ISZERO DUP1 ISZERO PUSH2 0xDDE JUMPI RETURNDATASIZE PUSH0 PUSH0 RETURNDATACOPY RETURNDATASIZE PUSH0 REVERT JUMPDEST POP POP POP POP PUSH1 0x40 MLOAD RETURNDATASIZE PUSH1 0x1F NOT PUSH1 0x1F DUP3 ADD AND DUP3 ADD DUP1 PUSH1 0x40 MSTORE POP DUP2 ADD SWAP1 PUSH2 0xE02 SWAP2 SWAP1 PUSH2 0x19F0 JUMP JUMPDEST POP PUSH20 0x5533ED0A3B83F70C3C4A1F69EF5546D3D4713E44 PUSH20 0xFFFFFFFFFFFFFFFFFFFFFFFFFFFFFFFFFFFFFFFF AND PUSH4 0xB6B55F25 DUP4 PUSH1 0x40 MLOAD DUP3 PUSH4 0xFFFFFFFF AND PUSH1 0xE0 SHL DUP2 MSTORE PUSH1 0x4 ADD PUSH2 0xE50 SWAP2 SWAP1 PUSH2 0x17A8 JUMP JUMPDEST PUSH0 PUSH1 0x40 MLOAD DUP1 DUP4 SUB DUP2 PUSH0 DUP8 DUP1 EXTCODESIZE ISZERO DUP1 ISZERO PUSH2 0xE67 JUMPI PUSH0 PUSH0 REVERT JUMPDEST POP GAS CALL ISZERO DUP1 ISZERO PUSH2 0xE79 JUMPI RETURNDATASIZE PUSH0 PUSH0 RETURNDATACOPY RETURNDATASIZE PUSH0 REVERT JUMPDEST POP POP POP POP DUP3 PUSH20 0xFFFFFFFFFFFFFFFFFFFFFFFFFFFFFFFFFFFFFFFF AND CALLER PUSH20 0xFFFFFFFFFFFFFFFFFFFFFFFFFFFFFFFFFFFFFFFF AND PUSH32 0x57BAD7E3C9EFECF6E1F60BBD846B999E9DA4A409224287A8DF09779F2330135E DUP5 TIMESTAMP PUSH1 0x40 MLOAD PUSH2 0xEDC SWAP3 SWAP2 SWAP1 PUSH2 0x1756 JUMP JUMPDEST PUSH1 0x40 MLOAD DUP1 SWAP2 SUB SWAP1 LOG3 POP POP POP JUMP JUMPDEST PUSH2 0xF07 PUSH20 0x6B175474E89094C44DA98B954EEDEAC495271D0F DUP3 PUSH2 0x6B5 JUMP JUMPDEST POP JUMP JUMPDEST PUSH2 0xF28 PUSH20 0x57AB1EC28D129707052DF4DF418D58A2D46D5F51 DUP3 PUSH2 0x6B5 JUMP JUMPDEST POP JUMP JUMPDEST PUSH0 PUSH1 0x2 PUSH0 CALLER PUSH20 0xFFFFFFFFFFFFFFFFFFFFFFFFFFFFFFFFFFFFFFFF AND PUSH20 0xFFFFFFFFFFFFFFFFFFFFFFFFFFFFFFFFFFFFFFFF AND DUP2 MSTORE PUSH1 0x20 ADD SWAP1 DUP2 MSTORE PUSH1 0x20 ADD PUSH0 KECCAK256 PUSH0 DUP5 PUSH20 0xFFFFFFFFFFFFFFFFFFFFFFFFFFFFFFFFFFFFFFFF AND PUSH20 0xFFFFFFFFFFFFFFFFFFFFFFFFFFFFFFFFFFFFFFFF AND DUP2 MSTORE PUSH1 0x20 ADD SWAP1 DUP2 MSTORE PUSH1 0x20 ADD PUSH0 KECCAK256 SWAP1 POP DUP2 DUP2 PUSH0 ADD SLOAD LT ISZERO PUSH2 0xFEC JUMPI PUSH1 0x40 MLOAD PUSH32 0x8C379A000000000000000000000000000000000000000000000000000000000 DUP2 MSTORE PUSH1 0x4 ADD PUSH2 0xFE3 SWAP1 PUSH2 0x1ACD JUMP JUMPDEST PUSH1 0x40 MLOAD DUP1 SWAP2 SUB SWAP1 REVERT JUMPDEST PUSH3 0x93A80 DUP2 PUSH1 0x1 ADD SLOAD PUSH2 0xFFF SWAP2 SWAP1 PUSH2 0x182C JUMP JUMPDEST TIMESTAMP LT ISZERO PUSH2 0x1041 JUMPI PUSH1 0x40 MLOAD PUSH32 0x8C379A000000000000000000000000000000000000000000000000000000000 DUP2 MSTORE PUSH1 0x4 ADD PUSH2 0x1038 SWAP1 PUSH2 0x1B35 JUMP JUMPDEST PUSH1 0x40 MLOAD DUP1 SWAP2 SUB SWAP1 REVERT JUMPDEST DUP2 DUP2 PUSH0 ADD PUSH0 DUP3 DUP3 SLOAD PUSH2 0x1053 SWAP2 SWAP1 PUSH2 0x1B53 JUMP JUMPDEST SWAP3 POP POP DUP2 SWAP1 SSTORE POP PUSH0 DUP2 PUSH1 0x1 ADD SLOAD TIMESTAMP PUSH2 0x106B SWAP2 SWAP1 PUSH2 0x1B53 JUMP JUMPDEST SWAP1 POP PUSH0 PUSH8 0xDE0B6B3A7640000 DUP5 PUSH4 0x1E13380 PUSH8 0xDE0B6B3A7640000 PUSH2 0x1090 SWAP2 SWAP1 PUSH2 0x1BB3 JUMP JUMPDEST DUP5 PUSH2 0x109B SWAP2 SWAP1 PUSH2 0x1A42 JUMP JUMPDEST PUSH2 0x10A5 SWAP2 SWAP1 PUSH2 0x1A42 JUMP JUMPDEST PUSH2 0x10AF SWAP2 SWAP1 PUSH2 0x1BB3 JUMP JUMPDEST SWAP1 POP DUP1 PUSH1 0x3 PUSH0 CALLER PUSH20 0xFFFFFFFFFFFFFFFFFFFFFFFFFFFFFFFFFFFFFFFF AND PUSH20 0xFFFFFFFFFFFFFFFFFFFFFFFFFFFFFFFFFFFFFFFF AND DUP2 MSTORE PUSH1 0x20 ADD SWAP1 DUP2 MSTORE PUSH1 0x20 ADD PUSH0 KECCAK256 PUSH0 DUP3 DUP3 SLOAD PUSH2 0x10FD SWAP2 SWAP1 PUSH2 0x182C JUMP JUMPDEST SWAP3 POP POP DUP2 SWAP1 SSTORE POP DUP5 PUSH20 0xFFFFFFFFFFFFFFFFFFFFFFFFFFFFFFFFFFFFFFFF AND PUSH4 0xA9059CBB CALLER DUP7 PUSH1 0x40 MLOAD DUP4 PUSH4 0xFFFFFFFF AND PUSH1 0xE0 SHL DUP2 MSTORE PUSH1 0x4 ADD PUSH2 0x113F SWAP3 SWAP2 SWAP1 PUSH2 0x1A1B JUMP JUMPDEST PUSH1 0x20 PUSH1 0x40 MLOAD DUP1 DUP4 SUB DUP2 PUSH0 DUP8 GAS CALL ISZERO DUP1 ISZERO PUSH2 0x115B JUMPI RETURNDATASIZE PUSH0 PUSH0 RETURNDATACOPY RETURNDATASIZE PUSH0 REVERT JUMPDEST POP POP POP POP PUSH1 0x40 MLOAD RETURNDATASIZE PUSH1 0x1F NOT PUSH1 0x1F DUP3 ADD AND DUP3 ADD DUP1 PUSH1 0x40 MSTORE POP DUP2 ADD SWAP1 PUSH2 0x117F SWAP2 SWAP1 PUSH2 0x19F0 JUMP JUMPDEST POP DUP5 PUSH20 0xFFFFFFFFFFFFFFFFFFFFFFFFFFFFFFFFFFFFFFFF AND CALLER PUSH20 0xFFFFFFFFFFFFFFFFFFFFFFFFFFFFFFFFFFFFFFFF AND PUSH32 0xE01911A56BE554FAE2E8C04EBCC1C56C757CE4583C883B878180A6CE99FC8A09 DUP7 DUP5 PUSH1 0x40 MLOAD PUSH2 0x11DF SWAP3 SWAP2 SWAP1 PUSH2 0x1756 JUMP JUMPDEST PUSH1 0x40 MLOAD DUP1 SWAP2 SUB SWAP1 LOG3 POP POP POP POP POP JUMP JUMPDEST PUSH20 0xDAC17F958D2EE523A2206206994597C13D831EC7 DUP2 JUMP JUMPDEST PUSH2 0x120E PUSH2 0x14D6 JUMP JUMPDEST PUSH0 PUSH20 0x5533ED0A3B83F70C3C4A1F69EF5546D3D4713E44 PUSH20 0xFFFFFFFFFFFFFFFFFFFFFFFFFFFFFFFFFFFFFFFF AND PUSH4 0xC600E1DC ADDRESS PUSH1 0x40 MLOAD DUP3 PUSH4 0xFFFFFFFF AND PUSH1 0xE0 SHL DUP2 MSTORE PUSH1 0x4 ADD PUSH2 0x125C SWAP2 SWAP1 PUSH2 0x16C6 JUMP JUMPDEST PUSH1 0x20 PUSH1 0x40 MLOAD DUP1 DUP4 SUB DUP2 DUP7 GAS STATICCALL ISZERO DUP1 ISZERO PUSH2 0x1277 JUMPI RETURNDATASIZE PUSH0 PUSH0 RETURNDATACOPY RETURNDATASIZE PUSH0 REVERT JUMPDEST POP POP POP POP PUSH1 0x40 MLOAD RETURNDATASIZE PUSH1 0x1F NOT PUSH1 0x1F DUP3 ADD AND DUP3 ADD DUP1 PUSH1 0x40 MSTORE POP DUP2 ADD SWAP1 PUSH2 0x129B SWAP2 SWAP1 PUSH2 0x1BF7 JUMP JUMPDEST SWAP1 POP PUSH0 PUSH20 0x5533ED0A3B83F70C3C4A1F69EF5546D3D4713E44 PUSH20 0xFFFFFFFFFFFFFFFFFFFFFFFFFFFFFFFFFFFFFFFF AND PUSH4 0x70A08231 ADDRESS PUSH1 0x40 MLOAD DUP3 PUSH4 0xFFFFFFFF AND PUSH1 0xE0 SHL DUP2 MSTORE PUSH1 0x4 ADD PUSH2 0x12EB SWAP2 SWAP1 PUSH2 0x16C6 JUMP JUMPDEST PUSH1 0x20 PUSH1 0x40 MLOAD DUP1 DUP4 SUB DUP2 DUP7 GAS STATICCALL ISZERO DUP1 ISZERO PUSH2 0x1306 JUMPI RETURNDATASIZE PUSH0 PUSH0 RETURNDATACOPY RETURNDATASIZE PUSH0 REVERT JUMPDEST POP POP POP POP PUSH1 0x40 MLOAD RETURNDATASIZE PUSH1 0x1F NOT PUSH1 0x1F DUP3 ADD AND DUP3 ADD DUP1 PUSH1 0x40 MSTORE POP DUP2 ADD SWAP1 PUSH2 0x132A SWAP2 SWAP1 PUSH2 0x1BF7 JUMP JUMPDEST SWAP1 POP PUSH0 PUSH1 0x64 PUSH1 0x32 DUP5 PUSH2 0x133C SWAP2 SWAP1 PUSH2 0x1A42 JUMP JUMPDEST PUSH2 0x1346 SWAP2 SWAP1 PUSH2 0x1BB3 JUMP JUMPDEST SWAP1 POP PUSH1 0x1 PUSH0 SWAP1 SLOAD SWAP1 PUSH2 0x100 EXP SWAP1 DIV PUSH20 0xFFFFFFFFFFFFFFFFFFFFFFFFFFFFFFFFFFFFFFFF AND PUSH20 0xFFFFFFFFFFFFFFFFFFFFFFFFFFFFFFFFFFFFFFFF AND PUSH4 0xA975B892 DUP5 DUP5 DUP5 PUSH1 0x40 MLOAD DUP5 PUSH4 0xFFFFFFFF AND PUSH1 0xE0 SHL DUP2 MSTORE PUSH1 0x4 ADD PUSH2 0x13A6 SWAP4 SWAP3 SWAP2 SWAP1 PUSH2 0x1C22 JUMP JUMPDEST PUSH0 PUSH1 0x40 MLOAD DUP1 DUP4 SUB DUP2 PUSH0 DUP8 DUP1 EXTCODESIZE ISZERO DUP1 ISZERO PUSH2 0x13BD JUMPI PUSH0 PUSH0 REVERT JUMPDEST POP GAS CALL ISZERO DUP1 ISZERO PUSH2 0x13CF JUMPI RETURNDATASIZE PUSH0 PUSH0 RETURNDATACOPY RETURNDATASIZE PUSH0 REVERT JUMPDEST POP POP POP POP PUSH32 0x8EAAFF2BA16DA1160FD06CCB389B317B1EEBA725461562003201A60AE6CB9750 DUP3 DUP5 PUSH0 PUSH0 PUSH0 PUSH0 PUSH1 0x40 MLOAD PUSH2 0x140C SWAP7 SWAP6 SWAP5 SWAP4 SWAP3 SWAP2 SWAP1 PUSH2 0x1C99 JUMP JUMPDEST PUSH1 0x40 MLOAD DUP1 SWAP2 SUB SWAP1 LOG1 POP POP POP JUMP JUMPDEST PUSH20 0x6B175474E89094C44DA98B954EEDEAC495271D0F DUP2 JUMP JUMPDEST PUSH2 0x1439 PUSH2 0x14D6 JUMP JUMPDEST PUSH0 PUSH20 0xFFFFFFFFFFFFFFFFFFFFFFFFFFFFFFFFFFFFFFFF AND DUP2 PUSH20 0xFFFFFFFFFFFFFFFFFFFFFFFFFFFFFFFFFFFFFFFF AND SUB PUSH2 0x14A9 JUMPI PUSH0 PUSH1 0x40 MLOAD PUSH32 0x1E4FBDF700000000000000000000000000000000000000000000000000000000 DUP2 MSTORE PUSH1 0x4 ADD PUSH2 0x14A0 SWAP2 SWAP1 PUSH2 0x16C6 JUMP JUMPDEST PUSH1 0x40 MLOAD DUP1 SWAP2 SUB SWAP1 REVERT JUMPDEST PUSH2 0x14B2 DUP2 PUSH2 0x155D JUMP JUMPDEST POP JUMP JUMPDEST PUSH2 0x14D3 PUSH20 0xA0B86991C6218B36C1D19D4A2E9EB0CE3606EB48 DUP3 PUSH2 0x6B5 JUMP JUMPDEST POP JUMP JUMPDEST PUSH2 0x14DE PUSH2 0x161E JUMP JUMPDEST PUSH20 0xFFFFFFFFFFFFFFFFFFFFFFFFFFFFFFFFFFFFFFFF AND PUSH2 0x14FC PUSH2 0x68E JUMP JUMPDEST PUSH20 0xFFFFFFFFFFFFFFFFFFFFFFFFFFFFFFFFFFFFFFFF AND EQ PUSH2 0x155B JUMPI PUSH2 0x151F PUSH2 0x161E JUMP JUMPDEST PUSH1 0x40 MLOAD PUSH32 0x118CDAA700000000000000000000000000000000000000000000000000000000 DUP2 MSTORE PUSH1 0x4 ADD PUSH2 0x1552 SWAP2 SWAP1 PUSH2 0x16C6 JUMP JUMPDEST PUSH1 0x40 MLOAD DUP1 SWAP2 SUB SWAP1 REVERT JUMPDEST JUMP JUMPDEST PUSH0 PUSH0 PUSH0 SWAP1 SLOAD SWAP1 PUSH2 0x100 EXP SWAP1 DIV PUSH20 0xFFFFFFFFFFFFFFFFFFFFFFFFFFFFFFFFFFFFFFFF AND SWAP1 POP DUP2 PUSH0 PUSH0 PUSH2 0x100 EXP DUP2 SLOAD DUP2 PUSH20 0xFFFFFFFFFFFFFFFFFFFFFFFFFFFFFFFFFFFFFFFF MUL NOT AND SWAP1 DUP4 PUSH20 0xFFFFFFFFFFFFFFFFFFFFFFFFFFFFFFFFFFFFFFFF AND MUL OR SWAP1 SSTORE POP DUP2 PUSH20 0xFFFFFFFFFFFFFFFFFFFFFFFFFFFFFFFFFFFFFFFF AND DUP2 PUSH20 0xFFFFFFFFFFFFFFFFFFFFFFFFFFFFFFFFFFFFFFFF AND PUSH32 0x8BE0079C531659141344CD1FD0A4F28419497F9722A3DAAFE3B4186F6B6457E0 PUSH1 0x40 MLOAD PUSH1 0x40 MLOAD DUP1 SWAP2 SUB SWAP1 LOG3 POP POP JUMP JUMPDEST PUSH0 CALLER SWAP1 POP SWAP1 JUMP JUMPDEST PUSH0 PUSH0 REVERT JUMPDEST PUSH0 DUP2 SWAP1 POP SWAP2 SWAP1 POP JUMP JUMPDEST PUSH2 0x163B DUP2 PUSH2 0x1629 JUMP JUMPDEST DUP2 EQ PUSH2 0x1645 JUMPI PUSH0 PUSH0 REVERT JUMPDEST POP JUMP JUMPDEST PUSH0 DUP2 CALLDATALOAD SWAP1 POP PUSH2 0x1656 DUP2 PUSH2 0x1632 JUMP JUMPDEST SWAP3 SWAP2 POP POP JUMP JUMPDEST PUSH0 PUSH1 0x20 DUP3 DUP5 SUB SLT ISZERO PUSH2 0x1671 JUMPI PUSH2 0x1670 PUSH2 0x1625 JUMP JUMPDEST JUMPDEST PUSH0 PUSH2 0x167E DUP5 DUP3 DUP6 ADD PUSH2 0x1648 JUMP JUMPDEST SWAP2 POP POP SWAP3 SWAP2 POP POP JUMP JUMPDEST PUSH0 PUSH20 0xFFFFFFFFFFFFFFFFFFFFFFFFFFFFFFFFFFFFFFFF DUP3 AND SWAP1 POP SWAP2 SWAP1 POP JUMP JUMPDEST PUSH0 PUSH2 0x16B0 DUP3 PUSH2 0x1687 JUMP JUMPDEST SWAP1 POP SWAP2 SWAP1 POP JUMP JUMPDEST PUSH2 0x16C0 DUP2 PUSH2 0x16A6 JUMP JUMPDEST DUP3 MSTORE POP POP JUMP JUMPDEST PUSH0 PUSH1 0x20 DUP3 ADD SWAP1 POP PUSH2 0x16D9 PUSH0 DUP4 ADD DUP5 PUSH2 0x16B7 JUMP JUMPDEST SWAP3 SWAP2 POP POP JUMP JUMPDEST PUSH2 0x16E8 DUP2 PUSH2 0x16A6 JUMP JUMPDEST DUP2 EQ PUSH2 0x16F2 JUMPI PUSH0 PUSH0 REVERT JUMPDEST POP JUMP JUMPDEST PUSH0 DUP2 CALLDATALOAD SWAP1 POP PUSH2 0x1703 DUP2 PUSH2 0x16DF JUMP JUMPDEST SWAP3 SWAP2 POP POP JUMP JUMPDEST PUSH0 PUSH0 PUSH1 0x40 DUP4 DUP6 SUB SLT ISZERO PUSH2 0x171F JUMPI PUSH2 0x171E PUSH2 0x1625 JUMP JUMPDEST JUMPDEST PUSH0 PUSH2 0x172C DUP6 DUP3 DUP7 ADD PUSH2 0x16F5 JUMP JUMPDEST SWAP3 POP POP PUSH1 0x20 PUSH2 0x173D DUP6 DUP3 DUP7 ADD PUSH2 0x16F5 JUMP JUMPDEST SWAP2 POP POP SWAP3 POP SWAP3 SWAP1 POP JUMP JUMPDEST PUSH2 0x1750 DUP2 PUSH2 0x1629 JUMP JUMPDEST DUP3 MSTORE POP POP JUMP JUMPDEST PUSH0 PUSH1 0x40 DUP3 ADD SWAP1 POP PUSH2 0x1769 PUSH0 DUP4 ADD DUP6 PUSH2 0x1747 JUMP JUMPDEST PUSH2 0x1776 PUSH1 0x20 DUP4 ADD DUP5 PUSH2 0x1747 JUMP JUMPDEST SWAP4 SWAP3 POP POP POP JUMP JUMPDEST PUSH0 PUSH1 0x20 DUP3 DUP5 SUB SLT ISZERO PUSH2 0x1792 JUMPI PUSH2 0x1791 PUSH2 0x1625 JUMP JUMPDEST JUMPDEST PUSH0 PUSH2 0x179F DUP5 DUP3 DUP6 ADD PUSH2 0x16F5 JUMP JUMPDEST SWAP2 POP POP SWAP3 SWAP2 POP POP JUMP JUMPDEST PUSH0 PUSH1 0x20 DUP3 ADD SWAP1 POP PUSH2 0x17BB PUSH0 DUP4 ADD DUP5 PUSH2 0x1747 JUMP JUMPDEST SWAP3 SWAP2 POP POP JUMP JUMPDEST PUSH0 PUSH0 PUSH1 0x40 DUP4 DUP6 SUB SLT ISZERO PUSH2 0x17D7 JUMPI PUSH2 0x17D6 PUSH2 0x1625 JUMP JUMPDEST JUMPDEST PUSH0 PUSH2 0x17E4 DUP6 DUP3 DUP7 ADD PUSH2 0x16F5 JUMP JUMPDEST SWAP3 POP POP PUSH1 0x20 PUSH2 0x17F5 DUP6 DUP3 DUP7 ADD PUSH2 0x1648 JUMP JUMPDEST SWAP2 POP POP SWAP3 POP SWAP3 SWAP1 POP JUMP JUMPDEST PUSH32 0x4E487B7100000000000000000000000000000000000000000000000000000000 PUSH0 MSTORE PUSH1 0x11 PUSH1 0x4 MSTORE PUSH1 0x24 PUSH0 REVERT JUMPDEST PUSH0 PUSH2 0x1836 DUP3 PUSH2 0x1629 JUMP JUMPDEST SWAP2 POP PUSH2 0x1841 DUP4 PUSH2 0x1629 JUMP JUMPDEST SWAP3 POP DUP3 DUP3 ADD SWAP1 POP DUP1 DUP3 GT ISZERO PUSH2 0x1859 JUMPI PUSH2 0x1858 PUSH2 0x17FF JUMP JUMPDEST JUMPDEST SWAP3 SWAP2 POP POP JUMP JUMPDEST PUSH0 PUSH2 0x1869 DUP3 PUSH2 0x1687 JUMP JUMPDEST SWAP2 POP PUSH2 0x1874 DUP4 PUSH2 0x1687 JUMP JUMPDEST SWAP3 POP DUP3 DUP3 ADD SWAP1 POP PUSH20 0xFFFFFFFFFFFFFFFFFFFFFFFFFFFFFFFFFFFFFFFF DUP2 GT ISZERO PUSH2 0x18A0 JUMPI PUSH2 0x189F PUSH2 0x17FF JUMP JUMPDEST JUMPDEST SWAP3 SWAP2 POP POP JUMP JUMPDEST PUSH0 DUP3 DUP3 MSTORE PUSH1 0x20 DUP3 ADD SWAP1 POP SWAP3 SWAP2 POP POP JUMP JUMPDEST PUSH32 0x556E737570706F7274656420746F6B656E000000000000000000000000000000 PUSH0 DUP3 ADD MSTORE POP JUMP JUMPDEST PUSH0 PUSH2 0x18EA PUSH1 0x11 DUP4 PUSH2 0x18A6 JUMP JUMPDEST SWAP2 POP PUSH2 0x18F5 DUP3 PUSH2 0x18B6 JUMP JUMPDEST PUSH1 0x20 DUP3 ADD SWAP1 POP SWAP2 SWAP1 POP JUMP JUMPDEST PUSH0 PUSH1 0x20 DUP3 ADD SWAP1 POP DUP2 DUP2 SUB PUSH0 DUP4 ADD MSTORE PUSH2 0x1917 DUP2 PUSH2 0x18DE JUMP JUMPDEST SWAP1 POP SWAP2 SWAP1 POP JUMP JUMPDEST PUSH32 0x416D6F756E74206D7573742062652067726561746572207468616E207A65726F PUSH0 DUP3 ADD MSTORE POP JUMP JUMPDEST PUSH0 PUSH2 0x1952 PUSH1 0x20 DUP4 PUSH2 0x18A6 JUMP JUMPDEST SWAP2 POP PUSH2 0x195D DUP3 PUSH2 0x191E JUMP JUMPDEST PUSH1 0x20 DUP3 ADD SWAP1 POP SWAP2 SWAP1 POP JUMP JUMPDEST PUSH0 PUSH1 0x20 DUP3 ADD SWAP1 POP DUP2 DUP2 SUB PUSH0 DUP4 ADD MSTORE PUSH2 0x197F DUP2 PUSH2 0x1946 JUMP JUMPDEST SWAP1 POP SWAP2 SWAP1 POP JUMP JUMPDEST PUSH0 PUSH1 0x60 DUP3 ADD SWAP1 POP PUSH2 0x1999 PUSH0 DUP4 ADD DUP7 PUSH2 0x16B7 JUMP JUMPDEST PUSH2 0x19A6 PUSH1 0x20 DUP4 ADD DUP6 PUSH2 0x16B7 JUMP JUMPDEST PUSH2 0x19B3 PUSH1 0x40 DUP4 ADD DUP5 PUSH2 0x1747 JUMP JUMPDEST SWAP5 SWAP4 POP POP POP POP JUMP JUMPDEST PUSH0 DUP2 ISZERO ISZERO SWAP1 POP SWAP2 SWAP1 POP JUMP JUMPDEST PUSH2 0x19CF DUP2 PUSH2 0x19BB JUMP JUMPDEST DUP2 EQ PUSH2 0x19D9 JUMPI PUSH0 PUSH0 REVERT JUMPDEST POP JUMP JUMPDEST PUSH0 DUP2 MLOAD SWAP1 POP PUSH2 0x19EA DUP2 PUSH2 0x19C6 JUMP JUMPDEST SWAP3 SWAP2 POP POP JUMP JUMPDEST PUSH0 PUSH1 0x20 DUP3 DUP5 SUB SLT ISZERO PUSH2 0x1A05 JUMPI PUSH2 0x1A04 PUSH2 0x1625 JUMP JUMPDEST JUMPDEST PUSH0 PUSH2 0x1A12 DUP5 DUP3 DUP6 ADD PUSH2 0x19DC JUMP JUMPDEST SWAP2 POP POP SWAP3 SWAP2 POP POP JUMP JUMPDEST PUSH0 PUSH1 0x40 DUP3 ADD SWAP1 POP PUSH2 0x1A2E PUSH0 DUP4 ADD DUP6 PUSH2 0x16B7 JUMP JUMPDEST PUSH2 0x1A3B PUSH1 0x20 DUP4 ADD DUP5 PUSH2 0x1747 JUMP JUMPDEST SWAP4 SWAP3 POP POP POP JUMP JUMPDEST PUSH0 PUSH2 0x1A4C DUP3 PUSH2 0x1629 JUMP JUMPDEST SWAP2 POP PUSH2 0x1A57 DUP4 PUSH2 0x1629 JUMP JUMPDEST SWAP3 POP DUP3 DUP3 MUL PUSH2 0x1A65 DUP2 PUSH2 0x1629 JUMP JUMPDEST SWAP2 POP DUP3 DUP3 DIV DUP5 EQ DUP4 ISZERO OR PUSH2 0x1A7C JUMPI PUSH2 0x1A7B PUSH2 0x17FF JUMP JUMPDEST JUMPDEST POP SWAP3 SWAP2 POP POP JUMP JUMPDEST PUSH32 0x496E73756666696369656E742062616C616E6365000000000000000000000000 PUSH0 DUP3 ADD MSTORE POP JUMP JUMPDEST PUSH0 PUSH2 0x1AB7 PUSH1 0x14 DUP4 PUSH2 0x18A6 JUMP JUMPDEST SWAP2 POP PUSH2 0x1AC2 DUP3 PUSH2 0x1A83 JUMP JUMPDEST PUSH1 0x20 DUP3 ADD SWAP1 POP SWAP2 SWAP1 POP JUMP JUMPDEST PUSH0 PUSH1 0x20 DUP3 ADD SWAP1 POP DUP2 DUP2 SUB PUSH0 DUP4 ADD MSTORE PUSH2 0x1AE4 DUP2 PUSH2 0x1AAB JUMP JUMPDEST SWAP1 POP SWAP2 SWAP1 POP JUMP JUMPDEST PUSH32 0x5769746864726177616C206C6F636B656420666F722037206461797300000000 PUSH0 DUP3 ADD MSTORE POP JUMP JUMPDEST PUSH0 PUSH2 0x1B1F PUSH1 0x1C DUP4 PUSH2 0x18A6 JUMP JUMPDEST SWAP2 POP PUSH2 0x1B2A DUP3 PUSH2 0x1AEB JUMP JUMPDEST PUSH1 0x20 DUP3 ADD SWAP1 POP SWAP2 SWAP1 POP JUMP JUMPDEST PUSH0 PUSH1 0x20 DUP3 ADD SWAP1 POP DUP2 DUP2 SUB PUSH0 DUP4 ADD MSTORE PUSH2 0x1B4C DUP2 PUSH2 0x1B13 JUMP JUMPDEST SWAP1 POP SWAP2 SWAP1 POP JUMP JUMPDEST PUSH0 PUSH2 0x1B5D DUP3 PUSH2 0x1629 JUMP JUMPDEST SWAP2 POP PUSH2 0x1B68 DUP4 PUSH2 0x1629 JUMP JUMPDEST SWAP3 POP DUP3 DUP3 SUB SWAP1 POP DUP2 DUP2 GT ISZERO PUSH2 0x1B80 JUMPI PUSH2 0x1B7F PUSH2 0x17FF JUMP JUMPDEST JUMPDEST SWAP3 SWAP2 POP POP JUMP JUMPDEST PUSH32 0x4E487B7100000000000000000000000000000000000000000000000000000000 PUSH0 MSTORE PUSH1 0x12 PUSH1 0x4 MSTORE PUSH1 0x24 PUSH0 REVERT JUMPDEST PUSH0 PUSH2 0x1BBD DUP3 PUSH2 0x1629 JUMP JUMPDEST SWAP2 POP PUSH2 0x1BC8 DUP4 PUSH2 0x1629 JUMP JUMPDEST SWAP3 POP DUP3 PUSH2 0x1BD8 JUMPI PUSH2 0x1BD7 PUSH2 0x1B86 JUMP JUMPDEST JUMPDEST DUP3 DUP3 DIV SWAP1 POP SWAP3 SWAP2 POP POP JUMP JUMPDEST PUSH0 DUP2 MLOAD SWAP1 POP PUSH2 0x1BF1 DUP2 PUSH2 0x1632 JUMP JUMPDEST SWAP3 SWAP2 POP POP JUMP JUMPDEST PUSH0 PUSH1 0x20 DUP3 DUP5 SUB SLT ISZERO PUSH2 0x1C0C JUMPI PUSH2 0x1C0B PUSH2 0x1625 JUMP JUMPDEST JUMPDEST PUSH0 PUSH2 0x1C19 DUP5 DUP3 DUP6 ADD PUSH2 0x1BE3 JUMP JUMPDEST SWAP2 POP POP SWAP3 SWAP2 POP POP JUMP JUMPDEST PUSH0 PUSH1 0x60 DUP3 ADD SWAP1 POP PUSH2 0x1C35 PUSH0 DUP4 ADD DUP7 PUSH2 0x1747 JUMP JUMPDEST PUSH2 0x1C42 PUSH1 0x20 DUP4 ADD DUP6 PUSH2 0x1747 JUMP JUMPDEST PUSH2 0x1C4F PUSH1 0x40 DUP4 ADD DUP5 PUSH2 0x1747 JUMP JUMPDEST SWAP5 SWAP4 POP POP POP POP JUMP JUMPDEST PUSH0 DUP2 SWAP1 POP SWAP2 SWAP1 POP JUMP JUMPDEST PUSH0 DUP2 SWAP1 POP SWAP2 SWAP1 POP JUMP JUMPDEST PUSH0 PUSH2 0x1C83 PUSH2 0x1C7E PUSH2 0x1C79 DUP5 PUSH2 0x1C57 JUMP JUMPDEST PUSH2 0x1C60 JUMP JUMPDEST PUSH2 0x1629 JUMP JUMPDEST SWAP1 POP SWAP2 SWAP1 POP JUMP JUMPDEST PUSH2 0x1C93 DUP2 PUSH2 0x1C69 JUMP JUMPDEST DUP3 MSTORE POP POP JUMP JUMPDEST PUSH0 PUSH1 0xC0 DUP3 ADD SWAP1 POP PUSH2 0x1CAC PUSH0 DUP4 ADD DUP10 PUSH2 0x1747 JUMP JUMPDEST PUSH2 0x1CB9 PUSH1 0x20 DUP4 ADD DUP9 PUSH2 0x1747 JUMP JUMPDEST PUSH2 0x1CC6 PUSH1 0x40 DUP4 ADD DUP8 PUSH2 0x1C8A JUMP JUMPDEST PUSH2 0x1CD3 PUSH1 0x60 DUP4 ADD DUP7 PUSH2 0x1C8A JUMP JUMPDEST PUSH2 0x1CE0 PUSH1 0x80 DUP4 ADD DUP6 PUSH2 0x1C8A JUMP JUMPDEST PUSH2 0x1CED PUSH1 0xA0 DUP4 ADD DUP5 PUSH2 0x1C8A JUMP JUMPDEST SWAP8 SWAP7 POP POP POP POP POP POP POP JUMP INVALID LOG2 PUSH5 0x6970667358 0x22 SLT KECCAK256 PUSH10 0xFE46AB80EF27D5443065 0xDD ADDRESS PC 0xE1 0xD1 SWAP6 OR SWAP8 SAR 0x27 0xC3 0xA7 0x2D 0xB4 0xEE 0xC4 SWAP15 PUSH30 0x740F7264736F6C634300081C003300000000000000000000000000000000 "
				},
				"gasEstimates": {
					"creation": {
						"codeDepositCost": "1494000",
						"executionCost": "infinite",
						"totalCost": "infinite"
					},
					"external": {
						"DAI()": "461",
						"SUSD()": "419",
						"USDC()": "396",
						"USDT()": "417",
						"YCRV_VAULT()": "506",
						"calculateWeeklyProfits()": "infinite",
						"depositToDAI(uint256)": "infinite",
						"depositToSUSD(uint256)": "infinite",
						"depositToUSDC(uint256)": "infinite",
						"depositToUSDT(uint256)": "infinite",
						"depositToVault(address,uint256)": "infinite",
						"donateDAI(uint256)": "infinite",
						"donateSUSD(uint256)": "infinite",
						"donateToVault(address,uint256)": "infinite",
						"donateUSDC(uint256)": "infinite",
						"donateUSDT(uint256)": "infinite",
						"mintTokensBeforeDraw()": "infinite",
						"owner()": "2559",
						"prizeManager()": "2598",
						"releasedTokens(address)": "2891",
						"renounceOwnership()": "infinite",
						"transferOwnership(address)": "infinite",
						"userDeposits(address,address)": "infinite",
						"withdrawFunds(address,uint256)": "infinite"
					}
				},
				"methodIdentifiers": {
					"DAI()": "e0bab4c4",
					"SUSD()": "15d8eeba",
					"USDC()": "89a30271",
					"USDT()": "c54e44eb",
					"YCRV_VAULT()": "791f96a7",
					"calculateWeeklyProfits()": "de61e265",
					"depositToDAI(uint256)": "161e5cbd",
					"depositToSUSD(uint256)": "0594cc4e",
					"depositToUSDC(uint256)": "556c9166",
					"depositToUSDT(uint256)": "6fdea731",
					"depositToVault(address,uint256)": "a3d11158",
					"donateDAI(uint256)": "a544594e",
					"donateSUSD(uint256)": "b882ba74",
					"donateToVault(address,uint256)": "a2da905f",
					"donateUSDC(uint256)": "f9ba9f71",
					"donateUSDT(uint256)": "5610eca0",
					"mintTokensBeforeDraw()": "4b95f2f4",
					"owner()": "8da5cb5b",
					"prizeManager()": "3d6f4369",
					"releasedTokens(address)": "70ff852b",
					"renounceOwnership()": "715018a6",
					"transferOwnership(address)": "f2fde38b",
					"userDeposits(address,address)": "436d8039",
					"withdrawFunds(address,uint256)": "c1075329"
				}
			},
			"storageLayout": {
				"storage": [
					{
						"astId": 8,
						"contract": "contracts/VaultManager.sol:VaultManager",
						"label": "_owner",
						"offset": 0,
						"slot": "0",
						"type": "t_address"
					},
					{
						"astId": 258,
						"contract": "contracts/VaultManager.sol:VaultManager",
						"label": "prizeManager",
						"offset": 0,
						"slot": "1",
						"type": "t_address"
					},
					{
						"astId": 285,
						"contract": "contracts/VaultManager.sol:VaultManager",
						"label": "userDeposits",
						"offset": 0,
						"slot": "2",
						"type": "t_mapping(t_address,t_mapping(t_address,t_struct(DepositInfo)278_storage))"
					},
					{
						"astId": 289,
						"contract": "contracts/VaultManager.sol:VaultManager",
						"label": "releasedTokens",
						"offset": 0,
						"slot": "3",
						"type": "t_mapping(t_address,t_uint256)"
					}
				],
				"types": {
					"t_address": {
						"encoding": "inplace",
						"label": "address",
						"numberOfBytes": "20"
					},
					"t_mapping(t_address,t_mapping(t_address,t_struct(DepositInfo)278_storage))": {
						"encoding": "mapping",
						"key": "t_address",
						"label": "mapping(address => mapping(address => struct VaultManager.DepositInfo))",
						"numberOfBytes": "32",
						"value": "t_mapping(t_address,t_struct(DepositInfo)278_storage)"
					},
					"t_mapping(t_address,t_struct(DepositInfo)278_storage)": {
						"encoding": "mapping",
						"key": "t_address",
						"label": "mapping(address => struct VaultManager.DepositInfo)",
						"numberOfBytes": "32",
						"value": "t_struct(DepositInfo)278_storage"
					},
					"t_mapping(t_address,t_uint256)": {
						"encoding": "mapping",
						"key": "t_address",
						"label": "mapping(address => uint256)",
						"numberOfBytes": "32",
						"value": "t_uint256"
					},
					"t_struct(DepositInfo)278_storage": {
						"encoding": "inplace",
						"label": "struct VaultManager.DepositInfo",
						"members": [
							{
								"astId": 275,
								"contract": "contracts/VaultManager.sol:VaultManager",
								"label": "amount",
								"offset": 0,
								"slot": "0",
								"type": "t_uint256"
							},
							{
								"astId": 277,
								"contract": "contracts/VaultManager.sol:VaultManager",
								"label": "timestamp",
								"offset": 0,
								"slot": "1",
								"type": "t_uint256"
							}
						],
						"numberOfBytes": "64"
					},
					"t_uint256": {
						"encoding": "inplace",
						"label": "uint256",
						"numberOfBytes": "32"
					}
				}
			},
			"userdoc": {
				"kind": "user",
				"methods": {},
				"version": 1
			}
		}
	}
}