{
	"contracts/PrizeManager.sol": {
		"PrizeManager": {
			"abi": [
				{
					"inputs": [
						{
							"internalType": "address",
							"name": "initialOwner",
							"type": "address"
						},
						{
							"internalType": "address",
							"name": "_nasicoinToken",
							"type": "address"
						}
					],
					"stateMutability": "nonpayable",
					"type": "constructor"
				},
				{
					"inputs": [
						{
							"internalType": "address",
							"name": "owner",
							"type": "address"
						}
					],
					"name": "OwnableInvalidOwner",
					"type": "error"
				},
				{
					"inputs": [
						{
							"internalType": "address",
							"name": "account",
							"type": "address"
						}
					],
					"name": "OwnableUnauthorizedAccount",
					"type": "error"
				},
				{
					"anonymous": false,
					"inputs": [
						{
							"indexed": false,
							"internalType": "uint256",
							"name": "ownerDividend",
							"type": "uint256"
						},
						{
							"indexed": false,
							"internalType": "uint256",
							"name": "developerDividend",
							"type": "uint256"
						}
					],
					"name": "DividendsUpdated",
					"type": "event"
				},
				{
					"anonymous": false,
					"inputs": [
						{
							"indexed": true,
							"internalType": "address",
							"name": "previousOwner",
							"type": "address"
						},
						{
							"indexed": true,
							"internalType": "address",
							"name": "newOwner",
							"type": "address"
						}
					],
					"name": "OwnershipTransferred",
					"type": "event"
				},
				{
					"anonymous": false,
					"inputs": [
						{
							"indexed": false,
							"internalType": "uint256",
							"name": "superPrize",
							"type": "uint256"
						},
						{
							"indexed": false,
							"internalType": "uint256",
							"name": "highPrize",
							"type": "uint256"
						},
						{
							"indexed": false,
							"internalType": "uint256",
							"name": "middlePrize",
							"type": "uint256"
						},
						{
							"indexed": false,
							"internalType": "uint256",
							"name": "lowPrize",
							"type": "uint256"
						}
					],
					"name": "PrizePoolsUpdated",
					"type": "event"
				},
				{
					"anonymous": false,
					"inputs": [
						{
							"indexed": false,
							"internalType": "uint256",
							"name": "newPrizeScale",
							"type": "uint256"
						}
					],
					"name": "PrizeScaleUpdated",
					"type": "event"
				},
				{
					"anonymous": false,
					"inputs": [
						{
							"indexed": false,
							"internalType": "uint256",
							"name": "superPrizeWinners",
							"type": "uint256"
						},
						{
							"indexed": false,
							"internalType": "uint256",
							"name": "highPrizeWinners",
							"type": "uint256"
						},
						{
							"indexed": false,
							"internalType": "uint256",
							"name": "middlePrizeWinners",
							"type": "uint256"
						},
						{
							"indexed": false,
							"internalType": "uint256",
							"name": "lowPrizeWinners",
							"type": "uint256"
						}
					],
					"name": "PrizesDistributed",
					"type": "event"
				},
				{
					"anonymous": false,
					"inputs": [
						{
							"indexed": false,
							"internalType": "uint256",
							"name": "totalMinted",
							"type": "uint256"
						}
					],
					"name": "TokensMintedToUsers",
					"type": "event"
				},
				{
					"anonymous": false,
					"inputs": [
						{
							"indexed": false,
							"internalType": "uint256",
							"name": "totalInvested",
							"type": "uint256"
						},
						{
							"indexed": false,
							"internalType": "uint256",
							"name": "weeklyProfit",
							"type": "uint256"
						},
						{
							"indexed": false,
							"internalType": "uint256",
							"name": "lowPrizeRemaining",
							"type": "uint256"
						},
						{
							"indexed": false,
							"internalType": "uint256",
							"name": "middlePrizeRemaining",
							"type": "uint256"
						},
						{
							"indexed": false,
							"internalType": "uint256",
							"name": "highPrizeRemaining",
							"type": "uint256"
						},
						{
							"indexed": false,
							"internalType": "uint256",
							"name": "superPrizeRemaining",
							"type": "uint256"
						}
					],
					"name": "WeeklyReport",
					"type": "event"
				},
				{
					"inputs": [],
					"name": "developerDividend",
					"outputs": [
						{
							"internalType": "uint256",
							"name": "",
							"type": "uint256"
						}
					],
					"stateMutability": "view",
					"type": "function"
				},
				{
					"inputs": [],
					"name": "distributeDeveloperDividends",
					"outputs": [
						{
							"internalType": "bool",
							"name": "",
							"type": "bool"
						}
					],
					"stateMutability": "view",
					"type": "function"
				},
				{
					"inputs": [],
					"name": "distributeOwnerDividends",
					"outputs": [
						{
							"internalType": "bool",
							"name": "",
							"type": "bool"
						}
					],
					"stateMutability": "view",
					"type": "function"
				},
				{
					"inputs": [
						{
							"internalType": "uint256",
							"name": "totalInvested",
							"type": "uint256"
						},
						{
							"internalType": "uint256",
							"name": "weeklyProfit",
							"type": "uint256"
						}
					],
					"name": "emitWeeklyReport",
					"outputs": [],
					"stateMutability": "nonpayable",
					"type": "function"
				},
				{
					"inputs": [],
					"name": "highPrize",
					"outputs": [
						{
							"internalType": "uint256",
							"name": "",
							"type": "uint256"
						}
					],
					"stateMutability": "view",
					"type": "function"
				},
				{
					"inputs": [],
					"name": "lowPrize",
					"outputs": [
						{
							"internalType": "uint256",
							"name": "",
							"type": "uint256"
						}
					],
					"stateMutability": "view",
					"type": "function"
				},
				{
					"inputs": [],
					"name": "middlePrize",
					"outputs": [
						{
							"internalType": "uint256",
							"name": "",
							"type": "uint256"
						}
					],
					"stateMutability": "view",
					"type": "function"
				},
				{
					"inputs": [],
					"name": "nasicoinToken",
					"outputs": [
						{
							"internalType": "address",
							"name": "",
							"type": "address"
						}
					],
					"stateMutability": "view",
					"type": "function"
				},
				{
					"inputs": [],
					"name": "owner",
					"outputs": [
						{
							"internalType": "address",
							"name": "",
							"type": "address"
						}
					],
					"stateMutability": "view",
					"type": "function"
				},
				{
					"inputs": [],
					"name": "ownerDividend",
					"outputs": [
						{
							"internalType": "uint256",
							"name": "",
							"type": "uint256"
						}
					],
					"stateMutability": "view",
					"type": "function"
				},
				{
					"inputs": [],
					"name": "prepareForPrizeDraw",
					"outputs": [],
					"stateMutability": "nonpayable",
					"type": "function"
				},
				{
					"inputs": [],
					"name": "prizeScale",
					"outputs": [
						{
							"internalType": "uint256",
							"name": "",
							"type": "uint256"
						}
					],
					"stateMutability": "view",
					"type": "function"
				},
				{
					"inputs": [
						{
							"internalType": "address",
							"name": "",
							"type": "address"
						}
					],
					"name": "releasedTokens",
					"outputs": [
						{
							"internalType": "uint256",
							"name": "",
							"type": "uint256"
						}
					],
					"stateMutability": "view",
					"type": "function"
				},
				{
					"inputs": [],
					"name": "renounceOwnership",
					"outputs": [],
					"stateMutability": "nonpayable",
					"type": "function"
				},
				{
					"inputs": [],
					"name": "superPrize",
					"outputs": [
						{
							"internalType": "uint256",
							"name": "",
							"type": "uint256"
						}
					],
					"stateMutability": "view",
					"type": "function"
				},
				{
					"inputs": [
						{
							"internalType": "address",
							"name": "newOwner",
							"type": "address"
						}
					],
					"name": "transferOwnership",
					"outputs": [],
					"stateMutability": "nonpayable",
					"type": "function"
				},
				{
					"inputs": [
						{
							"internalType": "uint256",
							"name": "profits",
							"type": "uint256"
						}
					],
					"name": "updatePrizePools",
					"outputs": [],
					"stateMutability": "nonpayable",
					"type": "function"
				}
			],
			"devdoc": {
				"details": "Manages prize pools, distributions, and random winner selection.",
				"errors": {
					"OwnableInvalidOwner(address)": [
						{
							"details": "The owner is not a valid owner account. (eg. `address(0)`)"
						}
					],
					"OwnableUnauthorizedAccount(address)": [
						{
							"details": "The caller account is not authorized to perform an operation."
						}
					]
				},
				"kind": "dev",
				"methods": {
					"constructor": {
						"params": {
							"initialOwner": "Address of the initial owner."
						}
					},
					"owner()": {
						"details": "Returns the address of the current owner."
					},
					"renounceOwnership()": {
						"details": "Leaves the contract without owner. It will not be possible to call `onlyOwner` functions. Can only be called by the current owner. NOTE: Renouncing ownership will leave the contract without an owner, thereby disabling any functionality that is only available to the owner."
					},
					"transferOwnership(address)": {
						"details": "Transfers ownership of the contract to a new account (`newOwner`). Can only be called by the current owner."
					},
					"updatePrizePools(uint256)": {
						"params": {
							"profits": "Total profits accumulated over the week."
						}
					}
				},
				"title": "PrizeManager",
				"version": 1
			},
			"evm": {
				"assembly": "    /* \"contracts/PrizeManager.sol\":304:4229  contract PrizeManager is Ownable {... */\n  mstore(0x40, 0x80)\n    /* \"contracts/PrizeManager.sol\":650:652  10 */\n  0x0a\n    /* \"contracts/PrizeManager.sol\":622:652  uint256 public prizeScale = 10 */\n  0x07\n  sstore\n    /* \"contracts/PrizeManager.sol\":781:786  false */\n  0x00\n    /* \"contracts/PrizeManager.sol\":742:786  bool public distributeOwnerDividends = false */\n  0x09\n  exp(0x0100, 0x00)\n  dup2\n  sload\n  dup2\n  0xff\n  mul\n  not\n  and\n  swap1\n  dup4\n  iszero\n  iszero\n  mul\n  or\n  swap1\n  sstore\n  pop\n    /* \"contracts/PrizeManager.sol\":836:841  false */\n  0x00\n    /* \"contracts/PrizeManager.sol\":793:841  bool public distributeDeveloperDividends = false */\n  0x09\n  exp(0x0100, 0x01)\n  dup2\n  sload\n  dup2\n  0xff\n  mul\n  not\n  and\n  swap1\n  dup4\n  iszero\n  iszero\n  mul\n  or\n  swap1\n  sstore\n  pop\n    /* \"contracts/PrizeManager.sol\":1790:2001  constructor(address initialOwner, address _nasicoinToken) Ownable(initialOwner) {... */\n  callvalue\n  dup1\n  iszero\n  tag_1\n  jumpi\n  revert(0x00, 0x00)\ntag_1:\n  pop\n  mload(0x40)\n  sub(codesize, bytecodeSize)\n  dup1\n  bytecodeSize\n  dup4\n  codecopy\n  dup2\n  dup2\n  add\n  0x40\n  mstore\n  dup2\n  add\n  swap1\n  tag_2\n  swap2\n  swap1\n  tag_3\n  jump\t// in\ntag_2:\n    /* \"contracts/PrizeManager.sol\":1856:1868  initialOwner */\n  dup2\n    /* \"@openzeppelin/contracts/access/Ownable.sol\":1297:1298  0 */\n  0x00\n    /* \"@openzeppelin/contracts/access/Ownable.sol\":1273:1299  initialOwner == address(0) */\n  0xffffffffffffffffffffffffffffffffffffffff\n  and\n    /* \"@openzeppelin/contracts/access/Ownable.sol\":1273:1285  initialOwner */\n  dup2\n    /* \"@openzeppelin/contracts/access/Ownable.sol\":1273:1299  initialOwner == address(0) */\n  0xffffffffffffffffffffffffffffffffffffffff\n  and\n  sub\n    /* \"@openzeppelin/contracts/access/Ownable.sol\":1269:1364  if (initialOwner == address(0)) {... */\n  tag_7\n  jumpi\n    /* \"@openzeppelin/contracts/access/Ownable.sol\":1350:1351  0 */\n  0x00\n    /* \"@openzeppelin/contracts/access/Ownable.sol\":1322:1353  OwnableInvalidOwner(address(0)) */\n  mload(0x40)\n  0x1e4fbdf700000000000000000000000000000000000000000000000000000000\n  dup2\n  mstore\n  0x04\n  add\n  tag_8\n  swap2\n  swap1\n  tag_9\n  jump\t// in\ntag_8:\n  mload(0x40)\n  dup1\n  swap2\n  sub\n  swap1\n  revert\n    /* \"@openzeppelin/contracts/access/Ownable.sol\":1269:1364  if (initialOwner == address(0)) {... */\ntag_7:\n    /* \"@openzeppelin/contracts/access/Ownable.sol\":1373:1405  _transferOwnership(initialOwner) */\n  tag_10\n    /* \"@openzeppelin/contracts/access/Ownable.sol\":1392:1404  initialOwner */\n  dup2\n    /* \"@openzeppelin/contracts/access/Ownable.sol\":1373:1391  _transferOwnership */\n  shl(0x20, tag_11)\n    /* \"@openzeppelin/contracts/access/Ownable.sol\":1373:1405  _transferOwnership(initialOwner) */\n  0x20\n  shr\n  jump\t// in\ntag_10:\n    /* \"@openzeppelin/contracts/access/Ownable.sol\":1225:1412  constructor(address initialOwner) {... */\n  pop\n    /* \"contracts/PrizeManager.sol\":1915:1916  0 */\n  0x00\n    /* \"contracts/PrizeManager.sol\":1889:1917  _nasicoinToken != address(0) */\n  0xffffffffffffffffffffffffffffffffffffffff\n  and\n    /* \"contracts/PrizeManager.sol\":1889:1903  _nasicoinToken */\n  dup2\n    /* \"contracts/PrizeManager.sol\":1889:1917  _nasicoinToken != address(0) */\n  0xffffffffffffffffffffffffffffffffffffffff\n  and\n  sub\n    /* \"contracts/PrizeManager.sol\":1881:1952  require(_nasicoinToken != address(0), \"Invalid NASICOIN token address\") */\n  tag_13\n  jumpi\n  mload(0x40)\n  0x08c379a000000000000000000000000000000000000000000000000000000000\n  dup2\n  mstore\n  0x04\n  add\n  tag_14\n  swap1\n  tag_15\n  jump\t// in\ntag_14:\n  mload(0x40)\n  dup1\n  swap2\n  sub\n  swap1\n  revert\ntag_13:\n    /* \"contracts/PrizeManager.sol\":1979:1993  _nasicoinToken */\n  dup1\n    /* \"contracts/PrizeManager.sol\":1963:1976  nasicoinToken */\n  0x09\n  0x02\n    /* \"contracts/PrizeManager.sol\":1963:1993  nasicoinToken = _nasicoinToken */\n  0x0100\n  exp\n  dup2\n  sload\n  dup2\n  0xffffffffffffffffffffffffffffffffffffffff\n  mul\n  not\n  and\n  swap1\n  dup4\n  0xffffffffffffffffffffffffffffffffffffffff\n  and\n  mul\n  or\n  swap1\n  sstore\n  pop\n    /* \"contracts/PrizeManager.sol\":1790:2001  constructor(address initialOwner, address _nasicoinToken) Ownable(initialOwner) {... */\n  pop\n  pop\n    /* \"contracts/PrizeManager.sol\":304:4229  contract PrizeManager is Ownable {... */\n  jump(tag_16)\n    /* \"@openzeppelin/contracts/access/Ownable.sol\":2912:3099  function _transferOwnership(address newOwner) internal virtual {... */\ntag_11:\n    /* \"@openzeppelin/contracts/access/Ownable.sol\":2985:3001  address oldOwner */\n  0x00\n    /* \"@openzeppelin/contracts/access/Ownable.sol\":3004:3010  _owner */\n  0x00\n  0x00\n  swap1\n  sload\n  swap1\n  0x0100\n  exp\n  swap1\n  div\n  0xffffffffffffffffffffffffffffffffffffffff\n  and\n    /* \"@openzeppelin/contracts/access/Ownable.sol\":2985:3010  address oldOwner = _owner */\n  swap1\n  pop\n    /* \"@openzeppelin/contracts/access/Ownable.sol\":3029:3037  newOwner */\n  dup2\n    /* \"@openzeppelin/contracts/access/Ownable.sol\":3020:3026  _owner */\n  0x00\n  0x00\n    /* \"@openzeppelin/contracts/access/Ownable.sol\":3020:3037  _owner = newOwner */\n  0x0100\n  exp\n  dup2\n  sload\n  dup2\n  0xffffffffffffffffffffffffffffffffffffffff\n  mul\n  not\n  and\n  swap1\n  dup4\n  0xffffffffffffffffffffffffffffffffffffffff\n  and\n  mul\n  or\n  swap1\n  sstore\n  pop\n    /* \"@openzeppelin/contracts/access/Ownable.sol\":3083:3091  newOwner */\n  dup2\n    /* \"@openzeppelin/contracts/access/Ownable.sol\":3052:3092  OwnershipTransferred(oldOwner, newOwner) */\n  0xffffffffffffffffffffffffffffffffffffffff\n  and\n    /* \"@openzeppelin/contracts/access/Ownable.sol\":3073:3081  oldOwner */\n  dup2\n    /* \"@openzeppelin/contracts/access/Ownable.sol\":3052:3092  OwnershipTransferred(oldOwner, newOwner) */\n  0xffffffffffffffffffffffffffffffffffffffff\n  and\n  0x8be0079c531659141344cd1fd0a4f28419497f9722a3daafe3b4186f6b6457e0\n  mload(0x40)\n  mload(0x40)\n  dup1\n  swap2\n  sub\n  swap1\n  log3\n    /* \"@openzeppelin/contracts/access/Ownable.sol\":2975:3099  {... */\n  pop\n    /* \"@openzeppelin/contracts/access/Ownable.sol\":2912:3099  function _transferOwnership(address newOwner) internal virtual {... */\n  pop\n  jump\t// out\n    /* \"#utility.yul\":88:205   */\ntag_19:\n    /* \"#utility.yul\":197:198   */\n  0x00\n    /* \"#utility.yul\":194:195   */\n  0x00\n    /* \"#utility.yul\":187:199   */\n  revert\n    /* \"#utility.yul\":334:460   */\ntag_21:\n    /* \"#utility.yul\":371:378   */\n  0x00\n    /* \"#utility.yul\":411:453   */\n  0xffffffffffffffffffffffffffffffffffffffff\n    /* \"#utility.yul\":404:409   */\n  dup3\n    /* \"#utility.yul\":400:454   */\n  and\n    /* \"#utility.yul\":389:454   */\n  swap1\n  pop\n    /* \"#utility.yul\":334:460   */\n  swap2\n  swap1\n  pop\n  jump\t// out\n    /* \"#utility.yul\":466:562   */\ntag_22:\n    /* \"#utility.yul\":503:510   */\n  0x00\n    /* \"#utility.yul\":532:556   */\n  tag_35\n    /* \"#utility.yul\":550:555   */\n  dup3\n    /* \"#utility.yul\":532:556   */\n  tag_21\n  jump\t// in\ntag_35:\n    /* \"#utility.yul\":521:556   */\n  swap1\n  pop\n    /* \"#utility.yul\":466:562   */\n  swap2\n  swap1\n  pop\n  jump\t// out\n    /* \"#utility.yul\":568:690   */\ntag_23:\n    /* \"#utility.yul\":641:665   */\n  tag_37\n    /* \"#utility.yul\":659:664   */\n  dup2\n    /* \"#utility.yul\":641:665   */\n  tag_22\n  jump\t// in\ntag_37:\n    /* \"#utility.yul\":634:639   */\n  dup2\n    /* \"#utility.yul\":631:666   */\n  eq\n    /* \"#utility.yul\":621:684   */\n  tag_38\n  jumpi\n    /* \"#utility.yul\":680:681   */\n  0x00\n    /* \"#utility.yul\":677:678   */\n  0x00\n    /* \"#utility.yul\":670:682   */\n  revert\n    /* \"#utility.yul\":621:684   */\ntag_38:\n    /* \"#utility.yul\":568:690   */\n  pop\n  jump\t// out\n    /* \"#utility.yul\":696:839   */\ntag_24:\n    /* \"#utility.yul\":753:758   */\n  0x00\n    /* \"#utility.yul\":784:790   */\n  dup2\n    /* \"#utility.yul\":778:791   */\n  mload\n    /* \"#utility.yul\":769:791   */\n  swap1\n  pop\n    /* \"#utility.yul\":800:833   */\n  tag_40\n    /* \"#utility.yul\":827:832   */\n  dup2\n    /* \"#utility.yul\":800:833   */\n  tag_23\n  jump\t// in\ntag_40:\n    /* \"#utility.yul\":696:839   */\n  swap3\n  swap2\n  pop\n  pop\n  jump\t// out\n    /* \"#utility.yul\":845:1352   */\ntag_3:\n    /* \"#utility.yul\":924:930   */\n  0x00\n    /* \"#utility.yul\":932:938   */\n  0x00\n    /* \"#utility.yul\":981:983   */\n  0x40\n    /* \"#utility.yul\":969:978   */\n  dup4\n    /* \"#utility.yul\":960:967   */\n  dup6\n    /* \"#utility.yul\":956:979   */\n  sub\n    /* \"#utility.yul\":952:984   */\n  slt\n    /* \"#utility.yul\":949:1068   */\n  iszero\n  tag_42\n  jumpi\n    /* \"#utility.yul\":987:1066   */\n  tag_43\n  tag_19\n  jump\t// in\ntag_43:\n    /* \"#utility.yul\":949:1068   */\ntag_42:\n    /* \"#utility.yul\":1107:1108   */\n  0x00\n    /* \"#utility.yul\":1132:1196   */\n  tag_44\n    /* \"#utility.yul\":1188:1195   */\n  dup6\n    /* \"#utility.yul\":1179:1185   */\n  dup3\n    /* \"#utility.yul\":1168:1177   */\n  dup7\n    /* \"#utility.yul\":1164:1186   */\n  add\n    /* \"#utility.yul\":1132:1196   */\n  tag_24\n  jump\t// in\ntag_44:\n    /* \"#utility.yul\":1122:1196   */\n  swap3\n  pop\n    /* \"#utility.yul\":1078:1206   */\n  pop\n    /* \"#utility.yul\":1245:1247   */\n  0x20\n    /* \"#utility.yul\":1271:1335   */\n  tag_45\n    /* \"#utility.yul\":1327:1334   */\n  dup6\n    /* \"#utility.yul\":1318:1324   */\n  dup3\n    /* \"#utility.yul\":1307:1316   */\n  dup7\n    /* \"#utility.yul\":1303:1325   */\n  add\n    /* \"#utility.yul\":1271:1335   */\n  tag_24\n  jump\t// in\ntag_45:\n    /* \"#utility.yul\":1261:1335   */\n  swap2\n  pop\n    /* \"#utility.yul\":1216:1345   */\n  pop\n    /* \"#utility.yul\":845:1352   */\n  swap3\n  pop\n  swap3\n  swap1\n  pop\n  jump\t// out\n    /* \"#utility.yul\":1358:1476   */\ntag_25:\n    /* \"#utility.yul\":1445:1469   */\n  tag_47\n    /* \"#utility.yul\":1463:1468   */\n  dup2\n    /* \"#utility.yul\":1445:1469   */\n  tag_22\n  jump\t// in\ntag_47:\n    /* \"#utility.yul\":1440:1443   */\n  dup3\n    /* \"#utility.yul\":1433:1470   */\n  mstore\n    /* \"#utility.yul\":1358:1476   */\n  pop\n  pop\n  jump\t// out\n    /* \"#utility.yul\":1482:1704   */\ntag_9:\n    /* \"#utility.yul\":1575:1579   */\n  0x00\n    /* \"#utility.yul\":1613:1615   */\n  0x20\n    /* \"#utility.yul\":1602:1611   */\n  dup3\n    /* \"#utility.yul\":1598:1616   */\n  add\n    /* \"#utility.yul\":1590:1616   */\n  swap1\n  pop\n    /* \"#utility.yul\":1626:1697   */\n  tag_49\n    /* \"#utility.yul\":1694:1695   */\n  0x00\n    /* \"#utility.yul\":1683:1692   */\n  dup4\n    /* \"#utility.yul\":1679:1696   */\n  add\n    /* \"#utility.yul\":1670:1676   */\n  dup5\n    /* \"#utility.yul\":1626:1697   */\n  tag_25\n  jump\t// in\ntag_49:\n    /* \"#utility.yul\":1482:1704   */\n  swap3\n  swap2\n  pop\n  pop\n  jump\t// out\n    /* \"#utility.yul\":1710:1879   */\ntag_26:\n    /* \"#utility.yul\":1794:1805   */\n  0x00\n    /* \"#utility.yul\":1828:1834   */\n  dup3\n    /* \"#utility.yul\":1823:1826   */\n  dup3\n    /* \"#utility.yul\":1816:1835   */\n  mstore\n    /* \"#utility.yul\":1868:1872   */\n  0x20\n    /* \"#utility.yul\":1863:1866   */\n  dup3\n    /* \"#utility.yul\":1859:1873   */\n  add\n    /* \"#utility.yul\":1844:1873   */\n  swap1\n  pop\n    /* \"#utility.yul\":1710:1879   */\n  swap3\n  swap2\n  pop\n  pop\n  jump\t// out\n    /* \"#utility.yul\":1885:2065   */\ntag_27:\n    /* \"#utility.yul\":2025:2057   */\n  0x496e76616c6964204e415349434f494e20746f6b656e20616464726573730000\n    /* \"#utility.yul\":2021:2022   */\n  0x00\n    /* \"#utility.yul\":2013:2019   */\n  dup3\n    /* \"#utility.yul\":2009:2023   */\n  add\n    /* \"#utility.yul\":2002:2058   */\n  mstore\n    /* \"#utility.yul\":1885:2065   */\n  pop\n  jump\t// out\n    /* \"#utility.yul\":2071:2437   */\ntag_28:\n    /* \"#utility.yul\":2213:2216   */\n  0x00\n    /* \"#utility.yul\":2234:2301   */\n  tag_53\n    /* \"#utility.yul\":2298:2300   */\n  0x1e\n    /* \"#utility.yul\":2293:2296   */\n  dup4\n    /* \"#utility.yul\":2234:2301   */\n  tag_26\n  jump\t// in\ntag_53:\n    /* \"#utility.yul\":2227:2301   */\n  swap2\n  pop\n    /* \"#utility.yul\":2310:2403   */\n  tag_54\n    /* \"#utility.yul\":2399:2402   */\n  dup3\n    /* \"#utility.yul\":2310:2403   */\n  tag_27\n  jump\t// in\ntag_54:\n    /* \"#utility.yul\":2428:2430   */\n  0x20\n    /* \"#utility.yul\":2423:2426   */\n  dup3\n    /* \"#utility.yul\":2419:2431   */\n  add\n    /* \"#utility.yul\":2412:2431   */\n  swap1\n  pop\n    /* \"#utility.yul\":2071:2437   */\n  swap2\n  swap1\n  pop\n  jump\t// out\n    /* \"#utility.yul\":2443:2862   */\ntag_15:\n    /* \"#utility.yul\":2609:2613   */\n  0x00\n    /* \"#utility.yul\":2647:2649   */\n  0x20\n    /* \"#utility.yul\":2636:2645   */\n  dup3\n    /* \"#utility.yul\":2632:2650   */\n  add\n    /* \"#utility.yul\":2624:2650   */\n  swap1\n  pop\n    /* \"#utility.yul\":2696:2705   */\n  dup2\n    /* \"#utility.yul\":2690:2694   */\n  dup2\n    /* \"#utility.yul\":2686:2706   */\n  sub\n    /* \"#utility.yul\":2682:2683   */\n  0x00\n    /* \"#utility.yul\":2671:2680   */\n  dup4\n    /* \"#utility.yul\":2667:2684   */\n  add\n    /* \"#utility.yul\":2660:2707   */\n  mstore\n    /* \"#utility.yul\":2724:2855   */\n  tag_56\n    /* \"#utility.yul\":2850:2854   */\n  dup2\n    /* \"#utility.yul\":2724:2855   */\n  tag_28\n  jump\t// in\ntag_56:\n    /* \"#utility.yul\":2716:2855   */\n  swap1\n  pop\n    /* \"#utility.yul\":2443:2862   */\n  swap2\n  swap1\n  pop\n  jump\t// out\n    /* \"contracts/PrizeManager.sol\":304:4229  contract PrizeManager is Ownable {... */\ntag_16:\n  dataSize(sub_0)\n  dup1\n  dataOffset(sub_0)\n  0x00\n  codecopy\n  0x00\n  return\nstop\n\nsub_0: assembly {\n        /* \"contracts/PrizeManager.sol\":304:4229  contract PrizeManager is Ownable {... */\n      mstore(0x40, 0x80)\n      callvalue\n      dup1\n      iszero\n      tag_1\n      jumpi\n      revert(0x00, 0x00)\n    tag_1:\n      pop\n      jumpi(tag_2, lt(calldatasize, 0x04))\n      shr(0xe0, calldataload(0x00))\n      dup1\n      0x7b820b83\n      gt\n      tag_20\n      jumpi\n      dup1\n      0xcb3ebec2\n      gt\n      tag_21\n      jumpi\n      dup1\n      0xcb3ebec2\n      eq\n      tag_15\n      jumpi\n      dup1\n      0xed22723a\n      eq\n      tag_16\n      jumpi\n      dup1\n      0xf1a002b1\n      eq\n      tag_17\n      jumpi\n      dup1\n      0xf2fde38b\n      eq\n      tag_18\n      jumpi\n      dup1\n      0xfd494d3f\n      eq\n      tag_19\n      jumpi\n      jump(tag_2)\n    tag_21:\n      dup1\n      0x7b820b83\n      eq\n      tag_11\n      jumpi\n      dup1\n      0x8da5cb5b\n      eq\n      tag_12\n      jumpi\n      dup1\n      0x9ad97fa0\n      eq\n      tag_13\n      jumpi\n      dup1\n      0xab4d819f\n      eq\n      tag_14\n      jumpi\n      jump(tag_2)\n    tag_20:\n      dup1\n      0x638ad71d\n      gt\n      tag_22\n      jumpi\n      dup1\n      0x638ad71d\n      eq\n      tag_7\n      jumpi\n      dup1\n      0x6bdc3d91\n      eq\n      tag_8\n      jumpi\n      dup1\n      0x70ff852b\n      eq\n      tag_9\n      jumpi\n      dup1\n      0x715018a6\n      eq\n      tag_10\n      jumpi\n      jump(tag_2)\n    tag_22:\n      dup1\n      0x11a1c8bd\n      eq\n      tag_3\n      jumpi\n      dup1\n      0x1934c786\n      eq\n      tag_4\n      jumpi\n      dup1\n      0x1f63000f\n      eq\n      tag_5\n      jumpi\n      dup1\n      0x605ad59c\n      eq\n      tag_6\n      jumpi\n    tag_2:\n      revert(0x00, 0x00)\n        /* \"contracts/PrizeManager.sol\":364:389  uint256 public superPrize */\n    tag_3:\n      tag_23\n      tag_24\n      jump\t// in\n    tag_23:\n      mload(0x40)\n      tag_25\n      swap2\n      swap1\n      tag_26\n      jump\t// in\n    tag_25:\n      mload(0x40)\n      dup1\n      swap2\n      sub\n      swap1\n      return\n        /* \"contracts/PrizeManager.sol\":545:577  uint256 public developerDividend */\n    tag_4:\n      tag_27\n      tag_28\n      jump\t// in\n    tag_27:\n      mload(0x40)\n      tag_29\n      swap2\n      swap1\n      tag_26\n      jump\t// in\n    tag_29:\n      mload(0x40)\n      dup1\n      swap2\n      sub\n      swap1\n      return\n        /* \"contracts/PrizeManager.sol\":793:841  bool public distributeDeveloperDividends = false */\n    tag_5:\n      tag_30\n      tag_31\n      jump\t// in\n    tag_30:\n      mload(0x40)\n      tag_32\n      swap2\n      swap1\n      tag_33\n      jump\t// in\n    tag_32:\n      mload(0x40)\n      dup1\n      swap2\n      sub\n      swap1\n      return\n        /* \"contracts/PrizeManager.sol\":4147:4226  function prepareForPrizeDraw() external {... */\n    tag_6:\n      tag_34\n      tag_35\n      jump\t// in\n    tag_34:\n      stop\n        /* \"contracts/PrizeManager.sol\":460:483  uint256 public lowPrize */\n    tag_7:\n      tag_36\n      tag_37\n      jump\t// in\n    tag_36:\n      mload(0x40)\n      tag_38\n      swap2\n      swap1\n      tag_26\n      jump\t// in\n    tag_38:\n      mload(0x40)\n      dup1\n      swap2\n      sub\n      swap1\n      return\n        /* \"contracts/PrizeManager.sol\":850:878  address public nasicoinToken */\n    tag_8:\n      tag_39\n      tag_40\n      jump\t// in\n    tag_39:\n      mload(0x40)\n      tag_41\n      swap2\n      swap1\n      tag_42\n      jump\t// in\n    tag_41:\n      mload(0x40)\n      dup1\n      swap2\n      sub\n      swap1\n      return\n        /* \"contracts/PrizeManager.sol\":887:936  mapping(address => uint256) public releasedTokens */\n    tag_9:\n      tag_43\n      0x04\n      dup1\n      calldatasize\n      sub\n      dup2\n      add\n      swap1\n      tag_44\n      swap2\n      swap1\n      tag_45\n      jump\t// in\n    tag_44:\n      tag_46\n      jump\t// in\n    tag_43:\n      mload(0x40)\n      tag_47\n      swap2\n      swap1\n      tag_26\n      jump\t// in\n    tag_47:\n      mload(0x40)\n      dup1\n      swap2\n      sub\n      swap1\n      return\n        /* \"@openzeppelin/contracts/access/Ownable.sol\":2293:2394  function renounceOwnership() public virtual onlyOwner {... */\n    tag_10:\n      tag_48\n      tag_49\n      jump\t// in\n    tag_48:\n      stop\n        /* \"contracts/PrizeManager.sol\":396:420  uint256 public highPrize */\n    tag_11:\n      tag_50\n      tag_51\n      jump\t// in\n    tag_50:\n      mload(0x40)\n      tag_52\n      swap2\n      swap1\n      tag_26\n      jump\t// in\n    tag_52:\n      mload(0x40)\n      dup1\n      swap2\n      sub\n      swap1\n      return\n        /* \"@openzeppelin/contracts/access/Ownable.sol\":1638:1723  function owner() public view virtual returns (address) {... */\n    tag_12:\n      tag_53\n      tag_54\n      jump\t// in\n    tag_53:\n      mload(0x40)\n      tag_55\n      swap2\n      swap1\n      tag_42\n      jump\t// in\n    tag_55:\n      mload(0x40)\n      dup1\n      swap2\n      sub\n      swap1\n      return\n        /* \"contracts/PrizeManager.sol\":2170:3027  function updatePrizePools(uint256 profits) external onlyOwner {... */\n    tag_13:\n      tag_56\n      0x04\n      dup1\n      calldatasize\n      sub\n      dup2\n      add\n      swap1\n      tag_57\n      swap2\n      swap1\n      tag_58\n      jump\t// in\n    tag_57:\n      tag_59\n      jump\t// in\n    tag_56:\n      stop\n        /* \"contracts/PrizeManager.sol\":427:453  uint256 public middlePrize */\n    tag_14:\n      tag_60\n      tag_61\n      jump\t// in\n    tag_60:\n      mload(0x40)\n      tag_62\n      swap2\n      swap1\n      tag_26\n      jump\t// in\n    tag_62:\n      mload(0x40)\n      dup1\n      swap2\n      sub\n      swap1\n      return\n        /* \"contracts/PrizeManager.sol\":510:538  uint256 public ownerDividend */\n    tag_15:\n      tag_63\n      tag_64\n      jump\t// in\n    tag_63:\n      mload(0x40)\n      tag_65\n      swap2\n      swap1\n      tag_26\n      jump\t// in\n    tag_65:\n      mload(0x40)\n      dup1\n      swap2\n      sub\n      swap1\n      return\n        /* \"contracts/PrizeManager.sol\":622:652  uint256 public prizeScale = 10 */\n    tag_16:\n      tag_66\n      tag_67\n      jump\t// in\n    tag_66:\n      mload(0x40)\n      tag_68\n      swap2\n      swap1\n      tag_26\n      jump\t// in\n    tag_68:\n      mload(0x40)\n      dup1\n      swap2\n      sub\n      swap1\n      return\n        /* \"contracts/PrizeManager.sol\":742:786  bool public distributeOwnerDividends = false */\n    tag_17:\n      tag_69\n      tag_70\n      jump\t// in\n    tag_69:\n      mload(0x40)\n      tag_71\n      swap2\n      swap1\n      tag_33\n      jump\t// in\n    tag_71:\n      mload(0x40)\n      dup1\n      swap2\n      sub\n      swap1\n      return\n        /* \"@openzeppelin/contracts/access/Ownable.sol\":2543:2758  function transferOwnership(address newOwner) public virtual onlyOwner {... */\n    tag_18:\n      tag_72\n      0x04\n      dup1\n      calldatasize\n      sub\n      dup2\n      add\n      swap1\n      tag_73\n      swap2\n      swap1\n      tag_45\n      jump\t// in\n    tag_73:\n      tag_74\n      jump\t// in\n    tag_72:\n      stop\n        /* \"contracts/PrizeManager.sol\":3715:4005  function emitWeeklyReport(uint256 totalInvested, uint256 weeklyProfit) external onlyOwner {... */\n    tag_19:\n      tag_75\n      0x04\n      dup1\n      calldatasize\n      sub\n      dup2\n      add\n      swap1\n      tag_76\n      swap2\n      swap1\n      tag_77\n      jump\t// in\n    tag_76:\n      tag_78\n      jump\t// in\n    tag_75:\n      stop\n        /* \"contracts/PrizeManager.sol\":364:389  uint256 public superPrize */\n    tag_24:\n      sload(0x01)\n      dup2\n      jump\t// out\n        /* \"contracts/PrizeManager.sol\":545:577  uint256 public developerDividend */\n    tag_28:\n      sload(0x06)\n      dup2\n      jump\t// out\n        /* \"contracts/PrizeManager.sol\":793:841  bool public distributeDeveloperDividends = false */\n    tag_31:\n      0x09\n      0x01\n      swap1\n      sload\n      swap1\n      0x0100\n      exp\n      swap1\n      div\n      0xff\n      and\n      dup2\n      jump\t// out\n        /* \"contracts/PrizeManager.sol\":4147:4226  function prepareForPrizeDraw() external {... */\n    tag_35:\n        /* \"contracts/PrizeManager.sol\":4198:4218  _mintTokensToUsers() */\n      tag_80\n        /* \"contracts/PrizeManager.sol\":4198:4216  _mintTokensToUsers */\n      tag_81\n        /* \"contracts/PrizeManager.sol\":4198:4218  _mintTokensToUsers() */\n      jump\t// in\n    tag_80:\n        /* \"contracts/PrizeManager.sol\":4147:4226  function prepareForPrizeDraw() external {... */\n      jump\t// out\n        /* \"contracts/PrizeManager.sol\":460:483  uint256 public lowPrize */\n    tag_37:\n      sload(0x04)\n      dup2\n      jump\t// out\n        /* \"contracts/PrizeManager.sol\":850:878  address public nasicoinToken */\n    tag_40:\n      0x09\n      0x02\n      swap1\n      sload\n      swap1\n      0x0100\n      exp\n      swap1\n      div\n      0xffffffffffffffffffffffffffffffffffffffff\n      and\n      dup2\n      jump\t// out\n        /* \"contracts/PrizeManager.sol\":887:936  mapping(address => uint256) public releasedTokens */\n    tag_46:\n      mstore(0x20, 0x0a)\n      dup1\n      0x00\n      mstore\n      keccak256(0x00, 0x40)\n      0x00\n      swap2\n      pop\n      swap1\n      pop\n      sload\n      dup2\n      jump\t// out\n        /* \"@openzeppelin/contracts/access/Ownable.sol\":2293:2394  function renounceOwnership() public virtual onlyOwner {... */\n    tag_49:\n        /* \"@openzeppelin/contracts/access/Ownable.sol\":1531:1544  _checkOwner() */\n      tag_83\n        /* \"@openzeppelin/contracts/access/Ownable.sol\":1531:1542  _checkOwner */\n      tag_84\n        /* \"@openzeppelin/contracts/access/Ownable.sol\":1531:1544  _checkOwner() */\n      jump\t// in\n    tag_83:\n        /* \"@openzeppelin/contracts/access/Ownable.sol\":2357:2387  _transferOwnership(address(0)) */\n      tag_86\n        /* \"@openzeppelin/contracts/access/Ownable.sol\":2384:2385  0 */\n      0x00\n        /* \"@openzeppelin/contracts/access/Ownable.sol\":2357:2375  _transferOwnership */\n      tag_87\n        /* \"@openzeppelin/contracts/access/Ownable.sol\":2357:2387  _transferOwnership(address(0)) */\n      jump\t// in\n    tag_86:\n        /* \"@openzeppelin/contracts/access/Ownable.sol\":2293:2394  function renounceOwnership() public virtual onlyOwner {... */\n      jump\t// out\n        /* \"contracts/PrizeManager.sol\":396:420  uint256 public highPrize */\n    tag_51:\n      sload(0x02)\n      dup2\n      jump\t// out\n        /* \"@openzeppelin/contracts/access/Ownable.sol\":1638:1723  function owner() public view virtual returns (address) {... */\n    tag_54:\n        /* \"@openzeppelin/contracts/access/Ownable.sol\":1684:1691  address */\n      0x00\n        /* \"@openzeppelin/contracts/access/Ownable.sol\":1710:1716  _owner */\n      0x00\n      0x00\n      swap1\n      sload\n      swap1\n      0x0100\n      exp\n      swap1\n      div\n      0xffffffffffffffffffffffffffffffffffffffff\n      and\n        /* \"@openzeppelin/contracts/access/Ownable.sol\":1703:1716  return _owner */\n      swap1\n      pop\n        /* \"@openzeppelin/contracts/access/Ownable.sol\":1638:1723  function owner() public view virtual returns (address) {... */\n      swap1\n      jump\t// out\n        /* \"contracts/PrizeManager.sol\":2170:3027  function updatePrizePools(uint256 profits) external onlyOwner {... */\n    tag_59:\n        /* \"@openzeppelin/contracts/access/Ownable.sol\":1531:1544  _checkOwner() */\n      tag_90\n        /* \"@openzeppelin/contracts/access/Ownable.sol\":1531:1542  _checkOwner */\n      tag_84\n        /* \"@openzeppelin/contracts/access/Ownable.sol\":1531:1544  _checkOwner() */\n      jump\t// in\n    tag_90:\n        /* \"contracts/PrizeManager.sol\":2261:2262  0 */\n      0x00\n        /* \"contracts/PrizeManager.sol\":2251:2258  profits */\n      dup2\n        /* \"contracts/PrizeManager.sol\":2251:2262  profits > 0 */\n      gt\n        /* \"contracts/PrizeManager.sol\":2243:2291  require(profits > 0, \"No profits to distribute\") */\n      tag_92\n      jumpi\n      mload(0x40)\n      0x08c379a000000000000000000000000000000000000000000000000000000000\n      dup2\n      mstore\n      0x04\n      add\n      tag_93\n      swap1\n      tag_94\n      jump\t// in\n    tag_93:\n      mload(0x40)\n      dup1\n      swap2\n      sub\n      swap1\n      revert\n    tag_92:\n        /* \"contracts/PrizeManager.sol\":2304:2322  uint256 prizeShare */\n      0x00\n        /* \"contracts/PrizeManager.sol\":2342:2345  100 */\n      0x64\n        /* \"contracts/PrizeManager.sol\":2336:2338  50 */\n      0x32\n        /* \"contracts/PrizeManager.sol\":2326:2333  profits */\n      dup4\n        /* \"contracts/PrizeManager.sol\":2326:2338  profits * 50 */\n      tag_95\n      swap2\n      swap1\n      tag_96\n      jump\t// in\n    tag_95:\n        /* \"contracts/PrizeManager.sol\":2325:2345  (profits * 50) / 100 */\n      tag_97\n      swap2\n      swap1\n      tag_98\n      jump\t// in\n    tag_97:\n        /* \"contracts/PrizeManager.sol\":2304:2345  uint256 prizeShare = (profits * 50) / 100 */\n      swap1\n      pop\n        /* \"contracts/PrizeManager.sol\":2379:2400  uint256 dividendShare */\n      0x00\n        /* \"contracts/PrizeManager.sol\":2419:2422  100 */\n      0x64\n        /* \"contracts/PrizeManager.sol\":2414:2415  5 */\n      0x05\n        /* \"contracts/PrizeManager.sol\":2404:2411  profits */\n      dup5\n        /* \"contracts/PrizeManager.sol\":2404:2415  profits * 5 */\n      tag_99\n      swap2\n      swap1\n      tag_96\n      jump\t// in\n    tag_99:\n        /* \"contracts/PrizeManager.sol\":2403:2422  (profits * 5) / 100 */\n      tag_100\n      swap2\n      swap1\n      tag_98\n      jump\t// in\n    tag_100:\n        /* \"contracts/PrizeManager.sol\":2379:2422  uint256 dividendShare = (profits * 5) / 100 */\n      swap1\n      pop\n        /* \"contracts/PrizeManager.sol\":2524:2527  100 */\n      0x64\n        /* \"contracts/PrizeManager.sol\":2518:2520  10 */\n      0x0a\n        /* \"contracts/PrizeManager.sol\":2505:2515  prizeShare */\n      dup4\n        /* \"contracts/PrizeManager.sol\":2505:2520  prizeShare * 10 */\n      tag_101\n      swap2\n      swap1\n      tag_96\n      jump\t// in\n    tag_101:\n        /* \"contracts/PrizeManager.sol\":2504:2527  (prizeShare * 10) / 100 */\n      tag_102\n      swap2\n      swap1\n      tag_98\n      jump\t// in\n    tag_102:\n        /* \"contracts/PrizeManager.sol\":2490:2500  superPrize */\n      0x01\n      0x00\n        /* \"contracts/PrizeManager.sol\":2490:2527  superPrize += (prizeShare * 10) / 100 */\n      dup3\n      dup3\n      sload\n      tag_103\n      swap2\n      swap1\n      tag_104\n      jump\t// in\n    tag_103:\n      swap3\n      pop\n      pop\n      dup2\n      swap1\n      sstore\n      pop\n        /* \"contracts/PrizeManager.sol\":2593:2596  100 */\n      0x64\n        /* \"contracts/PrizeManager.sol\":2587:2589  10 */\n      0x0a\n        /* \"contracts/PrizeManager.sol\":2574:2584  prizeShare */\n      dup4\n        /* \"contracts/PrizeManager.sol\":2574:2589  prizeShare * 10 */\n      tag_105\n      swap2\n      swap1\n      tag_96\n      jump\t// in\n    tag_105:\n        /* \"contracts/PrizeManager.sol\":2573:2596  (prizeShare * 10) / 100 */\n      tag_106\n      swap2\n      swap1\n      tag_98\n      jump\t// in\n    tag_106:\n        /* \"contracts/PrizeManager.sol\":2560:2569  highPrize */\n      0x02\n      0x00\n        /* \"contracts/PrizeManager.sol\":2560:2596  highPrize += (prizeShare * 10) / 100 */\n      dup3\n      dup3\n      sload\n      tag_107\n      swap2\n      swap1\n      tag_104\n      jump\t// in\n    tag_107:\n      swap3\n      pop\n      pop\n      dup2\n      swap1\n      sstore\n      pop\n        /* \"contracts/PrizeManager.sol\":2663:2666  100 */\n      0x64\n        /* \"contracts/PrizeManager.sol\":2657:2659  10 */\n      0x0a\n        /* \"contracts/PrizeManager.sol\":2644:2654  prizeShare */\n      dup4\n        /* \"contracts/PrizeManager.sol\":2644:2659  prizeShare * 10 */\n      tag_108\n      swap2\n      swap1\n      tag_96\n      jump\t// in\n    tag_108:\n        /* \"contracts/PrizeManager.sol\":2643:2666  (prizeShare * 10) / 100 */\n      tag_109\n      swap2\n      swap1\n      tag_98\n      jump\t// in\n    tag_109:\n        /* \"contracts/PrizeManager.sol\":2628:2639  middlePrize */\n      0x03\n      0x00\n        /* \"contracts/PrizeManager.sol\":2628:2666  middlePrize += (prizeShare * 10) / 100 */\n      dup3\n      dup3\n      sload\n      tag_110\n      swap2\n      swap1\n      tag_104\n      jump\t// in\n    tag_110:\n      swap3\n      pop\n      pop\n      dup2\n      swap1\n      sstore\n      pop\n        /* \"contracts/PrizeManager.sol\":2732:2735  100 */\n      0x64\n        /* \"contracts/PrizeManager.sol\":2726:2728  10 */\n      0x0a\n        /* \"contracts/PrizeManager.sol\":2713:2723  prizeShare */\n      dup4\n        /* \"contracts/PrizeManager.sol\":2713:2728  prizeShare * 10 */\n      tag_111\n      swap2\n      swap1\n      tag_96\n      jump\t// in\n    tag_111:\n        /* \"contracts/PrizeManager.sol\":2712:2735  (prizeShare * 10) / 100 */\n      tag_112\n      swap2\n      swap1\n      tag_98\n      jump\t// in\n    tag_112:\n        /* \"contracts/PrizeManager.sol\":2700:2708  lowPrize */\n      0x04\n      0x00\n        /* \"contracts/PrizeManager.sol\":2700:2735  lowPrize += (prizeShare * 10) / 100 */\n      dup3\n      dup3\n      sload\n      tag_113\n      swap2\n      swap1\n      tag_104\n      jump\t// in\n    tag_113:\n      swap3\n      pop\n      pop\n      dup2\n      swap1\n      sstore\n      pop\n        /* \"contracts/PrizeManager.sol\":2814:2827  dividendShare */\n      dup1\n        /* \"contracts/PrizeManager.sol\":2797:2810  ownerDividend */\n      0x05\n      0x00\n        /* \"contracts/PrizeManager.sol\":2797:2827  ownerDividend += dividendShare */\n      dup3\n      dup3\n      sload\n      tag_114\n      swap2\n      swap1\n      tag_104\n      jump\t// in\n    tag_114:\n      swap3\n      pop\n      pop\n      dup2\n      swap1\n      sstore\n      pop\n        /* \"contracts/PrizeManager.sol\":2859:2872  dividendShare */\n      dup1\n        /* \"contracts/PrizeManager.sol\":2838:2855  developerDividend */\n      0x06\n      0x00\n        /* \"contracts/PrizeManager.sol\":2838:2872  developerDividend += dividendShare */\n      dup3\n      dup3\n      sload\n      tag_115\n      swap2\n      swap1\n      tag_104\n      jump\t// in\n    tag_115:\n      swap3\n      pop\n      pop\n      dup2\n      swap1\n      sstore\n      pop\n        /* \"contracts/PrizeManager.sol\":2890:2953  PrizePoolsUpdated(superPrize, highPrize, middlePrize, lowPrize) */\n      0xc1879f0406577975a5876a8db2ec1549e2a3194f0f01e15bde4292d6e4b36824\n        /* \"contracts/PrizeManager.sol\":2908:2918  superPrize */\n      sload(0x01)\n        /* \"contracts/PrizeManager.sol\":2920:2929  highPrize */\n      sload(0x02)\n        /* \"contracts/PrizeManager.sol\":2931:2942  middlePrize */\n      sload(0x03)\n        /* \"contracts/PrizeManager.sol\":2944:2952  lowPrize */\n      sload(0x04)\n        /* \"contracts/PrizeManager.sol\":2890:2953  PrizePoolsUpdated(superPrize, highPrize, middlePrize, lowPrize) */\n      mload(0x40)\n      tag_116\n      swap5\n      swap4\n      swap3\n      swap2\n      swap1\n      tag_117\n      jump\t// in\n    tag_116:\n      mload(0x40)\n      dup1\n      swap2\n      sub\n      swap1\n      log1\n        /* \"contracts/PrizeManager.sol\":2969:3019  DividendsUpdated(ownerDividend, developerDividend) */\n      0xbbb79063c8e8bcd7691a017e4e76c5de1369686b9f0674f946b0129041525b59\n        /* \"contracts/PrizeManager.sol\":2986:2999  ownerDividend */\n      sload(0x05)\n        /* \"contracts/PrizeManager.sol\":3001:3018  developerDividend */\n      sload(0x06)\n        /* \"contracts/PrizeManager.sol\":2969:3019  DividendsUpdated(ownerDividend, developerDividend) */\n      mload(0x40)\n      tag_118\n      swap3\n      swap2\n      swap1\n      tag_119\n      jump\t// in\n    tag_118:\n      mload(0x40)\n      dup1\n      swap2\n      sub\n      swap1\n      log1\n        /* \"contracts/PrizeManager.sol\":2232:3027  {... */\n      pop\n      pop\n        /* \"contracts/PrizeManager.sol\":2170:3027  function updatePrizePools(uint256 profits) external onlyOwner {... */\n      pop\n      jump\t// out\n        /* \"contracts/PrizeManager.sol\":427:453  uint256 public middlePrize */\n    tag_61:\n      sload(0x03)\n      dup2\n      jump\t// out\n        /* \"contracts/PrizeManager.sol\":510:538  uint256 public ownerDividend */\n    tag_64:\n      sload(0x05)\n      dup2\n      jump\t// out\n        /* \"contracts/PrizeManager.sol\":622:652  uint256 public prizeScale = 10 */\n    tag_67:\n      sload(0x07)\n      dup2\n      jump\t// out\n        /* \"contracts/PrizeManager.sol\":742:786  bool public distributeOwnerDividends = false */\n    tag_70:\n      0x09\n      0x00\n      swap1\n      sload\n      swap1\n      0x0100\n      exp\n      swap1\n      div\n      0xff\n      and\n      dup2\n      jump\t// out\n        /* \"@openzeppelin/contracts/access/Ownable.sol\":2543:2758  function transferOwnership(address newOwner) public virtual onlyOwner {... */\n    tag_74:\n        /* \"@openzeppelin/contracts/access/Ownable.sol\":1531:1544  _checkOwner() */\n      tag_121\n        /* \"@openzeppelin/contracts/access/Ownable.sol\":1531:1542  _checkOwner */\n      tag_84\n        /* \"@openzeppelin/contracts/access/Ownable.sol\":1531:1544  _checkOwner() */\n      jump\t// in\n    tag_121:\n        /* \"@openzeppelin/contracts/access/Ownable.sol\":2647:2648  0 */\n      0x00\n        /* \"@openzeppelin/contracts/access/Ownable.sol\":2627:2649  newOwner == address(0) */\n      0xffffffffffffffffffffffffffffffffffffffff\n      and\n        /* \"@openzeppelin/contracts/access/Ownable.sol\":2627:2635  newOwner */\n      dup2\n        /* \"@openzeppelin/contracts/access/Ownable.sol\":2627:2649  newOwner == address(0) */\n      0xffffffffffffffffffffffffffffffffffffffff\n      and\n      sub\n        /* \"@openzeppelin/contracts/access/Ownable.sol\":2623:2714  if (newOwner == address(0)) {... */\n      tag_123\n      jumpi\n        /* \"@openzeppelin/contracts/access/Ownable.sol\":2700:2701  0 */\n      0x00\n        /* \"@openzeppelin/contracts/access/Ownable.sol\":2672:2703  OwnableInvalidOwner(address(0)) */\n      mload(0x40)\n      0x1e4fbdf700000000000000000000000000000000000000000000000000000000\n      dup2\n      mstore\n      0x04\n      add\n      tag_124\n      swap2\n      swap1\n      tag_42\n      jump\t// in\n    tag_124:\n      mload(0x40)\n      dup1\n      swap2\n      sub\n      swap1\n      revert\n        /* \"@openzeppelin/contracts/access/Ownable.sol\":2623:2714  if (newOwner == address(0)) {... */\n    tag_123:\n        /* \"@openzeppelin/contracts/access/Ownable.sol\":2723:2751  _transferOwnership(newOwner) */\n      tag_125\n        /* \"@openzeppelin/contracts/access/Ownable.sol\":2742:2750  newOwner */\n      dup2\n        /* \"@openzeppelin/contracts/access/Ownable.sol\":2723:2741  _transferOwnership */\n      tag_87\n        /* \"@openzeppelin/contracts/access/Ownable.sol\":2723:2751  _transferOwnership(newOwner) */\n      jump\t// in\n    tag_125:\n        /* \"@openzeppelin/contracts/access/Ownable.sol\":2543:2758  function transferOwnership(address newOwner) public virtual onlyOwner {... */\n      pop\n      jump\t// out\n        /* \"contracts/PrizeManager.sol\":3715:4005  function emitWeeklyReport(uint256 totalInvested, uint256 weeklyProfit) external onlyOwner {... */\n    tag_78:\n        /* \"@openzeppelin/contracts/access/Ownable.sol\":1531:1544  _checkOwner() */\n      tag_127\n        /* \"@openzeppelin/contracts/access/Ownable.sol\":1531:1542  _checkOwner */\n      tag_84\n        /* \"@openzeppelin/contracts/access/Ownable.sol\":1531:1544  _checkOwner() */\n      jump\t// in\n    tag_127:\n        /* \"contracts/PrizeManager.sol\":3821:3997  WeeklyReport(... */\n      0x8eaaff2ba16da1160fd06ccb389b317b1eeba725461562003201a60ae6cb9750\n        /* \"contracts/PrizeManager.sol\":3848:3861  totalInvested */\n      dup3\n        /* \"contracts/PrizeManager.sol\":3876:3888  weeklyProfit */\n      dup3\n        /* \"contracts/PrizeManager.sol\":3903:3911  lowPrize */\n      sload(0x04)\n        /* \"contracts/PrizeManager.sol\":3926:3937  middlePrize */\n      sload(0x03)\n        /* \"contracts/PrizeManager.sol\":3952:3961  highPrize */\n      sload(0x02)\n        /* \"contracts/PrizeManager.sol\":3976:3986  superPrize */\n      sload(0x01)\n        /* \"contracts/PrizeManager.sol\":3821:3997  WeeklyReport(... */\n      mload(0x40)\n      tag_129\n      swap7\n      swap6\n      swap5\n      swap4\n      swap3\n      swap2\n      swap1\n      tag_130\n      jump\t// in\n    tag_129:\n      mload(0x40)\n      dup1\n      swap2\n      sub\n      swap1\n      log1\n        /* \"contracts/PrizeManager.sol\":3715:4005  function emitWeeklyReport(uint256 totalInvested, uint256 weeklyProfit) external onlyOwner {... */\n      pop\n      pop\n      jump\t// out\n        /* \"contracts/PrizeManager.sol\":3184:3707  function _mintTokensToUsers() internal {... */\n    tag_81:\n        /* \"contracts/PrizeManager.sol\":3234:3253  uint256 totalMinted */\n      0x00\n        /* \"contracts/PrizeManager.sol\":3256:3257  0 */\n      0x00\n        /* \"contracts/PrizeManager.sol\":3234:3257  uint256 totalMinted = 0 */\n      swap1\n      pop\n        /* \"contracts/PrizeManager.sol\":3275:3290  address account */\n      0x00\n        /* \"contracts/PrizeManager.sol\":3301:3302  0 */\n      0x00\n        /* \"contracts/PrizeManager.sol\":3275:3303  address account = address(0) */\n      swap1\n      pop\n        /* \"contracts/PrizeManager.sol\":3270:3650  for (address account = address(0); account <= address(type(uint160).max); account = address(uint160(account) + 1)) {... */\n    tag_132:\n        /* \"contracts/PrizeManager.sol\":3324:3341  type(uint160).max */\n      0xffffffffffffffffffffffffffffffffffffffff\n        /* \"contracts/PrizeManager.sol\":3305:3342  account <= address(type(uint160).max) */\n      dup1\n      and\n        /* \"contracts/PrizeManager.sol\":3305:3312  account */\n      dup2\n        /* \"contracts/PrizeManager.sol\":3305:3342  account <= address(type(uint160).max) */\n      0xffffffffffffffffffffffffffffffffffffffff\n      and\n      gt\n        /* \"contracts/PrizeManager.sol\":3270:3650  for (address account = address(0); account <= address(type(uint160).max); account = address(uint160(account) + 1)) {... */\n      tag_133\n      jumpi\n        /* \"contracts/PrizeManager.sol\":3400:3414  uint256 amount */\n      0x00\n        /* \"contracts/PrizeManager.sol\":3417:3431  releasedTokens */\n      0x0a\n        /* \"contracts/PrizeManager.sol\":3417:3440  releasedTokens[account] */\n      0x00\n        /* \"contracts/PrizeManager.sol\":3432:3439  account */\n      dup4\n        /* \"contracts/PrizeManager.sol\":3417:3440  releasedTokens[account] */\n      0xffffffffffffffffffffffffffffffffffffffff\n      and\n      0xffffffffffffffffffffffffffffffffffffffff\n      and\n      dup2\n      mstore\n      0x20\n      add\n      swap1\n      dup2\n      mstore\n      0x20\n      add\n      0x00\n      keccak256\n      sload\n        /* \"contracts/PrizeManager.sol\":3400:3440  uint256 amount = releasedTokens[account] */\n      swap1\n      pop\n        /* \"contracts/PrizeManager.sol\":3468:3469  0 */\n      0x00\n        /* \"contracts/PrizeManager.sol\":3459:3465  amount */\n      dup2\n        /* \"contracts/PrizeManager.sol\":3459:3469  amount > 0 */\n      gt\n        /* \"contracts/PrizeManager.sol\":3455:3639  if (amount > 0) {... */\n      iszero\n      tag_135\n      jumpi\n        /* \"contracts/PrizeManager.sol\":3516:3517  0 */\n      0x00\n        /* \"contracts/PrizeManager.sol\":3490:3504  releasedTokens */\n      0x0a\n        /* \"contracts/PrizeManager.sol\":3490:3513  releasedTokens[account] */\n      0x00\n        /* \"contracts/PrizeManager.sol\":3505:3512  account */\n      dup5\n        /* \"contracts/PrizeManager.sol\":3490:3513  releasedTokens[account] */\n      0xffffffffffffffffffffffffffffffffffffffff\n      and\n      0xffffffffffffffffffffffffffffffffffffffff\n      and\n      dup2\n      mstore\n      0x20\n      add\n      swap1\n      dup2\n      mstore\n      0x20\n      add\n      0x00\n      keccak256\n        /* \"contracts/PrizeManager.sol\":3490:3517  releasedTokens[account] = 0 */\n      dup2\n      swap1\n      sstore\n      pop\n        /* \"contracts/PrizeManager.sol\":3551:3557  amount */\n      dup1\n        /* \"contracts/PrizeManager.sol\":3536:3557  totalMinted += amount */\n      dup4\n      tag_136\n      swap2\n      swap1\n      tag_104\n      jump\t// in\n    tag_136:\n      swap3\n      pop\n        /* \"contracts/PrizeManager.sol\":3583:3596  nasicoinToken */\n      0x09\n      0x02\n      swap1\n      sload\n      swap1\n      0x0100\n      exp\n      swap1\n      div\n      0xffffffffffffffffffffffffffffffffffffffff\n      and\n        /* \"contracts/PrizeManager.sol\":3576:3606  IERC20(nasicoinToken).transfer */\n      0xffffffffffffffffffffffffffffffffffffffff\n      and\n      0xa9059cbb\n        /* \"contracts/PrizeManager.sol\":3607:3614  account */\n      dup4\n        /* \"contracts/PrizeManager.sol\":3616:3622  amount */\n      dup4\n        /* \"contracts/PrizeManager.sol\":3576:3623  IERC20(nasicoinToken).transfer(account, amount) */\n      mload(0x40)\n      dup4\n      0xffffffff\n      and\n      0xe0\n      shl\n      dup2\n      mstore\n      0x04\n      add\n      tag_137\n      swap3\n      swap2\n      swap1\n      tag_138\n      jump\t// in\n    tag_137:\n      0x20\n      mload(0x40)\n      dup1\n      dup4\n      sub\n      dup2\n      0x00\n      dup8\n      gas\n      call\n      iszero\n      dup1\n      iszero\n      tag_140\n      jumpi\n      returndatacopy(0x00, 0x00, returndatasize)\n      revert(0x00, returndatasize)\n    tag_140:\n      pop\n      pop\n      pop\n      pop\n      mload(0x40)\n      returndatasize\n      not(0x1f)\n      0x1f\n      dup3\n      add\n      and\n      dup3\n      add\n      dup1\n      0x40\n      mstore\n      pop\n      dup2\n      add\n      swap1\n      tag_141\n      swap2\n      swap1\n      tag_142\n      jump\t// in\n    tag_141:\n      pop\n        /* \"contracts/PrizeManager.sol\":3455:3639  if (amount > 0) {... */\n    tag_135:\n        /* \"contracts/PrizeManager.sol\":3385:3650  {... */\n      pop\n        /* \"contracts/PrizeManager.sol\":3381:3382  1 */\n      0x01\n        /* \"contracts/PrizeManager.sol\":3370:3377  account */\n      dup2\n        /* \"contracts/PrizeManager.sol\":3362:3382  uint160(account) + 1 */\n      tag_143\n      swap2\n      swap1\n      tag_144\n      jump\t// in\n    tag_143:\n        /* \"contracts/PrizeManager.sol\":3344:3383  account = address(uint160(account) + 1) */\n      swap1\n      pop\n        /* \"contracts/PrizeManager.sol\":3270:3650  for (address account = address(0); account <= address(type(uint160).max); account = address(uint160(account) + 1)) {... */\n      jump(tag_132)\n    tag_133:\n      pop\n        /* \"contracts/PrizeManager.sol\":3667:3699  TokensMintedToUsers(totalMinted) */\n      0x1c1d7347d8617931af07a5a703cf35b98c6c46421a126ee0d2c204246297e732\n        /* \"contracts/PrizeManager.sol\":3687:3698  totalMinted */\n      dup2\n        /* \"contracts/PrizeManager.sol\":3667:3699  TokensMintedToUsers(totalMinted) */\n      mload(0x40)\n      tag_145\n      swap2\n      swap1\n      tag_26\n      jump\t// in\n    tag_145:\n      mload(0x40)\n      dup1\n      swap2\n      sub\n      swap1\n      log1\n        /* \"contracts/PrizeManager.sol\":3223:3707  {... */\n      pop\n        /* \"contracts/PrizeManager.sol\":3184:3707  function _mintTokensToUsers() internal {... */\n      jump\t// out\n        /* \"@openzeppelin/contracts/access/Ownable.sol\":1796:1958  function _checkOwner() internal view virtual {... */\n    tag_84:\n        /* \"@openzeppelin/contracts/access/Ownable.sol\":1866:1878  _msgSender() */\n      tag_147\n        /* \"@openzeppelin/contracts/access/Ownable.sol\":1866:1876  _msgSender */\n      tag_148\n        /* \"@openzeppelin/contracts/access/Ownable.sol\":1866:1878  _msgSender() */\n      jump\t// in\n    tag_147:\n        /* \"@openzeppelin/contracts/access/Ownable.sol\":1855:1878  owner() != _msgSender() */\n      0xffffffffffffffffffffffffffffffffffffffff\n      and\n        /* \"@openzeppelin/contracts/access/Ownable.sol\":1855:1862  owner() */\n      tag_149\n        /* \"@openzeppelin/contracts/access/Ownable.sol\":1855:1860  owner */\n      tag_54\n        /* \"@openzeppelin/contracts/access/Ownable.sol\":1855:1862  owner() */\n      jump\t// in\n    tag_149:\n        /* \"@openzeppelin/contracts/access/Ownable.sol\":1855:1878  owner() != _msgSender() */\n      0xffffffffffffffffffffffffffffffffffffffff\n      and\n      eq\n        /* \"@openzeppelin/contracts/access/Ownable.sol\":1851:1952  if (owner() != _msgSender()) {... */\n      tag_150\n      jumpi\n        /* \"@openzeppelin/contracts/access/Ownable.sol\":1928:1940  _msgSender() */\n      tag_151\n        /* \"@openzeppelin/contracts/access/Ownable.sol\":1928:1938  _msgSender */\n      tag_148\n        /* \"@openzeppelin/contracts/access/Ownable.sol\":1928:1940  _msgSender() */\n      jump\t// in\n    tag_151:\n        /* \"@openzeppelin/contracts/access/Ownable.sol\":1901:1941  OwnableUnauthorizedAccount(_msgSender()) */\n      mload(0x40)\n      0x118cdaa700000000000000000000000000000000000000000000000000000000\n      dup2\n      mstore\n      0x04\n      add\n      tag_152\n      swap2\n      swap1\n      tag_42\n      jump\t// in\n    tag_152:\n      mload(0x40)\n      dup1\n      swap2\n      sub\n      swap1\n      revert\n        /* \"@openzeppelin/contracts/access/Ownable.sol\":1851:1952  if (owner() != _msgSender()) {... */\n    tag_150:\n        /* \"@openzeppelin/contracts/access/Ownable.sol\":1796:1958  function _checkOwner() internal view virtual {... */\n      jump\t// out\n        /* \"@openzeppelin/contracts/access/Ownable.sol\":2912:3099  function _transferOwnership(address newOwner) internal virtual {... */\n    tag_87:\n        /* \"@openzeppelin/contracts/access/Ownable.sol\":2985:3001  address oldOwner */\n      0x00\n        /* \"@openzeppelin/contracts/access/Ownable.sol\":3004:3010  _owner */\n      0x00\n      0x00\n      swap1\n      sload\n      swap1\n      0x0100\n      exp\n      swap1\n      div\n      0xffffffffffffffffffffffffffffffffffffffff\n      and\n        /* \"@openzeppelin/contracts/access/Ownable.sol\":2985:3010  address oldOwner = _owner */\n      swap1\n      pop\n        /* \"@openzeppelin/contracts/access/Ownable.sol\":3029:3037  newOwner */\n      dup2\n        /* \"@openzeppelin/contracts/access/Ownable.sol\":3020:3026  _owner */\n      0x00\n      0x00\n        /* \"@openzeppelin/contracts/access/Ownable.sol\":3020:3037  _owner = newOwner */\n      0x0100\n      exp\n      dup2\n      sload\n      dup2\n      0xffffffffffffffffffffffffffffffffffffffff\n      mul\n      not\n      and\n      swap1\n      dup4\n      0xffffffffffffffffffffffffffffffffffffffff\n      and\n      mul\n      or\n      swap1\n      sstore\n      pop\n        /* \"@openzeppelin/contracts/access/Ownable.sol\":3083:3091  newOwner */\n      dup2\n        /* \"@openzeppelin/contracts/access/Ownable.sol\":3052:3092  OwnershipTransferred(oldOwner, newOwner) */\n      0xffffffffffffffffffffffffffffffffffffffff\n      and\n        /* \"@openzeppelin/contracts/access/Ownable.sol\":3073:3081  oldOwner */\n      dup2\n        /* \"@openzeppelin/contracts/access/Ownable.sol\":3052:3092  OwnershipTransferred(oldOwner, newOwner) */\n      0xffffffffffffffffffffffffffffffffffffffff\n      and\n      0x8be0079c531659141344cd1fd0a4f28419497f9722a3daafe3b4186f6b6457e0\n      mload(0x40)\n      mload(0x40)\n      dup1\n      swap2\n      sub\n      swap1\n      log3\n        /* \"@openzeppelin/contracts/access/Ownable.sol\":2975:3099  {... */\n      pop\n        /* \"@openzeppelin/contracts/access/Ownable.sol\":2912:3099  function _transferOwnership(address newOwner) internal virtual {... */\n      pop\n      jump\t// out\n        /* \"@openzeppelin/contracts/utils/Context.sol\":656:752  function _msgSender() internal view virtual returns (address) {... */\n    tag_148:\n        /* \"@openzeppelin/contracts/utils/Context.sol\":709:716  address */\n      0x00\n        /* \"@openzeppelin/contracts/utils/Context.sol\":735:745  msg.sender */\n      caller\n        /* \"@openzeppelin/contracts/utils/Context.sol\":728:745  return msg.sender */\n      swap1\n      pop\n        /* \"@openzeppelin/contracts/utils/Context.sol\":656:752  function _msgSender() internal view virtual returns (address) {... */\n      swap1\n      jump\t// out\n        /* \"#utility.yul\":7:84   */\n    tag_155:\n        /* \"#utility.yul\":44:51   */\n      0x00\n        /* \"#utility.yul\":73:78   */\n      dup2\n        /* \"#utility.yul\":62:78   */\n      swap1\n      pop\n        /* \"#utility.yul\":7:84   */\n      swap2\n      swap1\n      pop\n      jump\t// out\n        /* \"#utility.yul\":90:208   */\n    tag_156:\n        /* \"#utility.yul\":177:201   */\n      tag_179\n        /* \"#utility.yul\":195:200   */\n      dup2\n        /* \"#utility.yul\":177:201   */\n      tag_155\n      jump\t// in\n    tag_179:\n        /* \"#utility.yul\":172:175   */\n      dup3\n        /* \"#utility.yul\":165:202   */\n      mstore\n        /* \"#utility.yul\":90:208   */\n      pop\n      pop\n      jump\t// out\n        /* \"#utility.yul\":214:436   */\n    tag_26:\n        /* \"#utility.yul\":307:311   */\n      0x00\n        /* \"#utility.yul\":345:347   */\n      0x20\n        /* \"#utility.yul\":334:343   */\n      dup3\n        /* \"#utility.yul\":330:348   */\n      add\n        /* \"#utility.yul\":322:348   */\n      swap1\n      pop\n        /* \"#utility.yul\":358:429   */\n      tag_181\n        /* \"#utility.yul\":426:427   */\n      0x00\n        /* \"#utility.yul\":415:424   */\n      dup4\n        /* \"#utility.yul\":411:428   */\n      add\n        /* \"#utility.yul\":402:408   */\n      dup5\n        /* \"#utility.yul\":358:429   */\n      tag_156\n      jump\t// in\n    tag_181:\n        /* \"#utility.yul\":214:436   */\n      swap3\n      swap2\n      pop\n      pop\n      jump\t// out\n        /* \"#utility.yul\":442:532   */\n    tag_157:\n        /* \"#utility.yul\":476:483   */\n      0x00\n        /* \"#utility.yul\":519:524   */\n      dup2\n        /* \"#utility.yul\":512:525   */\n      iszero\n        /* \"#utility.yul\":505:526   */\n      iszero\n        /* \"#utility.yul\":494:526   */\n      swap1\n      pop\n        /* \"#utility.yul\":442:532   */\n      swap2\n      swap1\n      pop\n      jump\t// out\n        /* \"#utility.yul\":538:647   */\n    tag_158:\n        /* \"#utility.yul\":619:640   */\n      tag_184\n        /* \"#utility.yul\":634:639   */\n      dup2\n        /* \"#utility.yul\":619:640   */\n      tag_157\n      jump\t// in\n    tag_184:\n        /* \"#utility.yul\":614:617   */\n      dup3\n        /* \"#utility.yul\":607:641   */\n      mstore\n        /* \"#utility.yul\":538:647   */\n      pop\n      pop\n      jump\t// out\n        /* \"#utility.yul\":653:863   */\n    tag_33:\n        /* \"#utility.yul\":740:744   */\n      0x00\n        /* \"#utility.yul\":778:780   */\n      0x20\n        /* \"#utility.yul\":767:776   */\n      dup3\n        /* \"#utility.yul\":763:781   */\n      add\n        /* \"#utility.yul\":755:781   */\n      swap1\n      pop\n        /* \"#utility.yul\":791:856   */\n      tag_186\n        /* \"#utility.yul\":853:854   */\n      0x00\n        /* \"#utility.yul\":842:851   */\n      dup4\n        /* \"#utility.yul\":838:855   */\n      add\n        /* \"#utility.yul\":829:835   */\n      dup5\n        /* \"#utility.yul\":791:856   */\n      tag_158\n      jump\t// in\n    tag_186:\n        /* \"#utility.yul\":653:863   */\n      swap3\n      swap2\n      pop\n      pop\n      jump\t// out\n        /* \"#utility.yul\":869:995   */\n    tag_159:\n        /* \"#utility.yul\":906:913   */\n      0x00\n        /* \"#utility.yul\":946:988   */\n      0xffffffffffffffffffffffffffffffffffffffff\n        /* \"#utility.yul\":939:944   */\n      dup3\n        /* \"#utility.yul\":935:989   */\n      and\n        /* \"#utility.yul\":924:989   */\n      swap1\n      pop\n        /* \"#utility.yul\":869:995   */\n      swap2\n      swap1\n      pop\n      jump\t// out\n        /* \"#utility.yul\":1001:1097   */\n    tag_160:\n        /* \"#utility.yul\":1038:1045   */\n      0x00\n        /* \"#utility.yul\":1067:1091   */\n      tag_189\n        /* \"#utility.yul\":1085:1090   */\n      dup3\n        /* \"#utility.yul\":1067:1091   */\n      tag_159\n      jump\t// in\n    tag_189:\n        /* \"#utility.yul\":1056:1091   */\n      swap1\n      pop\n        /* \"#utility.yul\":1001:1097   */\n      swap2\n      swap1\n      pop\n      jump\t// out\n        /* \"#utility.yul\":1103:1221   */\n    tag_161:\n        /* \"#utility.yul\":1190:1214   */\n      tag_191\n        /* \"#utility.yul\":1208:1213   */\n      dup2\n        /* \"#utility.yul\":1190:1214   */\n      tag_160\n      jump\t// in\n    tag_191:\n        /* \"#utility.yul\":1185:1188   */\n      dup3\n        /* \"#utility.yul\":1178:1215   */\n      mstore\n        /* \"#utility.yul\":1103:1221   */\n      pop\n      pop\n      jump\t// out\n        /* \"#utility.yul\":1227:1449   */\n    tag_42:\n        /* \"#utility.yul\":1320:1324   */\n      0x00\n        /* \"#utility.yul\":1358:1360   */\n      0x20\n        /* \"#utility.yul\":1347:1356   */\n      dup3\n        /* \"#utility.yul\":1343:1361   */\n      add\n        /* \"#utility.yul\":1335:1361   */\n      swap1\n      pop\n        /* \"#utility.yul\":1371:1442   */\n      tag_193\n        /* \"#utility.yul\":1439:1440   */\n      0x00\n        /* \"#utility.yul\":1428:1437   */\n      dup4\n        /* \"#utility.yul\":1424:1441   */\n      add\n        /* \"#utility.yul\":1415:1421   */\n      dup5\n        /* \"#utility.yul\":1371:1442   */\n      tag_161\n      jump\t// in\n    tag_193:\n        /* \"#utility.yul\":1227:1449   */\n      swap3\n      swap2\n      pop\n      pop\n      jump\t// out\n        /* \"#utility.yul\":1536:1653   */\n    tag_163:\n        /* \"#utility.yul\":1645:1646   */\n      0x00\n        /* \"#utility.yul\":1642:1643   */\n      0x00\n        /* \"#utility.yul\":1635:1647   */\n      revert\n        /* \"#utility.yul\":1782:1904   */\n    tag_165:\n        /* \"#utility.yul\":1855:1879   */\n      tag_198\n        /* \"#utility.yul\":1873:1878   */\n      dup2\n        /* \"#utility.yul\":1855:1879   */\n      tag_160\n      jump\t// in\n    tag_198:\n        /* \"#utility.yul\":1848:1853   */\n      dup2\n        /* \"#utility.yul\":1845:1880   */\n      eq\n        /* \"#utility.yul\":1835:1898   */\n      tag_199\n      jumpi\n        /* \"#utility.yul\":1894:1895   */\n      0x00\n        /* \"#utility.yul\":1891:1892   */\n      0x00\n        /* \"#utility.yul\":1884:1896   */\n      revert\n        /* \"#utility.yul\":1835:1898   */\n    tag_199:\n        /* \"#utility.yul\":1782:1904   */\n      pop\n      jump\t// out\n        /* \"#utility.yul\":1910:2049   */\n    tag_166:\n        /* \"#utility.yul\":1956:1961   */\n      0x00\n        /* \"#utility.yul\":1994:2000   */\n      dup2\n        /* \"#utility.yul\":1981:2001   */\n      calldataload\n        /* \"#utility.yul\":1972:2001   */\n      swap1\n      pop\n        /* \"#utility.yul\":2010:2043   */\n      tag_201\n        /* \"#utility.yul\":2037:2042   */\n      dup2\n        /* \"#utility.yul\":2010:2043   */\n      tag_165\n      jump\t// in\n    tag_201:\n        /* \"#utility.yul\":1910:2049   */\n      swap3\n      swap2\n      pop\n      pop\n      jump\t// out\n        /* \"#utility.yul\":2055:2384   */\n    tag_45:\n        /* \"#utility.yul\":2114:2120   */\n      0x00\n        /* \"#utility.yul\":2163:2165   */\n      0x20\n        /* \"#utility.yul\":2151:2160   */\n      dup3\n        /* \"#utility.yul\":2142:2149   */\n      dup5\n        /* \"#utility.yul\":2138:2161   */\n      sub\n        /* \"#utility.yul\":2134:2166   */\n      slt\n        /* \"#utility.yul\":2131:2250   */\n      iszero\n      tag_203\n      jumpi\n        /* \"#utility.yul\":2169:2248   */\n      tag_204\n      tag_163\n      jump\t// in\n    tag_204:\n        /* \"#utility.yul\":2131:2250   */\n    tag_203:\n        /* \"#utility.yul\":2289:2290   */\n      0x00\n        /* \"#utility.yul\":2314:2367   */\n      tag_205\n        /* \"#utility.yul\":2359:2366   */\n      dup5\n        /* \"#utility.yul\":2350:2356   */\n      dup3\n        /* \"#utility.yul\":2339:2348   */\n      dup6\n        /* \"#utility.yul\":2335:2357   */\n      add\n        /* \"#utility.yul\":2314:2367   */\n      tag_166\n      jump\t// in\n    tag_205:\n        /* \"#utility.yul\":2304:2367   */\n      swap2\n      pop\n        /* \"#utility.yul\":2260:2377   */\n      pop\n        /* \"#utility.yul\":2055:2384   */\n      swap3\n      swap2\n      pop\n      pop\n      jump\t// out\n        /* \"#utility.yul\":2390:2512   */\n    tag_167:\n        /* \"#utility.yul\":2463:2487   */\n      tag_207\n        /* \"#utility.yul\":2481:2486   */\n      dup2\n        /* \"#utility.yul\":2463:2487   */\n      tag_155\n      jump\t// in\n    tag_207:\n        /* \"#utility.yul\":2456:2461   */\n      dup2\n        /* \"#utility.yul\":2453:2488   */\n      eq\n        /* \"#utility.yul\":2443:2506   */\n      tag_208\n      jumpi\n        /* \"#utility.yul\":2502:2503   */\n      0x00\n        /* \"#utility.yul\":2499:2500   */\n      0x00\n        /* \"#utility.yul\":2492:2504   */\n      revert\n        /* \"#utility.yul\":2443:2506   */\n    tag_208:\n        /* \"#utility.yul\":2390:2512   */\n      pop\n      jump\t// out\n        /* \"#utility.yul\":2518:2657   */\n    tag_168:\n        /* \"#utility.yul\":2564:2569   */\n      0x00\n        /* \"#utility.yul\":2602:2608   */\n      dup2\n        /* \"#utility.yul\":2589:2609   */\n      calldataload\n        /* \"#utility.yul\":2580:2609   */\n      swap1\n      pop\n        /* \"#utility.yul\":2618:2651   */\n      tag_210\n        /* \"#utility.yul\":2645:2650   */\n      dup2\n        /* \"#utility.yul\":2618:2651   */\n      tag_167\n      jump\t// in\n    tag_210:\n        /* \"#utility.yul\":2518:2657   */\n      swap3\n      swap2\n      pop\n      pop\n      jump\t// out\n        /* \"#utility.yul\":2663:2992   */\n    tag_58:\n        /* \"#utility.yul\":2722:2728   */\n      0x00\n        /* \"#utility.yul\":2771:2773   */\n      0x20\n        /* \"#utility.yul\":2759:2768   */\n      dup3\n        /* \"#utility.yul\":2750:2757   */\n      dup5\n        /* \"#utility.yul\":2746:2769   */\n      sub\n        /* \"#utility.yul\":2742:2774   */\n      slt\n        /* \"#utility.yul\":2739:2858   */\n      iszero\n      tag_212\n      jumpi\n        /* \"#utility.yul\":2777:2856   */\n      tag_213\n      tag_163\n      jump\t// in\n    tag_213:\n        /* \"#utility.yul\":2739:2858   */\n    tag_212:\n        /* \"#utility.yul\":2897:2898   */\n      0x00\n        /* \"#utility.yul\":2922:2975   */\n      tag_214\n        /* \"#utility.yul\":2967:2974   */\n      dup5\n        /* \"#utility.yul\":2958:2964   */\n      dup3\n        /* \"#utility.yul\":2947:2956   */\n      dup6\n        /* \"#utility.yul\":2943:2965   */\n      add\n        /* \"#utility.yul\":2922:2975   */\n      tag_168\n      jump\t// in\n    tag_214:\n        /* \"#utility.yul\":2912:2975   */\n      swap2\n      pop\n        /* \"#utility.yul\":2868:2985   */\n      pop\n        /* \"#utility.yul\":2663:2992   */\n      swap3\n      swap2\n      pop\n      pop\n      jump\t// out\n        /* \"#utility.yul\":2998:3472   */\n    tag_77:\n        /* \"#utility.yul\":3066:3072   */\n      0x00\n        /* \"#utility.yul\":3074:3080   */\n      0x00\n        /* \"#utility.yul\":3123:3125   */\n      0x40\n        /* \"#utility.yul\":3111:3120   */\n      dup4\n        /* \"#utility.yul\":3102:3109   */\n      dup6\n        /* \"#utility.yul\":3098:3121   */\n      sub\n        /* \"#utility.yul\":3094:3126   */\n      slt\n        /* \"#utility.yul\":3091:3210   */\n      iszero\n      tag_216\n      jumpi\n        /* \"#utility.yul\":3129:3208   */\n      tag_217\n      tag_163\n      jump\t// in\n    tag_217:\n        /* \"#utility.yul\":3091:3210   */\n    tag_216:\n        /* \"#utility.yul\":3249:3250   */\n      0x00\n        /* \"#utility.yul\":3274:3327   */\n      tag_218\n        /* \"#utility.yul\":3319:3326   */\n      dup6\n        /* \"#utility.yul\":3310:3316   */\n      dup3\n        /* \"#utility.yul\":3299:3308   */\n      dup7\n        /* \"#utility.yul\":3295:3317   */\n      add\n        /* \"#utility.yul\":3274:3327   */\n      tag_168\n      jump\t// in\n    tag_218:\n        /* \"#utility.yul\":3264:3327   */\n      swap3\n      pop\n        /* \"#utility.yul\":3220:3337   */\n      pop\n        /* \"#utility.yul\":3376:3378   */\n      0x20\n        /* \"#utility.yul\":3402:3455   */\n      tag_219\n        /* \"#utility.yul\":3447:3454   */\n      dup6\n        /* \"#utility.yul\":3438:3444   */\n      dup3\n        /* \"#utility.yul\":3427:3436   */\n      dup7\n        /* \"#utility.yul\":3423:3445   */\n      add\n        /* \"#utility.yul\":3402:3455   */\n      tag_168\n      jump\t// in\n    tag_219:\n        /* \"#utility.yul\":3392:3455   */\n      swap2\n      pop\n        /* \"#utility.yul\":3347:3465   */\n      pop\n        /* \"#utility.yul\":2998:3472   */\n      swap3\n      pop\n      swap3\n      swap1\n      pop\n      jump\t// out\n        /* \"#utility.yul\":3478:3647   */\n    tag_169:\n        /* \"#utility.yul\":3562:3573   */\n      0x00\n        /* \"#utility.yul\":3596:3602   */\n      dup3\n        /* \"#utility.yul\":3591:3594   */\n      dup3\n        /* \"#utility.yul\":3584:3603   */\n      mstore\n        /* \"#utility.yul\":3636:3640   */\n      0x20\n        /* \"#utility.yul\":3631:3634   */\n      dup3\n        /* \"#utility.yul\":3627:3641   */\n      add\n        /* \"#utility.yul\":3612:3641   */\n      swap1\n      pop\n        /* \"#utility.yul\":3478:3647   */\n      swap3\n      swap2\n      pop\n      pop\n      jump\t// out\n        /* \"#utility.yul\":3653:3827   */\n    tag_170:\n        /* \"#utility.yul\":3793:3819   */\n      0x4e6f2070726f6669747320746f20646973747269627574650000000000000000\n        /* \"#utility.yul\":3789:3790   */\n      0x00\n        /* \"#utility.yul\":3781:3787   */\n      dup3\n        /* \"#utility.yul\":3777:3791   */\n      add\n        /* \"#utility.yul\":3770:3820   */\n      mstore\n        /* \"#utility.yul\":3653:3827   */\n      pop\n      jump\t// out\n        /* \"#utility.yul\":3833:4199   */\n    tag_171:\n        /* \"#utility.yul\":3975:3978   */\n      0x00\n        /* \"#utility.yul\":3996:4063   */\n      tag_223\n        /* \"#utility.yul\":4060:4062   */\n      0x18\n        /* \"#utility.yul\":4055:4058   */\n      dup4\n        /* \"#utility.yul\":3996:4063   */\n      tag_169\n      jump\t// in\n    tag_223:\n        /* \"#utility.yul\":3989:4063   */\n      swap2\n      pop\n        /* \"#utility.yul\":4072:4165   */\n      tag_224\n        /* \"#utility.yul\":4161:4164   */\n      dup3\n        /* \"#utility.yul\":4072:4165   */\n      tag_170\n      jump\t// in\n    tag_224:\n        /* \"#utility.yul\":4190:4192   */\n      0x20\n        /* \"#utility.yul\":4185:4188   */\n      dup3\n        /* \"#utility.yul\":4181:4193   */\n      add\n        /* \"#utility.yul\":4174:4193   */\n      swap1\n      pop\n        /* \"#utility.yul\":3833:4199   */\n      swap2\n      swap1\n      pop\n      jump\t// out\n        /* \"#utility.yul\":4205:4624   */\n    tag_94:\n        /* \"#utility.yul\":4371:4375   */\n      0x00\n        /* \"#utility.yul\":4409:4411   */\n      0x20\n        /* \"#utility.yul\":4398:4407   */\n      dup3\n        /* \"#utility.yul\":4394:4412   */\n      add\n        /* \"#utility.yul\":4386:4412   */\n      swap1\n      pop\n        /* \"#utility.yul\":4458:4467   */\n      dup2\n        /* \"#utility.yul\":4452:4456   */\n      dup2\n        /* \"#utility.yul\":4448:4468   */\n      sub\n        /* \"#utility.yul\":4444:4445   */\n      0x00\n        /* \"#utility.yul\":4433:4442   */\n      dup4\n        /* \"#utility.yul\":4429:4446   */\n      add\n        /* \"#utility.yul\":4422:4469   */\n      mstore\n        /* \"#utility.yul\":4486:4617   */\n      tag_226\n        /* \"#utility.yul\":4612:4616   */\n      dup2\n        /* \"#utility.yul\":4486:4617   */\n      tag_171\n      jump\t// in\n    tag_226:\n        /* \"#utility.yul\":4478:4617   */\n      swap1\n      pop\n        /* \"#utility.yul\":4205:4624   */\n      swap2\n      swap1\n      pop\n      jump\t// out\n        /* \"#utility.yul\":4630:4810   */\n    tag_172:\n        /* \"#utility.yul\":4678:4755   */\n      0x4e487b7100000000000000000000000000000000000000000000000000000000\n        /* \"#utility.yul\":4675:4676   */\n      0x00\n        /* \"#utility.yul\":4668:4756   */\n      mstore\n        /* \"#utility.yul\":4775:4779   */\n      0x11\n        /* \"#utility.yul\":4772:4773   */\n      0x04\n        /* \"#utility.yul\":4765:4780   */\n      mstore\n        /* \"#utility.yul\":4799:4803   */\n      0x24\n        /* \"#utility.yul\":4796:4797   */\n      0x00\n        /* \"#utility.yul\":4789:4804   */\n      revert\n        /* \"#utility.yul\":4816:5226   */\n    tag_96:\n        /* \"#utility.yul\":4856:4863   */\n      0x00\n        /* \"#utility.yul\":4879:4899   */\n      tag_229\n        /* \"#utility.yul\":4897:4898   */\n      dup3\n        /* \"#utility.yul\":4879:4899   */\n      tag_155\n      jump\t// in\n    tag_229:\n        /* \"#utility.yul\":4874:4899   */\n      swap2\n      pop\n        /* \"#utility.yul\":4913:4933   */\n      tag_230\n        /* \"#utility.yul\":4931:4932   */\n      dup4\n        /* \"#utility.yul\":4913:4933   */\n      tag_155\n      jump\t// in\n    tag_230:\n        /* \"#utility.yul\":4908:4933   */\n      swap3\n      pop\n        /* \"#utility.yul\":4968:4969   */\n      dup3\n        /* \"#utility.yul\":4965:4966   */\n      dup3\n        /* \"#utility.yul\":4961:4970   */\n      mul\n        /* \"#utility.yul\":4990:5020   */\n      tag_231\n        /* \"#utility.yul\":5008:5019   */\n      dup2\n        /* \"#utility.yul\":4990:5020   */\n      tag_155\n      jump\t// in\n    tag_231:\n        /* \"#utility.yul\":4979:5020   */\n      swap2\n      pop\n        /* \"#utility.yul\":5169:5170   */\n      dup3\n        /* \"#utility.yul\":5160:5167   */\n      dup3\n        /* \"#utility.yul\":5156:5171   */\n      div\n        /* \"#utility.yul\":5153:5154   */\n      dup5\n        /* \"#utility.yul\":5150:5172   */\n      eq\n        /* \"#utility.yul\":5130:5131   */\n      dup4\n        /* \"#utility.yul\":5123:5132   */\n      iszero\n        /* \"#utility.yul\":5103:5186   */\n      or\n        /* \"#utility.yul\":5080:5219   */\n      tag_232\n      jumpi\n        /* \"#utility.yul\":5199:5217   */\n      tag_233\n      tag_172\n      jump\t// in\n    tag_233:\n        /* \"#utility.yul\":5080:5219   */\n    tag_232:\n        /* \"#utility.yul\":4864:5226   */\n      pop\n        /* \"#utility.yul\":4816:5226   */\n      swap3\n      swap2\n      pop\n      pop\n      jump\t// out\n        /* \"#utility.yul\":5232:5412   */\n    tag_173:\n        /* \"#utility.yul\":5280:5357   */\n      0x4e487b7100000000000000000000000000000000000000000000000000000000\n        /* \"#utility.yul\":5277:5278   */\n      0x00\n        /* \"#utility.yul\":5270:5358   */\n      mstore\n        /* \"#utility.yul\":5377:5381   */\n      0x12\n        /* \"#utility.yul\":5374:5375   */\n      0x04\n        /* \"#utility.yul\":5367:5382   */\n      mstore\n        /* \"#utility.yul\":5401:5405   */\n      0x24\n        /* \"#utility.yul\":5398:5399   */\n      0x00\n        /* \"#utility.yul\":5391:5406   */\n      revert\n        /* \"#utility.yul\":5418:5603   */\n    tag_98:\n        /* \"#utility.yul\":5458:5459   */\n      0x00\n        /* \"#utility.yul\":5475:5495   */\n      tag_236\n        /* \"#utility.yul\":5493:5494   */\n      dup3\n        /* \"#utility.yul\":5475:5495   */\n      tag_155\n      jump\t// in\n    tag_236:\n        /* \"#utility.yul\":5470:5495   */\n      swap2\n      pop\n        /* \"#utility.yul\":5509:5529   */\n      tag_237\n        /* \"#utility.yul\":5527:5528   */\n      dup4\n        /* \"#utility.yul\":5509:5529   */\n      tag_155\n      jump\t// in\n    tag_237:\n        /* \"#utility.yul\":5504:5529   */\n      swap3\n      pop\n        /* \"#utility.yul\":5548:5549   */\n      dup3\n        /* \"#utility.yul\":5538:5573   */\n      tag_238\n      jumpi\n        /* \"#utility.yul\":5553:5571   */\n      tag_239\n      tag_173\n      jump\t// in\n    tag_239:\n        /* \"#utility.yul\":5538:5573   */\n    tag_238:\n        /* \"#utility.yul\":5595:5596   */\n      dup3\n        /* \"#utility.yul\":5592:5593   */\n      dup3\n        /* \"#utility.yul\":5588:5597   */\n      div\n        /* \"#utility.yul\":5583:5597   */\n      swap1\n      pop\n        /* \"#utility.yul\":5418:5603   */\n      swap3\n      swap2\n      pop\n      pop\n      jump\t// out\n        /* \"#utility.yul\":5609:5800   */\n    tag_104:\n        /* \"#utility.yul\":5649:5652   */\n      0x00\n        /* \"#utility.yul\":5668:5688   */\n      tag_241\n        /* \"#utility.yul\":5686:5687   */\n      dup3\n        /* \"#utility.yul\":5668:5688   */\n      tag_155\n      jump\t// in\n    tag_241:\n        /* \"#utility.yul\":5663:5688   */\n      swap2\n      pop\n        /* \"#utility.yul\":5702:5722   */\n      tag_242\n        /* \"#utility.yul\":5720:5721   */\n      dup4\n        /* \"#utility.yul\":5702:5722   */\n      tag_155\n      jump\t// in\n    tag_242:\n        /* \"#utility.yul\":5697:5722   */\n      swap3\n      pop\n        /* \"#utility.yul\":5745:5746   */\n      dup3\n        /* \"#utility.yul\":5742:5743   */\n      dup3\n        /* \"#utility.yul\":5738:5747   */\n      add\n        /* \"#utility.yul\":5731:5747   */\n      swap1\n      pop\n        /* \"#utility.yul\":5766:5769   */\n      dup1\n        /* \"#utility.yul\":5763:5764   */\n      dup3\n        /* \"#utility.yul\":5760:5770   */\n      gt\n        /* \"#utility.yul\":5757:5793   */\n      iszero\n      tag_243\n      jumpi\n        /* \"#utility.yul\":5773:5791   */\n      tag_244\n      tag_172\n      jump\t// in\n    tag_244:\n        /* \"#utility.yul\":5757:5793   */\n    tag_243:\n        /* \"#utility.yul\":5609:5800   */\n      swap3\n      swap2\n      pop\n      pop\n      jump\t// out\n        /* \"#utility.yul\":5806:6359   */\n    tag_117:\n        /* \"#utility.yul\":5983:5987   */\n      0x00\n        /* \"#utility.yul\":6021:6024   */\n      0x80\n        /* \"#utility.yul\":6010:6019   */\n      dup3\n        /* \"#utility.yul\":6006:6025   */\n      add\n        /* \"#utility.yul\":5998:6025   */\n      swap1\n      pop\n        /* \"#utility.yul\":6035:6106   */\n      tag_246\n        /* \"#utility.yul\":6103:6104   */\n      0x00\n        /* \"#utility.yul\":6092:6101   */\n      dup4\n        /* \"#utility.yul\":6088:6105   */\n      add\n        /* \"#utility.yul\":6079:6085   */\n      dup8\n        /* \"#utility.yul\":6035:6106   */\n      tag_156\n      jump\t// in\n    tag_246:\n        /* \"#utility.yul\":6116:6188   */\n      tag_247\n        /* \"#utility.yul\":6184:6186   */\n      0x20\n        /* \"#utility.yul\":6173:6182   */\n      dup4\n        /* \"#utility.yul\":6169:6187   */\n      add\n        /* \"#utility.yul\":6160:6166   */\n      dup7\n        /* \"#utility.yul\":6116:6188   */\n      tag_156\n      jump\t// in\n    tag_247:\n        /* \"#utility.yul\":6198:6270   */\n      tag_248\n        /* \"#utility.yul\":6266:6268   */\n      0x40\n        /* \"#utility.yul\":6255:6264   */\n      dup4\n        /* \"#utility.yul\":6251:6269   */\n      add\n        /* \"#utility.yul\":6242:6248   */\n      dup6\n        /* \"#utility.yul\":6198:6270   */\n      tag_156\n      jump\t// in\n    tag_248:\n        /* \"#utility.yul\":6280:6352   */\n      tag_249\n        /* \"#utility.yul\":6348:6350   */\n      0x60\n        /* \"#utility.yul\":6337:6346   */\n      dup4\n        /* \"#utility.yul\":6333:6351   */\n      add\n        /* \"#utility.yul\":6324:6330   */\n      dup5\n        /* \"#utility.yul\":6280:6352   */\n      tag_156\n      jump\t// in\n    tag_249:\n        /* \"#utility.yul\":5806:6359   */\n      swap6\n      swap5\n      pop\n      pop\n      pop\n      pop\n      pop\n      jump\t// out\n        /* \"#utility.yul\":6365:6697   */\n    tag_119:\n        /* \"#utility.yul\":6486:6490   */\n      0x00\n        /* \"#utility.yul\":6524:6526   */\n      0x40\n        /* \"#utility.yul\":6513:6522   */\n      dup3\n        /* \"#utility.yul\":6509:6527   */\n      add\n        /* \"#utility.yul\":6501:6527   */\n      swap1\n      pop\n        /* \"#utility.yul\":6537:6608   */\n      tag_251\n        /* \"#utility.yul\":6605:6606   */\n      0x00\n        /* \"#utility.yul\":6594:6603   */\n      dup4\n        /* \"#utility.yul\":6590:6607   */\n      add\n        /* \"#utility.yul\":6581:6587   */\n      dup6\n        /* \"#utility.yul\":6537:6608   */\n      tag_156\n      jump\t// in\n    tag_251:\n        /* \"#utility.yul\":6618:6690   */\n      tag_252\n        /* \"#utility.yul\":6686:6688   */\n      0x20\n        /* \"#utility.yul\":6675:6684   */\n      dup4\n        /* \"#utility.yul\":6671:6689   */\n      add\n        /* \"#utility.yul\":6662:6668   */\n      dup5\n        /* \"#utility.yul\":6618:6690   */\n      tag_156\n      jump\t// in\n    tag_252:\n        /* \"#utility.yul\":6365:6697   */\n      swap4\n      swap3\n      pop\n      pop\n      pop\n      jump\t// out\n        /* \"#utility.yul\":6703:7478   */\n    tag_130:\n        /* \"#utility.yul\":6936:6940   */\n      0x00\n        /* \"#utility.yul\":6974:6977   */\n      0xc0\n        /* \"#utility.yul\":6963:6972   */\n      dup3\n        /* \"#utility.yul\":6959:6978   */\n      add\n        /* \"#utility.yul\":6951:6978   */\n      swap1\n      pop\n        /* \"#utility.yul\":6988:7059   */\n      tag_254\n        /* \"#utility.yul\":7056:7057   */\n      0x00\n        /* \"#utility.yul\":7045:7054   */\n      dup4\n        /* \"#utility.yul\":7041:7058   */\n      add\n        /* \"#utility.yul\":7032:7038   */\n      dup10\n        /* \"#utility.yul\":6988:7059   */\n      tag_156\n      jump\t// in\n    tag_254:\n        /* \"#utility.yul\":7069:7141   */\n      tag_255\n        /* \"#utility.yul\":7137:7139   */\n      0x20\n        /* \"#utility.yul\":7126:7135   */\n      dup4\n        /* \"#utility.yul\":7122:7140   */\n      add\n        /* \"#utility.yul\":7113:7119   */\n      dup9\n        /* \"#utility.yul\":7069:7141   */\n      tag_156\n      jump\t// in\n    tag_255:\n        /* \"#utility.yul\":7151:7223   */\n      tag_256\n        /* \"#utility.yul\":7219:7221   */\n      0x40\n        /* \"#utility.yul\":7208:7217   */\n      dup4\n        /* \"#utility.yul\":7204:7222   */\n      add\n        /* \"#utility.yul\":7195:7201   */\n      dup8\n        /* \"#utility.yul\":7151:7223   */\n      tag_156\n      jump\t// in\n    tag_256:\n        /* \"#utility.yul\":7233:7305   */\n      tag_257\n        /* \"#utility.yul\":7301:7303   */\n      0x60\n        /* \"#utility.yul\":7290:7299   */\n      dup4\n        /* \"#utility.yul\":7286:7304   */\n      add\n        /* \"#utility.yul\":7277:7283   */\n      dup7\n        /* \"#utility.yul\":7233:7305   */\n      tag_156\n      jump\t// in\n    tag_257:\n        /* \"#utility.yul\":7315:7388   */\n      tag_258\n        /* \"#utility.yul\":7383:7386   */\n      0x80\n        /* \"#utility.yul\":7372:7381   */\n      dup4\n        /* \"#utility.yul\":7368:7387   */\n      add\n        /* \"#utility.yul\":7359:7365   */\n      dup6\n        /* \"#utility.yul\":7315:7388   */\n      tag_156\n      jump\t// in\n    tag_258:\n        /* \"#utility.yul\":7398:7471   */\n      tag_259\n        /* \"#utility.yul\":7466:7469   */\n      0xa0\n        /* \"#utility.yul\":7455:7464   */\n      dup4\n        /* \"#utility.yul\":7451:7470   */\n      add\n        /* \"#utility.yul\":7442:7448   */\n      dup5\n        /* \"#utility.yul\":7398:7471   */\n      tag_156\n      jump\t// in\n    tag_259:\n        /* \"#utility.yul\":6703:7478   */\n      swap8\n      swap7\n      pop\n      pop\n      pop\n      pop\n      pop\n      pop\n      pop\n      jump\t// out\n        /* \"#utility.yul\":7484:7816   */\n    tag_138:\n        /* \"#utility.yul\":7605:7609   */\n      0x00\n        /* \"#utility.yul\":7643:7645   */\n      0x40\n        /* \"#utility.yul\":7632:7641   */\n      dup3\n        /* \"#utility.yul\":7628:7646   */\n      add\n        /* \"#utility.yul\":7620:7646   */\n      swap1\n      pop\n        /* \"#utility.yul\":7656:7727   */\n      tag_261\n        /* \"#utility.yul\":7724:7725   */\n      0x00\n        /* \"#utility.yul\":7713:7722   */\n      dup4\n        /* \"#utility.yul\":7709:7726   */\n      add\n        /* \"#utility.yul\":7700:7706   */\n      dup6\n        /* \"#utility.yul\":7656:7727   */\n      tag_161\n      jump\t// in\n    tag_261:\n        /* \"#utility.yul\":7737:7809   */\n      tag_262\n        /* \"#utility.yul\":7805:7807   */\n      0x20\n        /* \"#utility.yul\":7794:7803   */\n      dup4\n        /* \"#utility.yul\":7790:7808   */\n      add\n        /* \"#utility.yul\":7781:7787   */\n      dup5\n        /* \"#utility.yul\":7737:7809   */\n      tag_156\n      jump\t// in\n    tag_262:\n        /* \"#utility.yul\":7484:7816   */\n      swap4\n      swap3\n      pop\n      pop\n      pop\n      jump\t// out\n        /* \"#utility.yul\":7822:7938   */\n    tag_174:\n        /* \"#utility.yul\":7892:7913   */\n      tag_264\n        /* \"#utility.yul\":7907:7912   */\n      dup2\n        /* \"#utility.yul\":7892:7913   */\n      tag_157\n      jump\t// in\n    tag_264:\n        /* \"#utility.yul\":7885:7890   */\n      dup2\n        /* \"#utility.yul\":7882:7914   */\n      eq\n        /* \"#utility.yul\":7872:7932   */\n      tag_265\n      jumpi\n        /* \"#utility.yul\":7928:7929   */\n      0x00\n        /* \"#utility.yul\":7925:7926   */\n      0x00\n        /* \"#utility.yul\":7918:7930   */\n      revert\n        /* \"#utility.yul\":7872:7932   */\n    tag_265:\n        /* \"#utility.yul\":7822:7938   */\n      pop\n      jump\t// out\n        /* \"#utility.yul\":7944:8081   */\n    tag_175:\n        /* \"#utility.yul\":7998:8003   */\n      0x00\n        /* \"#utility.yul\":8029:8035   */\n      dup2\n        /* \"#utility.yul\":8023:8036   */\n      mload\n        /* \"#utility.yul\":8014:8036   */\n      swap1\n      pop\n        /* \"#utility.yul\":8045:8075   */\n      tag_267\n        /* \"#utility.yul\":8069:8074   */\n      dup2\n        /* \"#utility.yul\":8045:8075   */\n      tag_174\n      jump\t// in\n    tag_267:\n        /* \"#utility.yul\":7944:8081   */\n      swap3\n      swap2\n      pop\n      pop\n      jump\t// out\n        /* \"#utility.yul\":8087:8432   */\n    tag_142:\n        /* \"#utility.yul\":8154:8160   */\n      0x00\n        /* \"#utility.yul\":8203:8205   */\n      0x20\n        /* \"#utility.yul\":8191:8200   */\n      dup3\n        /* \"#utility.yul\":8182:8189   */\n      dup5\n        /* \"#utility.yul\":8178:8201   */\n      sub\n        /* \"#utility.yul\":8174:8206   */\n      slt\n        /* \"#utility.yul\":8171:8290   */\n      iszero\n      tag_269\n      jumpi\n        /* \"#utility.yul\":8209:8288   */\n      tag_270\n      tag_163\n      jump\t// in\n    tag_270:\n        /* \"#utility.yul\":8171:8290   */\n    tag_269:\n        /* \"#utility.yul\":8329:8330   */\n      0x00\n        /* \"#utility.yul\":8354:8415   */\n      tag_271\n        /* \"#utility.yul\":8407:8414   */\n      dup5\n        /* \"#utility.yul\":8398:8404   */\n      dup3\n        /* \"#utility.yul\":8387:8396   */\n      dup6\n        /* \"#utility.yul\":8383:8405   */\n      add\n        /* \"#utility.yul\":8354:8415   */\n      tag_175\n      jump\t// in\n    tag_271:\n        /* \"#utility.yul\":8344:8415   */\n      swap2\n      pop\n        /* \"#utility.yul\":8300:8425   */\n      pop\n        /* \"#utility.yul\":8087:8432   */\n      swap3\n      swap2\n      pop\n      pop\n      jump\t// out\n        /* \"#utility.yul\":8438:8670   */\n    tag_144:\n        /* \"#utility.yul\":8478:8481   */\n      0x00\n        /* \"#utility.yul\":8497:8517   */\n      tag_273\n        /* \"#utility.yul\":8515:8516   */\n      dup3\n        /* \"#utility.yul\":8497:8517   */\n      tag_159\n      jump\t// in\n    tag_273:\n        /* \"#utility.yul\":8492:8517   */\n      swap2\n      pop\n        /* \"#utility.yul\":8531:8551   */\n      tag_274\n        /* \"#utility.yul\":8549:8550   */\n      dup4\n        /* \"#utility.yul\":8531:8551   */\n      tag_159\n      jump\t// in\n    tag_274:\n        /* \"#utility.yul\":8526:8551   */\n      swap3\n      pop\n        /* \"#utility.yul\":8574:8575   */\n      dup3\n        /* \"#utility.yul\":8571:8572   */\n      dup3\n        /* \"#utility.yul\":8567:8576   */\n      add\n        /* \"#utility.yul\":8560:8576   */\n      swap1\n      pop\n        /* \"#utility.yul\":8597:8639   */\n      0xffffffffffffffffffffffffffffffffffffffff\n        /* \"#utility.yul\":8592:8595   */\n      dup2\n        /* \"#utility.yul\":8589:8640   */\n      gt\n        /* \"#utility.yul\":8586:8663   */\n      iszero\n      tag_275\n      jumpi\n        /* \"#utility.yul\":8643:8661   */\n      tag_276\n      tag_172\n      jump\t// in\n    tag_276:\n        /* \"#utility.yul\":8586:8663   */\n    tag_275:\n        /* \"#utility.yul\":8438:8670   */\n      swap3\n      swap2\n      pop\n      pop\n      jump\t// out\n\n    auxdata: 0xa264697066735822122017962b0924ceab0cf3a13912c5b5231b318c29bd21a88d1952be44b689c603f864736f6c634300081c0033\n}\n",
				"bytecode": {
					"linkReferences": {},
					"object": "6080604052600a6007555f60095f6101000a81548160ff0219169083151502179055505f600960016101000a81548160ff021916908315150217905550348015610047575f5ffd5b5060405161122c38038061122c833981810160405281019061006991906102bf565b815f73ffffffffffffffffffffffffffffffffffffffff168173ffffffffffffffffffffffffffffffffffffffff16036100da575f6040517f1e4fbdf70000000000000000000000000000000000000000000000000000000081526004016100d1919061030c565b60405180910390fd5b6100e9816101a060201b60201c565b505f73ffffffffffffffffffffffffffffffffffffffff168173ffffffffffffffffffffffffffffffffffffffff1603610158576040517f08c379a000000000000000000000000000000000000000000000000000000000815260040161014f9061037f565b60405180910390fd5b80600960026101000a81548173ffffffffffffffffffffffffffffffffffffffff021916908373ffffffffffffffffffffffffffffffffffffffff160217905550505061039d565b5f5f5f9054906101000a900473ffffffffffffffffffffffffffffffffffffffff169050815f5f6101000a81548173ffffffffffffffffffffffffffffffffffffffff021916908373ffffffffffffffffffffffffffffffffffffffff1602179055508173ffffffffffffffffffffffffffffffffffffffff168173ffffffffffffffffffffffffffffffffffffffff167f8be0079c531659141344cd1fd0a4f28419497f9722a3daafe3b4186f6b6457e060405160405180910390a35050565b5f5ffd5b5f73ffffffffffffffffffffffffffffffffffffffff82169050919050565b5f61028e82610265565b9050919050565b61029e81610284565b81146102a8575f5ffd5b50565b5f815190506102b981610295565b92915050565b5f5f604083850312156102d5576102d4610261565b5b5f6102e2858286016102ab565b92505060206102f3858286016102ab565b9150509250929050565b61030681610284565b82525050565b5f60208201905061031f5f8301846102fd565b92915050565b5f82825260208201905092915050565b7f496e76616c6964204e415349434f494e20746f6b656e206164647265737300005f82015250565b5f610369601e83610325565b915061037482610335565b602082019050919050565b5f6020820190508181035f8301526103968161035d565b9050919050565b610e82806103aa5f395ff3fe608060405234801561000f575f5ffd5b5060043610610109575f3560e01c80637b820b83116100a0578063cb3ebec21161006f578063cb3ebec21461025d578063ed22723a1461027b578063f1a002b114610299578063f2fde38b146102b7578063fd494d3f146102d357610109565b80637b820b83146101e75780638da5cb5b146102055780639ad97fa014610223578063ab4d819f1461023f57610109565b8063638ad71d116100dc578063638ad71d146101715780636bdc3d911461018f57806370ff852b146101ad578063715018a6146101dd57610109565b806311a1c8bd1461010d5780631934c7861461012b5780631f63000f14610149578063605ad59c14610167575b5f5ffd5b6101156102ef565b60405161012291906109ba565b60405180910390f35b6101336102f5565b60405161014091906109ba565b60405180910390f35b6101516102fb565b60405161015e91906109ed565b60405180910390f35b61016f61030e565b005b610179610318565b60405161018691906109ba565b60405180910390f35b61019761031e565b6040516101a49190610a45565b60405180910390f35b6101c760048036038101906101c29190610a8c565b610344565b6040516101d491906109ba565b60405180910390f35b6101e5610359565b005b6101ef61036c565b6040516101fc91906109ba565b60405180910390f35b61020d610372565b60405161021a9190610a45565b60405180910390f35b61023d60048036038101906102389190610ae1565b610399565b005b610247610592565b60405161025491906109ba565b60405180910390f35b610265610598565b60405161027291906109ba565b60405180910390f35b61028361059e565b60405161029091906109ba565b60405180910390f35b6102a16105a4565b6040516102ae91906109ed565b60405180910390f35b6102d160048036038101906102cc9190610a8c565b6105b6565b005b6102ed60048036038101906102e89190610b0c565b61063a565b005b60015481565b60065481565b600960019054906101000a900460ff1681565b61031661068f565b565b60045481565b600960029054906101000a900473ffffffffffffffffffffffffffffffffffffffff1681565b600a602052805f5260405f205f915090505481565b610361610853565b61036a5f6108da565b565b60025481565b5f5f5f9054906101000a900473ffffffffffffffffffffffffffffffffffffffff16905090565b6103a1610853565b5f81116103e3576040517f08c379a00000000000000000000000000000000000000000000000000000000081526004016103da90610ba4565b60405180910390fd5b5f60646032836103f39190610bef565b6103fd9190610c5d565b90505f606460058461040f9190610bef565b6104199190610c5d565b90506064600a8361042a9190610bef565b6104349190610c5d565b60015f8282546104449190610c8d565b925050819055506064600a8361045a9190610bef565b6104649190610c5d565b60025f8282546104749190610c8d565b925050819055506064600a8361048a9190610bef565b6104949190610c5d565b60035f8282546104a49190610c8d565b925050819055506064600a836104ba9190610bef565b6104c49190610c5d565b60045f8282546104d49190610c8d565b925050819055508060055f8282546104ec9190610c8d565b925050819055508060065f8282546105049190610c8d565b925050819055507fc1879f0406577975a5876a8db2ec1549e2a3194f0f01e15bde4292d6e4b368246001546002546003546004546040516105489493929190610cc0565b60405180910390a17fbbb79063c8e8bcd7691a017e4e76c5de1369686b9f0674f946b0129041525b59600554600654604051610585929190610d03565b60405180910390a1505050565b60035481565b60055481565b60075481565b60095f9054906101000a900460ff1681565b6105be610853565b5f73ffffffffffffffffffffffffffffffffffffffff168173ffffffffffffffffffffffffffffffffffffffff160361062e575f6040517f1e4fbdf70000000000000000000000000000000000000000000000000000000081526004016106259190610a45565b60405180910390fd5b610637816108da565b50565b610642610853565b7f8eaaff2ba16da1160fd06ccb389b317b1eeba725461562003201a60ae6cb9750828260045460035460025460015460405161068396959493929190610d2a565b60405180910390a15050565b5f5f90505f5f90505b73ffffffffffffffffffffffffffffffffffffffff80168173ffffffffffffffffffffffffffffffffffffffff1611610818575f600a5f8373ffffffffffffffffffffffffffffffffffffffff1673ffffffffffffffffffffffffffffffffffffffff1681526020019081526020015f205490505f811115610803575f600a5f8473ffffffffffffffffffffffffffffffffffffffff1673ffffffffffffffffffffffffffffffffffffffff1681526020019081526020015f208190555080836107629190610c8d565b9250600960029054906101000a900473ffffffffffffffffffffffffffffffffffffffff1673ffffffffffffffffffffffffffffffffffffffff1663a9059cbb83836040518363ffffffff1660e01b81526004016107c1929190610d89565b6020604051808303815f875af11580156107dd573d5f5f3e3d5ffd5b505050506040513d601f19601f820116820180604052508101906108019190610dda565b505b506001816108119190610e05565b9050610698565b507f1c1d7347d8617931af07a5a703cf35b98c6c46421a126ee0d2c204246297e7328160405161084891906109ba565b60405180910390a150565b61085b61099b565b73ffffffffffffffffffffffffffffffffffffffff16610879610372565b73ffffffffffffffffffffffffffffffffffffffff16146108d85761089c61099b565b6040517f118cdaa70000000000000000000000000000000000000000000000000000000081526004016108cf9190610a45565b60405180910390fd5b565b5f5f5f9054906101000a900473ffffffffffffffffffffffffffffffffffffffff169050815f5f6101000a81548173ffffffffffffffffffffffffffffffffffffffff021916908373ffffffffffffffffffffffffffffffffffffffff1602179055508173ffffffffffffffffffffffffffffffffffffffff168173ffffffffffffffffffffffffffffffffffffffff167f8be0079c531659141344cd1fd0a4f28419497f9722a3daafe3b4186f6b6457e060405160405180910390a35050565b5f33905090565b5f819050919050565b6109b4816109a2565b82525050565b5f6020820190506109cd5f8301846109ab565b92915050565b5f8115159050919050565b6109e7816109d3565b82525050565b5f602082019050610a005f8301846109de565b92915050565b5f73ffffffffffffffffffffffffffffffffffffffff82169050919050565b5f610a2f82610a06565b9050919050565b610a3f81610a25565b82525050565b5f602082019050610a585f830184610a36565b92915050565b5f5ffd5b610a6b81610a25565b8114610a75575f5ffd5b50565b5f81359050610a8681610a62565b92915050565b5f60208284031215610aa157610aa0610a5e565b5b5f610aae84828501610a78565b91505092915050565b610ac0816109a2565b8114610aca575f5ffd5b50565b5f81359050610adb81610ab7565b92915050565b5f60208284031215610af657610af5610a5e565b5b5f610b0384828501610acd565b91505092915050565b5f5f60408385031215610b2257610b21610a5e565b5b5f610b2f85828601610acd565b9250506020610b4085828601610acd565b9150509250929050565b5f82825260208201905092915050565b7f4e6f2070726f6669747320746f206469737472696275746500000000000000005f82015250565b5f610b8e601883610b4a565b9150610b9982610b5a565b602082019050919050565b5f6020820190508181035f830152610bbb81610b82565b9050919050565b7f4e487b71000000000000000000000000000000000000000000000000000000005f52601160045260245ffd5b5f610bf9826109a2565b9150610c04836109a2565b9250828202610c12816109a2565b91508282048414831517610c2957610c28610bc2565b5b5092915050565b7f4e487b71000000000000000000000000000000000000000000000000000000005f52601260045260245ffd5b5f610c67826109a2565b9150610c72836109a2565b925082610c8257610c81610c30565b5b828204905092915050565b5f610c97826109a2565b9150610ca2836109a2565b9250828201905080821115610cba57610cb9610bc2565b5b92915050565b5f608082019050610cd35f8301876109ab565b610ce060208301866109ab565b610ced60408301856109ab565b610cfa60608301846109ab565b95945050505050565b5f604082019050610d165f8301856109ab565b610d2360208301846109ab565b9392505050565b5f60c082019050610d3d5f8301896109ab565b610d4a60208301886109ab565b610d5760408301876109ab565b610d6460608301866109ab565b610d7160808301856109ab565b610d7e60a08301846109ab565b979650505050505050565b5f604082019050610d9c5f830185610a36565b610da960208301846109ab565b9392505050565b610db9816109d3565b8114610dc3575f5ffd5b50565b5f81519050610dd481610db0565b92915050565b5f60208284031215610def57610dee610a5e565b5b5f610dfc84828501610dc6565b91505092915050565b5f610e0f82610a06565b9150610e1a83610a06565b9250828201905073ffffffffffffffffffffffffffffffffffffffff811115610e4657610e45610bc2565b5b9291505056fea264697066735822122017962b0924ceab0cf3a13912c5b5231b318c29bd21a88d1952be44b689c603f864736f6c634300081c0033",
					"opcodes": "PUSH1 0x80 PUSH1 0x40 MSTORE PUSH1 0xA PUSH1 0x7 SSTORE PUSH0 PUSH1 0x9 PUSH0 PUSH2 0x100 EXP DUP2 SLOAD DUP2 PUSH1 0xFF MUL NOT AND SWAP1 DUP4 ISZERO ISZERO MUL OR SWAP1 SSTORE POP PUSH0 PUSH1 0x9 PUSH1 0x1 PUSH2 0x100 EXP DUP2 SLOAD DUP2 PUSH1 0xFF MUL NOT AND SWAP1 DUP4 ISZERO ISZERO MUL OR SWAP1 SSTORE POP CALLVALUE DUP1 ISZERO PUSH2 0x47 JUMPI PUSH0 PUSH0 REVERT JUMPDEST POP PUSH1 0x40 MLOAD PUSH2 0x122C CODESIZE SUB DUP1 PUSH2 0x122C DUP4 CODECOPY DUP2 DUP2 ADD PUSH1 0x40 MSTORE DUP2 ADD SWAP1 PUSH2 0x69 SWAP2 SWAP1 PUSH2 0x2BF JUMP JUMPDEST DUP2 PUSH0 PUSH20 0xFFFFFFFFFFFFFFFFFFFFFFFFFFFFFFFFFFFFFFFF AND DUP2 PUSH20 0xFFFFFFFFFFFFFFFFFFFFFFFFFFFFFFFFFFFFFFFF AND SUB PUSH2 0xDA JUMPI PUSH0 PUSH1 0x40 MLOAD PUSH32 0x1E4FBDF700000000000000000000000000000000000000000000000000000000 DUP2 MSTORE PUSH1 0x4 ADD PUSH2 0xD1 SWAP2 SWAP1 PUSH2 0x30C JUMP JUMPDEST PUSH1 0x40 MLOAD DUP1 SWAP2 SUB SWAP1 REVERT JUMPDEST PUSH2 0xE9 DUP2 PUSH2 0x1A0 PUSH1 0x20 SHL PUSH1 0x20 SHR JUMP JUMPDEST POP PUSH0 PUSH20 0xFFFFFFFFFFFFFFFFFFFFFFFFFFFFFFFFFFFFFFFF AND DUP2 PUSH20 0xFFFFFFFFFFFFFFFFFFFFFFFFFFFFFFFFFFFFFFFF AND SUB PUSH2 0x158 JUMPI PUSH1 0x40 MLOAD PUSH32 0x8C379A000000000000000000000000000000000000000000000000000000000 DUP2 MSTORE PUSH1 0x4 ADD PUSH2 0x14F SWAP1 PUSH2 0x37F JUMP JUMPDEST PUSH1 0x40 MLOAD DUP1 SWAP2 SUB SWAP1 REVERT JUMPDEST DUP1 PUSH1 0x9 PUSH1 0x2 PUSH2 0x100 EXP DUP2 SLOAD DUP2 PUSH20 0xFFFFFFFFFFFFFFFFFFFFFFFFFFFFFFFFFFFFFFFF MUL NOT AND SWAP1 DUP4 PUSH20 0xFFFFFFFFFFFFFFFFFFFFFFFFFFFFFFFFFFFFFFFF AND MUL OR SWAP1 SSTORE POP POP POP PUSH2 0x39D JUMP JUMPDEST PUSH0 PUSH0 PUSH0 SWAP1 SLOAD SWAP1 PUSH2 0x100 EXP SWAP1 DIV PUSH20 0xFFFFFFFFFFFFFFFFFFFFFFFFFFFFFFFFFFFFFFFF AND SWAP1 POP DUP2 PUSH0 PUSH0 PUSH2 0x100 EXP DUP2 SLOAD DUP2 PUSH20 0xFFFFFFFFFFFFFFFFFFFFFFFFFFFFFFFFFFFFFFFF MUL NOT AND SWAP1 DUP4 PUSH20 0xFFFFFFFFFFFFFFFFFFFFFFFFFFFFFFFFFFFFFFFF AND MUL OR SWAP1 SSTORE POP DUP2 PUSH20 0xFFFFFFFFFFFFFFFFFFFFFFFFFFFFFFFFFFFFFFFF AND DUP2 PUSH20 0xFFFFFFFFFFFFFFFFFFFFFFFFFFFFFFFFFFFFFFFF AND PUSH32 0x8BE0079C531659141344CD1FD0A4F28419497F9722A3DAAFE3B4186F6B6457E0 PUSH1 0x40 MLOAD PUSH1 0x40 MLOAD DUP1 SWAP2 SUB SWAP1 LOG3 POP POP JUMP JUMPDEST PUSH0 PUSH0 REVERT JUMPDEST PUSH0 PUSH20 0xFFFFFFFFFFFFFFFFFFFFFFFFFFFFFFFFFFFFFFFF DUP3 AND SWAP1 POP SWAP2 SWAP1 POP JUMP JUMPDEST PUSH0 PUSH2 0x28E DUP3 PUSH2 0x265 JUMP JUMPDEST SWAP1 POP SWAP2 SWAP1 POP JUMP JUMPDEST PUSH2 0x29E DUP2 PUSH2 0x284 JUMP JUMPDEST DUP2 EQ PUSH2 0x2A8 JUMPI PUSH0 PUSH0 REVERT JUMPDEST POP JUMP JUMPDEST PUSH0 DUP2 MLOAD SWAP1 POP PUSH2 0x2B9 DUP2 PUSH2 0x295 JUMP JUMPDEST SWAP3 SWAP2 POP POP JUMP JUMPDEST PUSH0 PUSH0 PUSH1 0x40 DUP4 DUP6 SUB SLT ISZERO PUSH2 0x2D5 JUMPI PUSH2 0x2D4 PUSH2 0x261 JUMP JUMPDEST JUMPDEST PUSH0 PUSH2 0x2E2 DUP6 DUP3 DUP7 ADD PUSH2 0x2AB JUMP JUMPDEST SWAP3 POP POP PUSH1 0x20 PUSH2 0x2F3 DUP6 DUP3 DUP7 ADD PUSH2 0x2AB JUMP JUMPDEST SWAP2 POP POP SWAP3 POP SWAP3 SWAP1 POP JUMP JUMPDEST PUSH2 0x306 DUP2 PUSH2 0x284 JUMP JUMPDEST DUP3 MSTORE POP POP JUMP JUMPDEST PUSH0 PUSH1 0x20 DUP3 ADD SWAP1 POP PUSH2 0x31F PUSH0 DUP4 ADD DUP5 PUSH2 0x2FD JUMP JUMPDEST SWAP3 SWAP2 POP POP JUMP JUMPDEST PUSH0 DUP3 DUP3 MSTORE PUSH1 0x20 DUP3 ADD SWAP1 POP SWAP3 SWAP2 POP POP JUMP JUMPDEST PUSH32 0x496E76616C6964204E415349434F494E20746F6B656E20616464726573730000 PUSH0 DUP3 ADD MSTORE POP JUMP JUMPDEST PUSH0 PUSH2 0x369 PUSH1 0x1E DUP4 PUSH2 0x325 JUMP JUMPDEST SWAP2 POP PUSH2 0x374 DUP3 PUSH2 0x335 JUMP JUMPDEST PUSH1 0x20 DUP3 ADD SWAP1 POP SWAP2 SWAP1 POP JUMP JUMPDEST PUSH0 PUSH1 0x20 DUP3 ADD SWAP1 POP DUP2 DUP2 SUB PUSH0 DUP4 ADD MSTORE PUSH2 0x396 DUP2 PUSH2 0x35D JUMP JUMPDEST SWAP1 POP SWAP2 SWAP1 POP JUMP JUMPDEST PUSH2 0xE82 DUP1 PUSH2 0x3AA PUSH0 CODECOPY PUSH0 RETURN INVALID PUSH1 0x80 PUSH1 0x40 MSTORE CALLVALUE DUP1 ISZERO PUSH2 0xF JUMPI PUSH0 PUSH0 REVERT JUMPDEST POP PUSH1 0x4 CALLDATASIZE LT PUSH2 0x109 JUMPI PUSH0 CALLDATALOAD PUSH1 0xE0 SHR DUP1 PUSH4 0x7B820B83 GT PUSH2 0xA0 JUMPI DUP1 PUSH4 0xCB3EBEC2 GT PUSH2 0x6F JUMPI DUP1 PUSH4 0xCB3EBEC2 EQ PUSH2 0x25D JUMPI DUP1 PUSH4 0xED22723A EQ PUSH2 0x27B JUMPI DUP1 PUSH4 0xF1A002B1 EQ PUSH2 0x299 JUMPI DUP1 PUSH4 0xF2FDE38B EQ PUSH2 0x2B7 JUMPI DUP1 PUSH4 0xFD494D3F EQ PUSH2 0x2D3 JUMPI PUSH2 0x109 JUMP JUMPDEST DUP1 PUSH4 0x7B820B83 EQ PUSH2 0x1E7 JUMPI DUP1 PUSH4 0x8DA5CB5B EQ PUSH2 0x205 JUMPI DUP1 PUSH4 0x9AD97FA0 EQ PUSH2 0x223 JUMPI DUP1 PUSH4 0xAB4D819F EQ PUSH2 0x23F JUMPI PUSH2 0x109 JUMP JUMPDEST DUP1 PUSH4 0x638AD71D GT PUSH2 0xDC JUMPI DUP1 PUSH4 0x638AD71D EQ PUSH2 0x171 JUMPI DUP1 PUSH4 0x6BDC3D91 EQ PUSH2 0x18F JUMPI DUP1 PUSH4 0x70FF852B EQ PUSH2 0x1AD JUMPI DUP1 PUSH4 0x715018A6 EQ PUSH2 0x1DD JUMPI PUSH2 0x109 JUMP JUMPDEST DUP1 PUSH4 0x11A1C8BD EQ PUSH2 0x10D JUMPI DUP1 PUSH4 0x1934C786 EQ PUSH2 0x12B JUMPI DUP1 PUSH4 0x1F63000F EQ PUSH2 0x149 JUMPI DUP1 PUSH4 0x605AD59C EQ PUSH2 0x167 JUMPI JUMPDEST PUSH0 PUSH0 REVERT JUMPDEST PUSH2 0x115 PUSH2 0x2EF JUMP JUMPDEST PUSH1 0x40 MLOAD PUSH2 0x122 SWAP2 SWAP1 PUSH2 0x9BA JUMP JUMPDEST PUSH1 0x40 MLOAD DUP1 SWAP2 SUB SWAP1 RETURN JUMPDEST PUSH2 0x133 PUSH2 0x2F5 JUMP JUMPDEST PUSH1 0x40 MLOAD PUSH2 0x140 SWAP2 SWAP1 PUSH2 0x9BA JUMP JUMPDEST PUSH1 0x40 MLOAD DUP1 SWAP2 SUB SWAP1 RETURN JUMPDEST PUSH2 0x151 PUSH2 0x2FB JUMP JUMPDEST PUSH1 0x40 MLOAD PUSH2 0x15E SWAP2 SWAP1 PUSH2 0x9ED JUMP JUMPDEST PUSH1 0x40 MLOAD DUP1 SWAP2 SUB SWAP1 RETURN JUMPDEST PUSH2 0x16F PUSH2 0x30E JUMP JUMPDEST STOP JUMPDEST PUSH2 0x179 PUSH2 0x318 JUMP JUMPDEST PUSH1 0x40 MLOAD PUSH2 0x186 SWAP2 SWAP1 PUSH2 0x9BA JUMP JUMPDEST PUSH1 0x40 MLOAD DUP1 SWAP2 SUB SWAP1 RETURN JUMPDEST PUSH2 0x197 PUSH2 0x31E JUMP JUMPDEST PUSH1 0x40 MLOAD PUSH2 0x1A4 SWAP2 SWAP1 PUSH2 0xA45 JUMP JUMPDEST PUSH1 0x40 MLOAD DUP1 SWAP2 SUB SWAP1 RETURN JUMPDEST PUSH2 0x1C7 PUSH1 0x4 DUP1 CALLDATASIZE SUB DUP2 ADD SWAP1 PUSH2 0x1C2 SWAP2 SWAP1 PUSH2 0xA8C JUMP JUMPDEST PUSH2 0x344 JUMP JUMPDEST PUSH1 0x40 MLOAD PUSH2 0x1D4 SWAP2 SWAP1 PUSH2 0x9BA JUMP JUMPDEST PUSH1 0x40 MLOAD DUP1 SWAP2 SUB SWAP1 RETURN JUMPDEST PUSH2 0x1E5 PUSH2 0x359 JUMP JUMPDEST STOP JUMPDEST PUSH2 0x1EF PUSH2 0x36C JUMP JUMPDEST PUSH1 0x40 MLOAD PUSH2 0x1FC SWAP2 SWAP1 PUSH2 0x9BA JUMP JUMPDEST PUSH1 0x40 MLOAD DUP1 SWAP2 SUB SWAP1 RETURN JUMPDEST PUSH2 0x20D PUSH2 0x372 JUMP JUMPDEST PUSH1 0x40 MLOAD PUSH2 0x21A SWAP2 SWAP1 PUSH2 0xA45 JUMP JUMPDEST PUSH1 0x40 MLOAD DUP1 SWAP2 SUB SWAP1 RETURN JUMPDEST PUSH2 0x23D PUSH1 0x4 DUP1 CALLDATASIZE SUB DUP2 ADD SWAP1 PUSH2 0x238 SWAP2 SWAP1 PUSH2 0xAE1 JUMP JUMPDEST PUSH2 0x399 JUMP JUMPDEST STOP JUMPDEST PUSH2 0x247 PUSH2 0x592 JUMP JUMPDEST PUSH1 0x40 MLOAD PUSH2 0x254 SWAP2 SWAP1 PUSH2 0x9BA JUMP JUMPDEST PUSH1 0x40 MLOAD DUP1 SWAP2 SUB SWAP1 RETURN JUMPDEST PUSH2 0x265 PUSH2 0x598 JUMP JUMPDEST PUSH1 0x40 MLOAD PUSH2 0x272 SWAP2 SWAP1 PUSH2 0x9BA JUMP JUMPDEST PUSH1 0x40 MLOAD DUP1 SWAP2 SUB SWAP1 RETURN JUMPDEST PUSH2 0x283 PUSH2 0x59E JUMP JUMPDEST PUSH1 0x40 MLOAD PUSH2 0x290 SWAP2 SWAP1 PUSH2 0x9BA JUMP JUMPDEST PUSH1 0x40 MLOAD DUP1 SWAP2 SUB SWAP1 RETURN JUMPDEST PUSH2 0x2A1 PUSH2 0x5A4 JUMP JUMPDEST PUSH1 0x40 MLOAD PUSH2 0x2AE SWAP2 SWAP1 PUSH2 0x9ED JUMP JUMPDEST PUSH1 0x40 MLOAD DUP1 SWAP2 SUB SWAP1 RETURN JUMPDEST PUSH2 0x2D1 PUSH1 0x4 DUP1 CALLDATASIZE SUB DUP2 ADD SWAP1 PUSH2 0x2CC SWAP2 SWAP1 PUSH2 0xA8C JUMP JUMPDEST PUSH2 0x5B6 JUMP JUMPDEST STOP JUMPDEST PUSH2 0x2ED PUSH1 0x4 DUP1 CALLDATASIZE SUB DUP2 ADD SWAP1 PUSH2 0x2E8 SWAP2 SWAP1 PUSH2 0xB0C JUMP JUMPDEST PUSH2 0x63A JUMP JUMPDEST STOP JUMPDEST PUSH1 0x1 SLOAD DUP2 JUMP JUMPDEST PUSH1 0x6 SLOAD DUP2 JUMP JUMPDEST PUSH1 0x9 PUSH1 0x1 SWAP1 SLOAD SWAP1 PUSH2 0x100 EXP SWAP1 DIV PUSH1 0xFF AND DUP2 JUMP JUMPDEST PUSH2 0x316 PUSH2 0x68F JUMP JUMPDEST JUMP JUMPDEST PUSH1 0x4 SLOAD DUP2 JUMP JUMPDEST PUSH1 0x9 PUSH1 0x2 SWAP1 SLOAD SWAP1 PUSH2 0x100 EXP SWAP1 DIV PUSH20 0xFFFFFFFFFFFFFFFFFFFFFFFFFFFFFFFFFFFFFFFF AND DUP2 JUMP JUMPDEST PUSH1 0xA PUSH1 0x20 MSTORE DUP1 PUSH0 MSTORE PUSH1 0x40 PUSH0 KECCAK256 PUSH0 SWAP2 POP SWAP1 POP SLOAD DUP2 JUMP JUMPDEST PUSH2 0x361 PUSH2 0x853 JUMP JUMPDEST PUSH2 0x36A PUSH0 PUSH2 0x8DA JUMP JUMPDEST JUMP JUMPDEST PUSH1 0x2 SLOAD DUP2 JUMP JUMPDEST PUSH0 PUSH0 PUSH0 SWAP1 SLOAD SWAP1 PUSH2 0x100 EXP SWAP1 DIV PUSH20 0xFFFFFFFFFFFFFFFFFFFFFFFFFFFFFFFFFFFFFFFF AND SWAP1 POP SWAP1 JUMP JUMPDEST PUSH2 0x3A1 PUSH2 0x853 JUMP JUMPDEST PUSH0 DUP2 GT PUSH2 0x3E3 JUMPI PUSH1 0x40 MLOAD PUSH32 0x8C379A000000000000000000000000000000000000000000000000000000000 DUP2 MSTORE PUSH1 0x4 ADD PUSH2 0x3DA SWAP1 PUSH2 0xBA4 JUMP JUMPDEST PUSH1 0x40 MLOAD DUP1 SWAP2 SUB SWAP1 REVERT JUMPDEST PUSH0 PUSH1 0x64 PUSH1 0x32 DUP4 PUSH2 0x3F3 SWAP2 SWAP1 PUSH2 0xBEF JUMP JUMPDEST PUSH2 0x3FD SWAP2 SWAP1 PUSH2 0xC5D JUMP JUMPDEST SWAP1 POP PUSH0 PUSH1 0x64 PUSH1 0x5 DUP5 PUSH2 0x40F SWAP2 SWAP1 PUSH2 0xBEF JUMP JUMPDEST PUSH2 0x419 SWAP2 SWAP1 PUSH2 0xC5D JUMP JUMPDEST SWAP1 POP PUSH1 0x64 PUSH1 0xA DUP4 PUSH2 0x42A SWAP2 SWAP1 PUSH2 0xBEF JUMP JUMPDEST PUSH2 0x434 SWAP2 SWAP1 PUSH2 0xC5D JUMP JUMPDEST PUSH1 0x1 PUSH0 DUP3 DUP3 SLOAD PUSH2 0x444 SWAP2 SWAP1 PUSH2 0xC8D JUMP JUMPDEST SWAP3 POP POP DUP2 SWAP1 SSTORE POP PUSH1 0x64 PUSH1 0xA DUP4 PUSH2 0x45A SWAP2 SWAP1 PUSH2 0xBEF JUMP JUMPDEST PUSH2 0x464 SWAP2 SWAP1 PUSH2 0xC5D JUMP JUMPDEST PUSH1 0x2 PUSH0 DUP3 DUP3 SLOAD PUSH2 0x474 SWAP2 SWAP1 PUSH2 0xC8D JUMP JUMPDEST SWAP3 POP POP DUP2 SWAP1 SSTORE POP PUSH1 0x64 PUSH1 0xA DUP4 PUSH2 0x48A SWAP2 SWAP1 PUSH2 0xBEF JUMP JUMPDEST PUSH2 0x494 SWAP2 SWAP1 PUSH2 0xC5D JUMP JUMPDEST PUSH1 0x3 PUSH0 DUP3 DUP3 SLOAD PUSH2 0x4A4 SWAP2 SWAP1 PUSH2 0xC8D JUMP JUMPDEST SWAP3 POP POP DUP2 SWAP1 SSTORE POP PUSH1 0x64 PUSH1 0xA DUP4 PUSH2 0x4BA SWAP2 SWAP1 PUSH2 0xBEF JUMP JUMPDEST PUSH2 0x4C4 SWAP2 SWAP1 PUSH2 0xC5D JUMP JUMPDEST PUSH1 0x4 PUSH0 DUP3 DUP3 SLOAD PUSH2 0x4D4 SWAP2 SWAP1 PUSH2 0xC8D JUMP JUMPDEST SWAP3 POP POP DUP2 SWAP1 SSTORE POP DUP1 PUSH1 0x5 PUSH0 DUP3 DUP3 SLOAD PUSH2 0x4EC SWAP2 SWAP1 PUSH2 0xC8D JUMP JUMPDEST SWAP3 POP POP DUP2 SWAP1 SSTORE POP DUP1 PUSH1 0x6 PUSH0 DUP3 DUP3 SLOAD PUSH2 0x504 SWAP2 SWAP1 PUSH2 0xC8D JUMP JUMPDEST SWAP3 POP POP DUP2 SWAP1 SSTORE POP PUSH32 0xC1879F0406577975A5876A8DB2EC1549E2A3194F0F01E15BDE4292D6E4B36824 PUSH1 0x1 SLOAD PUSH1 0x2 SLOAD PUSH1 0x3 SLOAD PUSH1 0x4 SLOAD PUSH1 0x40 MLOAD PUSH2 0x548 SWAP5 SWAP4 SWAP3 SWAP2 SWAP1 PUSH2 0xCC0 JUMP JUMPDEST PUSH1 0x40 MLOAD DUP1 SWAP2 SUB SWAP1 LOG1 PUSH32 0xBBB79063C8E8BCD7691A017E4E76C5DE1369686B9F0674F946B0129041525B59 PUSH1 0x5 SLOAD PUSH1 0x6 SLOAD PUSH1 0x40 MLOAD PUSH2 0x585 SWAP3 SWAP2 SWAP1 PUSH2 0xD03 JUMP JUMPDEST PUSH1 0x40 MLOAD DUP1 SWAP2 SUB SWAP1 LOG1 POP POP POP JUMP JUMPDEST PUSH1 0x3 SLOAD DUP2 JUMP JUMPDEST PUSH1 0x5 SLOAD DUP2 JUMP JUMPDEST PUSH1 0x7 SLOAD DUP2 JUMP JUMPDEST PUSH1 0x9 PUSH0 SWAP1 SLOAD SWAP1 PUSH2 0x100 EXP SWAP1 DIV PUSH1 0xFF AND DUP2 JUMP JUMPDEST PUSH2 0x5BE PUSH2 0x853 JUMP JUMPDEST PUSH0 PUSH20 0xFFFFFFFFFFFFFFFFFFFFFFFFFFFFFFFFFFFFFFFF AND DUP2 PUSH20 0xFFFFFFFFFFFFFFFFFFFFFFFFFFFFFFFFFFFFFFFF AND SUB PUSH2 0x62E JUMPI PUSH0 PUSH1 0x40 MLOAD PUSH32 0x1E4FBDF700000000000000000000000000000000000000000000000000000000 DUP2 MSTORE PUSH1 0x4 ADD PUSH2 0x625 SWAP2 SWAP1 PUSH2 0xA45 JUMP JUMPDEST PUSH1 0x40 MLOAD DUP1 SWAP2 SUB SWAP1 REVERT JUMPDEST PUSH2 0x637 DUP2 PUSH2 0x8DA JUMP JUMPDEST POP JUMP JUMPDEST PUSH2 0x642 PUSH2 0x853 JUMP JUMPDEST PUSH32 0x8EAAFF2BA16DA1160FD06CCB389B317B1EEBA725461562003201A60AE6CB9750 DUP3 DUP3 PUSH1 0x4 SLOAD PUSH1 0x3 SLOAD PUSH1 0x2 SLOAD PUSH1 0x1 SLOAD PUSH1 0x40 MLOAD PUSH2 0x683 SWAP7 SWAP6 SWAP5 SWAP4 SWAP3 SWAP2 SWAP1 PUSH2 0xD2A JUMP JUMPDEST PUSH1 0x40 MLOAD DUP1 SWAP2 SUB SWAP1 LOG1 POP POP JUMP JUMPDEST PUSH0 PUSH0 SWAP1 POP PUSH0 PUSH0 SWAP1 POP JUMPDEST PUSH20 0xFFFFFFFFFFFFFFFFFFFFFFFFFFFFFFFFFFFFFFFF DUP1 AND DUP2 PUSH20 0xFFFFFFFFFFFFFFFFFFFFFFFFFFFFFFFFFFFFFFFF AND GT PUSH2 0x818 JUMPI PUSH0 PUSH1 0xA PUSH0 DUP4 PUSH20 0xFFFFFFFFFFFFFFFFFFFFFFFFFFFFFFFFFFFFFFFF AND PUSH20 0xFFFFFFFFFFFFFFFFFFFFFFFFFFFFFFFFFFFFFFFF AND DUP2 MSTORE PUSH1 0x20 ADD SWAP1 DUP2 MSTORE PUSH1 0x20 ADD PUSH0 KECCAK256 SLOAD SWAP1 POP PUSH0 DUP2 GT ISZERO PUSH2 0x803 JUMPI PUSH0 PUSH1 0xA PUSH0 DUP5 PUSH20 0xFFFFFFFFFFFFFFFFFFFFFFFFFFFFFFFFFFFFFFFF AND PUSH20 0xFFFFFFFFFFFFFFFFFFFFFFFFFFFFFFFFFFFFFFFF AND DUP2 MSTORE PUSH1 0x20 ADD SWAP1 DUP2 MSTORE PUSH1 0x20 ADD PUSH0 KECCAK256 DUP2 SWAP1 SSTORE POP DUP1 DUP4 PUSH2 0x762 SWAP2 SWAP1 PUSH2 0xC8D JUMP JUMPDEST SWAP3 POP PUSH1 0x9 PUSH1 0x2 SWAP1 SLOAD SWAP1 PUSH2 0x100 EXP SWAP1 DIV PUSH20 0xFFFFFFFFFFFFFFFFFFFFFFFFFFFFFFFFFFFFFFFF AND PUSH20 0xFFFFFFFFFFFFFFFFFFFFFFFFFFFFFFFFFFFFFFFF AND PUSH4 0xA9059CBB DUP4 DUP4 PUSH1 0x40 MLOAD DUP4 PUSH4 0xFFFFFFFF AND PUSH1 0xE0 SHL DUP2 MSTORE PUSH1 0x4 ADD PUSH2 0x7C1 SWAP3 SWAP2 SWAP1 PUSH2 0xD89 JUMP JUMPDEST PUSH1 0x20 PUSH1 0x40 MLOAD DUP1 DUP4 SUB DUP2 PUSH0 DUP8 GAS CALL ISZERO DUP1 ISZERO PUSH2 0x7DD JUMPI RETURNDATASIZE PUSH0 PUSH0 RETURNDATACOPY RETURNDATASIZE PUSH0 REVERT JUMPDEST POP POP POP POP PUSH1 0x40 MLOAD RETURNDATASIZE PUSH1 0x1F NOT PUSH1 0x1F DUP3 ADD AND DUP3 ADD DUP1 PUSH1 0x40 MSTORE POP DUP2 ADD SWAP1 PUSH2 0x801 SWAP2 SWAP1 PUSH2 0xDDA JUMP JUMPDEST POP JUMPDEST POP PUSH1 0x1 DUP2 PUSH2 0x811 SWAP2 SWAP1 PUSH2 0xE05 JUMP JUMPDEST SWAP1 POP PUSH2 0x698 JUMP JUMPDEST POP PUSH32 0x1C1D7347D8617931AF07A5A703CF35B98C6C46421A126EE0D2C204246297E732 DUP2 PUSH1 0x40 MLOAD PUSH2 0x848 SWAP2 SWAP1 PUSH2 0x9BA JUMP JUMPDEST PUSH1 0x40 MLOAD DUP1 SWAP2 SUB SWAP1 LOG1 POP JUMP JUMPDEST PUSH2 0x85B PUSH2 0x99B JUMP JUMPDEST PUSH20 0xFFFFFFFFFFFFFFFFFFFFFFFFFFFFFFFFFFFFFFFF AND PUSH2 0x879 PUSH2 0x372 JUMP JUMPDEST PUSH20 0xFFFFFFFFFFFFFFFFFFFFFFFFFFFFFFFFFFFFFFFF AND EQ PUSH2 0x8D8 JUMPI PUSH2 0x89C PUSH2 0x99B JUMP JUMPDEST PUSH1 0x40 MLOAD PUSH32 0x118CDAA700000000000000000000000000000000000000000000000000000000 DUP2 MSTORE PUSH1 0x4 ADD PUSH2 0x8CF SWAP2 SWAP1 PUSH2 0xA45 JUMP JUMPDEST PUSH1 0x40 MLOAD DUP1 SWAP2 SUB SWAP1 REVERT JUMPDEST JUMP JUMPDEST PUSH0 PUSH0 PUSH0 SWAP1 SLOAD SWAP1 PUSH2 0x100 EXP SWAP1 DIV PUSH20 0xFFFFFFFFFFFFFFFFFFFFFFFFFFFFFFFFFFFFFFFF AND SWAP1 POP DUP2 PUSH0 PUSH0 PUSH2 0x100 EXP DUP2 SLOAD DUP2 PUSH20 0xFFFFFFFFFFFFFFFFFFFFFFFFFFFFFFFFFFFFFFFF MUL NOT AND SWAP1 DUP4 PUSH20 0xFFFFFFFFFFFFFFFFFFFFFFFFFFFFFFFFFFFFFFFF AND MUL OR SWAP1 SSTORE POP DUP2 PUSH20 0xFFFFFFFFFFFFFFFFFFFFFFFFFFFFFFFFFFFFFFFF AND DUP2 PUSH20 0xFFFFFFFFFFFFFFFFFFFFFFFFFFFFFFFFFFFFFFFF AND PUSH32 0x8BE0079C531659141344CD1FD0A4F28419497F9722A3DAAFE3B4186F6B6457E0 PUSH1 0x40 MLOAD PUSH1 0x40 MLOAD DUP1 SWAP2 SUB SWAP1 LOG3 POP POP JUMP JUMPDEST PUSH0 CALLER SWAP1 POP SWAP1 JUMP JUMPDEST PUSH0 DUP2 SWAP1 POP SWAP2 SWAP1 POP JUMP JUMPDEST PUSH2 0x9B4 DUP2 PUSH2 0x9A2 JUMP JUMPDEST DUP3 MSTORE POP POP JUMP JUMPDEST PUSH0 PUSH1 0x20 DUP3 ADD SWAP1 POP PUSH2 0x9CD PUSH0 DUP4 ADD DUP5 PUSH2 0x9AB JUMP JUMPDEST SWAP3 SWAP2 POP POP JUMP JUMPDEST PUSH0 DUP2 ISZERO ISZERO SWAP1 POP SWAP2 SWAP1 POP JUMP JUMPDEST PUSH2 0x9E7 DUP2 PUSH2 0x9D3 JUMP JUMPDEST DUP3 MSTORE POP POP JUMP JUMPDEST PUSH0 PUSH1 0x20 DUP3 ADD SWAP1 POP PUSH2 0xA00 PUSH0 DUP4 ADD DUP5 PUSH2 0x9DE JUMP JUMPDEST SWAP3 SWAP2 POP POP JUMP JUMPDEST PUSH0 PUSH20 0xFFFFFFFFFFFFFFFFFFFFFFFFFFFFFFFFFFFFFFFF DUP3 AND SWAP1 POP SWAP2 SWAP1 POP JUMP JUMPDEST PUSH0 PUSH2 0xA2F DUP3 PUSH2 0xA06 JUMP JUMPDEST SWAP1 POP SWAP2 SWAP1 POP JUMP JUMPDEST PUSH2 0xA3F DUP2 PUSH2 0xA25 JUMP JUMPDEST DUP3 MSTORE POP POP JUMP JUMPDEST PUSH0 PUSH1 0x20 DUP3 ADD SWAP1 POP PUSH2 0xA58 PUSH0 DUP4 ADD DUP5 PUSH2 0xA36 JUMP JUMPDEST SWAP3 SWAP2 POP POP JUMP JUMPDEST PUSH0 PUSH0 REVERT JUMPDEST PUSH2 0xA6B DUP2 PUSH2 0xA25 JUMP JUMPDEST DUP2 EQ PUSH2 0xA75 JUMPI PUSH0 PUSH0 REVERT JUMPDEST POP JUMP JUMPDEST PUSH0 DUP2 CALLDATALOAD SWAP1 POP PUSH2 0xA86 DUP2 PUSH2 0xA62 JUMP JUMPDEST SWAP3 SWAP2 POP POP JUMP JUMPDEST PUSH0 PUSH1 0x20 DUP3 DUP5 SUB SLT ISZERO PUSH2 0xAA1 JUMPI PUSH2 0xAA0 PUSH2 0xA5E JUMP JUMPDEST JUMPDEST PUSH0 PUSH2 0xAAE DUP5 DUP3 DUP6 ADD PUSH2 0xA78 JUMP JUMPDEST SWAP2 POP POP SWAP3 SWAP2 POP POP JUMP JUMPDEST PUSH2 0xAC0 DUP2 PUSH2 0x9A2 JUMP JUMPDEST DUP2 EQ PUSH2 0xACA JUMPI PUSH0 PUSH0 REVERT JUMPDEST POP JUMP JUMPDEST PUSH0 DUP2 CALLDATALOAD SWAP1 POP PUSH2 0xADB DUP2 PUSH2 0xAB7 JUMP JUMPDEST SWAP3 SWAP2 POP POP JUMP JUMPDEST PUSH0 PUSH1 0x20 DUP3 DUP5 SUB SLT ISZERO PUSH2 0xAF6 JUMPI PUSH2 0xAF5 PUSH2 0xA5E JUMP JUMPDEST JUMPDEST PUSH0 PUSH2 0xB03 DUP5 DUP3 DUP6 ADD PUSH2 0xACD JUMP JUMPDEST SWAP2 POP POP SWAP3 SWAP2 POP POP JUMP JUMPDEST PUSH0 PUSH0 PUSH1 0x40 DUP4 DUP6 SUB SLT ISZERO PUSH2 0xB22 JUMPI PUSH2 0xB21 PUSH2 0xA5E JUMP JUMPDEST JUMPDEST PUSH0 PUSH2 0xB2F DUP6 DUP3 DUP7 ADD PUSH2 0xACD JUMP JUMPDEST SWAP3 POP POP PUSH1 0x20 PUSH2 0xB40 DUP6 DUP3 DUP7 ADD PUSH2 0xACD JUMP JUMPDEST SWAP2 POP POP SWAP3 POP SWAP3 SWAP1 POP JUMP JUMPDEST PUSH0 DUP3 DUP3 MSTORE PUSH1 0x20 DUP3 ADD SWAP1 POP SWAP3 SWAP2 POP POP JUMP JUMPDEST PUSH32 0x4E6F2070726F6669747320746F20646973747269627574650000000000000000 PUSH0 DUP3 ADD MSTORE POP JUMP JUMPDEST PUSH0 PUSH2 0xB8E PUSH1 0x18 DUP4 PUSH2 0xB4A JUMP JUMPDEST SWAP2 POP PUSH2 0xB99 DUP3 PUSH2 0xB5A JUMP JUMPDEST PUSH1 0x20 DUP3 ADD SWAP1 POP SWAP2 SWAP1 POP JUMP JUMPDEST PUSH0 PUSH1 0x20 DUP3 ADD SWAP1 POP DUP2 DUP2 SUB PUSH0 DUP4 ADD MSTORE PUSH2 0xBBB DUP2 PUSH2 0xB82 JUMP JUMPDEST SWAP1 POP SWAP2 SWAP1 POP JUMP JUMPDEST PUSH32 0x4E487B7100000000000000000000000000000000000000000000000000000000 PUSH0 MSTORE PUSH1 0x11 PUSH1 0x4 MSTORE PUSH1 0x24 PUSH0 REVERT JUMPDEST PUSH0 PUSH2 0xBF9 DUP3 PUSH2 0x9A2 JUMP JUMPDEST SWAP2 POP PUSH2 0xC04 DUP4 PUSH2 0x9A2 JUMP JUMPDEST SWAP3 POP DUP3 DUP3 MUL PUSH2 0xC12 DUP2 PUSH2 0x9A2 JUMP JUMPDEST SWAP2 POP DUP3 DUP3 DIV DUP5 EQ DUP4 ISZERO OR PUSH2 0xC29 JUMPI PUSH2 0xC28 PUSH2 0xBC2 JUMP JUMPDEST JUMPDEST POP SWAP3 SWAP2 POP POP JUMP JUMPDEST PUSH32 0x4E487B7100000000000000000000000000000000000000000000000000000000 PUSH0 MSTORE PUSH1 0x12 PUSH1 0x4 MSTORE PUSH1 0x24 PUSH0 REVERT JUMPDEST PUSH0 PUSH2 0xC67 DUP3 PUSH2 0x9A2 JUMP JUMPDEST SWAP2 POP PUSH2 0xC72 DUP4 PUSH2 0x9A2 JUMP JUMPDEST SWAP3 POP DUP3 PUSH2 0xC82 JUMPI PUSH2 0xC81 PUSH2 0xC30 JUMP JUMPDEST JUMPDEST DUP3 DUP3 DIV SWAP1 POP SWAP3 SWAP2 POP POP JUMP JUMPDEST PUSH0 PUSH2 0xC97 DUP3 PUSH2 0x9A2 JUMP JUMPDEST SWAP2 POP PUSH2 0xCA2 DUP4 PUSH2 0x9A2 JUMP JUMPDEST SWAP3 POP DUP3 DUP3 ADD SWAP1 POP DUP1 DUP3 GT ISZERO PUSH2 0xCBA JUMPI PUSH2 0xCB9 PUSH2 0xBC2 JUMP JUMPDEST JUMPDEST SWAP3 SWAP2 POP POP JUMP JUMPDEST PUSH0 PUSH1 0x80 DUP3 ADD SWAP1 POP PUSH2 0xCD3 PUSH0 DUP4 ADD DUP8 PUSH2 0x9AB JUMP JUMPDEST PUSH2 0xCE0 PUSH1 0x20 DUP4 ADD DUP7 PUSH2 0x9AB JUMP JUMPDEST PUSH2 0xCED PUSH1 0x40 DUP4 ADD DUP6 PUSH2 0x9AB JUMP JUMPDEST PUSH2 0xCFA PUSH1 0x60 DUP4 ADD DUP5 PUSH2 0x9AB JUMP JUMPDEST SWAP6 SWAP5 POP POP POP POP POP JUMP JUMPDEST PUSH0 PUSH1 0x40 DUP3 ADD SWAP1 POP PUSH2 0xD16 PUSH0 DUP4 ADD DUP6 PUSH2 0x9AB JUMP JUMPDEST PUSH2 0xD23 PUSH1 0x20 DUP4 ADD DUP5 PUSH2 0x9AB JUMP JUMPDEST SWAP4 SWAP3 POP POP POP JUMP JUMPDEST PUSH0 PUSH1 0xC0 DUP3 ADD SWAP1 POP PUSH2 0xD3D PUSH0 DUP4 ADD DUP10 PUSH2 0x9AB JUMP JUMPDEST PUSH2 0xD4A PUSH1 0x20 DUP4 ADD DUP9 PUSH2 0x9AB JUMP JUMPDEST PUSH2 0xD57 PUSH1 0x40 DUP4 ADD DUP8 PUSH2 0x9AB JUMP JUMPDEST PUSH2 0xD64 PUSH1 0x60 DUP4 ADD DUP7 PUSH2 0x9AB JUMP JUMPDEST PUSH2 0xD71 PUSH1 0x80 DUP4 ADD DUP6 PUSH2 0x9AB JUMP JUMPDEST PUSH2 0xD7E PUSH1 0xA0 DUP4 ADD DUP5 PUSH2 0x9AB JUMP JUMPDEST SWAP8 SWAP7 POP POP POP POP POP POP POP JUMP JUMPDEST PUSH0 PUSH1 0x40 DUP3 ADD SWAP1 POP PUSH2 0xD9C PUSH0 DUP4 ADD DUP6 PUSH2 0xA36 JUMP JUMPDEST PUSH2 0xDA9 PUSH1 0x20 DUP4 ADD DUP5 PUSH2 0x9AB JUMP JUMPDEST SWAP4 SWAP3 POP POP POP JUMP JUMPDEST PUSH2 0xDB9 DUP2 PUSH2 0x9D3 JUMP JUMPDEST DUP2 EQ PUSH2 0xDC3 JUMPI PUSH0 PUSH0 REVERT JUMPDEST POP JUMP JUMPDEST PUSH0 DUP2 MLOAD SWAP1 POP PUSH2 0xDD4 DUP2 PUSH2 0xDB0 JUMP JUMPDEST SWAP3 SWAP2 POP POP JUMP JUMPDEST PUSH0 PUSH1 0x20 DUP3 DUP5 SUB SLT ISZERO PUSH2 0xDEF JUMPI PUSH2 0xDEE PUSH2 0xA5E JUMP JUMPDEST JUMPDEST PUSH0 PUSH2 0xDFC DUP5 DUP3 DUP6 ADD PUSH2 0xDC6 JUMP JUMPDEST SWAP2 POP POP SWAP3 SWAP2 POP POP JUMP JUMPDEST PUSH0 PUSH2 0xE0F DUP3 PUSH2 0xA06 JUMP JUMPDEST SWAP2 POP PUSH2 0xE1A DUP4 PUSH2 0xA06 JUMP JUMPDEST SWAP3 POP DUP3 DUP3 ADD SWAP1 POP PUSH20 0xFFFFFFFFFFFFFFFFFFFFFFFFFFFFFFFFFFFFFFFF DUP2 GT ISZERO PUSH2 0xE46 JUMPI PUSH2 0xE45 PUSH2 0xBC2 JUMP JUMPDEST JUMPDEST SWAP3 SWAP2 POP POP JUMP INVALID LOG2 PUSH5 0x6970667358 0x22 SLT KECCAK256 OR SWAP7 0x2B MULMOD 0x24 0xCE 0xAB 0xC RETURN LOG1 CODECOPY SLT 0xC5 0xB5 0x23 SHL BALANCE DUP13 0x29 0xBD 0x21 0xA8 DUP14 NOT MSTORE 0xBE PREVRANDAO 0xB6 DUP10 0xC6 SUB 0xF8 PUSH5 0x736F6C6343 STOP ADDMOD SHR STOP CALLER "
				},
				"gasEstimates": {
					"creation": {
						"codeDepositCost": "742800",
						"executionCost": "infinite",
						"totalCost": "infinite"
					},
					"external": {
						"developerDividend()": "2471",
						"distributeDeveloperDividends()": "2585",
						"distributeOwnerDividends()": "2532",
						"emitWeeklyReport(uint256,uint256)": "infinite",
						"highPrize()": "2448",
						"lowPrize()": "2448",
						"middlePrize()": "2514",
						"nasicoinToken()": "2604",
						"owner()": "2559",
						"ownerDividend()": "2447",
						"prepareForPrizeDraw()": "infinite",
						"prizeScale()": "2469",
						"releasedTokens(address)": "2869",
						"renounceOwnership()": "infinite",
						"superPrize()": "2449",
						"transferOwnership(address)": "infinite",
						"updatePrizePools(uint256)": "infinite"
					},
					"internal": {
						"_mintTokensToUsers()": "infinite"
					}
				},
				"methodIdentifiers": {
					"developerDividend()": "1934c786",
					"distributeDeveloperDividends()": "1f63000f",
					"distributeOwnerDividends()": "f1a002b1",
					"emitWeeklyReport(uint256,uint256)": "fd494d3f",
					"highPrize()": "7b820b83",
					"lowPrize()": "638ad71d",
					"middlePrize()": "ab4d819f",
					"nasicoinToken()": "6bdc3d91",
					"owner()": "8da5cb5b",
					"ownerDividend()": "cb3ebec2",
					"prepareForPrizeDraw()": "605ad59c",
					"prizeScale()": "ed22723a",
					"releasedTokens(address)": "70ff852b",
					"renounceOwnership()": "715018a6",
					"superPrize()": "11a1c8bd",
					"transferOwnership(address)": "f2fde38b",
					"updatePrizePools(uint256)": "9ad97fa0"
				}
			},
			"storageLayout": {
				"storage": [
					{
						"astId": 8,
						"contract": "contracts/PrizeManager.sol:PrizeManager",
						"label": "_owner",
						"offset": 0,
						"slot": "0",
						"type": "t_address"
					},
					{
						"astId": 264,
						"contract": "contracts/PrizeManager.sol:PrizeManager",
						"label": "superPrize",
						"offset": 0,
						"slot": "1",
						"type": "t_uint256"
					},
					{
						"astId": 266,
						"contract": "contracts/PrizeManager.sol:PrizeManager",
						"label": "highPrize",
						"offset": 0,
						"slot": "2",
						"type": "t_uint256"
					},
					{
						"astId": 268,
						"contract": "contracts/PrizeManager.sol:PrizeManager",
						"label": "middlePrize",
						"offset": 0,
						"slot": "3",
						"type": "t_uint256"
					},
					{
						"astId": 270,
						"contract": "contracts/PrizeManager.sol:PrizeManager",
						"label": "lowPrize",
						"offset": 0,
						"slot": "4",
						"type": "t_uint256"
					},
					{
						"astId": 272,
						"contract": "contracts/PrizeManager.sol:PrizeManager",
						"label": "ownerDividend",
						"offset": 0,
						"slot": "5",
						"type": "t_uint256"
					},
					{
						"astId": 274,
						"contract": "contracts/PrizeManager.sol:PrizeManager",
						"label": "developerDividend",
						"offset": 0,
						"slot": "6",
						"type": "t_uint256"
					},
					{
						"astId": 277,
						"contract": "contracts/PrizeManager.sol:PrizeManager",
						"label": "prizeScale",
						"offset": 0,
						"slot": "7",
						"type": "t_uint256"
					},
					{
						"astId": 279,
						"contract": "contracts/PrizeManager.sol:PrizeManager",
						"label": "lastPrizeScaleUpdate",
						"offset": 0,
						"slot": "8",
						"type": "t_uint256"
					},
					{
						"astId": 282,
						"contract": "contracts/PrizeManager.sol:PrizeManager",
						"label": "distributeOwnerDividends",
						"offset": 0,
						"slot": "9",
						"type": "t_bool"
					},
					{
						"astId": 285,
						"contract": "contracts/PrizeManager.sol:PrizeManager",
						"label": "distributeDeveloperDividends",
						"offset": 1,
						"slot": "9",
						"type": "t_bool"
					},
					{
						"astId": 287,
						"contract": "contracts/PrizeManager.sol:PrizeManager",
						"label": "nasicoinToken",
						"offset": 2,
						"slot": "9",
						"type": "t_address"
					},
					{
						"astId": 291,
						"contract": "contracts/PrizeManager.sol:PrizeManager",
						"label": "releasedTokens",
						"offset": 0,
						"slot": "10",
						"type": "t_mapping(t_address,t_uint256)"
					}
				],
				"types": {
					"t_address": {
						"encoding": "inplace",
						"label": "address",
						"numberOfBytes": "20"
					},
					"t_bool": {
						"encoding": "inplace",
						"label": "bool",
						"numberOfBytes": "1"
					},
					"t_mapping(t_address,t_uint256)": {
						"encoding": "mapping",
						"key": "t_address",
						"label": "mapping(address => uint256)",
						"numberOfBytes": "32",
						"value": "t_uint256"
					},
					"t_uint256": {
						"encoding": "inplace",
						"label": "uint256",
						"numberOfBytes": "32"
					}
				}
			},
			"userdoc": {
				"kind": "user",
				"methods": {
					"constructor": {
						"notice": "Constructor to initialize the contract with an initial owner."
					},
					"prepareForPrizeDraw()": {
						"notice": "External function to be called by other contracts to trigger minting of tokens before a prize draw."
					},
					"updatePrizePools(uint256)": {
						"notice": "Updates the prize pools and dividends based on weekly profits."
					}
				},
				"version": 1
			}
		}
	}
}