{
	"data": {
		"bytecode": {
			"linkReferences": {},
			"object": "6080604052600a6007555f60095f6101000a81548160ff0219169083151502179055505f600960016101000a81548160ff021916908315150217905550348015610047575f5ffd5b506040516111623803806111628339818101604052810190610069919061020f565b805f73ffffffffffffffffffffffffffffffffffffffff168173ffffffffffffffffffffffffffffffffffffffff16036100da575f6040517f1e4fbdf70000000000000000000000000000000000000000000000000000000081526004016100d19190610249565b60405180910390fd5b6100e9816100f060201b60201c565b5050610262565b5f5f5f9054906101000a900473ffffffffffffffffffffffffffffffffffffffff169050815f5f6101000a81548173ffffffffffffffffffffffffffffffffffffffff021916908373ffffffffffffffffffffffffffffffffffffffff1602179055508173ffffffffffffffffffffffffffffffffffffffff168173ffffffffffffffffffffffffffffffffffffffff167f8be0079c531659141344cd1fd0a4f28419497f9722a3daafe3b4186f6b6457e060405160405180910390a35050565b5f5ffd5b5f73ffffffffffffffffffffffffffffffffffffffff82169050919050565b5f6101de826101b5565b9050919050565b6101ee816101d4565b81146101f8575f5ffd5b50565b5f81519050610209816101e5565b92915050565b5f60208284031215610224576102236101b1565b5b5f610231848285016101fb565b91505092915050565b610243816101d4565b82525050565b5f60208201905061025c5f83018461023a565b92915050565b610ef38061026f5f395ff3fe608060405234801561000f575f5ffd5b50600436106100fe575f3560e01c8063ab4d819f11610095578063f1a002b111610064578063f1a002b114610254578063f2e27b6514610272578063f2fde38b1461028e578063fb5274e5146102aa576100fe565b8063ab4d819f146101dc578063acdcf5f2146101fa578063cb3ebec214610218578063ed22723a14610236576100fe565b8063715018a6116100d1578063715018a61461017a5780637b820b83146101845780638da5cb5b146101a25780639ad97fa0146101c0576100fe565b806311a1c8bd146101025780631934c786146101205780631f63000f1461013e578063638ad71d1461015c575b5f5ffd5b61010a6102b4565b6040516101179190610982565b60405180910390f35b6101286102ba565b6040516101359190610982565b60405180910390f35b6101466102c0565b60405161015391906109b5565b60405180910390f35b6101646102d3565b6040516101719190610982565b60405180910390f35b6101826102d9565b005b61018c6102ec565b6040516101999190610982565b60405180910390f35b6101aa6102f2565b6040516101b79190610a0d565b60405180910390f35b6101da60048036038101906101d59190610a54565b610319565b005b6101e4610512565b6040516101f19190610982565b60405180910390f35b610202610518565b60405161020f91906109b5565b60405180910390f35b6102206105aa565b60405161022d9190610982565b60405180910390f35b61023e6105b0565b60405161024b9190610982565b60405180910390f35b61025c6105b6565b60405161026991906109b5565b60405180910390f35b61028c60048036038101906102879190610a54565b6105c8565b005b6102a860048036038101906102a39190610aa9565b610750565b005b6102b26107d4565b005b60015481565b60065481565b600960019054906101000a900460ff1681565b60045481565b6102e161081b565b6102ea5f6108a2565b565b60025481565b5f5f5f9054906101000a900473ffffffffffffffffffffffffffffffffffffffff16905090565b61032161081b565b5f8111610363576040517f08c379a000000000000000000000000000000000000000000000000000000000815260040161035a90610b2e565b60405180910390fd5b5f60646032836103739190610b79565b61037d9190610be7565b90505f606460058461038f9190610b79565b6103999190610be7565b90506064600a836103aa9190610b79565b6103b49190610be7565b60015f8282546103c49190610c17565b925050819055506064600a836103da9190610b79565b6103e49190610be7565b60025f8282546103f49190610c17565b925050819055506064600a8361040a9190610b79565b6104149190610be7565b60035f8282546104249190610c17565b925050819055506064600a8361043a9190610b79565b6104449190610be7565b60045f8282546104549190610c17565b925050819055508060055f82825461046c9190610c17565b925050819055508060065f8282546104849190610c17565b925050819055507fc1879f0406577975a5876a8db2ec1549e2a3194f0f01e15bde4292d6e4b368246001546002546003546004546040516104c89493929190610c4a565b60405180910390a17fbbb79063c8e8bcd7691a017e4e76c5de1369686b9f0674f946b0129041525b59600554600654604051610505929190610c8d565b60405180910390a1505050565b60035481565b5f5f60016007546105299190610b79565b600a6007546105389190610b79565b60646007546105479190610b79565b6103e86007546105579190610b79565b6105619190610c17565b61056b9190610c17565b6105759190610c17565b90508060015410158061058a57508060025410155b8061059757508060035410155b806105a457508060045410155b91505090565b60055481565b60075481565b60095f9054906101000a900460ff1681565b6105d06102f2565b73ffffffffffffffffffffffffffffffffffffffff163373ffffffffffffffffffffffffffffffffffffffff16148061063457503273ffffffffffffffffffffffffffffffffffffffff163373ffffffffffffffffffffffffffffffffffffffff16145b610673576040517f08c379a000000000000000000000000000000000000000000000000000000000815260040161066a90610cfe565b60405180910390fd5b62093a806008546106849190610c17565b4210156106c6576040517f08c379a00000000000000000000000000000000000000000000000000000000081526004016106bd90610d8c565b60405180910390fd5b5f8111610708576040517f08c379a00000000000000000000000000000000000000000000000000000000081526004016106ff90610e1a565b60405180910390fd5b80600781905550426008819055507fbe74989b82c125ec369bdc21c95661e14a1d97c700ebdef03b84c0da6fc93c5a816040516107459190610982565b60405180910390a150565b61075861081b565b5f73ffffffffffffffffffffffffffffffffffffffff168173ffffffffffffffffffffffffffffffffffffffff16036107c8575f6040517f1e4fbdf70000000000000000000000000000000000000000000000000000000081526004016107bf9190610a0d565b60405180910390fd5b6107d1816108a2565b50565b6107dc61081b565b7ffe24c1a52828fa9764a2d2ebf1c0066647f541fa9636c315facf936ed0b3a7795f5f5f5f6040516108119493929190610e7a565b60405180910390a1565b610823610963565b73ffffffffffffffffffffffffffffffffffffffff166108416102f2565b73ffffffffffffffffffffffffffffffffffffffff16146108a057610864610963565b6040517f118cdaa70000000000000000000000000000000000000000000000000000000081526004016108979190610a0d565b60405180910390fd5b565b5f5f5f9054906101000a900473ffffffffffffffffffffffffffffffffffffffff169050815f5f6101000a81548173ffffffffffffffffffffffffffffffffffffffff021916908373ffffffffffffffffffffffffffffffffffffffff1602179055508173ffffffffffffffffffffffffffffffffffffffff168173ffffffffffffffffffffffffffffffffffffffff167f8be0079c531659141344cd1fd0a4f28419497f9722a3daafe3b4186f6b6457e060405160405180910390a35050565b5f33905090565b5f819050919050565b61097c8161096a565b82525050565b5f6020820190506109955f830184610973565b92915050565b5f8115159050919050565b6109af8161099b565b82525050565b5f6020820190506109c85f8301846109a6565b92915050565b5f73ffffffffffffffffffffffffffffffffffffffff82169050919050565b5f6109f7826109ce565b9050919050565b610a07816109ed565b82525050565b5f602082019050610a205f8301846109fe565b92915050565b5f5ffd5b610a338161096a565b8114610a3d575f5ffd5b50565b5f81359050610a4e81610a2a565b92915050565b5f60208284031215610a6957610a68610a26565b5b5f610a7684828501610a40565b91505092915050565b610a88816109ed565b8114610a92575f5ffd5b50565b5f81359050610aa381610a7f565b92915050565b5f60208284031215610abe57610abd610a26565b5b5f610acb84828501610a95565b91505092915050565b5f82825260208201905092915050565b7f4e6f2070726f6669747320746f206469737472696275746500000000000000005f82015250565b5f610b18601883610ad4565b9150610b2382610ae4565b602082019050919050565b5f6020820190508181035f830152610b4581610b0c565b9050919050565b7f4e487b71000000000000000000000000000000000000000000000000000000005f52601160045260245ffd5b5f610b838261096a565b9150610b8e8361096a565b9250828202610b9c8161096a565b91508282048414831517610bb357610bb2610b4c565b5b5092915050565b7f4e487b71000000000000000000000000000000000000000000000000000000005f52601260045260245ffd5b5f610bf18261096a565b9150610bfc8361096a565b925082610c0c57610c0b610bba565b5b828204905092915050565b5f610c218261096a565b9150610c2c8361096a565b9250828201905080821115610c4457610c43610b4c565b5b92915050565b5f608082019050610c5d5f830187610973565b610c6a6020830186610973565b610c776040830185610973565b610c846060830184610973565b95945050505050565b5f604082019050610ca05f830185610973565b610cad6020830184610973565b9392505050565b7f4e6f7420617574686f72697a65640000000000000000000000000000000000005f82015250565b5f610ce8600e83610ad4565b9150610cf382610cb4565b602082019050919050565b5f6020820190508181035f830152610d1581610cdc565b9050919050565b7f5072697a65207363616c652063616e206f6e6c792062652075706461746564205f8201527f6f6e636520706572207765656b00000000000000000000000000000000000000602082015250565b5f610d76602d83610ad4565b9150610d8182610d1c565b604082019050919050565b5f6020820190508181035f830152610da381610d6a565b9050919050565b7f5072697a65207363616c65206d7573742062652067726561746572207468616e5f8201527f207a65726f000000000000000000000000000000000000000000000000000000602082015250565b5f610e04602583610ad4565b9150610e0f82610daa565b604082019050919050565b5f6020820190508181035f830152610e3181610df8565b9050919050565b5f819050919050565b5f819050919050565b5f610e64610e5f610e5a84610e38565b610e41565b61096a565b9050919050565b610e7481610e4a565b82525050565b5f608082019050610e8d5f830187610e6b565b610e9a6020830186610e6b565b610ea76040830185610e6b565b610eb46060830184610e6b565b9594505050505056fea2646970667358221220d793c084ec61ac9868c0f6886a702c1adaa8b7b5bb937a0ec4e341af6797d8f364736f6c634300081c0033",
			"opcodes": "PUSH1 0x80 PUSH1 0x40 MSTORE PUSH1 0xA PUSH1 0x7 SSTORE PUSH0 PUSH1 0x9 PUSH0 PUSH2 0x100 EXP DUP2 SLOAD DUP2 PUSH1 0xFF MUL NOT AND SWAP1 DUP4 ISZERO ISZERO MUL OR SWAP1 SSTORE POP PUSH0 PUSH1 0x9 PUSH1 0x1 PUSH2 0x100 EXP DUP2 SLOAD DUP2 PUSH1 0xFF MUL NOT AND SWAP1 DUP4 ISZERO ISZERO MUL OR SWAP1 SSTORE POP CALLVALUE DUP1 ISZERO PUSH2 0x47 JUMPI PUSH0 PUSH0 REVERT JUMPDEST POP PUSH1 0x40 MLOAD PUSH2 0x1162 CODESIZE SUB DUP1 PUSH2 0x1162 DUP4 CODECOPY DUP2 DUP2 ADD PUSH1 0x40 MSTORE DUP2 ADD SWAP1 PUSH2 0x69 SWAP2 SWAP1 PUSH2 0x20F JUMP JUMPDEST DUP1 PUSH0 PUSH20 0xFFFFFFFFFFFFFFFFFFFFFFFFFFFFFFFFFFFFFFFF AND DUP2 PUSH20 0xFFFFFFFFFFFFFFFFFFFFFFFFFFFFFFFFFFFFFFFF AND SUB PUSH2 0xDA JUMPI PUSH0 PUSH1 0x40 MLOAD PUSH32 0x1E4FBDF700000000000000000000000000000000000000000000000000000000 DUP2 MSTORE PUSH1 0x4 ADD PUSH2 0xD1 SWAP2 SWAP1 PUSH2 0x249 JUMP JUMPDEST PUSH1 0x40 MLOAD DUP1 SWAP2 SUB SWAP1 REVERT JUMPDEST PUSH2 0xE9 DUP2 PUSH2 0xF0 PUSH1 0x20 SHL PUSH1 0x20 SHR JUMP JUMPDEST POP POP PUSH2 0x262 JUMP JUMPDEST PUSH0 PUSH0 PUSH0 SWAP1 SLOAD SWAP1 PUSH2 0x100 EXP SWAP1 DIV PUSH20 0xFFFFFFFFFFFFFFFFFFFFFFFFFFFFFFFFFFFFFFFF AND SWAP1 POP DUP2 PUSH0 PUSH0 PUSH2 0x100 EXP DUP2 SLOAD DUP2 PUSH20 0xFFFFFFFFFFFFFFFFFFFFFFFFFFFFFFFFFFFFFFFF MUL NOT AND SWAP1 DUP4 PUSH20 0xFFFFFFFFFFFFFFFFFFFFFFFFFFFFFFFFFFFFFFFF AND MUL OR SWAP1 SSTORE POP DUP2 PUSH20 0xFFFFFFFFFFFFFFFFFFFFFFFFFFFFFFFFFFFFFFFF AND DUP2 PUSH20 0xFFFFFFFFFFFFFFFFFFFFFFFFFFFFFFFFFFFFFFFF AND PUSH32 0x8BE0079C531659141344CD1FD0A4F28419497F9722A3DAAFE3B4186F6B6457E0 PUSH1 0x40 MLOAD PUSH1 0x40 MLOAD DUP1 SWAP2 SUB SWAP1 LOG3 POP POP JUMP JUMPDEST PUSH0 PUSH0 REVERT JUMPDEST PUSH0 PUSH20 0xFFFFFFFFFFFFFFFFFFFFFFFFFFFFFFFFFFFFFFFF DUP3 AND SWAP1 POP SWAP2 SWAP1 POP JUMP JUMPDEST PUSH0 PUSH2 0x1DE DUP3 PUSH2 0x1B5 JUMP JUMPDEST SWAP1 POP SWAP2 SWAP1 POP JUMP JUMPDEST PUSH2 0x1EE DUP2 PUSH2 0x1D4 JUMP JUMPDEST DUP2 EQ PUSH2 0x1F8 JUMPI PUSH0 PUSH0 REVERT JUMPDEST POP JUMP JUMPDEST PUSH0 DUP2 MLOAD SWAP1 POP PUSH2 0x209 DUP2 PUSH2 0x1E5 JUMP JUMPDEST SWAP3 SWAP2 POP POP JUMP JUMPDEST PUSH0 PUSH1 0x20 DUP3 DUP5 SUB SLT ISZERO PUSH2 0x224 JUMPI PUSH2 0x223 PUSH2 0x1B1 JUMP JUMPDEST JUMPDEST PUSH0 PUSH2 0x231 DUP5 DUP3 DUP6 ADD PUSH2 0x1FB JUMP JUMPDEST SWAP2 POP POP SWAP3 SWAP2 POP POP JUMP JUMPDEST PUSH2 0x243 DUP2 PUSH2 0x1D4 JUMP JUMPDEST DUP3 MSTORE POP POP JUMP JUMPDEST PUSH0 PUSH1 0x20 DUP3 ADD SWAP1 POP PUSH2 0x25C PUSH0 DUP4 ADD DUP5 PUSH2 0x23A JUMP JUMPDEST SWAP3 SWAP2 POP POP JUMP JUMPDEST PUSH2 0xEF3 DUP1 PUSH2 0x26F PUSH0 CODECOPY PUSH0 RETURN INVALID PUSH1 0x80 PUSH1 0x40 MSTORE CALLVALUE DUP1 ISZERO PUSH2 0xF JUMPI PUSH0 PUSH0 REVERT JUMPDEST POP PUSH1 0x4 CALLDATASIZE LT PUSH2 0xFE JUMPI PUSH0 CALLDATALOAD PUSH1 0xE0 SHR DUP1 PUSH4 0xAB4D819F GT PUSH2 0x95 JUMPI DUP1 PUSH4 0xF1A002B1 GT PUSH2 0x64 JUMPI DUP1 PUSH4 0xF1A002B1 EQ PUSH2 0x254 JUMPI DUP1 PUSH4 0xF2E27B65 EQ PUSH2 0x272 JUMPI DUP1 PUSH4 0xF2FDE38B EQ PUSH2 0x28E JUMPI DUP1 PUSH4 0xFB5274E5 EQ PUSH2 0x2AA JUMPI PUSH2 0xFE JUMP JUMPDEST DUP1 PUSH4 0xAB4D819F EQ PUSH2 0x1DC JUMPI DUP1 PUSH4 0xACDCF5F2 EQ PUSH2 0x1FA JUMPI DUP1 PUSH4 0xCB3EBEC2 EQ PUSH2 0x218 JUMPI DUP1 PUSH4 0xED22723A EQ PUSH2 0x236 JUMPI PUSH2 0xFE JUMP JUMPDEST DUP1 PUSH4 0x715018A6 GT PUSH2 0xD1 JUMPI DUP1 PUSH4 0x715018A6 EQ PUSH2 0x17A JUMPI DUP1 PUSH4 0x7B820B83 EQ PUSH2 0x184 JUMPI DUP1 PUSH4 0x8DA5CB5B EQ PUSH2 0x1A2 JUMPI DUP1 PUSH4 0x9AD97FA0 EQ PUSH2 0x1C0 JUMPI PUSH2 0xFE JUMP JUMPDEST DUP1 PUSH4 0x11A1C8BD EQ PUSH2 0x102 JUMPI DUP1 PUSH4 0x1934C786 EQ PUSH2 0x120 JUMPI DUP1 PUSH4 0x1F63000F EQ PUSH2 0x13E JUMPI DUP1 PUSH4 0x638AD71D EQ PUSH2 0x15C JUMPI JUMPDEST PUSH0 PUSH0 REVERT JUMPDEST PUSH2 0x10A PUSH2 0x2B4 JUMP JUMPDEST PUSH1 0x40 MLOAD PUSH2 0x117 SWAP2 SWAP1 PUSH2 0x982 JUMP JUMPDEST PUSH1 0x40 MLOAD DUP1 SWAP2 SUB SWAP1 RETURN JUMPDEST PUSH2 0x128 PUSH2 0x2BA JUMP JUMPDEST PUSH1 0x40 MLOAD PUSH2 0x135 SWAP2 SWAP1 PUSH2 0x982 JUMP JUMPDEST PUSH1 0x40 MLOAD DUP1 SWAP2 SUB SWAP1 RETURN JUMPDEST PUSH2 0x146 PUSH2 0x2C0 JUMP JUMPDEST PUSH1 0x40 MLOAD PUSH2 0x153 SWAP2 SWAP1 PUSH2 0x9B5 JUMP JUMPDEST PUSH1 0x40 MLOAD DUP1 SWAP2 SUB SWAP1 RETURN JUMPDEST PUSH2 0x164 PUSH2 0x2D3 JUMP JUMPDEST PUSH1 0x40 MLOAD PUSH2 0x171 SWAP2 SWAP1 PUSH2 0x982 JUMP JUMPDEST PUSH1 0x40 MLOAD DUP1 SWAP2 SUB SWAP1 RETURN JUMPDEST PUSH2 0x182 PUSH2 0x2D9 JUMP JUMPDEST STOP JUMPDEST PUSH2 0x18C PUSH2 0x2EC JUMP JUMPDEST PUSH1 0x40 MLOAD PUSH2 0x199 SWAP2 SWAP1 PUSH2 0x982 JUMP JUMPDEST PUSH1 0x40 MLOAD DUP1 SWAP2 SUB SWAP1 RETURN JUMPDEST PUSH2 0x1AA PUSH2 0x2F2 JUMP JUMPDEST PUSH1 0x40 MLOAD PUSH2 0x1B7 SWAP2 SWAP1 PUSH2 0xA0D JUMP JUMPDEST PUSH1 0x40 MLOAD DUP1 SWAP2 SUB SWAP1 RETURN JUMPDEST PUSH2 0x1DA PUSH1 0x4 DUP1 CALLDATASIZE SUB DUP2 ADD SWAP1 PUSH2 0x1D5 SWAP2 SWAP1 PUSH2 0xA54 JUMP JUMPDEST PUSH2 0x319 JUMP JUMPDEST STOP JUMPDEST PUSH2 0x1E4 PUSH2 0x512 JUMP JUMPDEST PUSH1 0x40 MLOAD PUSH2 0x1F1 SWAP2 SWAP1 PUSH2 0x982 JUMP JUMPDEST PUSH1 0x40 MLOAD DUP1 SWAP2 SUB SWAP1 RETURN JUMPDEST PUSH2 0x202 PUSH2 0x518 JUMP JUMPDEST PUSH1 0x40 MLOAD PUSH2 0x20F SWAP2 SWAP1 PUSH2 0x9B5 JUMP JUMPDEST PUSH1 0x40 MLOAD DUP1 SWAP2 SUB SWAP1 RETURN JUMPDEST PUSH2 0x220 PUSH2 0x5AA JUMP JUMPDEST PUSH1 0x40 MLOAD PUSH2 0x22D SWAP2 SWAP1 PUSH2 0x982 JUMP JUMPDEST PUSH1 0x40 MLOAD DUP1 SWAP2 SUB SWAP1 RETURN JUMPDEST PUSH2 0x23E PUSH2 0x5B0 JUMP JUMPDEST PUSH1 0x40 MLOAD PUSH2 0x24B SWAP2 SWAP1 PUSH2 0x982 JUMP JUMPDEST PUSH1 0x40 MLOAD DUP1 SWAP2 SUB SWAP1 RETURN JUMPDEST PUSH2 0x25C PUSH2 0x5B6 JUMP JUMPDEST PUSH1 0x40 MLOAD PUSH2 0x269 SWAP2 SWAP1 PUSH2 0x9B5 JUMP JUMPDEST PUSH1 0x40 MLOAD DUP1 SWAP2 SUB SWAP1 RETURN JUMPDEST PUSH2 0x28C PUSH1 0x4 DUP1 CALLDATASIZE SUB DUP2 ADD SWAP1 PUSH2 0x287 SWAP2 SWAP1 PUSH2 0xA54 JUMP JUMPDEST PUSH2 0x5C8 JUMP JUMPDEST STOP JUMPDEST PUSH2 0x2A8 PUSH1 0x4 DUP1 CALLDATASIZE SUB DUP2 ADD SWAP1 PUSH2 0x2A3 SWAP2 SWAP1 PUSH2 0xAA9 JUMP JUMPDEST PUSH2 0x750 JUMP JUMPDEST STOP JUMPDEST PUSH2 0x2B2 PUSH2 0x7D4 JUMP JUMPDEST STOP JUMPDEST PUSH1 0x1 SLOAD DUP2 JUMP JUMPDEST PUSH1 0x6 SLOAD DUP2 JUMP JUMPDEST PUSH1 0x9 PUSH1 0x1 SWAP1 SLOAD SWAP1 PUSH2 0x100 EXP SWAP1 DIV PUSH1 0xFF AND DUP2 JUMP JUMPDEST PUSH1 0x4 SLOAD DUP2 JUMP JUMPDEST PUSH2 0x2E1 PUSH2 0x81B JUMP JUMPDEST PUSH2 0x2EA PUSH0 PUSH2 0x8A2 JUMP JUMPDEST JUMP JUMPDEST PUSH1 0x2 SLOAD DUP2 JUMP JUMPDEST PUSH0 PUSH0 PUSH0 SWAP1 SLOAD SWAP1 PUSH2 0x100 EXP SWAP1 DIV PUSH20 0xFFFFFFFFFFFFFFFFFFFFFFFFFFFFFFFFFFFFFFFF AND SWAP1 POP SWAP1 JUMP JUMPDEST PUSH2 0x321 PUSH2 0x81B JUMP JUMPDEST PUSH0 DUP2 GT PUSH2 0x363 JUMPI PUSH1 0x40 MLOAD PUSH32 0x8C379A000000000000000000000000000000000000000000000000000000000 DUP2 MSTORE PUSH1 0x4 ADD PUSH2 0x35A SWAP1 PUSH2 0xB2E JUMP JUMPDEST PUSH1 0x40 MLOAD DUP1 SWAP2 SUB SWAP1 REVERT JUMPDEST PUSH0 PUSH1 0x64 PUSH1 0x32 DUP4 PUSH2 0x373 SWAP2 SWAP1 PUSH2 0xB79 JUMP JUMPDEST PUSH2 0x37D SWAP2 SWAP1 PUSH2 0xBE7 JUMP JUMPDEST SWAP1 POP PUSH0 PUSH1 0x64 PUSH1 0x5 DUP5 PUSH2 0x38F SWAP2 SWAP1 PUSH2 0xB79 JUMP JUMPDEST PUSH2 0x399 SWAP2 SWAP1 PUSH2 0xBE7 JUMP JUMPDEST SWAP1 POP PUSH1 0x64 PUSH1 0xA DUP4 PUSH2 0x3AA SWAP2 SWAP1 PUSH2 0xB79 JUMP JUMPDEST PUSH2 0x3B4 SWAP2 SWAP1 PUSH2 0xBE7 JUMP JUMPDEST PUSH1 0x1 PUSH0 DUP3 DUP3 SLOAD PUSH2 0x3C4 SWAP2 SWAP1 PUSH2 0xC17 JUMP JUMPDEST SWAP3 POP POP DUP2 SWAP1 SSTORE POP PUSH1 0x64 PUSH1 0xA DUP4 PUSH2 0x3DA SWAP2 SWAP1 PUSH2 0xB79 JUMP JUMPDEST PUSH2 0x3E4 SWAP2 SWAP1 PUSH2 0xBE7 JUMP JUMPDEST PUSH1 0x2 PUSH0 DUP3 DUP3 SLOAD PUSH2 0x3F4 SWAP2 SWAP1 PUSH2 0xC17 JUMP JUMPDEST SWAP3 POP POP DUP2 SWAP1 SSTORE POP PUSH1 0x64 PUSH1 0xA DUP4 PUSH2 0x40A SWAP2 SWAP1 PUSH2 0xB79 JUMP JUMPDEST PUSH2 0x414 SWAP2 SWAP1 PUSH2 0xBE7 JUMP JUMPDEST PUSH1 0x3 PUSH0 DUP3 DUP3 SLOAD PUSH2 0x424 SWAP2 SWAP1 PUSH2 0xC17 JUMP JUMPDEST SWAP3 POP POP DUP2 SWAP1 SSTORE POP PUSH1 0x64 PUSH1 0xA DUP4 PUSH2 0x43A SWAP2 SWAP1 PUSH2 0xB79 JUMP JUMPDEST PUSH2 0x444 SWAP2 SWAP1 PUSH2 0xBE7 JUMP JUMPDEST PUSH1 0x4 PUSH0 DUP3 DUP3 SLOAD PUSH2 0x454 SWAP2 SWAP1 PUSH2 0xC17 JUMP JUMPDEST SWAP3 POP POP DUP2 SWAP1 SSTORE POP DUP1 PUSH1 0x5 PUSH0 DUP3 DUP3 SLOAD PUSH2 0x46C SWAP2 SWAP1 PUSH2 0xC17 JUMP JUMPDEST SWAP3 POP POP DUP2 SWAP1 SSTORE POP DUP1 PUSH1 0x6 PUSH0 DUP3 DUP3 SLOAD PUSH2 0x484 SWAP2 SWAP1 PUSH2 0xC17 JUMP JUMPDEST SWAP3 POP POP DUP2 SWAP1 SSTORE POP PUSH32 0xC1879F0406577975A5876A8DB2EC1549E2A3194F0F01E15BDE4292D6E4B36824 PUSH1 0x1 SLOAD PUSH1 0x2 SLOAD PUSH1 0x3 SLOAD PUSH1 0x4 SLOAD PUSH1 0x40 MLOAD PUSH2 0x4C8 SWAP5 SWAP4 SWAP3 SWAP2 SWAP1 PUSH2 0xC4A JUMP JUMPDEST PUSH1 0x40 MLOAD DUP1 SWAP2 SUB SWAP1 LOG1 PUSH32 0xBBB79063C8E8BCD7691A017E4E76C5DE1369686B9F0674F946B0129041525B59 PUSH1 0x5 SLOAD PUSH1 0x6 SLOAD PUSH1 0x40 MLOAD PUSH2 0x505 SWAP3 SWAP2 SWAP1 PUSH2 0xC8D JUMP JUMPDEST PUSH1 0x40 MLOAD DUP1 SWAP2 SUB SWAP1 LOG1 POP POP POP JUMP JUMPDEST PUSH1 0x3 SLOAD DUP2 JUMP JUMPDEST PUSH0 PUSH0 PUSH1 0x1 PUSH1 0x7 SLOAD PUSH2 0x529 SWAP2 SWAP1 PUSH2 0xB79 JUMP JUMPDEST PUSH1 0xA PUSH1 0x7 SLOAD PUSH2 0x538 SWAP2 SWAP1 PUSH2 0xB79 JUMP JUMPDEST PUSH1 0x64 PUSH1 0x7 SLOAD PUSH2 0x547 SWAP2 SWAP1 PUSH2 0xB79 JUMP JUMPDEST PUSH2 0x3E8 PUSH1 0x7 SLOAD PUSH2 0x557 SWAP2 SWAP1 PUSH2 0xB79 JUMP JUMPDEST PUSH2 0x561 SWAP2 SWAP1 PUSH2 0xC17 JUMP JUMPDEST PUSH2 0x56B SWAP2 SWAP1 PUSH2 0xC17 JUMP JUMPDEST PUSH2 0x575 SWAP2 SWAP1 PUSH2 0xC17 JUMP JUMPDEST SWAP1 POP DUP1 PUSH1 0x1 SLOAD LT ISZERO DUP1 PUSH2 0x58A JUMPI POP DUP1 PUSH1 0x2 SLOAD LT ISZERO JUMPDEST DUP1 PUSH2 0x597 JUMPI POP DUP1 PUSH1 0x3 SLOAD LT ISZERO JUMPDEST DUP1 PUSH2 0x5A4 JUMPI POP DUP1 PUSH1 0x4 SLOAD LT ISZERO JUMPDEST SWAP2 POP POP SWAP1 JUMP JUMPDEST PUSH1 0x5 SLOAD DUP2 JUMP JUMPDEST PUSH1 0x7 SLOAD DUP2 JUMP JUMPDEST PUSH1 0x9 PUSH0 SWAP1 SLOAD SWAP1 PUSH2 0x100 EXP SWAP1 DIV PUSH1 0xFF AND DUP2 JUMP JUMPDEST PUSH2 0x5D0 PUSH2 0x2F2 JUMP JUMPDEST PUSH20 0xFFFFFFFFFFFFFFFFFFFFFFFFFFFFFFFFFFFFFFFF AND CALLER PUSH20 0xFFFFFFFFFFFFFFFFFFFFFFFFFFFFFFFFFFFFFFFF AND EQ DUP1 PUSH2 0x634 JUMPI POP ORIGIN PUSH20 0xFFFFFFFFFFFFFFFFFFFFFFFFFFFFFFFFFFFFFFFF AND CALLER PUSH20 0xFFFFFFFFFFFFFFFFFFFFFFFFFFFFFFFFFFFFFFFF AND EQ JUMPDEST PUSH2 0x673 JUMPI PUSH1 0x40 MLOAD PUSH32 0x8C379A000000000000000000000000000000000000000000000000000000000 DUP2 MSTORE PUSH1 0x4 ADD PUSH2 0x66A SWAP1 PUSH2 0xCFE JUMP JUMPDEST PUSH1 0x40 MLOAD DUP1 SWAP2 SUB SWAP1 REVERT JUMPDEST PUSH3 0x93A80 PUSH1 0x8 SLOAD PUSH2 0x684 SWAP2 SWAP1 PUSH2 0xC17 JUMP JUMPDEST TIMESTAMP LT ISZERO PUSH2 0x6C6 JUMPI PUSH1 0x40 MLOAD PUSH32 0x8C379A000000000000000000000000000000000000000000000000000000000 DUP2 MSTORE PUSH1 0x4 ADD PUSH2 0x6BD SWAP1 PUSH2 0xD8C JUMP JUMPDEST PUSH1 0x40 MLOAD DUP1 SWAP2 SUB SWAP1 REVERT JUMPDEST PUSH0 DUP2 GT PUSH2 0x708 JUMPI PUSH1 0x40 MLOAD PUSH32 0x8C379A000000000000000000000000000000000000000000000000000000000 DUP2 MSTORE PUSH1 0x4 ADD PUSH2 0x6FF SWAP1 PUSH2 0xE1A JUMP JUMPDEST PUSH1 0x40 MLOAD DUP1 SWAP2 SUB SWAP1 REVERT JUMPDEST DUP1 PUSH1 0x7 DUP2 SWAP1 SSTORE POP TIMESTAMP PUSH1 0x8 DUP2 SWAP1 SSTORE POP PUSH32 0xBE74989B82C125EC369BDC21C95661E14A1D97C700EBDEF03B84C0DA6FC93C5A DUP2 PUSH1 0x40 MLOAD PUSH2 0x745 SWAP2 SWAP1 PUSH2 0x982 JUMP JUMPDEST PUSH1 0x40 MLOAD DUP1 SWAP2 SUB SWAP1 LOG1 POP JUMP JUMPDEST PUSH2 0x758 PUSH2 0x81B JUMP JUMPDEST PUSH0 PUSH20 0xFFFFFFFFFFFFFFFFFFFFFFFFFFFFFFFFFFFFFFFF AND DUP2 PUSH20 0xFFFFFFFFFFFFFFFFFFFFFFFFFFFFFFFFFFFFFFFF AND SUB PUSH2 0x7C8 JUMPI PUSH0 PUSH1 0x40 MLOAD PUSH32 0x1E4FBDF700000000000000000000000000000000000000000000000000000000 DUP2 MSTORE PUSH1 0x4 ADD PUSH2 0x7BF SWAP2 SWAP1 PUSH2 0xA0D JUMP JUMPDEST PUSH1 0x40 MLOAD DUP1 SWAP2 SUB SWAP1 REVERT JUMPDEST PUSH2 0x7D1 DUP2 PUSH2 0x8A2 JUMP JUMPDEST POP JUMP JUMPDEST PUSH2 0x7DC PUSH2 0x81B JUMP JUMPDEST PUSH32 0xFE24C1A52828FA9764A2D2EBF1C0066647F541FA9636C315FACF936ED0B3A779 PUSH0 PUSH0 PUSH0 PUSH0 PUSH1 0x40 MLOAD PUSH2 0x811 SWAP5 SWAP4 SWAP3 SWAP2 SWAP1 PUSH2 0xE7A JUMP JUMPDEST PUSH1 0x40 MLOAD DUP1 SWAP2 SUB SWAP1 LOG1 JUMP JUMPDEST PUSH2 0x823 PUSH2 0x963 JUMP JUMPDEST PUSH20 0xFFFFFFFFFFFFFFFFFFFFFFFFFFFFFFFFFFFFFFFF AND PUSH2 0x841 PUSH2 0x2F2 JUMP JUMPDEST PUSH20 0xFFFFFFFFFFFFFFFFFFFFFFFFFFFFFFFFFFFFFFFF AND EQ PUSH2 0x8A0 JUMPI PUSH2 0x864 PUSH2 0x963 JUMP JUMPDEST PUSH1 0x40 MLOAD PUSH32 0x118CDAA700000000000000000000000000000000000000000000000000000000 DUP2 MSTORE PUSH1 0x4 ADD PUSH2 0x897 SWAP2 SWAP1 PUSH2 0xA0D JUMP JUMPDEST PUSH1 0x40 MLOAD DUP1 SWAP2 SUB SWAP1 REVERT JUMPDEST JUMP JUMPDEST PUSH0 PUSH0 PUSH0 SWAP1 SLOAD SWAP1 PUSH2 0x100 EXP SWAP1 DIV PUSH20 0xFFFFFFFFFFFFFFFFFFFFFFFFFFFFFFFFFFFFFFFF AND SWAP1 POP DUP2 PUSH0 PUSH0 PUSH2 0x100 EXP DUP2 SLOAD DUP2 PUSH20 0xFFFFFFFFFFFFFFFFFFFFFFFFFFFFFFFFFFFFFFFF MUL NOT AND SWAP1 DUP4 PUSH20 0xFFFFFFFFFFFFFFFFFFFFFFFFFFFFFFFFFFFFFFFF AND MUL OR SWAP1 SSTORE POP DUP2 PUSH20 0xFFFFFFFFFFFFFFFFFFFFFFFFFFFFFFFFFFFFFFFF AND DUP2 PUSH20 0xFFFFFFFFFFFFFFFFFFFFFFFFFFFFFFFFFFFFFFFF AND PUSH32 0x8BE0079C531659141344CD1FD0A4F28419497F9722A3DAAFE3B4186F6B6457E0 PUSH1 0x40 MLOAD PUSH1 0x40 MLOAD DUP1 SWAP2 SUB SWAP1 LOG3 POP POP JUMP JUMPDEST PUSH0 CALLER SWAP1 POP SWAP1 JUMP JUMPDEST PUSH0 DUP2 SWAP1 POP SWAP2 SWAP1 POP JUMP JUMPDEST PUSH2 0x97C DUP2 PUSH2 0x96A JUMP JUMPDEST DUP3 MSTORE POP POP JUMP JUMPDEST PUSH0 PUSH1 0x20 DUP3 ADD SWAP1 POP PUSH2 0x995 PUSH0 DUP4 ADD DUP5 PUSH2 0x973 JUMP JUMPDEST SWAP3 SWAP2 POP POP JUMP JUMPDEST PUSH0 DUP2 ISZERO ISZERO SWAP1 POP SWAP2 SWAP1 POP JUMP JUMPDEST PUSH2 0x9AF DUP2 PUSH2 0x99B JUMP JUMPDEST DUP3 MSTORE POP POP JUMP JUMPDEST PUSH0 PUSH1 0x20 DUP3 ADD SWAP1 POP PUSH2 0x9C8 PUSH0 DUP4 ADD DUP5 PUSH2 0x9A6 JUMP JUMPDEST SWAP3 SWAP2 POP POP JUMP JUMPDEST PUSH0 PUSH20 0xFFFFFFFFFFFFFFFFFFFFFFFFFFFFFFFFFFFFFFFF DUP3 AND SWAP1 POP SWAP2 SWAP1 POP JUMP JUMPDEST PUSH0 PUSH2 0x9F7 DUP3 PUSH2 0x9CE JUMP JUMPDEST SWAP1 POP SWAP2 SWAP1 POP JUMP JUMPDEST PUSH2 0xA07 DUP2 PUSH2 0x9ED JUMP JUMPDEST DUP3 MSTORE POP POP JUMP JUMPDEST PUSH0 PUSH1 0x20 DUP3 ADD SWAP1 POP PUSH2 0xA20 PUSH0 DUP4 ADD DUP5 PUSH2 0x9FE JUMP JUMPDEST SWAP3 SWAP2 POP POP JUMP JUMPDEST PUSH0 PUSH0 REVERT JUMPDEST PUSH2 0xA33 DUP2 PUSH2 0x96A JUMP JUMPDEST DUP2 EQ PUSH2 0xA3D JUMPI PUSH0 PUSH0 REVERT JUMPDEST POP JUMP JUMPDEST PUSH0 DUP2 CALLDATALOAD SWAP1 POP PUSH2 0xA4E DUP2 PUSH2 0xA2A JUMP JUMPDEST SWAP3 SWAP2 POP POP JUMP JUMPDEST PUSH0 PUSH1 0x20 DUP3 DUP5 SUB SLT ISZERO PUSH2 0xA69 JUMPI PUSH2 0xA68 PUSH2 0xA26 JUMP JUMPDEST JUMPDEST PUSH0 PUSH2 0xA76 DUP5 DUP3 DUP6 ADD PUSH2 0xA40 JUMP JUMPDEST SWAP2 POP POP SWAP3 SWAP2 POP POP JUMP JUMPDEST PUSH2 0xA88 DUP2 PUSH2 0x9ED JUMP JUMPDEST DUP2 EQ PUSH2 0xA92 JUMPI PUSH0 PUSH0 REVERT JUMPDEST POP JUMP JUMPDEST PUSH0 DUP2 CALLDATALOAD SWAP1 POP PUSH2 0xAA3 DUP2 PUSH2 0xA7F JUMP JUMPDEST SWAP3 SWAP2 POP POP JUMP JUMPDEST PUSH0 PUSH1 0x20 DUP3 DUP5 SUB SLT ISZERO PUSH2 0xABE JUMPI PUSH2 0xABD PUSH2 0xA26 JUMP JUMPDEST JUMPDEST PUSH0 PUSH2 0xACB DUP5 DUP3 DUP6 ADD PUSH2 0xA95 JUMP JUMPDEST SWAP2 POP POP SWAP3 SWAP2 POP POP JUMP JUMPDEST PUSH0 DUP3 DUP3 MSTORE PUSH1 0x20 DUP3 ADD SWAP1 POP SWAP3 SWAP2 POP POP JUMP JUMPDEST PUSH32 0x4E6F2070726F6669747320746F20646973747269627574650000000000000000 PUSH0 DUP3 ADD MSTORE POP JUMP JUMPDEST PUSH0 PUSH2 0xB18 PUSH1 0x18 DUP4 PUSH2 0xAD4 JUMP JUMPDEST SWAP2 POP PUSH2 0xB23 DUP3 PUSH2 0xAE4 JUMP JUMPDEST PUSH1 0x20 DUP3 ADD SWAP1 POP SWAP2 SWAP1 POP JUMP JUMPDEST PUSH0 PUSH1 0x20 DUP3 ADD SWAP1 POP DUP2 DUP2 SUB PUSH0 DUP4 ADD MSTORE PUSH2 0xB45 DUP2 PUSH2 0xB0C JUMP JUMPDEST SWAP1 POP SWAP2 SWAP1 POP JUMP JUMPDEST PUSH32 0x4E487B7100000000000000000000000000000000000000000000000000000000 PUSH0 MSTORE PUSH1 0x11 PUSH1 0x4 MSTORE PUSH1 0x24 PUSH0 REVERT JUMPDEST PUSH0 PUSH2 0xB83 DUP3 PUSH2 0x96A JUMP JUMPDEST SWAP2 POP PUSH2 0xB8E DUP4 PUSH2 0x96A JUMP JUMPDEST SWAP3 POP DUP3 DUP3 MUL PUSH2 0xB9C DUP2 PUSH2 0x96A JUMP JUMPDEST SWAP2 POP DUP3 DUP3 DIV DUP5 EQ DUP4 ISZERO OR PUSH2 0xBB3 JUMPI PUSH2 0xBB2 PUSH2 0xB4C JUMP JUMPDEST JUMPDEST POP SWAP3 SWAP2 POP POP JUMP JUMPDEST PUSH32 0x4E487B7100000000000000000000000000000000000000000000000000000000 PUSH0 MSTORE PUSH1 0x12 PUSH1 0x4 MSTORE PUSH1 0x24 PUSH0 REVERT JUMPDEST PUSH0 PUSH2 0xBF1 DUP3 PUSH2 0x96A JUMP JUMPDEST SWAP2 POP PUSH2 0xBFC DUP4 PUSH2 0x96A JUMP JUMPDEST SWAP3 POP DUP3 PUSH2 0xC0C JUMPI PUSH2 0xC0B PUSH2 0xBBA JUMP JUMPDEST JUMPDEST DUP3 DUP3 DIV SWAP1 POP SWAP3 SWAP2 POP POP JUMP JUMPDEST PUSH0 PUSH2 0xC21 DUP3 PUSH2 0x96A JUMP JUMPDEST SWAP2 POP PUSH2 0xC2C DUP4 PUSH2 0x96A JUMP JUMPDEST SWAP3 POP DUP3 DUP3 ADD SWAP1 POP DUP1 DUP3 GT ISZERO PUSH2 0xC44 JUMPI PUSH2 0xC43 PUSH2 0xB4C JUMP JUMPDEST JUMPDEST SWAP3 SWAP2 POP POP JUMP JUMPDEST PUSH0 PUSH1 0x80 DUP3 ADD SWAP1 POP PUSH2 0xC5D PUSH0 DUP4 ADD DUP8 PUSH2 0x973 JUMP JUMPDEST PUSH2 0xC6A PUSH1 0x20 DUP4 ADD DUP7 PUSH2 0x973 JUMP JUMPDEST PUSH2 0xC77 PUSH1 0x40 DUP4 ADD DUP6 PUSH2 0x973 JUMP JUMPDEST PUSH2 0xC84 PUSH1 0x60 DUP4 ADD DUP5 PUSH2 0x973 JUMP JUMPDEST SWAP6 SWAP5 POP POP POP POP POP JUMP JUMPDEST PUSH0 PUSH1 0x40 DUP3 ADD SWAP1 POP PUSH2 0xCA0 PUSH0 DUP4 ADD DUP6 PUSH2 0x973 JUMP JUMPDEST PUSH2 0xCAD PUSH1 0x20 DUP4 ADD DUP5 PUSH2 0x973 JUMP JUMPDEST SWAP4 SWAP3 POP POP POP JUMP JUMPDEST PUSH32 0x4E6F7420617574686F72697A6564000000000000000000000000000000000000 PUSH0 DUP3 ADD MSTORE POP JUMP JUMPDEST PUSH0 PUSH2 0xCE8 PUSH1 0xE DUP4 PUSH2 0xAD4 JUMP JUMPDEST SWAP2 POP PUSH2 0xCF3 DUP3 PUSH2 0xCB4 JUMP JUMPDEST PUSH1 0x20 DUP3 ADD SWAP1 POP SWAP2 SWAP1 POP JUMP JUMPDEST PUSH0 PUSH1 0x20 DUP3 ADD SWAP1 POP DUP2 DUP2 SUB PUSH0 DUP4 ADD MSTORE PUSH2 0xD15 DUP2 PUSH2 0xCDC JUMP JUMPDEST SWAP1 POP SWAP2 SWAP1 POP JUMP JUMPDEST PUSH32 0x5072697A65207363616C652063616E206F6E6C79206265207570646174656420 PUSH0 DUP3 ADD MSTORE PUSH32 0x6F6E636520706572207765656B00000000000000000000000000000000000000 PUSH1 0x20 DUP3 ADD MSTORE POP JUMP JUMPDEST PUSH0 PUSH2 0xD76 PUSH1 0x2D DUP4 PUSH2 0xAD4 JUMP JUMPDEST SWAP2 POP PUSH2 0xD81 DUP3 PUSH2 0xD1C JUMP JUMPDEST PUSH1 0x40 DUP3 ADD SWAP1 POP SWAP2 SWAP1 POP JUMP JUMPDEST PUSH0 PUSH1 0x20 DUP3 ADD SWAP1 POP DUP2 DUP2 SUB PUSH0 DUP4 ADD MSTORE PUSH2 0xDA3 DUP2 PUSH2 0xD6A JUMP JUMPDEST SWAP1 POP SWAP2 SWAP1 POP JUMP JUMPDEST PUSH32 0x5072697A65207363616C65206D7573742062652067726561746572207468616E PUSH0 DUP3 ADD MSTORE PUSH32 0x207A65726F000000000000000000000000000000000000000000000000000000 PUSH1 0x20 DUP3 ADD MSTORE POP JUMP JUMPDEST PUSH0 PUSH2 0xE04 PUSH1 0x25 DUP4 PUSH2 0xAD4 JUMP JUMPDEST SWAP2 POP PUSH2 0xE0F DUP3 PUSH2 0xDAA JUMP JUMPDEST PUSH1 0x40 DUP3 ADD SWAP1 POP SWAP2 SWAP1 POP JUMP JUMPDEST PUSH0 PUSH1 0x20 DUP3 ADD SWAP1 POP DUP2 DUP2 SUB PUSH0 DUP4 ADD MSTORE PUSH2 0xE31 DUP2 PUSH2 0xDF8 JUMP JUMPDEST SWAP1 POP SWAP2 SWAP1 POP JUMP JUMPDEST PUSH0 DUP2 SWAP1 POP SWAP2 SWAP1 POP JUMP JUMPDEST PUSH0 DUP2 SWAP1 POP SWAP2 SWAP1 POP JUMP JUMPDEST PUSH0 PUSH2 0xE64 PUSH2 0xE5F PUSH2 0xE5A DUP5 PUSH2 0xE38 JUMP JUMPDEST PUSH2 0xE41 JUMP JUMPDEST PUSH2 0x96A JUMP JUMPDEST SWAP1 POP SWAP2 SWAP1 POP JUMP JUMPDEST PUSH2 0xE74 DUP2 PUSH2 0xE4A JUMP JUMPDEST DUP3 MSTORE POP POP JUMP JUMPDEST PUSH0 PUSH1 0x80 DUP3 ADD SWAP1 POP PUSH2 0xE8D PUSH0 DUP4 ADD DUP8 PUSH2 0xE6B JUMP JUMPDEST PUSH2 0xE9A PUSH1 0x20 DUP4 ADD DUP7 PUSH2 0xE6B JUMP JUMPDEST PUSH2 0xEA7 PUSH1 0x40 DUP4 ADD DUP6 PUSH2 0xE6B JUMP JUMPDEST PUSH2 0xEB4 PUSH1 0x60 DUP4 ADD DUP5 PUSH2 0xE6B JUMP JUMPDEST SWAP6 SWAP5 POP POP POP POP POP JUMP INVALID LOG2 PUSH5 0x6970667358 0x22 SLT KECCAK256 0xD7 SWAP4 0xC0 DUP5 0xEC PUSH2 0xAC98 PUSH9 0xC0F6886A702C1ADAA8 0xB7 0xB5 0xBB SWAP4 PUSH27 0xEC4E341AF6797D8F364736F6C634300081C003300000000000000 "
		},
		"gasEstimates": {
			"creation": {
				"codeDepositCost": "765400",
				"executionCost": "infinite",
				"totalCost": "infinite"
			},
			"external": {
				"checkPrizePoolDistribution()": "infinite",
				"developerDividend()": "2471",
				"distributeDeveloperDividends()": "2585",
				"distributeOwnerDividends()": "2488",
				"generateWinners()": "infinite",
				"highPrize()": "2470",
				"lowPrize()": "2515",
				"middlePrize()": "2448",
				"owner()": "2581",
				"ownerDividend()": "2492",
				"prizeScale()": "2514",
				"renounceOwnership()": "infinite",
				"superPrize()": "2449",
				"transferOwnership(address)": "infinite",
				"updatePrizePools(uint256)": "infinite",
				"updatePrizeScale(uint256)": "infinite"
			}
		},
		"methodIdentifiers": {
			"checkPrizePoolDistribution()": "acdcf5f2",
			"developerDividend()": "1934c786",
			"distributeDeveloperDividends()": "1f63000f",
			"distributeOwnerDividends()": "f1a002b1",
			"generateWinners()": "fb5274e5",
			"highPrize()": "7b820b83",
			"lowPrize()": "638ad71d",
			"middlePrize()": "ab4d819f",
			"owner()": "8da5cb5b",
			"ownerDividend()": "cb3ebec2",
			"prizeScale()": "ed22723a",
			"renounceOwnership()": "715018a6",
			"superPrize()": "11a1c8bd",
			"transferOwnership(address)": "f2fde38b",
			"updatePrizePools(uint256)": "9ad97fa0",
			"updatePrizeScale(uint256)": "f2e27b65"
		}
	},
	"abi": [
		{
			"inputs": [
				{
					"internalType": "address",
					"name": "initialOwner",
					"type": "address"
				}
			],
			"stateMutability": "nonpayable",
			"type": "constructor"
		},
		{
			"inputs": [
				{
					"internalType": "address",
					"name": "owner",
					"type": "address"
				}
			],
			"name": "OwnableInvalidOwner",
			"type": "error"
		},
		{
			"inputs": [
				{
					"internalType": "address",
					"name": "account",
					"type": "address"
				}
			],
			"name": "OwnableUnauthorizedAccount",
			"type": "error"
		},
		{
			"anonymous": false,
			"inputs": [
				{
					"indexed": false,
					"internalType": "uint256",
					"name": "ownerDividend",
					"type": "uint256"
				},
				{
					"indexed": false,
					"internalType": "uint256",
					"name": "developerDividend",
					"type": "uint256"
				}
			],
			"name": "DividendsUpdated",
			"type": "event"
		},
		{
			"anonymous": false,
			"inputs": [
				{
					"indexed": true,
					"internalType": "address",
					"name": "previousOwner",
					"type": "address"
				},
				{
					"indexed": true,
					"internalType": "address",
					"name": "newOwner",
					"type": "address"
				}
			],
			"name": "OwnershipTransferred",
			"type": "event"
		},
		{
			"anonymous": false,
			"inputs": [
				{
					"indexed": false,
					"internalType": "uint256",
					"name": "superPrize",
					"type": "uint256"
				},
				{
					"indexed": false,
					"internalType": "uint256",
					"name": "highPrize",
					"type": "uint256"
				},
				{
					"indexed": false,
					"internalType": "uint256",
					"name": "middlePrize",
					"type": "uint256"
				},
				{
					"indexed": false,
					"internalType": "uint256",
					"name": "lowPrize",
					"type": "uint256"
				}
			],
			"name": "PrizePoolsUpdated",
			"type": "event"
		},
		{
			"anonymous": false,
			"inputs": [
				{
					"indexed": false,
					"internalType": "uint256",
					"name": "newPrizeScale",
					"type": "uint256"
				}
			],
			"name": "PrizeScaleUpdated",
			"type": "event"
		},
		{
			"anonymous": false,
			"inputs": [
				{
					"indexed": false,
					"internalType": "uint256",
					"name": "superPrizeWinners",
					"type": "uint256"
				},
				{
					"indexed": false,
					"internalType": "uint256",
					"name": "highPrizeWinners",
					"type": "uint256"
				},
				{
					"indexed": false,
					"internalType": "uint256",
					"name": "middlePrizeWinners",
					"type": "uint256"
				},
				{
					"indexed": false,
					"internalType": "uint256",
					"name": "lowPrizeWinners",
					"type": "uint256"
				}
			],
			"name": "PrizesDistributed",
			"type": "event"
		},
		{
			"inputs": [],
			"name": "checkPrizePoolDistribution",
			"outputs": [
				{
					"internalType": "bool",
					"name": "",
					"type": "bool"
				}
			],
			"stateMutability": "view",
			"type": "function"
		},
		{
			"inputs": [],
			"name": "developerDividend",
			"outputs": [
				{
					"internalType": "uint256",
					"name": "",
					"type": "uint256"
				}
			],
			"stateMutability": "view",
			"type": "function"
		},
		{
			"inputs": [],
			"name": "distributeDeveloperDividends",
			"outputs": [
				{
					"internalType": "bool",
					"name": "",
					"type": "bool"
				}
			],
			"stateMutability": "view",
			"type": "function"
		},
		{
			"inputs": [],
			"name": "distributeOwnerDividends",
			"outputs": [
				{
					"internalType": "bool",
					"name": "",
					"type": "bool"
				}
			],
			"stateMutability": "view",
			"type": "function"
		},
		{
			"inputs": [],
			"name": "generateWinners",
			"outputs": [],
			"stateMutability": "nonpayable",
			"type": "function"
		},
		{
			"inputs": [],
			"name": "highPrize",
			"outputs": [
				{
					"internalType": "uint256",
					"name": "",
					"type": "uint256"
				}
			],
			"stateMutability": "view",
			"type": "function"
		},
		{
			"inputs": [],
			"name": "lowPrize",
			"outputs": [
				{
					"internalType": "uint256",
					"name": "",
					"type": "uint256"
				}
			],
			"stateMutability": "view",
			"type": "function"
		},
		{
			"inputs": [],
			"name": "middlePrize",
			"outputs": [
				{
					"internalType": "uint256",
					"name": "",
					"type": "uint256"
				}
			],
			"stateMutability": "view",
			"type": "function"
		},
		{
			"inputs": [],
			"name": "owner",
			"outputs": [
				{
					"internalType": "address",
					"name": "",
					"type": "address"
				}
			],
			"stateMutability": "view",
			"type": "function"
		},
		{
			"inputs": [],
			"name": "ownerDividend",
			"outputs": [
				{
					"internalType": "uint256",
					"name": "",
					"type": "uint256"
				}
			],
			"stateMutability": "view",
			"type": "function"
		},
		{
			"inputs": [],
			"name": "prizeScale",
			"outputs": [
				{
					"internalType": "uint256",
					"name": "",
					"type": "uint256"
				}
			],
			"stateMutability": "view",
			"type": "function"
		},
		{
			"inputs": [],
			"name": "renounceOwnership",
			"outputs": [],
			"stateMutability": "nonpayable",
			"type": "function"
		},
		{
			"inputs": [],
			"name": "superPrize",
			"outputs": [
				{
					"internalType": "uint256",
					"name": "",
					"type": "uint256"
				}
			],
			"stateMutability": "view",
			"type": "function"
		},
		{
			"inputs": [
				{
					"internalType": "address",
					"name": "newOwner",
					"type": "address"
				}
			],
			"name": "transferOwnership",
			"outputs": [],
			"stateMutability": "nonpayable",
			"type": "function"
		},
		{
			"inputs": [
				{
					"internalType": "uint256",
					"name": "profits",
					"type": "uint256"
				}
			],
			"name": "updatePrizePools",
			"outputs": [],
			"stateMutability": "nonpayable",
			"type": "function"
		},
		{
			"inputs": [
				{
					"internalType": "uint256",
					"name": "newScale",
					"type": "uint256"
				}
			],
			"name": "updatePrizeScale",
			"outputs": [],
			"stateMutability": "nonpayable",
			"type": "function"
		}
	]
}