{
	"data": {
		"bytecode": {
			"linkReferences": {},
			"object": "608060405234801561000f575f5ffd5b5060405161209f38038061209f83398181016040528101906100319190610286565b805f73ffffffffffffffffffffffffffffffffffffffff168173ffffffffffffffffffffffffffffffffffffffff16036100a2575f6040517f1e4fbdf700000000000000000000000000000000000000000000000000000000815260040161009991906102d3565b60405180910390fd5b6100b18161016760201b60201c565b505f73ffffffffffffffffffffffffffffffffffffffff168273ffffffffffffffffffffffffffffffffffffffff1603610120576040517f08c379a000000000000000000000000000000000000000000000000000000000815260040161011790610346565b60405180910390fd5b8160015f6101000a81548173ffffffffffffffffffffffffffffffffffffffff021916908373ffffffffffffffffffffffffffffffffffffffff1602179055505050610364565b5f5f5f9054906101000a900473ffffffffffffffffffffffffffffffffffffffff169050815f5f6101000a81548173ffffffffffffffffffffffffffffffffffffffff021916908373ffffffffffffffffffffffffffffffffffffffff1602179055508173ffffffffffffffffffffffffffffffffffffffff168173ffffffffffffffffffffffffffffffffffffffff167f8be0079c531659141344cd1fd0a4f28419497f9722a3daafe3b4186f6b6457e060405160405180910390a35050565b5f5ffd5b5f73ffffffffffffffffffffffffffffffffffffffff82169050919050565b5f6102558261022c565b9050919050565b6102658161024b565b811461026f575f5ffd5b50565b5f815190506102808161025c565b92915050565b5f5f6040838503121561029c5761029b610228565b5b5f6102a985828601610272565b92505060206102ba85828601610272565b9150509250929050565b6102cd8161024b565b82525050565b5f6020820190506102e65f8301846102c4565b92915050565b5f82825260208201905092915050565b7f496e76616c6964205072697a654d616e616765722061646472657373000000005f82015250565b5f610330601c836102ec565b915061033b826102fc565b602082019050919050565b5f6020820190508181035f83015261035d81610324565b9050919050565b611d2e806103715f395ff3fe608060405234801561000f575f5ffd5b5060043610610156575f3560e01c806389a30271116100c1578063c10753291161007a578063c107532914610361578063c54e44eb1461037d578063de61e2651461039b578063e0bab4c4146103a5578063f2fde38b146103c3578063f9ba9f71146103df57610156565b806389a30271146102b55780638da5cb5b146102d3578063a2da905f146102f1578063a3d111581461030d578063a544594e14610329578063b882ba741461034557610156565b8063556c916611610113578063556c9166146102095780635610eca0146102255780636fdea7311461024157806370ff852b1461025d578063715018a61461028d578063791f96a71461029757610156565b80630594cc4e1461015a57806315d8eeba14610176578063161e5cbd146101945780633d6f4369146101b0578063436d8039146101ce5780634b95f2f4146101ff575b5f5ffd5b610174600480360381019061016f919061165c565b6103fb565b005b61017e61041c565b60405161018b91906116c6565b60405180910390f35b6101ae60048036038101906101a9919061165c565b610434565b005b6101b8610455565b6040516101c591906116c6565b60405180910390f35b6101e860048036038101906101e39190611709565b61047a565b6040516101f6929190611756565b60405180910390f35b6102076104a5565b005b610223600480360381019061021e919061165c565b6105d3565b005b61023f600480360381019061023a919061165c565b6105f4565b005b61025b6004803603810190610256919061165c565b610615565b005b6102776004803603810190610272919061177d565b610636565b60405161028491906117a8565b60405180910390f35b61029561064b565b005b61029f61065e565b6040516102ac91906116c6565b60405180910390f35b6102bd610676565b6040516102ca91906116c6565b60405180910390f35b6102db61068e565b6040516102e891906116c6565b60405180910390f35b61030b600480360381019061030691906117c1565b6106b5565b005b610327600480360381019061032291906117c1565b610ab6565b005b610343600480360381019061033e919061165c565b610ee9565b005b61035f600480360381019061035a919061165c565b610f0a565b005b61037b600480360381019061037691906117c1565b610f2b565b005b6103856111ee565b60405161039291906116c6565b60405180910390f35b6103a3611206565b005b6103ad611419565b6040516103ba91906116c6565b60405180910390f35b6103dd60048036038101906103d8919061177d565b611431565b005b6103f960048036038101906103f4919061165c565b6114b5565b005b6104197357ab1ec28d129707052df4df418d58a2d46d5f5182610ab6565b50565b7357ab1ec28d129707052df4df418d58a2d46d5f5181565b610452736b175474e89094c44da98b954eedeac495271d0f82610ab6565b50565b60015f9054906101000a900473ffffffffffffffffffffffffffffffffffffffff1681565b6002602052815f5260405f20602052805f5260405f205f9150915050805f0154908060010154905082565b6104ad6114d6565b5f5f90505f5f90505b5f73ffffffffffffffffffffffffffffffffffffffff168173ffffffffffffffffffffffffffffffffffffffff1614610598575f60035f8373ffffffffffffffffffffffffffffffffffffffff1673ffffffffffffffffffffffffffffffffffffffff1681526020019081526020015f205490505f811115610583575f60035f8473ffffffffffffffffffffffffffffffffffffffff1673ffffffffffffffffffffffffffffffffffffffff1681526020019081526020015f20819055508083610580919061182c565b92505b50600181610591919061185f565b90506104b6565b507ff23d075c5cc5b1847d8c9fc00e715c38c29dd0db5a6925bfc2a47673c1e7d2b1816040516105c891906117a8565b60405180910390a150565b6105f173a0b86991c6218b36c1d19d4a2e9eb0ce3606eb4882610ab6565b50565b61061273dac17f958d2ee523a2206206994597c13d831ec7826106b5565b50565b61063373dac17f958d2ee523a2206206994597c13d831ec782610ab6565b50565b6003602052805f5260405f205f915090505481565b6106536114d6565b61065c5f61155d565b565b735533ed0a3b83f70c3c4a1f69ef5546d3d4713e4481565b73a0b86991c6218b36c1d19d4a2e9eb0ce3606eb4881565b5f5f5f9054906101000a900473ffffffffffffffffffffffffffffffffffffffff16905090565b73dac17f958d2ee523a2206206994597c13d831ec773ffffffffffffffffffffffffffffffffffffffff168273ffffffffffffffffffffffffffffffffffffffff161480610742575073a0b86991c6218b36c1d19d4a2e9eb0ce3606eb4873ffffffffffffffffffffffffffffffffffffffff168273ffffffffffffffffffffffffffffffffffffffff16145b8061078c5750736b175474e89094c44da98b954eedeac495271d0f73ffffffffffffffffffffffffffffffffffffffff168273ffffffffffffffffffffffffffffffffffffffff16145b806107d657507357ab1ec28d129707052df4df418d58a2d46d5f5173ffffffffffffffffffffffffffffffffffffffff168273ffffffffffffffffffffffffffffffffffffffff16145b610815576040517f08c379a000000000000000000000000000000000000000000000000000000000815260040161080c90611900565b60405180910390fd5b5f8111610857576040517f08c379a000000000000000000000000000000000000000000000000000000000815260040161084e90611968565b60405180910390fd5b8173ffffffffffffffffffffffffffffffffffffffff166323b872dd3330846040518463ffffffff1660e01b815260040161089493929190611986565b6020604051808303815f875af11580156108b0573d5f5f3e3d5ffd5b505050506040513d601f19601f820116820180604052508101906108d491906119f0565b508173ffffffffffffffffffffffffffffffffffffffff1663095ea7b3735533ed0a3b83f70c3c4a1f69ef5546d3d4713e44836040518363ffffffff1660e01b8152600401610924929190611a1b565b6020604051808303815f875af1158015610940573d5f5f3e3d5ffd5b505050506040513d601f19601f8201168201806040525081019061096491906119f0565b50735533ed0a3b83f70c3c4a1f69ef5546d3d4713e4473ffffffffffffffffffffffffffffffffffffffff1663b6b55f25826040518263ffffffff1660e01b81526004016109b291906117a8565b5f604051808303815f87803b1580156109c9575f5ffd5b505af11580156109db573d5f5f3e3d5ffd5b505050505f68056bc75e2d63100000826109f59190611a42565b90508060035f3373ffffffffffffffffffffffffffffffffffffffff1673ffffffffffffffffffffffffffffffffffffffff1681526020019081526020015f205f828254610a43919061182c565b925050819055508273ffffffffffffffffffffffffffffffffffffffff163373ffffffffffffffffffffffffffffffffffffffff167f4322cf7bb5bdb39c0e2ffb7af737e3569d51766de459df25281823ffa30b46858484604051610aa9929190611756565b60405180910390a3505050565b73dac17f958d2ee523a2206206994597c13d831ec773ffffffffffffffffffffffffffffffffffffffff168273ffffffffffffffffffffffffffffffffffffffff161480610b43575073a0b86991c6218b36c1d19d4a2e9eb0ce3606eb4873ffffffffffffffffffffffffffffffffffffffff168273ffffffffffffffffffffffffffffffffffffffff16145b80610b8d5750736b175474e89094c44da98b954eedeac495271d0f73ffffffffffffffffffffffffffffffffffffffff168273ffffffffffffffffffffffffffffffffffffffff16145b80610bd757507357ab1ec28d129707052df4df418d58a2d46d5f5173ffffffffffffffffffffffffffffffffffffffff168273ffffffffffffffffffffffffffffffffffffffff16145b610c16576040517f08c379a0000000000000000000000000000000000000000000000000000000008152600401610c0d90611900565b60405180910390fd5b5f8111610c58576040517f08c379a0000000000000000000000000000000000000000000000000000000008152600401610c4f90611968565b60405180910390fd5b5f60025f3373ffffffffffffffffffffffffffffffffffffffff1673ffffffffffffffffffffffffffffffffffffffff1681526020019081526020015f205f8473ffffffffffffffffffffffffffffffffffffffff1673ffffffffffffffffffffffffffffffffffffffff1681526020019081526020015f20905081815f015f828254610ce5919061182c565b925050819055504281600101819055508273ffffffffffffffffffffffffffffffffffffffff166323b872dd3330856040518463ffffffff1660e01b8152600401610d3293929190611986565b6020604051808303815f875af1158015610d4e573d5f5f3e3d5ffd5b505050506040513d601f19601f82011682018060405250810190610d7291906119f0565b508273ffffffffffffffffffffffffffffffffffffffff1663095ea7b3735533ed0a3b83f70c3c4a1f69ef5546d3d4713e44846040518363ffffffff1660e01b8152600401610dc2929190611a1b565b6020604051808303815f875af1158015610dde573d5f5f3e3d5ffd5b505050506040513d601f19601f82011682018060405250810190610e0291906119f0565b50735533ed0a3b83f70c3c4a1f69ef5546d3d4713e4473ffffffffffffffffffffffffffffffffffffffff1663b6b55f25836040518263ffffffff1660e01b8152600401610e5091906117a8565b5f604051808303815f87803b158015610e67575f5ffd5b505af1158015610e79573d5f5f3e3d5ffd5b505050508273ffffffffffffffffffffffffffffffffffffffff163373ffffffffffffffffffffffffffffffffffffffff167f57bad7e3c9efecf6e1f60bbd846b999e9da4a409224287a8df09779f2330135e8442604051610edc929190611756565b60405180910390a3505050565b610f07736b175474e89094c44da98b954eedeac495271d0f826106b5565b50565b610f287357ab1ec28d129707052df4df418d58a2d46d5f51826106b5565b50565b5f60025f3373ffffffffffffffffffffffffffffffffffffffff1673ffffffffffffffffffffffffffffffffffffffff1681526020019081526020015f205f8473ffffffffffffffffffffffffffffffffffffffff1673ffffffffffffffffffffffffffffffffffffffff1681526020019081526020015f20905081815f01541015610fec576040517f08c379a0000000000000000000000000000000000000000000000000000000008152600401610fe390611acd565b60405180910390fd5b62093a808160010154610fff919061182c565b421015611041576040517f08c379a000000000000000000000000000000000000000000000000000000000815260040161103890611b35565b60405180910390fd5b81815f015f8282546110539190611b53565b925050819055505f81600101544261106b9190611b53565b90505f670de0b6b3a7640000846301e13380670de0b6b3a76400006110909190611bb3565b8461109b9190611a42565b6110a59190611a42565b6110af9190611bb3565b90508060035f3373ffffffffffffffffffffffffffffffffffffffff1673ffffffffffffffffffffffffffffffffffffffff1681526020019081526020015f205f8282546110fd919061182c565b925050819055508473ffffffffffffffffffffffffffffffffffffffff1663a9059cbb33866040518363ffffffff1660e01b815260040161113f929190611a1b565b6020604051808303815f875af115801561115b573d5f5f3e3d5ffd5b505050506040513d601f19601f8201168201806040525081019061117f91906119f0565b508473ffffffffffffffffffffffffffffffffffffffff163373ffffffffffffffffffffffffffffffffffffffff167fe01911a56be554fae2e8c04ebcc1c56c757ce4583c883b878180a6ce99fc8a0986846040516111df929190611756565b60405180910390a35050505050565b73dac17f958d2ee523a2206206994597c13d831ec781565b61120e6114d6565b5f735533ed0a3b83f70c3c4a1f69ef5546d3d4713e4473ffffffffffffffffffffffffffffffffffffffff1663c600e1dc306040518263ffffffff1660e01b815260040161125c91906116c6565b602060405180830381865afa158015611277573d5f5f3e3d5ffd5b505050506040513d601f19601f8201168201806040525081019061129b9190611bf7565b90505f735533ed0a3b83f70c3c4a1f69ef5546d3d4713e4473ffffffffffffffffffffffffffffffffffffffff166370a08231306040518263ffffffff1660e01b81526004016112eb91906116c6565b602060405180830381865afa158015611306573d5f5f3e3d5ffd5b505050506040513d601f19601f8201168201806040525081019061132a9190611bf7565b90505f606460328461133c9190611a42565b6113469190611bb3565b905060015f9054906101000a900473ffffffffffffffffffffffffffffffffffffffff1673ffffffffffffffffffffffffffffffffffffffff1663a975b8928484846040518463ffffffff1660e01b81526004016113a693929190611c22565b5f604051808303815f87803b1580156113bd575f5ffd5b505af11580156113cf573d5f5f3e3d5ffd5b505050507f8eaaff2ba16da1160fd06ccb389b317b1eeba725461562003201a60ae6cb975082845f5f5f5f60405161140c96959493929190611c99565b60405180910390a1505050565b736b175474e89094c44da98b954eedeac495271d0f81565b6114396114d6565b5f73ffffffffffffffffffffffffffffffffffffffff168173ffffffffffffffffffffffffffffffffffffffff16036114a9575f6040517f1e4fbdf70000000000000000000000000000000000000000000000000000000081526004016114a091906116c6565b60405180910390fd5b6114b28161155d565b50565b6114d373a0b86991c6218b36c1d19d4a2e9eb0ce3606eb48826106b5565b50565b6114de61161e565b73ffffffffffffffffffffffffffffffffffffffff166114fc61068e565b73ffffffffffffffffffffffffffffffffffffffff161461155b5761151f61161e565b6040517f118cdaa700000000000000000000000000000000000000000000000000000000815260040161155291906116c6565b60405180910390fd5b565b5f5f5f9054906101000a900473ffffffffffffffffffffffffffffffffffffffff169050815f5f6101000a81548173ffffffffffffffffffffffffffffffffffffffff021916908373ffffffffffffffffffffffffffffffffffffffff1602179055508173ffffffffffffffffffffffffffffffffffffffff168173ffffffffffffffffffffffffffffffffffffffff167f8be0079c531659141344cd1fd0a4f28419497f9722a3daafe3b4186f6b6457e060405160405180910390a35050565b5f33905090565b5f5ffd5b5f819050919050565b61163b81611629565b8114611645575f5ffd5b50565b5f8135905061165681611632565b92915050565b5f6020828403121561167157611670611625565b5b5f61167e84828501611648565b91505092915050565b5f73ffffffffffffffffffffffffffffffffffffffff82169050919050565b5f6116b082611687565b9050919050565b6116c0816116a6565b82525050565b5f6020820190506116d95f8301846116b7565b92915050565b6116e8816116a6565b81146116f2575f5ffd5b50565b5f81359050611703816116df565b92915050565b5f5f6040838503121561171f5761171e611625565b5b5f61172c858286016116f5565b925050602061173d858286016116f5565b9150509250929050565b61175081611629565b82525050565b5f6040820190506117695f830185611747565b6117766020830184611747565b9392505050565b5f6020828403121561179257611791611625565b5b5f61179f848285016116f5565b91505092915050565b5f6020820190506117bb5f830184611747565b92915050565b5f5f604083850312156117d7576117d6611625565b5b5f6117e4858286016116f5565b92505060206117f585828601611648565b9150509250929050565b7f4e487b71000000000000000000000000000000000000000000000000000000005f52601160045260245ffd5b5f61183682611629565b915061184183611629565b9250828201905080821115611859576118586117ff565b5b92915050565b5f61186982611687565b915061187483611687565b9250828201905073ffffffffffffffffffffffffffffffffffffffff8111156118a05761189f6117ff565b5b92915050565b5f82825260208201905092915050565b7f556e737570706f7274656420746f6b656e0000000000000000000000000000005f82015250565b5f6118ea6011836118a6565b91506118f5826118b6565b602082019050919050565b5f6020820190508181035f830152611917816118de565b9050919050565b7f416d6f756e74206d7573742062652067726561746572207468616e207a65726f5f82015250565b5f6119526020836118a6565b915061195d8261191e565b602082019050919050565b5f6020820190508181035f83015261197f81611946565b9050919050565b5f6060820190506119995f8301866116b7565b6119a660208301856116b7565b6119b36040830184611747565b949350505050565b5f8115159050919050565b6119cf816119bb565b81146119d9575f5ffd5b50565b5f815190506119ea816119c6565b92915050565b5f60208284031215611a0557611a04611625565b5b5f611a12848285016119dc565b91505092915050565b5f604082019050611a2e5f8301856116b7565b611a3b6020830184611747565b9392505050565b5f611a4c82611629565b9150611a5783611629565b9250828202611a6581611629565b91508282048414831517611a7c57611a7b6117ff565b5b5092915050565b7f496e73756666696369656e742062616c616e63650000000000000000000000005f82015250565b5f611ab76014836118a6565b9150611ac282611a83565b602082019050919050565b5f6020820190508181035f830152611ae481611aab565b9050919050565b7f5769746864726177616c206c6f636b656420666f7220372064617973000000005f82015250565b5f611b1f601c836118a6565b9150611b2a82611aeb565b602082019050919050565b5f6020820190508181035f830152611b4c81611b13565b9050919050565b5f611b5d82611629565b9150611b6883611629565b9250828203905081811115611b8057611b7f6117ff565b5b92915050565b7f4e487b71000000000000000000000000000000000000000000000000000000005f52601260045260245ffd5b5f611bbd82611629565b9150611bc883611629565b925082611bd857611bd7611b86565b5b828204905092915050565b5f81519050611bf181611632565b92915050565b5f60208284031215611c0c57611c0b611625565b5b5f611c1984828501611be3565b91505092915050565b5f606082019050611c355f830186611747565b611c426020830185611747565b611c4f6040830184611747565b949350505050565b5f819050919050565b5f819050919050565b5f611c83611c7e611c7984611c57565b611c60565b611629565b9050919050565b611c9381611c69565b82525050565b5f60c082019050611cac5f830189611747565b611cb96020830188611747565b611cc66040830187611c8a565b611cd36060830186611c8a565b611ce06080830185611c8a565b611ced60a0830184611c8a565b97965050505050505056fea264697066735822122069fe46ab80ef27d5443065dd3058e1d19517971d27c3a72db4eec49e7d740f7264736f6c634300081c0033",
			"opcodes": "PUSH1 0x80 PUSH1 0x40 MSTORE CALLVALUE DUP1 ISZERO PUSH2 0xF JUMPI PUSH0 PUSH0 REVERT JUMPDEST POP PUSH1 0x40 MLOAD PUSH2 0x209F CODESIZE SUB DUP1 PUSH2 0x209F DUP4 CODECOPY DUP2 DUP2 ADD PUSH1 0x40 MSTORE DUP2 ADD SWAP1 PUSH2 0x31 SWAP2 SWAP1 PUSH2 0x286 JUMP JUMPDEST DUP1 PUSH0 PUSH20 0xFFFFFFFFFFFFFFFFFFFFFFFFFFFFFFFFFFFFFFFF AND DUP2 PUSH20 0xFFFFFFFFFFFFFFFFFFFFFFFFFFFFFFFFFFFFFFFF AND SUB PUSH2 0xA2 JUMPI PUSH0 PUSH1 0x40 MLOAD PUSH32 0x1E4FBDF700000000000000000000000000000000000000000000000000000000 DUP2 MSTORE PUSH1 0x4 ADD PUSH2 0x99 SWAP2 SWAP1 PUSH2 0x2D3 JUMP JUMPDEST PUSH1 0x40 MLOAD DUP1 SWAP2 SUB SWAP1 REVERT JUMPDEST PUSH2 0xB1 DUP2 PUSH2 0x167 PUSH1 0x20 SHL PUSH1 0x20 SHR JUMP JUMPDEST POP PUSH0 PUSH20 0xFFFFFFFFFFFFFFFFFFFFFFFFFFFFFFFFFFFFFFFF AND DUP3 PUSH20 0xFFFFFFFFFFFFFFFFFFFFFFFFFFFFFFFFFFFFFFFF AND SUB PUSH2 0x120 JUMPI PUSH1 0x40 MLOAD PUSH32 0x8C379A000000000000000000000000000000000000000000000000000000000 DUP2 MSTORE PUSH1 0x4 ADD PUSH2 0x117 SWAP1 PUSH2 0x346 JUMP JUMPDEST PUSH1 0x40 MLOAD DUP1 SWAP2 SUB SWAP1 REVERT JUMPDEST DUP2 PUSH1 0x1 PUSH0 PUSH2 0x100 EXP DUP2 SLOAD DUP2 PUSH20 0xFFFFFFFFFFFFFFFFFFFFFFFFFFFFFFFFFFFFFFFF MUL NOT AND SWAP1 DUP4 PUSH20 0xFFFFFFFFFFFFFFFFFFFFFFFFFFFFFFFFFFFFFFFF AND MUL OR SWAP1 SSTORE POP POP POP PUSH2 0x364 JUMP JUMPDEST PUSH0 PUSH0 PUSH0 SWAP1 SLOAD SWAP1 PUSH2 0x100 EXP SWAP1 DIV PUSH20 0xFFFFFFFFFFFFFFFFFFFFFFFFFFFFFFFFFFFFFFFF AND SWAP1 POP DUP2 PUSH0 PUSH0 PUSH2 0x100 EXP DUP2 SLOAD DUP2 PUSH20 0xFFFFFFFFFFFFFFFFFFFFFFFFFFFFFFFFFFFFFFFF MUL NOT AND SWAP1 DUP4 PUSH20 0xFFFFFFFFFFFFFFFFFFFFFFFFFFFFFFFFFFFFFFFF AND MUL OR SWAP1 SSTORE POP DUP2 PUSH20 0xFFFFFFFFFFFFFFFFFFFFFFFFFFFFFFFFFFFFFFFF AND DUP2 PUSH20 0xFFFFFFFFFFFFFFFFFFFFFFFFFFFFFFFFFFFFFFFF AND PUSH32 0x8BE0079C531659141344CD1FD0A4F28419497F9722A3DAAFE3B4186F6B6457E0 PUSH1 0x40 MLOAD PUSH1 0x40 MLOAD DUP1 SWAP2 SUB SWAP1 LOG3 POP POP JUMP JUMPDEST PUSH0 PUSH0 REVERT JUMPDEST PUSH0 PUSH20 0xFFFFFFFFFFFFFFFFFFFFFFFFFFFFFFFFFFFFFFFF DUP3 AND SWAP1 POP SWAP2 SWAP1 POP JUMP JUMPDEST PUSH0 PUSH2 0x255 DUP3 PUSH2 0x22C JUMP JUMPDEST SWAP1 POP SWAP2 SWAP1 POP JUMP JUMPDEST PUSH2 0x265 DUP2 PUSH2 0x24B JUMP JUMPDEST DUP2 EQ PUSH2 0x26F JUMPI PUSH0 PUSH0 REVERT JUMPDEST POP JUMP JUMPDEST PUSH0 DUP2 MLOAD SWAP1 POP PUSH2 0x280 DUP2 PUSH2 0x25C JUMP JUMPDEST SWAP3 SWAP2 POP POP JUMP JUMPDEST PUSH0 PUSH0 PUSH1 0x40 DUP4 DUP6 SUB SLT ISZERO PUSH2 0x29C JUMPI PUSH2 0x29B PUSH2 0x228 JUMP JUMPDEST JUMPDEST PUSH0 PUSH2 0x2A9 DUP6 DUP3 DUP7 ADD PUSH2 0x272 JUMP JUMPDEST SWAP3 POP POP PUSH1 0x20 PUSH2 0x2BA DUP6 DUP3 DUP7 ADD PUSH2 0x272 JUMP JUMPDEST SWAP2 POP POP SWAP3 POP SWAP3 SWAP1 POP JUMP JUMPDEST PUSH2 0x2CD DUP2 PUSH2 0x24B JUMP JUMPDEST DUP3 MSTORE POP POP JUMP JUMPDEST PUSH0 PUSH1 0x20 DUP3 ADD SWAP1 POP PUSH2 0x2E6 PUSH0 DUP4 ADD DUP5 PUSH2 0x2C4 JUMP JUMPDEST SWAP3 SWAP2 POP POP JUMP JUMPDEST PUSH0 DUP3 DUP3 MSTORE PUSH1 0x20 DUP3 ADD SWAP1 POP SWAP3 SWAP2 POP POP JUMP JUMPDEST PUSH32 0x496E76616C6964205072697A654D616E61676572206164647265737300000000 PUSH0 DUP3 ADD MSTORE POP JUMP JUMPDEST PUSH0 PUSH2 0x330 PUSH1 0x1C DUP4 PUSH2 0x2EC JUMP JUMPDEST SWAP2 POP PUSH2 0x33B DUP3 PUSH2 0x2FC JUMP JUMPDEST PUSH1 0x20 DUP3 ADD SWAP1 POP SWAP2 SWAP1 POP JUMP JUMPDEST PUSH0 PUSH1 0x20 DUP3 ADD SWAP1 POP DUP2 DUP2 SUB PUSH0 DUP4 ADD MSTORE PUSH2 0x35D DUP2 PUSH2 0x324 JUMP JUMPDEST SWAP1 POP SWAP2 SWAP1 POP JUMP JUMPDEST PUSH2 0x1D2E DUP1 PUSH2 0x371 PUSH0 CODECOPY PUSH0 RETURN INVALID PUSH1 0x80 PUSH1 0x40 MSTORE CALLVALUE DUP1 ISZERO PUSH2 0xF JUMPI PUSH0 PUSH0 REVERT JUMPDEST POP PUSH1 0x4 CALLDATASIZE LT PUSH2 0x156 JUMPI PUSH0 CALLDATALOAD PUSH1 0xE0 SHR DUP1 PUSH4 0x89A30271 GT PUSH2 0xC1 JUMPI DUP1 PUSH4 0xC1075329 GT PUSH2 0x7A JUMPI DUP1 PUSH4 0xC1075329 EQ PUSH2 0x361 JUMPI DUP1 PUSH4 0xC54E44EB EQ PUSH2 0x37D JUMPI DUP1 PUSH4 0xDE61E265 EQ PUSH2 0x39B JUMPI DUP1 PUSH4 0xE0BAB4C4 EQ PUSH2 0x3A5 JUMPI DUP1 PUSH4 0xF2FDE38B EQ PUSH2 0x3C3 JUMPI DUP1 PUSH4 0xF9BA9F71 EQ PUSH2 0x3DF JUMPI PUSH2 0x156 JUMP JUMPDEST DUP1 PUSH4 0x89A30271 EQ PUSH2 0x2B5 JUMPI DUP1 PUSH4 0x8DA5CB5B EQ PUSH2 0x2D3 JUMPI DUP1 PUSH4 0xA2DA905F EQ PUSH2 0x2F1 JUMPI DUP1 PUSH4 0xA3D11158 EQ PUSH2 0x30D JUMPI DUP1 PUSH4 0xA544594E EQ PUSH2 0x329 JUMPI DUP1 PUSH4 0xB882BA74 EQ PUSH2 0x345 JUMPI PUSH2 0x156 JUMP JUMPDEST DUP1 PUSH4 0x556C9166 GT PUSH2 0x113 JUMPI DUP1 PUSH4 0x556C9166 EQ PUSH2 0x209 JUMPI DUP1 PUSH4 0x5610ECA0 EQ PUSH2 0x225 JUMPI DUP1 PUSH4 0x6FDEA731 EQ PUSH2 0x241 JUMPI DUP1 PUSH4 0x70FF852B EQ PUSH2 0x25D JUMPI DUP1 PUSH4 0x715018A6 EQ PUSH2 0x28D JUMPI DUP1 PUSH4 0x791F96A7 EQ PUSH2 0x297 JUMPI PUSH2 0x156 JUMP JUMPDEST DUP1 PUSH4 0x594CC4E EQ PUSH2 0x15A JUMPI DUP1 PUSH4 0x15D8EEBA EQ PUSH2 0x176 JUMPI DUP1 PUSH4 0x161E5CBD EQ PUSH2 0x194 JUMPI DUP1 PUSH4 0x3D6F4369 EQ PUSH2 0x1B0 JUMPI DUP1 PUSH4 0x436D8039 EQ PUSH2 0x1CE JUMPI DUP1 PUSH4 0x4B95F2F4 EQ PUSH2 0x1FF JUMPI JUMPDEST PUSH0 PUSH0 REVERT JUMPDEST PUSH2 0x174 PUSH1 0x4 DUP1 CALLDATASIZE SUB DUP2 ADD SWAP1 PUSH2 0x16F SWAP2 SWAP1 PUSH2 0x165C JUMP JUMPDEST PUSH2 0x3FB JUMP JUMPDEST STOP JUMPDEST PUSH2 0x17E PUSH2 0x41C JUMP JUMPDEST PUSH1 0x40 MLOAD PUSH2 0x18B SWAP2 SWAP1 PUSH2 0x16C6 JUMP JUMPDEST PUSH1 0x40 MLOAD DUP1 SWAP2 SUB SWAP1 RETURN JUMPDEST PUSH2 0x1AE PUSH1 0x4 DUP1 CALLDATASIZE SUB DUP2 ADD SWAP1 PUSH2 0x1A9 SWAP2 SWAP1 PUSH2 0x165C JUMP JUMPDEST PUSH2 0x434 JUMP JUMPDEST STOP JUMPDEST PUSH2 0x1B8 PUSH2 0x455 JUMP JUMPDEST PUSH1 0x40 MLOAD PUSH2 0x1C5 SWAP2 SWAP1 PUSH2 0x16C6 JUMP JUMPDEST PUSH1 0x40 MLOAD DUP1 SWAP2 SUB SWAP1 RETURN JUMPDEST PUSH2 0x1E8 PUSH1 0x4 DUP1 CALLDATASIZE SUB DUP2 ADD SWAP1 PUSH2 0x1E3 SWAP2 SWAP1 PUSH2 0x1709 JUMP JUMPDEST PUSH2 0x47A JUMP JUMPDEST PUSH1 0x40 MLOAD PUSH2 0x1F6 SWAP3 SWAP2 SWAP1 PUSH2 0x1756 JUMP JUMPDEST PUSH1 0x40 MLOAD DUP1 SWAP2 SUB SWAP1 RETURN JUMPDEST PUSH2 0x207 PUSH2 0x4A5 JUMP JUMPDEST STOP JUMPDEST PUSH2 0x223 PUSH1 0x4 DUP1 CALLDATASIZE SUB DUP2 ADD SWAP1 PUSH2 0x21E SWAP2 SWAP1 PUSH2 0x165C JUMP JUMPDEST PUSH2 0x5D3 JUMP JUMPDEST STOP JUMPDEST PUSH2 0x23F PUSH1 0x4 DUP1 CALLDATASIZE SUB DUP2 ADD SWAP1 PUSH2 0x23A SWAP2 SWAP1 PUSH2 0x165C JUMP JUMPDEST PUSH2 0x5F4 JUMP JUMPDEST STOP JUMPDEST PUSH2 0x25B PUSH1 0x4 DUP1 CALLDATASIZE SUB DUP2 ADD SWAP1 PUSH2 0x256 SWAP2 SWAP1 PUSH2 0x165C JUMP JUMPDEST PUSH2 0x615 JUMP JUMPDEST STOP JUMPDEST PUSH2 0x277 PUSH1 0x4 DUP1 CALLDATASIZE SUB DUP2 ADD SWAP1 PUSH2 0x272 SWAP2 SWAP1 PUSH2 0x177D JUMP JUMPDEST PUSH2 0x636 JUMP JUMPDEST PUSH1 0x40 MLOAD PUSH2 0x284 SWAP2 SWAP1 PUSH2 0x17A8 JUMP JUMPDEST PUSH1 0x40 MLOAD DUP1 SWAP2 SUB SWAP1 RETURN JUMPDEST PUSH2 0x295 PUSH2 0x64B JUMP JUMPDEST STOP JUMPDEST PUSH2 0x29F PUSH2 0x65E JUMP JUMPDEST PUSH1 0x40 MLOAD PUSH2 0x2AC SWAP2 SWAP1 PUSH2 0x16C6 JUMP JUMPDEST PUSH1 0x40 MLOAD DUP1 SWAP2 SUB SWAP1 RETURN JUMPDEST PUSH2 0x2BD PUSH2 0x676 JUMP JUMPDEST PUSH1 0x40 MLOAD PUSH2 0x2CA SWAP2 SWAP1 PUSH2 0x16C6 JUMP JUMPDEST PUSH1 0x40 MLOAD DUP1 SWAP2 SUB SWAP1 RETURN JUMPDEST PUSH2 0x2DB PUSH2 0x68E JUMP JUMPDEST PUSH1 0x40 MLOAD PUSH2 0x2E8 SWAP2 SWAP1 PUSH2 0x16C6 JUMP JUMPDEST PUSH1 0x40 MLOAD DUP1 SWAP2 SUB SWAP1 RETURN JUMPDEST PUSH2 0x30B PUSH1 0x4 DUP1 CALLDATASIZE SUB DUP2 ADD SWAP1 PUSH2 0x306 SWAP2 SWAP1 PUSH2 0x17C1 JUMP JUMPDEST PUSH2 0x6B5 JUMP JUMPDEST STOP JUMPDEST PUSH2 0x327 PUSH1 0x4 DUP1 CALLDATASIZE SUB DUP2 ADD SWAP1 PUSH2 0x322 SWAP2 SWAP1 PUSH2 0x17C1 JUMP JUMPDEST PUSH2 0xAB6 JUMP JUMPDEST STOP JUMPDEST PUSH2 0x343 PUSH1 0x4 DUP1 CALLDATASIZE SUB DUP2 ADD SWAP1 PUSH2 0x33E SWAP2 SWAP1 PUSH2 0x165C JUMP JUMPDEST PUSH2 0xEE9 JUMP JUMPDEST STOP JUMPDEST PUSH2 0x35F PUSH1 0x4 DUP1 CALLDATASIZE SUB DUP2 ADD SWAP1 PUSH2 0x35A SWAP2 SWAP1 PUSH2 0x165C JUMP JUMPDEST PUSH2 0xF0A JUMP JUMPDEST STOP JUMPDEST PUSH2 0x37B PUSH1 0x4 DUP1 CALLDATASIZE SUB DUP2 ADD SWAP1 PUSH2 0x376 SWAP2 SWAP1 PUSH2 0x17C1 JUMP JUMPDEST PUSH2 0xF2B JUMP JUMPDEST STOP JUMPDEST PUSH2 0x385 PUSH2 0x11EE JUMP JUMPDEST PUSH1 0x40 MLOAD PUSH2 0x392 SWAP2 SWAP1 PUSH2 0x16C6 JUMP JUMPDEST PUSH1 0x40 MLOAD DUP1 SWAP2 SUB SWAP1 RETURN JUMPDEST PUSH2 0x3A3 PUSH2 0x1206 JUMP JUMPDEST STOP JUMPDEST PUSH2 0x3AD PUSH2 0x1419 JUMP JUMPDEST PUSH1 0x40 MLOAD PUSH2 0x3BA SWAP2 SWAP1 PUSH2 0x16C6 JUMP JUMPDEST PUSH1 0x40 MLOAD DUP1 SWAP2 SUB SWAP1 RETURN JUMPDEST PUSH2 0x3DD PUSH1 0x4 DUP1 CALLDATASIZE SUB DUP2 ADD SWAP1 PUSH2 0x3D8 SWAP2 SWAP1 PUSH2 0x177D JUMP JUMPDEST PUSH2 0x1431 JUMP JUMPDEST STOP JUMPDEST PUSH2 0x3F9 PUSH1 0x4 DUP1 CALLDATASIZE SUB DUP2 ADD SWAP1 PUSH2 0x3F4 SWAP2 SWAP1 PUSH2 0x165C JUMP JUMPDEST PUSH2 0x14B5 JUMP JUMPDEST STOP JUMPDEST PUSH2 0x419 PUSH20 0x57AB1EC28D129707052DF4DF418D58A2D46D5F51 DUP3 PUSH2 0xAB6 JUMP JUMPDEST POP JUMP JUMPDEST PUSH20 0x57AB1EC28D129707052DF4DF418D58A2D46D5F51 DUP2 JUMP JUMPDEST PUSH2 0x452 PUSH20 0x6B175474E89094C44DA98B954EEDEAC495271D0F DUP3 PUSH2 0xAB6 JUMP JUMPDEST POP JUMP JUMPDEST PUSH1 0x1 PUSH0 SWAP1 SLOAD SWAP1 PUSH2 0x100 EXP SWAP1 DIV PUSH20 0xFFFFFFFFFFFFFFFFFFFFFFFFFFFFFFFFFFFFFFFF AND DUP2 JUMP JUMPDEST PUSH1 0x2 PUSH1 0x20 MSTORE DUP2 PUSH0 MSTORE PUSH1 0x40 PUSH0 KECCAK256 PUSH1 0x20 MSTORE DUP1 PUSH0 MSTORE PUSH1 0x40 PUSH0 KECCAK256 PUSH0 SWAP2 POP SWAP2 POP POP DUP1 PUSH0 ADD SLOAD SWAP1 DUP1 PUSH1 0x1 ADD SLOAD SWAP1 POP DUP3 JUMP JUMPDEST PUSH2 0x4AD PUSH2 0x14D6 JUMP JUMPDEST PUSH0 PUSH0 SWAP1 POP PUSH0 PUSH0 SWAP1 POP JUMPDEST PUSH0 PUSH20 0xFFFFFFFFFFFFFFFFFFFFFFFFFFFFFFFFFFFFFFFF AND DUP2 PUSH20 0xFFFFFFFFFFFFFFFFFFFFFFFFFFFFFFFFFFFFFFFF AND EQ PUSH2 0x598 JUMPI PUSH0 PUSH1 0x3 PUSH0 DUP4 PUSH20 0xFFFFFFFFFFFFFFFFFFFFFFFFFFFFFFFFFFFFFFFF AND PUSH20 0xFFFFFFFFFFFFFFFFFFFFFFFFFFFFFFFFFFFFFFFF AND DUP2 MSTORE PUSH1 0x20 ADD SWAP1 DUP2 MSTORE PUSH1 0x20 ADD PUSH0 KECCAK256 SLOAD SWAP1 POP PUSH0 DUP2 GT ISZERO PUSH2 0x583 JUMPI PUSH0 PUSH1 0x3 PUSH0 DUP5 PUSH20 0xFFFFFFFFFFFFFFFFFFFFFFFFFFFFFFFFFFFFFFFF AND PUSH20 0xFFFFFFFFFFFFFFFFFFFFFFFFFFFFFFFFFFFFFFFF AND DUP2 MSTORE PUSH1 0x20 ADD SWAP1 DUP2 MSTORE PUSH1 0x20 ADD PUSH0 KECCAK256 DUP2 SWAP1 SSTORE POP DUP1 DUP4 PUSH2 0x580 SWAP2 SWAP1 PUSH2 0x182C JUMP JUMPDEST SWAP3 POP JUMPDEST POP PUSH1 0x1 DUP2 PUSH2 0x591 SWAP2 SWAP1 PUSH2 0x185F JUMP JUMPDEST SWAP1 POP PUSH2 0x4B6 JUMP JUMPDEST POP PUSH32 0xF23D075C5CC5B1847D8C9FC00E715C38C29DD0DB5A6925BFC2A47673C1E7D2B1 DUP2 PUSH1 0x40 MLOAD PUSH2 0x5C8 SWAP2 SWAP1 PUSH2 0x17A8 JUMP JUMPDEST PUSH1 0x40 MLOAD DUP1 SWAP2 SUB SWAP1 LOG1 POP JUMP JUMPDEST PUSH2 0x5F1 PUSH20 0xA0B86991C6218B36C1D19D4A2E9EB0CE3606EB48 DUP3 PUSH2 0xAB6 JUMP JUMPDEST POP JUMP JUMPDEST PUSH2 0x612 PUSH20 0xDAC17F958D2EE523A2206206994597C13D831EC7 DUP3 PUSH2 0x6B5 JUMP JUMPDEST POP JUMP JUMPDEST PUSH2 0x633 PUSH20 0xDAC17F958D2EE523A2206206994597C13D831EC7 DUP3 PUSH2 0xAB6 JUMP JUMPDEST POP JUMP JUMPDEST PUSH1 0x3 PUSH1 0x20 MSTORE DUP1 PUSH0 MSTORE PUSH1 0x40 PUSH0 KECCAK256 PUSH0 SWAP2 POP SWAP1 POP SLOAD DUP2 JUMP JUMPDEST PUSH2 0x653 PUSH2 0x14D6 JUMP JUMPDEST PUSH2 0x65C PUSH0 PUSH2 0x155D JUMP JUMPDEST JUMP JUMPDEST PUSH20 0x5533ED0A3B83F70C3C4A1F69EF5546D3D4713E44 DUP2 JUMP JUMPDEST PUSH20 0xA0B86991C6218B36C1D19D4A2E9EB0CE3606EB48 DUP2 JUMP JUMPDEST PUSH0 PUSH0 PUSH0 SWAP1 SLOAD SWAP1 PUSH2 0x100 EXP SWAP1 DIV PUSH20 0xFFFFFFFFFFFFFFFFFFFFFFFFFFFFFFFFFFFFFFFF AND SWAP1 POP SWAP1 JUMP JUMPDEST PUSH20 0xDAC17F958D2EE523A2206206994597C13D831EC7 PUSH20 0xFFFFFFFFFFFFFFFFFFFFFFFFFFFFFFFFFFFFFFFF AND DUP3 PUSH20 0xFFFFFFFFFFFFFFFFFFFFFFFFFFFFFFFFFFFFFFFF AND EQ DUP1 PUSH2 0x742 JUMPI POP PUSH20 0xA0B86991C6218B36C1D19D4A2E9EB0CE3606EB48 PUSH20 0xFFFFFFFFFFFFFFFFFFFFFFFFFFFFFFFFFFFFFFFF AND DUP3 PUSH20 0xFFFFFFFFFFFFFFFFFFFFFFFFFFFFFFFFFFFFFFFF AND EQ JUMPDEST DUP1 PUSH2 0x78C JUMPI POP PUSH20 0x6B175474E89094C44DA98B954EEDEAC495271D0F PUSH20 0xFFFFFFFFFFFFFFFFFFFFFFFFFFFFFFFFFFFFFFFF AND DUP3 PUSH20 0xFFFFFFFFFFFFFFFFFFFFFFFFFFFFFFFFFFFFFFFF AND EQ JUMPDEST DUP1 PUSH2 0x7D6 JUMPI POP PUSH20 0x57AB1EC28D129707052DF4DF418D58A2D46D5F51 PUSH20 0xFFFFFFFFFFFFFFFFFFFFFFFFFFFFFFFFFFFFFFFF AND DUP3 PUSH20 0xFFFFFFFFFFFFFFFFFFFFFFFFFFFFFFFFFFFFFFFF AND EQ JUMPDEST PUSH2 0x815 JUMPI PUSH1 0x40 MLOAD PUSH32 0x8C379A000000000000000000000000000000000000000000000000000000000 DUP2 MSTORE PUSH1 0x4 ADD PUSH2 0x80C SWAP1 PUSH2 0x1900 JUMP JUMPDEST PUSH1 0x40 MLOAD DUP1 SWAP2 SUB SWAP1 REVERT JUMPDEST PUSH0 DUP2 GT PUSH2 0x857 JUMPI PUSH1 0x40 MLOAD PUSH32 0x8C379A000000000000000000000000000000000000000000000000000000000 DUP2 MSTORE PUSH1 0x4 ADD PUSH2 0x84E SWAP1 PUSH2 0x1968 JUMP JUMPDEST PUSH1 0x40 MLOAD DUP1 SWAP2 SUB SWAP1 REVERT JUMPDEST DUP2 PUSH20 0xFFFFFFFFFFFFFFFFFFFFFFFFFFFFFFFFFFFFFFFF AND PUSH4 0x23B872DD CALLER ADDRESS DUP5 PUSH1 0x40 MLOAD DUP5 PUSH4 0xFFFFFFFF AND PUSH1 0xE0 SHL DUP2 MSTORE PUSH1 0x4 ADD PUSH2 0x894 SWAP4 SWAP3 SWAP2 SWAP1 PUSH2 0x1986 JUMP JUMPDEST PUSH1 0x20 PUSH1 0x40 MLOAD DUP1 DUP4 SUB DUP2 PUSH0 DUP8 GAS CALL ISZERO DUP1 ISZERO PUSH2 0x8B0 JUMPI RETURNDATASIZE PUSH0 PUSH0 RETURNDATACOPY RETURNDATASIZE PUSH0 REVERT JUMPDEST POP POP POP POP PUSH1 0x40 MLOAD RETURNDATASIZE PUSH1 0x1F NOT PUSH1 0x1F DUP3 ADD AND DUP3 ADD DUP1 PUSH1 0x40 MSTORE POP DUP2 ADD SWAP1 PUSH2 0x8D4 SWAP2 SWAP1 PUSH2 0x19F0 JUMP JUMPDEST POP DUP2 PUSH20 0xFFFFFFFFFFFFFFFFFFFFFFFFFFFFFFFFFFFFFFFF AND PUSH4 0x95EA7B3 PUSH20 0x5533ED0A3B83F70C3C4A1F69EF5546D3D4713E44 DUP4 PUSH1 0x40 MLOAD DUP4 PUSH4 0xFFFFFFFF AND PUSH1 0xE0 SHL DUP2 MSTORE PUSH1 0x4 ADD PUSH2 0x924 SWAP3 SWAP2 SWAP1 PUSH2 0x1A1B JUMP JUMPDEST PUSH1 0x20 PUSH1 0x40 MLOAD DUP1 DUP4 SUB DUP2 PUSH0 DUP8 GAS CALL ISZERO DUP1 ISZERO PUSH2 0x940 JUMPI RETURNDATASIZE PUSH0 PUSH0 RETURNDATACOPY RETURNDATASIZE PUSH0 REVERT JUMPDEST POP POP POP POP PUSH1 0x40 MLOAD RETURNDATASIZE PUSH1 0x1F NOT PUSH1 0x1F DUP3 ADD AND DUP3 ADD DUP1 PUSH1 0x40 MSTORE POP DUP2 ADD SWAP1 PUSH2 0x964 SWAP2 SWAP1 PUSH2 0x19F0 JUMP JUMPDEST POP PUSH20 0x5533ED0A3B83F70C3C4A1F69EF5546D3D4713E44 PUSH20 0xFFFFFFFFFFFFFFFFFFFFFFFFFFFFFFFFFFFFFFFF AND PUSH4 0xB6B55F25 DUP3 PUSH1 0x40 MLOAD DUP3 PUSH4 0xFFFFFFFF AND PUSH1 0xE0 SHL DUP2 MSTORE PUSH1 0x4 ADD PUSH2 0x9B2 SWAP2 SWAP1 PUSH2 0x17A8 JUMP JUMPDEST PUSH0 PUSH1 0x40 MLOAD DUP1 DUP4 SUB DUP2 PUSH0 DUP8 DUP1 EXTCODESIZE ISZERO DUP1 ISZERO PUSH2 0x9C9 JUMPI PUSH0 PUSH0 REVERT JUMPDEST POP GAS CALL ISZERO DUP1 ISZERO PUSH2 0x9DB JUMPI RETURNDATASIZE PUSH0 PUSH0 RETURNDATACOPY RETURNDATASIZE PUSH0 REVERT JUMPDEST POP POP POP POP PUSH0 PUSH9 0x56BC75E2D63100000 DUP3 PUSH2 0x9F5 SWAP2 SWAP1 PUSH2 0x1A42 JUMP JUMPDEST SWAP1 POP DUP1 PUSH1 0x3 PUSH0 CALLER PUSH20 0xFFFFFFFFFFFFFFFFFFFFFFFFFFFFFFFFFFFFFFFF AND PUSH20 0xFFFFFFFFFFFFFFFFFFFFFFFFFFFFFFFFFFFFFFFF AND DUP2 MSTORE PUSH1 0x20 ADD SWAP1 DUP2 MSTORE PUSH1 0x20 ADD PUSH0 KECCAK256 PUSH0 DUP3 DUP3 SLOAD PUSH2 0xA43 SWAP2 SWAP1 PUSH2 0x182C JUMP JUMPDEST SWAP3 POP POP DUP2 SWAP1 SSTORE POP DUP3 PUSH20 0xFFFFFFFFFFFFFFFFFFFFFFFFFFFFFFFFFFFFFFFF AND CALLER PUSH20 0xFFFFFFFFFFFFFFFFFFFFFFFFFFFFFFFFFFFFFFFF AND PUSH32 0x4322CF7BB5BDB39C0E2FFB7AF737E3569D51766DE459DF25281823FFA30B4685 DUP5 DUP5 PUSH1 0x40 MLOAD PUSH2 0xAA9 SWAP3 SWAP2 SWAP1 PUSH2 0x1756 JUMP JUMPDEST PUSH1 0x40 MLOAD DUP1 SWAP2 SUB SWAP1 LOG3 POP POP POP JUMP JUMPDEST PUSH20 0xDAC17F958D2EE523A2206206994597C13D831EC7 PUSH20 0xFFFFFFFFFFFFFFFFFFFFFFFFFFFFFFFFFFFFFFFF AND DUP3 PUSH20 0xFFFFFFFFFFFFFFFFFFFFFFFFFFFFFFFFFFFFFFFF AND EQ DUP1 PUSH2 0xB43 JUMPI POP PUSH20 0xA0B86991C6218B36C1D19D4A2E9EB0CE3606EB48 PUSH20 0xFFFFFFFFFFFFFFFFFFFFFFFFFFFFFFFFFFFFFFFF AND DUP3 PUSH20 0xFFFFFFFFFFFFFFFFFFFFFFFFFFFFFFFFFFFFFFFF AND EQ JUMPDEST DUP1 PUSH2 0xB8D JUMPI POP PUSH20 0x6B175474E89094C44DA98B954EEDEAC495271D0F PUSH20 0xFFFFFFFFFFFFFFFFFFFFFFFFFFFFFFFFFFFFFFFF AND DUP3 PUSH20 0xFFFFFFFFFFFFFFFFFFFFFFFFFFFFFFFFFFFFFFFF AND EQ JUMPDEST DUP1 PUSH2 0xBD7 JUMPI POP PUSH20 0x57AB1EC28D129707052DF4DF418D58A2D46D5F51 PUSH20 0xFFFFFFFFFFFFFFFFFFFFFFFFFFFFFFFFFFFFFFFF AND DUP3 PUSH20 0xFFFFFFFFFFFFFFFFFFFFFFFFFFFFFFFFFFFFFFFF AND EQ JUMPDEST PUSH2 0xC16 JUMPI PUSH1 0x40 MLOAD PUSH32 0x8C379A000000000000000000000000000000000000000000000000000000000 DUP2 MSTORE PUSH1 0x4 ADD PUSH2 0xC0D SWAP1 PUSH2 0x1900 JUMP JUMPDEST PUSH1 0x40 MLOAD DUP1 SWAP2 SUB SWAP1 REVERT JUMPDEST PUSH0 DUP2 GT PUSH2 0xC58 JUMPI PUSH1 0x40 MLOAD PUSH32 0x8C379A000000000000000000000000000000000000000000000000000000000 DUP2 MSTORE PUSH1 0x4 ADD PUSH2 0xC4F SWAP1 PUSH2 0x1968 JUMP JUMPDEST PUSH1 0x40 MLOAD DUP1 SWAP2 SUB SWAP1 REVERT JUMPDEST PUSH0 PUSH1 0x2 PUSH0 CALLER PUSH20 0xFFFFFFFFFFFFFFFFFFFFFFFFFFFFFFFFFFFFFFFF AND PUSH20 0xFFFFFFFFFFFFFFFFFFFFFFFFFFFFFFFFFFFFFFFF AND DUP2 MSTORE PUSH1 0x20 ADD SWAP1 DUP2 MSTORE PUSH1 0x20 ADD PUSH0 KECCAK256 PUSH0 DUP5 PUSH20 0xFFFFFFFFFFFFFFFFFFFFFFFFFFFFFFFFFFFFFFFF AND PUSH20 0xFFFFFFFFFFFFFFFFFFFFFFFFFFFFFFFFFFFFFFFF AND DUP2 MSTORE PUSH1 0x20 ADD SWAP1 DUP2 MSTORE PUSH1 0x20 ADD PUSH0 KECCAK256 SWAP1 POP DUP2 DUP2 PUSH0 ADD PUSH0 DUP3 DUP3 SLOAD PUSH2 0xCE5 SWAP2 SWAP1 PUSH2 0x182C JUMP JUMPDEST SWAP3 POP POP DUP2 SWAP1 SSTORE POP TIMESTAMP DUP2 PUSH1 0x1 ADD DUP2 SWAP1 SSTORE POP DUP3 PUSH20 0xFFFFFFFFFFFFFFFFFFFFFFFFFFFFFFFFFFFFFFFF AND PUSH4 0x23B872DD CALLER ADDRESS DUP6 PUSH1 0x40 MLOAD DUP5 PUSH4 0xFFFFFFFF AND PUSH1 0xE0 SHL DUP2 MSTORE PUSH1 0x4 ADD PUSH2 0xD32 SWAP4 SWAP3 SWAP2 SWAP1 PUSH2 0x1986 JUMP JUMPDEST PUSH1 0x20 PUSH1 0x40 MLOAD DUP1 DUP4 SUB DUP2 PUSH0 DUP8 GAS CALL ISZERO DUP1 ISZERO PUSH2 0xD4E JUMPI RETURNDATASIZE PUSH0 PUSH0 RETURNDATACOPY RETURNDATASIZE PUSH0 REVERT JUMPDEST POP POP POP POP PUSH1 0x40 MLOAD RETURNDATASIZE PUSH1 0x1F NOT PUSH1 0x1F DUP3 ADD AND DUP3 ADD DUP1 PUSH1 0x40 MSTORE POP DUP2 ADD SWAP1 PUSH2 0xD72 SWAP2 SWAP1 PUSH2 0x19F0 JUMP JUMPDEST POP DUP3 PUSH20 0xFFFFFFFFFFFFFFFFFFFFFFFFFFFFFFFFFFFFFFFF AND PUSH4 0x95EA7B3 PUSH20 0x5533ED0A3B83F70C3C4A1F69EF5546D3D4713E44 DUP5 PUSH1 0x40 MLOAD DUP4 PUSH4 0xFFFFFFFF AND PUSH1 0xE0 SHL DUP2 MSTORE PUSH1 0x4 ADD PUSH2 0xDC2 SWAP3 SWAP2 SWAP1 PUSH2 0x1A1B JUMP JUMPDEST PUSH1 0x20 PUSH1 0x40 MLOAD DUP1 DUP4 SUB DUP2 PUSH0 DUP8 GAS CALL ISZERO DUP1 ISZERO PUSH2 0xDDE JUMPI RETURNDATASIZE PUSH0 PUSH0 RETURNDATACOPY RETURNDATASIZE PUSH0 REVERT JUMPDEST POP POP POP POP PUSH1 0x40 MLOAD RETURNDATASIZE PUSH1 0x1F NOT PUSH1 0x1F DUP3 ADD AND DUP3 ADD DUP1 PUSH1 0x40 MSTORE POP DUP2 ADD SWAP1 PUSH2 0xE02 SWAP2 SWAP1 PUSH2 0x19F0 JUMP JUMPDEST POP PUSH20 0x5533ED0A3B83F70C3C4A1F69EF5546D3D4713E44 PUSH20 0xFFFFFFFFFFFFFFFFFFFFFFFFFFFFFFFFFFFFFFFF AND PUSH4 0xB6B55F25 DUP4 PUSH1 0x40 MLOAD DUP3 PUSH4 0xFFFFFFFF AND PUSH1 0xE0 SHL DUP2 MSTORE PUSH1 0x4 ADD PUSH2 0xE50 SWAP2 SWAP1 PUSH2 0x17A8 JUMP JUMPDEST PUSH0 PUSH1 0x40 MLOAD DUP1 DUP4 SUB DUP2 PUSH0 DUP8 DUP1 EXTCODESIZE ISZERO DUP1 ISZERO PUSH2 0xE67 JUMPI PUSH0 PUSH0 REVERT JUMPDEST POP GAS CALL ISZERO DUP1 ISZERO PUSH2 0xE79 JUMPI RETURNDATASIZE PUSH0 PUSH0 RETURNDATACOPY RETURNDATASIZE PUSH0 REVERT JUMPDEST POP POP POP POP DUP3 PUSH20 0xFFFFFFFFFFFFFFFFFFFFFFFFFFFFFFFFFFFFFFFF AND CALLER PUSH20 0xFFFFFFFFFFFFFFFFFFFFFFFFFFFFFFFFFFFFFFFF AND PUSH32 0x57BAD7E3C9EFECF6E1F60BBD846B999E9DA4A409224287A8DF09779F2330135E DUP5 TIMESTAMP PUSH1 0x40 MLOAD PUSH2 0xEDC SWAP3 SWAP2 SWAP1 PUSH2 0x1756 JUMP JUMPDEST PUSH1 0x40 MLOAD DUP1 SWAP2 SUB SWAP1 LOG3 POP POP POP JUMP JUMPDEST PUSH2 0xF07 PUSH20 0x6B175474E89094C44DA98B954EEDEAC495271D0F DUP3 PUSH2 0x6B5 JUMP JUMPDEST POP JUMP JUMPDEST PUSH2 0xF28 PUSH20 0x57AB1EC28D129707052DF4DF418D58A2D46D5F51 DUP3 PUSH2 0x6B5 JUMP JUMPDEST POP JUMP JUMPDEST PUSH0 PUSH1 0x2 PUSH0 CALLER PUSH20 0xFFFFFFFFFFFFFFFFFFFFFFFFFFFFFFFFFFFFFFFF AND PUSH20 0xFFFFFFFFFFFFFFFFFFFFFFFFFFFFFFFFFFFFFFFF AND DUP2 MSTORE PUSH1 0x20 ADD SWAP1 DUP2 MSTORE PUSH1 0x20 ADD PUSH0 KECCAK256 PUSH0 DUP5 PUSH20 0xFFFFFFFFFFFFFFFFFFFFFFFFFFFFFFFFFFFFFFFF AND PUSH20 0xFFFFFFFFFFFFFFFFFFFFFFFFFFFFFFFFFFFFFFFF AND DUP2 MSTORE PUSH1 0x20 ADD SWAP1 DUP2 MSTORE PUSH1 0x20 ADD PUSH0 KECCAK256 SWAP1 POP DUP2 DUP2 PUSH0 ADD SLOAD LT ISZERO PUSH2 0xFEC JUMPI PUSH1 0x40 MLOAD PUSH32 0x8C379A000000000000000000000000000000000000000000000000000000000 DUP2 MSTORE PUSH1 0x4 ADD PUSH2 0xFE3 SWAP1 PUSH2 0x1ACD JUMP JUMPDEST PUSH1 0x40 MLOAD DUP1 SWAP2 SUB SWAP1 REVERT JUMPDEST PUSH3 0x93A80 DUP2 PUSH1 0x1 ADD SLOAD PUSH2 0xFFF SWAP2 SWAP1 PUSH2 0x182C JUMP JUMPDEST TIMESTAMP LT ISZERO PUSH2 0x1041 JUMPI PUSH1 0x40 MLOAD PUSH32 0x8C379A000000000000000000000000000000000000000000000000000000000 DUP2 MSTORE PUSH1 0x4 ADD PUSH2 0x1038 SWAP1 PUSH2 0x1B35 JUMP JUMPDEST PUSH1 0x40 MLOAD DUP1 SWAP2 SUB SWAP1 REVERT JUMPDEST DUP2 DUP2 PUSH0 ADD PUSH0 DUP3 DUP3 SLOAD PUSH2 0x1053 SWAP2 SWAP1 PUSH2 0x1B53 JUMP JUMPDEST SWAP3 POP POP DUP2 SWAP1 SSTORE POP PUSH0 DUP2 PUSH1 0x1 ADD SLOAD TIMESTAMP PUSH2 0x106B SWAP2 SWAP1 PUSH2 0x1B53 JUMP JUMPDEST SWAP1 POP PUSH0 PUSH8 0xDE0B6B3A7640000 DUP5 PUSH4 0x1E13380 PUSH8 0xDE0B6B3A7640000 PUSH2 0x1090 SWAP2 SWAP1 PUSH2 0x1BB3 JUMP JUMPDEST DUP5 PUSH2 0x109B SWAP2 SWAP1 PUSH2 0x1A42 JUMP JUMPDEST PUSH2 0x10A5 SWAP2 SWAP1 PUSH2 0x1A42 JUMP JUMPDEST PUSH2 0x10AF SWAP2 SWAP1 PUSH2 0x1BB3 JUMP JUMPDEST SWAP1 POP DUP1 PUSH1 0x3 PUSH0 CALLER PUSH20 0xFFFFFFFFFFFFFFFFFFFFFFFFFFFFFFFFFFFFFFFF AND PUSH20 0xFFFFFFFFFFFFFFFFFFFFFFFFFFFFFFFFFFFFFFFF AND DUP2 MSTORE PUSH1 0x20 ADD SWAP1 DUP2 MSTORE PUSH1 0x20 ADD PUSH0 KECCAK256 PUSH0 DUP3 DUP3 SLOAD PUSH2 0x10FD SWAP2 SWAP1 PUSH2 0x182C JUMP JUMPDEST SWAP3 POP POP DUP2 SWAP1 SSTORE POP DUP5 PUSH20 0xFFFFFFFFFFFFFFFFFFFFFFFFFFFFFFFFFFFFFFFF AND PUSH4 0xA9059CBB CALLER DUP7 PUSH1 0x40 MLOAD DUP4 PUSH4 0xFFFFFFFF AND PUSH1 0xE0 SHL DUP2 MSTORE PUSH1 0x4 ADD PUSH2 0x113F SWAP3 SWAP2 SWAP1 PUSH2 0x1A1B JUMP JUMPDEST PUSH1 0x20 PUSH1 0x40 MLOAD DUP1 DUP4 SUB DUP2 PUSH0 DUP8 GAS CALL ISZERO DUP1 ISZERO PUSH2 0x115B JUMPI RETURNDATASIZE PUSH0 PUSH0 RETURNDATACOPY RETURNDATASIZE PUSH0 REVERT JUMPDEST POP POP POP POP PUSH1 0x40 MLOAD RETURNDATASIZE PUSH1 0x1F NOT PUSH1 0x1F DUP3 ADD AND DUP3 ADD DUP1 PUSH1 0x40 MSTORE POP DUP2 ADD SWAP1 PUSH2 0x117F SWAP2 SWAP1 PUSH2 0x19F0 JUMP JUMPDEST POP DUP5 PUSH20 0xFFFFFFFFFFFFFFFFFFFFFFFFFFFFFFFFFFFFFFFF AND CALLER PUSH20 0xFFFFFFFFFFFFFFFFFFFFFFFFFFFFFFFFFFFFFFFF AND PUSH32 0xE01911A56BE554FAE2E8C04EBCC1C56C757CE4583C883B878180A6CE99FC8A09 DUP7 DUP5 PUSH1 0x40 MLOAD PUSH2 0x11DF SWAP3 SWAP2 SWAP1 PUSH2 0x1756 JUMP JUMPDEST PUSH1 0x40 MLOAD DUP1 SWAP2 SUB SWAP1 LOG3 POP POP POP POP POP JUMP JUMPDEST PUSH20 0xDAC17F958D2EE523A2206206994597C13D831EC7 DUP2 JUMP JUMPDEST PUSH2 0x120E PUSH2 0x14D6 JUMP JUMPDEST PUSH0 PUSH20 0x5533ED0A3B83F70C3C4A1F69EF5546D3D4713E44 PUSH20 0xFFFFFFFFFFFFFFFFFFFFFFFFFFFFFFFFFFFFFFFF AND PUSH4 0xC600E1DC ADDRESS PUSH1 0x40 MLOAD DUP3 PUSH4 0xFFFFFFFF AND PUSH1 0xE0 SHL DUP2 MSTORE PUSH1 0x4 ADD PUSH2 0x125C SWAP2 SWAP1 PUSH2 0x16C6 JUMP JUMPDEST PUSH1 0x20 PUSH1 0x40 MLOAD DUP1 DUP4 SUB DUP2 DUP7 GAS STATICCALL ISZERO DUP1 ISZERO PUSH2 0x1277 JUMPI RETURNDATASIZE PUSH0 PUSH0 RETURNDATACOPY RETURNDATASIZE PUSH0 REVERT JUMPDEST POP POP POP POP PUSH1 0x40 MLOAD RETURNDATASIZE PUSH1 0x1F NOT PUSH1 0x1F DUP3 ADD AND DUP3 ADD DUP1 PUSH1 0x40 MSTORE POP DUP2 ADD SWAP1 PUSH2 0x129B SWAP2 SWAP1 PUSH2 0x1BF7 JUMP JUMPDEST SWAP1 POP PUSH0 PUSH20 0x5533ED0A3B83F70C3C4A1F69EF5546D3D4713E44 PUSH20 0xFFFFFFFFFFFFFFFFFFFFFFFFFFFFFFFFFFFFFFFF AND PUSH4 0x70A08231 ADDRESS PUSH1 0x40 MLOAD DUP3 PUSH4 0xFFFFFFFF AND PUSH1 0xE0 SHL DUP2 MSTORE PUSH1 0x4 ADD PUSH2 0x12EB SWAP2 SWAP1 PUSH2 0x16C6 JUMP JUMPDEST PUSH1 0x20 PUSH1 0x40 MLOAD DUP1 DUP4 SUB DUP2 DUP7 GAS STATICCALL ISZERO DUP1 ISZERO PUSH2 0x1306 JUMPI RETURNDATASIZE PUSH0 PUSH0 RETURNDATACOPY RETURNDATASIZE PUSH0 REVERT JUMPDEST POP POP POP POP PUSH1 0x40 MLOAD RETURNDATASIZE PUSH1 0x1F NOT PUSH1 0x1F DUP3 ADD AND DUP3 ADD DUP1 PUSH1 0x40 MSTORE POP DUP2 ADD SWAP1 PUSH2 0x132A SWAP2 SWAP1 PUSH2 0x1BF7 JUMP JUMPDEST SWAP1 POP PUSH0 PUSH1 0x64 PUSH1 0x32 DUP5 PUSH2 0x133C SWAP2 SWAP1 PUSH2 0x1A42 JUMP JUMPDEST PUSH2 0x1346 SWAP2 SWAP1 PUSH2 0x1BB3 JUMP JUMPDEST SWAP1 POP PUSH1 0x1 PUSH0 SWAP1 SLOAD SWAP1 PUSH2 0x100 EXP SWAP1 DIV PUSH20 0xFFFFFFFFFFFFFFFFFFFFFFFFFFFFFFFFFFFFFFFF AND PUSH20 0xFFFFFFFFFFFFFFFFFFFFFFFFFFFFFFFFFFFFFFFF AND PUSH4 0xA975B892 DUP5 DUP5 DUP5 PUSH1 0x40 MLOAD DUP5 PUSH4 0xFFFFFFFF AND PUSH1 0xE0 SHL DUP2 MSTORE PUSH1 0x4 ADD PUSH2 0x13A6 SWAP4 SWAP3 SWAP2 SWAP1 PUSH2 0x1C22 JUMP JUMPDEST PUSH0 PUSH1 0x40 MLOAD DUP1 DUP4 SUB DUP2 PUSH0 DUP8 DUP1 EXTCODESIZE ISZERO DUP1 ISZERO PUSH2 0x13BD JUMPI PUSH0 PUSH0 REVERT JUMPDEST POP GAS CALL ISZERO DUP1 ISZERO PUSH2 0x13CF JUMPI RETURNDATASIZE PUSH0 PUSH0 RETURNDATACOPY RETURNDATASIZE PUSH0 REVERT JUMPDEST POP POP POP POP PUSH32 0x8EAAFF2BA16DA1160FD06CCB389B317B1EEBA725461562003201A60AE6CB9750 DUP3 DUP5 PUSH0 PUSH0 PUSH0 PUSH0 PUSH1 0x40 MLOAD PUSH2 0x140C SWAP7 SWAP6 SWAP5 SWAP4 SWAP3 SWAP2 SWAP1 PUSH2 0x1C99 JUMP JUMPDEST PUSH1 0x40 MLOAD DUP1 SWAP2 SUB SWAP1 LOG1 POP POP POP JUMP JUMPDEST PUSH20 0x6B175474E89094C44DA98B954EEDEAC495271D0F DUP2 JUMP JUMPDEST PUSH2 0x1439 PUSH2 0x14D6 JUMP JUMPDEST PUSH0 PUSH20 0xFFFFFFFFFFFFFFFFFFFFFFFFFFFFFFFFFFFFFFFF AND DUP2 PUSH20 0xFFFFFFFFFFFFFFFFFFFFFFFFFFFFFFFFFFFFFFFF AND SUB PUSH2 0x14A9 JUMPI PUSH0 PUSH1 0x40 MLOAD PUSH32 0x1E4FBDF700000000000000000000000000000000000000000000000000000000 DUP2 MSTORE PUSH1 0x4 ADD PUSH2 0x14A0 SWAP2 SWAP1 PUSH2 0x16C6 JUMP JUMPDEST PUSH1 0x40 MLOAD DUP1 SWAP2 SUB SWAP1 REVERT JUMPDEST PUSH2 0x14B2 DUP2 PUSH2 0x155D JUMP JUMPDEST POP JUMP JUMPDEST PUSH2 0x14D3 PUSH20 0xA0B86991C6218B36C1D19D4A2E9EB0CE3606EB48 DUP3 PUSH2 0x6B5 JUMP JUMPDEST POP JUMP JUMPDEST PUSH2 0x14DE PUSH2 0x161E JUMP JUMPDEST PUSH20 0xFFFFFFFFFFFFFFFFFFFFFFFFFFFFFFFFFFFFFFFF AND PUSH2 0x14FC PUSH2 0x68E JUMP JUMPDEST PUSH20 0xFFFFFFFFFFFFFFFFFFFFFFFFFFFFFFFFFFFFFFFF AND EQ PUSH2 0x155B JUMPI PUSH2 0x151F PUSH2 0x161E JUMP JUMPDEST PUSH1 0x40 MLOAD PUSH32 0x118CDAA700000000000000000000000000000000000000000000000000000000 DUP2 MSTORE PUSH1 0x4 ADD PUSH2 0x1552 SWAP2 SWAP1 PUSH2 0x16C6 JUMP JUMPDEST PUSH1 0x40 MLOAD DUP1 SWAP2 SUB SWAP1 REVERT JUMPDEST JUMP JUMPDEST PUSH0 PUSH0 PUSH0 SWAP1 SLOAD SWAP1 PUSH2 0x100 EXP SWAP1 DIV PUSH20 0xFFFFFFFFFFFFFFFFFFFFFFFFFFFFFFFFFFFFFFFF AND SWAP1 POP DUP2 PUSH0 PUSH0 PUSH2 0x100 EXP DUP2 SLOAD DUP2 PUSH20 0xFFFFFFFFFFFFFFFFFFFFFFFFFFFFFFFFFFFFFFFF MUL NOT AND SWAP1 DUP4 PUSH20 0xFFFFFFFFFFFFFFFFFFFFFFFFFFFFFFFFFFFFFFFF AND MUL OR SWAP1 SSTORE POP DUP2 PUSH20 0xFFFFFFFFFFFFFFFFFFFFFFFFFFFFFFFFFFFFFFFF AND DUP2 PUSH20 0xFFFFFFFFFFFFFFFFFFFFFFFFFFFFFFFFFFFFFFFF AND PUSH32 0x8BE0079C531659141344CD1FD0A4F28419497F9722A3DAAFE3B4186F6B6457E0 PUSH1 0x40 MLOAD PUSH1 0x40 MLOAD DUP1 SWAP2 SUB SWAP1 LOG3 POP POP JUMP JUMPDEST PUSH0 CALLER SWAP1 POP SWAP1 JUMP JUMPDEST PUSH0 PUSH0 REVERT JUMPDEST PUSH0 DUP2 SWAP1 POP SWAP2 SWAP1 POP JUMP JUMPDEST PUSH2 0x163B DUP2 PUSH2 0x1629 JUMP JUMPDEST DUP2 EQ PUSH2 0x1645 JUMPI PUSH0 PUSH0 REVERT JUMPDEST POP JUMP JUMPDEST PUSH0 DUP2 CALLDATALOAD SWAP1 POP PUSH2 0x1656 DUP2 PUSH2 0x1632 JUMP JUMPDEST SWAP3 SWAP2 POP POP JUMP JUMPDEST PUSH0 PUSH1 0x20 DUP3 DUP5 SUB SLT ISZERO PUSH2 0x1671 JUMPI PUSH2 0x1670 PUSH2 0x1625 JUMP JUMPDEST JUMPDEST PUSH0 PUSH2 0x167E DUP5 DUP3 DUP6 ADD PUSH2 0x1648 JUMP JUMPDEST SWAP2 POP POP SWAP3 SWAP2 POP POP JUMP JUMPDEST PUSH0 PUSH20 0xFFFFFFFFFFFFFFFFFFFFFFFFFFFFFFFFFFFFFFFF DUP3 AND SWAP1 POP SWAP2 SWAP1 POP JUMP JUMPDEST PUSH0 PUSH2 0x16B0 DUP3 PUSH2 0x1687 JUMP JUMPDEST SWAP1 POP SWAP2 SWAP1 POP JUMP JUMPDEST PUSH2 0x16C0 DUP2 PUSH2 0x16A6 JUMP JUMPDEST DUP3 MSTORE POP POP JUMP JUMPDEST PUSH0 PUSH1 0x20 DUP3 ADD SWAP1 POP PUSH2 0x16D9 PUSH0 DUP4 ADD DUP5 PUSH2 0x16B7 JUMP JUMPDEST SWAP3 SWAP2 POP POP JUMP JUMPDEST PUSH2 0x16E8 DUP2 PUSH2 0x16A6 JUMP JUMPDEST DUP2 EQ PUSH2 0x16F2 JUMPI PUSH0 PUSH0 REVERT JUMPDEST POP JUMP JUMPDEST PUSH0 DUP2 CALLDATALOAD SWAP1 POP PUSH2 0x1703 DUP2 PUSH2 0x16DF JUMP JUMPDEST SWAP3 SWAP2 POP POP JUMP JUMPDEST PUSH0 PUSH0 PUSH1 0x40 DUP4 DUP6 SUB SLT ISZERO PUSH2 0x171F JUMPI PUSH2 0x171E PUSH2 0x1625 JUMP JUMPDEST JUMPDEST PUSH0 PUSH2 0x172C DUP6 DUP3 DUP7 ADD PUSH2 0x16F5 JUMP JUMPDEST SWAP3 POP POP PUSH1 0x20 PUSH2 0x173D DUP6 DUP3 DUP7 ADD PUSH2 0x16F5 JUMP JUMPDEST SWAP2 POP POP SWAP3 POP SWAP3 SWAP1 POP JUMP JUMPDEST PUSH2 0x1750 DUP2 PUSH2 0x1629 JUMP JUMPDEST DUP3 MSTORE POP POP JUMP JUMPDEST PUSH0 PUSH1 0x40 DUP3 ADD SWAP1 POP PUSH2 0x1769 PUSH0 DUP4 ADD DUP6 PUSH2 0x1747 JUMP JUMPDEST PUSH2 0x1776 PUSH1 0x20 DUP4 ADD DUP5 PUSH2 0x1747 JUMP JUMPDEST SWAP4 SWAP3 POP POP POP JUMP JUMPDEST PUSH0 PUSH1 0x20 DUP3 DUP5 SUB SLT ISZERO PUSH2 0x1792 JUMPI PUSH2 0x1791 PUSH2 0x1625 JUMP JUMPDEST JUMPDEST PUSH0 PUSH2 0x179F DUP5 DUP3 DUP6 ADD PUSH2 0x16F5 JUMP JUMPDEST SWAP2 POP POP SWAP3 SWAP2 POP POP JUMP JUMPDEST PUSH0 PUSH1 0x20 DUP3 ADD SWAP1 POP PUSH2 0x17BB PUSH0 DUP4 ADD DUP5 PUSH2 0x1747 JUMP JUMPDEST SWAP3 SWAP2 POP POP JUMP JUMPDEST PUSH0 PUSH0 PUSH1 0x40 DUP4 DUP6 SUB SLT ISZERO PUSH2 0x17D7 JUMPI PUSH2 0x17D6 PUSH2 0x1625 JUMP JUMPDEST JUMPDEST PUSH0 PUSH2 0x17E4 DUP6 DUP3 DUP7 ADD PUSH2 0x16F5 JUMP JUMPDEST SWAP3 POP POP PUSH1 0x20 PUSH2 0x17F5 DUP6 DUP3 DUP7 ADD PUSH2 0x1648 JUMP JUMPDEST SWAP2 POP POP SWAP3 POP SWAP3 SWAP1 POP JUMP JUMPDEST PUSH32 0x4E487B7100000000000000000000000000000000000000000000000000000000 PUSH0 MSTORE PUSH1 0x11 PUSH1 0x4 MSTORE PUSH1 0x24 PUSH0 REVERT JUMPDEST PUSH0 PUSH2 0x1836 DUP3 PUSH2 0x1629 JUMP JUMPDEST SWAP2 POP PUSH2 0x1841 DUP4 PUSH2 0x1629 JUMP JUMPDEST SWAP3 POP DUP3 DUP3 ADD SWAP1 POP DUP1 DUP3 GT ISZERO PUSH2 0x1859 JUMPI PUSH2 0x1858 PUSH2 0x17FF JUMP JUMPDEST JUMPDEST SWAP3 SWAP2 POP POP JUMP JUMPDEST PUSH0 PUSH2 0x1869 DUP3 PUSH2 0x1687 JUMP JUMPDEST SWAP2 POP PUSH2 0x1874 DUP4 PUSH2 0x1687 JUMP JUMPDEST SWAP3 POP DUP3 DUP3 ADD SWAP1 POP PUSH20 0xFFFFFFFFFFFFFFFFFFFFFFFFFFFFFFFFFFFFFFFF DUP2 GT ISZERO PUSH2 0x18A0 JUMPI PUSH2 0x189F PUSH2 0x17FF JUMP JUMPDEST JUMPDEST SWAP3 SWAP2 POP POP JUMP JUMPDEST PUSH0 DUP3 DUP3 MSTORE PUSH1 0x20 DUP3 ADD SWAP1 POP SWAP3 SWAP2 POP POP JUMP JUMPDEST PUSH32 0x556E737570706F7274656420746F6B656E000000000000000000000000000000 PUSH0 DUP3 ADD MSTORE POP JUMP JUMPDEST PUSH0 PUSH2 0x18EA PUSH1 0x11 DUP4 PUSH2 0x18A6 JUMP JUMPDEST SWAP2 POP PUSH2 0x18F5 DUP3 PUSH2 0x18B6 JUMP JUMPDEST PUSH1 0x20 DUP3 ADD SWAP1 POP SWAP2 SWAP1 POP JUMP JUMPDEST PUSH0 PUSH1 0x20 DUP3 ADD SWAP1 POP DUP2 DUP2 SUB PUSH0 DUP4 ADD MSTORE PUSH2 0x1917 DUP2 PUSH2 0x18DE JUMP JUMPDEST SWAP1 POP SWAP2 SWAP1 POP JUMP JUMPDEST PUSH32 0x416D6F756E74206D7573742062652067726561746572207468616E207A65726F PUSH0 DUP3 ADD MSTORE POP JUMP JUMPDEST PUSH0 PUSH2 0x1952 PUSH1 0x20 DUP4 PUSH2 0x18A6 JUMP JUMPDEST SWAP2 POP PUSH2 0x195D DUP3 PUSH2 0x191E JUMP JUMPDEST PUSH1 0x20 DUP3 ADD SWAP1 POP SWAP2 SWAP1 POP JUMP JUMPDEST PUSH0 PUSH1 0x20 DUP3 ADD SWAP1 POP DUP2 DUP2 SUB PUSH0 DUP4 ADD MSTORE PUSH2 0x197F DUP2 PUSH2 0x1946 JUMP JUMPDEST SWAP1 POP SWAP2 SWAP1 POP JUMP JUMPDEST PUSH0 PUSH1 0x60 DUP3 ADD SWAP1 POP PUSH2 0x1999 PUSH0 DUP4 ADD DUP7 PUSH2 0x16B7 JUMP JUMPDEST PUSH2 0x19A6 PUSH1 0x20 DUP4 ADD DUP6 PUSH2 0x16B7 JUMP JUMPDEST PUSH2 0x19B3 PUSH1 0x40 DUP4 ADD DUP5 PUSH2 0x1747 JUMP JUMPDEST SWAP5 SWAP4 POP POP POP POP JUMP JUMPDEST PUSH0 DUP2 ISZERO ISZERO SWAP1 POP SWAP2 SWAP1 POP JUMP JUMPDEST PUSH2 0x19CF DUP2 PUSH2 0x19BB JUMP JUMPDEST DUP2 EQ PUSH2 0x19D9 JUMPI PUSH0 PUSH0 REVERT JUMPDEST POP JUMP JUMPDEST PUSH0 DUP2 MLOAD SWAP1 POP PUSH2 0x19EA DUP2 PUSH2 0x19C6 JUMP JUMPDEST SWAP3 SWAP2 POP POP JUMP JUMPDEST PUSH0 PUSH1 0x20 DUP3 DUP5 SUB SLT ISZERO PUSH2 0x1A05 JUMPI PUSH2 0x1A04 PUSH2 0x1625 JUMP JUMPDEST JUMPDEST PUSH0 PUSH2 0x1A12 DUP5 DUP3 DUP6 ADD PUSH2 0x19DC JUMP JUMPDEST SWAP2 POP POP SWAP3 SWAP2 POP POP JUMP JUMPDEST PUSH0 PUSH1 0x40 DUP3 ADD SWAP1 POP PUSH2 0x1A2E PUSH0 DUP4 ADD DUP6 PUSH2 0x16B7 JUMP JUMPDEST PUSH2 0x1A3B PUSH1 0x20 DUP4 ADD DUP5 PUSH2 0x1747 JUMP JUMPDEST SWAP4 SWAP3 POP POP POP JUMP JUMPDEST PUSH0 PUSH2 0x1A4C DUP3 PUSH2 0x1629 JUMP JUMPDEST SWAP2 POP PUSH2 0x1A57 DUP4 PUSH2 0x1629 JUMP JUMPDEST SWAP3 POP DUP3 DUP3 MUL PUSH2 0x1A65 DUP2 PUSH2 0x1629 JUMP JUMPDEST SWAP2 POP DUP3 DUP3 DIV DUP5 EQ DUP4 ISZERO OR PUSH2 0x1A7C JUMPI PUSH2 0x1A7B PUSH2 0x17FF JUMP JUMPDEST JUMPDEST POP SWAP3 SWAP2 POP POP JUMP JUMPDEST PUSH32 0x496E73756666696369656E742062616C616E6365000000000000000000000000 PUSH0 DUP3 ADD MSTORE POP JUMP JUMPDEST PUSH0 PUSH2 0x1AB7 PUSH1 0x14 DUP4 PUSH2 0x18A6 JUMP JUMPDEST SWAP2 POP PUSH2 0x1AC2 DUP3 PUSH2 0x1A83 JUMP JUMPDEST PUSH1 0x20 DUP3 ADD SWAP1 POP SWAP2 SWAP1 POP JUMP JUMPDEST PUSH0 PUSH1 0x20 DUP3 ADD SWAP1 POP DUP2 DUP2 SUB PUSH0 DUP4 ADD MSTORE PUSH2 0x1AE4 DUP2 PUSH2 0x1AAB JUMP JUMPDEST SWAP1 POP SWAP2 SWAP1 POP JUMP JUMPDEST PUSH32 0x5769746864726177616C206C6F636B656420666F722037206461797300000000 PUSH0 DUP3 ADD MSTORE POP JUMP JUMPDEST PUSH0 PUSH2 0x1B1F PUSH1 0x1C DUP4 PUSH2 0x18A6 JUMP JUMPDEST SWAP2 POP PUSH2 0x1B2A DUP3 PUSH2 0x1AEB JUMP JUMPDEST PUSH1 0x20 DUP3 ADD SWAP1 POP SWAP2 SWAP1 POP JUMP JUMPDEST PUSH0 PUSH1 0x20 DUP3 ADD SWAP1 POP DUP2 DUP2 SUB PUSH0 DUP4 ADD MSTORE PUSH2 0x1B4C DUP2 PUSH2 0x1B13 JUMP JUMPDEST SWAP1 POP SWAP2 SWAP1 POP JUMP JUMPDEST PUSH0 PUSH2 0x1B5D DUP3 PUSH2 0x1629 JUMP JUMPDEST SWAP2 POP PUSH2 0x1B68 DUP4 PUSH2 0x1629 JUMP JUMPDEST SWAP3 POP DUP3 DUP3 SUB SWAP1 POP DUP2 DUP2 GT ISZERO PUSH2 0x1B80 JUMPI PUSH2 0x1B7F PUSH2 0x17FF JUMP JUMPDEST JUMPDEST SWAP3 SWAP2 POP POP JUMP JUMPDEST PUSH32 0x4E487B7100000000000000000000000000000000000000000000000000000000 PUSH0 MSTORE PUSH1 0x12 PUSH1 0x4 MSTORE PUSH1 0x24 PUSH0 REVERT JUMPDEST PUSH0 PUSH2 0x1BBD DUP3 PUSH2 0x1629 JUMP JUMPDEST SWAP2 POP PUSH2 0x1BC8 DUP4 PUSH2 0x1629 JUMP JUMPDEST SWAP3 POP DUP3 PUSH2 0x1BD8 JUMPI PUSH2 0x1BD7 PUSH2 0x1B86 JUMP JUMPDEST JUMPDEST DUP3 DUP3 DIV SWAP1 POP SWAP3 SWAP2 POP POP JUMP JUMPDEST PUSH0 DUP2 MLOAD SWAP1 POP PUSH2 0x1BF1 DUP2 PUSH2 0x1632 JUMP JUMPDEST SWAP3 SWAP2 POP POP JUMP JUMPDEST PUSH0 PUSH1 0x20 DUP3 DUP5 SUB SLT ISZERO PUSH2 0x1C0C JUMPI PUSH2 0x1C0B PUSH2 0x1625 JUMP JUMPDEST JUMPDEST PUSH0 PUSH2 0x1C19 DUP5 DUP3 DUP6 ADD PUSH2 0x1BE3 JUMP JUMPDEST SWAP2 POP POP SWAP3 SWAP2 POP POP JUMP JUMPDEST PUSH0 PUSH1 0x60 DUP3 ADD SWAP1 POP PUSH2 0x1C35 PUSH0 DUP4 ADD DUP7 PUSH2 0x1747 JUMP JUMPDEST PUSH2 0x1C42 PUSH1 0x20 DUP4 ADD DUP6 PUSH2 0x1747 JUMP JUMPDEST PUSH2 0x1C4F PUSH1 0x40 DUP4 ADD DUP5 PUSH2 0x1747 JUMP JUMPDEST SWAP5 SWAP4 POP POP POP POP JUMP JUMPDEST PUSH0 DUP2 SWAP1 POP SWAP2 SWAP1 POP JUMP JUMPDEST PUSH0 DUP2 SWAP1 POP SWAP2 SWAP1 POP JUMP JUMPDEST PUSH0 PUSH2 0x1C83 PUSH2 0x1C7E PUSH2 0x1C79 DUP5 PUSH2 0x1C57 JUMP JUMPDEST PUSH2 0x1C60 JUMP JUMPDEST PUSH2 0x1629 JUMP JUMPDEST SWAP1 POP SWAP2 SWAP1 POP JUMP JUMPDEST PUSH2 0x1C93 DUP2 PUSH2 0x1C69 JUMP JUMPDEST DUP3 MSTORE POP POP JUMP JUMPDEST PUSH0 PUSH1 0xC0 DUP3 ADD SWAP1 POP PUSH2 0x1CAC PUSH0 DUP4 ADD DUP10 PUSH2 0x1747 JUMP JUMPDEST PUSH2 0x1CB9 PUSH1 0x20 DUP4 ADD DUP9 PUSH2 0x1747 JUMP JUMPDEST PUSH2 0x1CC6 PUSH1 0x40 DUP4 ADD DUP8 PUSH2 0x1C8A JUMP JUMPDEST PUSH2 0x1CD3 PUSH1 0x60 DUP4 ADD DUP7 PUSH2 0x1C8A JUMP JUMPDEST PUSH2 0x1CE0 PUSH1 0x80 DUP4 ADD DUP6 PUSH2 0x1C8A JUMP JUMPDEST PUSH2 0x1CED PUSH1 0xA0 DUP4 ADD DUP5 PUSH2 0x1C8A JUMP JUMPDEST SWAP8 SWAP7 POP POP POP POP POP POP POP JUMP INVALID LOG2 PUSH5 0x6970667358 0x22 SLT KECCAK256 PUSH10 0xFE46AB80EF27D5443065 0xDD ADDRESS PC 0xE1 0xD1 SWAP6 OR SWAP8 SAR 0x27 0xC3 0xA7 0x2D 0xB4 0xEE 0xC4 SWAP15 PUSH30 0x740F7264736F6C634300081C003300000000000000000000000000000000 "
		},
		"gasEstimates": {
			"creation": {
				"codeDepositCost": "1494000",
				"executionCost": "infinite",
				"totalCost": "infinite"
			},
			"external": {
				"DAI()": "461",
				"SUSD()": "419",
				"USDC()": "396",
				"USDT()": "417",
				"YCRV_VAULT()": "506",
				"calculateWeeklyProfits()": "infinite",
				"depositToDAI(uint256)": "infinite",
				"depositToSUSD(uint256)": "infinite",
				"depositToUSDC(uint256)": "infinite",
				"depositToUSDT(uint256)": "infinite",
				"depositToVault(address,uint256)": "infinite",
				"donateDAI(uint256)": "infinite",
				"donateSUSD(uint256)": "infinite",
				"donateToVault(address,uint256)": "infinite",
				"donateUSDC(uint256)": "infinite",
				"donateUSDT(uint256)": "infinite",
				"mintTokensBeforeDraw()": "infinite",
				"owner()": "2559",
				"prizeManager()": "2598",
				"releasedTokens(address)": "2891",
				"renounceOwnership()": "infinite",
				"transferOwnership(address)": "infinite",
				"userDeposits(address,address)": "infinite",
				"withdrawFunds(address,uint256)": "infinite"
			}
		},
		"methodIdentifiers": {
			"DAI()": "e0bab4c4",
			"SUSD()": "15d8eeba",
			"USDC()": "89a30271",
			"USDT()": "c54e44eb",
			"YCRV_VAULT()": "791f96a7",
			"calculateWeeklyProfits()": "de61e265",
			"depositToDAI(uint256)": "161e5cbd",
			"depositToSUSD(uint256)": "0594cc4e",
			"depositToUSDC(uint256)": "556c9166",
			"depositToUSDT(uint256)": "6fdea731",
			"depositToVault(address,uint256)": "a3d11158",
			"donateDAI(uint256)": "a544594e",
			"donateSUSD(uint256)": "b882ba74",
			"donateToVault(address,uint256)": "a2da905f",
			"donateUSDC(uint256)": "f9ba9f71",
			"donateUSDT(uint256)": "5610eca0",
			"mintTokensBeforeDraw()": "4b95f2f4",
			"owner()": "8da5cb5b",
			"prizeManager()": "3d6f4369",
			"releasedTokens(address)": "70ff852b",
			"renounceOwnership()": "715018a6",
			"transferOwnership(address)": "f2fde38b",
			"userDeposits(address,address)": "436d8039",
			"withdrawFunds(address,uint256)": "c1075329"
		}
	},
	"abi": [
		{
			"inputs": [
				{
					"internalType": "address",
					"name": "_prizeManager",
					"type": "address"
				},
				{
					"internalType": "address",
					"name": "initialOwner",
					"type": "address"
				}
			],
			"stateMutability": "nonpayable",
			"type": "constructor"
		},
		{
			"inputs": [
				{
					"internalType": "address",
					"name": "owner",
					"type": "address"
				}
			],
			"name": "OwnableInvalidOwner",
			"type": "error"
		},
		{
			"inputs": [
				{
					"internalType": "address",
					"name": "account",
					"type": "address"
				}
			],
			"name": "OwnableUnauthorizedAccount",
			"type": "error"
		},
		{
			"anonymous": false,
			"inputs": [
				{
					"indexed": true,
					"internalType": "address",
					"name": "user",
					"type": "address"
				},
				{
					"indexed": true,
					"internalType": "address",
					"name": "token",
					"type": "address"
				},
				{
					"indexed": false,
					"internalType": "uint256",
					"name": "amount",
					"type": "uint256"
				},
				{
					"indexed": false,
					"internalType": "uint256",
					"name": "timestamp",
					"type": "uint256"
				}
			],
			"name": "DepositMade",
			"type": "event"
		},
		{
			"anonymous": false,
			"inputs": [
				{
					"indexed": true,
					"internalType": "address",
					"name": "user",
					"type": "address"
				},
				{
					"indexed": true,
					"internalType": "address",
					"name": "token",
					"type": "address"
				},
				{
					"indexed": false,
					"internalType": "uint256",
					"name": "amount",
					"type": "uint256"
				},
				{
					"indexed": false,
					"internalType": "uint256",
					"name": "nasicReward",
					"type": "uint256"
				}
			],
			"name": "DonationMade",
			"type": "event"
		},
		{
			"anonymous": false,
			"inputs": [
				{
					"indexed": true,
					"internalType": "address",
					"name": "previousOwner",
					"type": "address"
				},
				{
					"indexed": true,
					"internalType": "address",
					"name": "newOwner",
					"type": "address"
				}
			],
			"name": "OwnershipTransferred",
			"type": "event"
		},
		{
			"anonymous": false,
			"inputs": [
				{
					"indexed": false,
					"internalType": "uint256",
					"name": "totalMinted",
					"type": "uint256"
				}
			],
			"name": "TokensMintedBeforeDraw",
			"type": "event"
		},
		{
			"anonymous": false,
			"inputs": [
				{
					"indexed": false,
					"internalType": "uint256",
					"name": "totalInvested",
					"type": "uint256"
				},
				{
					"indexed": false,
					"internalType": "uint256",
					"name": "weeklyProfit",
					"type": "uint256"
				},
				{
					"indexed": false,
					"internalType": "uint256",
					"name": "lowPrizeRemaining",
					"type": "uint256"
				},
				{
					"indexed": false,
					"internalType": "uint256",
					"name": "middlePrizeRemaining",
					"type": "uint256"
				},
				{
					"indexed": false,
					"internalType": "uint256",
					"name": "highPrizeRemaining",
					"type": "uint256"
				},
				{
					"indexed": false,
					"internalType": "uint256",
					"name": "superPrizeRemaining",
					"type": "uint256"
				}
			],
			"name": "WeeklyReport",
			"type": "event"
		},
		{
			"anonymous": false,
			"inputs": [
				{
					"indexed": true,
					"internalType": "address",
					"name": "user",
					"type": "address"
				},
				{
					"indexed": true,
					"internalType": "address",
					"name": "token",
					"type": "address"
				},
				{
					"indexed": false,
					"internalType": "uint256",
					"name": "amount",
					"type": "uint256"
				},
				{
					"indexed": false,
					"internalType": "uint256",
					"name": "extraTokens",
					"type": "uint256"
				}
			],
			"name": "WithdrawalCompleted",
			"type": "event"
		},
		{
			"inputs": [],
			"name": "DAI",
			"outputs": [
				{
					"internalType": "address",
					"name": "",
					"type": "address"
				}
			],
			"stateMutability": "view",
			"type": "function"
		},
		{
			"inputs": [],
			"name": "SUSD",
			"outputs": [
				{
					"internalType": "address",
					"name": "",
					"type": "address"
				}
			],
			"stateMutability": "view",
			"type": "function"
		},
		{
			"inputs": [],
			"name": "USDC",
			"outputs": [
				{
					"internalType": "address",
					"name": "",
					"type": "address"
				}
			],
			"stateMutability": "view",
			"type": "function"
		},
		{
			"inputs": [],
			"name": "USDT",
			"outputs": [
				{
					"internalType": "address",
					"name": "",
					"type": "address"
				}
			],
			"stateMutability": "view",
			"type": "function"
		},
		{
			"inputs": [],
			"name": "YCRV_VAULT",
			"outputs": [
				{
					"internalType": "address",
					"name": "",
					"type": "address"
				}
			],
			"stateMutability": "view",
			"type": "function"
		},
		{
			"inputs": [],
			"name": "calculateWeeklyProfits",
			"outputs": [],
			"stateMutability": "nonpayable",
			"type": "function"
		},
		{
			"inputs": [
				{
					"internalType": "uint256",
					"name": "amount",
					"type": "uint256"
				}
			],
			"name": "depositToDAI",
			"outputs": [],
			"stateMutability": "nonpayable",
			"type": "function"
		},
		{
			"inputs": [
				{
					"internalType": "uint256",
					"name": "amount",
					"type": "uint256"
				}
			],
			"name": "depositToSUSD",
			"outputs": [],
			"stateMutability": "nonpayable",
			"type": "function"
		},
		{
			"inputs": [
				{
					"internalType": "uint256",
					"name": "amount",
					"type": "uint256"
				}
			],
			"name": "depositToUSDC",
			"outputs": [],
			"stateMutability": "nonpayable",
			"type": "function"
		},
		{
			"inputs": [
				{
					"internalType": "uint256",
					"name": "amount",
					"type": "uint256"
				}
			],
			"name": "depositToUSDT",
			"outputs": [],
			"stateMutability": "nonpayable",
			"type": "function"
		},
		{
			"inputs": [
				{
					"internalType": "address",
					"name": "token",
					"type": "address"
				},
				{
					"internalType": "uint256",
					"name": "amount",
					"type": "uint256"
				}
			],
			"name": "depositToVault",
			"outputs": [],
			"stateMutability": "nonpayable",
			"type": "function"
		},
		{
			"inputs": [
				{
					"internalType": "uint256",
					"name": "amount",
					"type": "uint256"
				}
			],
			"name": "donateDAI",
			"outputs": [],
			"stateMutability": "nonpayable",
			"type": "function"
		},
		{
			"inputs": [
				{
					"internalType": "uint256",
					"name": "amount",
					"type": "uint256"
				}
			],
			"name": "donateSUSD",
			"outputs": [],
			"stateMutability": "nonpayable",
			"type": "function"
		},
		{
			"inputs": [
				{
					"internalType": "address",
					"name": "token",
					"type": "address"
				},
				{
					"internalType": "uint256",
					"name": "amount",
					"type": "uint256"
				}
			],
			"name": "donateToVault",
			"outputs": [],
			"stateMutability": "nonpayable",
			"type": "function"
		},
		{
			"inputs": [
				{
					"internalType": "uint256",
					"name": "amount",
					"type": "uint256"
				}
			],
			"name": "donateUSDC",
			"outputs": [],
			"stateMutability": "nonpayable",
			"type": "function"
		},
		{
			"inputs": [
				{
					"internalType": "uint256",
					"name": "amount",
					"type": "uint256"
				}
			],
			"name": "donateUSDT",
			"outputs": [],
			"stateMutability": "nonpayable",
			"type": "function"
		},
		{
			"inputs": [],
			"name": "mintTokensBeforeDraw",
			"outputs": [],
			"stateMutability": "nonpayable",
			"type": "function"
		},
		{
			"inputs": [],
			"name": "owner",
			"outputs": [
				{
					"internalType": "address",
					"name": "",
					"type": "address"
				}
			],
			"stateMutability": "view",
			"type": "function"
		},
		{
			"inputs": [],
			"name": "prizeManager",
			"outputs": [
				{
					"internalType": "address",
					"name": "",
					"type": "address"
				}
			],
			"stateMutability": "view",
			"type": "function"
		},
		{
			"inputs": [
				{
					"internalType": "address",
					"name": "",
					"type": "address"
				}
			],
			"name": "releasedTokens",
			"outputs": [
				{
					"internalType": "uint256",
					"name": "",
					"type": "uint256"
				}
			],
			"stateMutability": "view",
			"type": "function"
		},
		{
			"inputs": [],
			"name": "renounceOwnership",
			"outputs": [],
			"stateMutability": "nonpayable",
			"type": "function"
		},
		{
			"inputs": [
				{
					"internalType": "address",
					"name": "newOwner",
					"type": "address"
				}
			],
			"name": "transferOwnership",
			"outputs": [],
			"stateMutability": "nonpayable",
			"type": "function"
		},
		{
			"inputs": [
				{
					"internalType": "address",
					"name": "",
					"type": "address"
				},
				{
					"internalType": "address",
					"name": "",
					"type": "address"
				}
			],
			"name": "userDeposits",
			"outputs": [
				{
					"internalType": "uint256",
					"name": "amount",
					"type": "uint256"
				},
				{
					"internalType": "uint256",
					"name": "timestamp",
					"type": "uint256"
				}
			],
			"stateMutability": "view",
			"type": "function"
		},
		{
			"inputs": [
				{
					"internalType": "address",
					"name": "token",
					"type": "address"
				},
				{
					"internalType": "uint256",
					"name": "amount",
					"type": "uint256"
				}
			],
			"name": "withdrawFunds",
			"outputs": [],
			"stateMutability": "nonpayable",
			"type": "function"
		}
	]
}